{"abi":[{"type":"constructor","inputs":[{"name":"message_queue","type":"address","internalType":"address"},{"name":"vft_manager","type":"bytes32","internalType":"bytes32"}],"stateMutability":"nonpayable"},{"type":"function","name":"getTokenSupplyType","inputs":[{"name":"token","type":"address","internalType":"address"}],"outputs":[{"name":"","type":"uint8","internalType":"enum IERC20Manager.SupplyType"}],"stateMutability":"view"},{"type":"function","name":"processVaraMessage","inputs":[{"name":"sender","type":"bytes32","internalType":"bytes32"},{"name":"payload","type":"bytes","internalType":"bytes"}],"outputs":[{"name":"","type":"bool","internalType":"bool"}],"stateMutability":"nonpayable"},{"type":"function","name":"requestBridging","inputs":[{"name":"token","type":"address","internalType":"address"},{"name":"amount","type":"uint256","internalType":"uint256"},{"name":"to","type":"bytes32","internalType":"bytes32"}],"outputs":[],"stateMutability":"nonpayable"},{"type":"event","name":"BridgingAccepted","inputs":[{"name":"to","type":"address","indexed":true,"internalType":"address"},{"name":"token","type":"address","indexed":true,"internalType":"address"},{"name":"amount","type":"uint256","indexed":false,"internalType":"uint256"}],"anonymous":false},{"type":"event","name":"BridgingRequested","inputs":[{"name":"from","type":"address","indexed":true,"internalType":"address"},{"name":"to","type":"bytes32","indexed":true,"internalType":"bytes32"},{"name":"token","type":"address","indexed":true,"internalType":"address"},{"name":"amount","type":"uint256","indexed":false,"internalType":"uint256"}],"anonymous":false},{"type":"error","name":"AddressEmptyCode","inputs":[{"name":"target","type":"address","internalType":"address"}]},{"type":"error","name":"BadArguments","inputs":[]},{"type":"error","name":"BadVftManagerAddress","inputs":[]},{"type":"error","name":"FailedCall","inputs":[]},{"type":"error","name":"InsufficientBalance","inputs":[{"name":"balance","type":"uint256","internalType":"uint256"},{"name":"needed","type":"uint256","internalType":"uint256"}]},{"type":"error","name":"NotAuthorized","inputs":[]},{"type":"error","name":"SafeERC20FailedOperation","inputs":[{"name":"token","type":"address","internalType":"address"}]},{"type":"error","name":"UnsupportedTokenSupply","inputs":[]}],"bytecode":{"object":"0x60c0604052348015600e575f80fd5b5060405161091b38038061091b833981016040819052602b916040565b6001600160a01b0390911660805260a0526075565b5f80604083850312156050575f80fd5b82516001600160a01b03811681146065575f80fd5b6020939093015192949293505050565b60805160a0516108866100955f395f61012501525f60c401526108865ff3fe608060405234801561000f575f80fd5b506004361061003f575f3560e01c8063bd3f513814610043578063c305870c1461006b578063ca67d39c14610080575b5f80fd5b610056610051366004610675565b6100b8565b60405190151581526020015b60405180910390f35b61007e610079366004610707565b6102f9565b005b6100ab61008e366004610737565b6001600160a01b03165f9081526020819052604090205460ff1690565b6040516100629190610764565b5f336001600160a01b037f000000000000000000000000000000000000000000000000000000000000000016146101025760405163ea8e4eb560e01b815260040160405180910390fd5b6048821461012357604051630b9cddcd60e11b815260040160405180910390fd5b7f00000000000000000000000000000000000000000000000000000000000000008414610163576040516305e363e160e41b815260040160405180910390fd5b5f610171601482858761078a565b61017a916107b1565b60601c90505f61018e60286014868861078a565b610197916107b1565b60601c90505f6101aa856028818961078a565b6101b3916107fe565b6001600160a01b0383165f9081526020819052604090205490915060ff1660018160028111156101e5576101e5610750565b03610203576101fe6001600160a01b0384168584610431565b61029c565b5f81600281111561021657610216610750565b0361023e576001600160a01b0383165f908152602081905260409020805460ff191660021790555b6040516340c10f1960e01b81526001600160a01b038581166004830152602482018490528416906340c10f19906044015f604051808303815f87803b158015610285575f80fd5b505af1158015610297573d5f803e3d5ffd5b505050505b826001600160a01b0316846001600160a01b03167f4751a265d168d11cf478e41f20d00d0fca3fe8395f8aadf30557232d69cf13cc846040516102e191815260200190565b60405180910390a360019450505050505b9392505050565b6001600160a01b0383165f9081526020819052604090205460ff16600281600281111561032857610328610750565b0361038d5760405163079cc67960e41b8152326004820152602481018490526001600160a01b038516906379cc6790906044015f604051808303815f87803b158015610372575f80fd5b505af1158015610384573d5f803e3d5ffd5b505050506103dd565b5f8160028111156103a0576103a0610750565b036103c8576001600160a01b0384165f908152602081905260409020805460ff191660011790555b6103dd6001600160a01b038516323086610495565b836001600160a01b031682326001600160a01b03167ff80de57fd7626baaff7d867494866703686569822c2326ae60b2515ede953c3a8660405161042391815260200190565b60405180910390a450505050565b6040516001600160a01b0383811660248301526044820183905261049091859182169063a9059cbb906064015b604051602081830303815290604052915060e01b6020820180516001600160e01b0383818316178352505050506104d4565b505050565b6040516001600160a01b0384811660248301528381166044830152606482018390526104ce9186918216906323b872dd9060840161045e565b50505050565b5f6104e86001600160a01b0384168361053a565b905080515f1415801561050c57508080602001905181019061050a919061081b565b155b1561049057604051635274afe760e01b81526001600160a01b03841660048201526024015b60405180910390fd5b606061054783835f610550565b90505b92915050565b60608147101561057c5760405163cf47918160e01b815247600482015260248101839052604401610531565b5f80856001600160a01b03168486604051610597919061083a565b5f6040518083038185875af1925050503d805f81146105d1576040519150601f19603f3d011682016040523d82523d5f602084013e6105d6565b606091505b50915091506105e68683836105f0565b9695505050505050565b606082610605576106008261064c565b6102f2565b815115801561061c57506001600160a01b0384163b155b1561064557604051639996b31560e01b81526001600160a01b0385166004820152602401610531565b50806102f2565b80511561065c5780518082602001fd5b60405163d6bda27560e01b815260040160405180910390fd5b5f805f60408486031215610687575f80fd5b83359250602084013567ffffffffffffffff8111156106a4575f80fd5b8401601f810186136106b4575f80fd5b803567ffffffffffffffff8111156106ca575f80fd5b8660208284010111156106db575f80fd5b939660209190910195509293505050565b80356001600160a01b0381168114610702575f80fd5b919050565b5f805f60608486031215610719575f80fd5b610722846106ec565b95602085013595506040909401359392505050565b5f60208284031215610747575f80fd5b610547826106ec565b634e487b7160e01b5f52602160045260245ffd5b602081016003831061078457634e487b7160e01b5f52602160045260245ffd5b91905290565b5f8085851115610798575f80fd5b838611156107a4575f80fd5b5050820193919092039150565b80356bffffffffffffffffffffffff1981169060148410156107f7576bffffffffffffffffffffffff196bffffffffffffffffffffffff198560140360031b1b82161691505b5092915050565b8035602083101561054a575f19602084900360031b1b1692915050565b5f6020828403121561082b575f80fd5b815180151581146102f2575f80fd5b5f82518060208501845e5f92019182525091905056fea2646970667358221220ec7f067a7d10360219a6060174659bae581cc83f4a5580ecf0240a555ae93ca464736f6c634300081a0033","linkReferences":{}},"methodIdentifiers":{"getTokenSupplyType(address)":"ca67d39c","processVaraMessage(bytes32,bytes)":"bd3f5138","requestBridging(address,uint256,bytes32)":"c305870c"},"id":54}