{"abi":[{"type":"constructor","inputs":[{"name":"message_queue","type":"address","internalType":"address"},{"name":"vft_manager","type":"bytes32","internalType":"bytes32"}],"stateMutability":"nonpayable"},{"type":"function","name":"processVaraMessage","inputs":[{"name":"sender","type":"bytes32","internalType":"bytes32"},{"name":"payload","type":"bytes","internalType":"bytes"}],"outputs":[{"name":"","type":"bool","internalType":"bool"}],"stateMutability":"nonpayable"},{"type":"function","name":"requestBridging","inputs":[{"name":"token","type":"address","internalType":"address"},{"name":"amount","type":"uint256","internalType":"uint256"},{"name":"to","type":"bytes32","internalType":"bytes32"},{"name":"supply_type","type":"uint8","internalType":"uint8"}],"outputs":[],"stateMutability":"nonpayable"},{"type":"event","name":"BridgingAccepted","inputs":[{"name":"to","type":"address","indexed":true,"internalType":"address"},{"name":"token","type":"address","indexed":true,"internalType":"address"},{"name":"amount","type":"uint256","indexed":false,"internalType":"uint256"}],"anonymous":false},{"type":"event","name":"BridgingRequested","inputs":[{"name":"from","type":"address","indexed":true,"internalType":"address"},{"name":"to","type":"bytes32","indexed":true,"internalType":"bytes32"},{"name":"token","type":"address","indexed":true,"internalType":"address"},{"name":"amount","type":"uint256","indexed":false,"internalType":"uint256"}],"anonymous":false},{"type":"error","name":"AddressEmptyCode","inputs":[{"name":"target","type":"address","internalType":"address"}]},{"type":"error","name":"BadArguments","inputs":[]},{"type":"error","name":"BadVftManagerAddress","inputs":[]},{"type":"error","name":"FailedCall","inputs":[]},{"type":"error","name":"InsufficientBalance","inputs":[{"name":"balance","type":"uint256","internalType":"uint256"},{"name":"needed","type":"uint256","internalType":"uint256"}]},{"type":"error","name":"NotAuthorized","inputs":[]},{"type":"error","name":"SafeERC20FailedOperation","inputs":[{"name":"token","type":"address","internalType":"address"}]},{"type":"error","name":"UnsupportedTokenSupply","inputs":[]}],"bytecode":{"object":"0x60c0604052348015600e575f80fd5b50604051610842380380610842833981016040819052602b916040565b6001600160a01b0390911660805260a0526075565b5f80604083850312156050575f80fd5b82516001600160a01b03811681146065575f80fd5b6020939093015192949293505050565b60805160a0516107ac6100965f395f6101dd01525f61017c01526107ac5ff3fe608060405234801561000f575f80fd5b5060043610610034575f3560e01c80637f45d32914610038578063bd3f51381461004d575b5f80fd5b61004b6100463660046105b7565b610074565b005b61006061005b36600461060e565b610170565b604051901515815260200160405180910390f35b8060ff165f03610098576100936001600160a01b038516323086610373565b61011c565b8060ff166001036101035760405163079cc67960e41b8152326004820152602481018490526001600160a01b038516906379cc6790906044015f604051808303815f87803b1580156100e8575f80fd5b505af11580156100fa573d5f803e3d5ffd5b5050505061011c565b604051634eb9d02160e01b815260040160405180910390fd5b836001600160a01b031682326001600160a01b03167ff80de57fd7626baaff7d867494866703686569822c2326ae60b2515ede953c3a8660405161016291815260200190565b60405180910390a450505050565b5f336001600160a01b037f000000000000000000000000000000000000000000000000000000000000000016146101ba5760405163ea8e4eb560e01b815260040160405180910390fd5b604982146101db57604051630b9cddcd60e11b815260040160405180910390fd5b7f0000000000000000000000000000000000000000000000000000000000000000841461021b576040516305e363e160e41b815260040160405180910390fd5b5f6102296001828587610685565b610232916106ac565b60f81c90505f610246601560018688610685565b61024f916106e4565b60601c90505f610263602960158789610685565b61026c916106e4565b60601c90505f61027f866029818a610685565b61028891610724565b905060ff84165f036102ad576102a86001600160a01b03831684836103e0565b610316565b8360ff16600103610103576040516340c10f1960e01b81526001600160a01b038481166004830152602482018390528316906340c10f19906044015f604051808303815f87803b1580156102ff575f80fd5b505af1158015610311573d5f803e3d5ffd5b505050505b816001600160a01b0316836001600160a01b03167f4751a265d168d11cf478e41f20d00d0fca3fe8395f8aadf30557232d69cf13cc8360405161035b91815260200190565b60405180910390a360019450505050505b9392505050565b6040516001600160a01b0384811660248301528381166044830152606482018390526103da9186918216906323b872dd906084015b604051602081830303815290604052915060e01b6020820180516001600160e01b038381831617835250505050610416565b50505050565b6040516001600160a01b0383811660248301526044820183905261041191859182169063a9059cbb906064016103a8565b505050565b5f61042a6001600160a01b0384168361047c565b905080515f1415801561044e57508080602001905181019061044c9190610741565b155b1561041157604051635274afe760e01b81526001600160a01b03841660048201526024015b60405180910390fd5b606061048983835f610492565b90505b92915050565b6060814710156104be5760405163cf47918160e01b815247600482015260248101839052604401610473565b5f80856001600160a01b031684866040516104d99190610760565b5f6040518083038185875af1925050503d805f8114610513576040519150601f19603f3d011682016040523d82523d5f602084013e610518565b606091505b5091509150610528868383610532565b9695505050505050565b606082610547576105428261058e565b61036c565b815115801561055e57506001600160a01b0384163b155b1561058757604051639996b31560e01b81526001600160a01b0385166004820152602401610473565b508061036c565b80511561059e5780518082602001fd5b60405163d6bda27560e01b815260040160405180910390fd5b5f805f80608085870312156105ca575f80fd5b84356001600160a01b03811681146105e0575f80fd5b93506020850135925060408501359150606085013560ff81168114610603575f80fd5b939692955090935050565b5f805f60408486031215610620575f80fd5b83359250602084013567ffffffffffffffff81111561063d575f80fd5b8401601f8101861361064d575f80fd5b803567ffffffffffffffff811115610663575f80fd5b866020828401011115610674575f80fd5b939660209190910195509293505050565b5f8085851115610693575f80fd5b8386111561069f575f80fd5b5050820193919092039150565b80356001600160f81b031981169060018410156106dd576001600160f81b0319600185900360031b81901b82161691505b5092915050565b80356bffffffffffffffffffffffff1981169060148410156106dd576bffffffffffffffffffffffff1960149490940360031b84901b1690921692915050565b8035602083101561048c575f19602084900360031b1b1692915050565b5f60208284031215610751575f80fd5b8151801515811461036c575f80fd5b5f82518060208501845e5f92019182525091905056fea2646970667358221220432baa1e7a85d82d4eebd6c3dfae6342669c3ed11d1de429dacc763272eba73864736f6c634300081a0033","linkReferences":{}},"methodIdentifiers":{"processVaraMessage(bytes32,bytes)":"bd3f5138","requestBridging(address,uint256,bytes32,uint8)":"7f45d329"},"id":52}