{"contracts/gear_verifier.sol":{"ValidatorSetChangeVerifier":{"abi":[{"inputs":[{"internalType":"uint256[68]","name":"_circuitDigestAndMerkleRoots","type":"uint256[68]"},{"internalType":"uint256[5]","name":"_validatorSet","type":"uint256[5]"}],"stateMutability":"nonpayable","type":"constructor"},{"anonymous":false,"inputs":[{"indexed":false,"internalType":"uint256[5]","name":"","type":"uint256[5]"}],"name":"SuccessfulVerification","type":"event"},{"anonymous":false,"inputs":[{"indexed":false,"internalType":"uint256[5]","name":"","type":"uint256[5]"}],"name":"VerificationFailed","type":"event"},{"inputs":[],"name":"getValidatorSet","outputs":[{"internalType":"uint256[5][]","name":"","type":"uint256[5][]"}],"stateMutability":"view","type":"function"},{"inputs":[],"name":"getVerified","outputs":[{"internalType":"bool","name":"","type":"bool"}],"stateMutability":"view","type":"function"},{"inputs":[],"name":"nonceId","outputs":[{"internalType":"uint256","name":"","type":"uint256"}],"stateMutability":"view","type":"function"},{"inputs":[{"internalType":"uint256","name":"","type":"uint256"}],"name":"publicInputs","outputs":[{"internalType":"uint256","name":"","type":"uint256"}],"stateMutability":"view","type":"function"},{"inputs":[{"internalType":"uint256","name":"","type":"uint256"},{"internalType":"uint256","name":"","type":"uint256"}],"name":"validatorSet","outputs":[{"internalType":"uint256","name":"","type":"uint256"}],"stateMutability":"view","type":"function"},{"inputs":[],"name":"verified","outputs":[{"internalType":"bool","name":"","type":"bool"}],"stateMutability":"view","type":"function"},{"inputs":[{"internalType":"uint256[2]","name":"_pA","type":"uint256[2]"},{"internalType":"uint256[2][2]","name":"_pB","type":"uint256[2][2]"},{"internalType":"uint256[2]","name":"_pC","type":"uint256[2]"},{"internalType":"uint256[78]","name":"_pubSignals","type":"uint256[78]"}],"name":"verifyProof","outputs":[{"internalType":"bool","name":"","type":"bool"}],"stateMutability":"view","type":"function"},{"inputs":[{"internalType":"uint256[2]","name":"_pA","type":"uint256[2]"},{"internalType":"uint256[2][2]","name":"_pB","type":"uint256[2][2]"},{"internalType":"uint256[2]","name":"_pC","type":"uint256[2]"},{"internalType":"uint256[5]","name":"nextValidatorSet","type":"uint256[5]"}],"name":"verifyValidatorSetChangeProof","outputs":[],"stateMutability":"nonpayable","type":"function"}],"evm":{"bytecode":{"linkReferences":{},"object":"60806040523480156200001157600080fd5b50604051620033a6380380620033a683398181016040528101906200003791906200029f565b8160009060446200004a929190620000b3565b50604e81908060018154018082558091505060019003906000526020600020906005020160009091909190915090600562000087929190620000f8565b506000604f819055506000605060006101000a81548160ff0219169083151502179055505050620003bb565b82604e8101928215620000e5579160200282015b82811115620000e4578251825591602001919060010190620000c7565b5b509050620000f491906200013d565b5090565b82600581019282156200012a579160200282015b82811115620001295782518255916020019190600101906200010c565b5b5090506200013991906200013d565b5090565b5b80821115620001585760008160009055506001016200013e565b5090565b6000620001736200016d8462000316565b620002e2565b905080828560208602820111156200018a57600080fd5b60005b85811015620001be5781620001a3888262000288565b8452602084019350602083019250506001810190506200018d565b5050509392505050565b6000620001df620001d9846200033f565b620002e2565b90508082856020860282011115620001f657600080fd5b60005b858110156200022a57816200020f888262000288565b845260208401935060208301925050600181019050620001f9565b5050509392505050565b600082601f8301126200024657600080fd5b6005620002558482856200015c565b91505092915050565b600082601f8301126200027057600080fd5b60446200027f848285620001c8565b91505092915050565b6000815190506200029981620003a1565b92915050565b6000806109208385031215620002b457600080fd5b6000620002c4858286016200025e565b925050610880620002d88582860162000234565b9150509250929050565b6000604051905081810181811067ffffffffffffffff821117156200030c576200030b62000372565b5b8060405250919050565b600067ffffffffffffffff82111562000334576200033362000372565b5b602082029050919050565b600067ffffffffffffffff8211156200035d576200035c62000372565b5b602082029050919050565b6000819050919050565b7f4e487b7100000000000000000000000000000000000000000000000000000000600052604160045260246000fd5b620003ac8162000368565b8114620003b857600080fd5b50565b612fdb80620003cb6000396000f3fe608060405234801561001057600080fd5b50600436106100885760003560e01c806388e356251161005b57806388e3562514610129578063bbb82d8914610159578063cf33125014610177578063f7b00e7f1461019557610088565b80630c0869931461008d578063406e6709146100ab578063670b74d9146100c95780636ae659ee146100f9575b600080fd5b6100956101b1565b6040516100a29190612cdd565b60405180910390f35b6100b36101b7565b6040516100c09190612cc2565b60405180910390f35b6100e360048036038101906100de91906128ec565b6101ce565b6040516100f09190612cc2565b60405180910390f35b610113600480360381019061010e919061297a565b6122b5565b6040516101209190612cdd565b60405180910390f35b610143600480360381019061013e91906129a3565b6122d0565b6040516101509190612cdd565b60405180910390f35b610161612308565b60405161016e9190612cc2565b60405180910390f35b61017f61231b565b60405161018c9190612c3e565b60405180910390f35b6101af60048036038101906101aa9190612887565b6123ab565b005b604f5481565b6000605060009054906101000a900460ff16905090565b6000611e49565b7f30644e72e131a029b85045b68181585d97816a916871ca8d3c208c16d87cfd478110610206576000805260206000f35b50565b600060405183815284602082015285604082015260408160608360076107d05a03fa91508161023c576000805260206000f35b825160408201526020830151606082015260408360808360066107d05a03fa91508161026c576000805260206000f35b505050505050565b600060808601600087017f1c120abf71acffb842722798d31398bf3d41fd2075c3225bb9249c22b7e282e081527f0c464e77fdc625282237ce3c15a9153ae8c55a747decb9586a96839ee44f3e93602082015261031760008801357f2154b55578b74cc493806f1b45fc3956f9aa81c90f89bbd6d867abc0b755dd3f7f14e1f157baf1bb42a6fb9a011020532b6732d454274acacd3e9b121cb19835ee84610209565b61036760208801357f0bd0ddf508a61d4e6965a9830775e93a585617ed0e17ffaab7b35bded7df78bd7f1c48d8b8c581986550152dbdfa0d64f022dbbce88f6bc8551fad3bb429e2d5ef84610209565b6103b760408801357f15753f111d03f3b9524bac0441103d8c96c1ef81ac85f10637b58999191125c87f036fbbebe9b6e9882415b43ace9674e06dfa4b8eae27bee32ba4a68702153e5d84610209565b61040760608801357f1380736fe5b19359980256e4d233e4e4b5adbcc85ab392dc329ffd0c64ad38a87f0dc2cdb797ec67b1f7471fd0ca3fdbc91f6a0e1bc4883b63163e4f1ee7f75c0184610209565b61045760808801357f299e0354f2164ffccefac816e9c430675fb6faac702d10ed3df452346f89c1767f17c6ddb10c97cb565027cd7747d31493072b5f7ac9855d599ac36b3dc747f5aa84610209565b6104a760a08801357f0b9358588f0118ed5b2825993722947f9e65e408a10b408216a255cbfa0058c57f2299ebb2cc2900223b76138b80c37e506590f12ef56aec9995d6e6905875926e84610209565b6104f760c08801357f090d0b302bc7650e74fa82786e1892fa5350086987e72942eb77c2682b3514fe7f2b6dbe6e2dde989cfe5692fadc2e46a0384156965ce1e9afcacc8c31f02d9df184610209565b61054660e08801357edab53df2eeb9bdeaa768ed5c01f5e0c9339f65faf37aff69dfc70f77a388c77f04a95f1c73000c62d4d1494f4d2b31ec0e21d42ed419f8cbc223737d1ca610db84610209565b6105976101008801357f16ec2701baabc399ab7c26c52ea92a69de71ab7f0ebac0c56697c5719dfd7f477f1f42a71c24b0efcc6b0bc0e5ea73c53764cbba73024860346ea045625e96842f84610209565b6105e86101208801357f2afb0c72162ff1d158577a85c0088ae2c93d8a2e37970ef13016ca2a96ef32057f1d3f40b128c7dabaf6a9ac4c213d5caf54031b282ae4da66b82886a780270afa84610209565b6106396101408801357f08a15a517a99f2dd9dbec5f9bf4f846ab4367305da537170a2f252d8e1b652037f284af27ecba4e789e589825c20eaf9ca85a512f2d25ef0d9a677c8ace4439aa584610209565b61068a6101608801357f0e4484961d3051c47842253ec6d21b20f9d96b1e149b7adf147086667501762a7f1819879c310188c1d0619a8bd767c3b68e40ad8dad19141eaf8f6e512974c80a84610209565b6106db6101808801357f0e2dcb55205ac07e48864472e080d4c9b3991226caf8fdd51fc7930928e13c6a7f07ba7cf25d31e1013b41f131683ddac9bfaf31576b9a85d14cd4b2187433ed3584610209565b61072c6101a08801357f0cdfed5312b8c754b04573566ed7798db1099b612b4eb78bd5f67f539775c6967f0d35ae05c8dd583dace9165e00853769870c272fb16ad7b54f9359671c6502bd84610209565b61077d6101c08801357f2b3db3f28c0617ff398c7f36dfbd4b11049a28092a71cb55eb318c4db82aaa147f0253fe59f04ece7ee1a0ae668144effbf2dbb727cbddbe658e84418b0f560e8484610209565b6107ce6101e08801357f1c16d8d868aa3ea6cd608f167d4f5c6c5986c93e56a92fd55dfcdeba8fd8daff7f2b42423ca1d601424c4eafa7e22e352b8ff65b91d07df0741ef099e29292369084610209565b61081f6102008801357f1724fe5c6130ece5d91afc60f008cfedc1bda48031f37b0655e51b4d3fcb55dc7f0a511298c0b2fad48b66636ec4c4abd8b124e394f3f57e52374165f2be2e798d84610209565b6108706102208801357f1b49622a17d2ce7cd9f8970c3e6927bf540f73ae91723277e34a46c3c1e261437f13ccb882e68f3f93f69cbdbf8d4a53c0e65f2a67b1cf3266e766faab9933936284610209565b6108c16102408801357f2ac2e3946eaf44410bf6426807f2f03bb229f3d068b79101817035d4bee2607e7f1192f95712102b85480ae6b553565a075013efbd69c8ba75a00af8e7040bad7c84610209565b6109126102608801357f24d6d7692ef5a279c267b45a1ebeafbdac5cf5d149b9d2ad499230614601863a7f093589826d4a9fa01cd2787ad9de53a1f2c66bd0ceb32c73acf4821772db782784610209565b6109626102808801357ee9e77aba7b780e3c3b995ece112617bd4f5fc21589dc5d370b5215b83505457f16516e6485e441f2723274fd5815d4bd3feef358efc00807cad29d333122aade84610209565b6109b36102a08801357f16800633488e4c32259a3994da87234da751b59eb126999ad6089b174d54b64e7f1906ad36f4f4865a77f6f6d664805f4af79c41011dc740e5c109aa7134a53da284610209565b610a046102c08801357f1975313ba6d7e94bcde68a410c2aec9481a151b785341449a67e68e81cc273e17f2bff9a90ecbfb71e99768e2422db4e938933f5804478fcf9446b89c872fbc6ae84610209565b610a556102e08801357f01917846fb4f25af4c35701ad895aa98e2fdaa2daa845494b249201e3cebfc097f261c6deb3a71bea6f490c3f85a7c24f04ab621b7798f2544929e35f153ba732f84610209565b610aa66103008801357f167a24e662b5f9a46acb6fb47f2b4101a4eed67f442000e5dea6248192b5c8e97f1a47db756452acc4403a8b52dbb05b09d362dfdc82a27dcf0aad0d20c66a2e5384610209565b610af76103208801357f24438dfdc93279f015eed63ba7246efdbc306742ef29ddfea1643cbd6098e1087f169e0503b3c8a7dbfdee42ab8b6c1ab9bf55bd60af78bd0772eab008ddd2523484610209565b610b486103408801357f1a7ba0f2473c8c54afc869af03239e14737543ca781bd799ff35bb9db1cb21607f305f512a4bdaa34fd8ea8e5e00e0b2b2799f977369d27e6683693eec0a6260f784610209565b610b996103608801357f194a7ad2bfeb31069667040185f6996a81e80fac39159438d8372a0b5c9591717f2a4b5253ae713b0e98a5801e38f7ae932d8955a52cc4366a57e74f3e52e0e9fb84610209565b610bea6103808801357f095598b9fdea3c5fc011a15077b1ba861ae2c03bced71ba53cddeb68a0d070007f05e03f9d408295566883698a2246d3c6e1b93fb02abcbaf19ec58f7a815af14f84610209565b610c3b6103a08801357f0ce37073fb33bb0d52bbb5774235b484b2c99366b1fda53f49c90b1913365ade7f124fb82ed451930ae10f441a4a210ff2c96ced6ed326402d7c5aa99a5c8eb46e84610209565b610c8c6103c08801357f1f2fc9c26ea673c16294c544ed25a3cdaab9f334ac4582d119dcb44ad34953bb7f04c37a4f13f65f3abe43e0ff012d56de58ba5bded5bf520590f444c873b8b33984610209565b610cdd6103e08801357f1a41c0fe0d539304af2cfa0d68ca67819b9d151504ce7ea750b27e3d874b17987f089c3fac27c07a7fcea2e22d620030344a61e1784c3f069aa94a0f7b9fcfe56984610209565b610d2d6104008801357f1b202cbeb83c9cfa4932a313bf2c7e5d4da857f454a6d0a86a481fdaf8d403ca7e1f13cb9db0e7b70418799ed260e400e4691de97c80e7ccf06e5538f9dfd65584610209565b610d7e6104208801357f2e5282fc8040f0cdd66e03adef04737e97b9981e7eab083975c62167c2a73d2f7f196c6a134fe4f86f0ee1fcd4250ba9f71ded76f0223000bd6b36add8f415f69684610209565b610dce6104408801357f1843950a405b8bcf9bd06dd30466b66be4f76e51bea40dc74aa582e9ec72b2157e9e6458f61cfe50d7b8615b0b5144461e4bf10b2f5c69f19a65ce274ccb24fc84610209565b610e1f6104608801357f1a60ff643efd830f771873537aba7f2f0b83ee729d887f698ba9b79f55d821947f18bf908f154380d5894afd15ba8a0adbc9b1a99d049e132c26f479d724f1d24284610209565b610e706104808801357f28c70664b7f9998ed838b70088d7cd196df326b4f552bbef8b55d5c44ab2a6767f2f584a6af3b55c7eabf2d52021d15277a1d4aa447799c84e979240f2f6f39a5b84610209565b610ec16104a08801357f231d39dcfb4389c2bd0a2d31b36b22831681496a99a89388cf6c6edac84eb0777f09ec1e4f9e443e59e13c7223dcfb2c42055d31e364240b9e68130ebde06ab07e84610209565b610f126104c08801357f1fecf8e7a6a8f92879ade076fd0dfc0fe8abfcebc45fbb99151c47f45e5c4b847f07479cd537bb9c0f7d175ee544fa4d50aa1497a77a4aa2ed57839b8c64852e1384610209565b610f636104e08801357f059fb17d46b6079d0fcb8f8dee8be04b63471744f77c6908dfcf7d6878db09fd7f07b0b5ba6aa97e9a9a32bcaa197f7a4e174abd9ae012876e3f69a92df93fac5c84610209565b610fb46105008801357f031a59d76804d90afaaf5a2fa740c05c0fc8dfe211ca9b936da23de072ff707c7f1895ae7d8e537b7b53a44edcd10ab13a6a0e1773967878c87312c6e8f68ffd1884610209565b6110056105208801357f1a57edaa754dc21bb1a7b07ef11e09a3fab14d5244e22d1a59951b8ddc08f2867f038693c31fd3e910d469d269828ffc90a40449fa5e5b8495ac503020db80588784610209565b6110556105408801357f183beacb1f7a2bdddaad7e3590a380011c511839ba81c6d2abe892284b2ab4237e12d7dac81eb792e1acf9e1e28c92d4c33632db88da1bb71357f3013d0b04de84610209565b6110a66105608801357f09c1dee97783df074609ee37af0068adbed0895bfc180354446ea1cbe11b0ba27f275ac0d2832acffa2edffe5164d0d0778c4dc8ec5d38f28788fede51116e7f2084610209565b6110f76105808801357f11f7622ea5b9190e61ee771683fe164df747f96a946bea74b2e366616dd082e87f1e9481dc517f39993639d3fe7e990c4851a2e58a081836b02f2c04d76145b0a684610209565b6111486105a08801357f144762ed6b8b6faafcd55c6228cbbdcc22068e978f7597f3d5c0525b0f00a5827f2a847d2d499743e8cfa86fd55b160ad3320d88faf231227da31650114c4695cd84610209565b6111996105c08801357f17572d34d9241e9ccfcd664305a1f08525f9fe1f84f46173c4bcee7240d8a9927f08f23616472bd340df2333d87f637076a4eca72a78c822fcdbca5791884fa03984610209565b6111ea6105e08801357f17d5fc88faedaaadaddccf83ad0d5fa00de7c5a3f7834364872530a75e34ea6b7f1f63bb1ec0fdd4e61c150a13aaa2276e411e6d551cd9634768056ca50f7c761d84610209565b61123b6106008801357f22c6fe4a54963c4d7ba0a362e551798823860678d694905338219537be787fe87f150fb3f5ec7c5019dea1a2c9027f965489d5340c8f1cdbd3e67a14ed8e7ae38784610209565b61128c6106208801357f1176a7b4564e96e59fa39615c01069b75a62d9232829a1d3a074778b17be04ea7f0e4f66c47206a7d0ab7abbe0a54afd14966653ae98cc291bec31818649b4f1fc84610209565b6112dd6106408801357f1d0ab3859c4709bc267bb17c47c8d07c9ee1e52ce70ab284f1e522a0c0d3f7707f01c6331fdf5a4f3c94c1e983f59c3445a730eb7c68412342be0246b11bb6080884610209565b61132e6106608801357f16baf8ff2abac9ee505a66d08694893382461d07badcca920b5f2f29b7fefb827f2e95c07703a5f460e928a8616cc0a32c81529e55dd9f5fe65f5ef369a155002884610209565b61137f6106808801357f1ae3ffe045e71bab68e45395d0dd33c16aa694856366d2c3efb08326992e784a7f2124ea3390b77a98d884960bd8302af458c5c54c41ba847b700c10dc30bd8d9e84610209565b6113d06106a08801357f30619d39980d6d6b921d1f1405c7ddce12725e91a50ac303ce99cd8ff08f52167f0299a7b8a330cef6e468a801b954cb37924ca4723310ffd6963a1bfbe2e406a084610209565b6114216106c08801357f170291aa0cfb0507145e693d13abdf27e05c9003fb3a9d77da14aaf5071513997f0c8d041edb7e2b8e0e8b80d9e6196038925e58599806180bf76518cf2df2e30e84610209565b6114726106e08801357f036dc82087a0262f32c85dc97460339f9744577aeecfb1f274713a1f5d29526e7f25498e1c46ffa3fa6a929a4247d7a7b7a828b8ebed033032f21323f6abd000cb84610209565b6114c26107008801357f0d7b5314623e0c62dcb152aebc638033dec8e40f14cfff7a410ec2b3bccf19d67ed8cda8916791b9f177d0f51c80bb10fe7f2a255bc3172ba3b9a0bf89bf28ab84610209565b6115126107208801357f1628ba10a58def433ad881de923d294e61135c334dda3ce35eb93d246419dd997e903e8edb16bc683be05b78295e7e992d0a17e80b5596a23fbf854610100fab84610209565b6115636107408801357f2b00ea3aecfb874ff172535efb6ee86de565b2a0ca28fe7fe00732217aadf0457f213336b3779ae3d1983709188ec8b5a1c39855a93a9936695cc7c286cd4106c984610209565b6115b36107608801357f17d4148e13fff5aa7aceb0ec873fa6e532d040dd15d835a5b5ad0e33317186527ef950feb3aa6b3fbd8c3b75a743b5f6c08f05103ee8405f650a85f0b0e63ebc84610209565b6116046107808801357f2075186e3ca2462a8e981d7d97edfd1081fa702db090427f4c6f38bfa6aab6f17f0777c5239d5defcef8fd9f3952a90cfb22611020c99e527021a8cb56da3164da84610209565b6116556107a08801357f044fe0d2b1b5a1d2501df98228cef51453d403c110c3527cfbc2225cfa5b820d7f0550805b27f8b9b80b2e8114f0f21acf8976404f8b7c2932729584495d1ec12884610209565b6116a66107c08801357f08395eff070dff2ebcf904feafdbd9ae403c7a27148fc8a93e844f18f3c2ec2d7f2835dc1af0b63d402f85ffcb8b9ab5255d9234e01e9b98530117e0eb3401d40584610209565b6116f76107e08801357f110c912dc0a5a81530bbae71326a75f9eb03332942da0ef7001fd2fb542b1f267f100bebe0e39abf09c941c19b329f07f6f807f2b34b05ec91c49f12cbeadb205684610209565b6117486108008801357f2190364b77f7eec4872e374a3afa97786e285f7882d8064211216876b83701e47f02319f139fb74e08c6bd30c1e8c635c82193f71312dafa2b22a11365274a1e7584610209565b6117996108208801357f19c7932baecff900eb2225f85904553ad3f07e7f42a678c381514512e72929b17f2af2bed2bf45ef363e226a86a6b8d933575e5a22b13b17c4f4f4cf13a42ee07184610209565b6117ea6108408801357f034253af444114edc0b1bf235192328f3c252935e2f94b2406a397cf8867db377f28cd43cb15bf0f0e2d5291a93cd7bd95146b709716579587ae049738ee51c03884610209565b61183b6108608801357f2946e3bfbad6ed54bc86d00200a63334d5284985d073c1261f3bd261f86415e67f202ccdcea178bfd57a7a1410c39296f3672be03e4bec7fea0c2efd5bf85e8f3184610209565b61188c6108808801357f10156fec9e0bb58c1f485c056d2f207c30a6977d661cc9dfe5f0e6931a0771317f2636549e44bb79823c81cbf82bd2ab8d084f6e61342aa1a3df4a40aec7b4fc6284610209565b6118dd6108a08801357f1416af715851b64bb763f23c898e556f3ba4ed16b4918ed1e246bef75c8d8be27f01cb2214ed940f01ff2aa41c674b208dbe8320d7b4f7de08f96e87cee9c69e7284610209565b61192e6108c08801357f283b81bcd354d8d0f16eece8b93a8b863a2534b3fa4b7cf8b33a5b88b0f0ec357f23692b44492ddcbc53f85736f5beffa94206ebe801c892c6461bfb418284e0e284610209565b61197f6108e08801357f1f9001b206726c69882f937956a4094528fb83654ffb9e32bd4a6cf9deab0d747f11024c1d1d50b5005f7ff29a7d68ce6f8f08cab9573b7a03f970f88bba28003984610209565b6119d06109008801357f2c1e6330888cabf9ccb696f3f721444e60449a8063ee312f4690b16a4c331b2d7f1e5da07fdcb167f420589ad3f39c9317a1f179dfa5964f7c5e27b05d96d41d4884610209565b611a216109208801357f04f83f014bafcfb23599be384a041e7003d3b9cd99ad1bd14de939a00f64310b7f2005c18717f3c3ad698679bd215f5505b6b9c7132e664bdf382dfdb30e066ce884610209565b611a726109408801357f232355b5575be4c47bf2519bf62475d367353b8efa5b6b2437bae5cc6a6a9f617f26b60fb5b89fe5caed90f355abb66f3d125aaf117215d92feeb69ff52e28a1ed84610209565b611ac36109608801357f2d21ccdb040df673c20ad37a1baa59e80ac10357ac5b4e43cf479ace460e645a7f21b7446a5125716641970160b9c94d1eeab7d7bc249315d27db8b99cc23d00af84610209565b611b146109808801357f29dca094c35f373a140166b73b02110dad65613bd17129ed6b5021a876e46d917f1c6b63eec29948a6becca8d8a7d9da3190a820f4958286100e80636f9f288e1c84610209565b611b656109a08801357f1b64fd983e687c099f0876f558a2b6bd955642096b62fb78b62f1412e387ccfa7f06f489aaf26938ce153c8565622ff2cefdbbf0b1277654c42ee86ca1cbb1f33784610209565b833582527f30644e72e131a029b85045b68181585d97816a916871ca8d3c208c16d87cfd4760208501357f30644e72e131a029b85045b68181585d97816a916871ca8d3c208c16d87cfd4703066020830152843560408301526020850135606083015260408501356080830152606085013560a08301527f2d4d9aa7e302d9df41749d5507949d05dbea33fbb16c643b22f599a2be6df2e260c08301527f14bedd503c37ceb061d8ec60209fe345ce89830a19230301f076caff004d192660e08301527f0967032fcbf776d1afc985f88877f182d38480a653f2decaa9794cbc3bf3060c6101008301527f0e187847ad4c798374d0d6732bf501847dd68bc0e071241e0213bc7fc13db7ab6101208301527f304cfbd1e08a704a99f5e847d93f8c3caafddec46b7a0d379da69a4d112346a76101408301527f1739c1b1a457a8c7313123d24d2f9192f896b7c63eea05a9d57f06547ad0cec8610160830152600088015161018083015260206000018801516101a08301527f198e9393920d483a7260bfb731fb5d25f1aa493335a9e71297e485b7aef312c26101c08301527f1800deef121f1e76426a00665e5c4479674322d4f75edadd46debd5cd992f6ed6101e08301527f090689d0585ff075ec9e99ad690c3395bc4b313370b38ef355acdadcd122975b6102008301527f12c85ea5db8c6deb4aab71808dcb408fe3d1e7690c43d37b4ce6cc0166fa7daa610220830152853561024083015260208601356102608301527f198e9393920d483a7260bfb731fb5d25f1aa493335a9e71297e485b7aef312c26102808301527f1800deef121f1e76426a00665e5c4479674322d4f75edadd46debd5cd992f6ed6102a08301527f090689d0585ff075ec9e99ad690c3395bc4b313370b38ef355acdadcd122975b6102c08301527f12c85ea5db8c6deb4aab71808dcb408fe3d1e7690c43d37b4ce6cc0166fa7daa6102e08301526020826103008460086107d05a03fa82518116935050505095945050505050565b6040516103808101604052611e6160008401356101d5565b611e6e60208401356101d5565b611e7b60408401356101d5565b611e8860608401356101d5565b611e9560808401356101d5565b611ea260a08401356101d5565b611eaf60c08401356101d5565b611ebc60e08401356101d5565b611eca6101008401356101d5565b611ed86101208401356101d5565b611ee66101408401356101d5565b611ef46101608401356101d5565b611f026101808401356101d5565b611f106101a08401356101d5565b611f1e6101c08401356101d5565b611f2c6101e08401356101d5565b611f3a6102008401356101d5565b611f486102208401356101d5565b611f566102408401356101d5565b611f646102608401356101d5565b611f726102808401356101d5565b611f806102a08401356101d5565b611f8e6102c08401356101d5565b611f9c6102e08401356101d5565b611faa6103008401356101d5565b611fb86103208401356101d5565b611fc66103408401356101d5565b611fd46103608401356101d5565b611fe26103808401356101d5565b611ff06103a08401356101d5565b611ffe6103c08401356101d5565b61200c6103e08401356101d5565b61201a6104008401356101d5565b6120286104208401356101d5565b6120366104408401356101d5565b6120446104608401356101d5565b6120526104808401356101d5565b6120606104a08401356101d5565b61206e6104c08401356101d5565b61207c6104e08401356101d5565b61208a6105008401356101d5565b6120986105208401356101d5565b6120a66105408401356101d5565b6120b46105608401356101d5565b6120c26105808401356101d5565b6120d06105a08401356101d5565b6120de6105c08401356101d5565b6120ec6105e08401356101d5565b6120fa6106008401356101d5565b6121086106208401356101d5565b6121166106408401356101d5565b6121246106608401356101d5565b6121326106808401356101d5565b6121406106a08401356101d5565b61214e6106c08401356101d5565b61215c6106e08401356101d5565b61216a6107008401356101d5565b6121786107208401356101d5565b6121866107408401356101d5565b6121946107608401356101d5565b6121a26107808401356101d5565b6121b06107a08401356101d5565b6121be6107c08401356101d5565b6121cc6107e08401356101d5565b6121da6108008401356101d5565b6121e86108208401356101d5565b6121f66108408401356101d5565b6122046108608401356101d5565b6122126108808401356101d5565b6122206108a08401356101d5565b61222e6108c08401356101d5565b61223c6108e08401356101d5565b61224a6109008401356101d5565b6122586109208401356101d5565b6122666109408401356101d5565b6122746109608401356101d5565b6122826109808401356101d5565b6122906109a08401356101d5565b61229e6109c08401356101d5565b6122ab818486888a610274565b8060005260206000f35b600081604e81106122c557600080fd5b016000915090505481565b604e82815481106122e057600080fd5b906000526020600020906005020181600581106122fc57600080fd5b01600091509150505481565b605060009054906101000a900460ff1681565b6060604e805480602002602001604051908101604052809291908181526020016000905b828210156123a2578382906000526020600020906005020160058060200260405190810160405280929190826005801561238e576020028201915b81548152602001906001019080831161237a575b50505050508152602001906001019061233f565b50505050905090565b6123b4816125d2565b600084848460006040516024016123ce9493929190612c60565b6040516020818303038152906040527f670b74d9000000000000000000000000000000000000000000000000000000007bffffffffffffffffffffffffffffffffffffffffffffffffffffffff19166020820180517bffffffffffffffffffffffffffffffffffffffffffffffffffffffff838183161783525050505090506000803073ffffffffffffffffffffffffffffffffffffffff16836040516124759190612c27565b6000604051808303816000865af19150503d80600081146124b2576040519150601f19603f3d011682016040523d82523d6000602084013e6124b7565b606091505b50915091506000818060200190518101906124d29190612951565b90508280156124de5750805b15612575576001605060006101000a81548160ff021916908315150217905550604e859080600181540180825580915050600190039060005260206000209060050201600090919091909150906005612538929190612788565b507f07258bd3df1839ac83ef07de0002ad7fc79fa3aaf88ad0d8297ab9bf7d64fe4d856040516125689190612ca7565b60405180910390a16125c8565b6000605060006101000a81548160ff0219169083151502179055507f4aea6ab617ea80a05e762695a7b3a336702ccce3f8a425b08f96759aa278920e856040516125bf9190612ca7565b60405180910390a15b5050505050505050565b60006001604e805490506125e69190612e2f565b90506000604e8281548110612624577f4e487b7100000000000000000000000000000000000000000000000000000000600052603260045260246000fd5b9060005260206000209060050201905060005b60058110156126d957818160058110612679577f4e487b7100000000000000000000000000000000000000000000000000000000600052603260045260246000fd5b0154600082604461268a9190612dd9565b604e81106126c1577f4e487b7100000000000000000000000000000000000000000000000000000000600052603260045260246000fd5b018190555080806126d190612edf565b915050612637565b5060005b60058110156127825783816005811061271f577f4e487b7100000000000000000000000000000000000000000000000000000000600052603260045260246000fd5b602002013560008260496127339190612dd9565b604e811061276a577f4e487b7100000000000000000000000000000000000000000000000000000000600052603260045260246000fd5b0181905550808061277a90612edf565b9150506126dd565b50505050565b82600581019282156127b7579160200282015b828111156127b657823582559160200191906001019061279b565b5b5090506127c491906127c8565b5090565b5b808211156127e15760008160009055506001016127c9565b5090565b6000819050826040600202820111156127fd57600080fd5b92915050565b60008190508260206002028201111561281b57600080fd5b92915050565b60008190508260206005028201111561283957600080fd5b92915050565b6000819050826020604e028201111561285757600080fd5b92915050565b60008151905061286c81612f77565b92915050565b60008135905061288181612f8e565b92915050565b6000806000806101a0858703121561289e57600080fd5b60006128ac87828801612803565b94505060406128bd878288016127e5565b93505060c06128ce87828801612803565b9250506101006128e087828801612821565b91505092959194509250565b600080600080610ac0858703121561290357600080fd5b600061291187828801612803565b9450506040612922878288016127e5565b93505060c061293387828801612803565b9250506101006129458782880161283f565b91505092959194509250565b60006020828403121561296357600080fd5b60006129718482850161285d565b91505092915050565b60006020828403121561298c57600080fd5b600061299a84828501612872565b91505092915050565b600080604083850312156129b657600080fd5b60006129c485828601612872565b92505060206129d585828601612872565b9150509250929050565b60006129eb8383612ae4565b60408301905092915050565b6000612a038383612b14565b60a08301905092915050565b6000612a1b8383612c09565b60208301905092915050565b612a3081612d26565b612a3a8184612d91565b9250612a4582612cf8565b8060005b83811015612a7e57612a5b8284612dce565b612a6587826129df565b9650612a7083612d5d565b925050600181019050612a49565b505050505050565b6000612a9182612d31565b612a9b8185612d9c565b9350612aa683612d02565b8060005b83811015612ad7578151612abe88826129f7565b9750612ac983612d6a565b925050600181019050612aaa565b5085935050505092915050565b612af060408383612e83565b5050565b612b0060408383612e83565b5050565b612b1060a08383612e83565b5050565b612b1d81612d3c565b612b278184612dad565b9250612b3282612d12565b8060005b83811015612b63578151612b4a8782612a0f565b9650612b5583612d77565b925050600181019050612b36565b505050505050565b612b7481612d47565b612b7e8184612db8565b9250612b8982612d1c565b8060005b83811015612bc157612b9e82612f57565b612ba88782612a0f565b9650612bb383612d84565b925050600181019050612b8d565b505050505050565b612bd281612e6d565b82525050565b6000612be382612d52565b612bed8185612dc3565b9350612bfd818560208601612e92565b80840191505092915050565b612c1281612e79565b82525050565b612c2181612e79565b82525050565b6000612c338284612bd8565b915081905092915050565b60006020820190508181036000830152612c588184612a86565b905092915050565b6000610ac082019050612c766000830187612af4565b612c836040830186612a27565b612c9060c0830185612af4565b612c9e610100830184612b6b565b95945050505050565b600060a082019050612cbc6000830184612b04565b92915050565b6000602082019050612cd76000830184612bc9565b92915050565b6000602082019050612cf26000830184612c18565b92915050565b6000819050919050565b6000819050602082019050919050565b6000819050919050565b6000819050919050565b600060029050919050565b600081519050919050565b600060059050919050565b6000604e9050919050565b600081519050919050565b6000604082019050919050565b6000602082019050919050565b6000602082019050919050565b6000600182019050919050565b600081905092915050565b600082825260208201905092915050565b600081905092915050565b600081905092915050565b600081905092915050565b600082905092915050565b6000612de482612e79565b9150612def83612e79565b9250827fffffffffffffffffffffffffffffffffffffffffffffffffffffffffffffffff03821115612e2457612e23612f28565b5b828201905092915050565b6000612e3a82612e79565b9150612e4583612e79565b925082821015612e5857612e57612f28565b5b828203905092915050565b6000819050919050565b60008115159050919050565b6000819050919050565b82818337600083830152505050565b60005b83811015612eb0578082015181840152602081019050612e95565b83811115612ebf576000848401525b50505050565b6000612ed8612ed383612f6a565b612e63565b9050919050565b6000612eea82612e79565b91507fffffffffffffffffffffffffffffffffffffffffffffffffffffffffffffffff821415612f1d57612f1c612f28565b5b600182019050919050565b7f4e487b7100000000000000000000000000000000000000000000000000000000600052601160045260246000fd5b6000612f638254612ec5565b9050919050565b60008160001c9050919050565b612f8081612e6d565b8114612f8b57600080fd5b50565b612f9781612e79565b8114612fa257600080fd5b5056fea264697066735822122010dba5f5d74161dae7844403d31279eb2ea9598ecb4d053e8e7bc2c742b2aa6064736f6c63430008000033","opcodes":"PUSH1 0x80 PUSH1 0x40 MSTORE CALLVALUE DUP1 ISZERO PUSH3 0x11 JUMPI PUSH1 0x0 DUP1 REVERT JUMPDEST POP PUSH1 0x40 MLOAD PUSH3 0x33A6 CODESIZE SUB DUP1 PUSH3 0x33A6 DUP4 CODECOPY DUP2 DUP2 ADD PUSH1 0x40 MSTORE DUP2 ADD SWAP1 PUSH3 0x37 SWAP2 SWAP1 PUSH3 0x29F JUMP JUMPDEST DUP2 PUSH1 0x0 SWAP1 PUSH1 0x44 PUSH3 0x4A SWAP3 SWAP2 SWAP1 PUSH3 0xB3 JUMP JUMPDEST POP PUSH1 0x4E DUP2 SWAP1 DUP1 PUSH1 0x1 DUP2 SLOAD ADD DUP1 DUP3 SSTORE DUP1 SWAP2 POP POP PUSH1 0x1 SWAP1 SUB SWAP1 PUSH1 0x0 MSTORE PUSH1 0x20 PUSH1 0x0 KECCAK256 SWAP1 PUSH1 0x5 MUL ADD PUSH1 0x0 SWAP1 SWAP2 SWAP1 SWAP2 SWAP1 SWAP2 POP SWAP1 PUSH1 0x5 PUSH3 0x87 SWAP3 SWAP2 SWAP1 PUSH3 0xF8 JUMP JUMPDEST POP PUSH1 0x0 PUSH1 0x4F DUP2 SWAP1 SSTORE POP PUSH1 0x0 PUSH1 0x50 PUSH1 0x0 PUSH2 0x100 EXP DUP2 SLOAD DUP2 PUSH1 0xFF MUL NOT AND SWAP1 DUP4 ISZERO ISZERO MUL OR SWAP1 SSTORE POP POP POP PUSH3 0x3BB JUMP JUMPDEST DUP3 PUSH1 0x4E DUP2 ADD SWAP3 DUP3 ISZERO PUSH3 0xE5 JUMPI SWAP2 PUSH1 0x20 MUL DUP3 ADD JUMPDEST DUP3 DUP2 GT ISZERO PUSH3 0xE4 JUMPI DUP3 MLOAD DUP3 SSTORE SWAP2 PUSH1 0x20 ADD SWAP2 SWAP1 PUSH1 0x1 ADD SWAP1 PUSH3 0xC7 JUMP JUMPDEST JUMPDEST POP SWAP1 POP PUSH3 0xF4 SWAP2 SWAP1 PUSH3 0x13D JUMP JUMPDEST POP SWAP1 JUMP JUMPDEST DUP3 PUSH1 0x5 DUP2 ADD SWAP3 DUP3 ISZERO PUSH3 0x12A JUMPI SWAP2 PUSH1 0x20 MUL DUP3 ADD JUMPDEST DUP3 DUP2 GT ISZERO PUSH3 0x129 JUMPI DUP3 MLOAD DUP3 SSTORE SWAP2 PUSH1 0x20 ADD SWAP2 SWAP1 PUSH1 0x1 ADD SWAP1 PUSH3 0x10C JUMP JUMPDEST JUMPDEST POP SWAP1 POP PUSH3 0x139 SWAP2 SWAP1 PUSH3 0x13D JUMP JUMPDEST POP SWAP1 JUMP JUMPDEST JUMPDEST DUP1 DUP3 GT ISZERO PUSH3 0x158 JUMPI PUSH1 0x0 DUP2 PUSH1 0x0 SWAP1 SSTORE POP PUSH1 0x1 ADD PUSH3 0x13E JUMP JUMPDEST POP SWAP1 JUMP JUMPDEST PUSH1 0x0 PUSH3 0x173 PUSH3 0x16D DUP5 PUSH3 0x316 JUMP JUMPDEST PUSH3 0x2E2 JUMP JUMPDEST SWAP1 POP DUP1 DUP3 DUP6 PUSH1 0x20 DUP7 MUL DUP3 ADD GT ISZERO PUSH3 0x18A JUMPI PUSH1 0x0 DUP1 REVERT JUMPDEST PUSH1 0x0 JUMPDEST DUP6 DUP2 LT ISZERO PUSH3 0x1BE JUMPI DUP2 PUSH3 0x1A3 DUP9 DUP3 PUSH3 0x288 JUMP JUMPDEST DUP5 MSTORE PUSH1 0x20 DUP5 ADD SWAP4 POP PUSH1 0x20 DUP4 ADD SWAP3 POP POP PUSH1 0x1 DUP2 ADD SWAP1 POP PUSH3 0x18D JUMP JUMPDEST POP POP POP SWAP4 SWAP3 POP POP POP JUMP JUMPDEST PUSH1 0x0 PUSH3 0x1DF PUSH3 0x1D9 DUP5 PUSH3 0x33F JUMP JUMPDEST PUSH3 0x2E2 JUMP JUMPDEST SWAP1 POP DUP1 DUP3 DUP6 PUSH1 0x20 DUP7 MUL DUP3 ADD GT ISZERO PUSH3 0x1F6 JUMPI PUSH1 0x0 DUP1 REVERT JUMPDEST PUSH1 0x0 JUMPDEST DUP6 DUP2 LT ISZERO PUSH3 0x22A JUMPI DUP2 PUSH3 0x20F DUP9 DUP3 PUSH3 0x288 JUMP JUMPDEST DUP5 MSTORE PUSH1 0x20 DUP5 ADD SWAP4 POP PUSH1 0x20 DUP4 ADD SWAP3 POP POP PUSH1 0x1 DUP2 ADD SWAP1 POP PUSH3 0x1F9 JUMP JUMPDEST POP POP POP SWAP4 SWAP3 POP POP POP JUMP JUMPDEST PUSH1 0x0 DUP3 PUSH1 0x1F DUP4 ADD SLT PUSH3 0x246 JUMPI PUSH1 0x0 DUP1 REVERT JUMPDEST PUSH1 0x5 PUSH3 0x255 DUP5 DUP3 DUP6 PUSH3 0x15C JUMP JUMPDEST SWAP2 POP POP SWAP3 SWAP2 POP POP JUMP JUMPDEST PUSH1 0x0 DUP3 PUSH1 0x1F DUP4 ADD SLT PUSH3 0x270 JUMPI PUSH1 0x0 DUP1 REVERT JUMPDEST PUSH1 0x44 PUSH3 0x27F DUP5 DUP3 DUP6 PUSH3 0x1C8 JUMP JUMPDEST SWAP2 POP POP SWAP3 SWAP2 POP POP JUMP JUMPDEST PUSH1 0x0 DUP2 MLOAD SWAP1 POP PUSH3 0x299 DUP2 PUSH3 0x3A1 JUMP JUMPDEST SWAP3 SWAP2 POP POP JUMP JUMPDEST PUSH1 0x0 DUP1 PUSH2 0x920 DUP4 DUP6 SUB SLT ISZERO PUSH3 0x2B4 JUMPI PUSH1 0x0 DUP1 REVERT JUMPDEST PUSH1 0x0 PUSH3 0x2C4 DUP6 DUP3 DUP7 ADD PUSH3 0x25E JUMP JUMPDEST SWAP3 POP POP PUSH2 0x880 PUSH3 0x2D8 DUP6 DUP3 DUP7 ADD PUSH3 0x234 JUMP JUMPDEST SWAP2 POP POP SWAP3 POP SWAP3 SWAP1 POP JUMP JUMPDEST PUSH1 0x0 PUSH1 0x40 MLOAD SWAP1 POP DUP2 DUP2 ADD DUP2 DUP2 LT PUSH8 0xFFFFFFFFFFFFFFFF DUP3 GT OR ISZERO PUSH3 0x30C JUMPI PUSH3 0x30B PUSH3 0x372 JUMP JUMPDEST JUMPDEST DUP1 PUSH1 0x40 MSTORE POP SWAP2 SWAP1 POP JUMP JUMPDEST PUSH1 0x0 PUSH8 0xFFFFFFFFFFFFFFFF DUP3 GT ISZERO PUSH3 0x334 JUMPI PUSH3 0x333 PUSH3 0x372 JUMP JUMPDEST JUMPDEST PUSH1 0x20 DUP3 MUL SWAP1 POP SWAP2 SWAP1 POP JUMP JUMPDEST PUSH1 0x0 PUSH8 0xFFFFFFFFFFFFFFFF DUP3 GT ISZERO PUSH3 0x35D JUMPI PUSH3 0x35C PUSH3 0x372 JUMP JUMPDEST JUMPDEST PUSH1 0x20 DUP3 MUL SWAP1 POP SWAP2 SWAP1 POP JUMP JUMPDEST PUSH1 0x0 DUP2 SWAP1 POP SWAP2 SWAP1 POP JUMP JUMPDEST PUSH32 0x4E487B7100000000000000000000000000000000000000000000000000000000 PUSH1 0x0 MSTORE PUSH1 0x41 PUSH1 0x4 MSTORE PUSH1 0x24 PUSH1 0x0 REVERT JUMPDEST PUSH3 0x3AC DUP2 PUSH3 0x368 JUMP JUMPDEST DUP2 EQ PUSH3 0x3B8 JUMPI PUSH1 0x0 DUP1 REVERT JUMPDEST POP JUMP JUMPDEST PUSH2 0x2FDB DUP1 PUSH3 0x3CB PUSH1 0x0 CODECOPY PUSH1 0x0 RETURN INVALID PUSH1 0x80 PUSH1 0x40 MSTORE CALLVALUE DUP1 ISZERO PUSH2 0x10 JUMPI PUSH1 0x0 DUP1 REVERT JUMPDEST POP PUSH1 0x4 CALLDATASIZE LT PUSH2 0x88 JUMPI PUSH1 0x0 CALLDATALOAD PUSH1 0xE0 SHR DUP1 PUSH4 0x88E35625 GT PUSH2 0x5B JUMPI DUP1 PUSH4 0x88E35625 EQ PUSH2 0x129 JUMPI DUP1 PUSH4 0xBBB82D89 EQ PUSH2 0x159 JUMPI DUP1 PUSH4 0xCF331250 EQ PUSH2 0x177 JUMPI DUP1 PUSH4 0xF7B00E7F EQ PUSH2 0x195 JUMPI PUSH2 0x88 JUMP JUMPDEST DUP1 PUSH4 0xC086993 EQ PUSH2 0x8D JUMPI DUP1 PUSH4 0x406E6709 EQ PUSH2 0xAB JUMPI DUP1 PUSH4 0x670B74D9 EQ PUSH2 0xC9 JUMPI DUP1 PUSH4 0x6AE659EE EQ PUSH2 0xF9 JUMPI JUMPDEST PUSH1 0x0 DUP1 REVERT JUMPDEST PUSH2 0x95 PUSH2 0x1B1 JUMP JUMPDEST PUSH1 0x40 MLOAD PUSH2 0xA2 SWAP2 SWAP1 PUSH2 0x2CDD JUMP JUMPDEST PUSH1 0x40 MLOAD DUP1 SWAP2 SUB SWAP1 RETURN JUMPDEST PUSH2 0xB3 PUSH2 0x1B7 JUMP JUMPDEST PUSH1 0x40 MLOAD PUSH2 0xC0 SWAP2 SWAP1 PUSH2 0x2CC2 JUMP JUMPDEST PUSH1 0x40 MLOAD DUP1 SWAP2 SUB SWAP1 RETURN JUMPDEST PUSH2 0xE3 PUSH1 0x4 DUP1 CALLDATASIZE SUB DUP2 ADD SWAP1 PUSH2 0xDE SWAP2 SWAP1 PUSH2 0x28EC JUMP JUMPDEST PUSH2 0x1CE JUMP JUMPDEST PUSH1 0x40 MLOAD PUSH2 0xF0 SWAP2 SWAP1 PUSH2 0x2CC2 JUMP JUMPDEST PUSH1 0x40 MLOAD DUP1 SWAP2 SUB SWAP1 RETURN JUMPDEST PUSH2 0x113 PUSH1 0x4 DUP1 CALLDATASIZE SUB DUP2 ADD SWAP1 PUSH2 0x10E SWAP2 SWAP1 PUSH2 0x297A JUMP JUMPDEST PUSH2 0x22B5 JUMP JUMPDEST PUSH1 0x40 MLOAD PUSH2 0x120 SWAP2 SWAP1 PUSH2 0x2CDD JUMP JUMPDEST PUSH1 0x40 MLOAD DUP1 SWAP2 SUB SWAP1 RETURN JUMPDEST PUSH2 0x143 PUSH1 0x4 DUP1 CALLDATASIZE SUB DUP2 ADD SWAP1 PUSH2 0x13E SWAP2 SWAP1 PUSH2 0x29A3 JUMP JUMPDEST PUSH2 0x22D0 JUMP JUMPDEST PUSH1 0x40 MLOAD PUSH2 0x150 SWAP2 SWAP1 PUSH2 0x2CDD JUMP JUMPDEST PUSH1 0x40 MLOAD DUP1 SWAP2 SUB SWAP1 RETURN JUMPDEST PUSH2 0x161 PUSH2 0x2308 JUMP JUMPDEST PUSH1 0x40 MLOAD PUSH2 0x16E SWAP2 SWAP1 PUSH2 0x2CC2 JUMP JUMPDEST PUSH1 0x40 MLOAD DUP1 SWAP2 SUB SWAP1 RETURN JUMPDEST PUSH2 0x17F PUSH2 0x231B JUMP JUMPDEST PUSH1 0x40 MLOAD PUSH2 0x18C SWAP2 SWAP1 PUSH2 0x2C3E JUMP JUMPDEST PUSH1 0x40 MLOAD DUP1 SWAP2 SUB SWAP1 RETURN JUMPDEST PUSH2 0x1AF PUSH1 0x4 DUP1 CALLDATASIZE SUB DUP2 ADD SWAP1 PUSH2 0x1AA SWAP2 SWAP1 PUSH2 0x2887 JUMP JUMPDEST PUSH2 0x23AB JUMP JUMPDEST STOP JUMPDEST PUSH1 0x4F SLOAD DUP2 JUMP JUMPDEST PUSH1 0x0 PUSH1 0x50 PUSH1 0x0 SWAP1 SLOAD SWAP1 PUSH2 0x100 EXP SWAP1 DIV PUSH1 0xFF AND SWAP1 POP SWAP1 JUMP JUMPDEST PUSH1 0x0 PUSH2 0x1E49 JUMP JUMPDEST PUSH32 0x30644E72E131A029B85045B68181585D97816A916871CA8D3C208C16D87CFD47 DUP2 LT PUSH2 0x206 JUMPI PUSH1 0x0 DUP1 MSTORE PUSH1 0x20 PUSH1 0x0 RETURN JUMPDEST POP JUMP JUMPDEST PUSH1 0x0 PUSH1 0x40 MLOAD DUP4 DUP2 MSTORE DUP5 PUSH1 0x20 DUP3 ADD MSTORE DUP6 PUSH1 0x40 DUP3 ADD MSTORE PUSH1 0x40 DUP2 PUSH1 0x60 DUP4 PUSH1 0x7 PUSH2 0x7D0 GAS SUB STATICCALL SWAP2 POP DUP2 PUSH2 0x23C JUMPI PUSH1 0x0 DUP1 MSTORE PUSH1 0x20 PUSH1 0x0 RETURN JUMPDEST DUP3 MLOAD PUSH1 0x40 DUP3 ADD MSTORE PUSH1 0x20 DUP4 ADD MLOAD PUSH1 0x60 DUP3 ADD MSTORE PUSH1 0x40 DUP4 PUSH1 0x80 DUP4 PUSH1 0x6 PUSH2 0x7D0 GAS SUB STATICCALL SWAP2 POP DUP2 PUSH2 0x26C JUMPI PUSH1 0x0 DUP1 MSTORE PUSH1 0x20 PUSH1 0x0 RETURN JUMPDEST POP POP POP POP POP POP JUMP JUMPDEST PUSH1 0x0 PUSH1 0x80 DUP7 ADD PUSH1 0x0 DUP8 ADD PUSH32 0x1C120ABF71ACFFB842722798D31398BF3D41FD2075C3225BB9249C22B7E282E0 DUP2 MSTORE PUSH32 0xC464E77FDC625282237CE3C15A9153AE8C55A747DECB9586A96839EE44F3E93 PUSH1 0x20 DUP3 ADD MSTORE PUSH2 0x317 PUSH1 0x0 DUP9 ADD CALLDATALOAD PUSH32 0x2154B55578B74CC493806F1B45FC3956F9AA81C90F89BBD6D867ABC0B755DD3F PUSH32 0x14E1F157BAF1BB42A6FB9A011020532B6732D454274ACACD3E9B121CB19835EE DUP5 PUSH2 0x209 JUMP JUMPDEST PUSH2 0x367 PUSH1 0x20 DUP9 ADD CALLDATALOAD PUSH32 0xBD0DDF508A61D4E6965A9830775E93A585617ED0E17FFAAB7B35BDED7DF78BD PUSH32 0x1C48D8B8C581986550152DBDFA0D64F022DBBCE88F6BC8551FAD3BB429E2D5EF DUP5 PUSH2 0x209 JUMP JUMPDEST PUSH2 0x3B7 PUSH1 0x40 DUP9 ADD CALLDATALOAD PUSH32 0x15753F111D03F3B9524BAC0441103D8C96C1EF81AC85F10637B58999191125C8 PUSH32 0x36FBBEBE9B6E9882415B43ACE9674E06DFA4B8EAE27BEE32BA4A68702153E5D DUP5 PUSH2 0x209 JUMP JUMPDEST PUSH2 0x407 PUSH1 0x60 DUP9 ADD CALLDATALOAD PUSH32 0x1380736FE5B19359980256E4D233E4E4B5ADBCC85AB392DC329FFD0C64AD38A8 PUSH32 0xDC2CDB797EC67B1F7471FD0CA3FDBC91F6A0E1BC4883B63163E4F1EE7F75C01 DUP5 PUSH2 0x209 JUMP JUMPDEST PUSH2 0x457 PUSH1 0x80 DUP9 ADD CALLDATALOAD PUSH32 0x299E0354F2164FFCCEFAC816E9C430675FB6FAAC702D10ED3DF452346F89C176 PUSH32 0x17C6DDB10C97CB565027CD7747D31493072B5F7AC9855D599AC36B3DC747F5AA DUP5 PUSH2 0x209 JUMP JUMPDEST PUSH2 0x4A7 PUSH1 0xA0 DUP9 ADD CALLDATALOAD PUSH32 0xB9358588F0118ED5B2825993722947F9E65E408A10B408216A255CBFA0058C5 PUSH32 0x2299EBB2CC2900223B76138B80C37E506590F12EF56AEC9995D6E6905875926E DUP5 PUSH2 0x209 JUMP JUMPDEST PUSH2 0x4F7 PUSH1 0xC0 DUP9 ADD CALLDATALOAD PUSH32 0x90D0B302BC7650E74FA82786E1892FA5350086987E72942EB77C2682B3514FE PUSH32 0x2B6DBE6E2DDE989CFE5692FADC2E46A0384156965CE1E9AFCACC8C31F02D9DF1 DUP5 PUSH2 0x209 JUMP JUMPDEST PUSH2 0x546 PUSH1 0xE0 DUP9 ADD CALLDATALOAD PUSH31 0xDAB53DF2EEB9BDEAA768ED5C01F5E0C9339F65FAF37AFF69DFC70F77A388C7 PUSH32 0x4A95F1C73000C62D4D1494F4D2B31EC0E21D42ED419F8CBC223737D1CA610DB DUP5 PUSH2 0x209 JUMP JUMPDEST PUSH2 0x597 PUSH2 0x100 DUP9 ADD CALLDATALOAD PUSH32 0x16EC2701BAABC399AB7C26C52EA92A69DE71AB7F0EBAC0C56697C5719DFD7F47 PUSH32 0x1F42A71C24B0EFCC6B0BC0E5EA73C53764CBBA73024860346EA045625E96842F DUP5 PUSH2 0x209 JUMP JUMPDEST PUSH2 0x5E8 PUSH2 0x120 DUP9 ADD CALLDATALOAD PUSH32 0x2AFB0C72162FF1D158577A85C0088AE2C93D8A2E37970EF13016CA2A96EF3205 PUSH32 0x1D3F40B128C7DABAF6A9AC4C213D5CAF54031B282AE4DA66B82886A780270AFA DUP5 PUSH2 0x209 JUMP JUMPDEST PUSH2 0x639 PUSH2 0x140 DUP9 ADD CALLDATALOAD PUSH32 0x8A15A517A99F2DD9DBEC5F9BF4F846AB4367305DA537170A2F252D8E1B65203 PUSH32 0x284AF27ECBA4E789E589825C20EAF9CA85A512F2D25EF0D9A677C8ACE4439AA5 DUP5 PUSH2 0x209 JUMP JUMPDEST PUSH2 0x68A PUSH2 0x160 DUP9 ADD CALLDATALOAD PUSH32 0xE4484961D3051C47842253EC6D21B20F9D96B1E149B7ADF147086667501762A PUSH32 0x1819879C310188C1D0619A8BD767C3B68E40AD8DAD19141EAF8F6E512974C80A DUP5 PUSH2 0x209 JUMP JUMPDEST PUSH2 0x6DB PUSH2 0x180 DUP9 ADD CALLDATALOAD PUSH32 0xE2DCB55205AC07E48864472E080D4C9B3991226CAF8FDD51FC7930928E13C6A PUSH32 0x7BA7CF25D31E1013B41F131683DDAC9BFAF31576B9A85D14CD4B2187433ED35 DUP5 PUSH2 0x209 JUMP JUMPDEST PUSH2 0x72C PUSH2 0x1A0 DUP9 ADD CALLDATALOAD PUSH32 0xCDFED5312B8C754B04573566ED7798DB1099B612B4EB78BD5F67F539775C696 PUSH32 0xD35AE05C8DD583DACE9165E00853769870C272FB16AD7B54F9359671C6502BD DUP5 PUSH2 0x209 JUMP JUMPDEST PUSH2 0x77D PUSH2 0x1C0 DUP9 ADD CALLDATALOAD PUSH32 0x2B3DB3F28C0617FF398C7F36DFBD4B11049A28092A71CB55EB318C4DB82AAA14 PUSH32 0x253FE59F04ECE7EE1A0AE668144EFFBF2DBB727CBDDBE658E84418B0F560E84 DUP5 PUSH2 0x209 JUMP JUMPDEST PUSH2 0x7CE PUSH2 0x1E0 DUP9 ADD CALLDATALOAD PUSH32 0x1C16D8D868AA3EA6CD608F167D4F5C6C5986C93E56A92FD55DFCDEBA8FD8DAFF PUSH32 0x2B42423CA1D601424C4EAFA7E22E352B8FF65B91D07DF0741EF099E292923690 DUP5 PUSH2 0x209 JUMP JUMPDEST PUSH2 0x81F PUSH2 0x200 DUP9 ADD CALLDATALOAD PUSH32 0x1724FE5C6130ECE5D91AFC60F008CFEDC1BDA48031F37B0655E51B4D3FCB55DC PUSH32 0xA511298C0B2FAD48B66636EC4C4ABD8B124E394F3F57E52374165F2BE2E798D DUP5 PUSH2 0x209 JUMP JUMPDEST PUSH2 0x870 PUSH2 0x220 DUP9 ADD CALLDATALOAD PUSH32 0x1B49622A17D2CE7CD9F8970C3E6927BF540F73AE91723277E34A46C3C1E26143 PUSH32 0x13CCB882E68F3F93F69CBDBF8D4A53C0E65F2A67B1CF3266E766FAAB99339362 DUP5 PUSH2 0x209 JUMP JUMPDEST PUSH2 0x8C1 PUSH2 0x240 DUP9 ADD CALLDATALOAD PUSH32 0x2AC2E3946EAF44410BF6426807F2F03BB229F3D068B79101817035D4BEE2607E PUSH32 0x1192F95712102B85480AE6B553565A075013EFBD69C8BA75A00AF8E7040BAD7C DUP5 PUSH2 0x209 JUMP JUMPDEST PUSH2 0x912 PUSH2 0x260 DUP9 ADD CALLDATALOAD PUSH32 0x24D6D7692EF5A279C267B45A1EBEAFBDAC5CF5D149B9D2AD499230614601863A PUSH32 0x93589826D4A9FA01CD2787AD9DE53A1F2C66BD0CEB32C73ACF4821772DB7827 DUP5 PUSH2 0x209 JUMP JUMPDEST PUSH2 0x962 PUSH2 0x280 DUP9 ADD CALLDATALOAD PUSH31 0xE9E77ABA7B780E3C3B995ECE112617BD4F5FC21589DC5D370B5215B8350545 PUSH32 0x16516E6485E441F2723274FD5815D4BD3FEEF358EFC00807CAD29D333122AADE DUP5 PUSH2 0x209 JUMP JUMPDEST PUSH2 0x9B3 PUSH2 0x2A0 DUP9 ADD CALLDATALOAD PUSH32 0x16800633488E4C32259A3994DA87234DA751B59EB126999AD6089B174D54B64E PUSH32 0x1906AD36F4F4865A77F6F6D664805F4AF79C41011DC740E5C109AA7134A53DA2 DUP5 PUSH2 0x209 JUMP JUMPDEST PUSH2 0xA04 PUSH2 0x2C0 DUP9 ADD CALLDATALOAD PUSH32 0x1975313BA6D7E94BCDE68A410C2AEC9481A151B785341449A67E68E81CC273E1 PUSH32 0x2BFF9A90ECBFB71E99768E2422DB4E938933F5804478FCF9446B89C872FBC6AE DUP5 PUSH2 0x209 JUMP JUMPDEST PUSH2 0xA55 PUSH2 0x2E0 DUP9 ADD CALLDATALOAD PUSH32 0x1917846FB4F25AF4C35701AD895AA98E2FDAA2DAA845494B249201E3CEBFC09 PUSH32 0x261C6DEB3A71BEA6F490C3F85A7C24F04AB621B7798F2544929E35F153BA732F DUP5 PUSH2 0x209 JUMP JUMPDEST PUSH2 0xAA6 PUSH2 0x300 DUP9 ADD CALLDATALOAD PUSH32 0x167A24E662B5F9A46ACB6FB47F2B4101A4EED67F442000E5DEA6248192B5C8E9 PUSH32 0x1A47DB756452ACC4403A8B52DBB05B09D362DFDC82A27DCF0AAD0D20C66A2E53 DUP5 PUSH2 0x209 JUMP JUMPDEST PUSH2 0xAF7 PUSH2 0x320 DUP9 ADD CALLDATALOAD PUSH32 0x24438DFDC93279F015EED63BA7246EFDBC306742EF29DDFEA1643CBD6098E108 PUSH32 0x169E0503B3C8A7DBFDEE42AB8B6C1AB9BF55BD60AF78BD0772EAB008DDD25234 DUP5 PUSH2 0x209 JUMP JUMPDEST PUSH2 0xB48 PUSH2 0x340 DUP9 ADD CALLDATALOAD PUSH32 0x1A7BA0F2473C8C54AFC869AF03239E14737543CA781BD799FF35BB9DB1CB2160 PUSH32 0x305F512A4BDAA34FD8EA8E5E00E0B2B2799F977369D27E6683693EEC0A6260F7 DUP5 PUSH2 0x209 JUMP JUMPDEST PUSH2 0xB99 PUSH2 0x360 DUP9 ADD CALLDATALOAD PUSH32 0x194A7AD2BFEB31069667040185F6996A81E80FAC39159438D8372A0B5C959171 PUSH32 0x2A4B5253AE713B0E98A5801E38F7AE932D8955A52CC4366A57E74F3E52E0E9FB DUP5 PUSH2 0x209 JUMP JUMPDEST PUSH2 0xBEA PUSH2 0x380 DUP9 ADD CALLDATALOAD PUSH32 0x95598B9FDEA3C5FC011A15077B1BA861AE2C03BCED71BA53CDDEB68A0D07000 PUSH32 0x5E03F9D408295566883698A2246D3C6E1B93FB02ABCBAF19EC58F7A815AF14F DUP5 PUSH2 0x209 JUMP JUMPDEST PUSH2 0xC3B PUSH2 0x3A0 DUP9 ADD CALLDATALOAD PUSH32 0xCE37073FB33BB0D52BBB5774235B484B2C99366B1FDA53F49C90B1913365ADE PUSH32 0x124FB82ED451930AE10F441A4A210FF2C96CED6ED326402D7C5AA99A5C8EB46E DUP5 PUSH2 0x209 JUMP JUMPDEST PUSH2 0xC8C PUSH2 0x3C0 DUP9 ADD CALLDATALOAD PUSH32 0x1F2FC9C26EA673C16294C544ED25A3CDAAB9F334AC4582D119DCB44AD34953BB PUSH32 0x4C37A4F13F65F3ABE43E0FF012D56DE58BA5BDED5BF520590F444C873B8B339 DUP5 PUSH2 0x209 JUMP JUMPDEST PUSH2 0xCDD PUSH2 0x3E0 DUP9 ADD CALLDATALOAD PUSH32 0x1A41C0FE0D539304AF2CFA0D68CA67819B9D151504CE7EA750B27E3D874B1798 PUSH32 0x89C3FAC27C07A7FCEA2E22D620030344A61E1784C3F069AA94A0F7B9FCFE569 DUP5 PUSH2 0x209 JUMP JUMPDEST PUSH2 0xD2D PUSH2 0x400 DUP9 ADD CALLDATALOAD PUSH32 0x1B202CBEB83C9CFA4932A313BF2C7E5D4DA857F454A6D0A86A481FDAF8D403CA PUSH31 0x1F13CB9DB0E7B70418799ED260E400E4691DE97C80E7CCF06E5538F9DFD655 DUP5 PUSH2 0x209 JUMP JUMPDEST PUSH2 0xD7E PUSH2 0x420 DUP9 ADD CALLDATALOAD PUSH32 0x2E5282FC8040F0CDD66E03ADEF04737E97B9981E7EAB083975C62167C2A73D2F PUSH32 0x196C6A134FE4F86F0EE1FCD4250BA9F71DED76F0223000BD6B36ADD8F415F696 DUP5 PUSH2 0x209 JUMP JUMPDEST PUSH2 0xDCE PUSH2 0x440 DUP9 ADD CALLDATALOAD PUSH32 0x1843950A405B8BCF9BD06DD30466B66BE4F76E51BEA40DC74AA582E9EC72B215 PUSH31 0x9E6458F61CFE50D7B8615B0B5144461E4BF10B2F5C69F19A65CE274CCB24FC DUP5 PUSH2 0x209 JUMP JUMPDEST PUSH2 0xE1F PUSH2 0x460 DUP9 ADD CALLDATALOAD PUSH32 0x1A60FF643EFD830F771873537ABA7F2F0B83EE729D887F698BA9B79F55D82194 PUSH32 0x18BF908F154380D5894AFD15BA8A0ADBC9B1A99D049E132C26F479D724F1D242 DUP5 PUSH2 0x209 JUMP JUMPDEST PUSH2 0xE70 PUSH2 0x480 DUP9 ADD CALLDATALOAD PUSH32 0x28C70664B7F9998ED838B70088D7CD196DF326B4F552BBEF8B55D5C44AB2A676 PUSH32 0x2F584A6AF3B55C7EABF2D52021D15277A1D4AA447799C84E979240F2F6F39A5B DUP5 PUSH2 0x209 JUMP JUMPDEST PUSH2 0xEC1 PUSH2 0x4A0 DUP9 ADD CALLDATALOAD PUSH32 0x231D39DCFB4389C2BD0A2D31B36B22831681496A99A89388CF6C6EDAC84EB077 PUSH32 0x9EC1E4F9E443E59E13C7223DCFB2C42055D31E364240B9E68130EBDE06AB07E DUP5 PUSH2 0x209 JUMP JUMPDEST PUSH2 0xF12 PUSH2 0x4C0 DUP9 ADD CALLDATALOAD PUSH32 0x1FECF8E7A6A8F92879ADE076FD0DFC0FE8ABFCEBC45FBB99151C47F45E5C4B84 PUSH32 0x7479CD537BB9C0F7D175EE544FA4D50AA1497A77A4AA2ED57839B8C64852E13 DUP5 PUSH2 0x209 JUMP JUMPDEST PUSH2 0xF63 PUSH2 0x4E0 DUP9 ADD CALLDATALOAD PUSH32 0x59FB17D46B6079D0FCB8F8DEE8BE04B63471744F77C6908DFCF7D6878DB09FD PUSH32 0x7B0B5BA6AA97E9A9A32BCAA197F7A4E174ABD9AE012876E3F69A92DF93FAC5C DUP5 PUSH2 0x209 JUMP JUMPDEST PUSH2 0xFB4 PUSH2 0x500 DUP9 ADD CALLDATALOAD PUSH32 0x31A59D76804D90AFAAF5A2FA740C05C0FC8DFE211CA9B936DA23DE072FF707C PUSH32 0x1895AE7D8E537B7B53A44EDCD10AB13A6A0E1773967878C87312C6E8F68FFD18 DUP5 PUSH2 0x209 JUMP JUMPDEST PUSH2 0x1005 PUSH2 0x520 DUP9 ADD CALLDATALOAD PUSH32 0x1A57EDAA754DC21BB1A7B07EF11E09A3FAB14D5244E22D1A59951B8DDC08F286 PUSH32 0x38693C31FD3E910D469D269828FFC90A40449FA5E5B8495AC503020DB805887 DUP5 PUSH2 0x209 JUMP JUMPDEST PUSH2 0x1055 PUSH2 0x540 DUP9 ADD CALLDATALOAD PUSH32 0x183BEACB1F7A2BDDDAAD7E3590A380011C511839BA81C6D2ABE892284B2AB423 PUSH31 0x12D7DAC81EB792E1ACF9E1E28C92D4C33632DB88DA1BB71357F3013D0B04DE DUP5 PUSH2 0x209 JUMP JUMPDEST PUSH2 0x10A6 PUSH2 0x560 DUP9 ADD CALLDATALOAD PUSH32 0x9C1DEE97783DF074609EE37AF0068ADBED0895BFC180354446EA1CBE11B0BA2 PUSH32 0x275AC0D2832ACFFA2EDFFE5164D0D0778C4DC8EC5D38F28788FEDE51116E7F20 DUP5 PUSH2 0x209 JUMP JUMPDEST PUSH2 0x10F7 PUSH2 0x580 DUP9 ADD CALLDATALOAD PUSH32 0x11F7622EA5B9190E61EE771683FE164DF747F96A946BEA74B2E366616DD082E8 PUSH32 0x1E9481DC517F39993639D3FE7E990C4851A2E58A081836B02F2C04D76145B0A6 DUP5 PUSH2 0x209 JUMP JUMPDEST PUSH2 0x1148 PUSH2 0x5A0 DUP9 ADD CALLDATALOAD PUSH32 0x144762ED6B8B6FAAFCD55C6228CBBDCC22068E978F7597F3D5C0525B0F00A582 PUSH32 0x2A847D2D499743E8CFA86FD55B160AD3320D88FAF231227DA31650114C4695CD DUP5 PUSH2 0x209 JUMP JUMPDEST PUSH2 0x1199 PUSH2 0x5C0 DUP9 ADD CALLDATALOAD PUSH32 0x17572D34D9241E9CCFCD664305A1F08525F9FE1F84F46173C4BCEE7240D8A992 PUSH32 0x8F23616472BD340DF2333D87F637076A4ECA72A78C822FCDBCA5791884FA039 DUP5 PUSH2 0x209 JUMP JUMPDEST PUSH2 0x11EA PUSH2 0x5E0 DUP9 ADD CALLDATALOAD PUSH32 0x17D5FC88FAEDAAADADDCCF83AD0D5FA00DE7C5A3F7834364872530A75E34EA6B PUSH32 0x1F63BB1EC0FDD4E61C150A13AAA2276E411E6D551CD9634768056CA50F7C761D DUP5 PUSH2 0x209 JUMP JUMPDEST PUSH2 0x123B PUSH2 0x600 DUP9 ADD CALLDATALOAD PUSH32 0x22C6FE4A54963C4D7BA0A362E551798823860678D694905338219537BE787FE8 PUSH32 0x150FB3F5EC7C5019DEA1A2C9027F965489D5340C8F1CDBD3E67A14ED8E7AE387 DUP5 PUSH2 0x209 JUMP JUMPDEST PUSH2 0x128C PUSH2 0x620 DUP9 ADD CALLDATALOAD PUSH32 0x1176A7B4564E96E59FA39615C01069B75A62D9232829A1D3A074778B17BE04EA PUSH32 0xE4F66C47206A7D0AB7ABBE0A54AFD14966653AE98CC291BEC31818649B4F1FC DUP5 PUSH2 0x209 JUMP JUMPDEST PUSH2 0x12DD PUSH2 0x640 DUP9 ADD CALLDATALOAD PUSH32 0x1D0AB3859C4709BC267BB17C47C8D07C9EE1E52CE70AB284F1E522A0C0D3F770 PUSH32 0x1C6331FDF5A4F3C94C1E983F59C3445A730EB7C68412342BE0246B11BB60808 DUP5 PUSH2 0x209 JUMP JUMPDEST PUSH2 0x132E PUSH2 0x660 DUP9 ADD CALLDATALOAD PUSH32 0x16BAF8FF2ABAC9EE505A66D08694893382461D07BADCCA920B5F2F29B7FEFB82 PUSH32 0x2E95C07703A5F460E928A8616CC0A32C81529E55DD9F5FE65F5EF369A1550028 DUP5 PUSH2 0x209 JUMP JUMPDEST PUSH2 0x137F PUSH2 0x680 DUP9 ADD CALLDATALOAD PUSH32 0x1AE3FFE045E71BAB68E45395D0DD33C16AA694856366D2C3EFB08326992E784A PUSH32 0x2124EA3390B77A98D884960BD8302AF458C5C54C41BA847B700C10DC30BD8D9E DUP5 PUSH2 0x209 JUMP JUMPDEST PUSH2 0x13D0 PUSH2 0x6A0 DUP9 ADD CALLDATALOAD PUSH32 0x30619D39980D6D6B921D1F1405C7DDCE12725E91A50AC303CE99CD8FF08F5216 PUSH32 0x299A7B8A330CEF6E468A801B954CB37924CA4723310FFD6963A1BFBE2E406A0 DUP5 PUSH2 0x209 JUMP JUMPDEST PUSH2 0x1421 PUSH2 0x6C0 DUP9 ADD CALLDATALOAD PUSH32 0x170291AA0CFB0507145E693D13ABDF27E05C9003FB3A9D77DA14AAF507151399 PUSH32 0xC8D041EDB7E2B8E0E8B80D9E6196038925E58599806180BF76518CF2DF2E30E DUP5 PUSH2 0x209 JUMP JUMPDEST PUSH2 0x1472 PUSH2 0x6E0 DUP9 ADD CALLDATALOAD PUSH32 0x36DC82087A0262F32C85DC97460339F9744577AEECFB1F274713A1F5D29526E PUSH32 0x25498E1C46FFA3FA6A929A4247D7A7B7A828B8EBED033032F21323F6ABD000CB DUP5 PUSH2 0x209 JUMP JUMPDEST PUSH2 0x14C2 PUSH2 0x700 DUP9 ADD CALLDATALOAD PUSH32 0xD7B5314623E0C62DCB152AEBC638033DEC8E40F14CFFF7A410EC2B3BCCF19D6 PUSH31 0xD8CDA8916791B9F177D0F51C80BB10FE7F2A255BC3172BA3B9A0BF89BF28AB DUP5 PUSH2 0x209 JUMP JUMPDEST PUSH2 0x1512 PUSH2 0x720 DUP9 ADD CALLDATALOAD PUSH32 0x1628BA10A58DEF433AD881DE923D294E61135C334DDA3CE35EB93D246419DD99 PUSH31 0x903E8EDB16BC683BE05B78295E7E992D0A17E80B5596A23FBF854610100FAB DUP5 PUSH2 0x209 JUMP JUMPDEST PUSH2 0x1563 PUSH2 0x740 DUP9 ADD CALLDATALOAD PUSH32 0x2B00EA3AECFB874FF172535EFB6EE86DE565B2A0CA28FE7FE00732217AADF045 PUSH32 0x213336B3779AE3D1983709188EC8B5A1C39855A93A9936695CC7C286CD4106C9 DUP5 PUSH2 0x209 JUMP JUMPDEST PUSH2 0x15B3 PUSH2 0x760 DUP9 ADD CALLDATALOAD PUSH32 0x17D4148E13FFF5AA7ACEB0EC873FA6E532D040DD15D835A5B5AD0E3331718652 PUSH31 0xF950FEB3AA6B3FBD8C3B75A743B5F6C08F05103EE8405F650A85F0B0E63EBC DUP5 PUSH2 0x209 JUMP JUMPDEST PUSH2 0x1604 PUSH2 0x780 DUP9 ADD CALLDATALOAD PUSH32 0x2075186E3CA2462A8E981D7D97EDFD1081FA702DB090427F4C6F38BFA6AAB6F1 PUSH32 0x777C5239D5DEFCEF8FD9F3952A90CFB22611020C99E527021A8CB56DA3164DA DUP5 PUSH2 0x209 JUMP JUMPDEST PUSH2 0x1655 PUSH2 0x7A0 DUP9 ADD CALLDATALOAD PUSH32 0x44FE0D2B1B5A1D2501DF98228CEF51453D403C110C3527CFBC2225CFA5B820D PUSH32 0x550805B27F8B9B80B2E8114F0F21ACF8976404F8B7C2932729584495D1EC128 DUP5 PUSH2 0x209 JUMP JUMPDEST PUSH2 0x16A6 PUSH2 0x7C0 DUP9 ADD CALLDATALOAD PUSH32 0x8395EFF070DFF2EBCF904FEAFDBD9AE403C7A27148FC8A93E844F18F3C2EC2D PUSH32 0x2835DC1AF0B63D402F85FFCB8B9AB5255D9234E01E9B98530117E0EB3401D405 DUP5 PUSH2 0x209 JUMP JUMPDEST PUSH2 0x16F7 PUSH2 0x7E0 DUP9 ADD CALLDATALOAD PUSH32 0x110C912DC0A5A81530BBAE71326A75F9EB03332942DA0EF7001FD2FB542B1F26 PUSH32 0x100BEBE0E39ABF09C941C19B329F07F6F807F2B34B05EC91C49F12CBEADB2056 DUP5 PUSH2 0x209 JUMP JUMPDEST PUSH2 0x1748 PUSH2 0x800 DUP9 ADD CALLDATALOAD PUSH32 0x2190364B77F7EEC4872E374A3AFA97786E285F7882D8064211216876B83701E4 PUSH32 0x2319F139FB74E08C6BD30C1E8C635C82193F71312DAFA2B22A11365274A1E75 DUP5 PUSH2 0x209 JUMP JUMPDEST PUSH2 0x1799 PUSH2 0x820 DUP9 ADD CALLDATALOAD PUSH32 0x19C7932BAECFF900EB2225F85904553AD3F07E7F42A678C381514512E72929B1 PUSH32 0x2AF2BED2BF45EF363E226A86A6B8D933575E5A22B13B17C4F4F4CF13A42EE071 DUP5 PUSH2 0x209 JUMP JUMPDEST PUSH2 0x17EA PUSH2 0x840 DUP9 ADD CALLDATALOAD PUSH32 0x34253AF444114EDC0B1BF235192328F3C252935E2F94B2406A397CF8867DB37 PUSH32 0x28CD43CB15BF0F0E2D5291A93CD7BD95146B709716579587AE049738EE51C038 DUP5 PUSH2 0x209 JUMP JUMPDEST PUSH2 0x183B PUSH2 0x860 DUP9 ADD CALLDATALOAD PUSH32 0x2946E3BFBAD6ED54BC86D00200A63334D5284985D073C1261F3BD261F86415E6 PUSH32 0x202CCDCEA178BFD57A7A1410C39296F3672BE03E4BEC7FEA0C2EFD5BF85E8F31 DUP5 PUSH2 0x209 JUMP JUMPDEST PUSH2 0x188C PUSH2 0x880 DUP9 ADD CALLDATALOAD PUSH32 0x10156FEC9E0BB58C1F485C056D2F207C30A6977D661CC9DFE5F0E6931A077131 PUSH32 0x2636549E44BB79823C81CBF82BD2AB8D084F6E61342AA1A3DF4A40AEC7B4FC62 DUP5 PUSH2 0x209 JUMP JUMPDEST PUSH2 0x18DD PUSH2 0x8A0 DUP9 ADD CALLDATALOAD PUSH32 0x1416AF715851B64BB763F23C898E556F3BA4ED16B4918ED1E246BEF75C8D8BE2 PUSH32 0x1CB2214ED940F01FF2AA41C674B208DBE8320D7B4F7DE08F96E87CEE9C69E72 DUP5 PUSH2 0x209 JUMP JUMPDEST PUSH2 0x192E PUSH2 0x8C0 DUP9 ADD CALLDATALOAD PUSH32 0x283B81BCD354D8D0F16EECE8B93A8B863A2534B3FA4B7CF8B33A5B88B0F0EC35 PUSH32 0x23692B44492DDCBC53F85736F5BEFFA94206EBE801C892C6461BFB418284E0E2 DUP5 PUSH2 0x209 JUMP JUMPDEST PUSH2 0x197F PUSH2 0x8E0 DUP9 ADD CALLDATALOAD PUSH32 0x1F9001B206726C69882F937956A4094528FB83654FFB9E32BD4A6CF9DEAB0D74 PUSH32 0x11024C1D1D50B5005F7FF29A7D68CE6F8F08CAB9573B7A03F970F88BBA280039 DUP5 PUSH2 0x209 JUMP JUMPDEST PUSH2 0x19D0 PUSH2 0x900 DUP9 ADD CALLDATALOAD PUSH32 0x2C1E6330888CABF9CCB696F3F721444E60449A8063EE312F4690B16A4C331B2D PUSH32 0x1E5DA07FDCB167F420589AD3F39C9317A1F179DFA5964F7C5E27B05D96D41D48 DUP5 PUSH2 0x209 JUMP JUMPDEST PUSH2 0x1A21 PUSH2 0x920 DUP9 ADD CALLDATALOAD PUSH32 0x4F83F014BAFCFB23599BE384A041E7003D3B9CD99AD1BD14DE939A00F64310B PUSH32 0x2005C18717F3C3AD698679BD215F5505B6B9C7132E664BDF382DFDB30E066CE8 DUP5 PUSH2 0x209 JUMP JUMPDEST PUSH2 0x1A72 PUSH2 0x940 DUP9 ADD CALLDATALOAD PUSH32 0x232355B5575BE4C47BF2519BF62475D367353B8EFA5B6B2437BAE5CC6A6A9F61 PUSH32 0x26B60FB5B89FE5CAED90F355ABB66F3D125AAF117215D92FEEB69FF52E28A1ED DUP5 PUSH2 0x209 JUMP JUMPDEST PUSH2 0x1AC3 PUSH2 0x960 DUP9 ADD CALLDATALOAD PUSH32 0x2D21CCDB040DF673C20AD37A1BAA59E80AC10357AC5B4E43CF479ACE460E645A PUSH32 0x21B7446A5125716641970160B9C94D1EEAB7D7BC249315D27DB8B99CC23D00AF DUP5 PUSH2 0x209 JUMP JUMPDEST PUSH2 0x1B14 PUSH2 0x980 DUP9 ADD CALLDATALOAD PUSH32 0x29DCA094C35F373A140166B73B02110DAD65613BD17129ED6B5021A876E46D91 PUSH32 0x1C6B63EEC29948A6BECCA8D8A7D9DA3190A820F4958286100E80636F9F288E1C DUP5 PUSH2 0x209 JUMP JUMPDEST PUSH2 0x1B65 PUSH2 0x9A0 DUP9 ADD CALLDATALOAD PUSH32 0x1B64FD983E687C099F0876F558A2B6BD955642096B62FB78B62F1412E387CCFA PUSH32 0x6F489AAF26938CE153C8565622FF2CEFDBBF0B1277654C42EE86CA1CBB1F337 DUP5 PUSH2 0x209 JUMP JUMPDEST DUP4 CALLDATALOAD DUP3 MSTORE PUSH32 0x30644E72E131A029B85045B68181585D97816A916871CA8D3C208C16D87CFD47 PUSH1 0x20 DUP6 ADD CALLDATALOAD PUSH32 0x30644E72E131A029B85045B68181585D97816A916871CA8D3C208C16D87CFD47 SUB MOD PUSH1 0x20 DUP4 ADD MSTORE DUP5 CALLDATALOAD PUSH1 0x40 DUP4 ADD MSTORE PUSH1 0x20 DUP6 ADD CALLDATALOAD PUSH1 0x60 DUP4 ADD MSTORE PUSH1 0x40 DUP6 ADD CALLDATALOAD PUSH1 0x80 DUP4 ADD MSTORE PUSH1 0x60 DUP6 ADD CALLDATALOAD PUSH1 0xA0 DUP4 ADD MSTORE PUSH32 0x2D4D9AA7E302D9DF41749D5507949D05DBEA33FBB16C643B22F599A2BE6DF2E2 PUSH1 0xC0 DUP4 ADD MSTORE PUSH32 0x14BEDD503C37CEB061D8EC60209FE345CE89830A19230301F076CAFF004D1926 PUSH1 0xE0 DUP4 ADD MSTORE PUSH32 0x967032FCBF776D1AFC985F88877F182D38480A653F2DECAA9794CBC3BF3060C PUSH2 0x100 DUP4 ADD MSTORE PUSH32 0xE187847AD4C798374D0D6732BF501847DD68BC0E071241E0213BC7FC13DB7AB PUSH2 0x120 DUP4 ADD MSTORE PUSH32 0x304CFBD1E08A704A99F5E847D93F8C3CAAFDDEC46B7A0D379DA69A4D112346A7 PUSH2 0x140 DUP4 ADD MSTORE PUSH32 0x1739C1B1A457A8C7313123D24D2F9192F896B7C63EEA05A9D57F06547AD0CEC8 PUSH2 0x160 DUP4 ADD MSTORE PUSH1 0x0 DUP9 ADD MLOAD PUSH2 0x180 DUP4 ADD MSTORE PUSH1 0x20 PUSH1 0x0 ADD DUP9 ADD MLOAD PUSH2 0x1A0 DUP4 ADD MSTORE PUSH32 0x198E9393920D483A7260BFB731FB5D25F1AA493335A9E71297E485B7AEF312C2 PUSH2 0x1C0 DUP4 ADD MSTORE PUSH32 0x1800DEEF121F1E76426A00665E5C4479674322D4F75EDADD46DEBD5CD992F6ED PUSH2 0x1E0 DUP4 ADD MSTORE PUSH32 0x90689D0585FF075EC9E99AD690C3395BC4B313370B38EF355ACDADCD122975B PUSH2 0x200 DUP4 ADD MSTORE PUSH32 0x12C85EA5DB8C6DEB4AAB71808DCB408FE3D1E7690C43D37B4CE6CC0166FA7DAA PUSH2 0x220 DUP4 ADD MSTORE DUP6 CALLDATALOAD PUSH2 0x240 DUP4 ADD MSTORE PUSH1 0x20 DUP7 ADD CALLDATALOAD PUSH2 0x260 DUP4 ADD MSTORE PUSH32 0x198E9393920D483A7260BFB731FB5D25F1AA493335A9E71297E485B7AEF312C2 PUSH2 0x280 DUP4 ADD MSTORE PUSH32 0x1800DEEF121F1E76426A00665E5C4479674322D4F75EDADD46DEBD5CD992F6ED PUSH2 0x2A0 DUP4 ADD MSTORE PUSH32 0x90689D0585FF075EC9E99AD690C3395BC4B313370B38EF355ACDADCD122975B PUSH2 0x2C0 DUP4 ADD MSTORE PUSH32 0x12C85EA5DB8C6DEB4AAB71808DCB408FE3D1E7690C43D37B4CE6CC0166FA7DAA PUSH2 0x2E0 DUP4 ADD MSTORE PUSH1 0x20 DUP3 PUSH2 0x300 DUP5 PUSH1 0x8 PUSH2 0x7D0 GAS SUB STATICCALL DUP3 MLOAD DUP2 AND SWAP4 POP POP POP POP SWAP6 SWAP5 POP POP POP POP POP JUMP JUMPDEST PUSH1 0x40 MLOAD PUSH2 0x380 DUP2 ADD PUSH1 0x40 MSTORE PUSH2 0x1E61 PUSH1 0x0 DUP5 ADD CALLDATALOAD PUSH2 0x1D5 JUMP JUMPDEST PUSH2 0x1E6E PUSH1 0x20 DUP5 ADD CALLDATALOAD PUSH2 0x1D5 JUMP JUMPDEST PUSH2 0x1E7B PUSH1 0x40 DUP5 ADD CALLDATALOAD PUSH2 0x1D5 JUMP JUMPDEST PUSH2 0x1E88 PUSH1 0x60 DUP5 ADD CALLDATALOAD PUSH2 0x1D5 JUMP JUMPDEST PUSH2 0x1E95 PUSH1 0x80 DUP5 ADD CALLDATALOAD PUSH2 0x1D5 JUMP JUMPDEST PUSH2 0x1EA2 PUSH1 0xA0 DUP5 ADD CALLDATALOAD PUSH2 0x1D5 JUMP JUMPDEST PUSH2 0x1EAF PUSH1 0xC0 DUP5 ADD CALLDATALOAD PUSH2 0x1D5 JUMP JUMPDEST PUSH2 0x1EBC PUSH1 0xE0 DUP5 ADD CALLDATALOAD PUSH2 0x1D5 JUMP JUMPDEST PUSH2 0x1ECA PUSH2 0x100 DUP5 ADD CALLDATALOAD PUSH2 0x1D5 JUMP JUMPDEST PUSH2 0x1ED8 PUSH2 0x120 DUP5 ADD CALLDATALOAD PUSH2 0x1D5 JUMP JUMPDEST PUSH2 0x1EE6 PUSH2 0x140 DUP5 ADD CALLDATALOAD PUSH2 0x1D5 JUMP JUMPDEST PUSH2 0x1EF4 PUSH2 0x160 DUP5 ADD CALLDATALOAD PUSH2 0x1D5 JUMP JUMPDEST PUSH2 0x1F02 PUSH2 0x180 DUP5 ADD CALLDATALOAD PUSH2 0x1D5 JUMP JUMPDEST PUSH2 0x1F10 PUSH2 0x1A0 DUP5 ADD CALLDATALOAD PUSH2 0x1D5 JUMP JUMPDEST PUSH2 0x1F1E PUSH2 0x1C0 DUP5 ADD CALLDATALOAD PUSH2 0x1D5 JUMP JUMPDEST PUSH2 0x1F2C PUSH2 0x1E0 DUP5 ADD CALLDATALOAD PUSH2 0x1D5 JUMP JUMPDEST PUSH2 0x1F3A PUSH2 0x200 DUP5 ADD CALLDATALOAD PUSH2 0x1D5 JUMP JUMPDEST PUSH2 0x1F48 PUSH2 0x220 DUP5 ADD CALLDATALOAD PUSH2 0x1D5 JUMP JUMPDEST PUSH2 0x1F56 PUSH2 0x240 DUP5 ADD CALLDATALOAD PUSH2 0x1D5 JUMP JUMPDEST PUSH2 0x1F64 PUSH2 0x260 DUP5 ADD CALLDATALOAD PUSH2 0x1D5 JUMP JUMPDEST PUSH2 0x1F72 PUSH2 0x280 DUP5 ADD CALLDATALOAD PUSH2 0x1D5 JUMP JUMPDEST PUSH2 0x1F80 PUSH2 0x2A0 DUP5 ADD CALLDATALOAD PUSH2 0x1D5 JUMP JUMPDEST PUSH2 0x1F8E PUSH2 0x2C0 DUP5 ADD CALLDATALOAD PUSH2 0x1D5 JUMP JUMPDEST PUSH2 0x1F9C PUSH2 0x2E0 DUP5 ADD CALLDATALOAD PUSH2 0x1D5 JUMP JUMPDEST PUSH2 0x1FAA PUSH2 0x300 DUP5 ADD CALLDATALOAD PUSH2 0x1D5 JUMP JUMPDEST PUSH2 0x1FB8 PUSH2 0x320 DUP5 ADD CALLDATALOAD PUSH2 0x1D5 JUMP JUMPDEST PUSH2 0x1FC6 PUSH2 0x340 DUP5 ADD CALLDATALOAD PUSH2 0x1D5 JUMP JUMPDEST PUSH2 0x1FD4 PUSH2 0x360 DUP5 ADD CALLDATALOAD PUSH2 0x1D5 JUMP JUMPDEST PUSH2 0x1FE2 PUSH2 0x380 DUP5 ADD CALLDATALOAD PUSH2 0x1D5 JUMP JUMPDEST PUSH2 0x1FF0 PUSH2 0x3A0 DUP5 ADD CALLDATALOAD PUSH2 0x1D5 JUMP JUMPDEST PUSH2 0x1FFE PUSH2 0x3C0 DUP5 ADD CALLDATALOAD PUSH2 0x1D5 JUMP JUMPDEST PUSH2 0x200C PUSH2 0x3E0 DUP5 ADD CALLDATALOAD PUSH2 0x1D5 JUMP JUMPDEST PUSH2 0x201A PUSH2 0x400 DUP5 ADD CALLDATALOAD PUSH2 0x1D5 JUMP JUMPDEST PUSH2 0x2028 PUSH2 0x420 DUP5 ADD CALLDATALOAD PUSH2 0x1D5 JUMP JUMPDEST PUSH2 0x2036 PUSH2 0x440 DUP5 ADD CALLDATALOAD PUSH2 0x1D5 JUMP JUMPDEST PUSH2 0x2044 PUSH2 0x460 DUP5 ADD CALLDATALOAD PUSH2 0x1D5 JUMP JUMPDEST PUSH2 0x2052 PUSH2 0x480 DUP5 ADD CALLDATALOAD PUSH2 0x1D5 JUMP JUMPDEST PUSH2 0x2060 PUSH2 0x4A0 DUP5 ADD CALLDATALOAD PUSH2 0x1D5 JUMP JUMPDEST PUSH2 0x206E PUSH2 0x4C0 DUP5 ADD CALLDATALOAD PUSH2 0x1D5 JUMP JUMPDEST PUSH2 0x207C PUSH2 0x4E0 DUP5 ADD CALLDATALOAD PUSH2 0x1D5 JUMP JUMPDEST PUSH2 0x208A PUSH2 0x500 DUP5 ADD CALLDATALOAD PUSH2 0x1D5 JUMP JUMPDEST PUSH2 0x2098 PUSH2 0x520 DUP5 ADD CALLDATALOAD PUSH2 0x1D5 JUMP JUMPDEST PUSH2 0x20A6 PUSH2 0x540 DUP5 ADD CALLDATALOAD PUSH2 0x1D5 JUMP JUMPDEST PUSH2 0x20B4 PUSH2 0x560 DUP5 ADD CALLDATALOAD PUSH2 0x1D5 JUMP JUMPDEST PUSH2 0x20C2 PUSH2 0x580 DUP5 ADD CALLDATALOAD PUSH2 0x1D5 JUMP JUMPDEST PUSH2 0x20D0 PUSH2 0x5A0 DUP5 ADD CALLDATALOAD PUSH2 0x1D5 JUMP JUMPDEST PUSH2 0x20DE PUSH2 0x5C0 DUP5 ADD CALLDATALOAD PUSH2 0x1D5 JUMP JUMPDEST PUSH2 0x20EC PUSH2 0x5E0 DUP5 ADD CALLDATALOAD PUSH2 0x1D5 JUMP JUMPDEST PUSH2 0x20FA PUSH2 0x600 DUP5 ADD CALLDATALOAD PUSH2 0x1D5 JUMP JUMPDEST PUSH2 0x2108 PUSH2 0x620 DUP5 ADD CALLDATALOAD PUSH2 0x1D5 JUMP JUMPDEST PUSH2 0x2116 PUSH2 0x640 DUP5 ADD CALLDATALOAD PUSH2 0x1D5 JUMP JUMPDEST PUSH2 0x2124 PUSH2 0x660 DUP5 ADD CALLDATALOAD PUSH2 0x1D5 JUMP JUMPDEST PUSH2 0x2132 PUSH2 0x680 DUP5 ADD CALLDATALOAD PUSH2 0x1D5 JUMP JUMPDEST PUSH2 0x2140 PUSH2 0x6A0 DUP5 ADD CALLDATALOAD PUSH2 0x1D5 JUMP JUMPDEST PUSH2 0x214E PUSH2 0x6C0 DUP5 ADD CALLDATALOAD PUSH2 0x1D5 JUMP JUMPDEST PUSH2 0x215C PUSH2 0x6E0 DUP5 ADD CALLDATALOAD PUSH2 0x1D5 JUMP JUMPDEST PUSH2 0x216A PUSH2 0x700 DUP5 ADD CALLDATALOAD PUSH2 0x1D5 JUMP JUMPDEST PUSH2 0x2178 PUSH2 0x720 DUP5 ADD CALLDATALOAD PUSH2 0x1D5 JUMP JUMPDEST PUSH2 0x2186 PUSH2 0x740 DUP5 ADD CALLDATALOAD PUSH2 0x1D5 JUMP JUMPDEST PUSH2 0x2194 PUSH2 0x760 DUP5 ADD CALLDATALOAD PUSH2 0x1D5 JUMP JUMPDEST PUSH2 0x21A2 PUSH2 0x780 DUP5 ADD CALLDATALOAD PUSH2 0x1D5 JUMP JUMPDEST PUSH2 0x21B0 PUSH2 0x7A0 DUP5 ADD CALLDATALOAD PUSH2 0x1D5 JUMP JUMPDEST PUSH2 0x21BE PUSH2 0x7C0 DUP5 ADD CALLDATALOAD PUSH2 0x1D5 JUMP JUMPDEST PUSH2 0x21CC PUSH2 0x7E0 DUP5 ADD CALLDATALOAD PUSH2 0x1D5 JUMP JUMPDEST PUSH2 0x21DA PUSH2 0x800 DUP5 ADD CALLDATALOAD PUSH2 0x1D5 JUMP JUMPDEST PUSH2 0x21E8 PUSH2 0x820 DUP5 ADD CALLDATALOAD PUSH2 0x1D5 JUMP JUMPDEST PUSH2 0x21F6 PUSH2 0x840 DUP5 ADD CALLDATALOAD PUSH2 0x1D5 JUMP JUMPDEST PUSH2 0x2204 PUSH2 0x860 DUP5 ADD CALLDATALOAD PUSH2 0x1D5 JUMP JUMPDEST PUSH2 0x2212 PUSH2 0x880 DUP5 ADD CALLDATALOAD PUSH2 0x1D5 JUMP JUMPDEST PUSH2 0x2220 PUSH2 0x8A0 DUP5 ADD CALLDATALOAD PUSH2 0x1D5 JUMP JUMPDEST PUSH2 0x222E PUSH2 0x8C0 DUP5 ADD CALLDATALOAD PUSH2 0x1D5 JUMP JUMPDEST PUSH2 0x223C PUSH2 0x8E0 DUP5 ADD CALLDATALOAD PUSH2 0x1D5 JUMP JUMPDEST PUSH2 0x224A PUSH2 0x900 DUP5 ADD CALLDATALOAD PUSH2 0x1D5 JUMP JUMPDEST PUSH2 0x2258 PUSH2 0x920 DUP5 ADD CALLDATALOAD PUSH2 0x1D5 JUMP JUMPDEST PUSH2 0x2266 PUSH2 0x940 DUP5 ADD CALLDATALOAD PUSH2 0x1D5 JUMP JUMPDEST PUSH2 0x2274 PUSH2 0x960 DUP5 ADD CALLDATALOAD PUSH2 0x1D5 JUMP JUMPDEST PUSH2 0x2282 PUSH2 0x980 DUP5 ADD CALLDATALOAD PUSH2 0x1D5 JUMP JUMPDEST PUSH2 0x2290 PUSH2 0x9A0 DUP5 ADD CALLDATALOAD PUSH2 0x1D5 JUMP JUMPDEST PUSH2 0x229E PUSH2 0x9C0 DUP5 ADD CALLDATALOAD PUSH2 0x1D5 JUMP JUMPDEST PUSH2 0x22AB DUP2 DUP5 DUP7 DUP9 DUP11 PUSH2 0x274 JUMP JUMPDEST DUP1 PUSH1 0x0 MSTORE PUSH1 0x20 PUSH1 0x0 RETURN JUMPDEST PUSH1 0x0 DUP2 PUSH1 0x4E DUP2 LT PUSH2 0x22C5 JUMPI PUSH1 0x0 DUP1 REVERT JUMPDEST ADD PUSH1 0x0 SWAP2 POP SWAP1 POP SLOAD DUP2 JUMP JUMPDEST PUSH1 0x4E DUP3 DUP2 SLOAD DUP2 LT PUSH2 0x22E0 JUMPI PUSH1 0x0 DUP1 REVERT JUMPDEST SWAP1 PUSH1 0x0 MSTORE PUSH1 0x20 PUSH1 0x0 KECCAK256 SWAP1 PUSH1 0x5 MUL ADD DUP2 PUSH1 0x5 DUP2 LT PUSH2 0x22FC JUMPI PUSH1 0x0 DUP1 REVERT JUMPDEST ADD PUSH1 0x0 SWAP2 POP SWAP2 POP POP SLOAD DUP2 JUMP JUMPDEST PUSH1 0x50 PUSH1 0x0 SWAP1 SLOAD SWAP1 PUSH2 0x100 EXP SWAP1 DIV PUSH1 0xFF AND DUP2 JUMP JUMPDEST PUSH1 0x60 PUSH1 0x4E DUP1 SLOAD DUP1 PUSH1 0x20 MUL PUSH1 0x20 ADD PUSH1 0x40 MLOAD SWAP1 DUP2 ADD PUSH1 0x40 MSTORE DUP1 SWAP3 SWAP2 SWAP1 DUP2 DUP2 MSTORE PUSH1 0x20 ADD PUSH1 0x0 SWAP1 JUMPDEST DUP3 DUP3 LT ISZERO PUSH2 0x23A2 JUMPI DUP4 DUP3 SWAP1 PUSH1 0x0 MSTORE PUSH1 0x20 PUSH1 0x0 KECCAK256 SWAP1 PUSH1 0x5 MUL ADD PUSH1 0x5 DUP1 PUSH1 0x20 MUL PUSH1 0x40 MLOAD SWAP1 DUP2 ADD PUSH1 0x40 MSTORE DUP1 SWAP3 SWAP2 SWAP1 DUP3 PUSH1 0x5 DUP1 ISZERO PUSH2 0x238E JUMPI PUSH1 0x20 MUL DUP3 ADD SWAP2 JUMPDEST DUP2 SLOAD DUP2 MSTORE PUSH1 0x20 ADD SWAP1 PUSH1 0x1 ADD SWAP1 DUP1 DUP4 GT PUSH2 0x237A JUMPI JUMPDEST POP POP POP POP POP DUP2 MSTORE PUSH1 0x20 ADD SWAP1 PUSH1 0x1 ADD SWAP1 PUSH2 0x233F JUMP JUMPDEST POP POP POP POP SWAP1 POP SWAP1 JUMP JUMPDEST PUSH2 0x23B4 DUP2 PUSH2 0x25D2 JUMP JUMPDEST PUSH1 0x0 DUP5 DUP5 DUP5 PUSH1 0x0 PUSH1 0x40 MLOAD PUSH1 0x24 ADD PUSH2 0x23CE SWAP5 SWAP4 SWAP3 SWAP2 SWAP1 PUSH2 0x2C60 JUMP JUMPDEST PUSH1 0x40 MLOAD PUSH1 0x20 DUP2 DUP4 SUB SUB DUP2 MSTORE SWAP1 PUSH1 0x40 MSTORE PUSH32 0x670B74D900000000000000000000000000000000000000000000000000000000 PUSH28 0xFFFFFFFFFFFFFFFFFFFFFFFFFFFFFFFFFFFFFFFFFFFFFFFFFFFFFFFF NOT AND PUSH1 0x20 DUP3 ADD DUP1 MLOAD PUSH28 0xFFFFFFFFFFFFFFFFFFFFFFFFFFFFFFFFFFFFFFFFFFFFFFFFFFFFFFFF DUP4 DUP2 DUP4 AND OR DUP4 MSTORE POP POP POP POP SWAP1 POP PUSH1 0x0 DUP1 ADDRESS PUSH20 0xFFFFFFFFFFFFFFFFFFFFFFFFFFFFFFFFFFFFFFFF AND DUP4 PUSH1 0x40 MLOAD PUSH2 0x2475 SWAP2 SWAP1 PUSH2 0x2C27 JUMP JUMPDEST PUSH1 0x0 PUSH1 0x40 MLOAD DUP1 DUP4 SUB DUP2 PUSH1 0x0 DUP7 GAS CALL SWAP2 POP POP RETURNDATASIZE DUP1 PUSH1 0x0 DUP2 EQ PUSH2 0x24B2 JUMPI PUSH1 0x40 MLOAD SWAP2 POP PUSH1 0x1F NOT PUSH1 0x3F RETURNDATASIZE ADD AND DUP3 ADD PUSH1 0x40 MSTORE RETURNDATASIZE DUP3 MSTORE RETURNDATASIZE PUSH1 0x0 PUSH1 0x20 DUP5 ADD RETURNDATACOPY PUSH2 0x24B7 JUMP JUMPDEST PUSH1 0x60 SWAP2 POP JUMPDEST POP SWAP2 POP SWAP2 POP PUSH1 0x0 DUP2 DUP1 PUSH1 0x20 ADD SWAP1 MLOAD DUP2 ADD SWAP1 PUSH2 0x24D2 SWAP2 SWAP1 PUSH2 0x2951 JUMP JUMPDEST SWAP1 POP DUP3 DUP1 ISZERO PUSH2 0x24DE JUMPI POP DUP1 JUMPDEST ISZERO PUSH2 0x2575 JUMPI PUSH1 0x1 PUSH1 0x50 PUSH1 0x0 PUSH2 0x100 EXP DUP2 SLOAD DUP2 PUSH1 0xFF MUL NOT AND SWAP1 DUP4 ISZERO ISZERO MUL OR SWAP1 SSTORE POP PUSH1 0x4E DUP6 SWAP1 DUP1 PUSH1 0x1 DUP2 SLOAD ADD DUP1 DUP3 SSTORE DUP1 SWAP2 POP POP PUSH1 0x1 SWAP1 SUB SWAP1 PUSH1 0x0 MSTORE PUSH1 0x20 PUSH1 0x0 KECCAK256 SWAP1 PUSH1 0x5 MUL ADD PUSH1 0x0 SWAP1 SWAP2 SWAP1 SWAP2 SWAP1 SWAP2 POP SWAP1 PUSH1 0x5 PUSH2 0x2538 SWAP3 SWAP2 SWAP1 PUSH2 0x2788 JUMP JUMPDEST POP PUSH32 0x7258BD3DF1839AC83EF07DE0002AD7FC79FA3AAF88AD0D8297AB9BF7D64FE4D DUP6 PUSH1 0x40 MLOAD PUSH2 0x2568 SWAP2 SWAP1 PUSH2 0x2CA7 JUMP JUMPDEST PUSH1 0x40 MLOAD DUP1 SWAP2 SUB SWAP1 LOG1 PUSH2 0x25C8 JUMP JUMPDEST PUSH1 0x0 PUSH1 0x50 PUSH1 0x0 PUSH2 0x100 EXP DUP2 SLOAD DUP2 PUSH1 0xFF MUL NOT AND SWAP1 DUP4 ISZERO ISZERO MUL OR SWAP1 SSTORE POP PUSH32 0x4AEA6AB617EA80A05E762695A7B3A336702CCCE3F8A425B08F96759AA278920E DUP6 PUSH1 0x40 MLOAD PUSH2 0x25BF SWAP2 SWAP1 PUSH2 0x2CA7 JUMP JUMPDEST PUSH1 0x40 MLOAD DUP1 SWAP2 SUB SWAP1 LOG1 JUMPDEST POP POP POP POP POP POP POP POP JUMP JUMPDEST PUSH1 0x0 PUSH1 0x1 PUSH1 0x4E DUP1 SLOAD SWAP1 POP PUSH2 0x25E6 SWAP2 SWAP1 PUSH2 0x2E2F JUMP JUMPDEST SWAP1 POP PUSH1 0x0 PUSH1 0x4E DUP3 DUP2 SLOAD DUP2 LT PUSH2 0x2624 JUMPI PUSH32 0x4E487B7100000000000000000000000000000000000000000000000000000000 PUSH1 0x0 MSTORE PUSH1 0x32 PUSH1 0x4 MSTORE PUSH1 0x24 PUSH1 0x0 REVERT JUMPDEST SWAP1 PUSH1 0x0 MSTORE PUSH1 0x20 PUSH1 0x0 KECCAK256 SWAP1 PUSH1 0x5 MUL ADD SWAP1 POP PUSH1 0x0 JUMPDEST PUSH1 0x5 DUP2 LT ISZERO PUSH2 0x26D9 JUMPI DUP2 DUP2 PUSH1 0x5 DUP2 LT PUSH2 0x2679 JUMPI PUSH32 0x4E487B7100000000000000000000000000000000000000000000000000000000 PUSH1 0x0 MSTORE PUSH1 0x32 PUSH1 0x4 MSTORE PUSH1 0x24 PUSH1 0x0 REVERT JUMPDEST ADD SLOAD PUSH1 0x0 DUP3 PUSH1 0x44 PUSH2 0x268A SWAP2 SWAP1 PUSH2 0x2DD9 JUMP JUMPDEST PUSH1 0x4E DUP2 LT PUSH2 0x26C1 JUMPI PUSH32 0x4E487B7100000000000000000000000000000000000000000000000000000000 PUSH1 0x0 MSTORE PUSH1 0x32 PUSH1 0x4 MSTORE PUSH1 0x24 PUSH1 0x0 REVERT JUMPDEST ADD DUP2 SWAP1 SSTORE POP DUP1 DUP1 PUSH2 0x26D1 SWAP1 PUSH2 0x2EDF JUMP JUMPDEST SWAP2 POP POP PUSH2 0x2637 JUMP JUMPDEST POP PUSH1 0x0 JUMPDEST PUSH1 0x5 DUP2 LT ISZERO PUSH2 0x2782 JUMPI DUP4 DUP2 PUSH1 0x5 DUP2 LT PUSH2 0x271F JUMPI PUSH32 0x4E487B7100000000000000000000000000000000000000000000000000000000 PUSH1 0x0 MSTORE PUSH1 0x32 PUSH1 0x4 MSTORE PUSH1 0x24 PUSH1 0x0 REVERT JUMPDEST PUSH1 0x20 MUL ADD CALLDATALOAD PUSH1 0x0 DUP3 PUSH1 0x49 PUSH2 0x2733 SWAP2 SWAP1 PUSH2 0x2DD9 JUMP JUMPDEST PUSH1 0x4E DUP2 LT PUSH2 0x276A JUMPI PUSH32 0x4E487B7100000000000000000000000000000000000000000000000000000000 PUSH1 0x0 MSTORE PUSH1 0x32 PUSH1 0x4 MSTORE PUSH1 0x24 PUSH1 0x0 REVERT JUMPDEST ADD DUP2 SWAP1 SSTORE POP DUP1 DUP1 PUSH2 0x277A SWAP1 PUSH2 0x2EDF JUMP JUMPDEST SWAP2 POP POP PUSH2 0x26DD JUMP JUMPDEST POP POP POP POP JUMP JUMPDEST DUP3 PUSH1 0x5 DUP2 ADD SWAP3 DUP3 ISZERO PUSH2 0x27B7 JUMPI SWAP2 PUSH1 0x20 MUL DUP3 ADD JUMPDEST DUP3 DUP2 GT ISZERO PUSH2 0x27B6 JUMPI DUP3 CALLDATALOAD DUP3 SSTORE SWAP2 PUSH1 0x20 ADD SWAP2 SWAP1 PUSH1 0x1 ADD SWAP1 PUSH2 0x279B JUMP JUMPDEST JUMPDEST POP SWAP1 POP PUSH2 0x27C4 SWAP2 SWAP1 PUSH2 0x27C8 JUMP JUMPDEST POP SWAP1 JUMP JUMPDEST JUMPDEST DUP1 DUP3 GT ISZERO PUSH2 0x27E1 JUMPI PUSH1 0x0 DUP2 PUSH1 0x0 SWAP1 SSTORE POP PUSH1 0x1 ADD PUSH2 0x27C9 JUMP JUMPDEST POP SWAP1 JUMP JUMPDEST PUSH1 0x0 DUP2 SWAP1 POP DUP3 PUSH1 0x40 PUSH1 0x2 MUL DUP3 ADD GT ISZERO PUSH2 0x27FD JUMPI PUSH1 0x0 DUP1 REVERT JUMPDEST SWAP3 SWAP2 POP POP JUMP JUMPDEST PUSH1 0x0 DUP2 SWAP1 POP DUP3 PUSH1 0x20 PUSH1 0x2 MUL DUP3 ADD GT ISZERO PUSH2 0x281B JUMPI PUSH1 0x0 DUP1 REVERT JUMPDEST SWAP3 SWAP2 POP POP JUMP JUMPDEST PUSH1 0x0 DUP2 SWAP1 POP DUP3 PUSH1 0x20 PUSH1 0x5 MUL DUP3 ADD GT ISZERO PUSH2 0x2839 JUMPI PUSH1 0x0 DUP1 REVERT JUMPDEST SWAP3 SWAP2 POP POP JUMP JUMPDEST PUSH1 0x0 DUP2 SWAP1 POP DUP3 PUSH1 0x20 PUSH1 0x4E MUL DUP3 ADD GT ISZERO PUSH2 0x2857 JUMPI PUSH1 0x0 DUP1 REVERT JUMPDEST SWAP3 SWAP2 POP POP JUMP JUMPDEST PUSH1 0x0 DUP2 MLOAD SWAP1 POP PUSH2 0x286C DUP2 PUSH2 0x2F77 JUMP JUMPDEST SWAP3 SWAP2 POP POP JUMP JUMPDEST PUSH1 0x0 DUP2 CALLDATALOAD SWAP1 POP PUSH2 0x2881 DUP2 PUSH2 0x2F8E JUMP JUMPDEST SWAP3 SWAP2 POP POP JUMP JUMPDEST PUSH1 0x0 DUP1 PUSH1 0x0 DUP1 PUSH2 0x1A0 DUP6 DUP8 SUB SLT ISZERO PUSH2 0x289E JUMPI PUSH1 0x0 DUP1 REVERT JUMPDEST PUSH1 0x0 PUSH2 0x28AC DUP8 DUP3 DUP9 ADD PUSH2 0x2803 JUMP JUMPDEST SWAP5 POP POP PUSH1 0x40 PUSH2 0x28BD DUP8 DUP3 DUP9 ADD PUSH2 0x27E5 JUMP JUMPDEST SWAP4 POP POP PUSH1 0xC0 PUSH2 0x28CE DUP8 DUP3 DUP9 ADD PUSH2 0x2803 JUMP JUMPDEST SWAP3 POP POP PUSH2 0x100 PUSH2 0x28E0 DUP8 DUP3 DUP9 ADD PUSH2 0x2821 JUMP JUMPDEST SWAP2 POP POP SWAP3 SWAP6 SWAP2 SWAP5 POP SWAP3 POP JUMP JUMPDEST PUSH1 0x0 DUP1 PUSH1 0x0 DUP1 PUSH2 0xAC0 DUP6 DUP8 SUB SLT ISZERO PUSH2 0x2903 JUMPI PUSH1 0x0 DUP1 REVERT JUMPDEST PUSH1 0x0 PUSH2 0x2911 DUP8 DUP3 DUP9 ADD PUSH2 0x2803 JUMP JUMPDEST SWAP5 POP POP PUSH1 0x40 PUSH2 0x2922 DUP8 DUP3 DUP9 ADD PUSH2 0x27E5 JUMP JUMPDEST SWAP4 POP POP PUSH1 0xC0 PUSH2 0x2933 DUP8 DUP3 DUP9 ADD PUSH2 0x2803 JUMP JUMPDEST SWAP3 POP POP PUSH2 0x100 PUSH2 0x2945 DUP8 DUP3 DUP9 ADD PUSH2 0x283F JUMP JUMPDEST SWAP2 POP POP SWAP3 SWAP6 SWAP2 SWAP5 POP SWAP3 POP JUMP JUMPDEST PUSH1 0x0 PUSH1 0x20 DUP3 DUP5 SUB SLT ISZERO PUSH2 0x2963 JUMPI PUSH1 0x0 DUP1 REVERT JUMPDEST PUSH1 0x0 PUSH2 0x2971 DUP5 DUP3 DUP6 ADD PUSH2 0x285D JUMP JUMPDEST SWAP2 POP POP SWAP3 SWAP2 POP POP JUMP JUMPDEST PUSH1 0x0 PUSH1 0x20 DUP3 DUP5 SUB SLT ISZERO PUSH2 0x298C JUMPI PUSH1 0x0 DUP1 REVERT JUMPDEST PUSH1 0x0 PUSH2 0x299A DUP5 DUP3 DUP6 ADD PUSH2 0x2872 JUMP JUMPDEST SWAP2 POP POP SWAP3 SWAP2 POP POP JUMP JUMPDEST PUSH1 0x0 DUP1 PUSH1 0x40 DUP4 DUP6 SUB SLT ISZERO PUSH2 0x29B6 JUMPI PUSH1 0x0 DUP1 REVERT JUMPDEST PUSH1 0x0 PUSH2 0x29C4 DUP6 DUP3 DUP7 ADD PUSH2 0x2872 JUMP JUMPDEST SWAP3 POP POP PUSH1 0x20 PUSH2 0x29D5 DUP6 DUP3 DUP7 ADD PUSH2 0x2872 JUMP JUMPDEST SWAP2 POP POP SWAP3 POP SWAP3 SWAP1 POP JUMP JUMPDEST PUSH1 0x0 PUSH2 0x29EB DUP4 DUP4 PUSH2 0x2AE4 JUMP JUMPDEST PUSH1 0x40 DUP4 ADD SWAP1 POP SWAP3 SWAP2 POP POP JUMP JUMPDEST PUSH1 0x0 PUSH2 0x2A03 DUP4 DUP4 PUSH2 0x2B14 JUMP JUMPDEST PUSH1 0xA0 DUP4 ADD SWAP1 POP SWAP3 SWAP2 POP POP JUMP JUMPDEST PUSH1 0x0 PUSH2 0x2A1B DUP4 DUP4 PUSH2 0x2C09 JUMP JUMPDEST PUSH1 0x20 DUP4 ADD SWAP1 POP SWAP3 SWAP2 POP POP JUMP JUMPDEST PUSH2 0x2A30 DUP2 PUSH2 0x2D26 JUMP JUMPDEST PUSH2 0x2A3A DUP2 DUP5 PUSH2 0x2D91 JUMP JUMPDEST SWAP3 POP PUSH2 0x2A45 DUP3 PUSH2 0x2CF8 JUMP JUMPDEST DUP1 PUSH1 0x0 JUMPDEST DUP4 DUP2 LT ISZERO PUSH2 0x2A7E JUMPI PUSH2 0x2A5B DUP3 DUP5 PUSH2 0x2DCE JUMP JUMPDEST PUSH2 0x2A65 DUP8 DUP3 PUSH2 0x29DF JUMP JUMPDEST SWAP7 POP PUSH2 0x2A70 DUP4 PUSH2 0x2D5D JUMP JUMPDEST SWAP3 POP POP PUSH1 0x1 DUP2 ADD SWAP1 POP PUSH2 0x2A49 JUMP JUMPDEST POP POP POP POP POP POP JUMP JUMPDEST PUSH1 0x0 PUSH2 0x2A91 DUP3 PUSH2 0x2D31 JUMP JUMPDEST PUSH2 0x2A9B DUP2 DUP6 PUSH2 0x2D9C JUMP JUMPDEST SWAP4 POP PUSH2 0x2AA6 DUP4 PUSH2 0x2D02 JUMP JUMPDEST DUP1 PUSH1 0x0 JUMPDEST DUP4 DUP2 LT ISZERO PUSH2 0x2AD7 JUMPI DUP2 MLOAD PUSH2 0x2ABE DUP9 DUP3 PUSH2 0x29F7 JUMP JUMPDEST SWAP8 POP PUSH2 0x2AC9 DUP4 PUSH2 0x2D6A JUMP JUMPDEST SWAP3 POP POP PUSH1 0x1 DUP2 ADD SWAP1 POP PUSH2 0x2AAA JUMP JUMPDEST POP DUP6 SWAP4 POP POP POP POP SWAP3 SWAP2 POP POP JUMP JUMPDEST PUSH2 0x2AF0 PUSH1 0x40 DUP4 DUP4 PUSH2 0x2E83 JUMP JUMPDEST POP POP JUMP JUMPDEST PUSH2 0x2B00 PUSH1 0x40 DUP4 DUP4 PUSH2 0x2E83 JUMP JUMPDEST POP POP JUMP JUMPDEST PUSH2 0x2B10 PUSH1 0xA0 DUP4 DUP4 PUSH2 0x2E83 JUMP JUMPDEST POP POP JUMP JUMPDEST PUSH2 0x2B1D DUP2 PUSH2 0x2D3C JUMP JUMPDEST PUSH2 0x2B27 DUP2 DUP5 PUSH2 0x2DAD JUMP JUMPDEST SWAP3 POP PUSH2 0x2B32 DUP3 PUSH2 0x2D12 JUMP JUMPDEST DUP1 PUSH1 0x0 JUMPDEST DUP4 DUP2 LT ISZERO PUSH2 0x2B63 JUMPI DUP2 MLOAD PUSH2 0x2B4A DUP8 DUP3 PUSH2 0x2A0F JUMP JUMPDEST SWAP7 POP PUSH2 0x2B55 DUP4 PUSH2 0x2D77 JUMP JUMPDEST SWAP3 POP POP PUSH1 0x1 DUP2 ADD SWAP1 POP PUSH2 0x2B36 JUMP JUMPDEST POP POP POP POP POP POP JUMP JUMPDEST PUSH2 0x2B74 DUP2 PUSH2 0x2D47 JUMP JUMPDEST PUSH2 0x2B7E DUP2 DUP5 PUSH2 0x2DB8 JUMP JUMPDEST SWAP3 POP PUSH2 0x2B89 DUP3 PUSH2 0x2D1C JUMP JUMPDEST DUP1 PUSH1 0x0 JUMPDEST DUP4 DUP2 LT ISZERO PUSH2 0x2BC1 JUMPI PUSH2 0x2B9E DUP3 PUSH2 0x2F57 JUMP JUMPDEST PUSH2 0x2BA8 DUP8 DUP3 PUSH2 0x2A0F JUMP JUMPDEST SWAP7 POP PUSH2 0x2BB3 DUP4 PUSH2 0x2D84 JUMP JUMPDEST SWAP3 POP POP PUSH1 0x1 DUP2 ADD SWAP1 POP PUSH2 0x2B8D JUMP JUMPDEST POP POP POP POP POP POP JUMP JUMPDEST PUSH2 0x2BD2 DUP2 PUSH2 0x2E6D JUMP JUMPDEST DUP3 MSTORE POP POP JUMP JUMPDEST PUSH1 0x0 PUSH2 0x2BE3 DUP3 PUSH2 0x2D52 JUMP JUMPDEST PUSH2 0x2BED DUP2 DUP6 PUSH2 0x2DC3 JUMP JUMPDEST SWAP4 POP PUSH2 0x2BFD DUP2 DUP6 PUSH1 0x20 DUP7 ADD PUSH2 0x2E92 JUMP JUMPDEST DUP1 DUP5 ADD SWAP2 POP POP SWAP3 SWAP2 POP POP JUMP JUMPDEST PUSH2 0x2C12 DUP2 PUSH2 0x2E79 JUMP JUMPDEST DUP3 MSTORE POP POP JUMP JUMPDEST PUSH2 0x2C21 DUP2 PUSH2 0x2E79 JUMP JUMPDEST DUP3 MSTORE POP POP JUMP JUMPDEST PUSH1 0x0 PUSH2 0x2C33 DUP3 DUP5 PUSH2 0x2BD8 JUMP JUMPDEST SWAP2 POP DUP2 SWAP1 POP SWAP3 SWAP2 POP POP JUMP JUMPDEST PUSH1 0x0 PUSH1 0x20 DUP3 ADD SWAP1 POP DUP2 DUP2 SUB PUSH1 0x0 DUP4 ADD MSTORE PUSH2 0x2C58 DUP2 DUP5 PUSH2 0x2A86 JUMP JUMPDEST SWAP1 POP SWAP3 SWAP2 POP POP JUMP JUMPDEST PUSH1 0x0 PUSH2 0xAC0 DUP3 ADD SWAP1 POP PUSH2 0x2C76 PUSH1 0x0 DUP4 ADD DUP8 PUSH2 0x2AF4 JUMP JUMPDEST PUSH2 0x2C83 PUSH1 0x40 DUP4 ADD DUP7 PUSH2 0x2A27 JUMP JUMPDEST PUSH2 0x2C90 PUSH1 0xC0 DUP4 ADD DUP6 PUSH2 0x2AF4 JUMP JUMPDEST PUSH2 0x2C9E PUSH2 0x100 DUP4 ADD DUP5 PUSH2 0x2B6B JUMP JUMPDEST SWAP6 SWAP5 POP POP POP POP POP JUMP JUMPDEST PUSH1 0x0 PUSH1 0xA0 DUP3 ADD SWAP1 POP PUSH2 0x2CBC PUSH1 0x0 DUP4 ADD DUP5 PUSH2 0x2B04 JUMP JUMPDEST SWAP3 SWAP2 POP POP JUMP JUMPDEST PUSH1 0x0 PUSH1 0x20 DUP3 ADD SWAP1 POP PUSH2 0x2CD7 PUSH1 0x0 DUP4 ADD DUP5 PUSH2 0x2BC9 JUMP JUMPDEST SWAP3 SWAP2 POP POP JUMP JUMPDEST PUSH1 0x0 PUSH1 0x20 DUP3 ADD SWAP1 POP PUSH2 0x2CF2 PUSH1 0x0 DUP4 ADD DUP5 PUSH2 0x2C18 JUMP JUMPDEST SWAP3 SWAP2 POP POP JUMP JUMPDEST PUSH1 0x0 DUP2 SWAP1 POP SWAP2 SWAP1 POP JUMP JUMPDEST PUSH1 0x0 DUP2 SWAP1 POP PUSH1 0x20 DUP3 ADD SWAP1 POP SWAP2 SWAP1 POP JUMP JUMPDEST PUSH1 0x0 DUP2 SWAP1 POP SWAP2 SWAP1 POP JUMP JUMPDEST PUSH1 0x0 DUP2 SWAP1 POP SWAP2 SWAP1 POP JUMP JUMPDEST PUSH1 0x0 PUSH1 0x2 SWAP1 POP SWAP2 SWAP1 POP JUMP JUMPDEST PUSH1 0x0 DUP2 MLOAD SWAP1 POP SWAP2 SWAP1 POP JUMP JUMPDEST PUSH1 0x0 PUSH1 0x5 SWAP1 POP SWAP2 SWAP1 POP JUMP JUMPDEST PUSH1 0x0 PUSH1 0x4E SWAP1 POP SWAP2 SWAP1 POP JUMP JUMPDEST PUSH1 0x0 DUP2 MLOAD SWAP1 POP SWAP2 SWAP1 POP JUMP JUMPDEST PUSH1 0x0 PUSH1 0x40 DUP3 ADD SWAP1 POP SWAP2 SWAP1 POP JUMP JUMPDEST PUSH1 0x0 PUSH1 0x20 DUP3 ADD SWAP1 POP SWAP2 SWAP1 POP JUMP JUMPDEST PUSH1 0x0 PUSH1 0x20 DUP3 ADD SWAP1 POP SWAP2 SWAP1 POP JUMP JUMPDEST PUSH1 0x0 PUSH1 0x1 DUP3 ADD SWAP1 POP SWAP2 SWAP1 POP JUMP JUMPDEST PUSH1 0x0 DUP2 SWAP1 POP SWAP3 SWAP2 POP POP JUMP JUMPDEST PUSH1 0x0 DUP3 DUP3 MSTORE PUSH1 0x20 DUP3 ADD SWAP1 POP SWAP3 SWAP2 POP POP JUMP JUMPDEST PUSH1 0x0 DUP2 SWAP1 POP SWAP3 SWAP2 POP POP JUMP JUMPDEST PUSH1 0x0 DUP2 SWAP1 POP SWAP3 SWAP2 POP POP JUMP JUMPDEST PUSH1 0x0 DUP2 SWAP1 POP SWAP3 SWAP2 POP POP JUMP JUMPDEST PUSH1 0x0 DUP3 SWAP1 POP SWAP3 SWAP2 POP POP JUMP JUMPDEST PUSH1 0x0 PUSH2 0x2DE4 DUP3 PUSH2 0x2E79 JUMP JUMPDEST SWAP2 POP PUSH2 0x2DEF DUP4 PUSH2 0x2E79 JUMP JUMPDEST SWAP3 POP DUP3 PUSH32 0xFFFFFFFFFFFFFFFFFFFFFFFFFFFFFFFFFFFFFFFFFFFFFFFFFFFFFFFFFFFFFFFF SUB DUP3 GT ISZERO PUSH2 0x2E24 JUMPI PUSH2 0x2E23 PUSH2 0x2F28 JUMP JUMPDEST JUMPDEST DUP3 DUP3 ADD SWAP1 POP SWAP3 SWAP2 POP POP JUMP JUMPDEST PUSH1 0x0 PUSH2 0x2E3A DUP3 PUSH2 0x2E79 JUMP JUMPDEST SWAP2 POP PUSH2 0x2E45 DUP4 PUSH2 0x2E79 JUMP JUMPDEST SWAP3 POP DUP3 DUP3 LT ISZERO PUSH2 0x2E58 JUMPI PUSH2 0x2E57 PUSH2 0x2F28 JUMP JUMPDEST JUMPDEST DUP3 DUP3 SUB SWAP1 POP SWAP3 SWAP2 POP POP JUMP JUMPDEST PUSH1 0x0 DUP2 SWAP1 POP SWAP2 SWAP1 POP JUMP JUMPDEST PUSH1 0x0 DUP2 ISZERO ISZERO SWAP1 POP SWAP2 SWAP1 POP JUMP JUMPDEST PUSH1 0x0 DUP2 SWAP1 POP SWAP2 SWAP1 POP JUMP JUMPDEST DUP3 DUP2 DUP4 CALLDATACOPY PUSH1 0x0 DUP4 DUP4 ADD MSTORE POP POP POP JUMP JUMPDEST PUSH1 0x0 JUMPDEST DUP4 DUP2 LT ISZERO PUSH2 0x2EB0 JUMPI DUP1 DUP3 ADD MLOAD DUP2 DUP5 ADD MSTORE PUSH1 0x20 DUP2 ADD SWAP1 POP PUSH2 0x2E95 JUMP JUMPDEST DUP4 DUP2 GT ISZERO PUSH2 0x2EBF JUMPI PUSH1 0x0 DUP5 DUP5 ADD MSTORE JUMPDEST POP POP POP POP JUMP JUMPDEST PUSH1 0x0 PUSH2 0x2ED8 PUSH2 0x2ED3 DUP4 PUSH2 0x2F6A JUMP JUMPDEST PUSH2 0x2E63 JUMP JUMPDEST SWAP1 POP SWAP2 SWAP1 POP JUMP JUMPDEST PUSH1 0x0 PUSH2 0x2EEA DUP3 PUSH2 0x2E79 JUMP JUMPDEST SWAP2 POP PUSH32 0xFFFFFFFFFFFFFFFFFFFFFFFFFFFFFFFFFFFFFFFFFFFFFFFFFFFFFFFFFFFFFFFF DUP3 EQ ISZERO PUSH2 0x2F1D JUMPI PUSH2 0x2F1C PUSH2 0x2F28 JUMP JUMPDEST JUMPDEST PUSH1 0x1 DUP3 ADD SWAP1 POP SWAP2 SWAP1 POP JUMP JUMPDEST PUSH32 0x4E487B7100000000000000000000000000000000000000000000000000000000 PUSH1 0x0 MSTORE PUSH1 0x11 PUSH1 0x4 MSTORE PUSH1 0x24 PUSH1 0x0 REVERT JUMPDEST PUSH1 0x0 PUSH2 0x2F63 DUP3 SLOAD PUSH2 0x2EC5 JUMP JUMPDEST SWAP1 POP SWAP2 SWAP1 POP JUMP JUMPDEST PUSH1 0x0 DUP2 PUSH1 0x0 SHR SWAP1 POP SWAP2 SWAP1 POP JUMP JUMPDEST PUSH2 0x2F80 DUP2 PUSH2 0x2E6D JUMP JUMPDEST DUP2 EQ PUSH2 0x2F8B JUMPI PUSH1 0x0 DUP1 REVERT JUMPDEST POP JUMP JUMPDEST PUSH2 0x2F97 DUP2 PUSH2 0x2E79 JUMP JUMPDEST DUP2 EQ PUSH2 0x2FA2 JUMPI PUSH1 0x0 DUP1 REVERT JUMPDEST POP JUMP INVALID LOG2 PUSH5 0x6970667358 0x22 SLT KECCAK256 LT 0xDB 0xA5 CREATE2 0xD7 COINBASE PUSH2 0xDAE7 DUP5 DIFFICULTY SUB 0xD3 SLT PUSH26 0xEB2EA9598ECB4D053E8E7BC2C742B2AA6064736F6C6343000800 STOP CALLER "},"methodIdentifiers":{"getValidatorSet()":"cf331250","getVerified()":"406e6709","nonceId()":"0c086993","publicInputs(uint256)":"6ae659ee","validatorSet(uint256,uint256)":"88e35625","verified()":"bbb82d89","verifyProof(uint256[2],uint256[2][2],uint256[2],uint256[78])":"670b74d9","verifyValidatorSetChangeProof(uint256[2],uint256[2][2],uint256[2],uint256[5])":"f7b00e7f"}}}}}