{"contracts/final_verifier.sol":{"Groth16Verifier":{"abi":[{"inputs":[{"internalType":"uint256[2]","name":"_pA","type":"uint256[2]"},{"internalType":"uint256[2][2]","name":"_pB","type":"uint256[2][2]"},{"internalType":"uint256[2]","name":"_pC","type":"uint256[2]"},{"internalType":"uint256[78]","name":"_pubSignals","type":"uint256[78]"}],"name":"verifyProof","outputs":[{"internalType":"bool","name":"","type":"bool"}],"stateMutability":"view","type":"function"}],"evm":{"bytecode":{"linkReferences":{},"object":"608060405234801561001057600080fd5b50612272806100206000396000f3fe608060405234801561001057600080fd5b506004361061002b5760003560e01c8063670b74d914610030575b600080fd5b61004a600480360381019061004591906121a1565b610060565b6040516100579190612215565b60405180910390f35b6000611cdb565b7f30644e72e131a029b85045b68181585d97816a916871ca8d3c208c16d87cfd478110610098576000805260206000f35b50565b600060405183815284602082015285604082015260408160608360076107d05a03fa9150816100ce576000805260206000f35b825160408201526020830151606082015260408360808360066107d05a03fa9150816100fe576000805260206000f35b505050505050565b600060808601600087017f1c120abf71acffb842722798d31398bf3d41fd2075c3225bb9249c22b7e282e081527f0c464e77fdc625282237ce3c15a9153ae8c55a747decb9586a96839ee44f3e9360208201526101a960008801357f2154b55578b74cc493806f1b45fc3956f9aa81c90f89bbd6d867abc0b755dd3f7f14e1f157baf1bb42a6fb9a011020532b6732d454274acacd3e9b121cb19835ee8461009b565b6101f960208801357f0bd0ddf508a61d4e6965a9830775e93a585617ed0e17ffaab7b35bded7df78bd7f1c48d8b8c581986550152dbdfa0d64f022dbbce88f6bc8551fad3bb429e2d5ef8461009b565b61024960408801357f15753f111d03f3b9524bac0441103d8c96c1ef81ac85f10637b58999191125c87f036fbbebe9b6e9882415b43ace9674e06dfa4b8eae27bee32ba4a68702153e5d8461009b565b61029960608801357f1380736fe5b19359980256e4d233e4e4b5adbcc85ab392dc329ffd0c64ad38a87f0dc2cdb797ec67b1f7471fd0ca3fdbc91f6a0e1bc4883b63163e4f1ee7f75c018461009b565b6102e960808801357f299e0354f2164ffccefac816e9c430675fb6faac702d10ed3df452346f89c1767f17c6ddb10c97cb565027cd7747d31493072b5f7ac9855d599ac36b3dc747f5aa8461009b565b61033960a08801357f0b9358588f0118ed5b2825993722947f9e65e408a10b408216a255cbfa0058c57f2299ebb2cc2900223b76138b80c37e506590f12ef56aec9995d6e6905875926e8461009b565b61038960c08801357f090d0b302bc7650e74fa82786e1892fa5350086987e72942eb77c2682b3514fe7f2b6dbe6e2dde989cfe5692fadc2e46a0384156965ce1e9afcacc8c31f02d9df18461009b565b6103d860e08801357edab53df2eeb9bdeaa768ed5c01f5e0c9339f65faf37aff69dfc70f77a388c77f04a95f1c73000c62d4d1494f4d2b31ec0e21d42ed419f8cbc223737d1ca610db8461009b565b6104296101008801357f16ec2701baabc399ab7c26c52ea92a69de71ab7f0ebac0c56697c5719dfd7f477f1f42a71c24b0efcc6b0bc0e5ea73c53764cbba73024860346ea045625e96842f8461009b565b61047a6101208801357f2afb0c72162ff1d158577a85c0088ae2c93d8a2e37970ef13016ca2a96ef32057f1d3f40b128c7dabaf6a9ac4c213d5caf54031b282ae4da66b82886a780270afa8461009b565b6104cb6101408801357f08a15a517a99f2dd9dbec5f9bf4f846ab4367305da537170a2f252d8e1b652037f284af27ecba4e789e589825c20eaf9ca85a512f2d25ef0d9a677c8ace4439aa58461009b565b61051c6101608801357f0e4484961d3051c47842253ec6d21b20f9d96b1e149b7adf147086667501762a7f1819879c310188c1d0619a8bd767c3b68e40ad8dad19141eaf8f6e512974c80a8461009b565b61056d6101808801357f0e2dcb55205ac07e48864472e080d4c9b3991226caf8fdd51fc7930928e13c6a7f07ba7cf25d31e1013b41f131683ddac9bfaf31576b9a85d14cd4b2187433ed358461009b565b6105be6101a08801357f0cdfed5312b8c754b04573566ed7798db1099b612b4eb78bd5f67f539775c6967f0d35ae05c8dd583dace9165e00853769870c272fb16ad7b54f9359671c6502bd8461009b565b61060f6101c08801357f2b3db3f28c0617ff398c7f36dfbd4b11049a28092a71cb55eb318c4db82aaa147f0253fe59f04ece7ee1a0ae668144effbf2dbb727cbddbe658e84418b0f560e848461009b565b6106606101e08801357f1c16d8d868aa3ea6cd608f167d4f5c6c5986c93e56a92fd55dfcdeba8fd8daff7f2b42423ca1d601424c4eafa7e22e352b8ff65b91d07df0741ef099e2929236908461009b565b6106b16102008801357f1724fe5c6130ece5d91afc60f008cfedc1bda48031f37b0655e51b4d3fcb55dc7f0a511298c0b2fad48b66636ec4c4abd8b124e394f3f57e52374165f2be2e798d8461009b565b6107026102208801357f1b49622a17d2ce7cd9f8970c3e6927bf540f73ae91723277e34a46c3c1e261437f13ccb882e68f3f93f69cbdbf8d4a53c0e65f2a67b1cf3266e766faab993393628461009b565b6107536102408801357f2ac2e3946eaf44410bf6426807f2f03bb229f3d068b79101817035d4bee2607e7f1192f95712102b85480ae6b553565a075013efbd69c8ba75a00af8e7040bad7c8461009b565b6107a46102608801357f24d6d7692ef5a279c267b45a1ebeafbdac5cf5d149b9d2ad499230614601863a7f093589826d4a9fa01cd2787ad9de53a1f2c66bd0ceb32c73acf4821772db78278461009b565b6107f46102808801357ee9e77aba7b780e3c3b995ece112617bd4f5fc21589dc5d370b5215b83505457f16516e6485e441f2723274fd5815d4bd3feef358efc00807cad29d333122aade8461009b565b6108456102a08801357f16800633488e4c32259a3994da87234da751b59eb126999ad6089b174d54b64e7f1906ad36f4f4865a77f6f6d664805f4af79c41011dc740e5c109aa7134a53da28461009b565b6108966102c08801357f1975313ba6d7e94bcde68a410c2aec9481a151b785341449a67e68e81cc273e17f2bff9a90ecbfb71e99768e2422db4e938933f5804478fcf9446b89c872fbc6ae8461009b565b6108e76102e08801357f01917846fb4f25af4c35701ad895aa98e2fdaa2daa845494b249201e3cebfc097f261c6deb3a71bea6f490c3f85a7c24f04ab621b7798f2544929e35f153ba732f8461009b565b6109386103008801357f167a24e662b5f9a46acb6fb47f2b4101a4eed67f442000e5dea6248192b5c8e97f1a47db756452acc4403a8b52dbb05b09d362dfdc82a27dcf0aad0d20c66a2e538461009b565b6109896103208801357f24438dfdc93279f015eed63ba7246efdbc306742ef29ddfea1643cbd6098e1087f169e0503b3c8a7dbfdee42ab8b6c1ab9bf55bd60af78bd0772eab008ddd252348461009b565b6109da6103408801357f1a7ba0f2473c8c54afc869af03239e14737543ca781bd799ff35bb9db1cb21607f305f512a4bdaa34fd8ea8e5e00e0b2b2799f977369d27e6683693eec0a6260f78461009b565b610a2b6103608801357f194a7ad2bfeb31069667040185f6996a81e80fac39159438d8372a0b5c9591717f2a4b5253ae713b0e98a5801e38f7ae932d8955a52cc4366a57e74f3e52e0e9fb8461009b565b610a7c6103808801357f095598b9fdea3c5fc011a15077b1ba861ae2c03bced71ba53cddeb68a0d070007f05e03f9d408295566883698a2246d3c6e1b93fb02abcbaf19ec58f7a815af14f8461009b565b610acd6103a08801357f0ce37073fb33bb0d52bbb5774235b484b2c99366b1fda53f49c90b1913365ade7f124fb82ed451930ae10f441a4a210ff2c96ced6ed326402d7c5aa99a5c8eb46e8461009b565b610b1e6103c08801357f1f2fc9c26ea673c16294c544ed25a3cdaab9f334ac4582d119dcb44ad34953bb7f04c37a4f13f65f3abe43e0ff012d56de58ba5bded5bf520590f444c873b8b3398461009b565b610b6f6103e08801357f1a41c0fe0d539304af2cfa0d68ca67819b9d151504ce7ea750b27e3d874b17987f089c3fac27c07a7fcea2e22d620030344a61e1784c3f069aa94a0f7b9fcfe5698461009b565b610bbf6104008801357f1b202cbeb83c9cfa4932a313bf2c7e5d4da857f454a6d0a86a481fdaf8d403ca7e1f13cb9db0e7b70418799ed260e400e4691de97c80e7ccf06e5538f9dfd6558461009b565b610c106104208801357f2e5282fc8040f0cdd66e03adef04737e97b9981e7eab083975c62167c2a73d2f7f196c6a134fe4f86f0ee1fcd4250ba9f71ded76f0223000bd6b36add8f415f6968461009b565b610c606104408801357f1843950a405b8bcf9bd06dd30466b66be4f76e51bea40dc74aa582e9ec72b2157e9e6458f61cfe50d7b8615b0b5144461e4bf10b2f5c69f19a65ce274ccb24fc8461009b565b610cb16104608801357f1a60ff643efd830f771873537aba7f2f0b83ee729d887f698ba9b79f55d821947f18bf908f154380d5894afd15ba8a0adbc9b1a99d049e132c26f479d724f1d2428461009b565b610d026104808801357f28c70664b7f9998ed838b70088d7cd196df326b4f552bbef8b55d5c44ab2a6767f2f584a6af3b55c7eabf2d52021d15277a1d4aa447799c84e979240f2f6f39a5b8461009b565b610d536104a08801357f231d39dcfb4389c2bd0a2d31b36b22831681496a99a89388cf6c6edac84eb0777f09ec1e4f9e443e59e13c7223dcfb2c42055d31e364240b9e68130ebde06ab07e8461009b565b610da46104c08801357f1fecf8e7a6a8f92879ade076fd0dfc0fe8abfcebc45fbb99151c47f45e5c4b847f07479cd537bb9c0f7d175ee544fa4d50aa1497a77a4aa2ed57839b8c64852e138461009b565b610df56104e08801357f059fb17d46b6079d0fcb8f8dee8be04b63471744f77c6908dfcf7d6878db09fd7f07b0b5ba6aa97e9a9a32bcaa197f7a4e174abd9ae012876e3f69a92df93fac5c8461009b565b610e466105008801357f031a59d76804d90afaaf5a2fa740c05c0fc8dfe211ca9b936da23de072ff707c7f1895ae7d8e537b7b53a44edcd10ab13a6a0e1773967878c87312c6e8f68ffd188461009b565b610e976105208801357f1a57edaa754dc21bb1a7b07ef11e09a3fab14d5244e22d1a59951b8ddc08f2867f038693c31fd3e910d469d269828ffc90a40449fa5e5b8495ac503020db8058878461009b565b610ee76105408801357f183beacb1f7a2bdddaad7e3590a380011c511839ba81c6d2abe892284b2ab4237e12d7dac81eb792e1acf9e1e28c92d4c33632db88da1bb71357f3013d0b04de8461009b565b610f386105608801357f09c1dee97783df074609ee37af0068adbed0895bfc180354446ea1cbe11b0ba27f275ac0d2832acffa2edffe5164d0d0778c4dc8ec5d38f28788fede51116e7f208461009b565b610f896105808801357f11f7622ea5b9190e61ee771683fe164df747f96a946bea74b2e366616dd082e87f1e9481dc517f39993639d3fe7e990c4851a2e58a081836b02f2c04d76145b0a68461009b565b610fda6105a08801357f144762ed6b8b6faafcd55c6228cbbdcc22068e978f7597f3d5c0525b0f00a5827f2a847d2d499743e8cfa86fd55b160ad3320d88faf231227da31650114c4695cd8461009b565b61102b6105c08801357f17572d34d9241e9ccfcd664305a1f08525f9fe1f84f46173c4bcee7240d8a9927f08f23616472bd340df2333d87f637076a4eca72a78c822fcdbca5791884fa0398461009b565b61107c6105e08801357f17d5fc88faedaaadaddccf83ad0d5fa00de7c5a3f7834364872530a75e34ea6b7f1f63bb1ec0fdd4e61c150a13aaa2276e411e6d551cd9634768056ca50f7c761d8461009b565b6110cd6106008801357f22c6fe4a54963c4d7ba0a362e551798823860678d694905338219537be787fe87f150fb3f5ec7c5019dea1a2c9027f965489d5340c8f1cdbd3e67a14ed8e7ae3878461009b565b61111e6106208801357f1176a7b4564e96e59fa39615c01069b75a62d9232829a1d3a074778b17be04ea7f0e4f66c47206a7d0ab7abbe0a54afd14966653ae98cc291bec31818649b4f1fc8461009b565b61116f6106408801357f1d0ab3859c4709bc267bb17c47c8d07c9ee1e52ce70ab284f1e522a0c0d3f7707f01c6331fdf5a4f3c94c1e983f59c3445a730eb7c68412342be0246b11bb608088461009b565b6111c06106608801357f16baf8ff2abac9ee505a66d08694893382461d07badcca920b5f2f29b7fefb827f2e95c07703a5f460e928a8616cc0a32c81529e55dd9f5fe65f5ef369a15500288461009b565b6112116106808801357f1ae3ffe045e71bab68e45395d0dd33c16aa694856366d2c3efb08326992e784a7f2124ea3390b77a98d884960bd8302af458c5c54c41ba847b700c10dc30bd8d9e8461009b565b6112626106a08801357f30619d39980d6d6b921d1f1405c7ddce12725e91a50ac303ce99cd8ff08f52167f0299a7b8a330cef6e468a801b954cb37924ca4723310ffd6963a1bfbe2e406a08461009b565b6112b36106c08801357f170291aa0cfb0507145e693d13abdf27e05c9003fb3a9d77da14aaf5071513997f0c8d041edb7e2b8e0e8b80d9e6196038925e58599806180bf76518cf2df2e30e8461009b565b6113046106e08801357f036dc82087a0262f32c85dc97460339f9744577aeecfb1f274713a1f5d29526e7f25498e1c46ffa3fa6a929a4247d7a7b7a828b8ebed033032f21323f6abd000cb8461009b565b6113546107008801357f0d7b5314623e0c62dcb152aebc638033dec8e40f14cfff7a410ec2b3bccf19d67ed8cda8916791b9f177d0f51c80bb10fe7f2a255bc3172ba3b9a0bf89bf28ab8461009b565b6113a46107208801357f1628ba10a58def433ad881de923d294e61135c334dda3ce35eb93d246419dd997e903e8edb16bc683be05b78295e7e992d0a17e80b5596a23fbf854610100fab8461009b565b6113f56107408801357f2b00ea3aecfb874ff172535efb6ee86de565b2a0ca28fe7fe00732217aadf0457f213336b3779ae3d1983709188ec8b5a1c39855a93a9936695cc7c286cd4106c98461009b565b6114456107608801357f17d4148e13fff5aa7aceb0ec873fa6e532d040dd15d835a5b5ad0e33317186527ef950feb3aa6b3fbd8c3b75a743b5f6c08f05103ee8405f650a85f0b0e63ebc8461009b565b6114966107808801357f2075186e3ca2462a8e981d7d97edfd1081fa702db090427f4c6f38bfa6aab6f17f0777c5239d5defcef8fd9f3952a90cfb22611020c99e527021a8cb56da3164da8461009b565b6114e76107a08801357f044fe0d2b1b5a1d2501df98228cef51453d403c110c3527cfbc2225cfa5b820d7f0550805b27f8b9b80b2e8114f0f21acf8976404f8b7c2932729584495d1ec1288461009b565b6115386107c08801357f08395eff070dff2ebcf904feafdbd9ae403c7a27148fc8a93e844f18f3c2ec2d7f2835dc1af0b63d402f85ffcb8b9ab5255d9234e01e9b98530117e0eb3401d4058461009b565b6115896107e08801357f110c912dc0a5a81530bbae71326a75f9eb03332942da0ef7001fd2fb542b1f267f100bebe0e39abf09c941c19b329f07f6f807f2b34b05ec91c49f12cbeadb20568461009b565b6115da6108008801357f2190364b77f7eec4872e374a3afa97786e285f7882d8064211216876b83701e47f02319f139fb74e08c6bd30c1e8c635c82193f71312dafa2b22a11365274a1e758461009b565b61162b6108208801357f19c7932baecff900eb2225f85904553ad3f07e7f42a678c381514512e72929b17f2af2bed2bf45ef363e226a86a6b8d933575e5a22b13b17c4f4f4cf13a42ee0718461009b565b61167c6108408801357f034253af444114edc0b1bf235192328f3c252935e2f94b2406a397cf8867db377f28cd43cb15bf0f0e2d5291a93cd7bd95146b709716579587ae049738ee51c0388461009b565b6116cd6108608801357f2946e3bfbad6ed54bc86d00200a63334d5284985d073c1261f3bd261f86415e67f202ccdcea178bfd57a7a1410c39296f3672be03e4bec7fea0c2efd5bf85e8f318461009b565b61171e6108808801357f10156fec9e0bb58c1f485c056d2f207c30a6977d661cc9dfe5f0e6931a0771317f2636549e44bb79823c81cbf82bd2ab8d084f6e61342aa1a3df4a40aec7b4fc628461009b565b61176f6108a08801357f1416af715851b64bb763f23c898e556f3ba4ed16b4918ed1e246bef75c8d8be27f01cb2214ed940f01ff2aa41c674b208dbe8320d7b4f7de08f96e87cee9c69e728461009b565b6117c06108c08801357f283b81bcd354d8d0f16eece8b93a8b863a2534b3fa4b7cf8b33a5b88b0f0ec357f23692b44492ddcbc53f85736f5beffa94206ebe801c892c6461bfb418284e0e28461009b565b6118116108e08801357f1f9001b206726c69882f937956a4094528fb83654ffb9e32bd4a6cf9deab0d747f11024c1d1d50b5005f7ff29a7d68ce6f8f08cab9573b7a03f970f88bba2800398461009b565b6118626109008801357f2c1e6330888cabf9ccb696f3f721444e60449a8063ee312f4690b16a4c331b2d7f1e5da07fdcb167f420589ad3f39c9317a1f179dfa5964f7c5e27b05d96d41d488461009b565b6118b36109208801357f04f83f014bafcfb23599be384a041e7003d3b9cd99ad1bd14de939a00f64310b7f2005c18717f3c3ad698679bd215f5505b6b9c7132e664bdf382dfdb30e066ce88461009b565b6119046109408801357f232355b5575be4c47bf2519bf62475d367353b8efa5b6b2437bae5cc6a6a9f617f26b60fb5b89fe5caed90f355abb66f3d125aaf117215d92feeb69ff52e28a1ed8461009b565b6119556109608801357f2d21ccdb040df673c20ad37a1baa59e80ac10357ac5b4e43cf479ace460e645a7f21b7446a5125716641970160b9c94d1eeab7d7bc249315d27db8b99cc23d00af8461009b565b6119a66109808801357f29dca094c35f373a140166b73b02110dad65613bd17129ed6b5021a876e46d917f1c6b63eec29948a6becca8d8a7d9da3190a820f4958286100e80636f9f288e1c8461009b565b6119f76109a08801357f1b64fd983e687c099f0876f558a2b6bd955642096b62fb78b62f1412e387ccfa7f06f489aaf26938ce153c8565622ff2cefdbbf0b1277654c42ee86ca1cbb1f3378461009b565b833582527f30644e72e131a029b85045b68181585d97816a916871ca8d3c208c16d87cfd4760208501357f30644e72e131a029b85045b68181585d97816a916871ca8d3c208c16d87cfd4703066020830152843560408301526020850135606083015260408501356080830152606085013560a08301527f2d4d9aa7e302d9df41749d5507949d05dbea33fbb16c643b22f599a2be6df2e260c08301527f14bedd503c37ceb061d8ec60209fe345ce89830a19230301f076caff004d192660e08301527f0967032fcbf776d1afc985f88877f182d38480a653f2decaa9794cbc3bf3060c6101008301527f0e187847ad4c798374d0d6732bf501847dd68bc0e071241e0213bc7fc13db7ab6101208301527f304cfbd1e08a704a99f5e847d93f8c3caafddec46b7a0d379da69a4d112346a76101408301527f1739c1b1a457a8c7313123d24d2f9192f896b7c63eea05a9d57f06547ad0cec8610160830152600088015161018083015260206000018801516101a08301527f198e9393920d483a7260bfb731fb5d25f1aa493335a9e71297e485b7aef312c26101c08301527f1800deef121f1e76426a00665e5c4479674322d4f75edadd46debd5cd992f6ed6101e08301527f090689d0585ff075ec9e99ad690c3395bc4b313370b38ef355acdadcd122975b6102008301527f12c85ea5db8c6deb4aab71808dcb408fe3d1e7690c43d37b4ce6cc0166fa7daa610220830152853561024083015260208601356102608301527f198e9393920d483a7260bfb731fb5d25f1aa493335a9e71297e485b7aef312c26102808301527f1800deef121f1e76426a00665e5c4479674322d4f75edadd46debd5cd992f6ed6102a08301527f090689d0585ff075ec9e99ad690c3395bc4b313370b38ef355acdadcd122975b6102c08301527f12c85ea5db8c6deb4aab71808dcb408fe3d1e7690c43d37b4ce6cc0166fa7daa6102e08301526020826103008460086107d05a03fa82518116935050505095945050505050565b6040516103808101604052611cf36000840135610067565b611d006020840135610067565b611d0d6040840135610067565b611d1a6060840135610067565b611d276080840135610067565b611d3460a0840135610067565b611d4160c0840135610067565b611d4e60e0840135610067565b611d5c610100840135610067565b611d6a610120840135610067565b611d78610140840135610067565b611d86610160840135610067565b611d94610180840135610067565b611da26101a0840135610067565b611db06101c0840135610067565b611dbe6101e0840135610067565b611dcc610200840135610067565b611dda610220840135610067565b611de8610240840135610067565b611df6610260840135610067565b611e04610280840135610067565b611e126102a0840135610067565b611e206102c0840135610067565b611e2e6102e0840135610067565b611e3c610300840135610067565b611e4a610320840135610067565b611e58610340840135610067565b611e66610360840135610067565b611e74610380840135610067565b611e826103a0840135610067565b611e906103c0840135610067565b611e9e6103e0840135610067565b611eac610400840135610067565b611eba610420840135610067565b611ec8610440840135610067565b611ed6610460840135610067565b611ee4610480840135610067565b611ef26104a0840135610067565b611f006104c0840135610067565b611f0e6104e0840135610067565b611f1c610500840135610067565b611f2a610520840135610067565b611f38610540840135610067565b611f46610560840135610067565b611f54610580840135610067565b611f626105a0840135610067565b611f706105c0840135610067565b611f7e6105e0840135610067565b611f8c610600840135610067565b611f9a610620840135610067565b611fa8610640840135610067565b611fb6610660840135610067565b611fc4610680840135610067565b611fd26106a0840135610067565b611fe06106c0840135610067565b611fee6106e0840135610067565b611ffc610700840135610067565b61200a610720840135610067565b612018610740840135610067565b612026610760840135610067565b612034610780840135610067565b6120426107a0840135610067565b6120506107c0840135610067565b61205e6107e0840135610067565b61206c610800840135610067565b61207a610820840135610067565b612088610840840135610067565b612096610860840135610067565b6120a4610880840135610067565b6120b26108a0840135610067565b6120c06108c0840135610067565b6120ce6108e0840135610067565b6120dc610900840135610067565b6120ea610920840135610067565b6120f8610940840135610067565b612106610960840135610067565b612114610980840135610067565b6121226109a0840135610067565b6121306109c0840135610067565b61213d818486888a610106565b8060005260206000f35b60008190508260406002028201111561215f57600080fd5b92915050565b60008190508260206002028201111561217d57600080fd5b92915050565b6000819050826020604e028201111561219b57600080fd5b92915050565b600080600080610ac085870312156121b857600080fd5b60006121c687828801612165565b94505060406121d787828801612147565b93505060c06121e887828801612165565b9250506101006121fa87828801612183565b91505092959194509250565b61220f81612230565b82525050565b600060208201905061222a6000830184612206565b92915050565b6000811515905091905056fea2646970667358221220cc69f67bda035ee83441daa6d0422bf14b4a6a142a40c0327748a126534cb1b164736f6c63430008000033","opcodes":"PUSH1 0x80 PUSH1 0x40 MSTORE CALLVALUE DUP1 ISZERO PUSH2 0x10 JUMPI PUSH1 0x0 DUP1 REVERT JUMPDEST POP PUSH2 0x2272 DUP1 PUSH2 0x20 PUSH1 0x0 CODECOPY PUSH1 0x0 RETURN INVALID PUSH1 0x80 PUSH1 0x40 MSTORE CALLVALUE DUP1 ISZERO PUSH2 0x10 JUMPI PUSH1 0x0 DUP1 REVERT JUMPDEST POP PUSH1 0x4 CALLDATASIZE LT PUSH2 0x2B JUMPI PUSH1 0x0 CALLDATALOAD PUSH1 0xE0 SHR DUP1 PUSH4 0x670B74D9 EQ PUSH2 0x30 JUMPI JUMPDEST PUSH1 0x0 DUP1 REVERT JUMPDEST PUSH2 0x4A PUSH1 0x4 DUP1 CALLDATASIZE SUB DUP2 ADD SWAP1 PUSH2 0x45 SWAP2 SWAP1 PUSH2 0x21A1 JUMP JUMPDEST PUSH2 0x60 JUMP JUMPDEST PUSH1 0x40 MLOAD PUSH2 0x57 SWAP2 SWAP1 PUSH2 0x2215 JUMP JUMPDEST PUSH1 0x40 MLOAD DUP1 SWAP2 SUB SWAP1 RETURN JUMPDEST PUSH1 0x0 PUSH2 0x1CDB JUMP JUMPDEST PUSH32 0x30644E72E131A029B85045B68181585D97816A916871CA8D3C208C16D87CFD47 DUP2 LT PUSH2 0x98 JUMPI PUSH1 0x0 DUP1 MSTORE PUSH1 0x20 PUSH1 0x0 RETURN JUMPDEST POP JUMP JUMPDEST PUSH1 0x0 PUSH1 0x40 MLOAD DUP4 DUP2 MSTORE DUP5 PUSH1 0x20 DUP3 ADD MSTORE DUP6 PUSH1 0x40 DUP3 ADD MSTORE PUSH1 0x40 DUP2 PUSH1 0x60 DUP4 PUSH1 0x7 PUSH2 0x7D0 GAS SUB STATICCALL SWAP2 POP DUP2 PUSH2 0xCE JUMPI PUSH1 0x0 DUP1 MSTORE PUSH1 0x20 PUSH1 0x0 RETURN JUMPDEST DUP3 MLOAD PUSH1 0x40 DUP3 ADD MSTORE PUSH1 0x20 DUP4 ADD MLOAD PUSH1 0x60 DUP3 ADD MSTORE PUSH1 0x40 DUP4 PUSH1 0x80 DUP4 PUSH1 0x6 PUSH2 0x7D0 GAS SUB STATICCALL SWAP2 POP DUP2 PUSH2 0xFE JUMPI PUSH1 0x0 DUP1 MSTORE PUSH1 0x20 PUSH1 0x0 RETURN JUMPDEST POP POP POP POP POP POP JUMP JUMPDEST PUSH1 0x0 PUSH1 0x80 DUP7 ADD PUSH1 0x0 DUP8 ADD PUSH32 0x1C120ABF71ACFFB842722798D31398BF3D41FD2075C3225BB9249C22B7E282E0 DUP2 MSTORE PUSH32 0xC464E77FDC625282237CE3C15A9153AE8C55A747DECB9586A96839EE44F3E93 PUSH1 0x20 DUP3 ADD MSTORE PUSH2 0x1A9 PUSH1 0x0 DUP9 ADD CALLDATALOAD PUSH32 0x2154B55578B74CC493806F1B45FC3956F9AA81C90F89BBD6D867ABC0B755DD3F PUSH32 0x14E1F157BAF1BB42A6FB9A011020532B6732D454274ACACD3E9B121CB19835EE DUP5 PUSH2 0x9B JUMP JUMPDEST PUSH2 0x1F9 PUSH1 0x20 DUP9 ADD CALLDATALOAD PUSH32 0xBD0DDF508A61D4E6965A9830775E93A585617ED0E17FFAAB7B35BDED7DF78BD PUSH32 0x1C48D8B8C581986550152DBDFA0D64F022DBBCE88F6BC8551FAD3BB429E2D5EF DUP5 PUSH2 0x9B JUMP JUMPDEST PUSH2 0x249 PUSH1 0x40 DUP9 ADD CALLDATALOAD PUSH32 0x15753F111D03F3B9524BAC0441103D8C96C1EF81AC85F10637B58999191125C8 PUSH32 0x36FBBEBE9B6E9882415B43ACE9674E06DFA4B8EAE27BEE32BA4A68702153E5D DUP5 PUSH2 0x9B JUMP JUMPDEST PUSH2 0x299 PUSH1 0x60 DUP9 ADD CALLDATALOAD PUSH32 0x1380736FE5B19359980256E4D233E4E4B5ADBCC85AB392DC329FFD0C64AD38A8 PUSH32 0xDC2CDB797EC67B1F7471FD0CA3FDBC91F6A0E1BC4883B63163E4F1EE7F75C01 DUP5 PUSH2 0x9B JUMP JUMPDEST PUSH2 0x2E9 PUSH1 0x80 DUP9 ADD CALLDATALOAD PUSH32 0x299E0354F2164FFCCEFAC816E9C430675FB6FAAC702D10ED3DF452346F89C176 PUSH32 0x17C6DDB10C97CB565027CD7747D31493072B5F7AC9855D599AC36B3DC747F5AA DUP5 PUSH2 0x9B JUMP JUMPDEST PUSH2 0x339 PUSH1 0xA0 DUP9 ADD CALLDATALOAD PUSH32 0xB9358588F0118ED5B2825993722947F9E65E408A10B408216A255CBFA0058C5 PUSH32 0x2299EBB2CC2900223B76138B80C37E506590F12EF56AEC9995D6E6905875926E DUP5 PUSH2 0x9B JUMP JUMPDEST PUSH2 0x389 PUSH1 0xC0 DUP9 ADD CALLDATALOAD PUSH32 0x90D0B302BC7650E74FA82786E1892FA5350086987E72942EB77C2682B3514FE PUSH32 0x2B6DBE6E2DDE989CFE5692FADC2E46A0384156965CE1E9AFCACC8C31F02D9DF1 DUP5 PUSH2 0x9B JUMP JUMPDEST PUSH2 0x3D8 PUSH1 0xE0 DUP9 ADD CALLDATALOAD PUSH31 0xDAB53DF2EEB9BDEAA768ED5C01F5E0C9339F65FAF37AFF69DFC70F77A388C7 PUSH32 0x4A95F1C73000C62D4D1494F4D2B31EC0E21D42ED419F8CBC223737D1CA610DB DUP5 PUSH2 0x9B JUMP JUMPDEST PUSH2 0x429 PUSH2 0x100 DUP9 ADD CALLDATALOAD PUSH32 0x16EC2701BAABC399AB7C26C52EA92A69DE71AB7F0EBAC0C56697C5719DFD7F47 PUSH32 0x1F42A71C24B0EFCC6B0BC0E5EA73C53764CBBA73024860346EA045625E96842F DUP5 PUSH2 0x9B JUMP JUMPDEST PUSH2 0x47A PUSH2 0x120 DUP9 ADD CALLDATALOAD PUSH32 0x2AFB0C72162FF1D158577A85C0088AE2C93D8A2E37970EF13016CA2A96EF3205 PUSH32 0x1D3F40B128C7DABAF6A9AC4C213D5CAF54031B282AE4DA66B82886A780270AFA DUP5 PUSH2 0x9B JUMP JUMPDEST PUSH2 0x4CB PUSH2 0x140 DUP9 ADD CALLDATALOAD PUSH32 0x8A15A517A99F2DD9DBEC5F9BF4F846AB4367305DA537170A2F252D8E1B65203 PUSH32 0x284AF27ECBA4E789E589825C20EAF9CA85A512F2D25EF0D9A677C8ACE4439AA5 DUP5 PUSH2 0x9B JUMP JUMPDEST PUSH2 0x51C PUSH2 0x160 DUP9 ADD CALLDATALOAD PUSH32 0xE4484961D3051C47842253EC6D21B20F9D96B1E149B7ADF147086667501762A PUSH32 0x1819879C310188C1D0619A8BD767C3B68E40AD8DAD19141EAF8F6E512974C80A DUP5 PUSH2 0x9B JUMP JUMPDEST PUSH2 0x56D PUSH2 0x180 DUP9 ADD CALLDATALOAD PUSH32 0xE2DCB55205AC07E48864472E080D4C9B3991226CAF8FDD51FC7930928E13C6A PUSH32 0x7BA7CF25D31E1013B41F131683DDAC9BFAF31576B9A85D14CD4B2187433ED35 DUP5 PUSH2 0x9B JUMP JUMPDEST PUSH2 0x5BE PUSH2 0x1A0 DUP9 ADD CALLDATALOAD PUSH32 0xCDFED5312B8C754B04573566ED7798DB1099B612B4EB78BD5F67F539775C696 PUSH32 0xD35AE05C8DD583DACE9165E00853769870C272FB16AD7B54F9359671C6502BD DUP5 PUSH2 0x9B JUMP JUMPDEST PUSH2 0x60F PUSH2 0x1C0 DUP9 ADD CALLDATALOAD PUSH32 0x2B3DB3F28C0617FF398C7F36DFBD4B11049A28092A71CB55EB318C4DB82AAA14 PUSH32 0x253FE59F04ECE7EE1A0AE668144EFFBF2DBB727CBDDBE658E84418B0F560E84 DUP5 PUSH2 0x9B JUMP JUMPDEST PUSH2 0x660 PUSH2 0x1E0 DUP9 ADD CALLDATALOAD PUSH32 0x1C16D8D868AA3EA6CD608F167D4F5C6C5986C93E56A92FD55DFCDEBA8FD8DAFF PUSH32 0x2B42423CA1D601424C4EAFA7E22E352B8FF65B91D07DF0741EF099E292923690 DUP5 PUSH2 0x9B JUMP JUMPDEST PUSH2 0x6B1 PUSH2 0x200 DUP9 ADD CALLDATALOAD PUSH32 0x1724FE5C6130ECE5D91AFC60F008CFEDC1BDA48031F37B0655E51B4D3FCB55DC PUSH32 0xA511298C0B2FAD48B66636EC4C4ABD8B124E394F3F57E52374165F2BE2E798D DUP5 PUSH2 0x9B JUMP JUMPDEST PUSH2 0x702 PUSH2 0x220 DUP9 ADD CALLDATALOAD PUSH32 0x1B49622A17D2CE7CD9F8970C3E6927BF540F73AE91723277E34A46C3C1E26143 PUSH32 0x13CCB882E68F3F93F69CBDBF8D4A53C0E65F2A67B1CF3266E766FAAB99339362 DUP5 PUSH2 0x9B JUMP JUMPDEST PUSH2 0x753 PUSH2 0x240 DUP9 ADD CALLDATALOAD PUSH32 0x2AC2E3946EAF44410BF6426807F2F03BB229F3D068B79101817035D4BEE2607E PUSH32 0x1192F95712102B85480AE6B553565A075013EFBD69C8BA75A00AF8E7040BAD7C DUP5 PUSH2 0x9B JUMP JUMPDEST PUSH2 0x7A4 PUSH2 0x260 DUP9 ADD CALLDATALOAD PUSH32 0x24D6D7692EF5A279C267B45A1EBEAFBDAC5CF5D149B9D2AD499230614601863A PUSH32 0x93589826D4A9FA01CD2787AD9DE53A1F2C66BD0CEB32C73ACF4821772DB7827 DUP5 PUSH2 0x9B JUMP JUMPDEST PUSH2 0x7F4 PUSH2 0x280 DUP9 ADD CALLDATALOAD PUSH31 0xE9E77ABA7B780E3C3B995ECE112617BD4F5FC21589DC5D370B5215B8350545 PUSH32 0x16516E6485E441F2723274FD5815D4BD3FEEF358EFC00807CAD29D333122AADE DUP5 PUSH2 0x9B JUMP JUMPDEST PUSH2 0x845 PUSH2 0x2A0 DUP9 ADD CALLDATALOAD PUSH32 0x16800633488E4C32259A3994DA87234DA751B59EB126999AD6089B174D54B64E PUSH32 0x1906AD36F4F4865A77F6F6D664805F4AF79C41011DC740E5C109AA7134A53DA2 DUP5 PUSH2 0x9B JUMP JUMPDEST PUSH2 0x896 PUSH2 0x2C0 DUP9 ADD CALLDATALOAD PUSH32 0x1975313BA6D7E94BCDE68A410C2AEC9481A151B785341449A67E68E81CC273E1 PUSH32 0x2BFF9A90ECBFB71E99768E2422DB4E938933F5804478FCF9446B89C872FBC6AE DUP5 PUSH2 0x9B JUMP JUMPDEST PUSH2 0x8E7 PUSH2 0x2E0 DUP9 ADD CALLDATALOAD PUSH32 0x1917846FB4F25AF4C35701AD895AA98E2FDAA2DAA845494B249201E3CEBFC09 PUSH32 0x261C6DEB3A71BEA6F490C3F85A7C24F04AB621B7798F2544929E35F153BA732F DUP5 PUSH2 0x9B JUMP JUMPDEST PUSH2 0x938 PUSH2 0x300 DUP9 ADD CALLDATALOAD PUSH32 0x167A24E662B5F9A46ACB6FB47F2B4101A4EED67F442000E5DEA6248192B5C8E9 PUSH32 0x1A47DB756452ACC4403A8B52DBB05B09D362DFDC82A27DCF0AAD0D20C66A2E53 DUP5 PUSH2 0x9B JUMP JUMPDEST PUSH2 0x989 PUSH2 0x320 DUP9 ADD CALLDATALOAD PUSH32 0x24438DFDC93279F015EED63BA7246EFDBC306742EF29DDFEA1643CBD6098E108 PUSH32 0x169E0503B3C8A7DBFDEE42AB8B6C1AB9BF55BD60AF78BD0772EAB008DDD25234 DUP5 PUSH2 0x9B JUMP JUMPDEST PUSH2 0x9DA PUSH2 0x340 DUP9 ADD CALLDATALOAD PUSH32 0x1A7BA0F2473C8C54AFC869AF03239E14737543CA781BD799FF35BB9DB1CB2160 PUSH32 0x305F512A4BDAA34FD8EA8E5E00E0B2B2799F977369D27E6683693EEC0A6260F7 DUP5 PUSH2 0x9B JUMP JUMPDEST PUSH2 0xA2B PUSH2 0x360 DUP9 ADD CALLDATALOAD PUSH32 0x194A7AD2BFEB31069667040185F6996A81E80FAC39159438D8372A0B5C959171 PUSH32 0x2A4B5253AE713B0E98A5801E38F7AE932D8955A52CC4366A57E74F3E52E0E9FB DUP5 PUSH2 0x9B JUMP JUMPDEST PUSH2 0xA7C PUSH2 0x380 DUP9 ADD CALLDATALOAD PUSH32 0x95598B9FDEA3C5FC011A15077B1BA861AE2C03BCED71BA53CDDEB68A0D07000 PUSH32 0x5E03F9D408295566883698A2246D3C6E1B93FB02ABCBAF19EC58F7A815AF14F DUP5 PUSH2 0x9B JUMP JUMPDEST PUSH2 0xACD PUSH2 0x3A0 DUP9 ADD CALLDATALOAD PUSH32 0xCE37073FB33BB0D52BBB5774235B484B2C99366B1FDA53F49C90B1913365ADE PUSH32 0x124FB82ED451930AE10F441A4A210FF2C96CED6ED326402D7C5AA99A5C8EB46E DUP5 PUSH2 0x9B JUMP JUMPDEST PUSH2 0xB1E PUSH2 0x3C0 DUP9 ADD CALLDATALOAD PUSH32 0x1F2FC9C26EA673C16294C544ED25A3CDAAB9F334AC4582D119DCB44AD34953BB PUSH32 0x4C37A4F13F65F3ABE43E0FF012D56DE58BA5BDED5BF520590F444C873B8B339 DUP5 PUSH2 0x9B JUMP JUMPDEST PUSH2 0xB6F PUSH2 0x3E0 DUP9 ADD CALLDATALOAD PUSH32 0x1A41C0FE0D539304AF2CFA0D68CA67819B9D151504CE7EA750B27E3D874B1798 PUSH32 0x89C3FAC27C07A7FCEA2E22D620030344A61E1784C3F069AA94A0F7B9FCFE569 DUP5 PUSH2 0x9B JUMP JUMPDEST PUSH2 0xBBF PUSH2 0x400 DUP9 ADD CALLDATALOAD PUSH32 0x1B202CBEB83C9CFA4932A313BF2C7E5D4DA857F454A6D0A86A481FDAF8D403CA PUSH31 0x1F13CB9DB0E7B70418799ED260E400E4691DE97C80E7CCF06E5538F9DFD655 DUP5 PUSH2 0x9B JUMP JUMPDEST PUSH2 0xC10 PUSH2 0x420 DUP9 ADD CALLDATALOAD PUSH32 0x2E5282FC8040F0CDD66E03ADEF04737E97B9981E7EAB083975C62167C2A73D2F PUSH32 0x196C6A134FE4F86F0EE1FCD4250BA9F71DED76F0223000BD6B36ADD8F415F696 DUP5 PUSH2 0x9B JUMP JUMPDEST PUSH2 0xC60 PUSH2 0x440 DUP9 ADD CALLDATALOAD PUSH32 0x1843950A405B8BCF9BD06DD30466B66BE4F76E51BEA40DC74AA582E9EC72B215 PUSH31 0x9E6458F61CFE50D7B8615B0B5144461E4BF10B2F5C69F19A65CE274CCB24FC DUP5 PUSH2 0x9B JUMP JUMPDEST PUSH2 0xCB1 PUSH2 0x460 DUP9 ADD CALLDATALOAD PUSH32 0x1A60FF643EFD830F771873537ABA7F2F0B83EE729D887F698BA9B79F55D82194 PUSH32 0x18BF908F154380D5894AFD15BA8A0ADBC9B1A99D049E132C26F479D724F1D242 DUP5 PUSH2 0x9B JUMP JUMPDEST PUSH2 0xD02 PUSH2 0x480 DUP9 ADD CALLDATALOAD PUSH32 0x28C70664B7F9998ED838B70088D7CD196DF326B4F552BBEF8B55D5C44AB2A676 PUSH32 0x2F584A6AF3B55C7EABF2D52021D15277A1D4AA447799C84E979240F2F6F39A5B DUP5 PUSH2 0x9B JUMP JUMPDEST PUSH2 0xD53 PUSH2 0x4A0 DUP9 ADD CALLDATALOAD PUSH32 0x231D39DCFB4389C2BD0A2D31B36B22831681496A99A89388CF6C6EDAC84EB077 PUSH32 0x9EC1E4F9E443E59E13C7223DCFB2C42055D31E364240B9E68130EBDE06AB07E DUP5 PUSH2 0x9B JUMP JUMPDEST PUSH2 0xDA4 PUSH2 0x4C0 DUP9 ADD CALLDATALOAD PUSH32 0x1FECF8E7A6A8F92879ADE076FD0DFC0FE8ABFCEBC45FBB99151C47F45E5C4B84 PUSH32 0x7479CD537BB9C0F7D175EE544FA4D50AA1497A77A4AA2ED57839B8C64852E13 DUP5 PUSH2 0x9B JUMP JUMPDEST PUSH2 0xDF5 PUSH2 0x4E0 DUP9 ADD CALLDATALOAD PUSH32 0x59FB17D46B6079D0FCB8F8DEE8BE04B63471744F77C6908DFCF7D6878DB09FD PUSH32 0x7B0B5BA6AA97E9A9A32BCAA197F7A4E174ABD9AE012876E3F69A92DF93FAC5C DUP5 PUSH2 0x9B JUMP JUMPDEST PUSH2 0xE46 PUSH2 0x500 DUP9 ADD CALLDATALOAD PUSH32 0x31A59D76804D90AFAAF5A2FA740C05C0FC8DFE211CA9B936DA23DE072FF707C PUSH32 0x1895AE7D8E537B7B53A44EDCD10AB13A6A0E1773967878C87312C6E8F68FFD18 DUP5 PUSH2 0x9B JUMP JUMPDEST PUSH2 0xE97 PUSH2 0x520 DUP9 ADD CALLDATALOAD PUSH32 0x1A57EDAA754DC21BB1A7B07EF11E09A3FAB14D5244E22D1A59951B8DDC08F286 PUSH32 0x38693C31FD3E910D469D269828FFC90A40449FA5E5B8495AC503020DB805887 DUP5 PUSH2 0x9B JUMP JUMPDEST PUSH2 0xEE7 PUSH2 0x540 DUP9 ADD CALLDATALOAD PUSH32 0x183BEACB1F7A2BDDDAAD7E3590A380011C511839BA81C6D2ABE892284B2AB423 PUSH31 0x12D7DAC81EB792E1ACF9E1E28C92D4C33632DB88DA1BB71357F3013D0B04DE DUP5 PUSH2 0x9B JUMP JUMPDEST PUSH2 0xF38 PUSH2 0x560 DUP9 ADD CALLDATALOAD PUSH32 0x9C1DEE97783DF074609EE37AF0068ADBED0895BFC180354446EA1CBE11B0BA2 PUSH32 0x275AC0D2832ACFFA2EDFFE5164D0D0778C4DC8EC5D38F28788FEDE51116E7F20 DUP5 PUSH2 0x9B JUMP JUMPDEST PUSH2 0xF89 PUSH2 0x580 DUP9 ADD CALLDATALOAD PUSH32 0x11F7622EA5B9190E61EE771683FE164DF747F96A946BEA74B2E366616DD082E8 PUSH32 0x1E9481DC517F39993639D3FE7E990C4851A2E58A081836B02F2C04D76145B0A6 DUP5 PUSH2 0x9B JUMP JUMPDEST PUSH2 0xFDA PUSH2 0x5A0 DUP9 ADD CALLDATALOAD PUSH32 0x144762ED6B8B6FAAFCD55C6228CBBDCC22068E978F7597F3D5C0525B0F00A582 PUSH32 0x2A847D2D499743E8CFA86FD55B160AD3320D88FAF231227DA31650114C4695CD DUP5 PUSH2 0x9B JUMP JUMPDEST PUSH2 0x102B PUSH2 0x5C0 DUP9 ADD CALLDATALOAD PUSH32 0x17572D34D9241E9CCFCD664305A1F08525F9FE1F84F46173C4BCEE7240D8A992 PUSH32 0x8F23616472BD340DF2333D87F637076A4ECA72A78C822FCDBCA5791884FA039 DUP5 PUSH2 0x9B JUMP JUMPDEST PUSH2 0x107C PUSH2 0x5E0 DUP9 ADD CALLDATALOAD PUSH32 0x17D5FC88FAEDAAADADDCCF83AD0D5FA00DE7C5A3F7834364872530A75E34EA6B PUSH32 0x1F63BB1EC0FDD4E61C150A13AAA2276E411E6D551CD9634768056CA50F7C761D DUP5 PUSH2 0x9B JUMP JUMPDEST PUSH2 0x10CD PUSH2 0x600 DUP9 ADD CALLDATALOAD PUSH32 0x22C6FE4A54963C4D7BA0A362E551798823860678D694905338219537BE787FE8 PUSH32 0x150FB3F5EC7C5019DEA1A2C9027F965489D5340C8F1CDBD3E67A14ED8E7AE387 DUP5 PUSH2 0x9B JUMP JUMPDEST PUSH2 0x111E PUSH2 0x620 DUP9 ADD CALLDATALOAD PUSH32 0x1176A7B4564E96E59FA39615C01069B75A62D9232829A1D3A074778B17BE04EA PUSH32 0xE4F66C47206A7D0AB7ABBE0A54AFD14966653AE98CC291BEC31818649B4F1FC DUP5 PUSH2 0x9B JUMP JUMPDEST PUSH2 0x116F PUSH2 0x640 DUP9 ADD CALLDATALOAD PUSH32 0x1D0AB3859C4709BC267BB17C47C8D07C9EE1E52CE70AB284F1E522A0C0D3F770 PUSH32 0x1C6331FDF5A4F3C94C1E983F59C3445A730EB7C68412342BE0246B11BB60808 DUP5 PUSH2 0x9B JUMP JUMPDEST PUSH2 0x11C0 PUSH2 0x660 DUP9 ADD CALLDATALOAD PUSH32 0x16BAF8FF2ABAC9EE505A66D08694893382461D07BADCCA920B5F2F29B7FEFB82 PUSH32 0x2E95C07703A5F460E928A8616CC0A32C81529E55DD9F5FE65F5EF369A1550028 DUP5 PUSH2 0x9B JUMP JUMPDEST PUSH2 0x1211 PUSH2 0x680 DUP9 ADD CALLDATALOAD PUSH32 0x1AE3FFE045E71BAB68E45395D0DD33C16AA694856366D2C3EFB08326992E784A PUSH32 0x2124EA3390B77A98D884960BD8302AF458C5C54C41BA847B700C10DC30BD8D9E DUP5 PUSH2 0x9B JUMP JUMPDEST PUSH2 0x1262 PUSH2 0x6A0 DUP9 ADD CALLDATALOAD PUSH32 0x30619D39980D6D6B921D1F1405C7DDCE12725E91A50AC303CE99CD8FF08F5216 PUSH32 0x299A7B8A330CEF6E468A801B954CB37924CA4723310FFD6963A1BFBE2E406A0 DUP5 PUSH2 0x9B JUMP JUMPDEST PUSH2 0x12B3 PUSH2 0x6C0 DUP9 ADD CALLDATALOAD PUSH32 0x170291AA0CFB0507145E693D13ABDF27E05C9003FB3A9D77DA14AAF507151399 PUSH32 0xC8D041EDB7E2B8E0E8B80D9E6196038925E58599806180BF76518CF2DF2E30E DUP5 PUSH2 0x9B JUMP JUMPDEST PUSH2 0x1304 PUSH2 0x6E0 DUP9 ADD CALLDATALOAD PUSH32 0x36DC82087A0262F32C85DC97460339F9744577AEECFB1F274713A1F5D29526E PUSH32 0x25498E1C46FFA3FA6A929A4247D7A7B7A828B8EBED033032F21323F6ABD000CB DUP5 PUSH2 0x9B JUMP JUMPDEST PUSH2 0x1354 PUSH2 0x700 DUP9 ADD CALLDATALOAD PUSH32 0xD7B5314623E0C62DCB152AEBC638033DEC8E40F14CFFF7A410EC2B3BCCF19D6 PUSH31 0xD8CDA8916791B9F177D0F51C80BB10FE7F2A255BC3172BA3B9A0BF89BF28AB DUP5 PUSH2 0x9B JUMP JUMPDEST PUSH2 0x13A4 PUSH2 0x720 DUP9 ADD CALLDATALOAD PUSH32 0x1628BA10A58DEF433AD881DE923D294E61135C334DDA3CE35EB93D246419DD99 PUSH31 0x903E8EDB16BC683BE05B78295E7E992D0A17E80B5596A23FBF854610100FAB DUP5 PUSH2 0x9B JUMP JUMPDEST PUSH2 0x13F5 PUSH2 0x740 DUP9 ADD CALLDATALOAD PUSH32 0x2B00EA3AECFB874FF172535EFB6EE86DE565B2A0CA28FE7FE00732217AADF045 PUSH32 0x213336B3779AE3D1983709188EC8B5A1C39855A93A9936695CC7C286CD4106C9 DUP5 PUSH2 0x9B JUMP JUMPDEST PUSH2 0x1445 PUSH2 0x760 DUP9 ADD CALLDATALOAD PUSH32 0x17D4148E13FFF5AA7ACEB0EC873FA6E532D040DD15D835A5B5AD0E3331718652 PUSH31 0xF950FEB3AA6B3FBD8C3B75A743B5F6C08F05103EE8405F650A85F0B0E63EBC DUP5 PUSH2 0x9B JUMP JUMPDEST PUSH2 0x1496 PUSH2 0x780 DUP9 ADD CALLDATALOAD PUSH32 0x2075186E3CA2462A8E981D7D97EDFD1081FA702DB090427F4C6F38BFA6AAB6F1 PUSH32 0x777C5239D5DEFCEF8FD9F3952A90CFB22611020C99E527021A8CB56DA3164DA DUP5 PUSH2 0x9B JUMP JUMPDEST PUSH2 0x14E7 PUSH2 0x7A0 DUP9 ADD CALLDATALOAD PUSH32 0x44FE0D2B1B5A1D2501DF98228CEF51453D403C110C3527CFBC2225CFA5B820D PUSH32 0x550805B27F8B9B80B2E8114F0F21ACF8976404F8B7C2932729584495D1EC128 DUP5 PUSH2 0x9B JUMP JUMPDEST PUSH2 0x1538 PUSH2 0x7C0 DUP9 ADD CALLDATALOAD PUSH32 0x8395EFF070DFF2EBCF904FEAFDBD9AE403C7A27148FC8A93E844F18F3C2EC2D PUSH32 0x2835DC1AF0B63D402F85FFCB8B9AB5255D9234E01E9B98530117E0EB3401D405 DUP5 PUSH2 0x9B JUMP JUMPDEST PUSH2 0x1589 PUSH2 0x7E0 DUP9 ADD CALLDATALOAD PUSH32 0x110C912DC0A5A81530BBAE71326A75F9EB03332942DA0EF7001FD2FB542B1F26 PUSH32 0x100BEBE0E39ABF09C941C19B329F07F6F807F2B34B05EC91C49F12CBEADB2056 DUP5 PUSH2 0x9B JUMP JUMPDEST PUSH2 0x15DA PUSH2 0x800 DUP9 ADD CALLDATALOAD PUSH32 0x2190364B77F7EEC4872E374A3AFA97786E285F7882D8064211216876B83701E4 PUSH32 0x2319F139FB74E08C6BD30C1E8C635C82193F71312DAFA2B22A11365274A1E75 DUP5 PUSH2 0x9B JUMP JUMPDEST PUSH2 0x162B PUSH2 0x820 DUP9 ADD CALLDATALOAD PUSH32 0x19C7932BAECFF900EB2225F85904553AD3F07E7F42A678C381514512E72929B1 PUSH32 0x2AF2BED2BF45EF363E226A86A6B8D933575E5A22B13B17C4F4F4CF13A42EE071 DUP5 PUSH2 0x9B JUMP JUMPDEST PUSH2 0x167C PUSH2 0x840 DUP9 ADD CALLDATALOAD PUSH32 0x34253AF444114EDC0B1BF235192328F3C252935E2F94B2406A397CF8867DB37 PUSH32 0x28CD43CB15BF0F0E2D5291A93CD7BD95146B709716579587AE049738EE51C038 DUP5 PUSH2 0x9B JUMP JUMPDEST PUSH2 0x16CD PUSH2 0x860 DUP9 ADD CALLDATALOAD PUSH32 0x2946E3BFBAD6ED54BC86D00200A63334D5284985D073C1261F3BD261F86415E6 PUSH32 0x202CCDCEA178BFD57A7A1410C39296F3672BE03E4BEC7FEA0C2EFD5BF85E8F31 DUP5 PUSH2 0x9B JUMP JUMPDEST PUSH2 0x171E PUSH2 0x880 DUP9 ADD CALLDATALOAD PUSH32 0x10156FEC9E0BB58C1F485C056D2F207C30A6977D661CC9DFE5F0E6931A077131 PUSH32 0x2636549E44BB79823C81CBF82BD2AB8D084F6E61342AA1A3DF4A40AEC7B4FC62 DUP5 PUSH2 0x9B JUMP JUMPDEST PUSH2 0x176F PUSH2 0x8A0 DUP9 ADD CALLDATALOAD PUSH32 0x1416AF715851B64BB763F23C898E556F3BA4ED16B4918ED1E246BEF75C8D8BE2 PUSH32 0x1CB2214ED940F01FF2AA41C674B208DBE8320D7B4F7DE08F96E87CEE9C69E72 DUP5 PUSH2 0x9B JUMP JUMPDEST PUSH2 0x17C0 PUSH2 0x8C0 DUP9 ADD CALLDATALOAD PUSH32 0x283B81BCD354D8D0F16EECE8B93A8B863A2534B3FA4B7CF8B33A5B88B0F0EC35 PUSH32 0x23692B44492DDCBC53F85736F5BEFFA94206EBE801C892C6461BFB418284E0E2 DUP5 PUSH2 0x9B JUMP JUMPDEST PUSH2 0x1811 PUSH2 0x8E0 DUP9 ADD CALLDATALOAD PUSH32 0x1F9001B206726C69882F937956A4094528FB83654FFB9E32BD4A6CF9DEAB0D74 PUSH32 0x11024C1D1D50B5005F7FF29A7D68CE6F8F08CAB9573B7A03F970F88BBA280039 DUP5 PUSH2 0x9B JUMP JUMPDEST PUSH2 0x1862 PUSH2 0x900 DUP9 ADD CALLDATALOAD PUSH32 0x2C1E6330888CABF9CCB696F3F721444E60449A8063EE312F4690B16A4C331B2D PUSH32 0x1E5DA07FDCB167F420589AD3F39C9317A1F179DFA5964F7C5E27B05D96D41D48 DUP5 PUSH2 0x9B JUMP JUMPDEST PUSH2 0x18B3 PUSH2 0x920 DUP9 ADD CALLDATALOAD PUSH32 0x4F83F014BAFCFB23599BE384A041E7003D3B9CD99AD1BD14DE939A00F64310B PUSH32 0x2005C18717F3C3AD698679BD215F5505B6B9C7132E664BDF382DFDB30E066CE8 DUP5 PUSH2 0x9B JUMP JUMPDEST PUSH2 0x1904 PUSH2 0x940 DUP9 ADD CALLDATALOAD PUSH32 0x232355B5575BE4C47BF2519BF62475D367353B8EFA5B6B2437BAE5CC6A6A9F61 PUSH32 0x26B60FB5B89FE5CAED90F355ABB66F3D125AAF117215D92FEEB69FF52E28A1ED DUP5 PUSH2 0x9B JUMP JUMPDEST PUSH2 0x1955 PUSH2 0x960 DUP9 ADD CALLDATALOAD PUSH32 0x2D21CCDB040DF673C20AD37A1BAA59E80AC10357AC5B4E43CF479ACE460E645A PUSH32 0x21B7446A5125716641970160B9C94D1EEAB7D7BC249315D27DB8B99CC23D00AF DUP5 PUSH2 0x9B JUMP JUMPDEST PUSH2 0x19A6 PUSH2 0x980 DUP9 ADD CALLDATALOAD PUSH32 0x29DCA094C35F373A140166B73B02110DAD65613BD17129ED6B5021A876E46D91 PUSH32 0x1C6B63EEC29948A6BECCA8D8A7D9DA3190A820F4958286100E80636F9F288E1C DUP5 PUSH2 0x9B JUMP JUMPDEST PUSH2 0x19F7 PUSH2 0x9A0 DUP9 ADD CALLDATALOAD PUSH32 0x1B64FD983E687C099F0876F558A2B6BD955642096B62FB78B62F1412E387CCFA PUSH32 0x6F489AAF26938CE153C8565622FF2CEFDBBF0B1277654C42EE86CA1CBB1F337 DUP5 PUSH2 0x9B JUMP JUMPDEST DUP4 CALLDATALOAD DUP3 MSTORE PUSH32 0x30644E72E131A029B85045B68181585D97816A916871CA8D3C208C16D87CFD47 PUSH1 0x20 DUP6 ADD CALLDATALOAD PUSH32 0x30644E72E131A029B85045B68181585D97816A916871CA8D3C208C16D87CFD47 SUB MOD PUSH1 0x20 DUP4 ADD MSTORE DUP5 CALLDATALOAD PUSH1 0x40 DUP4 ADD MSTORE PUSH1 0x20 DUP6 ADD CALLDATALOAD PUSH1 0x60 DUP4 ADD MSTORE PUSH1 0x40 DUP6 ADD CALLDATALOAD PUSH1 0x80 DUP4 ADD MSTORE PUSH1 0x60 DUP6 ADD CALLDATALOAD PUSH1 0xA0 DUP4 ADD MSTORE PUSH32 0x2D4D9AA7E302D9DF41749D5507949D05DBEA33FBB16C643B22F599A2BE6DF2E2 PUSH1 0xC0 DUP4 ADD MSTORE PUSH32 0x14BEDD503C37CEB061D8EC60209FE345CE89830A19230301F076CAFF004D1926 PUSH1 0xE0 DUP4 ADD MSTORE PUSH32 0x967032FCBF776D1AFC985F88877F182D38480A653F2DECAA9794CBC3BF3060C PUSH2 0x100 DUP4 ADD MSTORE PUSH32 0xE187847AD4C798374D0D6732BF501847DD68BC0E071241E0213BC7FC13DB7AB PUSH2 0x120 DUP4 ADD MSTORE PUSH32 0x304CFBD1E08A704A99F5E847D93F8C3CAAFDDEC46B7A0D379DA69A4D112346A7 PUSH2 0x140 DUP4 ADD MSTORE PUSH32 0x1739C1B1A457A8C7313123D24D2F9192F896B7C63EEA05A9D57F06547AD0CEC8 PUSH2 0x160 DUP4 ADD MSTORE PUSH1 0x0 DUP9 ADD MLOAD PUSH2 0x180 DUP4 ADD MSTORE PUSH1 0x20 PUSH1 0x0 ADD DUP9 ADD MLOAD PUSH2 0x1A0 DUP4 ADD MSTORE PUSH32 0x198E9393920D483A7260BFB731FB5D25F1AA493335A9E71297E485B7AEF312C2 PUSH2 0x1C0 DUP4 ADD MSTORE PUSH32 0x1800DEEF121F1E76426A00665E5C4479674322D4F75EDADD46DEBD5CD992F6ED PUSH2 0x1E0 DUP4 ADD MSTORE PUSH32 0x90689D0585FF075EC9E99AD690C3395BC4B313370B38EF355ACDADCD122975B PUSH2 0x200 DUP4 ADD MSTORE PUSH32 0x12C85EA5DB8C6DEB4AAB71808DCB408FE3D1E7690C43D37B4CE6CC0166FA7DAA PUSH2 0x220 DUP4 ADD MSTORE DUP6 CALLDATALOAD PUSH2 0x240 DUP4 ADD MSTORE PUSH1 0x20 DUP7 ADD CALLDATALOAD PUSH2 0x260 DUP4 ADD MSTORE PUSH32 0x198E9393920D483A7260BFB731FB5D25F1AA493335A9E71297E485B7AEF312C2 PUSH2 0x280 DUP4 ADD MSTORE PUSH32 0x1800DEEF121F1E76426A00665E5C4479674322D4F75EDADD46DEBD5CD992F6ED PUSH2 0x2A0 DUP4 ADD MSTORE PUSH32 0x90689D0585FF075EC9E99AD690C3395BC4B313370B38EF355ACDADCD122975B PUSH2 0x2C0 DUP4 ADD MSTORE PUSH32 0x12C85EA5DB8C6DEB4AAB71808DCB408FE3D1E7690C43D37B4CE6CC0166FA7DAA PUSH2 0x2E0 DUP4 ADD MSTORE PUSH1 0x20 DUP3 PUSH2 0x300 DUP5 PUSH1 0x8 PUSH2 0x7D0 GAS SUB STATICCALL DUP3 MLOAD DUP2 AND SWAP4 POP POP POP POP SWAP6 SWAP5 POP POP POP POP POP JUMP JUMPDEST PUSH1 0x40 MLOAD PUSH2 0x380 DUP2 ADD PUSH1 0x40 MSTORE PUSH2 0x1CF3 PUSH1 0x0 DUP5 ADD CALLDATALOAD PUSH2 0x67 JUMP JUMPDEST PUSH2 0x1D00 PUSH1 0x20 DUP5 ADD CALLDATALOAD PUSH2 0x67 JUMP JUMPDEST PUSH2 0x1D0D PUSH1 0x40 DUP5 ADD CALLDATALOAD PUSH2 0x67 JUMP JUMPDEST PUSH2 0x1D1A PUSH1 0x60 DUP5 ADD CALLDATALOAD PUSH2 0x67 JUMP JUMPDEST PUSH2 0x1D27 PUSH1 0x80 DUP5 ADD CALLDATALOAD PUSH2 0x67 JUMP JUMPDEST PUSH2 0x1D34 PUSH1 0xA0 DUP5 ADD CALLDATALOAD PUSH2 0x67 JUMP JUMPDEST PUSH2 0x1D41 PUSH1 0xC0 DUP5 ADD CALLDATALOAD PUSH2 0x67 JUMP JUMPDEST PUSH2 0x1D4E PUSH1 0xE0 DUP5 ADD CALLDATALOAD PUSH2 0x67 JUMP JUMPDEST PUSH2 0x1D5C PUSH2 0x100 DUP5 ADD CALLDATALOAD PUSH2 0x67 JUMP JUMPDEST PUSH2 0x1D6A PUSH2 0x120 DUP5 ADD CALLDATALOAD PUSH2 0x67 JUMP JUMPDEST PUSH2 0x1D78 PUSH2 0x140 DUP5 ADD CALLDATALOAD PUSH2 0x67 JUMP JUMPDEST PUSH2 0x1D86 PUSH2 0x160 DUP5 ADD CALLDATALOAD PUSH2 0x67 JUMP JUMPDEST PUSH2 0x1D94 PUSH2 0x180 DUP5 ADD CALLDATALOAD PUSH2 0x67 JUMP JUMPDEST PUSH2 0x1DA2 PUSH2 0x1A0 DUP5 ADD CALLDATALOAD PUSH2 0x67 JUMP JUMPDEST PUSH2 0x1DB0 PUSH2 0x1C0 DUP5 ADD CALLDATALOAD PUSH2 0x67 JUMP JUMPDEST PUSH2 0x1DBE PUSH2 0x1E0 DUP5 ADD CALLDATALOAD PUSH2 0x67 JUMP JUMPDEST PUSH2 0x1DCC PUSH2 0x200 DUP5 ADD CALLDATALOAD PUSH2 0x67 JUMP JUMPDEST PUSH2 0x1DDA PUSH2 0x220 DUP5 ADD CALLDATALOAD PUSH2 0x67 JUMP JUMPDEST PUSH2 0x1DE8 PUSH2 0x240 DUP5 ADD CALLDATALOAD PUSH2 0x67 JUMP JUMPDEST PUSH2 0x1DF6 PUSH2 0x260 DUP5 ADD CALLDATALOAD PUSH2 0x67 JUMP JUMPDEST PUSH2 0x1E04 PUSH2 0x280 DUP5 ADD CALLDATALOAD PUSH2 0x67 JUMP JUMPDEST PUSH2 0x1E12 PUSH2 0x2A0 DUP5 ADD CALLDATALOAD PUSH2 0x67 JUMP JUMPDEST PUSH2 0x1E20 PUSH2 0x2C0 DUP5 ADD CALLDATALOAD PUSH2 0x67 JUMP JUMPDEST PUSH2 0x1E2E PUSH2 0x2E0 DUP5 ADD CALLDATALOAD PUSH2 0x67 JUMP JUMPDEST PUSH2 0x1E3C PUSH2 0x300 DUP5 ADD CALLDATALOAD PUSH2 0x67 JUMP JUMPDEST PUSH2 0x1E4A PUSH2 0x320 DUP5 ADD CALLDATALOAD PUSH2 0x67 JUMP JUMPDEST PUSH2 0x1E58 PUSH2 0x340 DUP5 ADD CALLDATALOAD PUSH2 0x67 JUMP JUMPDEST PUSH2 0x1E66 PUSH2 0x360 DUP5 ADD CALLDATALOAD PUSH2 0x67 JUMP JUMPDEST PUSH2 0x1E74 PUSH2 0x380 DUP5 ADD CALLDATALOAD PUSH2 0x67 JUMP JUMPDEST PUSH2 0x1E82 PUSH2 0x3A0 DUP5 ADD CALLDATALOAD PUSH2 0x67 JUMP JUMPDEST PUSH2 0x1E90 PUSH2 0x3C0 DUP5 ADD CALLDATALOAD PUSH2 0x67 JUMP JUMPDEST PUSH2 0x1E9E PUSH2 0x3E0 DUP5 ADD CALLDATALOAD PUSH2 0x67 JUMP JUMPDEST PUSH2 0x1EAC PUSH2 0x400 DUP5 ADD CALLDATALOAD PUSH2 0x67 JUMP JUMPDEST PUSH2 0x1EBA PUSH2 0x420 DUP5 ADD CALLDATALOAD PUSH2 0x67 JUMP JUMPDEST PUSH2 0x1EC8 PUSH2 0x440 DUP5 ADD CALLDATALOAD PUSH2 0x67 JUMP JUMPDEST PUSH2 0x1ED6 PUSH2 0x460 DUP5 ADD CALLDATALOAD PUSH2 0x67 JUMP JUMPDEST PUSH2 0x1EE4 PUSH2 0x480 DUP5 ADD CALLDATALOAD PUSH2 0x67 JUMP JUMPDEST PUSH2 0x1EF2 PUSH2 0x4A0 DUP5 ADD CALLDATALOAD PUSH2 0x67 JUMP JUMPDEST PUSH2 0x1F00 PUSH2 0x4C0 DUP5 ADD CALLDATALOAD PUSH2 0x67 JUMP JUMPDEST PUSH2 0x1F0E PUSH2 0x4E0 DUP5 ADD CALLDATALOAD PUSH2 0x67 JUMP JUMPDEST PUSH2 0x1F1C PUSH2 0x500 DUP5 ADD CALLDATALOAD PUSH2 0x67 JUMP JUMPDEST PUSH2 0x1F2A PUSH2 0x520 DUP5 ADD CALLDATALOAD PUSH2 0x67 JUMP JUMPDEST PUSH2 0x1F38 PUSH2 0x540 DUP5 ADD CALLDATALOAD PUSH2 0x67 JUMP JUMPDEST PUSH2 0x1F46 PUSH2 0x560 DUP5 ADD CALLDATALOAD PUSH2 0x67 JUMP JUMPDEST PUSH2 0x1F54 PUSH2 0x580 DUP5 ADD CALLDATALOAD PUSH2 0x67 JUMP JUMPDEST PUSH2 0x1F62 PUSH2 0x5A0 DUP5 ADD CALLDATALOAD PUSH2 0x67 JUMP JUMPDEST PUSH2 0x1F70 PUSH2 0x5C0 DUP5 ADD CALLDATALOAD PUSH2 0x67 JUMP JUMPDEST PUSH2 0x1F7E PUSH2 0x5E0 DUP5 ADD CALLDATALOAD PUSH2 0x67 JUMP JUMPDEST PUSH2 0x1F8C PUSH2 0x600 DUP5 ADD CALLDATALOAD PUSH2 0x67 JUMP JUMPDEST PUSH2 0x1F9A PUSH2 0x620 DUP5 ADD CALLDATALOAD PUSH2 0x67 JUMP JUMPDEST PUSH2 0x1FA8 PUSH2 0x640 DUP5 ADD CALLDATALOAD PUSH2 0x67 JUMP JUMPDEST PUSH2 0x1FB6 PUSH2 0x660 DUP5 ADD CALLDATALOAD PUSH2 0x67 JUMP JUMPDEST PUSH2 0x1FC4 PUSH2 0x680 DUP5 ADD CALLDATALOAD PUSH2 0x67 JUMP JUMPDEST PUSH2 0x1FD2 PUSH2 0x6A0 DUP5 ADD CALLDATALOAD PUSH2 0x67 JUMP JUMPDEST PUSH2 0x1FE0 PUSH2 0x6C0 DUP5 ADD CALLDATALOAD PUSH2 0x67 JUMP JUMPDEST PUSH2 0x1FEE PUSH2 0x6E0 DUP5 ADD CALLDATALOAD PUSH2 0x67 JUMP JUMPDEST PUSH2 0x1FFC PUSH2 0x700 DUP5 ADD CALLDATALOAD PUSH2 0x67 JUMP JUMPDEST PUSH2 0x200A PUSH2 0x720 DUP5 ADD CALLDATALOAD PUSH2 0x67 JUMP JUMPDEST PUSH2 0x2018 PUSH2 0x740 DUP5 ADD CALLDATALOAD PUSH2 0x67 JUMP JUMPDEST PUSH2 0x2026 PUSH2 0x760 DUP5 ADD CALLDATALOAD PUSH2 0x67 JUMP JUMPDEST PUSH2 0x2034 PUSH2 0x780 DUP5 ADD CALLDATALOAD PUSH2 0x67 JUMP JUMPDEST PUSH2 0x2042 PUSH2 0x7A0 DUP5 ADD CALLDATALOAD PUSH2 0x67 JUMP JUMPDEST PUSH2 0x2050 PUSH2 0x7C0 DUP5 ADD CALLDATALOAD PUSH2 0x67 JUMP JUMPDEST PUSH2 0x205E PUSH2 0x7E0 DUP5 ADD CALLDATALOAD PUSH2 0x67 JUMP JUMPDEST PUSH2 0x206C PUSH2 0x800 DUP5 ADD CALLDATALOAD PUSH2 0x67 JUMP JUMPDEST PUSH2 0x207A PUSH2 0x820 DUP5 ADD CALLDATALOAD PUSH2 0x67 JUMP JUMPDEST PUSH2 0x2088 PUSH2 0x840 DUP5 ADD CALLDATALOAD PUSH2 0x67 JUMP JUMPDEST PUSH2 0x2096 PUSH2 0x860 DUP5 ADD CALLDATALOAD PUSH2 0x67 JUMP JUMPDEST PUSH2 0x20A4 PUSH2 0x880 DUP5 ADD CALLDATALOAD PUSH2 0x67 JUMP JUMPDEST PUSH2 0x20B2 PUSH2 0x8A0 DUP5 ADD CALLDATALOAD PUSH2 0x67 JUMP JUMPDEST PUSH2 0x20C0 PUSH2 0x8C0 DUP5 ADD CALLDATALOAD PUSH2 0x67 JUMP JUMPDEST PUSH2 0x20CE PUSH2 0x8E0 DUP5 ADD CALLDATALOAD PUSH2 0x67 JUMP JUMPDEST PUSH2 0x20DC PUSH2 0x900 DUP5 ADD CALLDATALOAD PUSH2 0x67 JUMP JUMPDEST PUSH2 0x20EA PUSH2 0x920 DUP5 ADD CALLDATALOAD PUSH2 0x67 JUMP JUMPDEST PUSH2 0x20F8 PUSH2 0x940 DUP5 ADD CALLDATALOAD PUSH2 0x67 JUMP JUMPDEST PUSH2 0x2106 PUSH2 0x960 DUP5 ADD CALLDATALOAD PUSH2 0x67 JUMP JUMPDEST PUSH2 0x2114 PUSH2 0x980 DUP5 ADD CALLDATALOAD PUSH2 0x67 JUMP JUMPDEST PUSH2 0x2122 PUSH2 0x9A0 DUP5 ADD CALLDATALOAD PUSH2 0x67 JUMP JUMPDEST PUSH2 0x2130 PUSH2 0x9C0 DUP5 ADD CALLDATALOAD PUSH2 0x67 JUMP JUMPDEST PUSH2 0x213D DUP2 DUP5 DUP7 DUP9 DUP11 PUSH2 0x106 JUMP JUMPDEST DUP1 PUSH1 0x0 MSTORE PUSH1 0x20 PUSH1 0x0 RETURN JUMPDEST PUSH1 0x0 DUP2 SWAP1 POP DUP3 PUSH1 0x40 PUSH1 0x2 MUL DUP3 ADD GT ISZERO PUSH2 0x215F JUMPI PUSH1 0x0 DUP1 REVERT JUMPDEST SWAP3 SWAP2 POP POP JUMP JUMPDEST PUSH1 0x0 DUP2 SWAP1 POP DUP3 PUSH1 0x20 PUSH1 0x2 MUL DUP3 ADD GT ISZERO PUSH2 0x217D JUMPI PUSH1 0x0 DUP1 REVERT JUMPDEST SWAP3 SWAP2 POP POP JUMP JUMPDEST PUSH1 0x0 DUP2 SWAP1 POP DUP3 PUSH1 0x20 PUSH1 0x4E MUL DUP3 ADD GT ISZERO PUSH2 0x219B JUMPI PUSH1 0x0 DUP1 REVERT JUMPDEST SWAP3 SWAP2 POP POP JUMP JUMPDEST PUSH1 0x0 DUP1 PUSH1 0x0 DUP1 PUSH2 0xAC0 DUP6 DUP8 SUB SLT ISZERO PUSH2 0x21B8 JUMPI PUSH1 0x0 DUP1 REVERT JUMPDEST PUSH1 0x0 PUSH2 0x21C6 DUP8 DUP3 DUP9 ADD PUSH2 0x2165 JUMP JUMPDEST SWAP5 POP POP PUSH1 0x40 PUSH2 0x21D7 DUP8 DUP3 DUP9 ADD PUSH2 0x2147 JUMP JUMPDEST SWAP4 POP POP PUSH1 0xC0 PUSH2 0x21E8 DUP8 DUP3 DUP9 ADD PUSH2 0x2165 JUMP JUMPDEST SWAP3 POP POP PUSH2 0x100 PUSH2 0x21FA DUP8 DUP3 DUP9 ADD PUSH2 0x2183 JUMP JUMPDEST SWAP2 POP POP SWAP3 SWAP6 SWAP2 SWAP5 POP SWAP3 POP JUMP JUMPDEST PUSH2 0x220F DUP2 PUSH2 0x2230 JUMP JUMPDEST DUP3 MSTORE POP POP JUMP JUMPDEST PUSH1 0x0 PUSH1 0x20 DUP3 ADD SWAP1 POP PUSH2 0x222A PUSH1 0x0 DUP4 ADD DUP5 PUSH2 0x2206 JUMP JUMPDEST SWAP3 SWAP2 POP POP JUMP JUMPDEST PUSH1 0x0 DUP2 ISZERO ISZERO SWAP1 POP SWAP2 SWAP1 POP JUMP INVALID LOG2 PUSH5 0x6970667358 0x22 SLT KECCAK256 0xCC PUSH10 0xF67BDA035EE83441DAA6 0xD0 TIMESTAMP 0x2B CALL 0x4B 0x4A PUSH11 0x142A40C0327748A126534C 0xB1 0xB1 PUSH5 0x736F6C6343 STOP ADDMOD STOP STOP CALLER "},"methodIdentifiers":{"verifyProof(uint256[2],uint256[2][2],uint256[2],uint256[78])":"670b74d9"}}}}}