{
  "_format": "hh-sol-artifact-1",
  "contractName": "ValidatorSetChangeVerifier",
  "sourceName": "contracts/gear_verifier.sol",
  "abi": [
    {
      "inputs": [
        {
          "internalType": "uint256[68]",
          "name": "_circuitDigestAndMerkleRoots",
          "type": "uint256[68]"
        },
        {
          "internalType": "uint256[5]",
          "name": "_validatorSet",
          "type": "uint256[5]"
        }
      ],
      "stateMutability": "nonpayable",
      "type": "constructor"
    },
    {
      "anonymous": false,
      "inputs": [
        {
          "indexed": false,
          "internalType": "uint256[5]",
          "name": "",
          "type": "uint256[5]"
        }
      ],
      "name": "SuccessfulVerification",
      "type": "event"
    },
    {
      "anonymous": false,
      "inputs": [
        {
          "indexed": false,
          "internalType": "uint256[5]",
          "name": "",
          "type": "uint256[5]"
        }
      ],
      "name": "VerificationFailed",
      "type": "event"
    },
    {
      "inputs": [],
      "name": "getValidatorSet",
      "outputs": [
        {
          "internalType": "uint256[5][]",
          "name": "",
          "type": "uint256[5][]"
        }
      ],
      "stateMutability": "view",
      "type": "function"
    },
    {
      "inputs": [],
      "name": "getVerified",
      "outputs": [
        {
          "internalType": "bool",
          "name": "",
          "type": "bool"
        }
      ],
      "stateMutability": "view",
      "type": "function"
    },
    {
      "inputs": [],
      "name": "nonceId",
      "outputs": [
        {
          "internalType": "uint256",
          "name": "",
          "type": "uint256"
        }
      ],
      "stateMutability": "view",
      "type": "function"
    },
    {
      "inputs": [
        {
          "internalType": "uint256",
          "name": "",
          "type": "uint256"
        }
      ],
      "name": "publicInputs",
      "outputs": [
        {
          "internalType": "uint256",
          "name": "",
          "type": "uint256"
        }
      ],
      "stateMutability": "view",
      "type": "function"
    },
    {
      "inputs": [
        {
          "internalType": "uint256",
          "name": "",
          "type": "uint256"
        },
        {
          "internalType": "uint256",
          "name": "",
          "type": "uint256"
        }
      ],
      "name": "validatorSet",
      "outputs": [
        {
          "internalType": "uint256",
          "name": "",
          "type": "uint256"
        }
      ],
      "stateMutability": "view",
      "type": "function"
    },
    {
      "inputs": [],
      "name": "verified",
      "outputs": [
        {
          "internalType": "bool",
          "name": "",
          "type": "bool"
        }
      ],
      "stateMutability": "view",
      "type": "function"
    },
    {
      "inputs": [
        {
          "internalType": "uint256[2]",
          "name": "_pA",
          "type": "uint256[2]"
        },
        {
          "internalType": "uint256[2][2]",
          "name": "_pB",
          "type": "uint256[2][2]"
        },
        {
          "internalType": "uint256[2]",
          "name": "_pC",
          "type": "uint256[2]"
        },
        {
          "internalType": "uint256[78]",
          "name": "_pubSignals",
          "type": "uint256[78]"
        }
      ],
      "name": "verifyProof",
      "outputs": [
        {
          "internalType": "bool",
          "name": "",
          "type": "bool"
        }
      ],
      "stateMutability": "view",
      "type": "function"
    },
    {
      "inputs": [
        {
          "internalType": "uint256[2]",
          "name": "_pA",
          "type": "uint256[2]"
        },
        {
          "internalType": "uint256[2][2]",
          "name": "_pB",
          "type": "uint256[2][2]"
        },
        {
          "internalType": "uint256[2]",
          "name": "_pC",
          "type": "uint256[2]"
        },
        {
          "internalType": "uint256[5]",
          "name": "nextValidatorSet",
          "type": "uint256[5]"
        }
      ],
      "name": "verifyValidatorSetChangeProof",
      "outputs": [],
      "stateMutability": "nonpayable",
      "type": "function"
    }
  ],
  "bytecode": "0x60806040523480156200001157600080fd5b50604051620033a6380380620033a683398181016040528101906200003791906200029f565b8160009060446200004a929190620000b3565b50604e81908060018154018082558091505060019003906000526020600020906005020160009091909190915090600562000087929190620000f8565b506000604f819055506000605060006101000a81548160ff0219169083151502179055505050620003bb565b82604e8101928215620000e5579160200282015b82811115620000e4578251825591602001919060010190620000c7565b5b509050620000f491906200013d565b5090565b82600581019282156200012a579160200282015b82811115620001295782518255916020019190600101906200010c565b5b5090506200013991906200013d565b5090565b5b80821115620001585760008160009055506001016200013e565b5090565b6000620001736200016d8462000316565b620002e2565b905080828560208602820111156200018a57600080fd5b60005b85811015620001be5781620001a3888262000288565b8452602084019350602083019250506001810190506200018d565b5050509392505050565b6000620001df620001d9846200033f565b620002e2565b90508082856020860282011115620001f657600080fd5b60005b858110156200022a57816200020f888262000288565b845260208401935060208301925050600181019050620001f9565b5050509392505050565b600082601f8301126200024657600080fd5b6005620002558482856200015c565b91505092915050565b600082601f8301126200027057600080fd5b60446200027f848285620001c8565b91505092915050565b6000815190506200029981620003a1565b92915050565b6000806109208385031215620002b457600080fd5b6000620002c4858286016200025e565b925050610880620002d88582860162000234565b9150509250929050565b6000604051905081810181811067ffffffffffffffff821117156200030c576200030b62000372565b5b8060405250919050565b600067ffffffffffffffff82111562000334576200033362000372565b5b602082029050919050565b600067ffffffffffffffff8211156200035d576200035c62000372565b5b602082029050919050565b6000819050919050565b7f4e487b7100000000000000000000000000000000000000000000000000000000600052604160045260246000fd5b620003ac8162000368565b8114620003b857600080fd5b50565b612fdb80620003cb6000396000f3fe608060405234801561001057600080fd5b50600436106100885760003560e01c806388e356251161005b57806388e3562514610129578063bbb82d8914610159578063cf33125014610177578063f7b00e7f1461019557610088565b80630c0869931461008d578063406e6709146100ab578063670b74d9146100c95780636ae659ee146100f9575b600080fd5b6100956101b1565b6040516100a29190612cdd565b60405180910390f35b6100b36101b7565b6040516100c09190612cc2565b60405180910390f35b6100e360048036038101906100de91906128ec565b6101ce565b6040516100f09190612cc2565b60405180910390f35b610113600480360381019061010e919061297a565b6122b5565b6040516101209190612cdd565b60405180910390f35b610143600480360381019061013e91906129a3565b6122d0565b6040516101509190612cdd565b60405180910390f35b610161612308565b60405161016e9190612cc2565b60405180910390f35b61017f61231b565b60405161018c9190612c3e565b60405180910390f35b6101af60048036038101906101aa9190612887565b6123ab565b005b604f5481565b6000605060009054906101000a900460ff16905090565b6000611e49565b7f30644e72e131a029b85045b68181585d97816a916871ca8d3c208c16d87cfd478110610206576000805260206000f35b50565b600060405183815284602082015285604082015260408160608360076107d05a03fa91508161023c576000805260206000f35b825160408201526020830151606082015260408360808360066107d05a03fa91508161026c576000805260206000f35b505050505050565b600060808601600087017f1c120abf71acffb842722798d31398bf3d41fd2075c3225bb9249c22b7e282e081527f0c464e77fdc625282237ce3c15a9153ae8c55a747decb9586a96839ee44f3e93602082015261031760008801357f2154b55578b74cc493806f1b45fc3956f9aa81c90f89bbd6d867abc0b755dd3f7f14e1f157baf1bb42a6fb9a011020532b6732d454274acacd3e9b121cb19835ee84610209565b61036760208801357f0bd0ddf508a61d4e6965a9830775e93a585617ed0e17ffaab7b35bded7df78bd7f1c48d8b8c581986550152dbdfa0d64f022dbbce88f6bc8551fad3bb429e2d5ef84610209565b6103b760408801357f15753f111d03f3b9524bac0441103d8c96c1ef81ac85f10637b58999191125c87f036fbbebe9b6e9882415b43ace9674e06dfa4b8eae27bee32ba4a68702153e5d84610209565b61040760608801357f1380736fe5b19359980256e4d233e4e4b5adbcc85ab392dc329ffd0c64ad38a87f0dc2cdb797ec67b1f7471fd0ca3fdbc91f6a0e1bc4883b63163e4f1ee7f75c0184610209565b61045760808801357f299e0354f2164ffccefac816e9c430675fb6faac702d10ed3df452346f89c1767f17c6ddb10c97cb565027cd7747d31493072b5f7ac9855d599ac36b3dc747f5aa84610209565b6104a760a08801357f0b9358588f0118ed5b2825993722947f9e65e408a10b408216a255cbfa0058c57f2299ebb2cc2900223b76138b80c37e506590f12ef56aec9995d6e6905875926e84610209565b6104f760c08801357f090d0b302bc7650e74fa82786e1892fa5350086987e72942eb77c2682b3514fe7f2b6dbe6e2dde989cfe5692fadc2e46a0384156965ce1e9afcacc8c31f02d9df184610209565b61054660e08801357edab53df2eeb9bdeaa768ed5c01f5e0c9339f65faf37aff69dfc70f77a388c77f04a95f1c73000c62d4d1494f4d2b31ec0e21d42ed419f8cbc223737d1ca610db84610209565b6105976101008801357f16ec2701baabc399ab7c26c52ea92a69de71ab7f0ebac0c56697c5719dfd7f477f1f42a71c24b0efcc6b0bc0e5ea73c53764cbba73024860346ea045625e96842f84610209565b6105e86101208801357f2afb0c72162ff1d158577a85c0088ae2c93d8a2e37970ef13016ca2a96ef32057f1d3f40b128c7dabaf6a9ac4c213d5caf54031b282ae4da66b82886a780270afa84610209565b6106396101408801357f08a15a517a99f2dd9dbec5f9bf4f846ab4367305da537170a2f252d8e1b652037f284af27ecba4e789e589825c20eaf9ca85a512f2d25ef0d9a677c8ace4439aa584610209565b61068a6101608801357f0e4484961d3051c47842253ec6d21b20f9d96b1e149b7adf147086667501762a7f1819879c310188c1d0619a8bd767c3b68e40ad8dad19141eaf8f6e512974c80a84610209565b6106db6101808801357f0e2dcb55205ac07e48864472e080d4c9b3991226caf8fdd51fc7930928e13c6a7f07ba7cf25d31e1013b41f131683ddac9bfaf31576b9a85d14cd4b2187433ed3584610209565b61072c6101a08801357f0cdfed5312b8c754b04573566ed7798db1099b612b4eb78bd5f67f539775c6967f0d35ae05c8dd583dace9165e00853769870c272fb16ad7b54f9359671c6502bd84610209565b61077d6101c08801357f2b3db3f28c0617ff398c7f36dfbd4b11049a28092a71cb55eb318c4db82aaa147f0253fe59f04ece7ee1a0ae668144effbf2dbb727cbddbe658e84418b0f560e8484610209565b6107ce6101e08801357f1c16d8d868aa3ea6cd608f167d4f5c6c5986c93e56a92fd55dfcdeba8fd8daff7f2b42423ca1d601424c4eafa7e22e352b8ff65b91d07df0741ef099e29292369084610209565b61081f6102008801357f1724fe5c6130ece5d91afc60f008cfedc1bda48031f37b0655e51b4d3fcb55dc7f0a511298c0b2fad48b66636ec4c4abd8b124e394f3f57e52374165f2be2e798d84610209565b6108706102208801357f1b49622a17d2ce7cd9f8970c3e6927bf540f73ae91723277e34a46c3c1e261437f13ccb882e68f3f93f69cbdbf8d4a53c0e65f2a67b1cf3266e766faab9933936284610209565b6108c16102408801357f2ac2e3946eaf44410bf6426807f2f03bb229f3d068b79101817035d4bee2607e7f1192f95712102b85480ae6b553565a075013efbd69c8ba75a00af8e7040bad7c84610209565b6109126102608801357f24d6d7692ef5a279c267b45a1ebeafbdac5cf5d149b9d2ad499230614601863a7f093589826d4a9fa01cd2787ad9de53a1f2c66bd0ceb32c73acf4821772db782784610209565b6109626102808801357ee9e77aba7b780e3c3b995ece112617bd4f5fc21589dc5d370b5215b83505457f16516e6485e441f2723274fd5815d4bd3feef358efc00807cad29d333122aade84610209565b6109b36102a08801357f16800633488e4c32259a3994da87234da751b59eb126999ad6089b174d54b64e7f1906ad36f4f4865a77f6f6d664805f4af79c41011dc740e5c109aa7134a53da284610209565b610a046102c08801357f1975313ba6d7e94bcde68a410c2aec9481a151b785341449a67e68e81cc273e17f2bff9a90ecbfb71e99768e2422db4e938933f5804478fcf9446b89c872fbc6ae84610209565b610a556102e08801357f01917846fb4f25af4c35701ad895aa98e2fdaa2daa845494b249201e3cebfc097f261c6deb3a71bea6f490c3f85a7c24f04ab621b7798f2544929e35f153ba732f84610209565b610aa66103008801357f167a24e662b5f9a46acb6fb47f2b4101a4eed67f442000e5dea6248192b5c8e97f1a47db756452acc4403a8b52dbb05b09d362dfdc82a27dcf0aad0d20c66a2e5384610209565b610af76103208801357f24438dfdc93279f015eed63ba7246efdbc306742ef29ddfea1643cbd6098e1087f169e0503b3c8a7dbfdee42ab8b6c1ab9bf55bd60af78bd0772eab008ddd2523484610209565b610b486103408801357f1a7ba0f2473c8c54afc869af03239e14737543ca781bd799ff35bb9db1cb21607f305f512a4bdaa34fd8ea8e5e00e0b2b2799f977369d27e6683693eec0a6260f784610209565b610b996103608801357f194a7ad2bfeb31069667040185f6996a81e80fac39159438d8372a0b5c9591717f2a4b5253ae713b0e98a5801e38f7ae932d8955a52cc4366a57e74f3e52e0e9fb84610209565b610bea6103808801357f095598b9fdea3c5fc011a15077b1ba861ae2c03bced71ba53cddeb68a0d070007f05e03f9d408295566883698a2246d3c6e1b93fb02abcbaf19ec58f7a815af14f84610209565b610c3b6103a08801357f0ce37073fb33bb0d52bbb5774235b484b2c99366b1fda53f49c90b1913365ade7f124fb82ed451930ae10f441a4a210ff2c96ced6ed326402d7c5aa99a5c8eb46e84610209565b610c8c6103c08801357f1f2fc9c26ea673c16294c544ed25a3cdaab9f334ac4582d119dcb44ad34953bb7f04c37a4f13f65f3abe43e0ff012d56de58ba5bded5bf520590f444c873b8b33984610209565b610cdd6103e08801357f1a41c0fe0d539304af2cfa0d68ca67819b9d151504ce7ea750b27e3d874b17987f089c3fac27c07a7fcea2e22d620030344a61e1784c3f069aa94a0f7b9fcfe56984610209565b610d2d6104008801357f1b202cbeb83c9cfa4932a313bf2c7e5d4da857f454a6d0a86a481fdaf8d403ca7e1f13cb9db0e7b70418799ed260e400e4691de97c80e7ccf06e5538f9dfd65584610209565b610d7e6104208801357f2e5282fc8040f0cdd66e03adef04737e97b9981e7eab083975c62167c2a73d2f7f196c6a134fe4f86f0ee1fcd4250ba9f71ded76f0223000bd6b36add8f415f69684610209565b610dce6104408801357f1843950a405b8bcf9bd06dd30466b66be4f76e51bea40dc74aa582e9ec72b2157e9e6458f61cfe50d7b8615b0b5144461e4bf10b2f5c69f19a65ce274ccb24fc84610209565b610e1f6104608801357f1a60ff643efd830f771873537aba7f2f0b83ee729d887f698ba9b79f55d821947f18bf908f154380d5894afd15ba8a0adbc9b1a99d049e132c26f479d724f1d24284610209565b610e706104808801357f28c70664b7f9998ed838b70088d7cd196df326b4f552bbef8b55d5c44ab2a6767f2f584a6af3b55c7eabf2d52021d15277a1d4aa447799c84e979240f2f6f39a5b84610209565b610ec16104a08801357f231d39dcfb4389c2bd0a2d31b36b22831681496a99a89388cf6c6edac84eb0777f09ec1e4f9e443e59e13c7223dcfb2c42055d31e364240b9e68130ebde06ab07e84610209565b610f126104c08801357f1fecf8e7a6a8f92879ade076fd0dfc0fe8abfcebc45fbb99151c47f45e5c4b847f07479cd537bb9c0f7d175ee544fa4d50aa1497a77a4aa2ed57839b8c64852e1384610209565b610f636104e08801357f059fb17d46b6079d0fcb8f8dee8be04b63471744f77c6908dfcf7d6878db09fd7f07b0b5ba6aa97e9a9a32bcaa197f7a4e174abd9ae012876e3f69a92df93fac5c84610209565b610fb46105008801357f031a59d76804d90afaaf5a2fa740c05c0fc8dfe211ca9b936da23de072ff707c7f1895ae7d8e537b7b53a44edcd10ab13a6a0e1773967878c87312c6e8f68ffd1884610209565b6110056105208801357f1a57edaa754dc21bb1a7b07ef11e09a3fab14d5244e22d1a59951b8ddc08f2867f038693c31fd3e910d469d269828ffc90a40449fa5e5b8495ac503020db80588784610209565b6110556105408801357f183beacb1f7a2bdddaad7e3590a380011c511839ba81c6d2abe892284b2ab4237e12d7dac81eb792e1acf9e1e28c92d4c33632db88da1bb71357f3013d0b04de84610209565b6110a66105608801357f09c1dee97783df074609ee37af0068adbed0895bfc180354446ea1cbe11b0ba27f275ac0d2832acffa2edffe5164d0d0778c4dc8ec5d38f28788fede51116e7f2084610209565b6110f76105808801357f11f7622ea5b9190e61ee771683fe164df747f96a946bea74b2e366616dd082e87f1e9481dc517f39993639d3fe7e990c4851a2e58a081836b02f2c04d76145b0a684610209565b6111486105a08801357f144762ed6b8b6faafcd55c6228cbbdcc22068e978f7597f3d5c0525b0f00a5827f2a847d2d499743e8cfa86fd55b160ad3320d88faf231227da31650114c4695cd84610209565b6111996105c08801357f17572d34d9241e9ccfcd664305a1f08525f9fe1f84f46173c4bcee7240d8a9927f08f23616472bd340df2333d87f637076a4eca72a78c822fcdbca5791884fa03984610209565b6111ea6105e08801357f17d5fc88faedaaadaddccf83ad0d5fa00de7c5a3f7834364872530a75e34ea6b7f1f63bb1ec0fdd4e61c150a13aaa2276e411e6d551cd9634768056ca50f7c761d84610209565b61123b6106008801357f22c6fe4a54963c4d7ba0a362e551798823860678d694905338219537be787fe87f150fb3f5ec7c5019dea1a2c9027f965489d5340c8f1cdbd3e67a14ed8e7ae38784610209565b61128c6106208801357f1176a7b4564e96e59fa39615c01069b75a62d9232829a1d3a074778b17be04ea7f0e4f66c47206a7d0ab7abbe0a54afd14966653ae98cc291bec31818649b4f1fc84610209565b6112dd6106408801357f1d0ab3859c4709bc267bb17c47c8d07c9ee1e52ce70ab284f1e522a0c0d3f7707f01c6331fdf5a4f3c94c1e983f59c3445a730eb7c68412342be0246b11bb6080884610209565b61132e6106608801357f16baf8ff2abac9ee505a66d08694893382461d07badcca920b5f2f29b7fefb827f2e95c07703a5f460e928a8616cc0a32c81529e55dd9f5fe65f5ef369a155002884610209565b61137f6106808801357f1ae3ffe045e71bab68e45395d0dd33c16aa694856366d2c3efb08326992e784a7f2124ea3390b77a98d884960bd8302af458c5c54c41ba847b700c10dc30bd8d9e84610209565b6113d06106a08801357f30619d39980d6d6b921d1f1405c7ddce12725e91a50ac303ce99cd8ff08f52167f0299a7b8a330cef6e468a801b954cb37924ca4723310ffd6963a1bfbe2e406a084610209565b6114216106c08801357f170291aa0cfb0507145e693d13abdf27e05c9003fb3a9d77da14aaf5071513997f0c8d041edb7e2b8e0e8b80d9e6196038925e58599806180bf76518cf2df2e30e84610209565b6114726106e08801357f036dc82087a0262f32c85dc97460339f9744577aeecfb1f274713a1f5d29526e7f25498e1c46ffa3fa6a929a4247d7a7b7a828b8ebed033032f21323f6abd000cb84610209565b6114c26107008801357f0d7b5314623e0c62dcb152aebc638033dec8e40f14cfff7a410ec2b3bccf19d67ed8cda8916791b9f177d0f51c80bb10fe7f2a255bc3172ba3b9a0bf89bf28ab84610209565b6115126107208801357f1628ba10a58def433ad881de923d294e61135c334dda3ce35eb93d246419dd997e903e8edb16bc683be05b78295e7e992d0a17e80b5596a23fbf854610100fab84610209565b6115636107408801357f2b00ea3aecfb874ff172535efb6ee86de565b2a0ca28fe7fe00732217aadf0457f213336b3779ae3d1983709188ec8b5a1c39855a93a9936695cc7c286cd4106c984610209565b6115b36107608801357f17d4148e13fff5aa7aceb0ec873fa6e532d040dd15d835a5b5ad0e33317186527ef950feb3aa6b3fbd8c3b75a743b5f6c08f05103ee8405f650a85f0b0e63ebc84610209565b6116046107808801357f2075186e3ca2462a8e981d7d97edfd1081fa702db090427f4c6f38bfa6aab6f17f0777c5239d5defcef8fd9f3952a90cfb22611020c99e527021a8cb56da3164da84610209565b6116556107a08801357f044fe0d2b1b5a1d2501df98228cef51453d403c110c3527cfbc2225cfa5b820d7f0550805b27f8b9b80b2e8114f0f21acf8976404f8b7c2932729584495d1ec12884610209565b6116a66107c08801357f08395eff070dff2ebcf904feafdbd9ae403c7a27148fc8a93e844f18f3c2ec2d7f2835dc1af0b63d402f85ffcb8b9ab5255d9234e01e9b98530117e0eb3401d40584610209565b6116f76107e08801357f110c912dc0a5a81530bbae71326a75f9eb03332942da0ef7001fd2fb542b1f267f100bebe0e39abf09c941c19b329f07f6f807f2b34b05ec91c49f12cbeadb205684610209565b6117486108008801357f2190364b77f7eec4872e374a3afa97786e285f7882d8064211216876b83701e47f02319f139fb74e08c6bd30c1e8c635c82193f71312dafa2b22a11365274a1e7584610209565b6117996108208801357f19c7932baecff900eb2225f85904553ad3f07e7f42a678c381514512e72929b17f2af2bed2bf45ef363e226a86a6b8d933575e5a22b13b17c4f4f4cf13a42ee07184610209565b6117ea6108408801357f034253af444114edc0b1bf235192328f3c252935e2f94b2406a397cf8867db377f28cd43cb15bf0f0e2d5291a93cd7bd95146b709716579587ae049738ee51c03884610209565b61183b6108608801357f2946e3bfbad6ed54bc86d00200a63334d5284985d073c1261f3bd261f86415e67f202ccdcea178bfd57a7a1410c39296f3672be03e4bec7fea0c2efd5bf85e8f3184610209565b61188c6108808801357f10156fec9e0bb58c1f485c056d2f207c30a6977d661cc9dfe5f0e6931a0771317f2636549e44bb79823c81cbf82bd2ab8d084f6e61342aa1a3df4a40aec7b4fc6284610209565b6118dd6108a08801357f1416af715851b64bb763f23c898e556f3ba4ed16b4918ed1e246bef75c8d8be27f01cb2214ed940f01ff2aa41c674b208dbe8320d7b4f7de08f96e87cee9c69e7284610209565b61192e6108c08801357f283b81bcd354d8d0f16eece8b93a8b863a2534b3fa4b7cf8b33a5b88b0f0ec357f23692b44492ddcbc53f85736f5beffa94206ebe801c892c6461bfb418284e0e284610209565b61197f6108e08801357f1f9001b206726c69882f937956a4094528fb83654ffb9e32bd4a6cf9deab0d747f11024c1d1d50b5005f7ff29a7d68ce6f8f08cab9573b7a03f970f88bba28003984610209565b6119d06109008801357f2c1e6330888cabf9ccb696f3f721444e60449a8063ee312f4690b16a4c331b2d7f1e5da07fdcb167f420589ad3f39c9317a1f179dfa5964f7c5e27b05d96d41d4884610209565b611a216109208801357f04f83f014bafcfb23599be384a041e7003d3b9cd99ad1bd14de939a00f64310b7f2005c18717f3c3ad698679bd215f5505b6b9c7132e664bdf382dfdb30e066ce884610209565b611a726109408801357f232355b5575be4c47bf2519bf62475d367353b8efa5b6b2437bae5cc6a6a9f617f26b60fb5b89fe5caed90f355abb66f3d125aaf117215d92feeb69ff52e28a1ed84610209565b611ac36109608801357f2d21ccdb040df673c20ad37a1baa59e80ac10357ac5b4e43cf479ace460e645a7f21b7446a5125716641970160b9c94d1eeab7d7bc249315d27db8b99cc23d00af84610209565b611b146109808801357f29dca094c35f373a140166b73b02110dad65613bd17129ed6b5021a876e46d917f1c6b63eec29948a6becca8d8a7d9da3190a820f4958286100e80636f9f288e1c84610209565b611b656109a08801357f1b64fd983e687c099f0876f558a2b6bd955642096b62fb78b62f1412e387ccfa7f06f489aaf26938ce153c8565622ff2cefdbbf0b1277654c42ee86ca1cbb1f33784610209565b833582527f30644e72e131a029b85045b68181585d97816a916871ca8d3c208c16d87cfd4760208501357f30644e72e131a029b85045b68181585d97816a916871ca8d3c208c16d87cfd4703066020830152843560408301526020850135606083015260408501356080830152606085013560a08301527f2d4d9aa7e302d9df41749d5507949d05dbea33fbb16c643b22f599a2be6df2e260c08301527f14bedd503c37ceb061d8ec60209fe345ce89830a19230301f076caff004d192660e08301527f0967032fcbf776d1afc985f88877f182d38480a653f2decaa9794cbc3bf3060c6101008301527f0e187847ad4c798374d0d6732bf501847dd68bc0e071241e0213bc7fc13db7ab6101208301527f304cfbd1e08a704a99f5e847d93f8c3caafddec46b7a0d379da69a4d112346a76101408301527f1739c1b1a457a8c7313123d24d2f9192f896b7c63eea05a9d57f06547ad0cec8610160830152600088015161018083015260206000018801516101a08301527f198e9393920d483a7260bfb731fb5d25f1aa493335a9e71297e485b7aef312c26101c08301527f1800deef121f1e76426a00665e5c4479674322d4f75edadd46debd5cd992f6ed6101e08301527f090689d0585ff075ec9e99ad690c3395bc4b313370b38ef355acdadcd122975b6102008301527f12c85ea5db8c6deb4aab71808dcb408fe3d1e7690c43d37b4ce6cc0166fa7daa610220830152853561024083015260208601356102608301527f198e9393920d483a7260bfb731fb5d25f1aa493335a9e71297e485b7aef312c26102808301527f1800deef121f1e76426a00665e5c4479674322d4f75edadd46debd5cd992f6ed6102a08301527f090689d0585ff075ec9e99ad690c3395bc4b313370b38ef355acdadcd122975b6102c08301527f12c85ea5db8c6deb4aab71808dcb408fe3d1e7690c43d37b4ce6cc0166fa7daa6102e08301526020826103008460086107d05a03fa82518116935050505095945050505050565b6040516103808101604052611e6160008401356101d5565b611e6e60208401356101d5565b611e7b60408401356101d5565b611e8860608401356101d5565b611e9560808401356101d5565b611ea260a08401356101d5565b611eaf60c08401356101d5565b611ebc60e08401356101d5565b611eca6101008401356101d5565b611ed86101208401356101d5565b611ee66101408401356101d5565b611ef46101608401356101d5565b611f026101808401356101d5565b611f106101a08401356101d5565b611f1e6101c08401356101d5565b611f2c6101e08401356101d5565b611f3a6102008401356101d5565b611f486102208401356101d5565b611f566102408401356101d5565b611f646102608401356101d5565b611f726102808401356101d5565b611f806102a08401356101d5565b611f8e6102c08401356101d5565b611f9c6102e08401356101d5565b611faa6103008401356101d5565b611fb86103208401356101d5565b611fc66103408401356101d5565b611fd46103608401356101d5565b611fe26103808401356101d5565b611ff06103a08401356101d5565b611ffe6103c08401356101d5565b61200c6103e08401356101d5565b61201a6104008401356101d5565b6120286104208401356101d5565b6120366104408401356101d5565b6120446104608401356101d5565b6120526104808401356101d5565b6120606104a08401356101d5565b61206e6104c08401356101d5565b61207c6104e08401356101d5565b61208a6105008401356101d5565b6120986105208401356101d5565b6120a66105408401356101d5565b6120b46105608401356101d5565b6120c26105808401356101d5565b6120d06105a08401356101d5565b6120de6105c08401356101d5565b6120ec6105e08401356101d5565b6120fa6106008401356101d5565b6121086106208401356101d5565b6121166106408401356101d5565b6121246106608401356101d5565b6121326106808401356101d5565b6121406106a08401356101d5565b61214e6106c08401356101d5565b61215c6106e08401356101d5565b61216a6107008401356101d5565b6121786107208401356101d5565b6121866107408401356101d5565b6121946107608401356101d5565b6121a26107808401356101d5565b6121b06107a08401356101d5565b6121be6107c08401356101d5565b6121cc6107e08401356101d5565b6121da6108008401356101d5565b6121e86108208401356101d5565b6121f66108408401356101d5565b6122046108608401356101d5565b6122126108808401356101d5565b6122206108a08401356101d5565b61222e6108c08401356101d5565b61223c6108e08401356101d5565b61224a6109008401356101d5565b6122586109208401356101d5565b6122666109408401356101d5565b6122746109608401356101d5565b6122826109808401356101d5565b6122906109a08401356101d5565b61229e6109c08401356101d5565b6122ab818486888a610274565b8060005260206000f35b600081604e81106122c557600080fd5b016000915090505481565b604e82815481106122e057600080fd5b906000526020600020906005020181600581106122fc57600080fd5b01600091509150505481565b605060009054906101000a900460ff1681565b6060604e805480602002602001604051908101604052809291908181526020016000905b828210156123a2578382906000526020600020906005020160058060200260405190810160405280929190826005801561238e576020028201915b81548152602001906001019080831161237a575b50505050508152602001906001019061233f565b50505050905090565b6123b4816125d2565b600084848460006040516024016123ce9493929190612c60565b6040516020818303038152906040527f670b74d9000000000000000000000000000000000000000000000000000000007bffffffffffffffffffffffffffffffffffffffffffffffffffffffff19166020820180517bffffffffffffffffffffffffffffffffffffffffffffffffffffffff838183161783525050505090506000803073ffffffffffffffffffffffffffffffffffffffff16836040516124759190612c27565b6000604051808303816000865af19150503d80600081146124b2576040519150601f19603f3d011682016040523d82523d6000602084013e6124b7565b606091505b50915091506000818060200190518101906124d29190612951565b90508280156124de5750805b15612575576001605060006101000a81548160ff021916908315150217905550604e859080600181540180825580915050600190039060005260206000209060050201600090919091909150906005612538929190612788565b507f07258bd3df1839ac83ef07de0002ad7fc79fa3aaf88ad0d8297ab9bf7d64fe4d856040516125689190612ca7565b60405180910390a16125c8565b6000605060006101000a81548160ff0219169083151502179055507f4aea6ab617ea80a05e762695a7b3a336702ccce3f8a425b08f96759aa278920e856040516125bf9190612ca7565b60405180910390a15b5050505050505050565b60006001604e805490506125e69190612e2f565b90506000604e8281548110612624577f4e487b7100000000000000000000000000000000000000000000000000000000600052603260045260246000fd5b9060005260206000209060050201905060005b60058110156126d957818160058110612679577f4e487b7100000000000000000000000000000000000000000000000000000000600052603260045260246000fd5b0154600082604461268a9190612dd9565b604e81106126c1577f4e487b7100000000000000000000000000000000000000000000000000000000600052603260045260246000fd5b018190555080806126d190612edf565b915050612637565b5060005b60058110156127825783816005811061271f577f4e487b7100000000000000000000000000000000000000000000000000000000600052603260045260246000fd5b602002013560008260496127339190612dd9565b604e811061276a577f4e487b7100000000000000000000000000000000000000000000000000000000600052603260045260246000fd5b0181905550808061277a90612edf565b9150506126dd565b50505050565b82600581019282156127b7579160200282015b828111156127b657823582559160200191906001019061279b565b5b5090506127c491906127c8565b5090565b5b808211156127e15760008160009055506001016127c9565b5090565b6000819050826040600202820111156127fd57600080fd5b92915050565b60008190508260206002028201111561281b57600080fd5b92915050565b60008190508260206005028201111561283957600080fd5b92915050565b6000819050826020604e028201111561285757600080fd5b92915050565b60008151905061286c81612f77565b92915050565b60008135905061288181612f8e565b92915050565b6000806000806101a0858703121561289e57600080fd5b60006128ac87828801612803565b94505060406128bd878288016127e5565b93505060c06128ce87828801612803565b9250506101006128e087828801612821565b91505092959194509250565b600080600080610ac0858703121561290357600080fd5b600061291187828801612803565b9450506040612922878288016127e5565b93505060c061293387828801612803565b9250506101006129458782880161283f565b91505092959194509250565b60006020828403121561296357600080fd5b60006129718482850161285d565b91505092915050565b60006020828403121561298c57600080fd5b600061299a84828501612872565b91505092915050565b600080604083850312156129b657600080fd5b60006129c485828601612872565b92505060206129d585828601612872565b9150509250929050565b60006129eb8383612ae4565b60408301905092915050565b6000612a038383612b14565b60a08301905092915050565b6000612a1b8383612c09565b60208301905092915050565b612a3081612d26565b612a3a8184612d91565b9250612a4582612cf8565b8060005b83811015612a7e57612a5b8284612dce565b612a6587826129df565b9650612a7083612d5d565b925050600181019050612a49565b505050505050565b6000612a9182612d31565b612a9b8185612d9c565b9350612aa683612d02565b8060005b83811015612ad7578151612abe88826129f7565b9750612ac983612d6a565b925050600181019050612aaa565b5085935050505092915050565b612af060408383612e83565b5050565b612b0060408383612e83565b5050565b612b1060a08383612e83565b5050565b612b1d81612d3c565b612b278184612dad565b9250612b3282612d12565b8060005b83811015612b63578151612b4a8782612a0f565b9650612b5583612d77565b925050600181019050612b36565b505050505050565b612b7481612d47565b612b7e8184612db8565b9250612b8982612d1c565b8060005b83811015612bc157612b9e82612f57565b612ba88782612a0f565b9650612bb383612d84565b925050600181019050612b8d565b505050505050565b612bd281612e6d565b82525050565b6000612be382612d52565b612bed8185612dc3565b9350612bfd818560208601612e92565b80840191505092915050565b612c1281612e79565b82525050565b612c2181612e79565b82525050565b6000612c338284612bd8565b915081905092915050565b60006020820190508181036000830152612c588184612a86565b905092915050565b6000610ac082019050612c766000830187612af4565b612c836040830186612a27565b612c9060c0830185612af4565b612c9e610100830184612b6b565b95945050505050565b600060a082019050612cbc6000830184612b04565b92915050565b6000602082019050612cd76000830184612bc9565b92915050565b6000602082019050612cf26000830184612c18565b92915050565b6000819050919050565b6000819050602082019050919050565b6000819050919050565b6000819050919050565b600060029050919050565b600081519050919050565b600060059050919050565b6000604e9050919050565b600081519050919050565b6000604082019050919050565b6000602082019050919050565b6000602082019050919050565b6000600182019050919050565b600081905092915050565b600082825260208201905092915050565b600081905092915050565b600081905092915050565b600081905092915050565b600082905092915050565b6000612de482612e79565b9150612def83612e79565b9250827fffffffffffffffffffffffffffffffffffffffffffffffffffffffffffffffff03821115612e2457612e23612f28565b5b828201905092915050565b6000612e3a82612e79565b9150612e4583612e79565b925082821015612e5857612e57612f28565b5b828203905092915050565b6000819050919050565b60008115159050919050565b6000819050919050565b82818337600083830152505050565b60005b83811015612eb0578082015181840152602081019050612e95565b83811115612ebf576000848401525b50505050565b6000612ed8612ed383612f6a565b612e63565b9050919050565b6000612eea82612e79565b91507fffffffffffffffffffffffffffffffffffffffffffffffffffffffffffffffff821415612f1d57612f1c612f28565b5b600182019050919050565b7f4e487b7100000000000000000000000000000000000000000000000000000000600052601160045260246000fd5b6000612f638254612ec5565b9050919050565b60008160001c9050919050565b612f8081612e6d565b8114612f8b57600080fd5b50565b612f9781612e79565b8114612fa257600080fd5b5056fea264697066735822122010dba5f5d74161dae7844403d31279eb2ea9598ecb4d053e8e7bc2c742b2aa6064736f6c63430008000033",
  "linkReferences": {},
  "deployedLinkReferences": {}
}