{"abi":[{"type":"constructor","inputs":[{"name":"message_queue","type":"address","internalType":"address"},{"name":"vft_manager","type":"bytes32","internalType":"bytes32"}],"stateMutability":"nonpayable"},{"type":"function","name":"getTokenSupplyType","inputs":[{"name":"token","type":"address","internalType":"address"}],"outputs":[{"name":"","type":"uint8","internalType":"enum IERC20Manager.SupplyType"}],"stateMutability":"view"},{"type":"function","name":"processVaraMessage","inputs":[{"name":"sender","type":"bytes32","internalType":"bytes32"},{"name":"payload","type":"bytes","internalType":"bytes"}],"outputs":[{"name":"","type":"bool","internalType":"bool"}],"stateMutability":"nonpayable"},{"type":"function","name":"requestBridging","inputs":[{"name":"token","type":"address","internalType":"address"},{"name":"amount","type":"uint256","internalType":"uint256"},{"name":"to","type":"bytes32","internalType":"bytes32"}],"outputs":[],"stateMutability":"nonpayable"},{"type":"function","name":"requestBridgingPayingFee","inputs":[{"name":"token","type":"address","internalType":"address"},{"name":"amount","type":"uint256","internalType":"uint256"},{"name":"to","type":"bytes32","internalType":"bytes32"},{"name":"bridgingPayment","type":"address","internalType":"address"}],"outputs":[],"stateMutability":"payable"},{"type":"event","name":"BridgingAccepted","inputs":[{"name":"to","type":"address","indexed":true,"internalType":"address"},{"name":"token","type":"address","indexed":true,"internalType":"address"},{"name":"amount","type":"uint256","indexed":false,"internalType":"uint256"}],"anonymous":false},{"type":"event","name":"BridgingRequested","inputs":[{"name":"from","type":"address","indexed":true,"internalType":"address"},{"name":"to","type":"bytes32","indexed":true,"internalType":"bytes32"},{"name":"token","type":"address","indexed":true,"internalType":"address"},{"name":"amount","type":"uint256","indexed":false,"internalType":"uint256"}],"anonymous":false},{"type":"error","name":"AddressEmptyCode","inputs":[{"name":"target","type":"address","internalType":"address"}]},{"type":"error","name":"BadArguments","inputs":[]},{"type":"error","name":"BadVftManagerAddress","inputs":[]},{"type":"error","name":"FailedCall","inputs":[]},{"type":"error","name":"InsufficientBalance","inputs":[{"name":"balance","type":"uint256","internalType":"uint256"},{"name":"needed","type":"uint256","internalType":"uint256"}]},{"type":"error","name":"NotAuthorized","inputs":[]},{"type":"error","name":"SafeERC20FailedOperation","inputs":[{"name":"token","type":"address","internalType":"address"}]},{"type":"error","name":"UnsupportedTokenSupply","inputs":[]}],"bytecode":{"object":"0x60c0604052348015600e575f5ffd5b506040516109f03803806109f0833981016040819052602b916040565b6001600160a01b0390911660805260a0526075565b5f5f604083850312156050575f5ffd5b82516001600160a01b03811681146065575f5ffd5b6020939093015192949293505050565b60805160a05161095a6100965f395f6101bc01525f61015b015261095a5ff3fe60806040526004361061003e575f3560e01c80631e324b5214610042578063bd3f513814610057578063c305870c1461008b578063ca67d39c146100aa575b5f5ffd5b610055610050366004610721565b6100ee565b005b348015610062575f5ffd5b50610076610071366004610764565b61014f565b60405190151581526020015b60405180910390f35b348015610096575f5ffd5b506100556100a53660046107db565b610390565b3480156100b5575f5ffd5b506100e16100c436600461080b565b6001600160a01b03165f9081526020819052604090205460ff1690565b6040516100829190610838565b806001600160a01b03166329610252346040518263ffffffff1660e01b81526004015f604051808303818588803b158015610127575f5ffd5b505af1158015610139573d5f5f3e3d5ffd5b5050505050610149848484610390565b50505050565b5f336001600160a01b037f000000000000000000000000000000000000000000000000000000000000000016146101995760405163ea8e4eb560e01b815260040160405180910390fd5b604882146101ba57604051630b9cddcd60e11b815260040160405180910390fd5b7f000000000000000000000000000000000000000000000000000000000000000084146101fa576040516305e363e160e41b815260040160405180910390fd5b5f610208601482858761085e565b61021191610885565b60601c90505f61022560286014868861085e565b61022e91610885565b60601c90505f610241856028818961085e565b61024a916108d2565b6001600160a01b0383165f9081526020819052604090205490915060ff16600181600281111561027c5761027c610824565b0361029a576102956001600160a01b03841685846104c8565b610333565b5f8160028111156102ad576102ad610824565b036102d5576001600160a01b0383165f908152602081905260409020805460ff191660021790555b6040516340c10f1960e01b81526001600160a01b038581166004830152602482018490528416906340c10f19906044015f604051808303815f87803b15801561031c575f5ffd5b505af115801561032e573d5f5f3e3d5ffd5b505050505b826001600160a01b0316846001600160a01b03167f4751a265d168d11cf478e41f20d00d0fca3fe8395f8aadf30557232d69cf13cc8460405161037891815260200190565b60405180910390a360019450505050505b9392505050565b6001600160a01b0383165f9081526020819052604090205460ff1660028160028111156103bf576103bf610824565b036104245760405163079cc67960e41b8152336004820152602481018490526001600160a01b038516906379cc6790906044015f604051808303815f87803b158015610409575f5ffd5b505af115801561041b573d5f5f3e3d5ffd5b50505050610474565b5f81600281111561043757610437610824565b0361045f576001600160a01b0384165f908152602081905260409020805460ff191660011790555b6104746001600160a01b03851633308661052c565b836001600160a01b031682336001600160a01b03167ff80de57fd7626baaff7d867494866703686569822c2326ae60b2515ede953c3a866040516104ba91815260200190565b60405180910390a450505050565b6040516001600160a01b0383811660248301526044820183905261052791859182169063a9059cbb906064015b604051602081830303815290604052915060e01b6020820180516001600160e01b038381831617835250505050610565565b505050565b6040516001600160a01b0384811660248301528381166044830152606482018390526101499186918216906323b872dd906084016104f5565b5f6105796001600160a01b038416836105cb565b905080515f1415801561059d57508080602001905181019061059b91906108ef565b155b1561052757604051635274afe760e01b81526001600160a01b03841660048201526024015b60405180910390fd5b60606105d883835f6105e1565b90505b92915050565b60608147101561060d5760405163cf47918160e01b8152476004820152602481018390526044016105c2565b5f5f856001600160a01b03168486604051610628919061090e565b5f6040518083038185875af1925050503d805f8114610662576040519150601f19603f3d011682016040523d82523d5f602084013e610667565b606091505b5091509150610677868383610681565b9695505050505050565b60608261069657610691826106dd565b610389565b81511580156106ad57506001600160a01b0384163b155b156106d657604051639996b31560e01b81526001600160a01b03851660048201526024016105c2565b5080610389565b8051156106ed5780518082602001fd5b60405163d6bda27560e01b815260040160405180910390fd5b80356001600160a01b038116811461071c575f5ffd5b919050565b5f5f5f5f60808587031215610734575f5ffd5b61073d85610706565b9350602085013592506040850135915061075960608601610706565b905092959194509250565b5f5f5f60408486031215610776575f5ffd5b83359250602084013567ffffffffffffffff811115610793575f5ffd5b8401601f810186136107a3575f5ffd5b803567ffffffffffffffff8111156107b9575f5ffd5b8660208284010111156107ca575f5ffd5b939660209190910195509293505050565b5f5f5f606084860312156107ed575f5ffd5b6107f684610706565b95602085013595506040909401359392505050565b5f6020828403121561081b575f5ffd5b6105d882610706565b634e487b7160e01b5f52602160045260245ffd5b602081016003831061085857634e487b7160e01b5f52602160045260245ffd5b91905290565b5f5f8585111561086c575f5ffd5b83861115610878575f5ffd5b5050820193919092039150565b80356bffffffffffffffffffffffff1981169060148410156108cb576bffffffffffffffffffffffff196bffffffffffffffffffffffff198560140360031b1b82161691505b5092915050565b803560208310156105db575f19602084900360031b1b1692915050565b5f602082840312156108ff575f5ffd5b81518015158114610389575f5ffd5b5f82518060208501845e5f92019182525091905056fea264697066735822122083eb49691f2a86c7bf75a0efeec91ec87e8ff78c75135a055e59d54ca8897bd864736f6c634300081c0033","linkReferences":{}},"methodIdentifiers":{"getTokenSupplyType(address)":"ca67d39c","processVaraMessage(bytes32,bytes)":"bd3f5138","requestBridging(address,uint256,bytes32)":"c305870c","requestBridgingPayingFee(address,uint256,bytes32,address)":"1e324b52"},"id":54}