{"abi":[{"type":"function","name":"getTokenSupplyType","inputs":[{"name":"token","type":"address","internalType":"address"}],"outputs":[{"name":"","type":"uint8","internalType":"enum IERC20Manager.SupplyType"}],"stateMutability":"view"},{"type":"function","name":"initialize","inputs":[{"name":"messageQueue","type":"address","internalType":"address"},{"name":"vftManager","type":"bytes32","internalType":"bytes32"}],"outputs":[],"stateMutability":"nonpayable"},{"type":"function","name":"processMessage","inputs":[{"name":"source","type":"bytes32","internalType":"bytes32"},{"name":"payload","type":"bytes","internalType":"bytes"}],"outputs":[],"stateMutability":"nonpayable"},{"type":"function","name":"requestBridging","inputs":[{"name":"token","type":"address","internalType":"address"},{"name":"amount","type":"uint256","internalType":"uint256"},{"name":"to","type":"bytes32","internalType":"bytes32"}],"outputs":[],"stateMutability":"nonpayable"},{"type":"function","name":"requestBridgingPayingFee","inputs":[{"name":"token","type":"address","internalType":"address"},{"name":"amount","type":"uint256","internalType":"uint256"},{"name":"to","type":"bytes32","internalType":"bytes32"},{"name":"bridgingPayment","type":"address","internalType":"address"}],"outputs":[],"stateMutability":"payable"},{"type":"function","name":"requestBridgingPayingFeeWithPermit","inputs":[{"name":"token","type":"address","internalType":"address"},{"name":"amount","type":"uint256","internalType":"uint256"},{"name":"to","type":"bytes32","internalType":"bytes32"},{"name":"deadline","type":"uint256","internalType":"uint256"},{"name":"v","type":"uint8","internalType":"uint8"},{"name":"r","type":"bytes32","internalType":"bytes32"},{"name":"s","type":"bytes32","internalType":"bytes32"},{"name":"bridgingPayment","type":"address","internalType":"address"}],"outputs":[],"stateMutability":"payable"},{"type":"event","name":"BridgingAccepted","inputs":[{"name":"to","type":"address","indexed":true,"internalType":"address"},{"name":"token","type":"address","indexed":true,"internalType":"address"},{"name":"amount","type":"uint256","indexed":false,"internalType":"uint256"},{"name":"gearTokensSender","type":"bytes32","indexed":false,"internalType":"bytes32"}],"anonymous":false},{"type":"event","name":"BridgingRequested","inputs":[{"name":"from","type":"address","indexed":true,"internalType":"address"},{"name":"to","type":"bytes32","indexed":true,"internalType":"bytes32"},{"name":"token","type":"address","indexed":true,"internalType":"address"},{"name":"amount","type":"uint256","indexed":false,"internalType":"uint256"}],"anonymous":false},{"type":"event","name":"Initialized","inputs":[{"name":"version","type":"uint64","indexed":false,"internalType":"uint64"}],"anonymous":false},{"type":"error","name":"BadArguments","inputs":[]},{"type":"error","name":"BadSender","inputs":[]},{"type":"error","name":"InvalidInitialization","inputs":[]},{"type":"error","name":"NotAuthorized","inputs":[]},{"type":"error","name":"NotInitializing","inputs":[]},{"type":"error","name":"SafeERC20FailedOperation","inputs":[{"name":"token","type":"address","internalType":"address"}]}],"bytecode":{"object":"0x6080806040523460155761080c908161001a8239f35b5f80fdfe6080806040526004361015610012575f80fd5b5f905f3560e01c9081631e324b52146105a35750806399189e441461035d578063be13f47c14610204578063c305870c146101da578063ca67d39c1461017f5763f6cdd9cc14610060575f80fd5b61010036600319011261017c5761007561062d565b602435908260843560ff811680910361016d5760e4356001600160a01b0381169081900361015457803b156101545782600491604051928380926314b0812960e11b825234905af1908115610171578391610158575b50506001600160a01b03831690813b1561015457829160e48392604051948593849263d505accf60e01b84523360048501523060248501528a60448501526064356064850152608484015260a43560a484015260c43560c48401525af161013f575b505061013c9160443591610679565b80f35b8161014991610643565b61015457825f61012d565b8280fd5b8161016291610643565b61016d57815f6100cb565b5080fd5b6040513d85823e3d90fd5b80fd5b503461017c57602036600319011261017c576001600160a01b036101a161062d565b168152600260205260ff6040822054166040519060038110156101c657602092508152f35b634e487b7160e01b83526021600452602483fd5b503461017c57606036600319011261017c5761013c6101f761062d565b6044359060243590610679565b503461017c57604036600319011261017c5761021e61062d565b5f5160206107ec5f395f51905f52549060ff8260401c16159167ffffffffffffffff811680159081610355575b600114908161034b575b159081610342575b506103335767ffffffffffffffff1981166001175f5160206107ec5f395f51905f525582610307575b5082546001600160a01b0319166001600160a01b03919091161782556024356001556102af5780f35b68ff0000000000000000195f5160206107ec5f395f51905f5254165f5160206107ec5f395f51905f52557fc7f505b2f371ae2175ee4913f4499e1f2633a7b5936321eed1cdaeb6115181d2602060405160018152a180f35b68ffffffffffffffffff191668010000000000000001175f5160206107ec5f395f51905f52555f610286565b63f92ee8a960e01b8452600484fd5b9050155f61025d565b303b159150610255565b84915061024b565b503461017c57604036600319011261017c5760243560043567ffffffffffffffff821161015457366023830112156101545781600401359067ffffffffffffffff82116105685736602483850101116105685783546001600160a01b0316330361059457600154810361057b57506068810361056c578060141161015457602482013560601c906028811061056857603883013560601c926048821061052957604c8101359160681161052957606c0135838552600260205260ff604086205416600381101561055457600181036104a257506040805163a9059cbb60e01b60208201526001600160a01b0385166024820152604480820185905281527faa2cf5d3a3048848c3129fad75ea4c790a1b9e45b3be93f7fca12da6f625f377939192906104949061048e606482610643565b87610793565b82519182526020820152a380f35b15610538575b833b15610529576040516340c10f1960e01b81526001600160a01b03841660048201526024810183905285908181604481838a5af1801561052d57610514575b50507faa2cf5d3a3048848c3129fad75ea4c790a1b9e45b3be93f7fca12da6f625f37791604091610494565b8161051e91610643565b61052957845f6104e8565b8480fd5b6040513d84823e3d90fd5b838552600260205260408520600260ff198254161790556104a8565b634e487b7160e01b86526021600452602486fd5b8380fd5b630b9cddcd60e11b8352600483fd5b9150506105855780f35b63f9b5d12d60e01b8152600490fd5b63ea8e4eb560e01b8452600484fd5b90506080366003190112610629576105b961062d565b906064356001600160a01b0381169081900361062957803b1561062957816004815f936314b0812960e11b825234905af1801561061e57610607575b5061013c906044359060243590610679565b6106149192505f90610643565b5f9061013c6105f5565b6040513d5f823e3d90fd5b5f80fd5b600435906001600160a01b038216820361062957565b90601f8019910116810190811067ffffffffffffffff82111761066557604052565b634e487b7160e01b5f52604160045260245ffd5b6001600160a01b03165f818152600260205260409020549092919060ff16600381101561077f576002810361071e5750823b156106295760405163079cc67960e41b8152336004820152602481018290525f8160448183885af1801561061e5761070e575b505b6040519081527ff80de57fd7626baaff7d867494866703686569822c2326ae60b2515ede953c3a60203392a4565b5f61071891610643565b5f6106de565b15610763575b61075e6040516323b872dd60e01b602082015233602482015230604482015282606482015260648152610758608482610643565b84610793565b6106e0565b825f52600260205260405f20600160ff19825416179055610724565b634e487b7160e01b5f52602160045260245ffd5b905f602091828151910182855af11561061e575f513d6107e257506001600160a01b0381163b155b6107c25750565b635274afe760e01b5f9081526001600160a01b0391909116600452602490fd5b600114156107bb56fef0c57e16840df040f15088dc2f81fe391c3923bec73e23a9662efc9c229c6a00","linkReferences":{}},"methodIdentifiers":{"getTokenSupplyType(address)":"ca67d39c","initialize(address,bytes32)":"be13f47c","processMessage(bytes32,bytes)":"99189e44","requestBridging(address,uint256,bytes32)":"c305870c","requestBridgingPayingFee(address,uint256,bytes32,address)":"1e324b52","requestBridgingPayingFeeWithPermit(address,uint256,bytes32,uint256,uint8,bytes32,bytes32,address)":"f6cdd9cc"},"storageLayout":{"storage":[{"astId":54304,"contract":"src/ERC20Manager.sol:ERC20Manager","label":"_messageQueue","offset":0,"slot":"0","type":"t_address"},{"astId":54306,"contract":"src/ERC20Manager.sol:ERC20Manager","label":"_vftManager","offset":0,"slot":"1","type":"t_bytes32"},{"astId":54311,"contract":"src/ERC20Manager.sol:ERC20Manager","label":"tokenSupplyType","offset":0,"slot":"2","type":"t_mapping(t_address,t_enum(SupplyType)56154)"}],"types":{"t_address":{"encoding":"inplace","label":"address","numberOfBytes":"20"},"t_bytes32":{"encoding":"inplace","label":"bytes32","numberOfBytes":"32"},"t_enum(SupplyType)56154":{"encoding":"inplace","label":"enum IERC20Manager.SupplyType","numberOfBytes":"1"},"t_mapping(t_address,t_enum(SupplyType)56154)":{"encoding":"mapping","key":"t_address","label":"mapping(address => enum IERC20Manager.SupplyType)","numberOfBytes":"32","value":"t_enum(SupplyType)56154"}}},"id":80}