{"abi":[{"type":"constructor","inputs":[{"name":"_underlying","type":"address","internalType":"address"},{"name":"_admin","type":"address","internalType":"address"},{"name":"_fee","type":"uint256","internalType":"uint256"}],"stateMutability":"nonpayable"},{"type":"function","name":"getAdmin","inputs":[],"outputs":[{"name":"","type":"address","internalType":"address"}],"stateMutability":"view"},{"type":"function","name":"getFee","inputs":[],"outputs":[{"name":"","type":"uint256","internalType":"uint256"}],"stateMutability":"view"},{"type":"function","name":"getUnderlyingAddress","inputs":[],"outputs":[{"name":"","type":"address","internalType":"address"}],"stateMutability":"view"},{"type":"function","name":"requestBridging","inputs":[{"name":"token","type":"address","internalType":"address"},{"name":"amount","type":"uint256","internalType":"uint256"},{"name":"to","type":"bytes32","internalType":"bytes32"}],"outputs":[],"stateMutability":"payable"},{"type":"function","name":"setAdmin","inputs":[{"name":"newAdmin","type":"address","internalType":"address"}],"outputs":[],"stateMutability":"nonpayable"},{"type":"function","name":"setFee","inputs":[{"name":"newFee","type":"uint256","internalType":"uint256"}],"outputs":[],"stateMutability":"nonpayable"},{"type":"function","name":"underlying","inputs":[],"outputs":[{"name":"","type":"address","internalType":"address"}],"stateMutability":"view"},{"type":"event","name":"FeePaid","inputs":[],"anonymous":false},{"type":"error","name":"NotAnAdmin","inputs":[]}],"bytecode":{"object":"0x6080604052348015600e575f5ffd5b50604051610418380380610418833981016040819052602b91607a565b5f80546001600160a01b039485166001600160a01b0319918216179091556002805494909316931692909217905560015560ae565b80516001600160a01b03811681146075575f5ffd5b919050565b5f5f5f60608486031215608b575f5ffd5b6092846060565b9250609e602085016060565b9150604084015190509250925092565b61035d806100bb5f395ff3fe60806040526004361061006e575f3560e01c8063704b6c021161004c578063704b6c02146100e757806388a6868214610106578063c305870c14610122578063ced72f8714610135575f5ffd5b806369fe0e2d146100725780636e9960c3146100935780636f307dc3146100c9575b5f5ffd5b34801561007d575f5ffd5b5061009161008c3660046102a5565b610152565b005b34801561009e575f5ffd5b506002546001600160a01b03165b6040516001600160a01b0390911681526020015b60405180910390f35b3480156100d4575f5ffd5b505f546100ac906001600160a01b031681565b3480156100f2575f5ffd5b506100916101013660046102d7565b610182565b348015610111575f5ffd5b505f546001600160a01b03166100ac565b6100916101303660046102f7565b6101cd565b348015610140575f5ffd5b506001546040519081526020016100c0565b6002546001600160a01b0316331461017d576040516355098f2760e01b815260040160405180910390fd5b600155565b6002546001600160a01b031633146101ad576040516355098f2760e01b815260040160405180910390fd5b600280546001600160a01b0383166001600160a01b031990911617905550565b6101d5610241565b5f546040516330c161c360e21b81526001600160a01b03858116600483015260248201859052604482018490529091169063c305870c906064015f604051808303815f87803b158015610226575f5ffd5b505af1158015610238573d5f5f3e3d5ffd5b50505050505050565b6002546001546040516001600160a01b039092169181156108fc0291905f818181858888f1935050505015801561027a573d5f5f3e3d5ffd5b506040517faaeea0b595e409578c26dd16fa1bdb3a29a4d874694ecef3ca96376940f5fbfb905f90a1565b5f602082840312156102b5575f5ffd5b5035919050565b80356001600160a01b03811681146102d2575f5ffd5b919050565b5f602082840312156102e7575f5ffd5b6102f0826102bc565b9392505050565b5f5f5f60608486031215610309575f5ffd5b610312846102bc565b9560208501359550604090940135939250505056fea2646970667358221220d3b47ebeda1bb1bdfea37438bd175abcfc29d5b569ad70ac1d17cce917953ab664736f6c634300081c0033","linkReferences":{}},"methodIdentifiers":{"getAdmin()":"6e9960c3","getFee()":"ced72f87","getUnderlyingAddress()":"88a68682","requestBridging(address,uint256,bytes32)":"c305870c","setAdmin(address)":"704b6c02","setFee(uint256)":"69fe0e2d","underlying()":"6f307dc3"},"id":53}