{"abi":[{"type":"constructor","inputs":[{"name":"message_queue","type":"address","internalType":"address"},{"name":"vft_manager","type":"bytes32","internalType":"bytes32"}],"stateMutability":"nonpayable"},{"type":"function","name":"getTokenSupplyType","inputs":[{"name":"token","type":"address","internalType":"address"}],"outputs":[{"name":"","type":"uint8","internalType":"enum IERC20Manager.SupplyType"}],"stateMutability":"view"},{"type":"function","name":"processVaraMessage","inputs":[{"name":"sender","type":"bytes32","internalType":"bytes32"},{"name":"payload","type":"bytes","internalType":"bytes"}],"outputs":[{"name":"","type":"bool","internalType":"bool"}],"stateMutability":"nonpayable"},{"type":"function","name":"requestBridging","inputs":[{"name":"token","type":"address","internalType":"address"},{"name":"amount","type":"uint256","internalType":"uint256"},{"name":"to","type":"bytes32","internalType":"bytes32"}],"outputs":[],"stateMutability":"nonpayable"},{"type":"function","name":"requestBridgingPayingFee","inputs":[{"name":"token","type":"address","internalType":"address"},{"name":"amount","type":"uint256","internalType":"uint256"},{"name":"to","type":"bytes32","internalType":"bytes32"},{"name":"bridgingPayment","type":"address","internalType":"address"}],"outputs":[],"stateMutability":"payable"},{"type":"event","name":"BridgingAccepted","inputs":[{"name":"to","type":"address","indexed":true,"internalType":"address"},{"name":"token","type":"address","indexed":true,"internalType":"address"},{"name":"amount","type":"uint256","indexed":false,"internalType":"uint256"}],"anonymous":false},{"type":"event","name":"BridgingRequested","inputs":[{"name":"from","type":"address","indexed":true,"internalType":"address"},{"name":"to","type":"bytes32","indexed":true,"internalType":"bytes32"},{"name":"token","type":"address","indexed":true,"internalType":"address"},{"name":"amount","type":"uint256","indexed":false,"internalType":"uint256"}],"anonymous":false},{"type":"error","name":"BadArguments","inputs":[]},{"type":"error","name":"BadVftManagerAddress","inputs":[]},{"type":"error","name":"NotAuthorized","inputs":[]},{"type":"error","name":"SafeERC20FailedOperation","inputs":[{"name":"token","type":"address","internalType":"address"}]},{"type":"error","name":"UnsupportedTokenSupply","inputs":[]}],"bytecode":{"object":"0x60c034607857601f61063038819003918201601f19168301916001600160401b03831184841017607c5780849260409485528339810103126078578051906001600160a01b0382168203607857602001519060805260a05260405161059f9081610091823960805181610126015260a0518161015e0152f35b5f80fd5b634e487b7160e01b5f52604160045260245ffdfe6080806040526004361015610012575f80fd5b5f905f3560e01c9081631e324b521461035857508063bd3f5138146100d3578063c305870c146100a65763ca67d39c1461004a575f80fd5b346100a35760203660031901126100a3576001600160a01b0361006b6103e2565b1681528060205260ff60408220541660405190600381101561008f57602092508152f35b634e487b7160e01b83526021600452602483fd5b80fd5b50346100a35760603660031901126100a3576100d06100c36103e2565b604435906024359061042e565b80f35b50346100a35760403660031901126100a3576024359067ffffffffffffffff82116100a357366023830112156100a35781600401359067ffffffffffffffff82116100a35736602483850101116100a3577f00000000000000000000000000000000000000000000000000000000000000006001600160a01b03163303610349576048820361033a577f00000000000000000000000000000000000000000000000000000000000000006004350361032b57816014116100a357602483013560601c916028811061032757603884013560601c93604c0135906020602719820110610313575b50908381528060205260ff60408220541660038110156102ff576001810361025557505060405163a9059cbb60e01b6020808301919091526001600160a01b0384166024830152604480830184905282527f4751a265d168d11cf478e41f20d00d0fca3fe8395f8aadf30557232d69cf13cc9290916102439061023d6064826103f8565b86610547565b604051908152a3602060405160018152f35b156102e4575b833b156100a3576040516340c10f1960e01b81526001600160a01b038416600482015260248101839052818160448183895af180156102d9576102c4575b505060207f4751a265d168d11cf478e41f20d00d0fca3fe8395f8aadf30557232d69cf13cc91610243565b6102cf8280926103f8565b6100a35780610299565b6040513d84823e3d90fd5b8381528060205260408120600260ff1982541617905561025b565b634e487b7160e01b82526021600452602482fd5b60285f19916020030160031b1b165f6101b9565b5080fd5b6305e363e160e41b8152600490fd5b630b9cddcd60e11b8152600490fd5b63ea8e4eb560e01b8152600490fd5b905060803660031901126103de5761036e6103e2565b906064356001600160a01b038116908190036103de57803b156103de57816004815f936314b0812960e11b825234905af180156103d3576103bc575b506100d090604435906024359061042e565b6103c99192505f906103f8565b5f906100d06103aa565b6040513d5f823e3d90fd5b5f80fd5b600435906001600160a01b03821682036103de57565b90601f8019910116810190811067ffffffffffffffff82111761041a57604052565b634e487b7160e01b5f52604160045260245ffd5b6001600160a01b03165f818152602081905260409020549092919060ff16600381101561053357600281036104d35750823b156103de5760405163079cc67960e41b8152336004820152602481018290525f8160448183885af180156103d3576104c3575b505b6040519081527ff80de57fd7626baaff7d867494866703686569822c2326ae60b2515ede953c3a60203392a4565b5f6104cd916103f8565b5f610493565b15610518575b6105136040516323b872dd60e01b60208201523360248201523060448201528260648201526064815261050d6084826103f8565b84610547565b610495565b825f525f60205260405f20600160ff198254161790556104d9565b634e487b7160e01b5f52602160045260245ffd5b905f602091828151910182855af1156103d3575f513d61059657506001600160a01b0381163b155b6105765750565b635274afe760e01b5f9081526001600160a01b0391909116600452602490fd5b6001141561056f56","linkReferences":{}},"methodIdentifiers":{"getTokenSupplyType(address)":"ca67d39c","processVaraMessage(bytes32,bytes)":"bd3f5138","requestBridging(address,uint256,bytes32)":"c305870c","requestBridgingPayingFee(address,uint256,bytes32,address)":"1e324b52"},"id":57}