{"abi":[{"type":"constructor","inputs":[],"stateMutability":"nonpayable"},{"type":"function","name":"DEFAULT_ADMIN_ROLE","inputs":[],"outputs":[{"name":"","type":"bytes32","internalType":"bytes32"}],"stateMutability":"view"},{"type":"function","name":"PAUSER_ROLE","inputs":[],"outputs":[{"name":"","type":"bytes32","internalType":"bytes32"}],"stateMutability":"view"},{"type":"function","name":"UPGRADE_INTERFACE_VERSION","inputs":[],"outputs":[{"name":"","type":"string","internalType":"string"}],"stateMutability":"view"},{"type":"function","name":"bridgingPayments","inputs":[],"outputs":[{"name":"","type":"address[]","internalType":"address[]"}],"stateMutability":"view"},{"type":"function","name":"createBridgingPayment","inputs":[{"name":"fee","type":"uint256","internalType":"uint256"}],"outputs":[{"name":"","type":"address","internalType":"address"}],"stateMutability":"nonpayable"},{"type":"function","name":"getRoleAdmin","inputs":[{"name":"role","type":"bytes32","internalType":"bytes32"}],"outputs":[{"name":"","type":"bytes32","internalType":"bytes32"}],"stateMutability":"view"},{"type":"function","name":"getTokenType","inputs":[{"name":"token","type":"address","internalType":"address"}],"outputs":[{"name":"","type":"uint8","internalType":"enum IERC20Manager.TokenType"}],"stateMutability":"view"},{"type":"function","name":"governanceAdmin","inputs":[],"outputs":[{"name":"","type":"address","internalType":"address"}],"stateMutability":"view"},{"type":"function","name":"governancePauser","inputs":[],"outputs":[{"name":"","type":"address","internalType":"address"}],"stateMutability":"view"},{"type":"function","name":"grantRole","inputs":[{"name":"role","type":"bytes32","internalType":"bytes32"},{"name":"account","type":"address","internalType":"address"}],"outputs":[],"stateMutability":"nonpayable"},{"type":"function","name":"handleMessage","inputs":[{"name":"source","type":"bytes32","internalType":"bytes32"},{"name":"payload","type":"bytes","internalType":"bytes"}],"outputs":[],"stateMutability":"nonpayable"},{"type":"function","name":"hasRole","inputs":[{"name":"role","type":"bytes32","internalType":"bytes32"},{"name":"account","type":"address","internalType":"address"}],"outputs":[{"name":"","type":"bool","internalType":"bool"}],"stateMutability":"view"},{"type":"function","name":"initialize","inputs":[{"name":"governanceAdmin_","type":"address","internalType":"contract IGovernance"},{"name":"governancePauser_","type":"address","internalType":"contract IGovernance"},{"name":"messageQueue_","type":"address","internalType":"address"},{"name":"vftManager","type":"bytes32","internalType":"bytes32"},{"name":"tokens_","type":"tuple[]","internalType":"struct IERC20Manager.TokenInfo[]","components":[{"name":"token","type":"address","internalType":"address"},{"name":"tokenType","type":"uint8","internalType":"enum IERC20Manager.TokenType"}]}],"outputs":[],"stateMutability":"nonpayable"},{"type":"function","name":"isBridgingPayment","inputs":[{"name":"bridgingPayment","type":"address","internalType":"address"}],"outputs":[{"name":"","type":"bool","internalType":"bool"}],"stateMutability":"view"},{"type":"function","name":"isVftManager","inputs":[{"name":"vftManager","type":"bytes32","internalType":"bytes32"}],"outputs":[{"name":"","type":"bool","internalType":"bool"}],"stateMutability":"view"},{"type":"function","name":"messageQueue","inputs":[],"outputs":[{"name":"","type":"address","internalType":"address"}],"stateMutability":"view"},{"type":"function","name":"pause","inputs":[],"outputs":[],"stateMutability":"nonpayable"},{"type":"function","name":"paused","inputs":[],"outputs":[{"name":"","type":"bool","internalType":"bool"}],"stateMutability":"view"},{"type":"function","name":"proxiableUUID","inputs":[],"outputs":[{"name":"","type":"bytes32","internalType":"bytes32"}],"stateMutability":"view"},{"type":"function","name":"renounceRole","inputs":[{"name":"role","type":"bytes32","internalType":"bytes32"},{"name":"callerConfirmation","type":"address","internalType":"address"}],"outputs":[],"stateMutability":"nonpayable"},{"type":"function","name":"requestBridging","inputs":[{"name":"token","type":"address","internalType":"address"},{"name":"amount","type":"uint256","internalType":"uint256"},{"name":"to","type":"bytes32","internalType":"bytes32"}],"outputs":[],"stateMutability":"nonpayable"},{"type":"function","name":"requestBridgingPayingFee","inputs":[{"name":"token","type":"address","internalType":"address"},{"name":"amount","type":"uint256","internalType":"uint256"},{"name":"to","type":"bytes32","internalType":"bytes32"},{"name":"bridgingPayment","type":"address","internalType":"address"}],"outputs":[],"stateMutability":"payable"},{"type":"function","name":"requestBridgingPayingFeeWithPermit","inputs":[{"name":"token","type":"address","internalType":"address"},{"name":"amount","type":"uint256","internalType":"uint256"},{"name":"to","type":"bytes32","internalType":"bytes32"},{"name":"deadline","type":"uint256","internalType":"uint256"},{"name":"v","type":"uint8","internalType":"uint8"},{"name":"r","type":"bytes32","internalType":"bytes32"},{"name":"s","type":"bytes32","internalType":"bytes32"},{"name":"bridgingPayment","type":"address","internalType":"address"}],"outputs":[],"stateMutability":"payable"},{"type":"function","name":"revokeRole","inputs":[{"name":"role","type":"bytes32","internalType":"bytes32"},{"name":"account","type":"address","internalType":"address"}],"outputs":[],"stateMutability":"nonpayable"},{"type":"function","name":"supportsInterface","inputs":[{"name":"interfaceId","type":"bytes4","internalType":"bytes4"}],"outputs":[{"name":"","type":"bool","internalType":"bool"}],"stateMutability":"view"},{"type":"function","name":"tokens","inputs":[],"outputs":[{"name":"","type":"address[]","internalType":"address[]"}],"stateMutability":"view"},{"type":"function","name":"unpause","inputs":[],"outputs":[],"stateMutability":"nonpayable"},{"type":"function","name":"upgradeToAndCall","inputs":[{"name":"newImplementation","type":"address","internalType":"address"},{"name":"data","type":"bytes","internalType":"bytes"}],"outputs":[],"stateMutability":"payable"},{"type":"function","name":"vftManagers","inputs":[],"outputs":[{"name":"","type":"bytes32[]","internalType":"bytes32[]"}],"stateMutability":"view"},{"type":"event","name":"Bridged","inputs":[{"name":"from","type":"bytes32","indexed":true,"internalType":"bytes32"},{"name":"to","type":"address","indexed":true,"internalType":"address"},{"name":"token","type":"address","indexed":true,"internalType":"address"},{"name":"amount","type":"uint256","indexed":false,"internalType":"uint256"}],"anonymous":false},{"type":"event","name":"BridgingPaymentCreated","inputs":[{"name":"bridgingPayment","type":"address","indexed":false,"internalType":"address"}],"anonymous":false},{"type":"event","name":"BridgingRequested","inputs":[{"name":"from","type":"address","indexed":true,"internalType":"address"},{"name":"to","type":"bytes32","indexed":true,"internalType":"bytes32"},{"name":"token","type":"address","indexed":true,"internalType":"address"},{"name":"amount","type":"uint256","indexed":false,"internalType":"uint256"}],"anonymous":false},{"type":"event","name":"EthereumTokenRegistered","inputs":[{"name":"tokenName","type":"string","indexed":false,"internalType":"string"},{"name":"tokenSymbol","type":"string","indexed":false,"internalType":"string"},{"name":"tokenDecimals","type":"uint8","indexed":false,"internalType":"uint8"}],"anonymous":false},{"type":"event","name":"GearTokenRegistered","inputs":[{"name":"token","type":"address","indexed":false,"internalType":"address"}],"anonymous":false},{"type":"event","name":"Initialized","inputs":[{"name":"version","type":"uint64","indexed":false,"internalType":"uint64"}],"anonymous":false},{"type":"event","name":"Paused","inputs":[{"name":"account","type":"address","indexed":false,"internalType":"address"}],"anonymous":false},{"type":"event","name":"RoleAdminChanged","inputs":[{"name":"role","type":"bytes32","indexed":true,"internalType":"bytes32"},{"name":"previousAdminRole","type":"bytes32","indexed":true,"internalType":"bytes32"},{"name":"newAdminRole","type":"bytes32","indexed":true,"internalType":"bytes32"}],"anonymous":false},{"type":"event","name":"RoleGranted","inputs":[{"name":"role","type":"bytes32","indexed":true,"internalType":"bytes32"},{"name":"account","type":"address","indexed":true,"internalType":"address"},{"name":"sender","type":"address","indexed":true,"internalType":"address"}],"anonymous":false},{"type":"event","name":"RoleRevoked","inputs":[{"name":"role","type":"bytes32","indexed":true,"internalType":"bytes32"},{"name":"account","type":"address","indexed":true,"internalType":"address"},{"name":"sender","type":"address","indexed":true,"internalType":"address"}],"anonymous":false},{"type":"event","name":"Unpaused","inputs":[{"name":"account","type":"address","indexed":false,"internalType":"address"}],"anonymous":false},{"type":"event","name":"Upgraded","inputs":[{"name":"implementation","type":"address","indexed":true,"internalType":"address"}],"anonymous":false},{"type":"event","name":"VftManagerAdded","inputs":[{"name":"vftManager","type":"bytes32","indexed":false,"internalType":"bytes32"}],"anonymous":false},{"type":"error","name":"AccessControlBadConfirmation","inputs":[]},{"type":"error","name":"AccessControlUnauthorizedAccount","inputs":[{"name":"account","type":"address","internalType":"address"},{"name":"neededRole","type":"bytes32","internalType":"bytes32"}]},{"type":"error","name":"AddressEmptyCode","inputs":[{"name":"target","type":"address","internalType":"address"}]},{"type":"error","name":"ERC1967InvalidImplementation","inputs":[{"name":"implementation","type":"address","internalType":"address"}]},{"type":"error","name":"ERC1967NonPayable","inputs":[]},{"type":"error","name":"EnforcedPause","inputs":[]},{"type":"error","name":"ExpectedPause","inputs":[]},{"type":"error","name":"FailedCall","inputs":[]},{"type":"error","name":"InvalidBridgingPayment","inputs":[]},{"type":"error","name":"InvalidInitialization","inputs":[]},{"type":"error","name":"InvalidPayload","inputs":[]},{"type":"error","name":"InvalidSender","inputs":[]},{"type":"error","name":"InvalidSource","inputs":[]},{"type":"error","name":"InvalidTokenType","inputs":[]},{"type":"error","name":"NotInitializing","inputs":[]},{"type":"error","name":"SafeERC20FailedOperation","inputs":[{"name":"token","type":"address","internalType":"address"}]},{"type":"error","name":"UUPSUnauthorizedCallContext","inputs":[]},{"type":"error","name":"UUPSUnsupportedProxiableUUID","inputs":[{"name":"slot","type":"bytes32","internalType":"bytes32"}]}],"bytecode":{"object":"0x60a080604052346100c257306080525f516020613a725f395f51905f525460ff8160401c166100b3576002600160401b03196001600160401b03821601610060575b6040516139ab90816100c78239608051818181610b590152610c290152f35b6001600160401b0319166001600160401b039081175f516020613a725f395f51905f525581527fc7f505b2f371ae2175ee4913f4499e1f2633a7b5936321eed1cdaeb6115181d290602090a15f80610041565b63f92ee8a960e01b5f5260045ffd5b5f80fdfe6080806040526004361015610012575f80fd5b5f905f3560e01c90816258f6b8146113a35750806301ffc9a71461134d5780630c9d9b9714611315578063109ec2e7146112a15780631e324b52146111ee578063248a9ca3146111ae5780632f2ff15d14611163578063302ac5d01461101c57806336568abe14610fd757806338ff319f14610f125780633b70c18a14610ee95780633f4ba83a14610e695780634e68953914610e345780634f1ef28614610bad57806352d1902d14610b465780635c975abb14610b17578063763b754a146107895780638456cb591461071657806387be40b11461066057806391d148541461060a57806393272baf146105af5780639d63848a14610525578063a217fddf14610509578063ad3cb1cc146104bc578063c305870c1461045d578063c81eb79714610434578063d547741f146103e0578063e63ab1e9146103c45763f6cdd9cc1461015c575f80fd5b6101003660031901126103c1576101716113c5565b6024356084359160ff83168093036103bf5760e4356001600160a01b038116908190036103bb576101a0611517565b6101b5815f52600860205260405f2054151590565b156103ac57908185923b156103505782600491604051928380926314b0812960e11b825234905af19081156103a157839161038c575b50506001600160a01b031692833b15610388576040519063d505accf60e01b82523360048301523060248301528360448301526064356064830152608482015260a43560a482015260c43560c4820152818160e48183885af1610373575b5050610253611517565b818352600660205260ff604084205416600381101561035f57806102805763a1e9dd9d60e01b8452600484fd5b600181036102f657506102c36040516323b872dd60e01b6020820152336024820152306044820152826064820152606481526102bd608482611433565b83611d64565b604051908152604435907ff80de57fd7626baaff7d867494866703686569822c2326ae60b2515ede953c3a60203392a480f35b6002036102c357813b156103505760405163079cc67960e41b8152336004820152602481018290528390818160448183885af180156103545761033b575b50506102c3565b8161034591611433565b61035057825f610334565b8280fd5b6040513d84823e3d90fd5b634e487b7160e01b84526021600452602484fd5b8161037d91611433565b61035057825f610249565b5080fd5b8161039691611433565b61038857815f6101eb565b6040513d85823e3d90fd5b631e37e19560e31b8552600485fd5b8480fd5b835b80fd5b50346103c157806003193601126103c157602060405160018152f35b50346103c15760403660031901126103c1576104306004356104006113db565b9061042b610426825f525f51602061394b5f395f51905f52602052600160405f20015490565b61158e565b611be1565b5080f35b50346103c157806003193601126103c1576001546040516001600160a01b039091168152602090f35b50346103c15760603660031901126103c1576104776113c5565b60243590610483611517565b6001600160a01b03168083526006602052604083205490919060ff16600381101561035f57806102805763a1e9dd9d60e01b8452600484fd5b50346103c157806003193601126103c157506105056040516104df604082611433565b60058152640352e302e360dc1b6020820152604051918291602083526020830190611485565b0390f35b50346103c157806003193601126103c157602090604051908152f35b50346103c157806003193601126103c15760405180916020600554928381520191600582527f036b6384b5eca791c62761152d0c79bb0604c104a5fb6f4eb0703f3154bb3db0915b818110610590576105058561058481870382611433565b604051918291826113f1565b82546001600160a01b031684526020909301926001928301920161056d565b50346103c15760203660031901126103c1576001600160a01b036105d16113c5565b168152600660205260ff6040822054166040519060038110156105f657602092508152f35b634e487b7160e01b83526021600452602483fd5b50346103c15760403660031901126103c15760406106266113db565b9160043581525f51602061394b5f395f51905f52602052209060018060a01b03165f52602052602060ff60405f2054166040519015158152f35b50346103c157806003193601126103c15760405180602060035491828152018091600385527fc2575a0e9e593c00f959f8c92f12db2869c3395a3b0502d05e2516446f71f85b90855b81811061070057505050826106bf910383611433565b604051928392602084019060208552518091526040840192915b8181106106e7575050500390f35b82518452859450602093840193909201916001016106d9565b82548452602090930192600192830192016106a9565b50346103c157806003193601126103c15761072f61153e565b610737611517565b600160ff195f51602061396b5f395f51905f525416175f51602061396b5f395f51905f52557f62e78cea01bee320cd4e420270b5ea74000d11b0c9f74754ebdbfc544b05a2586020604051338152a180f35b50346103c15760a03660031901126103c1576107a36113c5565b6107ab6113db565b6044356001600160a01b038116908190036103bf576084359167ffffffffffffffff83116103bb57366023840112156103bb57826004013567ffffffffffffffff8111610b03576040519361080660208360051b0186611433565b8185526024602086019260061b82010190368211610aff57602401915b818310610a87575050505f51602061398b5f395f51905f52549360ff8560401c16159467ffffffffffffffff811680159081610a7f575b6001149081610a75575b159081610a6c575b50610a5d5767ffffffffffffffff1981166001175f51602061398b5f395f51905f525585610a31575b5061089e611d39565b6108a6611d39565b6108ae611d39565b6001600160a01b0316906108c1826115d4565b506108cb82611683565b506001600160a01b0316906108df82611683565b506001600160601b0360a01b8654161785556001600160601b0360a01b60015416176001556001600160601b0360a01b6002541617600255610922606435611cdb565b50825b81518110156109d05760208160051b8301015160208101805160038110156109bc5761095a5763a1e9dd9d60e01b8652600486fd5b815161096e906001600160a01b03166114d2565b519060038210156109a857516001600160a01b03168552600660205260408520805460ff191660ff92909216919091179055600101610925565b634e487b7160e01b86526021600452602486fd5b634e487b7160e01b87526021600452602487fd5b50506109d95780f35b68ff0000000000000000195f51602061398b5f395f51905f5254165f51602061398b5f395f51905f52557fc7f505b2f371ae2175ee4913f4499e1f2633a7b5936321eed1cdaeb6115181d2602060405160018152a180f35b68ffffffffffffffffff191668010000000000000001175f51602061398b5f395f51905f52555f610895565b63f92ee8a960e01b8752600487fd5b9050155f61086c565b303b159150610864565b87915061085a565b604083360312610aff57604051906040820182811067ffffffffffffffff821117610aeb5760405283356001600160a01b0381168103610ae75782526020840135906003821015610ae75782602092836040950152815201920191610823565b8980fd5b634e487b7160e01b8a52604160045260248afd5b8780fd5b634e487b7160e01b86526041600452602486fd5b50346103c157806003193601126103c157602060ff5f51602061396b5f395f51905f5254166040519015158152f35b50346103c157806003193601126103c1577f00000000000000000000000000000000000000000000000000000000000000006001600160a01b03163003610b9e5760206040515f51602061392b5f395f51905f528152f35b63703e46dd60e11b8152600490fd5b5060403660031901126103c157610bc26113c5565b6024359067ffffffffffffffff821161035057366023830112156103505781600401359083610bf083611469565b93610bfe6040519586611433565b8385526020850193366024828401011161035057806024602093018637850101526001600160a01b037f000000000000000000000000000000000000000000000000000000000000000016308114908115610e12575b50610e03578380525f51602061394b5f395f51905f5260209081526040808620335f908152925290205460ff1615610deb576040516352d1902d60e01b81526001600160a01b0382169390602081600481885afa869181610db3575b50610cc957634c9c8ce360e01b86526004859052602486fd5b93845f51602061392b5f395f51905f52879603610da15750823b15610d8f575f51602061392b5f395f51905f5280546001600160a01b031916821790558491907fbc7cd75a20ee27fd9adebab32041f755214dbc6bffa90cc0225b39da2e5c2d3b8380a2805115610d74576104309382915190845af43d15610d6c573d91610d5083611469565b92610d5e6040519485611433565b83523d85602085013e611dbc565b606091611dbc565b5050505034610d805780f35b63b398979f60e01b8152600490fd5b634c9c8ce360e01b8552600452602484fd5b632a87526960e21b8652600452602485fd5b9091506020813d602011610de3575b81610dcf60209383611433565b81010312610ddf5751905f610cb0565b5f80fd5b3d9150610dc2565b63e2517d3f60e01b8452336004526024849052604484fd5b63703e46dd60e11b8452600484fd5b5f51602061392b5f395f51905f52546001600160a01b0316141590505f610c54565b50346103c15760203660031901126103c1576020610e5f6004355f52600460205260405f2054151590565b6040519015158152f35b50346103c157806003193601126103c157610e8261153e565b5f51602061396b5f395f51905f525460ff811615610eda5760ff19165f51602061396b5f395f51905f52557f5db9ee0a495bf2e6ff9c91a7834c1ba4fdd244a5e8aa4e537bd38aeae4b073aa6020604051338152a180f35b638dfc202b60e01b8252600482fd5b50346103c157806003193601126103c1576002546040516001600160a01b039091168152602090f35b50346103c15760203660031901126103c157610f2c611517565b60405161043d8082019082821067ffffffffffffffff831117610fc3576060918391611e1b8339308152600435602082015233604082015203019082f08015610fb6576020906001600160a01b0316610f8481611c7d565b507f9d5f66d985a12f505753a5f6417ed3c4ec6e68963ee0119770dda415f0d14ad082604051838152a1604051908152f35b50604051903d90823e3d90fd5b634e487b7160e01b84526041600452602484fd5b50346103c15760403660031901126103c157610ff16113db565b336001600160a01b0382160361100d5761043090600435611be1565b63334bd91960e11b8252600482fd5b50346103c15760403660031901126103c15760043560243567ffffffffffffffff811161035057366023820112156103505780600401359167ffffffffffffffff83116103bf57602482019160248436920101116103bf576002546001600160a01b031633036111545761109b815f52600460205260405f2054151590565b156110c25750906110ab91611a4c565b156110b35780f35b637c6953f960e01b8152600490fd5b8354604051635aa6e67560e01b81529190602090839060049082906001600160a01b03165afa918215611149578592611115575b500361110657906110ab916117d4565b638154374b60e01b8352600483fd5b9091506020813d602011611141575b8161113160209383611433565b81010312610ddf5751905f6110f6565b3d9150611124565b6040513d87823e3d90fd5b636edaef2f60e11b8452600484fd5b50346103c15760403660031901126103c1576104306004356111836113db565b906111a9610426825f525f51602061394b5f395f51905f52602052600160405f20015490565b611730565b50346103c15760203660031901126103c15760206111e66004355f525f51602061394b5f395f51905f52602052600160405f20015490565b604051908152f35b506080366003190112610ddf576112036113c5565b602435906064356001600160a01b03811690819003610ddf57611224611517565b611239815f52600860205260405f2054151590565b1561129257803b15610ddf575f600491604051928380926314b0812960e11b825234905af1801561128757611272575b50610483611517565b61127f9193505f90611433565b5f915f611269565b6040513d5f823e3d90fd5b631e37e19560e31b5f5260045ffd5b34610ddf575f366003190112610ddf5760405180602060075491828152019060075f527fa66cc928b5edb82af9bd49922954155ab7b0942694bea4ce44661d9a8736c688905f5b8181106112ff576105058561058481870382611433565b82548452602090930192600192830192016112e8565b34610ddf576020366003190112610ddf576020610e5f6001600160a01b0361133b6113c5565b165f52600860205260405f2054151590565b34610ddf576020366003190112610ddf5760043563ffffffff60e01b8116809103610ddf57602090637965db0b60e01b8114908115611392575b506040519015158152f35b6301ffc9a760e01b14905082611387565b34610ddf575f366003190112610ddf575f546001600160a01b03168152602090f35b600435906001600160a01b0382168203610ddf57565b602435906001600160a01b0382168203610ddf57565b60206040818301928281528451809452019201905f5b8181106114145750505090565b82516001600160a01b0316845260209384019390920191600101611407565b90601f8019910116810190811067ffffffffffffffff82111761145557604052565b634e487b7160e01b5f52604160045260245ffd5b67ffffffffffffffff811161145557601f01601f191660200190565b805180835260209291819084018484015e5f828201840152601f01601f1916010190565b80548210156114be575f5260205f2001905f90565b634e487b7160e01b5f52603260045260245ffd5b600554600160401b811015611455578060016114f3920160055560056114a9565b81546001600160a01b0393841660039290921b91821b9390911b1916919091179055565b60ff5f51602061396b5f395f51905f52541661152f57565b63d93c066560e01b5f5260045ffd5b335f9081527f2222dce04fae1e25cd76e9391151ad9e0187ef92144ac6ce9e4e09f2c453b751602052604090205460ff161561157657565b63e2517d3f60e01b5f5233600452600160245260445ffd5b5f8181525f51602061394b5f395f51905f526020908152604080832033845290915290205460ff16156115be5750565b63e2517d3f60e01b5f523360045260245260445ffd5b6001600160a01b0381165f9081527fb7db2dd08fcb62d0c9e08c51941cae53c267786a0b75803fb7960902fc8ef97d602052604090205460ff1661167e576001600160a01b03165f8181527fb7db2dd08fcb62d0c9e08c51941cae53c267786a0b75803fb7960902fc8ef97d60205260408120805460ff191660011790553391907f2f8788117e7eff1d82e926ec794901d17c78024a50270940304540a733656f0d8180a4600190565b505f90565b6001600160a01b0381165f9081527f2222dce04fae1e25cd76e9391151ad9e0187ef92144ac6ce9e4e09f2c453b751602052604090205460ff1661167e576001600160a01b03165f8181527f2222dce04fae1e25cd76e9391151ad9e0187ef92144ac6ce9e4e09f2c453b75160205260408120805460ff191660019081179091553392917f2f8788117e7eff1d82e926ec794901d17c78024a50270940304540a733656f0d9080a4600190565b5f8181525f51602061394b5f395f51905f52602090815260408083206001600160a01b038616845290915290205460ff166117ce575f8181525f51602061394b5f395f51905f52602090815260408083206001600160a01b0395909516808452949091528120805460ff19166001179055339291907f2f8788117e7eff1d82e926ec794901d17c78024a50270940304540a733656f0d9080a4600190565b50505f90565b9080156117ce5781358060f81c9060028211611a44578115611a01575b5060018114611869575b60021461180a575b5050600190565b60150361167e57602060017f5a0ce24b3c8320d1e5752a55b3591e56948cfbdf1141a03c84c9bf5c5426fbbd92013560601c611845816114d2565b805f526006825260405f20600260ff19825416179055604051908152a15f80611803565b604282036119fa576001830135906021840135604185013560f81c92805f1a600181101590816119ee575b50156119d857815f1a600181101590816119e2575b50156119d8576118d56118f5919060405191604083016040525f8352601f8301525f6020835184010152565b919060405191604083016040525f8352601f8301525f6020835184010152565b6040516116d380820182811067ffffffffffffffff8211176114555782916122588339308152608060208201528660606119436119356080850189611485565b848103604086015287611485565b92015203905ff0918215611287576002947fe33b63fcfd1b64d815ab234404f182545cc37c539f628735dffb5dd641a6b81d936119ba936119c8916001600160a01b0316611990816114d2565b5f52600660205260405f20600160ff19825416179055604051948594606086526060860190611485565b908482036020860152611485565b9060408301520390a190506117fb565b5050505050505f90565b601f915011155f6118a9565b601f915011155f611894565b5050505f90565b60218303611a4457602081611a367fc6b4ec1bc7a17331ef296e0810039347563e90c3fa496b4de270f6c5ff345abe93611cdb565b50604051908152a15f6117f1565b505050505f90565b60685f92036117ce57602081013560601c603482013560601c91604881013590835f52600660205260ff60405f2054166003811015611bcd5780611a995763a1e9dd9d60e01b8652600486fd5b909192939450600181145f14611b1e575060405163a9059cbb60e01b6020808301919091526001600160a01b0385166024830152604480830185905282527fabdd326df16eff74bb67e4a6b3d6372ceba76796f256a7b7f8577108cf5db287929091611b1090611b0a606482611433565b87611d64565b6040519384523592a4600190565b600214611b4f575b60207fabdd326df16eff74bb67e4a6b3d6372ceba76796f256a7b7f8577108cf5db28791611b10565b833b15610ddf576040516340c10f1960e01b81526001600160a01b038416600482015260248101839052905f8260448183895af1908115611287577fabdd326df16eff74bb67e4a6b3d6372ceba76796f256a7b7f8577108cf5db28792602092611bbd575b50915050611b26565b5f611bc791611433565b5f611bb4565b634e487b7160e01b5f52602160045260245ffd5b5f8181525f51602061394b5f395f51905f52602090815260408083206001600160a01b038616845290915290205460ff16156117ce575f8181525f51602061394b5f395f51905f52602090815260408083206001600160a01b0395909516808452949091528120805460ff19169055339291907ff6391f5c32d9c69d2a47ea670b442974b53935d1edc7fd64eb21e047a839171b9080a4600190565b805f52600860205260405f2054155f1461167e57600754600160401b81101561145557806001611cb2920160075560076114a9565b81549060031b9083821b915f19901b1916179055600754905f52600860205260405f2055600190565b805f52600460205260405f2054155f1461167e57600354600160401b81101561145557806001611d10920160035560036114a9565b81549060031b9083821b915f19901b1916179055600354905f52600460205260405f2055600190565b60ff5f51602061398b5f395f51905f525460401c1615611d5557565b631afcd79f60e31b5f5260045ffd5b905f602091828151910182855af115611287575f513d611db357506001600160a01b0381163b155b611d935750565b635274afe760e01b5f9081526001600160a01b0391909116600452602490fd5b60011415611d8c565b90611de05750805115611dd157805190602001fd5b63d6bda27560e01b5f5260045ffd5b81511580611e11575b611df1575090565b639996b31560e01b5f9081526001600160a01b0391909116600452602490fd5b50803b15611de956fe60a0346100e757601f61043d38819003918201601f19168301916001600160401b038311848410176100eb578084926060946040528339810103126100e757610047816100ff565b602082015190916001600160a01b0390610063906040016100ff565b169182156100d4575f80546001600160a01b031981168517825560405194916001600160a01b03909116907f8be0079c531659141344cd1fd0a4f28419497f9722a3daafe3b4186f6b6457e09080a36080526001556103299081610114823960805181818161014c01526102000152f35b631e4fbdf760e01b5f525f60045260245ffd5b5f80fd5b634e487b7160e01b5f52604160045260245ffd5b51906001600160a01b03821682036100e75756fe60806040526004361015610011575f80fd5b5f3560e01c806329610252146101f357806369fe0e2d146101d2578063715018a61461017b57806386ea825c146101375780638da5cb5b14610110578063ddca3f43146100f35763f2fde38b14610066575f80fd5b346100ef5760203660031901126100ef576004356001600160a01b038116908190036100ef57610094610303565b80156100dc575f80546001600160a01b03198116831782556001600160a01b0316907f8be0079c531659141344cd1fd0a4f28419497f9722a3daafe3b4186f6b6457e09080a3005b631e4fbdf760e01b5f525f60045260245ffd5b5f80fd5b346100ef575f3660031901126100ef576020600154604051908152f35b346100ef575f3660031901126100ef575f546040516001600160a01b039091168152602090f35b346100ef575f3660031901126100ef576040517f00000000000000000000000000000000000000000000000000000000000000006001600160a01b03168152602090f35b346100ef575f3660031901126100ef57610193610303565b5f80546001600160a01b0319811682556001600160a01b03167f8be0079c531659141344cd1fd0a4f28419497f9722a3daafe3b4186f6b6457e08280a3005b346100ef5760203660031901126100ef576101eb610303565b600435600155005b5f3660031901126100ef577f00000000000000000000000000000000000000000000000000000000000000006001600160a01b031633036102f45760015434036102e5575f8080803460018060a01b038254165af13d156102e0573d67ffffffffffffffff81116102cc5760405190601f8101601f19908116603f0116820167ffffffffffffffff8111838210176102cc5760405281525f60203d92013e5b156102bd577faaeea0b595e409578c26dd16fa1bdb3a29a4d874694ecef3ca96376940f5fbfb5f80a1005b6353048b4960e11b5f5260045ffd5b634e487b7160e01b5f52604160045260245ffd5b610292565b631fbbed9560e01b5f5260045ffd5b63064917ff60e11b5f5260045ffd5b5f546001600160a01b0316330361031657565b63118cdaa760e01b5f523360045260245ffd61018080604052346104a2576116d3803803809161001d82856104a6565b83398101906080818303126104a25780516001600160a01b038116908190036104a25760208201516001600160401b0381116104a2578361005f9184016104c9565b60408301519093906001600160401b0381116104a2576060916100839185016104c9565b9201519160ff831683036104a2576040938451926100a186856104a6565b60018452603160f81b6020850190815282519093906001600160401b0381116103b257600354600181811c91168015610498575b602082101461039457601f8111610435575b50806020601f82116001146103d1575f916103c6575b508160011b915f199060031b1c1916176003555b8051906001600160401b0382116103b25760045490600182811c921680156103a8575b60208310146103945781601f849311610326575b50602090601f83116001146102c0575f926102b5575b50508160011b915f199060031b1c1916176004555b80156102a257600580546001600160a01b0319811683179091556001600160a01b03167f8be0079c531659141344cd1fd0a4f28419497f9722a3daafe3b4186f6b6457e05f80a36101c38161051e565b610120526101d0836106a5565b6101405260208151910120918260e05251902080610100524660a05283519060208201927f8b73c3c69bb8fe3d512ecc4cf759cc79239f7b179b0ffacaa9a75d522b39400f84528583015260608201524660808201523060a082015260a0815261023b60c0826104a6565b5190206080523060c0526101605251610ef590816107de823960805181610b69015260a05181610c26015260c05181610b33015260e05181610bb801526101005181610bde0152610120518161045f015261014051816104880152610160518161073d0152f35b631e4fbdf760e01b5f525f60045260245ffd5b015190505f8061015e565b60045f9081528281209350601f198516905b81811061030e57509084600195949392106102f6575b505050811b01600455610173565b01515f1960f88460031b161c191690555f80806102e8565b929360206001819287860151815501950193016102d2565b60045f529091507f8a35acfbc15ff81a39ae7d344fd709f28e8600b4aa8c65c6b64bfe7fe36bd19b601f840160051c8101916020851061038a575b90601f859493920160051c01905b81811061037c5750610148565b5f815584935060010161036f565b9091508190610361565b634e487b7160e01b5f52602260045260245ffd5b91607f1691610134565b634e487b7160e01b5f52604160045260245ffd5b90508401515f6100fd565b60035f9081528181209250601f198416905b81811061041d57509083600194939210610405575b5050811b01600355610111565b8601515f1960f88460031b161c191690555f806103f8565b9192602060018192868b0151815501940192016103e3565b60035f527fc2575a0e9e593c00f959f8c92f12db2869c3395a3b0502d05e2516446f71f85b601f830160051c8101916020841061048e575b601f0160051c01905b81811061048357506100e7565b5f8155600101610476565b909150819061046d565b90607f16906100d5565b5f80fd5b601f909101601f19168101906001600160401b038211908210176103b257604052565b81601f820112156104a2578051906001600160401b0382116103b257604051926104fd601f8401601f1916602001856104a6565b828452602083830101116104a257815f9260208093018386015e8301015290565b908151602081105f14610598575090601f815111610558576020815191015160208210610549571790565b5f198260200360031b1b161790565b604460209160405192839163305a27a960e01b83528160048401528051918291826024860152018484015e5f828201840152601f01601f19168101030190fd5b6001600160401b0381116103b257600654600181811c9116801561069b575b602082101461039457601f8111610668575b50602092601f821160011461060757928192935f926105fc575b50508160011b915f199060031b1c19161760065560ff90565b015190505f806105e3565b601f1982169360065f52805f20915f5b8681106106505750836001959610610638575b505050811b0160065560ff90565b01515f1960f88460031b161c191690555f808061062a565b91926020600181928685015181550194019201610617565b60065f52601f60205f20910160051c810190601f830160051c015b81811061069057506105c9565b5f8155600101610683565b90607f16906105b7565b908151602081105f146106d0575090601f815111610558576020815191015160208210610549571790565b6001600160401b0381116103b257600754600181811c911680156107d3575b602082101461039457601f81116107a0575b50602092601f821160011461073f57928192935f92610734575b50508160011b915f199060031b1c19161760075560ff90565b015190505f8061071b565b601f1982169360075f52805f20915f5b8681106107885750836001959610610770575b505050811b0160075560ff90565b01515f1960f88460031b161c191690555f8080610762565b9192602060018192868501518155019401920161074f565b60075f52601f60205f20910160051c810190601f830160051c015b8181106107c85750610701565b5f81556001016107bb565b90607f16906106ef56fe6080806040526004361015610012575f80fd5b5f3560e01c90816306fdde03146107dc57508063095ea7b3146107b657806318160ddd1461079957806323b872dd14610761578063313ce567146107245780633644e5151461070257806340c10f191461065657806342966c681461063957806370a0823114610602578063715018a6146105a757806379cc6790146105775780637ecebe001461053f57806384b0196e146104475780638da5cb5b1461041f57806395d89b411461033d578063a9059cbb1461030c578063d505accf146101c7578063dd62ed3e146101775763f2fde38b146100ed575f80fd5b34610173576020366003190112610173576101066108a2565b61010e610c4c565b6001600160a01b0316801561016057600580546001600160a01b0319811683179091556001600160a01b03167f8be0079c531659141344cd1fd0a4f28419497f9722a3daafe3b4186f6b6457e05f80a3005b631e4fbdf760e01b5f525f60045260245ffd5b5f80fd5b34610173576040366003190112610173576101906108a2565b6101986108b8565b6001600160a01b039182165f908152600160209081526040808320949093168252928352819020549051908152f35b346101735760e0366003190112610173576101e06108a2565b6101e86108b8565b604435906064359260843560ff81168103610173578442116102f9576102bc6102c59160018060a01b03841696875f52600860205260405f20908154916001830190556040519060208201927f6e71edae12b1b97f4d1f60370fef10105fa2faae0126114a169c64845d6126c984528a604084015260018060a01b038916606084015289608084015260a083015260c082015260c0815261028a60e082610987565b519020610295610b30565b906040519161190160f01b83526002830152602282015260c43591604260a4359220610df4565b90929192610e81565b6001600160a01b03168481036102e257506102e09350610cf7565b005b84906325c0072360e11b5f5260045260245260445ffd5b8463313c898160e11b5f5260045260245ffd5b34610173576040366003190112610173576103326103286108a2565b6024359033610a86565b602060405160018152f35b34610173575f366003190112610173576040515f60045461035d816108ce565b80845290600181169081156103fb575060011461039d575b6103998361038581850382610987565b60405191829160208352602083019061087e565b0390f35b60045f9081527f8a35acfbc15ff81a39ae7d344fd709f28e8600b4aa8c65c6b64bfe7fe36bd19b939250905b8082106103e157509091508101602001610385610375565b9192600181602092548385880101520191019092916103c9565b60ff191660208086019190915291151560051b840190910191506103859050610375565b34610173575f366003190112610173576005546040516001600160a01b039091168152602090f35b34610173575f366003190112610173576104e36104837f0000000000000000000000000000000000000000000000000000000000000000610d5a565b6104ac7f0000000000000000000000000000000000000000000000000000000000000000610dbd565b60206104f1604051926104bf8385610987565b5f84525f368137604051958695600f60f81b875260e08588015260e087019061087e565b90858203604087015261087e565b4660608501523060808501525f60a085015283810360c08501528180845192838152019301915f5b82811061052857505050500390f35b835185528695509381019392810192600101610519565b34610173576020366003190112610173576001600160a01b036105606108a2565b165f526008602052602060405f2054604051908152f35b34610173576040366003190112610173576102e06105936108a2565b602435906105a28233836109bd565b610c73565b34610173575f366003190112610173576105bf610c4c565b600580546001600160a01b031981169091555f906001600160a01b03167f8be0079c531659141344cd1fd0a4f28419497f9722a3daafe3b4186f6b6457e08280a3005b34610173576020366003190112610173576001600160a01b036106236108a2565b165f525f602052602060405f2054604051908152f35b34610173576020366003190112610173576102e060043533610c73565b346101735760403660031901126101735761066f6108a2565b6024359061067b610c4c565b6001600160a01b03169081156106ef57600254908082018092116106db5760207fddf252ad1be2c89b69c2b068fc378daa952ba7f163c4a11628f55a4df523b3ef915f9360025584845283825260408420818154019055604051908152a3005b634e487b7160e01b5f52601160045260245ffd5b63ec442f0560e01b5f525f60045260245ffd5b34610173575f36600319011261017357602061071c610b30565b604051908152f35b34610173575f36600319011261017357602060405160ff7f0000000000000000000000000000000000000000000000000000000000000000168152f35b346101735760603660031901126101735761033261077d6108a2565b6107856108b8565b604435916107948333836109bd565b610a86565b34610173575f366003190112610173576020600254604051908152f35b34610173576040366003190112610173576103326107d26108a2565b6024359033610cf7565b34610173575f366003190112610173575f6003546107f9816108ce565b80845290600181169081156103fb5750600114610820576103998361038581850382610987565b60035f9081527fc2575a0e9e593c00f959f8c92f12db2869c3395a3b0502d05e2516446f71f85b939250905b80821061086457509091508101602001610385610375565b91926001816020925483858801015201910190929161084c565b805180835260209291819084018484015e5f828201840152601f01601f1916010190565b600435906001600160a01b038216820361017357565b602435906001600160a01b038216820361017357565b90600182811c921680156108fc575b60208310146108e857565b634e487b7160e01b5f52602260045260245ffd5b91607f16916108dd565b5f9291815491610915836108ce565b808352926001811690811561096a575060011461093157505050565b5f9081526020812093945091925b838310610950575060209250010190565b60018160209294939454838587010152019101919061093f565b915050602093945060ff929192191683830152151560051b010190565b90601f8019910116810190811067ffffffffffffffff8211176109a957604052565b634e487b7160e01b5f52604160045260245ffd5b6001600160a01b039081165f818152600160209081526040808320948616835293905291909120549291905f1984106109f7575b50505050565b828410610a63578015610a50576001600160a01b03821615610a3d575f52600160205260405f209060018060a01b03165f5260205260405f20910390555f8080806109f1565b634a1406b160e11b5f525f60045260245ffd5b63e602df0560e01b5f525f60045260245ffd5b508290637dc7a0d960e11b5f5260018060a01b031660045260245260445260645ffd5b6001600160a01b0316908115610b1d576001600160a01b03169182156106ef57815f525f60205260405f2054818110610b0457817fddf252ad1be2c89b69c2b068fc378daa952ba7f163c4a11628f55a4df523b3ef92602092855f525f84520360405f2055845f525f825260405f20818154019055604051908152a3565b8263391434e360e21b5f5260045260245260445260645ffd5b634b637e8f60e11b5f525f60045260245ffd5b307f00000000000000000000000000000000000000000000000000000000000000006001600160a01b03161480610c23575b15610b8b577f000000000000000000000000000000000000000000000000000000000000000090565b60405160208101907f8b73c3c69bb8fe3d512ecc4cf759cc79239f7b179b0ffacaa9a75d522b39400f82527f000000000000000000000000000000000000000000000000000000000000000060408201527f000000000000000000000000000000000000000000000000000000000000000060608201524660808201523060a082015260a08152610c1d60c082610987565b51902090565b507f00000000000000000000000000000000000000000000000000000000000000004614610b62565b6005546001600160a01b03163303610c6057565b63118cdaa760e01b5f523360045260245ffd5b9091906001600160a01b03168015610b1d57805f525f60205260405f2054838110610cdd576020845f94957fddf252ad1be2c89b69c2b068fc378daa952ba7f163c4a11628f55a4df523b3ef938587528684520360408620558060025403600255604051908152a3565b915063391434e360e21b5f5260045260245260445260645ffd5b6001600160a01b0316908115610a50576001600160a01b0316918215610a3d5760207f8c5be1e5ebec7d5bd14f71427d1e84f3dd0314c0f7b2291e5b200ac8c7c3b92591835f526001825260405f20855f5282528060405f2055604051908152a3565b60ff8114610da05760ff811690601f8211610d915760405191610d7e604084610987565b6020808452838101919036833783525290565b632cd44ac360e21b5f5260045ffd5b50604051610dba81610db3816006610906565b0382610987565b90565b60ff8114610de15760ff811690601f8211610d915760405191610d7e604084610987565b50604051610dba81610db3816007610906565b91907f7fffffffffffffffffffffffffffffff5d576e7357a4501ddfe92f46681b20a08411610e76579160209360809260ff5f9560405194855216868401526040830152606082015282805260015afa15610e6b575f516001600160a01b03811615610e6157905f905f90565b505f906001905f90565b6040513d5f823e3d90fd5b5050505f9160039190565b6004811015610ee15780610e93575050565b60018103610eaa5763f645eedf60e01b5f5260045ffd5b60028103610ec5575063fce698f760e01b5f5260045260245ffd5b600314610ecf5750565b6335e2f38360e21b5f5260045260245ffd5b634e487b7160e01b5f52602160045260245ffd360894a13ba1a3210667c828492db98dca3e2076cc3735a920a3ca505d382bbc02dd7bc7dec4dceedda775e58dd541e08a116c6c53815c0bd028192f7b626800cd5ed15c6e187e77e9aee88184c21f4f2182ab5827cb3b7e07fbedcd63f03300f0c57e16840df040f15088dc2f81fe391c3923bec73e23a9662efc9c229c6a00f0c57e16840df040f15088dc2f81fe391c3923bec73e23a9662efc9c229c6a00","linkReferences":{}},"methodIdentifiers":{"DEFAULT_ADMIN_ROLE()":"a217fddf","PAUSER_ROLE()":"e63ab1e9","UPGRADE_INTERFACE_VERSION()":"ad3cb1cc","bridgingPayments()":"109ec2e7","createBridgingPayment(uint256)":"38ff319f","getRoleAdmin(bytes32)":"248a9ca3","getTokenType(address)":"93272baf","governanceAdmin()":"0058f6b8","governancePauser()":"c81eb797","grantRole(bytes32,address)":"2f2ff15d","handleMessage(bytes32,bytes)":"302ac5d0","hasRole(bytes32,address)":"91d14854","initialize(address,address,address,bytes32,(address,uint8)[])":"763b754a","isBridgingPayment(address)":"0c9d9b97","isVftManager(bytes32)":"4e689539","messageQueue()":"3b70c18a","pause()":"8456cb59","paused()":"5c975abb","proxiableUUID()":"52d1902d","renounceRole(bytes32,address)":"36568abe","requestBridging(address,uint256,bytes32)":"c305870c","requestBridgingPayingFee(address,uint256,bytes32,address)":"1e324b52","requestBridgingPayingFeeWithPermit(address,uint256,bytes32,uint256,uint8,bytes32,bytes32,address)":"f6cdd9cc","revokeRole(bytes32,address)":"d547741f","supportsInterface(bytes4)":"01ffc9a7","tokens()":"9d63848a","unpause()":"3f4ba83a","upgradeToAndCall(address,bytes)":"4f1ef286","vftManagers()":"87be40b1"},"storageLayout":{"storage":[{"astId":56004,"contract":"src/ERC20Manager.sol:ERC20Manager","label":"_governanceAdmin","offset":0,"slot":"0","type":"t_contract(IGovernance)58837"},{"astId":56007,"contract":"src/ERC20Manager.sol:ERC20Manager","label":"_governancePauser","offset":0,"slot":"1","type":"t_contract(IGovernance)58837"},{"astId":56009,"contract":"src/ERC20Manager.sol:ERC20Manager","label":"_messageQueue","offset":0,"slot":"2","type":"t_address"},{"astId":56012,"contract":"src/ERC20Manager.sol:ERC20Manager","label":"_vftManagers","offset":0,"slot":"3","type":"t_struct(Bytes32Set)50667_storage"},{"astId":56015,"contract":"src/ERC20Manager.sol:ERC20Manager","label":"_tokens","offset":0,"slot":"5","type":"t_array(t_address)dyn_storage"},{"astId":56020,"contract":"src/ERC20Manager.sol:ERC20Manager","label":"_tokenType","offset":0,"slot":"6","type":"t_mapping(t_address,t_enum(TokenType)58485)"},{"astId":56023,"contract":"src/ERC20Manager.sol:ERC20Manager","label":"_bridgingPayments","offset":0,"slot":"7","type":"t_struct(AddressSet)50801_storage"}],"types":{"t_address":{"encoding":"inplace","label":"address","numberOfBytes":"20"},"t_array(t_address)dyn_storage":{"encoding":"dynamic_array","label":"address[]","numberOfBytes":"32","base":"t_address"},"t_array(t_bytes32)dyn_storage":{"encoding":"dynamic_array","label":"bytes32[]","numberOfBytes":"32","base":"t_bytes32"},"t_bytes32":{"encoding":"inplace","label":"bytes32","numberOfBytes":"32"},"t_contract(IGovernance)58837":{"encoding":"inplace","label":"contract IGovernance","numberOfBytes":"20"},"t_enum(TokenType)58485":{"encoding":"inplace","label":"enum IERC20Manager.TokenType","numberOfBytes":"1"},"t_mapping(t_address,t_enum(TokenType)58485)":{"encoding":"mapping","key":"t_address","label":"mapping(address => enum IERC20Manager.TokenType)","numberOfBytes":"32","value":"t_enum(TokenType)58485"},"t_mapping(t_bytes32,t_uint256)":{"encoding":"mapping","key":"t_bytes32","label":"mapping(bytes32 => uint256)","numberOfBytes":"32","value":"t_uint256"},"t_struct(AddressSet)50801_storage":{"encoding":"inplace","label":"struct EnumerableSet.AddressSet","numberOfBytes":"64","members":[{"astId":50800,"contract":"src/ERC20Manager.sol:ERC20Manager","label":"_inner","offset":0,"slot":"0","type":"t_struct(Set)50430_storage"}]},"t_struct(Bytes32Set)50667_storage":{"encoding":"inplace","label":"struct EnumerableSet.Bytes32Set","numberOfBytes":"64","members":[{"astId":50666,"contract":"src/ERC20Manager.sol:ERC20Manager","label":"_inner","offset":0,"slot":"0","type":"t_struct(Set)50430_storage"}]},"t_struct(Set)50430_storage":{"encoding":"inplace","label":"struct EnumerableSet.Set","numberOfBytes":"64","members":[{"astId":50425,"contract":"src/ERC20Manager.sol:ERC20Manager","label":"_values","offset":0,"slot":"0","type":"t_array(t_bytes32)dyn_storage"},{"astId":50429,"contract":"src/ERC20Manager.sol:ERC20Manager","label":"_positions","offset":0,"slot":"1","type":"t_mapping(t_bytes32,t_uint256)"}]},"t_uint256":{"encoding":"inplace","label":"uint256","numberOfBytes":"32"}}},"id":83}