{"abi":[{"type":"constructor","inputs":[{"name":"message_queue","type":"address","internalType":"address"},{"name":"vft_manager","type":"bytes32","internalType":"bytes32"}],"stateMutability":"nonpayable"},{"type":"function","name":"getTokenSupplyType","inputs":[{"name":"token","type":"address","internalType":"address"}],"outputs":[{"name":"","type":"uint8","internalType":"enum IERC20Manager.SupplyType"}],"stateMutability":"view"},{"type":"function","name":"processVaraMessage","inputs":[{"name":"sender","type":"bytes32","internalType":"bytes32"},{"name":"payload","type":"bytes","internalType":"bytes"}],"outputs":[],"stateMutability":"nonpayable"},{"type":"function","name":"requestBridging","inputs":[{"name":"token","type":"address","internalType":"address"},{"name":"amount","type":"uint256","internalType":"uint256"},{"name":"to","type":"bytes32","internalType":"bytes32"}],"outputs":[],"stateMutability":"nonpayable"},{"type":"function","name":"requestBridgingPayingFee","inputs":[{"name":"token","type":"address","internalType":"address"},{"name":"amount","type":"uint256","internalType":"uint256"},{"name":"to","type":"bytes32","internalType":"bytes32"},{"name":"bridgingPayment","type":"address","internalType":"address"}],"outputs":[],"stateMutability":"payable"},{"type":"function","name":"requestBridgingPayingFeeWithPermit","inputs":[{"name":"token","type":"address","internalType":"address"},{"name":"amount","type":"uint256","internalType":"uint256"},{"name":"to","type":"bytes32","internalType":"bytes32"},{"name":"deadline","type":"uint256","internalType":"uint256"},{"name":"v","type":"uint8","internalType":"uint8"},{"name":"r","type":"bytes32","internalType":"bytes32"},{"name":"s","type":"bytes32","internalType":"bytes32"},{"name":"bridgingPayment","type":"address","internalType":"address"}],"outputs":[],"stateMutability":"payable"},{"type":"event","name":"BridgingAccepted","inputs":[{"name":"to","type":"address","indexed":true,"internalType":"address"},{"name":"token","type":"address","indexed":true,"internalType":"address"},{"name":"amount","type":"uint256","indexed":false,"internalType":"uint256"}],"anonymous":false},{"type":"event","name":"BridgingRequested","inputs":[{"name":"from","type":"address","indexed":true,"internalType":"address"},{"name":"to","type":"bytes32","indexed":true,"internalType":"bytes32"},{"name":"token","type":"address","indexed":true,"internalType":"address"},{"name":"amount","type":"uint256","indexed":false,"internalType":"uint256"}],"anonymous":false},{"type":"error","name":"BadArguments","inputs":[]},{"type":"error","name":"BadVftManagerAddress","inputs":[]},{"type":"error","name":"NotAuthorized","inputs":[]},{"type":"error","name":"SafeERC20FailedOperation","inputs":[{"name":"token","type":"address","internalType":"address"}]},{"type":"error","name":"UnsupportedTokenSupply","inputs":[]}],"bytecode":{"object":"0x60c034607857601f61074b38819003918201601f19168301916001600160401b03831184841017607c5780849260409485528339810103126078578051906001600160a01b0382168203607857602001519060805260a0526040516106ba9081610091823960805181610249015260a051816102810152f35b5f80fd5b634e487b7160e01b5f52604160045260245ffdfe6080806040526004361015610012575f80fd5b5f905f3560e01c9081631e324b521461047357508063bd3f5138146101f8578063c305870c146101ce578063ca67d39c146101745763f6cdd9cc14610055575f80fd5b6101003660031901126101715761006a6104fd565b602435908260843560ff81168091036101625760e4356001600160a01b0381169081900361014957803b156101495782600491604051928380926314b0812960e11b825234905af190811561016657839161014d575b50506001600160a01b03831690813b1561014957829160e48392604051948593849263d505accf60e01b84523360048501523060248501528a60448501526064356064850152608484015260a43560a484015260c43560c48401525af1610134575b50506101319160443591610549565b80f35b8161013e91610513565b61014957825f610122565b8280fd5b8161015791610513565b61016257815f6100c0565b5080fd5b6040513d85823e3d90fd5b80fd5b5034610171576020366003190112610171576001600160a01b036101966104fd565b1681528060205260ff6040822054166040519060038110156101ba57602092508152f35b634e487b7160e01b83526021600452602483fd5b5034610171576060366003190112610171576101316101eb6104fd565b6044359060243590610549565b50346101715760403660031901126101715760243567ffffffffffffffff8111610162573660238201121561016257806004013567ffffffffffffffff8111610149573660248284010111610149577f00000000000000000000000000000000000000000000000000000000000000006001600160a01b031633036104645760488103610455577f000000000000000000000000000000000000000000000000000000000000000060043503610446578060141161014957602482013560601c90602881106103f457603883013560601c92604c0135906020602719820110610432575b508284528360205260ff604085205416600381101561041e576001810361036e575060405163a9059cbb60e01b6020808301919091526001600160a01b0384166024830152604480830184905282527f4751a265d168d11cf478e41f20d00d0fca3fe8395f8aadf30557232d69cf13cc9290916103649061035e606482610513565b86610662565b604051908152a380f35b15610403575b823b156103f4576040516340c10f1960e01b81526001600160a01b0383166004820152602481018290528490818160448183895af180156103f8576103df575b505060207f4751a265d168d11cf478e41f20d00d0fca3fe8395f8aadf30557232d69cf13cc91610364565b816103e991610513565b6103f457835f6103b4565b8380fd5b6040513d84823e3d90fd5b8284528360205260408420600260ff19825416179055610374565b634e487b7160e01b85526021600452602485fd5b60285f19916020030160031b1b165f6102dc565b6305e363e160e41b8352600483fd5b630b9cddcd60e11b8352600483fd5b63ea8e4eb560e01b8352600483fd5b905060803660031901126104f9576104896104fd565b906064356001600160a01b038116908190036104f957803b156104f957816004815f936314b0812960e11b825234905af180156104ee576104d7575b50610131906044359060243590610549565b6104e49192505f90610513565b5f906101316104c5565b6040513d5f823e3d90fd5b5f80fd5b600435906001600160a01b03821682036104f957565b90601f8019910116810190811067ffffffffffffffff82111761053557604052565b634e487b7160e01b5f52604160045260245ffd5b6001600160a01b03165f818152602081905260409020549092919060ff16600381101561064e57600281036105ee5750823b156104f95760405163079cc67960e41b8152336004820152602481018290525f8160448183885af180156104ee576105de575b505b6040519081527ff80de57fd7626baaff7d867494866703686569822c2326ae60b2515ede953c3a60203392a4565b5f6105e891610513565b5f6105ae565b15610633575b61062e6040516323b872dd60e01b602082015233602482015230604482015282606482015260648152610628608482610513565b84610662565b6105b0565b825f525f60205260405f20600160ff198254161790556105f4565b634e487b7160e01b5f52602160045260245ffd5b905f602091828151910182855af1156104ee575f513d6106b157506001600160a01b0381163b155b6106915750565b635274afe760e01b5f9081526001600160a01b0391909116600452602490fd5b6001141561068a56","linkReferences":{}},"methodIdentifiers":{"getTokenSupplyType(address)":"ca67d39c","processVaraMessage(bytes32,bytes)":"bd3f5138","requestBridging(address,uint256,bytes32)":"c305870c","requestBridgingPayingFee(address,uint256,bytes32,address)":"1e324b52","requestBridgingPayingFeeWithPermit(address,uint256,bytes32,uint256,uint8,bytes32,bytes32,address)":"f6cdd9cc"},"id":60}