{"abi":[{"type":"constructor","inputs":[],"stateMutability":"nonpayable"},{"type":"function","name":"DEFAULT_ADMIN_ROLE","inputs":[],"outputs":[{"name":"","type":"bytes32","internalType":"bytes32"}],"stateMutability":"view"},{"type":"function","name":"PAUSER_ROLE","inputs":[],"outputs":[{"name":"","type":"bytes32","internalType":"bytes32"}],"stateMutability":"view"},{"type":"function","name":"UPGRADE_INTERFACE_VERSION","inputs":[],"outputs":[{"name":"","type":"string","internalType":"string"}],"stateMutability":"view"},{"type":"function","name":"getRoleAdmin","inputs":[{"name":"role","type":"bytes32","internalType":"bytes32"}],"outputs":[{"name":"","type":"bytes32","internalType":"bytes32"}],"stateMutability":"view"},{"type":"function","name":"getTokenSupplyType","inputs":[{"name":"token","type":"address","internalType":"address"}],"outputs":[{"name":"","type":"uint8","internalType":"enum IERC20Manager.SupplyType"}],"stateMutability":"view"},{"type":"function","name":"grantRole","inputs":[{"name":"role","type":"bytes32","internalType":"bytes32"},{"name":"account","type":"address","internalType":"address"}],"outputs":[],"stateMutability":"nonpayable"},{"type":"function","name":"hasRole","inputs":[{"name":"role","type":"bytes32","internalType":"bytes32"},{"name":"account","type":"address","internalType":"address"}],"outputs":[{"name":"","type":"bool","internalType":"bool"}],"stateMutability":"view"},{"type":"function","name":"initialize","inputs":[{"name":"governanceAdmin","type":"address","internalType":"contract IGovernance"},{"name":"governancePauser","type":"address","internalType":"contract IGovernance"},{"name":"messageQueue","type":"address","internalType":"address"},{"name":"vftManager","type":"bytes32","internalType":"bytes32"},{"name":"tokens","type":"tuple[]","internalType":"struct IERC20Manager.TokenWithSupplyType[]","components":[{"name":"token","type":"address","internalType":"address"},{"name":"supplyType","type":"uint8","internalType":"enum IERC20Manager.SupplyType"}]}],"outputs":[],"stateMutability":"nonpayable"},{"type":"function","name":"pause","inputs":[],"outputs":[],"stateMutability":"nonpayable"},{"type":"function","name":"paused","inputs":[],"outputs":[{"name":"","type":"bool","internalType":"bool"}],"stateMutability":"view"},{"type":"function","name":"processMessage","inputs":[{"name":"source","type":"bytes32","internalType":"bytes32"},{"name":"payload","type":"bytes","internalType":"bytes"}],"outputs":[],"stateMutability":"nonpayable"},{"type":"function","name":"proxiableUUID","inputs":[],"outputs":[{"name":"","type":"bytes32","internalType":"bytes32"}],"stateMutability":"view"},{"type":"function","name":"renounceRole","inputs":[{"name":"role","type":"bytes32","internalType":"bytes32"},{"name":"callerConfirmation","type":"address","internalType":"address"}],"outputs":[],"stateMutability":"nonpayable"},{"type":"function","name":"requestBridging","inputs":[{"name":"token","type":"address","internalType":"address"},{"name":"amount","type":"uint256","internalType":"uint256"},{"name":"to","type":"bytes32","internalType":"bytes32"}],"outputs":[],"stateMutability":"nonpayable"},{"type":"function","name":"requestBridgingPayingFee","inputs":[{"name":"token","type":"address","internalType":"address"},{"name":"amount","type":"uint256","internalType":"uint256"},{"name":"to","type":"bytes32","internalType":"bytes32"},{"name":"bridgingPayment","type":"address","internalType":"address"}],"outputs":[],"stateMutability":"payable"},{"type":"function","name":"requestBridgingPayingFeeWithPermit","inputs":[{"name":"token","type":"address","internalType":"address"},{"name":"amount","type":"uint256","internalType":"uint256"},{"name":"to","type":"bytes32","internalType":"bytes32"},{"name":"deadline","type":"uint256","internalType":"uint256"},{"name":"v","type":"uint8","internalType":"uint8"},{"name":"r","type":"bytes32","internalType":"bytes32"},{"name":"s","type":"bytes32","internalType":"bytes32"},{"name":"bridgingPayment","type":"address","internalType":"address"}],"outputs":[],"stateMutability":"payable"},{"type":"function","name":"revokeRole","inputs":[{"name":"role","type":"bytes32","internalType":"bytes32"},{"name":"account","type":"address","internalType":"address"}],"outputs":[],"stateMutability":"nonpayable"},{"type":"function","name":"supportsInterface","inputs":[{"name":"interfaceId","type":"bytes4","internalType":"bytes4"}],"outputs":[{"name":"","type":"bool","internalType":"bool"}],"stateMutability":"view"},{"type":"function","name":"unpause","inputs":[],"outputs":[],"stateMutability":"nonpayable"},{"type":"function","name":"upgradeToAndCall","inputs":[{"name":"newImplementation","type":"address","internalType":"address"},{"name":"data","type":"bytes","internalType":"bytes"}],"outputs":[],"stateMutability":"payable"},{"type":"event","name":"BridgingAccepted","inputs":[{"name":"from","type":"bytes32","indexed":true,"internalType":"bytes32"},{"name":"to","type":"address","indexed":true,"internalType":"address"},{"name":"token","type":"address","indexed":true,"internalType":"address"},{"name":"amount","type":"uint256","indexed":false,"internalType":"uint256"}],"anonymous":false},{"type":"event","name":"BridgingRequested","inputs":[{"name":"from","type":"address","indexed":true,"internalType":"address"},{"name":"to","type":"bytes32","indexed":true,"internalType":"bytes32"},{"name":"token","type":"address","indexed":true,"internalType":"address"},{"name":"amount","type":"uint256","indexed":false,"internalType":"uint256"}],"anonymous":false},{"type":"event","name":"Initialized","inputs":[{"name":"version","type":"uint64","indexed":false,"internalType":"uint64"}],"anonymous":false},{"type":"event","name":"Paused","inputs":[{"name":"account","type":"address","indexed":false,"internalType":"address"}],"anonymous":false},{"type":"event","name":"RoleAdminChanged","inputs":[{"name":"role","type":"bytes32","indexed":true,"internalType":"bytes32"},{"name":"previousAdminRole","type":"bytes32","indexed":true,"internalType":"bytes32"},{"name":"newAdminRole","type":"bytes32","indexed":true,"internalType":"bytes32"}],"anonymous":false},{"type":"event","name":"RoleGranted","inputs":[{"name":"role","type":"bytes32","indexed":true,"internalType":"bytes32"},{"name":"account","type":"address","indexed":true,"internalType":"address"},{"name":"sender","type":"address","indexed":true,"internalType":"address"}],"anonymous":false},{"type":"event","name":"RoleRevoked","inputs":[{"name":"role","type":"bytes32","indexed":true,"internalType":"bytes32"},{"name":"account","type":"address","indexed":true,"internalType":"address"},{"name":"sender","type":"address","indexed":true,"internalType":"address"}],"anonymous":false},{"type":"event","name":"Unpaused","inputs":[{"name":"account","type":"address","indexed":false,"internalType":"address"}],"anonymous":false},{"type":"event","name":"Upgraded","inputs":[{"name":"implementation","type":"address","indexed":true,"internalType":"address"}],"anonymous":false},{"type":"error","name":"AccessControlBadConfirmation","inputs":[]},{"type":"error","name":"AccessControlUnauthorizedAccount","inputs":[{"name":"account","type":"address","internalType":"address"},{"name":"neededRole","type":"bytes32","internalType":"bytes32"}]},{"type":"error","name":"AddressEmptyCode","inputs":[{"name":"target","type":"address","internalType":"address"}]},{"type":"error","name":"ERC1967InvalidImplementation","inputs":[{"name":"implementation","type":"address","internalType":"address"}]},{"type":"error","name":"ERC1967NonPayable","inputs":[]},{"type":"error","name":"EnforcedPause","inputs":[]},{"type":"error","name":"ExpectedPause","inputs":[]},{"type":"error","name":"FailedCall","inputs":[]},{"type":"error","name":"InvalidInitialization","inputs":[]},{"type":"error","name":"InvalidPayload","inputs":[]},{"type":"error","name":"InvalidSender","inputs":[]},{"type":"error","name":"InvalidSource","inputs":[]},{"type":"error","name":"InvalidSupplyType","inputs":[]},{"type":"error","name":"NotInitializing","inputs":[]},{"type":"error","name":"SafeERC20FailedOperation","inputs":[{"name":"token","type":"address","internalType":"address"}]},{"type":"error","name":"UUPSUnauthorizedCallContext","inputs":[]},{"type":"error","name":"UUPSUnsupportedProxiableUUID","inputs":[{"name":"slot","type":"bytes32","internalType":"bytes32"}]}],"bytecode":{"object":"0x60a080604052346100c257306080525f5160206116b65f395f51905f525460ff8160401c166100b3576002600160401b03196001600160401b03821601610060575b6040516115ef90816100c782396080518181816109410152610a110152f35b6001600160401b0319166001600160401b039081175f5160206116b65f395f51905f525581527fc7f505b2f371ae2175ee4913f4499e1f2633a7b5936321eed1cdaeb6115181d290602090a15f80610041565b63f92ee8a960e01b5f5260045ffd5b5f80fdfe6080806040526004361015610012575f80fd5b5f905f3560e01c90816301ffc9a714610df1575080631e324b5214610d68578063248a9ca314610d285780632f2ff15d14610cdd57806336568abe14610c985780633f4ba83a14610c185780634f1ef2861461099557806352d1902d1461092e5780635c975abb146108ff578063763b754a1461058b5780638456cb591461050857806391d14854146104b257806399189e4414610386578063a217fddf1461036a578063ad3cb1cc1461030e578063c305870c146102e4578063ca67d39c14610289578063d547741f14610235578063e63ab1e9146102195763f6cdd9cc146100fa575f80fd5b6101003660031901126102165761010f610e44565b602435908260843560ff81168091036102075760e4356001600160a01b038116908190036101ee57803b156101ee5782600491604051928380926314b0812960e11b825234905af190811561020b5783916101f2575b50506001600160a01b03831690813b156101ee57829160e48392604051948593849263d505accf60e01b84523360048501523060248501528a60448501526064356064850152608484015260a43560a484015260c43560c48401525af16101d9575b50506101d69160443591610ec2565b80f35b816101e391610e70565b6101ee57825f6101c7565b8280fd5b816101fc91610e70565b61020757815f610165565b5080fd5b6040513d85823e3d90fd5b80fd5b5034610216578060031936011261021657602060405160018152f35b503461021657604036600319011261021657610285600435610255610e5a565b9061028061027b825f525f51602061158f5f395f51905f52602052600160405f20015490565b61102a565b611270565b5080f35b5034610216576020366003190112610216576001600160a01b036102ab610e44565b168152600460205260ff6040822054166040519060038110156102d057602092508152f35b634e487b7160e01b83526021600452602483fd5b5034610216576060366003190112610216576101d6610301610e44565b6044359060243590610ec2565b50346102165780600319360112610216576040805161032d8282610e70565b6005815260208101640352e302e360dc1b81528251938492602084525180928160208601528585015e828201840152601f01601f19168101030190f35b5034610216578060031936011261021657602090604051908152f35b50346102165760403660031901126102165760243560043567ffffffffffffffff82116101ee57366023830112156101ee5781600401359067ffffffffffffffff82116104ae5736602483850101116104ae576002546001600160a01b0316330361049f57600354810361041857506024610401920161130c565b156104095780f35b637c6953f960e01b8152600490fd5b8354604051635aa6e67560e01b81529350909150602090839060049082906001600160a01b03165afa91821561020b578392610467575b50036104585780f35b638154374b60e01b8152600490fd5b9091506020813d602011610497575b8161048360209383610e70565b810103126104935751905f61044f565b5f80fd5b3d9150610476565b636edaef2f60e11b8452600484fd5b8380fd5b50346102165760403660031901126102165760406104ce610e5a565b9160043581525f51602061158f5f395f51905f52602052209060018060a01b03165f52602052602060ff60405f2054166040519015158152f35b5034610216578060031936011261021657610521610fda565b5f5160206115af5f395f51905f525460ff811661057c5760019060ff1916175f5160206115af5f395f51905f52557f62e78cea01bee320cd4e420270b5ea74000d11b0c9f74754ebdbfc544b05a2586020604051338152a180f35b63d93c066560e01b8252600482fd5b50346102165760a0366003190112610216576105a5610e44565b906105ae610e5a565b6044356001600160a01b038116908190036101ee576084359167ffffffffffffffff83116104ae57366023840112156104ae57826004013567ffffffffffffffff81116108eb576040519361060960208360051b0186610e70565b8185526024602086019260061b820101903682116108e757602401915b818310610870575050505f5160206115cf5f395f51905f52549460ff8660401c16159567ffffffffffffffff811680159081610868575b600114908161085e575b159081610855575b506108465767ffffffffffffffff1981166001175f5160206115cf5f395f51905f52558661081a575b506106a161148d565b6106a961148d565b6106b161148d565b6001600160a01b0316906106c482611070565b506106ce8261111f565b506001600160a01b0316906106e28261111f565b506001600160601b0360a01b8554161784556001600160601b0360a01b60015416176001556001600160601b0360a01b6002541617600255606435600355815b81518110156107b95760208160051b8301015160208101805160038110156107a5576107575763e948f70f60e01b8552600485fd5b5190600382101561079157516001600160a01b03168452600460205260408420805460ff191660ff92909216919091179055600101610722565b634e487b7160e01b85526021600452602485fd5b634e487b7160e01b86526021600452602486fd5b82846107c25780f35b68ff0000000000000000195f5160206115cf5f395f51905f5254165f5160206115cf5f395f51905f52557fc7f505b2f371ae2175ee4913f4499e1f2633a7b5936321eed1cdaeb6115181d2602060405160018152a180f35b68ffffffffffffffffff191668010000000000000001175f5160206115cf5f395f51905f52555f610698565b63f92ee8a960e01b8652600486fd5b9050155f61066f565b303b159150610667565b88915061065d565b6040833603126108e7576040516040810181811067ffffffffffffffff8211176108d35760405283356001600160a01b03811681036108cf578152602084013560038110156108cf579181604093602080940152815201920191610626565b8880fd5b634e487b7160e01b89526041600452602489fd5b8680fd5b634e487b7160e01b85526041600452602485fd5b5034610216578060031936011261021657602060ff5f5160206115af5f395f51905f5254166040519015158152f35b50346102165780600319360112610216577f00000000000000000000000000000000000000000000000000000000000000006001600160a01b031630036109865760206040515f51602061156f5f395f51905f528152f35b63703e46dd60e11b8152600490fd5b506040366003190112610216576109aa610e44565b6024359067ffffffffffffffff82116101ee57366023830112156101ee57816004013590836109d883610ea6565b936109e66040519586610e70565b838552602085019336602482840101116101ee57806024602093018637850101526001600160a01b037f000000000000000000000000000000000000000000000000000000000000000016308114908115610bf6575b50610be7578380525f51602061158f5f395f51905f5260209081526040808620335f908152925290205460ff1615610bcf576040516352d1902d60e01b81526001600160a01b0382169390602081600481885afa869181610b9b575b50610ab157634c9c8ce360e01b86526004859052602486fd5b93845f51602061156f5f395f51905f52879603610b895750823b15610b77575f51602061156f5f395f51905f5280546001600160a01b031916821790558491907fbc7cd75a20ee27fd9adebab32041f755214dbc6bffa90cc0225b39da2e5c2d3b8380a2805115610b5c576102859382915190845af43d15610b54573d91610b3883610ea6565b92610b466040519485610e70565b83523d85602085013e611510565b606091611510565b5050505034610b685780f35b63b398979f60e01b8152600490fd5b634c9c8ce360e01b8552600452602484fd5b632a87526960e21b8652600452602485fd5b9091506020813d602011610bc7575b81610bb760209383610e70565b810103126104935751905f610a98565b3d9150610baa565b63e2517d3f60e01b8452336004526024849052604484fd5b63703e46dd60e11b8452600484fd5b5f51602061156f5f395f51905f52546001600160a01b0316141590505f610a3c565b5034610216578060031936011261021657610c31610fda565b5f5160206115af5f395f51905f525460ff811615610c895760ff19165f5160206115af5f395f51905f52557f5db9ee0a495bf2e6ff9c91a7834c1ba4fdd244a5e8aa4e537bd38aeae4b073aa6020604051338152a180f35b638dfc202b60e01b8252600482fd5b503461021657604036600319011261021657610cb2610e5a565b336001600160a01b03821603610cce5761028590600435611270565b63334bd91960e11b8252600482fd5b503461021657604036600319011261021657610285600435610cfd610e5a565b90610d2361027b825f525f51602061158f5f395f51905f52602052600160405f20015490565b6111cc565b5034610216576020366003190112610216576020610d606004355f525f51602061158f5f395f51905f52602052600160405f20015490565b604051908152f35b50608036600319011261049357610d7d610e44565b6064356001600160a01b0381169081900361049357803b15610493575f600491604051928380926314b0812960e11b825234905af18015610de657610dcf575b506101d6906044359060243590610ec2565b610ddc9192505f90610e70565b5f906101d6610dbd565b6040513d5f823e3d90fd5b34610493576020366003190112610493576004359063ffffffff60e01b821680920361049357602091637965db0b60e01b8114908115610e33575b5015158152f35b6301ffc9a760e01b14905083610e2c565b600435906001600160a01b038216820361049357565b602435906001600160a01b038216820361049357565b90601f8019910116810190811067ffffffffffffffff821117610e9257604052565b634e487b7160e01b5f52604160045260245ffd5b67ffffffffffffffff8111610e9257601f01601f191660200190565b6001600160a01b03165f81815260046020526040812054909391929060ff166003811015610fc65780610efe5763e948f70f60e01b8552600485fd5b929350909160018103610f745750610f466040516323b872dd60e01b602082015233602482015230604482015282606482015260648152610f40608482610e70565b846114b8565b6040519081527ff80de57fd7626baaff7d867494866703686569822c2326ae60b2515ede953c3a60203392a4565b600203610f4657823b156104935760405163079cc67960e41b8152336004820152602481018290525f8160448183885af18015610de657610fb6575b50610f46565b5f610fc091610e70565b5f610fb0565b634e487b7160e01b5f52602160045260245ffd5b335f9081527f2222dce04fae1e25cd76e9391151ad9e0187ef92144ac6ce9e4e09f2c453b751602052604090205460ff161561101257565b63e2517d3f60e01b5f5233600452600160245260445ffd5b5f8181525f51602061158f5f395f51905f526020908152604080832033845290915290205460ff161561105a5750565b63e2517d3f60e01b5f523360045260245260445ffd5b6001600160a01b0381165f9081527fb7db2dd08fcb62d0c9e08c51941cae53c267786a0b75803fb7960902fc8ef97d602052604090205460ff1661111a576001600160a01b03165f8181527fb7db2dd08fcb62d0c9e08c51941cae53c267786a0b75803fb7960902fc8ef97d60205260408120805460ff191660011790553391907f2f8788117e7eff1d82e926ec794901d17c78024a50270940304540a733656f0d8180a4600190565b505f90565b6001600160a01b0381165f9081527f2222dce04fae1e25cd76e9391151ad9e0187ef92144ac6ce9e4e09f2c453b751602052604090205460ff1661111a576001600160a01b03165f8181527f2222dce04fae1e25cd76e9391151ad9e0187ef92144ac6ce9e4e09f2c453b75160205260408120805460ff191660019081179091553392917f2f8788117e7eff1d82e926ec794901d17c78024a50270940304540a733656f0d9080a4600190565b5f8181525f51602061158f5f395f51905f52602090815260408083206001600160a01b038616845290915290205460ff1661126a575f8181525f51602061158f5f395f51905f52602090815260408083206001600160a01b0395909516808452949091528120805460ff19166001179055339291907f2f8788117e7eff1d82e926ec794901d17c78024a50270940304540a733656f0d9080a4600190565b50505f90565b5f8181525f51602061158f5f395f51905f52602090815260408083206001600160a01b038616845290915290205460ff161561126a575f8181525f51602061158f5f395f51905f52602090815260408083206001600160a01b0395909516808452949091528120805460ff19169055339291907ff6391f5c32d9c69d2a47ea670b442974b53935d1edc7fd64eb21e047a839171b9080a4600190565b60685f920361126a57602081013560601c603482013560601c91604881013590835f52600460205260ff60405f2054166003811015610fc657806113595763e948f70f60e01b8652600486fd5b909192939450600181145f146113de575060405163a9059cbb60e01b6020808301919091526001600160a01b0385166024830152604480830185905282527f17cecf169536702ad665b927c67bd45daa98c15767ace06c4176d788ab18ccde9290916113d0906113ca606482610e70565b876114b8565b6040519384523592a4600190565b60021461140f575b60207f17cecf169536702ad665b927c67bd45daa98c15767ace06c4176d788ab18ccde916113d0565b833b15610493576040516340c10f1960e01b81526001600160a01b038416600482015260248101839052905f8260448183895af1908115610de6577f17cecf169536702ad665b927c67bd45daa98c15767ace06c4176d788ab18ccde9260209261147d575b509150506113e6565b5f61148791610e70565b5f611474565b60ff5f5160206115cf5f395f51905f525460401c16156114a957565b631afcd79f60e31b5f5260045ffd5b905f602091828151910182855af115610de6575f513d61150757506001600160a01b0381163b155b6114e75750565b635274afe760e01b5f9081526001600160a01b0391909116600452602490fd5b600114156114e0565b90611534575080511561152557805190602001fd5b63d6bda27560e01b5f5260045ffd5b81511580611565575b611545575090565b639996b31560e01b5f9081526001600160a01b0391909116600452602490fd5b50803b1561153d56fe360894a13ba1a3210667c828492db98dca3e2076cc3735a920a3ca505d382bbc02dd7bc7dec4dceedda775e58dd541e08a116c6c53815c0bd028192f7b626800cd5ed15c6e187e77e9aee88184c21f4f2182ab5827cb3b7e07fbedcd63f03300f0c57e16840df040f15088dc2f81fe391c3923bec73e23a9662efc9c229c6a00f0c57e16840df040f15088dc2f81fe391c3923bec73e23a9662efc9c229c6a00","linkReferences":{}},"methodIdentifiers":{"DEFAULT_ADMIN_ROLE()":"a217fddf","PAUSER_ROLE()":"e63ab1e9","UPGRADE_INTERFACE_VERSION()":"ad3cb1cc","getRoleAdmin(bytes32)":"248a9ca3","getTokenSupplyType(address)":"ca67d39c","grantRole(bytes32,address)":"2f2ff15d","hasRole(bytes32,address)":"91d14854","initialize(address,address,address,bytes32,(address,uint8)[])":"763b754a","pause()":"8456cb59","paused()":"5c975abb","processMessage(bytes32,bytes)":"99189e44","proxiableUUID()":"52d1902d","renounceRole(bytes32,address)":"36568abe","requestBridging(address,uint256,bytes32)":"c305870c","requestBridgingPayingFee(address,uint256,bytes32,address)":"1e324b52","requestBridgingPayingFeeWithPermit(address,uint256,bytes32,uint256,uint8,bytes32,bytes32,address)":"f6cdd9cc","revokeRole(bytes32,address)":"d547741f","supportsInterface(bytes4)":"01ffc9a7","unpause()":"3f4ba83a","upgradeToAndCall(address,bytes)":"4f1ef286"},"storageLayout":{"storage":[{"astId":54368,"contract":"src/ERC20Manager.sol:ERC20Manager","label":"_governanceAdmin","offset":0,"slot":"0","type":"t_contract(IGovernance)56596"},{"astId":54371,"contract":"src/ERC20Manager.sol:ERC20Manager","label":"_governancePauser","offset":0,"slot":"1","type":"t_contract(IGovernance)56596"},{"astId":54373,"contract":"src/ERC20Manager.sol:ERC20Manager","label":"_messageQueue","offset":0,"slot":"2","type":"t_address"},{"astId":54375,"contract":"src/ERC20Manager.sol:ERC20Manager","label":"_vftManager","offset":0,"slot":"3","type":"t_bytes32"},{"astId":54380,"contract":"src/ERC20Manager.sol:ERC20Manager","label":"_tokenSupplyType","offset":0,"slot":"4","type":"t_mapping(t_address,t_enum(SupplyType)56400)"}],"types":{"t_address":{"encoding":"inplace","label":"address","numberOfBytes":"20"},"t_bytes32":{"encoding":"inplace","label":"bytes32","numberOfBytes":"32"},"t_contract(IGovernance)56596":{"encoding":"inplace","label":"contract IGovernance","numberOfBytes":"20"},"t_enum(SupplyType)56400":{"encoding":"inplace","label":"enum IERC20Manager.SupplyType","numberOfBytes":"1"},"t_mapping(t_address,t_enum(SupplyType)56400)":{"encoding":"mapping","key":"t_address","label":"mapping(address => enum IERC20Manager.SupplyType)","numberOfBytes":"32","value":"t_enum(SupplyType)56400"}}},"id":80}