{"abi":[{"type":"constructor","inputs":[],"stateMutability":"nonpayable"},{"type":"function","name":"DEFAULT_ADMIN_ROLE","inputs":[],"outputs":[{"name":"","type":"bytes32","internalType":"bytes32"}],"stateMutability":"view"},{"type":"function","name":"PAUSER_ROLE","inputs":[],"outputs":[{"name":"","type":"bytes32","internalType":"bytes32"}],"stateMutability":"view"},{"type":"function","name":"UPGRADE_INTERFACE_VERSION","inputs":[],"outputs":[{"name":"","type":"string","internalType":"string"}],"stateMutability":"view"},{"type":"function","name":"getRoleAdmin","inputs":[{"name":"role","type":"bytes32","internalType":"bytes32"}],"outputs":[{"name":"","type":"bytes32","internalType":"bytes32"}],"stateMutability":"view"},{"type":"function","name":"getTokenSupplyType","inputs":[{"name":"token","type":"address","internalType":"address"}],"outputs":[{"name":"","type":"uint8","internalType":"enum IERC20Manager.SupplyType"}],"stateMutability":"view"},{"type":"function","name":"grantRole","inputs":[{"name":"role","type":"bytes32","internalType":"bytes32"},{"name":"account","type":"address","internalType":"address"}],"outputs":[],"stateMutability":"nonpayable"},{"type":"function","name":"hasRole","inputs":[{"name":"role","type":"bytes32","internalType":"bytes32"},{"name":"account","type":"address","internalType":"address"}],"outputs":[{"name":"","type":"bool","internalType":"bool"}],"stateMutability":"view"},{"type":"function","name":"initialize","inputs":[{"name":"governanceAdmin","type":"address","internalType":"contract IGovernance"},{"name":"governancePauser","type":"address","internalType":"contract IGovernance"},{"name":"messageQueue","type":"address","internalType":"address"},{"name":"vftManager","type":"bytes32","internalType":"bytes32"},{"name":"tokens","type":"tuple[]","internalType":"struct IERC20Manager.TokenWithSupplyType[]","components":[{"name":"token","type":"address","internalType":"address"},{"name":"supplyType","type":"uint8","internalType":"enum IERC20Manager.SupplyType"}]}],"outputs":[],"stateMutability":"nonpayable"},{"type":"function","name":"pause","inputs":[],"outputs":[],"stateMutability":"nonpayable"},{"type":"function","name":"paused","inputs":[],"outputs":[{"name":"","type":"bool","internalType":"bool"}],"stateMutability":"view"},{"type":"function","name":"processMessage","inputs":[{"name":"source","type":"bytes32","internalType":"bytes32"},{"name":"payload","type":"bytes","internalType":"bytes"}],"outputs":[],"stateMutability":"nonpayable"},{"type":"function","name":"proxiableUUID","inputs":[],"outputs":[{"name":"","type":"bytes32","internalType":"bytes32"}],"stateMutability":"view"},{"type":"function","name":"renounceRole","inputs":[{"name":"role","type":"bytes32","internalType":"bytes32"},{"name":"callerConfirmation","type":"address","internalType":"address"}],"outputs":[],"stateMutability":"nonpayable"},{"type":"function","name":"requestBridging","inputs":[{"name":"token","type":"address","internalType":"address"},{"name":"amount","type":"uint256","internalType":"uint256"},{"name":"to","type":"bytes32","internalType":"bytes32"}],"outputs":[],"stateMutability":"nonpayable"},{"type":"function","name":"requestBridgingPayingFee","inputs":[{"name":"token","type":"address","internalType":"address"},{"name":"amount","type":"uint256","internalType":"uint256"},{"name":"to","type":"bytes32","internalType":"bytes32"},{"name":"bridgingPayment","type":"address","internalType":"address"}],"outputs":[],"stateMutability":"payable"},{"type":"function","name":"requestBridgingPayingFeeWithPermit","inputs":[{"name":"token","type":"address","internalType":"address"},{"name":"amount","type":"uint256","internalType":"uint256"},{"name":"to","type":"bytes32","internalType":"bytes32"},{"name":"deadline","type":"uint256","internalType":"uint256"},{"name":"v","type":"uint8","internalType":"uint8"},{"name":"r","type":"bytes32","internalType":"bytes32"},{"name":"s","type":"bytes32","internalType":"bytes32"},{"name":"bridgingPayment","type":"address","internalType":"address"}],"outputs":[],"stateMutability":"payable"},{"type":"function","name":"revokeRole","inputs":[{"name":"role","type":"bytes32","internalType":"bytes32"},{"name":"account","type":"address","internalType":"address"}],"outputs":[],"stateMutability":"nonpayable"},{"type":"function","name":"supportsInterface","inputs":[{"name":"interfaceId","type":"bytes4","internalType":"bytes4"}],"outputs":[{"name":"","type":"bool","internalType":"bool"}],"stateMutability":"view"},{"type":"function","name":"unpause","inputs":[],"outputs":[],"stateMutability":"nonpayable"},{"type":"function","name":"upgradeToAndCall","inputs":[{"name":"newImplementation","type":"address","internalType":"address"},{"name":"data","type":"bytes","internalType":"bytes"}],"outputs":[],"stateMutability":"payable"},{"type":"event","name":"BridgingAccepted","inputs":[{"name":"from","type":"bytes32","indexed":true,"internalType":"bytes32"},{"name":"to","type":"address","indexed":true,"internalType":"address"},{"name":"token","type":"address","indexed":true,"internalType":"address"},{"name":"amount","type":"uint256","indexed":false,"internalType":"uint256"}],"anonymous":false},{"type":"event","name":"BridgingRequested","inputs":[{"name":"from","type":"address","indexed":true,"internalType":"address"},{"name":"to","type":"bytes32","indexed":true,"internalType":"bytes32"},{"name":"token","type":"address","indexed":true,"internalType":"address"},{"name":"amount","type":"uint256","indexed":false,"internalType":"uint256"}],"anonymous":false},{"type":"event","name":"Initialized","inputs":[{"name":"version","type":"uint64","indexed":false,"internalType":"uint64"}],"anonymous":false},{"type":"event","name":"Paused","inputs":[{"name":"account","type":"address","indexed":false,"internalType":"address"}],"anonymous":false},{"type":"event","name":"RoleAdminChanged","inputs":[{"name":"role","type":"bytes32","indexed":true,"internalType":"bytes32"},{"name":"previousAdminRole","type":"bytes32","indexed":true,"internalType":"bytes32"},{"name":"newAdminRole","type":"bytes32","indexed":true,"internalType":"bytes32"}],"anonymous":false},{"type":"event","name":"RoleGranted","inputs":[{"name":"role","type":"bytes32","indexed":true,"internalType":"bytes32"},{"name":"account","type":"address","indexed":true,"internalType":"address"},{"name":"sender","type":"address","indexed":true,"internalType":"address"}],"anonymous":false},{"type":"event","name":"RoleRevoked","inputs":[{"name":"role","type":"bytes32","indexed":true,"internalType":"bytes32"},{"name":"account","type":"address","indexed":true,"internalType":"address"},{"name":"sender","type":"address","indexed":true,"internalType":"address"}],"anonymous":false},{"type":"event","name":"Unpaused","inputs":[{"name":"account","type":"address","indexed":false,"internalType":"address"}],"anonymous":false},{"type":"event","name":"Upgraded","inputs":[{"name":"implementation","type":"address","indexed":true,"internalType":"address"}],"anonymous":false},{"type":"error","name":"AccessControlBadConfirmation","inputs":[]},{"type":"error","name":"AccessControlUnauthorizedAccount","inputs":[{"name":"account","type":"address","internalType":"address"},{"name":"neededRole","type":"bytes32","internalType":"bytes32"}]},{"type":"error","name":"AddressEmptyCode","inputs":[{"name":"target","type":"address","internalType":"address"}]},{"type":"error","name":"ERC1967InvalidImplementation","inputs":[{"name":"implementation","type":"address","internalType":"address"}]},{"type":"error","name":"ERC1967NonPayable","inputs":[]},{"type":"error","name":"EnforcedPause","inputs":[]},{"type":"error","name":"ExpectedPause","inputs":[]},{"type":"error","name":"FailedCall","inputs":[]},{"type":"error","name":"InvalidInitialization","inputs":[]},{"type":"error","name":"InvalidPayload","inputs":[]},{"type":"error","name":"InvalidSender","inputs":[]},{"type":"error","name":"InvalidSource","inputs":[]},{"type":"error","name":"InvalidSupplyType","inputs":[]},{"type":"error","name":"NotInitializing","inputs":[]},{"type":"error","name":"SafeERC20FailedOperation","inputs":[{"name":"token","type":"address","internalType":"address"}]},{"type":"error","name":"UUPSUnauthorizedCallContext","inputs":[]},{"type":"error","name":"UUPSUnsupportedProxiableUUID","inputs":[{"name":"slot","type":"bytes32","internalType":"bytes32"}]}],"bytecode":{"object":"0x60a080604052346100c257306080525f516020612f5a5f395f51905f525460ff8160401c166100b3576002600160401b03196001600160401b03821601610060575b604051612e9390816100c782396080518181816109480152610a180152f35b6001600160401b0319166001600160401b039081175f516020612f5a5f395f51905f525581527fc7f505b2f371ae2175ee4913f4499e1f2633a7b5936321eed1cdaeb6115181d290602090a15f80610041565b63f92ee8a960e01b5f5260045ffd5b5f80fdfe6080806040526004361015610012575f80fd5b5f905f3560e01c90816301ffc9a714610df8575080631e324b5214610d6f578063248a9ca314610d2f5780632f2ff15d14610ce457806336568abe14610c9f5780633f4ba83a14610c1f5780634f1ef2861461099c57806352d1902d146109355780635c975abb14610906578063763b754a1461058e5780638456cb591461050b57806391d14854146104b557806399189e4414610377578063a217fddf1461035b578063ad3cb1cc1461030e578063c305870c146102e4578063ca67d39c14610289578063d547741f14610235578063e63ab1e9146102195763f6cdd9cc146100fa575f80fd5b6101003660031901126102165761010f610e4b565b602435908260843560ff81168091036102075760e4356001600160a01b038116908190036101ee57803b156101ee5782600491604051928380926314b0812960e11b825234905af190811561020b5783916101f2575b50506001600160a01b03831690813b156101ee57829160e48392604051948593849263d505accf60e01b84523360048501523060248501528a60448501526064356064850152608484015260a43560a484015260c43560c48401525af16101d9575b50506101d69160443591610eed565b80f35b816101e391610e77565b6101ee57825f6101c7565b8280fd5b816101fc91610e77565b61020757815f610165565b5080fd5b6040513d85823e3d90fd5b80fd5b5034610216578060031936011261021657602060405160018152f35b503461021657604036600319011261021657610285600435610255610e61565b9061028061027b825f525f516020612e335f395f51905f52602052600160405f20015490565b611055565b61129b565b5080f35b5034610216576020366003190112610216576001600160a01b036102ab610e4b565b168152600460205260ff6040822054166040519060038110156102d057602092508152f35b634e487b7160e01b83526021600452602483fd5b5034610216576060366003190112610216576101d6610301610e4b565b6044359060243590610eed565b503461021657806003193601126102165750610357604051610331604082610e77565b60058152640352e302e360dc1b6020820152604051918291602083526020830190610ec9565b0390f35b5034610216578060031936011261021657602090604051908152f35b50346102165760403660031901126102165760043560243567ffffffffffffffff81116101ee57366023820112156101ee5780600401359167ffffffffffffffff83116104b157602482019160248436920101116104b1576002546001600160a01b031633036104a257600354810361040c5750906103f5916114dd565b156103fd5780f35b637c6953f960e01b8152600490fd5b8354604051635aa6e67560e01b81529190602090839060049082906001600160a01b03165afa91821561049757859261045f575b500361045057906103f591611337565b638154374b60e01b8352600483fd5b9091506020813d60201161048f575b8161047b60209383610e77565b8101031261048b5751905f610440565b5f80fd5b3d915061046e565b6040513d87823e3d90fd5b636edaef2f60e11b8452600484fd5b8380fd5b50346102165760403660031901126102165760406104d1610e61565b9160043581525f516020612e335f395f51905f52602052209060018060a01b03165f52602052602060ff60405f2054166040519015158152f35b5034610216578060031936011261021657610524611005565b5f516020612e535f395f51905f525460ff811661057f5760019060ff1916175f516020612e535f395f51905f52557f62e78cea01bee320cd4e420270b5ea74000d11b0c9f74754ebdbfc544b05a2586020604051338152a180f35b63d93c066560e01b8252600482fd5b50346102165760a0366003190112610216576105a8610e4b565b6105b0610e61565b6044356001600160a01b038116908190036104b1576084359167ffffffffffffffff8311610902573660238401121561090257826004013567ffffffffffffffff81116108ee576040519361060b60208360051b0186610e77565b8185526024602086019260061b820101903682116108ea57602401915b818310610872575050505f516020612e735f395f51905f52549360ff8560401c16159467ffffffffffffffff81168015908161086a575b6001149081610860575b159081610857575b506108485767ffffffffffffffff1981166001175f516020612e735f395f51905f52558561081c575b506106a361165e565b6106ab61165e565b6106b361165e565b6001600160a01b0316906106c68261109b565b506106d08261114a565b506001600160a01b0316906106e48261114a565b506001600160601b0360a01b8654161785556001600160601b0360a01b60015416176001556001600160601b0360a01b6002541617600255606435600355825b81518110156107bb5760208160051b8301015160208101805160038110156107a7576107595763e948f70f60e01b8652600486fd5b5190600382101561079357516001600160a01b03168552600460205260408520805460ff191660ff92909216919091179055600101610724565b634e487b7160e01b86526021600452602486fd5b634e487b7160e01b87526021600452602487fd5b50506107c45780f35b68ff0000000000000000195f516020612e735f395f51905f5254165f516020612e735f395f51905f52557fc7f505b2f371ae2175ee4913f4499e1f2633a7b5936321eed1cdaeb6115181d2602060405160018152a180f35b68ffffffffffffffffff191668010000000000000001175f516020612e735f395f51905f52555f61069a565b63f92ee8a960e01b8752600487fd5b9050155f610671565b303b159150610669565b87915061065f565b6040833603126108ea57604051906040820182811067ffffffffffffffff8211176108d65760405283356001600160a01b03811681036108d257825260208401359060038210156108d25782602092836040950152815201920191610628565b8980fd5b634e487b7160e01b8a52604160045260248afd5b8780fd5b634e487b7160e01b86526041600452602486fd5b8480fd5b5034610216578060031936011261021657602060ff5f516020612e535f395f51905f5254166040519015158152f35b50346102165780600319360112610216577f00000000000000000000000000000000000000000000000000000000000000006001600160a01b0316300361098d5760206040515f516020612e135f395f51905f528152f35b63703e46dd60e11b8152600490fd5b506040366003190112610216576109b1610e4b565b6024359067ffffffffffffffff82116101ee57366023830112156101ee57816004013590836109df83610ead565b936109ed6040519586610e77565b838552602085019336602482840101116101ee57806024602093018637850101526001600160a01b037f000000000000000000000000000000000000000000000000000000000000000016308114908115610bfd575b50610bee578380525f516020612e335f395f51905f5260209081526040808620335f908152925290205460ff1615610bd6576040516352d1902d60e01b81526001600160a01b0382169390602081600481885afa869181610ba2575b50610ab857634c9c8ce360e01b86526004859052602486fd5b93845f516020612e135f395f51905f52879603610b905750823b15610b7e575f516020612e135f395f51905f5280546001600160a01b031916821790558491907fbc7cd75a20ee27fd9adebab32041f755214dbc6bffa90cc0225b39da2e5c2d3b8380a2805115610b63576102859382915190845af43d15610b5b573d91610b3f83610ead565b92610b4d6040519485610e77565b83523d85602085013e6116e1565b6060916116e1565b5050505034610b6f5780f35b63b398979f60e01b8152600490fd5b634c9c8ce360e01b8552600452602484fd5b632a87526960e21b8652600452602485fd5b9091506020813d602011610bce575b81610bbe60209383610e77565b8101031261048b5751905f610a9f565b3d9150610bb1565b63e2517d3f60e01b8452336004526024849052604484fd5b63703e46dd60e11b8452600484fd5b5f516020612e135f395f51905f52546001600160a01b0316141590505f610a43565b5034610216578060031936011261021657610c38611005565b5f516020612e535f395f51905f525460ff811615610c905760ff19165f516020612e535f395f51905f52557f5db9ee0a495bf2e6ff9c91a7834c1ba4fdd244a5e8aa4e537bd38aeae4b073aa6020604051338152a180f35b638dfc202b60e01b8252600482fd5b503461021657604036600319011261021657610cb9610e61565b336001600160a01b03821603610cd5576102859060043561129b565b63334bd91960e11b8252600482fd5b503461021657604036600319011261021657610285600435610d04610e61565b90610d2a61027b825f525f516020612e335f395f51905f52602052600160405f20015490565b6111f7565b5034610216576020366003190112610216576020610d676004355f525f516020612e335f395f51905f52602052600160405f20015490565b604051908152f35b50608036600319011261048b57610d84610e4b565b6064356001600160a01b0381169081900361048b57803b1561048b575f600491604051928380926314b0812960e11b825234905af18015610ded57610dd6575b506101d6906044359060243590610eed565b610de39192505f90610e77565b5f906101d6610dc4565b6040513d5f823e3d90fd5b3461048b57602036600319011261048b576004359063ffffffff60e01b821680920361048b57602091637965db0b60e01b8114908115610e3a575b5015158152f35b6301ffc9a760e01b14905083610e33565b600435906001600160a01b038216820361048b57565b602435906001600160a01b038216820361048b57565b90601f8019910116810190811067ffffffffffffffff821117610e9957604052565b634e487b7160e01b5f52604160045260245ffd5b67ffffffffffffffff8111610e9957601f01601f191660200190565b805180835260209291819084018484015e5f828201840152601f01601f1916010190565b6001600160a01b03165f81815260046020526040812054909391929060ff166003811015610ff15780610f295763e948f70f60e01b8552600485fd5b929350909160018103610f9f5750610f716040516323b872dd60e01b602082015233602482015230604482015282606482015260648152610f6b608482610e77565b84611689565b6040519081527ff80de57fd7626baaff7d867494866703686569822c2326ae60b2515ede953c3a60203392a4565b600203610f7157823b1561048b5760405163079cc67960e41b8152336004820152602481018290525f8160448183885af18015610ded57610fe1575b50610f71565b5f610feb91610e77565b5f610fdb565b634e487b7160e01b5f52602160045260245ffd5b335f9081527f2222dce04fae1e25cd76e9391151ad9e0187ef92144ac6ce9e4e09f2c453b751602052604090205460ff161561103d57565b63e2517d3f60e01b5f5233600452600160245260445ffd5b5f8181525f516020612e335f395f51905f526020908152604080832033845290915290205460ff16156110855750565b63e2517d3f60e01b5f523360045260245260445ffd5b6001600160a01b0381165f9081527fb7db2dd08fcb62d0c9e08c51941cae53c267786a0b75803fb7960902fc8ef97d602052604090205460ff16611145576001600160a01b03165f8181527fb7db2dd08fcb62d0c9e08c51941cae53c267786a0b75803fb7960902fc8ef97d60205260408120805460ff191660011790553391907f2f8788117e7eff1d82e926ec794901d17c78024a50270940304540a733656f0d8180a4600190565b505f90565b6001600160a01b0381165f9081527f2222dce04fae1e25cd76e9391151ad9e0187ef92144ac6ce9e4e09f2c453b751602052604090205460ff16611145576001600160a01b03165f8181527f2222dce04fae1e25cd76e9391151ad9e0187ef92144ac6ce9e4e09f2c453b75160205260408120805460ff191660019081179091553392917f2f8788117e7eff1d82e926ec794901d17c78024a50270940304540a733656f0d9080a4600190565b5f8181525f516020612e335f395f51905f52602090815260408083206001600160a01b038616845290915290205460ff16611295575f8181525f516020612e335f395f51905f52602090815260408083206001600160a01b0395909516808452949091528120805460ff19166001179055339291907f2f8788117e7eff1d82e926ec794901d17c78024a50270940304540a733656f0d9080a4600190565b50505f90565b5f8181525f516020612e335f395f51905f52602090815260408083206001600160a01b038616845290915290205460ff1615611295575f8181525f516020612e335f395f51905f52602090815260408083206001600160a01b0395909516808452949091528120805460ff19169055339291907ff6391f5c32d9c69d2a47ea670b442974b53935d1edc7fd64eb21e047a839171b9080a4600190565b90801561129557813560f81c6001811015806114d2575b156114cb5760018114611396575b60021461136b575b5050600190565b601503611145576001013560601c5f52600460205260405f20600260ff198254161790555f80611364565b604282036114cb576001830135602184013590805f1a600181101590816114bf575b50156114aa57815f1a600181101590816114b3575b50156114aa576113f9611419919060405191604083016040525f8352601f8301525f6020835184010152565b919060405191604083016040525f8352601f8301525f6020835184010152565b90604051916116d3918284019184831067ffffffffffffffff841117610e995761145b6114699286956117408739308552608060208601526080850190610ec9565b908382036040850152610ec9565b906060604188013560f81c91015203905ff0908115610ded576001600160a01b039091165f908152600460205260409020805460ff1916600117905561135c565b50505050505f90565b601f915011155f6113cd565b601f915011155f6113b8565b5050505f90565b50600281111561134e565b60685f920361129557602081013560601c603482013560601c91604881013590835f52600460205260ff60405f2054166003811015610ff1578061152a5763e948f70f60e01b8652600486fd5b909192939450600181145f146115af575060405163a9059cbb60e01b6020808301919091526001600160a01b0385166024830152604480830185905282527f17cecf169536702ad665b927c67bd45daa98c15767ace06c4176d788ab18ccde9290916115a19061159b606482610e77565b87611689565b6040519384523592a4600190565b6002146115e0575b60207f17cecf169536702ad665b927c67bd45daa98c15767ace06c4176d788ab18ccde916115a1565b833b1561048b576040516340c10f1960e01b81526001600160a01b038416600482015260248101839052905f8260448183895af1908115610ded577f17cecf169536702ad665b927c67bd45daa98c15767ace06c4176d788ab18ccde9260209261164e575b509150506115b7565b5f61165891610e77565b5f611645565b60ff5f516020612e735f395f51905f525460401c161561167a57565b631afcd79f60e31b5f5260045ffd5b905f602091828151910182855af115610ded575f513d6116d857506001600160a01b0381163b155b6116b85750565b635274afe760e01b5f9081526001600160a01b0391909116600452602490fd5b600114156116b1565b9061170557508051156116f657805190602001fd5b63d6bda27560e01b5f5260045ffd5b81511580611736575b611716575090565b639996b31560e01b5f9081526001600160a01b0391909116600452602490fd5b50803b1561170e56fe61018080604052346104a2576116d3803803809161001d82856104a6565b83398101906080818303126104a25780516001600160a01b038116908190036104a25760208201516001600160401b0381116104a2578361005f9184016104c9565b60408301519093906001600160401b0381116104a2576060916100839185016104c9565b9201519160ff831683036104a2576040938451926100a186856104a6565b60018452603160f81b6020850190815282519093906001600160401b0381116103b257600354600181811c91168015610498575b602082101461039457601f8111610435575b50806020601f82116001146103d1575f916103c6575b508160011b915f199060031b1c1916176003555b8051906001600160401b0382116103b25760045490600182811c921680156103a8575b60208310146103945781601f849311610326575b50602090601f83116001146102c0575f926102b5575b50508160011b915f199060031b1c1916176004555b80156102a257600580546001600160a01b0319811683179091556001600160a01b03167f8be0079c531659141344cd1fd0a4f28419497f9722a3daafe3b4186f6b6457e05f80a36101c38161051e565b610120526101d0836106a5565b6101405260208151910120918260e05251902080610100524660a05283519060208201927f8b73c3c69bb8fe3d512ecc4cf759cc79239f7b179b0ffacaa9a75d522b39400f84528583015260608201524660808201523060a082015260a0815261023b60c0826104a6565b5190206080523060c0526101605251610ef590816107de823960805181610b69015260a05181610c26015260c05181610b33015260e05181610bb801526101005181610bde0152610120518161045f015261014051816104880152610160518161073d0152f35b631e4fbdf760e01b5f525f60045260245ffd5b015190505f8061015e565b60045f9081528281209350601f198516905b81811061030e57509084600195949392106102f6575b505050811b01600455610173565b01515f1960f88460031b161c191690555f80806102e8565b929360206001819287860151815501950193016102d2565b60045f529091507f8a35acfbc15ff81a39ae7d344fd709f28e8600b4aa8c65c6b64bfe7fe36bd19b601f840160051c8101916020851061038a575b90601f859493920160051c01905b81811061037c5750610148565b5f815584935060010161036f565b9091508190610361565b634e487b7160e01b5f52602260045260245ffd5b91607f1691610134565b634e487b7160e01b5f52604160045260245ffd5b90508401515f6100fd565b60035f9081528181209250601f198416905b81811061041d57509083600194939210610405575b5050811b01600355610111565b8601515f1960f88460031b161c191690555f806103f8565b9192602060018192868b0151815501940192016103e3565b60035f527fc2575a0e9e593c00f959f8c92f12db2869c3395a3b0502d05e2516446f71f85b601f830160051c8101916020841061048e575b601f0160051c01905b81811061048357506100e7565b5f8155600101610476565b909150819061046d565b90607f16906100d5565b5f80fd5b601f909101601f19168101906001600160401b038211908210176103b257604052565b81601f820112156104a2578051906001600160401b0382116103b257604051926104fd601f8401601f1916602001856104a6565b828452602083830101116104a257815f9260208093018386015e8301015290565b908151602081105f14610598575090601f815111610558576020815191015160208210610549571790565b5f198260200360031b1b161790565b604460209160405192839163305a27a960e01b83528160048401528051918291826024860152018484015e5f828201840152601f01601f19168101030190fd5b6001600160401b0381116103b257600654600181811c9116801561069b575b602082101461039457601f8111610668575b50602092601f821160011461060757928192935f926105fc575b50508160011b915f199060031b1c19161760065560ff90565b015190505f806105e3565b601f1982169360065f52805f20915f5b8681106106505750836001959610610638575b505050811b0160065560ff90565b01515f1960f88460031b161c191690555f808061062a565b91926020600181928685015181550194019201610617565b60065f52601f60205f20910160051c810190601f830160051c015b81811061069057506105c9565b5f8155600101610683565b90607f16906105b7565b908151602081105f146106d0575090601f815111610558576020815191015160208210610549571790565b6001600160401b0381116103b257600754600181811c911680156107d3575b602082101461039457601f81116107a0575b50602092601f821160011461073f57928192935f92610734575b50508160011b915f199060031b1c19161760075560ff90565b015190505f8061071b565b601f1982169360075f52805f20915f5b8681106107885750836001959610610770575b505050811b0160075560ff90565b01515f1960f88460031b161c191690555f8080610762565b9192602060018192868501518155019401920161074f565b60075f52601f60205f20910160051c810190601f830160051c015b8181106107c85750610701565b5f81556001016107bb565b90607f16906106ef56fe6080806040526004361015610012575f80fd5b5f3560e01c90816306fdde03146107dc57508063095ea7b3146107b657806318160ddd1461079957806323b872dd14610761578063313ce567146107245780633644e5151461070257806340c10f191461065657806342966c681461063957806370a0823114610602578063715018a6146105a757806379cc6790146105775780637ecebe001461053f57806384b0196e146104475780638da5cb5b1461041f57806395d89b411461033d578063a9059cbb1461030c578063d505accf146101c7578063dd62ed3e146101775763f2fde38b146100ed575f80fd5b34610173576020366003190112610173576101066108a2565b61010e610c4c565b6001600160a01b0316801561016057600580546001600160a01b0319811683179091556001600160a01b03167f8be0079c531659141344cd1fd0a4f28419497f9722a3daafe3b4186f6b6457e05f80a3005b631e4fbdf760e01b5f525f60045260245ffd5b5f80fd5b34610173576040366003190112610173576101906108a2565b6101986108b8565b6001600160a01b039182165f908152600160209081526040808320949093168252928352819020549051908152f35b346101735760e0366003190112610173576101e06108a2565b6101e86108b8565b604435906064359260843560ff81168103610173578442116102f9576102bc6102c59160018060a01b03841696875f52600860205260405f20908154916001830190556040519060208201927f6e71edae12b1b97f4d1f60370fef10105fa2faae0126114a169c64845d6126c984528a604084015260018060a01b038916606084015289608084015260a083015260c082015260c0815261028a60e082610987565b519020610295610b30565b906040519161190160f01b83526002830152602282015260c43591604260a4359220610df4565b90929192610e81565b6001600160a01b03168481036102e257506102e09350610cf7565b005b84906325c0072360e11b5f5260045260245260445ffd5b8463313c898160e11b5f5260045260245ffd5b34610173576040366003190112610173576103326103286108a2565b6024359033610a86565b602060405160018152f35b34610173575f366003190112610173576040515f60045461035d816108ce565b80845290600181169081156103fb575060011461039d575b6103998361038581850382610987565b60405191829160208352602083019061087e565b0390f35b60045f9081527f8a35acfbc15ff81a39ae7d344fd709f28e8600b4aa8c65c6b64bfe7fe36bd19b939250905b8082106103e157509091508101602001610385610375565b9192600181602092548385880101520191019092916103c9565b60ff191660208086019190915291151560051b840190910191506103859050610375565b34610173575f366003190112610173576005546040516001600160a01b039091168152602090f35b34610173575f366003190112610173576104e36104837f0000000000000000000000000000000000000000000000000000000000000000610d5a565b6104ac7f0000000000000000000000000000000000000000000000000000000000000000610dbd565b60206104f1604051926104bf8385610987565b5f84525f368137604051958695600f60f81b875260e08588015260e087019061087e565b90858203604087015261087e565b4660608501523060808501525f60a085015283810360c08501528180845192838152019301915f5b82811061052857505050500390f35b835185528695509381019392810192600101610519565b34610173576020366003190112610173576001600160a01b036105606108a2565b165f526008602052602060405f2054604051908152f35b34610173576040366003190112610173576102e06105936108a2565b602435906105a28233836109bd565b610c73565b34610173575f366003190112610173576105bf610c4c565b600580546001600160a01b031981169091555f906001600160a01b03167f8be0079c531659141344cd1fd0a4f28419497f9722a3daafe3b4186f6b6457e08280a3005b34610173576020366003190112610173576001600160a01b036106236108a2565b165f525f602052602060405f2054604051908152f35b34610173576020366003190112610173576102e060043533610c73565b346101735760403660031901126101735761066f6108a2565b6024359061067b610c4c565b6001600160a01b03169081156106ef57600254908082018092116106db5760207fddf252ad1be2c89b69c2b068fc378daa952ba7f163c4a11628f55a4df523b3ef915f9360025584845283825260408420818154019055604051908152a3005b634e487b7160e01b5f52601160045260245ffd5b63ec442f0560e01b5f525f60045260245ffd5b34610173575f36600319011261017357602061071c610b30565b604051908152f35b34610173575f36600319011261017357602060405160ff7f0000000000000000000000000000000000000000000000000000000000000000168152f35b346101735760603660031901126101735761033261077d6108a2565b6107856108b8565b604435916107948333836109bd565b610a86565b34610173575f366003190112610173576020600254604051908152f35b34610173576040366003190112610173576103326107d26108a2565b6024359033610cf7565b34610173575f366003190112610173575f6003546107f9816108ce565b80845290600181169081156103fb5750600114610820576103998361038581850382610987565b60035f9081527fc2575a0e9e593c00f959f8c92f12db2869c3395a3b0502d05e2516446f71f85b939250905b80821061086457509091508101602001610385610375565b91926001816020925483858801015201910190929161084c565b805180835260209291819084018484015e5f828201840152601f01601f1916010190565b600435906001600160a01b038216820361017357565b602435906001600160a01b038216820361017357565b90600182811c921680156108fc575b60208310146108e857565b634e487b7160e01b5f52602260045260245ffd5b91607f16916108dd565b5f9291815491610915836108ce565b808352926001811690811561096a575060011461093157505050565b5f9081526020812093945091925b838310610950575060209250010190565b60018160209294939454838587010152019101919061093f565b915050602093945060ff929192191683830152151560051b010190565b90601f8019910116810190811067ffffffffffffffff8211176109a957604052565b634e487b7160e01b5f52604160045260245ffd5b6001600160a01b039081165f818152600160209081526040808320948616835293905291909120549291905f1984106109f7575b50505050565b828410610a63578015610a50576001600160a01b03821615610a3d575f52600160205260405f209060018060a01b03165f5260205260405f20910390555f8080806109f1565b634a1406b160e11b5f525f60045260245ffd5b63e602df0560e01b5f525f60045260245ffd5b508290637dc7a0d960e11b5f5260018060a01b031660045260245260445260645ffd5b6001600160a01b0316908115610b1d576001600160a01b03169182156106ef57815f525f60205260405f2054818110610b0457817fddf252ad1be2c89b69c2b068fc378daa952ba7f163c4a11628f55a4df523b3ef92602092855f525f84520360405f2055845f525f825260405f20818154019055604051908152a3565b8263391434e360e21b5f5260045260245260445260645ffd5b634b637e8f60e11b5f525f60045260245ffd5b307f00000000000000000000000000000000000000000000000000000000000000006001600160a01b03161480610c23575b15610b8b577f000000000000000000000000000000000000000000000000000000000000000090565b60405160208101907f8b73c3c69bb8fe3d512ecc4cf759cc79239f7b179b0ffacaa9a75d522b39400f82527f000000000000000000000000000000000000000000000000000000000000000060408201527f000000000000000000000000000000000000000000000000000000000000000060608201524660808201523060a082015260a08152610c1d60c082610987565b51902090565b507f00000000000000000000000000000000000000000000000000000000000000004614610b62565b6005546001600160a01b03163303610c6057565b63118cdaa760e01b5f523360045260245ffd5b9091906001600160a01b03168015610b1d57805f525f60205260405f2054838110610cdd576020845f94957fddf252ad1be2c89b69c2b068fc378daa952ba7f163c4a11628f55a4df523b3ef938587528684520360408620558060025403600255604051908152a3565b915063391434e360e21b5f5260045260245260445260645ffd5b6001600160a01b0316908115610a50576001600160a01b0316918215610a3d5760207f8c5be1e5ebec7d5bd14f71427d1e84f3dd0314c0f7b2291e5b200ac8c7c3b92591835f526001825260405f20855f5282528060405f2055604051908152a3565b60ff8114610da05760ff811690601f8211610d915760405191610d7e604084610987565b6020808452838101919036833783525290565b632cd44ac360e21b5f5260045ffd5b50604051610dba81610db3816006610906565b0382610987565b90565b60ff8114610de15760ff811690601f8211610d915760405191610d7e604084610987565b50604051610dba81610db3816007610906565b91907f7fffffffffffffffffffffffffffffff5d576e7357a4501ddfe92f46681b20a08411610e76579160209360809260ff5f9560405194855216868401526040830152606082015282805260015afa15610e6b575f516001600160a01b03811615610e6157905f905f90565b505f906001905f90565b6040513d5f823e3d90fd5b5050505f9160039190565b6004811015610ee15780610e93575050565b60018103610eaa5763f645eedf60e01b5f5260045ffd5b60028103610ec5575063fce698f760e01b5f5260045260245ffd5b600314610ecf5750565b6335e2f38360e21b5f5260045260245ffd5b634e487b7160e01b5f52602160045260245ffd360894a13ba1a3210667c828492db98dca3e2076cc3735a920a3ca505d382bbc02dd7bc7dec4dceedda775e58dd541e08a116c6c53815c0bd028192f7b626800cd5ed15c6e187e77e9aee88184c21f4f2182ab5827cb3b7e07fbedcd63f03300f0c57e16840df040f15088dc2f81fe391c3923bec73e23a9662efc9c229c6a00f0c57e16840df040f15088dc2f81fe391c3923bec73e23a9662efc9c229c6a00","linkReferences":{}},"methodIdentifiers":{"DEFAULT_ADMIN_ROLE()":"a217fddf","PAUSER_ROLE()":"e63ab1e9","UPGRADE_INTERFACE_VERSION()":"ad3cb1cc","getRoleAdmin(bytes32)":"248a9ca3","getTokenSupplyType(address)":"ca67d39c","grantRole(bytes32,address)":"2f2ff15d","hasRole(bytes32,address)":"91d14854","initialize(address,address,address,bytes32,(address,uint8)[])":"763b754a","pause()":"8456cb59","paused()":"5c975abb","processMessage(bytes32,bytes)":"99189e44","proxiableUUID()":"52d1902d","renounceRole(bytes32,address)":"36568abe","requestBridging(address,uint256,bytes32)":"c305870c","requestBridgingPayingFee(address,uint256,bytes32,address)":"1e324b52","requestBridgingPayingFeeWithPermit(address,uint256,bytes32,uint256,uint8,bytes32,bytes32,address)":"f6cdd9cc","revokeRole(bytes32,address)":"d547741f","supportsInterface(bytes4)":"01ffc9a7","unpause()":"3f4ba83a","upgradeToAndCall(address,bytes)":"4f1ef286"},"storageLayout":{"storage":[{"astId":54432,"contract":"src/ERC20Manager.sol:ERC20Manager","label":"_governanceAdmin","offset":0,"slot":"0","type":"t_contract(IGovernance)56924"},{"astId":54435,"contract":"src/ERC20Manager.sol:ERC20Manager","label":"_governancePauser","offset":0,"slot":"1","type":"t_contract(IGovernance)56924"},{"astId":54437,"contract":"src/ERC20Manager.sol:ERC20Manager","label":"_messageQueue","offset":0,"slot":"2","type":"t_address"},{"astId":54439,"contract":"src/ERC20Manager.sol:ERC20Manager","label":"_vftManager","offset":0,"slot":"3","type":"t_bytes32"},{"astId":54444,"contract":"src/ERC20Manager.sol:ERC20Manager","label":"_tokenSupplyType","offset":0,"slot":"4","type":"t_mapping(t_address,t_enum(SupplyType)56728)"}],"types":{"t_address":{"encoding":"inplace","label":"address","numberOfBytes":"20"},"t_bytes32":{"encoding":"inplace","label":"bytes32","numberOfBytes":"32"},"t_contract(IGovernance)56924":{"encoding":"inplace","label":"contract IGovernance","numberOfBytes":"20"},"t_enum(SupplyType)56728":{"encoding":"inplace","label":"enum IERC20Manager.SupplyType","numberOfBytes":"1"},"t_mapping(t_address,t_enum(SupplyType)56728)":{"encoding":"mapping","key":"t_address","label":"mapping(address => enum IERC20Manager.SupplyType)","numberOfBytes":"32","value":"t_enum(SupplyType)56728"}}},"id":80}