{"abi":[{"type":"constructor","inputs":[{"name":"messageQueue","type":"address","internalType":"address"},{"name":"vftManager","type":"bytes32","internalType":"bytes32"}],"stateMutability":"nonpayable"},{"type":"function","name":"getTokenSupplyType","inputs":[{"name":"token","type":"address","internalType":"address"}],"outputs":[{"name":"","type":"uint8","internalType":"enum IERC20Manager.SupplyType"}],"stateMutability":"view"},{"type":"function","name":"processMessage","inputs":[{"name":"source","type":"bytes32","internalType":"bytes32"},{"name":"payload","type":"bytes","internalType":"bytes"}],"outputs":[],"stateMutability":"nonpayable"},{"type":"function","name":"requestBridging","inputs":[{"name":"token","type":"address","internalType":"address"},{"name":"amount","type":"uint256","internalType":"uint256"},{"name":"to","type":"bytes32","internalType":"bytes32"}],"outputs":[],"stateMutability":"nonpayable"},{"type":"function","name":"requestBridgingPayingFee","inputs":[{"name":"token","type":"address","internalType":"address"},{"name":"amount","type":"uint256","internalType":"uint256"},{"name":"to","type":"bytes32","internalType":"bytes32"},{"name":"bridgingPayment","type":"address","internalType":"address"}],"outputs":[],"stateMutability":"payable"},{"type":"function","name":"requestBridgingPayingFeeWithPermit","inputs":[{"name":"token","type":"address","internalType":"address"},{"name":"amount","type":"uint256","internalType":"uint256"},{"name":"to","type":"bytes32","internalType":"bytes32"},{"name":"deadline","type":"uint256","internalType":"uint256"},{"name":"v","type":"uint8","internalType":"uint8"},{"name":"r","type":"bytes32","internalType":"bytes32"},{"name":"s","type":"bytes32","internalType":"bytes32"},{"name":"bridgingPayment","type":"address","internalType":"address"}],"outputs":[],"stateMutability":"payable"},{"type":"event","name":"BridgingAccepted","inputs":[{"name":"to","type":"address","indexed":true,"internalType":"address"},{"name":"token","type":"address","indexed":true,"internalType":"address"},{"name":"amount","type":"uint256","indexed":false,"internalType":"uint256"},{"name":"gearTokensSender","type":"bytes32","indexed":false,"internalType":"bytes32"}],"anonymous":false},{"type":"event","name":"BridgingRequested","inputs":[{"name":"from","type":"address","indexed":true,"internalType":"address"},{"name":"to","type":"bytes32","indexed":true,"internalType":"bytes32"},{"name":"token","type":"address","indexed":true,"internalType":"address"},{"name":"amount","type":"uint256","indexed":false,"internalType":"uint256"}],"anonymous":false},{"type":"error","name":"BadArguments","inputs":[]},{"type":"error","name":"BadSender","inputs":[]},{"type":"error","name":"NotAuthorized","inputs":[]},{"type":"error","name":"SafeERC20FailedOperation","inputs":[{"name":"token","type":"address","internalType":"address"}]}],"bytecode":{"object":"0x60c034607857601f61075138819003918201601f19168301916001600160401b03831184841017607c5780849260409485528339810103126078578051906001600160a01b0382168203607857602001519060805260a0526040516106c0908161009182396080518161024d015260a0518161027d0152f35b5f80fd5b634e487b7160e01b5f52604160045260245ffdfe6080806040526004361015610012575f80fd5b5f905f3560e01c9081631e324b52146104795750806399189e44146101f8578063c305870c146101ce578063ca67d39c146101745763f6cdd9cc14610055575f80fd5b6101003660031901126101715761006a610503565b602435908260843560ff81168091036101625760e4356001600160a01b0381169081900361014957803b156101495782600491604051928380926314b0812960e11b825234905af190811561016657839161014d575b50506001600160a01b03831690813b1561014957829160e48392604051948593849263d505accf60e01b84523360048501523060248501528a60448501526064356064850152608484015260a43560a484015260c43560c48401525af1610134575b5050610131916044359161054f565b80f35b8161013e91610519565b61014957825f610122565b8280fd5b8161015791610519565b61016257815f6100c0565b5080fd5b6040513d85823e3d90fd5b80fd5b5034610171576020366003190112610171576001600160a01b03610196610503565b1681528060205260ff6040822054166040519060038110156101ba57602092508152f35b634e487b7160e01b83526021600452602483fd5b5034610171576060366003190112610171576101316101eb610503565b604435906024359061054f565b50346101715760403660031901126101715760243560043567ffffffffffffffff821161014957366023830112156101495781600401359067ffffffffffffffff821161043e57366024838501011161043e577f00000000000000000000000000000000000000000000000000000000000000006001600160a01b0316330361046a577f00000000000000000000000000000000000000000000000000000000000000008103610451575060688103610442578060141161014957602482013560601c906028811061043e57603883013560601c926048821061040057604c8101359160681161040057606c01358385528460205260ff604086205416600381101561042a576001810361037957506040805163a9059cbb60e01b60208201526001600160a01b0385166024820152604480820185905281527faa2cf5d3a3048848c3129fad75ea4c790a1b9e45b3be93f7fca12da6f625f3779391929061036b90610365606482610519565b87610668565b82519182526020820152a380f35b1561040f575b833b15610400576040516340c10f1960e01b81526001600160a01b03841660048201526024810183905285908181604481838a5af18015610404576103eb575b50507faa2cf5d3a3048848c3129fad75ea4c790a1b9e45b3be93f7fca12da6f625f3779160409161036b565b816103f591610519565b61040057845f6103bf565b8480fd5b6040513d84823e3d90fd5b8385528460205260408520600260ff1982541617905561037f565b634e487b7160e01b86526021600452602486fd5b8380fd5b630b9cddcd60e11b8352600483fd5b91505061045b5780f35b63f9b5d12d60e01b8152600490fd5b63ea8e4eb560e01b8452600484fd5b905060803660031901126104ff5761048f610503565b906064356001600160a01b038116908190036104ff57803b156104ff57816004815f936314b0812960e11b825234905af180156104f4576104dd575b5061013190604435906024359061054f565b6104ea9192505f90610519565b5f906101316104cb565b6040513d5f823e3d90fd5b5f80fd5b600435906001600160a01b03821682036104ff57565b90601f8019910116810190811067ffffffffffffffff82111761053b57604052565b634e487b7160e01b5f52604160045260245ffd5b6001600160a01b03165f818152602081905260409020549092919060ff16600381101561065457600281036105f45750823b156104ff5760405163079cc67960e41b8152336004820152602481018290525f8160448183885af180156104f4576105e4575b505b6040519081527ff80de57fd7626baaff7d867494866703686569822c2326ae60b2515ede953c3a60203392a4565b5f6105ee91610519565b5f6105b4565b15610639575b6106346040516323b872dd60e01b60208201523360248201523060448201528260648201526064815261062e608482610519565b84610668565b6105b6565b825f525f60205260405f20600160ff198254161790556105fa565b634e487b7160e01b5f52602160045260245ffd5b905f602091828151910182855af1156104f4575f513d6106b757506001600160a01b0381163b155b6106975750565b635274afe760e01b5f9081526001600160a01b0391909116600452602490fd5b6001141561069056","linkReferences":{}},"methodIdentifiers":{"getTokenSupplyType(address)":"ca67d39c","processMessage(bytes32,bytes)":"99189e44","requestBridging(address,uint256,bytes32)":"c305870c","requestBridgingPayingFee(address,uint256,bytes32,address)":"1e324b52","requestBridgingPayingFeeWithPermit(address,uint256,bytes32,uint256,uint8,bytes32,bytes32,address)":"f6cdd9cc"},"id":60}