{"abi":[{"type":"constructor","inputs":[],"stateMutability":"nonpayable"},{"type":"function","name":"DEFAULT_ADMIN_ROLE","inputs":[],"outputs":[{"name":"","type":"bytes32","internalType":"bytes32"}],"stateMutability":"view"},{"type":"function","name":"PAUSER_ROLE","inputs":[],"outputs":[{"name":"","type":"bytes32","internalType":"bytes32"}],"stateMutability":"view"},{"type":"function","name":"UPGRADE_INTERFACE_VERSION","inputs":[],"outputs":[{"name":"","type":"string","internalType":"string"}],"stateMutability":"view"},{"type":"function","name":"bridgingPayments","inputs":[],"outputs":[{"name":"","type":"address[]","internalType":"address[]"}],"stateMutability":"view"},{"type":"function","name":"bridgingPayments","inputs":[{"name":"offset","type":"uint256","internalType":"uint256"},{"name":"limit","type":"uint256","internalType":"uint256"}],"outputs":[{"name":"","type":"address[]","internalType":"address[]"}],"stateMutability":"view"},{"type":"function","name":"createBridgingPayment","inputs":[{"name":"fee","type":"uint256","internalType":"uint256"}],"outputs":[{"name":"","type":"address","internalType":"address"}],"stateMutability":"nonpayable"},{"type":"function","name":"getRoleAdmin","inputs":[{"name":"role","type":"bytes32","internalType":"bytes32"}],"outputs":[{"name":"","type":"bytes32","internalType":"bytes32"}],"stateMutability":"view"},{"type":"function","name":"getTokenType","inputs":[{"name":"token","type":"address","internalType":"address"}],"outputs":[{"name":"","type":"uint8","internalType":"enum IERC20Manager.TokenType"}],"stateMutability":"view"},{"type":"function","name":"governanceAdmin","inputs":[],"outputs":[{"name":"","type":"address","internalType":"address"}],"stateMutability":"view"},{"type":"function","name":"governancePauser","inputs":[],"outputs":[{"name":"","type":"address","internalType":"address"}],"stateMutability":"view"},{"type":"function","name":"grantRole","inputs":[{"name":"role","type":"bytes32","internalType":"bytes32"},{"name":"account","type":"address","internalType":"address"}],"outputs":[],"stateMutability":"nonpayable"},{"type":"function","name":"handleMessage","inputs":[{"name":"source","type":"bytes32","internalType":"bytes32"},{"name":"payload","type":"bytes","internalType":"bytes"}],"outputs":[],"stateMutability":"nonpayable"},{"type":"function","name":"hasRole","inputs":[{"name":"role","type":"bytes32","internalType":"bytes32"},{"name":"account","type":"address","internalType":"address"}],"outputs":[{"name":"","type":"bool","internalType":"bool"}],"stateMutability":"view"},{"type":"function","name":"initialize","inputs":[{"name":"governanceAdmin_","type":"address","internalType":"contract IGovernance"},{"name":"governancePauser_","type":"address","internalType":"contract IGovernance"},{"name":"messageQueue_","type":"address","internalType":"address"},{"name":"vftManager","type":"bytes32","internalType":"bytes32"},{"name":"tokens_","type":"tuple[]","internalType":"struct IERC20Manager.TokenInfo[]","components":[{"name":"token","type":"address","internalType":"address"},{"name":"tokenType","type":"uint8","internalType":"enum IERC20Manager.TokenType"}]}],"outputs":[],"stateMutability":"nonpayable"},{"type":"function","name":"isBridgingPayment","inputs":[{"name":"bridgingPayment","type":"address","internalType":"address"}],"outputs":[{"name":"","type":"bool","internalType":"bool"}],"stateMutability":"view"},{"type":"function","name":"isVftManager","inputs":[{"name":"vftManager","type":"bytes32","internalType":"bytes32"}],"outputs":[{"name":"","type":"bool","internalType":"bool"}],"stateMutability":"view"},{"type":"function","name":"messageQueue","inputs":[],"outputs":[{"name":"","type":"address","internalType":"address"}],"stateMutability":"view"},{"type":"function","name":"pause","inputs":[],"outputs":[],"stateMutability":"nonpayable"},{"type":"function","name":"paused","inputs":[],"outputs":[{"name":"","type":"bool","internalType":"bool"}],"stateMutability":"view"},{"type":"function","name":"proxiableUUID","inputs":[],"outputs":[{"name":"","type":"bytes32","internalType":"bytes32"}],"stateMutability":"view"},{"type":"function","name":"renounceRole","inputs":[{"name":"role","type":"bytes32","internalType":"bytes32"},{"name":"callerConfirmation","type":"address","internalType":"address"}],"outputs":[],"stateMutability":"nonpayable"},{"type":"function","name":"requestBridging","inputs":[{"name":"token","type":"address","internalType":"address"},{"name":"amount","type":"uint256","internalType":"uint256"},{"name":"to","type":"bytes32","internalType":"bytes32"}],"outputs":[],"stateMutability":"nonpayable"},{"type":"function","name":"requestBridgingPayingFee","inputs":[{"name":"token","type":"address","internalType":"address"},{"name":"amount","type":"uint256","internalType":"uint256"},{"name":"to","type":"bytes32","internalType":"bytes32"},{"name":"bridgingPayment","type":"address","internalType":"address"}],"outputs":[],"stateMutability":"payable"},{"type":"function","name":"requestBridgingPayingFeeWithPermit","inputs":[{"name":"token","type":"address","internalType":"address"},{"name":"amount","type":"uint256","internalType":"uint256"},{"name":"to","type":"bytes32","internalType":"bytes32"},{"name":"deadline","type":"uint256","internalType":"uint256"},{"name":"v","type":"uint8","internalType":"uint8"},{"name":"r","type":"bytes32","internalType":"bytes32"},{"name":"s","type":"bytes32","internalType":"bytes32"},{"name":"bridgingPayment","type":"address","internalType":"address"}],"outputs":[],"stateMutability":"payable"},{"type":"function","name":"requestBridgingWithPermit","inputs":[{"name":"token","type":"address","internalType":"address"},{"name":"amount","type":"uint256","internalType":"uint256"},{"name":"to","type":"bytes32","internalType":"bytes32"},{"name":"deadline","type":"uint256","internalType":"uint256"},{"name":"v","type":"uint8","internalType":"uint8"},{"name":"r","type":"bytes32","internalType":"bytes32"},{"name":"s","type":"bytes32","internalType":"bytes32"}],"outputs":[],"stateMutability":"nonpayable"},{"type":"function","name":"revokeRole","inputs":[{"name":"role","type":"bytes32","internalType":"bytes32"},{"name":"account","type":"address","internalType":"address"}],"outputs":[],"stateMutability":"nonpayable"},{"type":"function","name":"supportsInterface","inputs":[{"name":"interfaceId","type":"bytes4","internalType":"bytes4"}],"outputs":[{"name":"","type":"bool","internalType":"bool"}],"stateMutability":"view"},{"type":"function","name":"tokens","inputs":[{"name":"offset","type":"uint256","internalType":"uint256"},{"name":"limit","type":"uint256","internalType":"uint256"}],"outputs":[{"name":"","type":"address[]","internalType":"address[]"}],"stateMutability":"view"},{"type":"function","name":"tokens","inputs":[],"outputs":[{"name":"","type":"address[]","internalType":"address[]"}],"stateMutability":"view"},{"type":"function","name":"totalBridgingPayments","inputs":[],"outputs":[{"name":"","type":"uint256","internalType":"uint256"}],"stateMutability":"view"},{"type":"function","name":"totalTokens","inputs":[],"outputs":[{"name":"","type":"uint256","internalType":"uint256"}],"stateMutability":"view"},{"type":"function","name":"totalVftManagers","inputs":[],"outputs":[{"name":"","type":"uint256","internalType":"uint256"}],"stateMutability":"view"},{"type":"function","name":"unpause","inputs":[],"outputs":[],"stateMutability":"nonpayable"},{"type":"function","name":"upgradeToAndCall","inputs":[{"name":"newImplementation","type":"address","internalType":"address"},{"name":"data","type":"bytes","internalType":"bytes"}],"outputs":[],"stateMutability":"payable"},{"type":"function","name":"vftManagers","inputs":[],"outputs":[{"name":"","type":"bytes32[]","internalType":"bytes32[]"}],"stateMutability":"view"},{"type":"function","name":"vftManagers","inputs":[{"name":"offset","type":"uint256","internalType":"uint256"},{"name":"limit","type":"uint256","internalType":"uint256"}],"outputs":[{"name":"","type":"bytes32[]","internalType":"bytes32[]"}],"stateMutability":"view"},{"type":"event","name":"Bridged","inputs":[{"name":"from","type":"bytes32","indexed":true,"internalType":"bytes32"},{"name":"to","type":"address","indexed":true,"internalType":"address"},{"name":"token","type":"address","indexed":true,"internalType":"address"},{"name":"amount","type":"uint256","indexed":false,"internalType":"uint256"}],"anonymous":false},{"type":"event","name":"BridgingPaymentCreated","inputs":[{"name":"bridgingPayment","type":"address","indexed":false,"internalType":"address"}],"anonymous":false},{"type":"event","name":"BridgingRequested","inputs":[{"name":"from","type":"address","indexed":true,"internalType":"address"},{"name":"to","type":"bytes32","indexed":true,"internalType":"bytes32"},{"name":"token","type":"address","indexed":true,"internalType":"address"},{"name":"amount","type":"uint256","indexed":false,"internalType":"uint256"}],"anonymous":false},{"type":"event","name":"EthereumTokenRegistered","inputs":[{"name":"token","type":"address","indexed":false,"internalType":"address"}],"anonymous":false},{"type":"event","name":"GearTokenRegistered","inputs":[{"name":"token","type":"address","indexed":false,"internalType":"address"},{"name":"tokenName","type":"string","indexed":false,"internalType":"string"},{"name":"tokenSymbol","type":"string","indexed":false,"internalType":"string"},{"name":"tokenDecimals","type":"uint8","indexed":false,"internalType":"uint8"}],"anonymous":false},{"type":"event","name":"Initialized","inputs":[{"name":"version","type":"uint64","indexed":false,"internalType":"uint64"}],"anonymous":false},{"type":"event","name":"Paused","inputs":[{"name":"account","type":"address","indexed":false,"internalType":"address"}],"anonymous":false},{"type":"event","name":"RoleAdminChanged","inputs":[{"name":"role","type":"bytes32","indexed":true,"internalType":"bytes32"},{"name":"previousAdminRole","type":"bytes32","indexed":true,"internalType":"bytes32"},{"name":"newAdminRole","type":"bytes32","indexed":true,"internalType":"bytes32"}],"anonymous":false},{"type":"event","name":"RoleGranted","inputs":[{"name":"role","type":"bytes32","indexed":true,"internalType":"bytes32"},{"name":"account","type":"address","indexed":true,"internalType":"address"},{"name":"sender","type":"address","indexed":true,"internalType":"address"}],"anonymous":false},{"type":"event","name":"RoleRevoked","inputs":[{"name":"role","type":"bytes32","indexed":true,"internalType":"bytes32"},{"name":"account","type":"address","indexed":true,"internalType":"address"},{"name":"sender","type":"address","indexed":true,"internalType":"address"}],"anonymous":false},{"type":"event","name":"Unpaused","inputs":[{"name":"account","type":"address","indexed":false,"internalType":"address"}],"anonymous":false},{"type":"event","name":"Upgraded","inputs":[{"name":"implementation","type":"address","indexed":true,"internalType":"address"}],"anonymous":false},{"type":"event","name":"VftManagerAdded","inputs":[{"name":"vftManager","type":"bytes32","indexed":false,"internalType":"bytes32"}],"anonymous":false},{"type":"error","name":"AccessControlBadConfirmation","inputs":[]},{"type":"error","name":"AccessControlUnauthorizedAccount","inputs":[{"name":"account","type":"address","internalType":"address"},{"name":"neededRole","type":"bytes32","internalType":"bytes32"}]},{"type":"error","name":"AddressEmptyCode","inputs":[{"name":"target","type":"address","internalType":"address"}]},{"type":"error","name":"ERC1967InvalidImplementation","inputs":[{"name":"implementation","type":"address","internalType":"address"}]},{"type":"error","name":"ERC1967NonPayable","inputs":[]},{"type":"error","name":"EnforcedPause","inputs":[]},{"type":"error","name":"ExpectedPause","inputs":[]},{"type":"error","name":"FailedCall","inputs":[]},{"type":"error","name":"InvalidAmount","inputs":[]},{"type":"error","name":"InvalidBridgingPayment","inputs":[]},{"type":"error","name":"InvalidInitialization","inputs":[]},{"type":"error","name":"InvalidPayload","inputs":[]},{"type":"error","name":"InvalidSender","inputs":[]},{"type":"error","name":"InvalidSource","inputs":[]},{"type":"error","name":"InvalidTokenType","inputs":[]},{"type":"error","name":"NotInitializing","inputs":[]},{"type":"error","name":"SafeERC20FailedOperation","inputs":[{"name":"token","type":"address","internalType":"address"}]},{"type":"error","name":"UUPSUnauthorizedCallContext","inputs":[]},{"type":"error","name":"UUPSUnsupportedProxiableUUID","inputs":[{"name":"slot","type":"bytes32","internalType":"bytes32"}]}],"bytecode":{"object":"0x60a080604052346100c257306080525f516020613f235f395f51905f525460ff8160401c166100b3576002600160401b03196001600160401b03821601610060575b604051613e5c90816100c78239608051818181610d3f0152610e1d0152f35b6001600160401b0319166001600160401b039081175f516020613f235f395f51905f525581527fc7f505b2f371ae2175ee4913f4499e1f2633a7b5936321eed1cdaeb6115181d290602090a15f80610041565b63f92ee8a960e01b5f5260045ffd5b5f80fdfe6080806040526004361015610012575f80fd5b5f905f3560e01c90816258f6b81461158f5750806301ffc9a7146115395780630c9d9b9714611501578063109ec2e71461148d5780631e324b52146113da578063240dfa95146113bc578063248a9ca31461137c5780632f2ff15d14611331578063302ac5d0146111ea57806336568abe146111a557806338ff319f146110e05780633b70c18a146110b75780633f4ba83a146110375780634e689539146110025780634f1ef28614610d9357806352d1902d14610d2c5780635c975abb14610cfd5780636a762d5c14610ccf578063763b754a1461098b5780637e1c0c091461096d5780638456cb59146108fa57806387be40b11461088557806387e7a3a31461086a5780638b4864d61461084f5780638b841f6c1461083157806391d14854146107db57806393272baf1461078f5780639d63848a1461070e578063a217fddf146106f2578063ad3cb1cc146106a9578063c1c609211461067e578063c305870c146104ed578063c81eb797146104c4578063d547741f14610470578063e63ab1e9146104545763f6cdd9cc146101a9575f80fd5b610100366003190112610451576101be6115b1565b6024356101c9611655565b9160e4356001600160a01b0381169081900361044f576101e7611718565b6101fc815f52600960205260405f2054151590565b15610440578085913b156104275781600491604051928380926314b0812960e11b825234905af180156103e05761042b575b5050610238611718565b6001600160a01b038116928490843b156104275760ff6040519163d505accf60e01b8352336004840152306024840152856044840152606435606484015216608482015260a43560a482015260c43560c4820152818160e48183895af161040e575b50506102a4611718565b81156103ff576102b3906120a4565b905060038110156103eb57806102d25763a1e9dd9d60e01b8452600484fd5b6001810361038257506040516323b872dd60e01b84523360045230602452604482905260208460648180875af1906001855114821615610361575b604052836060521561034d575b604051908152604435907ff80de57fd7626baaff7d867494866703686569822c2326ae60b2515ede953c3a60203392a480f35b635274afe760e01b83526004829052602483fd5b90600181151661037957833b15153d1516169061030d565b503d84823e3d90fd5b60020361031a57813b156103dc5760405163079cc67960e41b8152336004820152602481018290528390818160448183885af180156103e0576103c7575b505061031a565b816103d19161161f565b6103dc57825f6103c0565b8280fd5b6040513d84823e3d90fd5b634e487b7160e01b84526021600452602484fd5b63162908e360e11b8452600484fd5b816104189161161f565b61042357835f61029a565b8380fd5b5080fd5b816104359161161f565b61042357835f61022e565b631e37e19560e31b8552600485fd5b845b80fd5b5034610451578060031936011261045157602060405160018152f35b5034610451576040366003190112610451576104c06004356104906115c7565b906104bb6104b6825f525f516020613dfc5f395f51905f52602052600160405f20015490565b61178f565b611dcc565b5080f35b50346104515780600319360112610451576001546040516001600160a01b039091168152602090f35b5034610451576060366003190112610451576105076115b1565b60243590610513611718565b811561066f57610522816120a4565b905060038110156103eb57806105415763a1e9dd9d60e01b8452600484fd5b6001810361060757506040516323b872dd60e01b8452336004523060245260448390526001600160a01b0382169060208560648180865af19060018651148216156105e6575b60405284606052156105d457505b6040519182526001600160a01b0316906044359033907ff80de57fd7626baaff7d867494866703686569822c2326ae60b2515ede953c3a90602090a480f35b635274afe760e01b8452600452602483fd5b9060018115166105fe57823b15153d15161690610587565b503d85823e3d90fd5b60020361059557826001600160a01b038216803b156104275760405163079cc67960e41b8152336004820152602481018590529082908290604490829084905af180156103e05761065a575b5050610595565b816106649161161f565b6103dc57825f610653565b63162908e360e11b8352600483fd5b5034610451576106a5610699610693366116b6565b90612027565b6040519182918261167d565b0390f35b5034610451578060031936011261045157506106a56040516106cc60408261161f565b60058152640352e302e360dc1b60208201526040519182916020835260208301906116cc565b5034610451578060031936011261045157602090604051908152f35b503461045157806003193601126104515760405180916020600554928381520191600582527f036b6384b5eca791c62761152d0c79bb0604c104a5fb6f4eb0703f3154bb3db0915b818110610779576106a58561076d8187038261161f565b604051918291826115dd565b8254845260209093019260019283019201610756565b5034610451576020366003190112610451576107b16107ac6115b1565b6120a4565b604051915060038110156107c757602092508152f35b634e487b7160e01b83526021600452602483fd5b50346104515760403660031901126104515760406107f76115c7565b9160043581525f516020613dfc5f395f51905f52602052209060018060a01b03165f52602052602060ff60405f2054166040519015158152f35b50346104515780600319360112610451576020600854604051908152f35b5034610451576106a561076d610864366116b6565b90611faa565b5034610451576106a561076d61087f366116b6565b90611f11565b503461045157806003193601126104515760405180916020600354928381520191600382527fc2575a0e9e593c00f959f8c92f12db2869c3395a3b0502d05e2516446f71f85b915b8181106108e4576106a5856106998187038261161f565b82548452602090930192600192830192016108cd565b503461045157806003193601126104515761091361173f565b61091b611718565b600160ff195f516020613e1c5f395f51905f525416175f516020613e1c5f395f51905f52557f62e78cea01bee320cd4e420270b5ea74000d11b0c9f74754ebdbfc544b05a2586020604051338152a180f35b50346104515780600319360112610451576020600554604051908152f35b50346104515760a0366003190112610451576109a56115b1565b6109ad6115c7565b6044356001600160a01b03811690819003610423576084359167ffffffffffffffff831161044f573660238401121561044f5782600401356109ee81611665565b936109fc604051958661161f565b8185526024602086019260061b82010190368211610ccb57602401915b818310610c53575050505f516020613e3c5f395f51905f52549360ff8560401c16159467ffffffffffffffff811680159081610c4b575b6001149081610c41575b159081610c38575b50610c295767ffffffffffffffff1981166001175f516020613e3c5f395f51905f525585610bfd575b50610a946121f3565b610a9c6121f3565b6001600160a01b031690610aaf826117d5565b50610ab982611884565b506001600160a01b031690610acd82611884565b506001600160601b0360a01b8654161785556001600160601b0360a01b60015416176001556001600160601b0360a01b6002541617600255610b1060643561213a565b50825b8151811015610b9c57610b2681836116f0565b51602081019081516003811015610b8857610b4a5763a1e9dd9d60e01b8652600486fd5b519051906001600160a01b03166003821015610b745760019291610b6d91611e68565b5001610b13565b634e487b7160e01b86526021600452602486fd5b634e487b7160e01b87526021600452602487fd5b5050610ba55780f35b68ff0000000000000000195f516020613e3c5f395f51905f5254165f516020613e3c5f395f51905f52557fc7f505b2f371ae2175ee4913f4499e1f2633a7b5936321eed1cdaeb6115181d2602060405160018152a180f35b68ffffffffffffffffff191668010000000000000001175f516020613e3c5f395f51905f52555f610a8b565b63f92ee8a960e01b8752600487fd5b9050155f610a62565b303b159150610a5a565b879150610a50565b604083360312610ccb57604051906040820182811067ffffffffffffffff821117610cb75760405283356001600160a01b0381168103610cb35782526020840135906003821015610cb35782602092836040950152815201920191610a19565b8980fd5b634e487b7160e01b8a52604160045260248afd5b8780fd5b50346104515760e036600319011261045157610ce96115b1565b602435610cf4611655565b91610238611718565b5034610451578060031936011261045157602060ff5f516020613e1c5f395f51905f5254166040519015158152f35b50346104515780600319360112610451577f00000000000000000000000000000000000000000000000000000000000000006001600160a01b03163003610d845760206040515f516020613ddc5f395f51905f528152f35b63703e46dd60e11b8152600490fd5b50604036600319011261045157610da86115b1565b906024359167ffffffffffffffff8311610427573660238401121561042757826004013567ffffffffffffffff8111610fee5760405193610df3601f8301601f19166020018661161f565b81855236602483830101116104235781849260246020930183880137850101526001600160a01b037f000000000000000000000000000000000000000000000000000000000000000016308114908115610fcc575b50610fbd578180525f516020613dfc5f395f51905f5260209081526040808420335f908152925290205460ff1615610fa5576040516352d1902d60e01b8152926001600160a01b0382169190602085600481865afa80958596610f6d575b50610ebf57634c9c8ce360e01b84526004839052602484fd5b9091845f516020613ddc5f395f51905f528103610f5b5750823b15610f49575f516020613ddc5f395f51905f5280546001600160a01b031916821790557fbc7cd75a20ee27fd9adebab32041f755214dbc6bffa90cc0225b39da2e5c2d3b8480a2805115610f30576104c09161225e565b505034610f3a5780f35b63b398979f60e01b8152600490fd5b634c9c8ce360e01b8452600452602483fd5b632a87526960e21b8552600452602484fd5b9095506020813d602011610f9d575b81610f896020938361161f565b81010312610f995751945f610ea6565b5f80fd5b3d9150610f7c565b63e2517d3f60e01b8252336004526024829052604482fd5b63703e46dd60e11b8252600482fd5b5f516020613ddc5f395f51905f52546001600160a01b0316141590505f610e48565b634e487b7160e01b83526041600452602483fd5b503461045157602036600319011261045157602061102d6004355f52600460205260405f2054151590565b6040519015158152f35b503461045157806003193601126104515761105061173f565b5f516020613e1c5f395f51905f525460ff8116156110a85760ff19165f516020613e1c5f395f51905f52557f5db9ee0a495bf2e6ff9c91a7834c1ba4fdd244a5e8aa4e537bd38aeae4b073aa6020604051338152a180f35b638dfc202b60e01b8252600482fd5b50346104515780600319360112610451576002546040516001600160a01b039091168152602090f35b5034610451576020366003190112610451576110fa611718565b60405161043d8082019082821067ffffffffffffffff8311176111915760609183916122eb8339308152600435602082015233604082015203019082f08015611184576020906001600160a01b0316611152816120dc565b507f9d5f66d985a12f505753a5f6417ed3c4ec6e68963ee0119770dda415f0d14ad082604051838152a1604051908152f35b50604051903d90823e3d90fd5b634e487b7160e01b84526041600452602484fd5b5034610451576040366003190112610451576111bf6115c7565b336001600160a01b038216036111db576104c090600435611dcc565b63334bd91960e11b8252600482fd5b50346104515760403660031901126104515760043560243567ffffffffffffffff81116103dc57366023820112156103dc5780600401359167ffffffffffffffff83116104235760248201916024843692010111610423576002546001600160a01b0316330361132257611269815f52600460205260405f2054151590565b1561129057509061127991611c0f565b156112815780f35b637c6953f960e01b8152600490fd5b8354604051635aa6e67560e01b81529190602090839060049082906001600160a01b03165afa9182156113175785926112e3575b50036112d4579061127991611a37565b638154374b60e01b8352600483fd5b9091506020813d60201161130f575b816112ff6020938361161f565b81010312610f995751905f6112c4565b3d91506112f2565b6040513d87823e3d90fd5b636edaef2f60e11b8452600484fd5b5034610451576040366003190112610451576104c06004356113516115c7565b906113776104b6825f525f516020613dfc5f395f51905f52602052600160405f20015490565b611931565b50346104515760203660031901126104515760206113b46004355f525f516020613dfc5f395f51905f52602052600160405f20015490565b604051908152f35b50346104515780600319360112610451576020600354604051908152f35b506080366003190112610f99576113ef6115b1565b602435906064356001600160a01b03811690819003610f9957611410611718565b611425815f52600960205260405f2054151590565b1561147e57803b15610f99575f600491604051928380926314b0812960e11b825234905af180156114735761145e575b50610513611718565b61146b9193505f9061161f565b5f915f611455565b6040513d5f823e3d90fd5b631e37e19560e31b5f5260045ffd5b34610f99575f366003190112610f995760405180602060085491828152019060085f527ff3f7a9fe364faab93b216da50a3214154f22a0a2b415b23a84c8169e8b636ee3905f5b8181106114eb576106a58561076d8187038261161f565b82548452602090930192600192830192016114d4565b34610f99576020366003190112610f9957602061102d6001600160a01b036115276115b1565b165f52600960205260405f2054151590565b34610f99576020366003190112610f995760043563ffffffff60e01b8116809103610f9957602090637965db0b60e01b811490811561157e575b506040519015158152f35b6301ffc9a760e01b14905082611573565b34610f99575f366003190112610f99575f546001600160a01b03168152602090f35b600435906001600160a01b0382168203610f9957565b602435906001600160a01b0382168203610f9957565b60206040818301928281528451809452019201905f5b8181106116005750505090565b82516001600160a01b03168452602093840193909201916001016115f3565b90601f8019910116810190811067ffffffffffffffff82111761164157604052565b634e487b7160e01b5f52604160045260245ffd5b6084359060ff82168203610f9957565b67ffffffffffffffff81116116415760051b60200190565b60206040818301928281528451809452019201905f5b8181106116a05750505090565b8251845260209384019390920191600101611693565b6040906003190112610f99576004359060243590565b805180835260209291819084018484015e5f828201840152601f01601f1916010190565b80518210156117045760209160051b010190565b634e487b7160e01b5f52603260045260245ffd5b60ff5f516020613e1c5f395f51905f52541661173057565b63d93c066560e01b5f5260045ffd5b335f9081527f2222dce04fae1e25cd76e9391151ad9e0187ef92144ac6ce9e4e09f2c453b751602052604090205460ff161561177757565b63e2517d3f60e01b5f5233600452600160245260445ffd5b5f8181525f516020613dfc5f395f51905f526020908152604080832033845290915290205460ff16156117bf5750565b63e2517d3f60e01b5f523360045260245260445ffd5b6001600160a01b0381165f9081527fb7db2dd08fcb62d0c9e08c51941cae53c267786a0b75803fb7960902fc8ef97d602052604090205460ff1661187f576001600160a01b03165f8181527fb7db2dd08fcb62d0c9e08c51941cae53c267786a0b75803fb7960902fc8ef97d60205260408120805460ff191660011790553391907f2f8788117e7eff1d82e926ec794901d17c78024a50270940304540a733656f0d8180a4600190565b505f90565b6001600160a01b0381165f9081527f2222dce04fae1e25cd76e9391151ad9e0187ef92144ac6ce9e4e09f2c453b751602052604090205460ff1661187f576001600160a01b03165f8181527f2222dce04fae1e25cd76e9391151ad9e0187ef92144ac6ce9e4e09f2c453b75160205260408120805460ff191660019081179091553392917f2f8788117e7eff1d82e926ec794901d17c78024a50270940304540a733656f0d9080a4600190565b5f8181525f516020613dfc5f395f51905f52602090815260408083206001600160a01b038616845290915290205460ff166119cf575f8181525f516020613dfc5f395f51905f52602090815260408083206001600160a01b0395909516808452949091528120805460ff19166001179055339291907f2f8788117e7eff1d82e926ec794901d17c78024a50270940304540a733656f0d9080a4600190565b50505f90565b919082018092116119e257565b634e487b7160e01b5f52601160045260245ffd5b92611a3090611a2260609460ff9498979860018060a01b031687526080602088015260808701906116cc565b9085820360408701526116cc565b9416910152565b9080156119cf57813560f81c60028111611b6f578015611bd657600114611b8e5760420361187f576001810135906041602182013591013560f81c91805f1a60018110159081611b82575b5015611b6f57815f1a60018110159081611b76575b5015611b6f57611ac3611ae3919060405191604083016040525f8352601f8301525f6020835184010152565b919060405191604083016040525f8352601f8301525f6020835184010152565b6040516116b480820182811067ffffffffffffffff82111761164157858486611b14938695612728873930906119f6565b03905ff08015611473577facef1c6c805d7395b4aeee279bc679beea84f01a1f1b08be7aef2af535bba81f936001600160a01b0390911691611b679190611b5a84611eba565b50604051948594856119f6565b0390a1600190565b5050505f90565b601f915011155f611a97565b601f915011155f611a82565b60150361187f57602060017fdf6d7b91d41cb55ced11681822028e1605f72d50168b3898feb40ee04259d18292013560601c611bc981611e95565b50604051908152a1600190565b5060210361187f57602060017fc6b4ec1bc7a17331ef296e0810039347563e90c3fa496b4de270f6c5ff345abe920135611bc98161213a565b60685f92036119cf57602081013560601c603482013560601c91604881013590611c38846120a4565b90506003811015611db85780611c575763a1e9dd9d60e01b8652600486fd5b939492939192909160018103611d07575060405163a9059cbb60e01b82528460045283602452602082604481808a5af1906001835114821615611ce5575b60405215611cd1575060207fabdd326df16eff74bb67e4a6b3d6372ceba76796f256a7b7f8577108cf5db287915b6040519384523592a4600190565b635274afe760e01b81526004859052602490fd5b906001811516611cfd57863b15153d15161690611c95565b50903d90823e3d90fd5b6002915014611d3a575b60207fabdd326df16eff74bb67e4a6b3d6372ceba76796f256a7b7f8577108cf5db28791611cc3565b833b15610f99576040516340c10f1960e01b81526001600160a01b038416600482015260248101839052905f8260448183895af1908115611473577fabdd326df16eff74bb67e4a6b3d6372ceba76796f256a7b7f8577108cf5db28792602092611da8575b50915050611d11565b5f611db29161161f565b5f611d9f565b634e487b7160e01b5f52602160045260245ffd5b5f8181525f516020613dfc5f395f51905f52602090815260408083206001600160a01b038616845290915290205460ff16156119cf575f8181525f516020613dfc5f395f51905f52602090815260408083206001600160a01b0395909516808452949091528120805460ff19169055339291907ff6391f5c32d9c69d2a47ea670b442974b53935d1edc7fd64eb21e047a839171b9080a4600190565b6001600160a01b03166003821015611db857611e9291815f52600760205260405f20556005612198565b90565b6001600160a01b03165f81815260076020526040902060019055611e92906005612198565b6001600160a01b03165f81815260076020526040902060029055611e92906005612198565b90611ee982611665565b611ef6604051918261161f565b8281528092611f07601f1991611665565b0190602036910137565b91906008549081841015611f8e57611f2990846119d5565b90808211611f86575b508281039081116119e257611f4681611edf565b905f5b818110611f57575090925050565b80611f6e611f67600193886119d5565b60086120c7565b90549060031b1c611f7f82866116f0565b5201611f49565b90505f611f32565b50509050604051611fa060208261161f565b5f81525f36813790565b91906005549081841015611f8e57611fc290846119d5565b9080821161201f575b508281039081116119e257611fdf81611edf565b905f5b818110611ff0575090925050565b80612007612000600193886119d5565b60056120c7565b90549060031b1c61201882866116f0565b5201611fe2565b90505f611fcb565b91906003549081841015611f8e5761203f90846119d5565b9080821161209c575b508281039081116119e25761205c81611edf565b905f5b81811061206d575090925050565b8061208461207d600193886119d5565b60036120c7565b90549060031b1c61209582866116f0565b520161205f565b90505f612048565b6120b8906001600160a01b0316600561221e565b91906003831015611db8579190565b8054821015611704575f5260205f2001905f90565b805f52600960205260405f2054155f1461187f57600854600160401b81101561164157806001612111920160085560086120c7565b81549060031b9083821b915f19901b1916179055600854905f52600960205260405f2055600190565b805f52600460205260405f2054155f1461187f57600354600160401b8110156116415780600161216f920160035560036120c7565b81549060031b9083821b915f19901b1916179055600354905f52600460205260405f2055600190565b5f8281526001820160205260409020546119cf57805490600160401b821015611641576121cc8260018094018355826120c7565b81549060031b9085821b915f19901b19161790558054925f520160205260405f2055600190565b60ff5f516020613e3c5f395f51905f525460401c161561220f57565b631afcd79f60e31b5f5260045ffd5b9190805f526002830160205260405f20549283155f14612256576122519293506001915f520160205260405f2054151590565b905f90565b505060019190565b905f8091602081519101845af480806122d7575b156122925750506040513d81523d5f602083013e60203d82010160405290565b156122b757639996b31560e01b5f9081526001600160a01b0391909116600452602490fd5b3d156122c8576040513d5f823e3d90fd5b63d6bda27560e01b5f5260045ffd5b503d1515806122725750813b151561227256fe60a0346100e757601f61043d38819003918201601f19168301916001600160401b038311848410176100eb578084926060946040528339810103126100e757610047816100ff565b602082015190916001600160a01b0390610063906040016100ff565b169182156100d4575f80546001600160a01b031981168517825560405194916001600160a01b03909116907f8be0079c531659141344cd1fd0a4f28419497f9722a3daafe3b4186f6b6457e09080a36080526001556103299081610114823960805181818161014c01526102000152f35b631e4fbdf760e01b5f525f60045260245ffd5b5f80fd5b634e487b7160e01b5f52604160045260245ffd5b51906001600160a01b03821682036100e75756fe60806040526004361015610011575f80fd5b5f3560e01c806329610252146101f357806369fe0e2d146101d2578063715018a61461017b57806386ea825c146101375780638da5cb5b14610110578063ddca3f43146100f35763f2fde38b14610066575f80fd5b346100ef5760203660031901126100ef576004356001600160a01b038116908190036100ef57610094610303565b80156100dc575f80546001600160a01b03198116831782556001600160a01b0316907f8be0079c531659141344cd1fd0a4f28419497f9722a3daafe3b4186f6b6457e09080a3005b631e4fbdf760e01b5f525f60045260245ffd5b5f80fd5b346100ef575f3660031901126100ef576020600154604051908152f35b346100ef575f3660031901126100ef575f546040516001600160a01b039091168152602090f35b346100ef575f3660031901126100ef576040517f00000000000000000000000000000000000000000000000000000000000000006001600160a01b03168152602090f35b346100ef575f3660031901126100ef57610193610303565b5f80546001600160a01b0319811682556001600160a01b03167f8be0079c531659141344cd1fd0a4f28419497f9722a3daafe3b4186f6b6457e08280a3005b346100ef5760203660031901126100ef576101eb610303565b600435600155005b5f3660031901126100ef577f00000000000000000000000000000000000000000000000000000000000000006001600160a01b031633036102f45760015434036102e5575f8080803460018060a01b038254165af13d156102e0573d67ffffffffffffffff81116102cc5760405190601f8101601f19908116603f0116820167ffffffffffffffff8111838210176102cc5760405281525f60203d92013e5b156102bd577faaeea0b595e409578c26dd16fa1bdb3a29a4d874694ecef3ca96376940f5fbfb5f80a1005b6353048b4960e11b5f5260045ffd5b634e487b7160e01b5f52604160045260245ffd5b610292565b631fbbed9560e01b5f5260045ffd5b63064917ff60e11b5f5260045ffd5b5f546001600160a01b0316330361031657565b63118cdaa760e01b5f523360045260245ffd61016080604052346104a0576116b4803803809161001d82856104a4565b83398101906080818303126104a05780516001600160a01b038116908190036104a05760208201516001600160401b0381116104a0578361005f9184016104c7565b60408301519093906001600160401b0381116104a0576060916100839185016104c7565b9201519160ff83168093036104a0576040938451926100a286856104a4565b60018452603160f81b6020850190815282519093906001600160401b0381116103b057600354600181811c91168015610496575b602082101461039257601f8111610433575b50806020601f82116001146103cf575f916103c4575b508160011b915f199060031b1c1916176003555b8051906001600160401b0382116103b05760045490600182811c921680156103a6575b60208310146103925781601f849311610324575b50602090601f83116001146102be575f926102b3575b50508160011b915f199060031b1c1916176004555b80156102a057600580546001600160a01b0319811683179091556001600160a01b03167f8be0079c531659141344cd1fd0a4f28419497f9722a3daafe3b4186f6b6457e05f80a36101c48161051c565b610120526101d1836106a3565b6101405260208151910120918260e05251902080610100524660a05283519060208201927f8b73c3c69bb8fe3d512ecc4cf759cc79239f7b179b0ffacaa9a75d522b39400f84528583015260608201524660808201523060a082015260a0815261023c60c0826104a4565b5190206080523060c05260ff19600954161760095551610ed890816107dc823960805181610b4c015260a05181610c09015260c05181610b16015260e05181610b9b01526101005181610bc10152610120518161045f015261014051816104880152f35b631e4fbdf760e01b5f525f60045260245ffd5b015190505f8061015f565b60045f9081528281209350601f198516905b81811061030c57509084600195949392106102f4575b505050811b01600455610174565b01515f1960f88460031b161c191690555f80806102e6565b929360206001819287860151815501950193016102d0565b60045f529091507f8a35acfbc15ff81a39ae7d344fd709f28e8600b4aa8c65c6b64bfe7fe36bd19b601f840160051c81019160208510610388575b90601f859493920160051c01905b81811061037a5750610149565b5f815584935060010161036d565b909150819061035f565b634e487b7160e01b5f52602260045260245ffd5b91607f1691610135565b634e487b7160e01b5f52604160045260245ffd5b90508401515f6100fe565b60035f9081528181209250601f198416905b81811061041b57509083600194939210610403575b5050811b01600355610112565b8601515f1960f88460031b161c191690555f806103f6565b9192602060018192868b0151815501940192016103e1565b60035f527fc2575a0e9e593c00f959f8c92f12db2869c3395a3b0502d05e2516446f71f85b601f830160051c8101916020841061048c575b601f0160051c01905b81811061048157506100e8565b5f8155600101610474565b909150819061046b565b90607f16906100d6565b5f80fd5b601f909101601f19168101906001600160401b038211908210176103b057604052565b81601f820112156104a0578051906001600160401b0382116103b057604051926104fb601f8401601f1916602001856104a4565b828452602083830101116104a057815f9260208093018386015e8301015290565b908151602081105f14610596575090601f815111610556576020815191015160208210610547571790565b5f198260200360031b1b161790565b604460209160405192839163305a27a960e01b83528160048401528051918291826024860152018484015e5f828201840152601f01601f19168101030190fd5b6001600160401b0381116103b057600654600181811c91168015610699575b602082101461039257601f8111610666575b50602092601f821160011461060557928192935f926105fa575b50508160011b915f199060031b1c19161760065560ff90565b015190505f806105e1565b601f1982169360065f52805f20915f5b86811061064e5750836001959610610636575b505050811b0160065560ff90565b01515f1960f88460031b161c191690555f8080610628565b91926020600181928685015181550194019201610615565b60065f52601f60205f20910160051c810190601f830160051c015b81811061068e57506105c7565b5f8155600101610681565b90607f16906105b5565b908151602081105f146106ce575090601f815111610556576020815191015160208210610547571790565b6001600160401b0381116103b057600754600181811c911680156107d1575b602082101461039257601f811161079e575b50602092601f821160011461073d57928192935f92610732575b50508160011b915f199060031b1c19161760075560ff90565b015190505f80610719565b601f1982169360075f52805f20915f5b868110610786575083600195961061076e575b505050811b0160075560ff90565b01515f1960f88460031b161c191690555f8080610760565b9192602060018192868501518155019401920161074d565b60075f52601f60205f20910160051c810190601f830160051c015b8181106107c657506106ff565b5f81556001016107b9565b90607f16906106ed56fe6080806040526004361015610012575f80fd5b5f3560e01c90816306fdde03146107bf57508063095ea7b31461079957806318160ddd1461077c57806323b872dd14610744578063313ce567146107245780633644e5151461070257806340c10f191461065657806342966c681461063957806370a0823114610602578063715018a6146105a757806379cc6790146105775780637ecebe001461053f57806384b0196e146104475780638da5cb5b1461041f57806395d89b411461033d578063a9059cbb1461030c578063d505accf146101c7578063dd62ed3e146101775763f2fde38b146100ed575f80fd5b3461017357602036600319011261017357610106610885565b61010e610c2f565b6001600160a01b0316801561016057600580546001600160a01b0319811683179091556001600160a01b03167f8be0079c531659141344cd1fd0a4f28419497f9722a3daafe3b4186f6b6457e05f80a3005b631e4fbdf760e01b5f525f60045260245ffd5b5f80fd5b3461017357604036600319011261017357610190610885565b61019861089b565b6001600160a01b039182165f908152600160209081526040808320949093168252928352819020549051908152f35b346101735760e0366003190112610173576101e0610885565b6101e861089b565b604435906064359260843560ff81168103610173578442116102f9576102bc6102c59160018060a01b03841696875f52600860205260405f20908154916001830190556040519060208201927f6e71edae12b1b97f4d1f60370fef10105fa2faae0126114a169c64845d6126c984528a604084015260018060a01b038916606084015289608084015260a083015260c082015260c0815261028a60e08261096a565b519020610295610b13565b906040519161190160f01b83526002830152602282015260c43591604260a4359220610dd7565b90929192610e64565b6001600160a01b03168481036102e257506102e09350610cda565b005b84906325c0072360e11b5f5260045260245260445ffd5b8463313c898160e11b5f5260045260245ffd5b3461017357604036600319011261017357610332610328610885565b6024359033610a69565b602060405160018152f35b34610173575f366003190112610173576040515f60045461035d816108b1565b80845290600181169081156103fb575060011461039d575b610399836103858185038261096a565b604051918291602083526020830190610861565b0390f35b60045f9081527f8a35acfbc15ff81a39ae7d344fd709f28e8600b4aa8c65c6b64bfe7fe36bd19b939250905b8082106103e157509091508101602001610385610375565b9192600181602092548385880101520191019092916103c9565b60ff191660208086019190915291151560051b840190910191506103859050610375565b34610173575f366003190112610173576005546040516001600160a01b039091168152602090f35b34610173575f366003190112610173576104e36104837f0000000000000000000000000000000000000000000000000000000000000000610d3d565b6104ac7f0000000000000000000000000000000000000000000000000000000000000000610da0565b60206104f1604051926104bf838561096a565b5f84525f368137604051958695600f60f81b875260e08588015260e0870190610861565b908582036040870152610861565b4660608501523060808501525f60a085015283810360c08501528180845192838152019301915f5b82811061052857505050500390f35b835185528695509381019392810192600101610519565b34610173576020366003190112610173576001600160a01b03610560610885565b165f526008602052602060405f2054604051908152f35b34610173576040366003190112610173576102e0610593610885565b602435906105a28233836109a0565b610c56565b34610173575f366003190112610173576105bf610c2f565b600580546001600160a01b031981169091555f906001600160a01b03167f8be0079c531659141344cd1fd0a4f28419497f9722a3daafe3b4186f6b6457e08280a3005b34610173576020366003190112610173576001600160a01b03610623610885565b165f525f602052602060405f2054604051908152f35b34610173576020366003190112610173576102e060043533610c56565b346101735760403660031901126101735761066f610885565b6024359061067b610c2f565b6001600160a01b03169081156106ef57600254908082018092116106db5760207fddf252ad1be2c89b69c2b068fc378daa952ba7f163c4a11628f55a4df523b3ef915f9360025584845283825260408420818154019055604051908152a3005b634e487b7160e01b5f52601160045260245ffd5b63ec442f0560e01b5f525f60045260245ffd5b34610173575f36600319011261017357602061071c610b13565b604051908152f35b34610173575f36600319011261017357602060ff60095416604051908152f35b3461017357606036600319011261017357610332610760610885565b61076861089b565b604435916107778333836109a0565b610a69565b34610173575f366003190112610173576020600254604051908152f35b34610173576040366003190112610173576103326107b5610885565b6024359033610cda565b34610173575f366003190112610173575f6003546107dc816108b1565b80845290600181169081156103fb575060011461080357610399836103858185038261096a565b60035f9081527fc2575a0e9e593c00f959f8c92f12db2869c3395a3b0502d05e2516446f71f85b939250905b80821061084757509091508101602001610385610375565b91926001816020925483858801015201910190929161082f565b805180835260209291819084018484015e5f828201840152601f01601f1916010190565b600435906001600160a01b038216820361017357565b602435906001600160a01b038216820361017357565b90600182811c921680156108df575b60208310146108cb57565b634e487b7160e01b5f52602260045260245ffd5b91607f16916108c0565b5f92918154916108f8836108b1565b808352926001811690811561094d575060011461091457505050565b5f9081526020812093945091925b838310610933575060209250010190565b600181602092949394548385870101520191019190610922565b915050602093945060ff929192191683830152151560051b010190565b90601f8019910116810190811067ffffffffffffffff82111761098c57604052565b634e487b7160e01b5f52604160045260245ffd5b6001600160a01b039081165f818152600160209081526040808320948616835293905291909120549291905f1984106109da575b50505050565b828410610a46578015610a33576001600160a01b03821615610a20575f52600160205260405f209060018060a01b03165f5260205260405f20910390555f8080806109d4565b634a1406b160e11b5f525f60045260245ffd5b63e602df0560e01b5f525f60045260245ffd5b508290637dc7a0d960e11b5f5260018060a01b031660045260245260445260645ffd5b6001600160a01b0316908115610b00576001600160a01b03169182156106ef57815f525f60205260405f2054818110610ae757817fddf252ad1be2c89b69c2b068fc378daa952ba7f163c4a11628f55a4df523b3ef92602092855f525f84520360405f2055845f525f825260405f20818154019055604051908152a3565b8263391434e360e21b5f5260045260245260445260645ffd5b634b637e8f60e11b5f525f60045260245ffd5b307f00000000000000000000000000000000000000000000000000000000000000006001600160a01b03161480610c06575b15610b6e577f000000000000000000000000000000000000000000000000000000000000000090565b60405160208101907f8b73c3c69bb8fe3d512ecc4cf759cc79239f7b179b0ffacaa9a75d522b39400f82527f000000000000000000000000000000000000000000000000000000000000000060408201527f000000000000000000000000000000000000000000000000000000000000000060608201524660808201523060a082015260a08152610c0060c08261096a565b51902090565b507f00000000000000000000000000000000000000000000000000000000000000004614610b45565b6005546001600160a01b03163303610c4357565b63118cdaa760e01b5f523360045260245ffd5b9091906001600160a01b03168015610b0057805f525f60205260405f2054838110610cc0576020845f94957fddf252ad1be2c89b69c2b068fc378daa952ba7f163c4a11628f55a4df523b3ef938587528684520360408620558060025403600255604051908152a3565b915063391434e360e21b5f5260045260245260445260645ffd5b6001600160a01b0316908115610a33576001600160a01b0316918215610a205760207f8c5be1e5ebec7d5bd14f71427d1e84f3dd0314c0f7b2291e5b200ac8c7c3b92591835f526001825260405f20855f5282528060405f2055604051908152a3565b60ff8114610d835760ff811690601f8211610d745760405191610d6160408461096a565b6020808452838101919036833783525290565b632cd44ac360e21b5f5260045ffd5b50604051610d9d81610d968160066108e9565b038261096a565b90565b60ff8114610dc45760ff811690601f8211610d745760405191610d6160408461096a565b50604051610d9d81610d968160076108e9565b91907f7fffffffffffffffffffffffffffffff5d576e7357a4501ddfe92f46681b20a08411610e59579160209360809260ff5f9560405194855216868401526040830152606082015282805260015afa15610e4e575f516001600160a01b03811615610e4457905f905f90565b505f906001905f90565b6040513d5f823e3d90fd5b5050505f9160039190565b6004811015610ec45780610e76575050565b60018103610e8d5763f645eedf60e01b5f5260045ffd5b60028103610ea8575063fce698f760e01b5f5260045260245ffd5b600314610eb25750565b6335e2f38360e21b5f5260045260245ffd5b634e487b7160e01b5f52602160045260245ffd360894a13ba1a3210667c828492db98dca3e2076cc3735a920a3ca505d382bbc02dd7bc7dec4dceedda775e58dd541e08a116c6c53815c0bd028192f7b626800cd5ed15c6e187e77e9aee88184c21f4f2182ab5827cb3b7e07fbedcd63f03300f0c57e16840df040f15088dc2f81fe391c3923bec73e23a9662efc9c229c6a00f0c57e16840df040f15088dc2f81fe391c3923bec73e23a9662efc9c229c6a00","linkReferences":{}},"methodIdentifiers":{"DEFAULT_ADMIN_ROLE()":"a217fddf","PAUSER_ROLE()":"e63ab1e9","UPGRADE_INTERFACE_VERSION()":"ad3cb1cc","bridgingPayments()":"109ec2e7","bridgingPayments(uint256,uint256)":"87e7a3a3","createBridgingPayment(uint256)":"38ff319f","getRoleAdmin(bytes32)":"248a9ca3","getTokenType(address)":"93272baf","governanceAdmin()":"0058f6b8","governancePauser()":"c81eb797","grantRole(bytes32,address)":"2f2ff15d","handleMessage(bytes32,bytes)":"302ac5d0","hasRole(bytes32,address)":"91d14854","initialize(address,address,address,bytes32,(address,uint8)[])":"763b754a","isBridgingPayment(address)":"0c9d9b97","isVftManager(bytes32)":"4e689539","messageQueue()":"3b70c18a","pause()":"8456cb59","paused()":"5c975abb","proxiableUUID()":"52d1902d","renounceRole(bytes32,address)":"36568abe","requestBridging(address,uint256,bytes32)":"c305870c","requestBridgingPayingFee(address,uint256,bytes32,address)":"1e324b52","requestBridgingPayingFeeWithPermit(address,uint256,bytes32,uint256,uint8,bytes32,bytes32,address)":"f6cdd9cc","requestBridgingWithPermit(address,uint256,bytes32,uint256,uint8,bytes32,bytes32)":"6a762d5c","revokeRole(bytes32,address)":"d547741f","supportsInterface(bytes4)":"01ffc9a7","tokens()":"9d63848a","tokens(uint256,uint256)":"8b4864d6","totalBridgingPayments()":"8b841f6c","totalTokens()":"7e1c0c09","totalVftManagers()":"240dfa95","unpause()":"3f4ba83a","upgradeToAndCall(address,bytes)":"4f1ef286","vftManagers()":"87be40b1","vftManagers(uint256,uint256)":"c1c60921"},"storageLayout":{"storage":[{"astId":63562,"contract":"src/ERC20Manager.sol:ERC20Manager","label":"_governanceAdmin","offset":0,"slot":"0","type":"t_contract(IGovernance)67483"},{"astId":63565,"contract":"src/ERC20Manager.sol:ERC20Manager","label":"_governancePauser","offset":0,"slot":"1","type":"t_contract(IGovernance)67483"},{"astId":63567,"contract":"src/ERC20Manager.sol:ERC20Manager","label":"_messageQueue","offset":0,"slot":"2","type":"t_address"},{"astId":63570,"contract":"src/ERC20Manager.sol:ERC20Manager","label":"_vftManagers","offset":0,"slot":"3","type":"t_struct(Bytes32Set)57112_storage"},{"astId":63573,"contract":"src/ERC20Manager.sol:ERC20Manager","label":"_tokens","offset":0,"slot":"5","type":"t_struct(AddressToTokenTypeMap)68270_storage"},{"astId":63576,"contract":"src/ERC20Manager.sol:ERC20Manager","label":"_bridgingPayments","offset":0,"slot":"8","type":"t_struct(AddressSet)57282_storage"}],"types":{"t_address":{"encoding":"inplace","label":"address","numberOfBytes":"20"},"t_array(t_bytes32)dyn_storage":{"encoding":"dynamic_array","label":"bytes32[]","numberOfBytes":"32","base":"t_bytes32"},"t_bytes32":{"encoding":"inplace","label":"bytes32","numberOfBytes":"32"},"t_contract(IGovernance)67483":{"encoding":"inplace","label":"contract IGovernance","numberOfBytes":"20"},"t_mapping(t_bytes32,t_bytes32)":{"encoding":"mapping","key":"t_bytes32","label":"mapping(bytes32 => bytes32)","numberOfBytes":"32","value":"t_bytes32"},"t_mapping(t_bytes32,t_uint256)":{"encoding":"mapping","key":"t_bytes32","label":"mapping(bytes32 => uint256)","numberOfBytes":"32","value":"t_uint256"},"t_struct(AddressSet)57282_storage":{"encoding":"inplace","label":"struct EnumerableSet.AddressSet","numberOfBytes":"64","members":[{"astId":57281,"contract":"src/ERC20Manager.sol:ERC20Manager","label":"_inner","offset":0,"slot":"0","type":"t_struct(Set)56796_storage"}]},"t_struct(AddressToTokenTypeMap)68270_storage":{"encoding":"inplace","label":"struct CustomEnumerableMap.AddressToTokenTypeMap","numberOfBytes":"96","members":[{"astId":68269,"contract":"src/ERC20Manager.sol:ERC20Manager","label":"_inner","offset":0,"slot":"0","type":"t_struct(Bytes32ToBytes32Map)54037_storage"}]},"t_struct(Bytes32Set)57112_storage":{"encoding":"inplace","label":"struct EnumerableSet.Bytes32Set","numberOfBytes":"64","members":[{"astId":57111,"contract":"src/ERC20Manager.sol:ERC20Manager","label":"_inner","offset":0,"slot":"0","type":"t_struct(Set)56796_storage"}]},"t_struct(Bytes32ToBytes32Map)54037_storage":{"encoding":"inplace","label":"struct EnumerableMap.Bytes32ToBytes32Map","numberOfBytes":"96","members":[{"astId":54032,"contract":"src/ERC20Manager.sol:ERC20Manager","label":"_keys","offset":0,"slot":"0","type":"t_struct(Bytes32Set)57112_storage"},{"astId":54036,"contract":"src/ERC20Manager.sol:ERC20Manager","label":"_values","offset":0,"slot":"2","type":"t_mapping(t_bytes32,t_bytes32)"}]},"t_struct(Set)56796_storage":{"encoding":"inplace","label":"struct EnumerableSet.Set","numberOfBytes":"64","members":[{"astId":56791,"contract":"src/ERC20Manager.sol:ERC20Manager","label":"_values","offset":0,"slot":"0","type":"t_array(t_bytes32)dyn_storage"},{"astId":56795,"contract":"src/ERC20Manager.sol:ERC20Manager","label":"_positions","offset":0,"slot":"1","type":"t_mapping(t_bytes32,t_uint256)"}]},"t_uint256":{"encoding":"inplace","label":"uint256","numberOfBytes":"32"}}},"id":100}