{"abi":[{"type":"constructor","inputs":[],"stateMutability":"nonpayable"},{"type":"function","name":"DEFAULT_ADMIN_ROLE","inputs":[],"outputs":[{"name":"","type":"bytes32","internalType":"bytes32"}],"stateMutability":"view"},{"type":"function","name":"PAUSER_ROLE","inputs":[],"outputs":[{"name":"","type":"bytes32","internalType":"bytes32"}],"stateMutability":"view"},{"type":"function","name":"UPGRADE_INTERFACE_VERSION","inputs":[],"outputs":[{"name":"","type":"string","internalType":"string"}],"stateMutability":"view"},{"type":"function","name":"bridgingPayments","inputs":[],"outputs":[{"name":"","type":"address[]","internalType":"address[]"}],"stateMutability":"view"},{"type":"function","name":"createBridgingPayment","inputs":[{"name":"fee","type":"uint256","internalType":"uint256"}],"outputs":[{"name":"","type":"address","internalType":"address"}],"stateMutability":"nonpayable"},{"type":"function","name":"getRoleAdmin","inputs":[{"name":"role","type":"bytes32","internalType":"bytes32"}],"outputs":[{"name":"","type":"bytes32","internalType":"bytes32"}],"stateMutability":"view"},{"type":"function","name":"getTokenType","inputs":[{"name":"token","type":"address","internalType":"address"}],"outputs":[{"name":"","type":"uint8","internalType":"enum IERC20Manager.TokenType"}],"stateMutability":"view"},{"type":"function","name":"governanceAdmin","inputs":[],"outputs":[{"name":"","type":"address","internalType":"address"}],"stateMutability":"view"},{"type":"function","name":"governancePauser","inputs":[],"outputs":[{"name":"","type":"address","internalType":"address"}],"stateMutability":"view"},{"type":"function","name":"grantRole","inputs":[{"name":"role","type":"bytes32","internalType":"bytes32"},{"name":"account","type":"address","internalType":"address"}],"outputs":[],"stateMutability":"nonpayable"},{"type":"function","name":"handleMessage","inputs":[{"name":"source","type":"bytes32","internalType":"bytes32"},{"name":"payload","type":"bytes","internalType":"bytes"}],"outputs":[],"stateMutability":"nonpayable"},{"type":"function","name":"hasRole","inputs":[{"name":"role","type":"bytes32","internalType":"bytes32"},{"name":"account","type":"address","internalType":"address"}],"outputs":[{"name":"","type":"bool","internalType":"bool"}],"stateMutability":"view"},{"type":"function","name":"initialize","inputs":[{"name":"governanceAdmin_","type":"address","internalType":"contract IGovernance"},{"name":"governancePauser_","type":"address","internalType":"contract IGovernance"},{"name":"messageQueue_","type":"address","internalType":"address"},{"name":"vftManager","type":"bytes32","internalType":"bytes32"},{"name":"tokens_","type":"tuple[]","internalType":"struct IERC20Manager.TokenInfo[]","components":[{"name":"token","type":"address","internalType":"address"},{"name":"tokenType","type":"uint8","internalType":"enum IERC20Manager.TokenType"}]}],"outputs":[],"stateMutability":"nonpayable"},{"type":"function","name":"isBridgingPayment","inputs":[{"name":"bridgingPayment","type":"address","internalType":"address"}],"outputs":[{"name":"","type":"bool","internalType":"bool"}],"stateMutability":"view"},{"type":"function","name":"isVftManager","inputs":[{"name":"vftManager","type":"bytes32","internalType":"bytes32"}],"outputs":[{"name":"","type":"bool","internalType":"bool"}],"stateMutability":"view"},{"type":"function","name":"messageQueue","inputs":[],"outputs":[{"name":"","type":"address","internalType":"address"}],"stateMutability":"view"},{"type":"function","name":"pause","inputs":[],"outputs":[],"stateMutability":"nonpayable"},{"type":"function","name":"paused","inputs":[],"outputs":[{"name":"","type":"bool","internalType":"bool"}],"stateMutability":"view"},{"type":"function","name":"proxiableUUID","inputs":[],"outputs":[{"name":"","type":"bytes32","internalType":"bytes32"}],"stateMutability":"view"},{"type":"function","name":"renounceRole","inputs":[{"name":"role","type":"bytes32","internalType":"bytes32"},{"name":"callerConfirmation","type":"address","internalType":"address"}],"outputs":[],"stateMutability":"nonpayable"},{"type":"function","name":"requestBridging","inputs":[{"name":"token","type":"address","internalType":"address"},{"name":"amount","type":"uint256","internalType":"uint256"},{"name":"to","type":"bytes32","internalType":"bytes32"}],"outputs":[],"stateMutability":"nonpayable"},{"type":"function","name":"requestBridgingPayingFee","inputs":[{"name":"token","type":"address","internalType":"address"},{"name":"amount","type":"uint256","internalType":"uint256"},{"name":"to","type":"bytes32","internalType":"bytes32"},{"name":"bridgingPayment","type":"address","internalType":"address"}],"outputs":[],"stateMutability":"payable"},{"type":"function","name":"requestBridgingPayingFeeWithPermit","inputs":[{"name":"token","type":"address","internalType":"address"},{"name":"amount","type":"uint256","internalType":"uint256"},{"name":"to","type":"bytes32","internalType":"bytes32"},{"name":"deadline","type":"uint256","internalType":"uint256"},{"name":"v","type":"uint8","internalType":"uint8"},{"name":"r","type":"bytes32","internalType":"bytes32"},{"name":"s","type":"bytes32","internalType":"bytes32"},{"name":"bridgingPayment","type":"address","internalType":"address"}],"outputs":[],"stateMutability":"payable"},{"type":"function","name":"revokeRole","inputs":[{"name":"role","type":"bytes32","internalType":"bytes32"},{"name":"account","type":"address","internalType":"address"}],"outputs":[],"stateMutability":"nonpayable"},{"type":"function","name":"supportsInterface","inputs":[{"name":"interfaceId","type":"bytes4","internalType":"bytes4"}],"outputs":[{"name":"","type":"bool","internalType":"bool"}],"stateMutability":"view"},{"type":"function","name":"tokens","inputs":[],"outputs":[{"name":"","type":"address[]","internalType":"address[]"}],"stateMutability":"view"},{"type":"function","name":"totalBridgingPayments","inputs":[],"outputs":[{"name":"","type":"uint256","internalType":"uint256"}],"stateMutability":"view"},{"type":"function","name":"totalTokens","inputs":[],"outputs":[{"name":"","type":"uint256","internalType":"uint256"}],"stateMutability":"view"},{"type":"function","name":"unpause","inputs":[],"outputs":[],"stateMutability":"nonpayable"},{"type":"function","name":"upgradeToAndCall","inputs":[{"name":"newImplementation","type":"address","internalType":"address"},{"name":"data","type":"bytes","internalType":"bytes"}],"outputs":[],"stateMutability":"payable"},{"type":"function","name":"vftManagers","inputs":[],"outputs":[{"name":"","type":"bytes32[]","internalType":"bytes32[]"}],"stateMutability":"view"},{"type":"event","name":"Bridged","inputs":[{"name":"from","type":"bytes32","indexed":true,"internalType":"bytes32"},{"name":"to","type":"address","indexed":true,"internalType":"address"},{"name":"token","type":"address","indexed":true,"internalType":"address"},{"name":"amount","type":"uint256","indexed":false,"internalType":"uint256"}],"anonymous":false},{"type":"event","name":"BridgingPaymentCreated","inputs":[{"name":"bridgingPayment","type":"address","indexed":false,"internalType":"address"}],"anonymous":false},{"type":"event","name":"BridgingRequested","inputs":[{"name":"from","type":"address","indexed":true,"internalType":"address"},{"name":"to","type":"bytes32","indexed":true,"internalType":"bytes32"},{"name":"token","type":"address","indexed":true,"internalType":"address"},{"name":"amount","type":"uint256","indexed":false,"internalType":"uint256"}],"anonymous":false},{"type":"event","name":"EthereumTokenRegistered","inputs":[{"name":"token","type":"address","indexed":false,"internalType":"address"}],"anonymous":false},{"type":"event","name":"GearTokenRegistered","inputs":[{"name":"token","type":"address","indexed":false,"internalType":"address"},{"name":"tokenName","type":"string","indexed":false,"internalType":"string"},{"name":"tokenSymbol","type":"string","indexed":false,"internalType":"string"},{"name":"tokenDecimals","type":"uint8","indexed":false,"internalType":"uint8"}],"anonymous":false},{"type":"event","name":"Initialized","inputs":[{"name":"version","type":"uint64","indexed":false,"internalType":"uint64"}],"anonymous":false},{"type":"event","name":"Paused","inputs":[{"name":"account","type":"address","indexed":false,"internalType":"address"}],"anonymous":false},{"type":"event","name":"RoleAdminChanged","inputs":[{"name":"role","type":"bytes32","indexed":true,"internalType":"bytes32"},{"name":"previousAdminRole","type":"bytes32","indexed":true,"internalType":"bytes32"},{"name":"newAdminRole","type":"bytes32","indexed":true,"internalType":"bytes32"}],"anonymous":false},{"type":"event","name":"RoleGranted","inputs":[{"name":"role","type":"bytes32","indexed":true,"internalType":"bytes32"},{"name":"account","type":"address","indexed":true,"internalType":"address"},{"name":"sender","type":"address","indexed":true,"internalType":"address"}],"anonymous":false},{"type":"event","name":"RoleRevoked","inputs":[{"name":"role","type":"bytes32","indexed":true,"internalType":"bytes32"},{"name":"account","type":"address","indexed":true,"internalType":"address"},{"name":"sender","type":"address","indexed":true,"internalType":"address"}],"anonymous":false},{"type":"event","name":"Unpaused","inputs":[{"name":"account","type":"address","indexed":false,"internalType":"address"}],"anonymous":false},{"type":"event","name":"Upgraded","inputs":[{"name":"implementation","type":"address","indexed":true,"internalType":"address"}],"anonymous":false},{"type":"event","name":"VftManagerAdded","inputs":[{"name":"vftManager","type":"bytes32","indexed":false,"internalType":"bytes32"}],"anonymous":false},{"type":"error","name":"AccessControlBadConfirmation","inputs":[]},{"type":"error","name":"AccessControlUnauthorizedAccount","inputs":[{"name":"account","type":"address","internalType":"address"},{"name":"neededRole","type":"bytes32","internalType":"bytes32"}]},{"type":"error","name":"AddressEmptyCode","inputs":[{"name":"target","type":"address","internalType":"address"}]},{"type":"error","name":"ERC1967InvalidImplementation","inputs":[{"name":"implementation","type":"address","internalType":"address"}]},{"type":"error","name":"ERC1967NonPayable","inputs":[]},{"type":"error","name":"EnforcedPause","inputs":[]},{"type":"error","name":"ExpectedPause","inputs":[]},{"type":"error","name":"FailedCall","inputs":[]},{"type":"error","name":"InvalidAmount","inputs":[]},{"type":"error","name":"InvalidBridgingPayment","inputs":[]},{"type":"error","name":"InvalidInitialization","inputs":[]},{"type":"error","name":"InvalidPayload","inputs":[]},{"type":"error","name":"InvalidSender","inputs":[]},{"type":"error","name":"InvalidSource","inputs":[]},{"type":"error","name":"InvalidTokenType","inputs":[]},{"type":"error","name":"NotInitializing","inputs":[]},{"type":"error","name":"SafeERC20FailedOperation","inputs":[{"name":"token","type":"address","internalType":"address"}]},{"type":"error","name":"UUPSUnauthorizedCallContext","inputs":[]},{"type":"error","name":"UUPSUnsupportedProxiableUUID","inputs":[{"name":"slot","type":"bytes32","internalType":"bytes32"}]}],"bytecode":{"object":"0x60a080604052346100c257306080525f516020613c0e5f395f51905f525460ff8160401c166100b3576002600160401b03196001600160401b03821601610060575b604051613b4790816100c78239608051818181610c680152610d380152f35b6001600160401b0319166001600160401b039081175f516020613c0e5f395f51905f525581527fc7f505b2f371ae2175ee4913f4499e1f2633a7b5936321eed1cdaeb6115181d290602090a15f80610041565b63f92ee8a960e01b5f5260045ffd5b5f80fdfe6080806040526004361015610012575f80fd5b5f905f3560e01c90816258f6b8146114b25750806301ffc9a71461145c5780630c9d9b9714611424578063109ec2e7146113b05780631e324b52146112fd578063248a9ca3146112bd5780632f2ff15d14611272578063302ac5d01461112b57806336568abe146110e657806338ff319f146110215780633b70c18a14610ff85780633f4ba83a14610f785780634e68953914610f435780634f1ef28614610cbc57806352d1902d14610c555780635c975abb14610c26578063763b754a146108bb5780637e1c0c091461089d5780638456cb591461082a57806387be40b1146107745780638b841f6c1461075657806391d148541461070057806393272baf146106b45780639d63848a14610633578063a217fddf14610617578063ad3cb1cc146105ca578063c305870c14610474578063c81eb7971461044b578063d547741f146103f7578063e63ab1e9146103db5763f6cdd9cc14610172575f80fd5b6101003660031901126103d8576101876114d4565b6024356084359160ff83168093036103aa5760e4356001600160a01b038116908190036103d6576101b66115b8565b6101cb815f52600960205260405f2054151590565b156103c7578085913b156103ae5781600491604051928380926314b0812960e11b825234905af18015610367576103b2575b506001600160a01b03821693843b156103ae576040519063d505accf60e01b82523360048301523060248301528460448301526064356064830152608482015260a43560a482015260c43560c4820152818160e48183895af1610395575b50506102656115b8565b81156103865761027490611d31565b9050600381101561037257806102935763a1e9dd9d60e01b8452600484fd5b6001810361030957506102d66040516323b872dd60e01b6020820152336024820152306044820152826064820152606481526102d0608482611542565b83611f00565b604051908152604435907ff80de57fd7626baaff7d867494866703686569822c2326ae60b2515ede953c3a60203392a480f35b6002036102d657813b156103635760405163079cc67960e41b8152336004820152602481018290528390818160448183885af180156103675761034e575b50506102d6565b8161035891611542565b61036357825f610347565b8280fd5b6040513d84823e3d90fd5b634e487b7160e01b84526021600452602484fd5b63162908e360e11b8452600484fd5b8161039f91611542565b6103aa57835f61025b565b8380fd5b5080fd5b816103bc91611542565b6103aa57835f6101fd565b631e37e19560e31b8552600485fd5b845b80fd5b50346103d857806003193601126103d857602060405160018152f35b50346103d85760403660031901126103d8576104476004356104176114ea565b9061044261043d825f525f516020613ae75f395f51905f52602052600160405f20015490565b61162f565b611c1e565b5080f35b50346103d857806003193601126103d8576001546040516001600160a01b039091168152602090f35b50346103d85760603660031901126103d85761048e6114d4565b6024359061049a6115b8565b81156105bb576104a981611d31565b9050600381101561037257806104c85763a1e9dd9d60e01b8452600484fd5b6001810361055357506105146040516323b872dd60e01b602082015233602482015230604482015283606482015260648152610505608482611542565b6001600160a01b038316611f00565b6040519182526001600160a01b0316906044359033907ff80de57fd7626baaff7d867494866703686569822c2326ae60b2515ede953c3a90602090a480f35b60020361051457826001600160a01b038216803b156103ae5760405163079cc67960e41b8152336004820152602481018590529082908290604490829084905af18015610367576105a6575b5050610514565b816105b091611542565b61036357825f61059f565b63162908e360e11b8352600483fd5b50346103d857806003193601126103d857506106136040516105ed604082611542565b60058152640352e302e360dc1b6020820152604051918291602083526020830190611594565b0390f35b50346103d857806003193601126103d857602090604051908152f35b50346103d857806003193601126103d85760405180916020600554928381520191600582527f036b6384b5eca791c62761152d0c79bb0604c104a5fb6f4eb0703f3154bb3db0915b81811061069e576106138561069281870382611542565b60405191829182611500565b825484526020909301926001928301920161067b565b50346103d85760203660031901126103d8576106d66106d16114d4565b611d31565b604051915060038110156106ec57602092508152f35b634e487b7160e01b83526021600452602483fd5b50346103d85760403660031901126103d857604061071c6114ea565b9160043581525f516020613ae75f395f51905f52602052209060018060a01b03165f52602052602060ff60405f2054166040519015158152f35b50346103d857806003193601126103d8576020600854604051908152f35b50346103d857806003193601126103d85760405180602060035491828152018091600385527fc2575a0e9e593c00f959f8c92f12db2869c3395a3b0502d05e2516446f71f85b90855b81811061081457505050826107d3910383611542565b604051928392602084019060208552518091526040840192915b8181106107fb575050500390f35b82518452859450602093840193909201916001016107ed565b82548452602090930192600192830192016107bd565b50346103d857806003193601126103d8576108436115df565b61084b6115b8565b600160ff195f516020613b075f395f51905f525416175f516020613b075f395f51905f52557f62e78cea01bee320cd4e420270b5ea74000d11b0c9f74754ebdbfc544b05a2586020604051338152a180f35b50346103d857806003193601126103d8576020600554604051908152f35b50346103d85760a03660031901126103d8576108d56114d4565b6108dd6114ea565b6044356001600160a01b038116908190036103aa576084359167ffffffffffffffff83116103d657366023840112156103d657826004013567ffffffffffffffff8111610c12576040519361093860208360051b0186611542565b8185526024602086019260061b82010190368211610c0e57602401915b818310610b96575050505f516020613b275f395f51905f52549360ff8560401c16159467ffffffffffffffff811680159081610b8e575b6001149081610b84575b159081610b7b575b50610b6c5767ffffffffffffffff1981166001175f516020613b275f395f51905f525585610b40575b506109d0611e95565b6109d8611e95565b6109e0611e95565b6001600160a01b0316906109f382611675565b506109fd82611724565b506001600160a01b031690610a1182611724565b506001600160601b0360a01b8654161785556001600160601b0360a01b60015416176001556001600160601b0360a01b6002541617600255610a54606435611dd6565b50825b8151811015610adf5760208160051b83010151602081019081516003811015610acb57610a8d5763a1e9dd9d60e01b8652600486fd5b519051906001600160a01b03166003821015610ab75760019291610ab091611cba565b5001610a57565b634e487b7160e01b86526021600452602486fd5b634e487b7160e01b87526021600452602487fd5b5050610ae85780f35b68ff0000000000000000195f516020613b275f395f51905f5254165f516020613b275f395f51905f52557fc7f505b2f371ae2175ee4913f4499e1f2633a7b5936321eed1cdaeb6115181d2602060405160018152a180f35b68ffffffffffffffffff191668010000000000000001175f516020613b275f395f51905f52555f6109c7565b63f92ee8a960e01b8752600487fd5b9050155f61099e565b303b159150610996565b87915061098c565b604083360312610c0e57604051906040820182811067ffffffffffffffff821117610bfa5760405283356001600160a01b0381168103610bf65782526020840135906003821015610bf65782602092836040950152815201920191610955565b8980fd5b634e487b7160e01b8a52604160045260248afd5b8780fd5b634e487b7160e01b86526041600452602486fd5b50346103d857806003193601126103d857602060ff5f516020613b075f395f51905f5254166040519015158152f35b50346103d857806003193601126103d8577f00000000000000000000000000000000000000000000000000000000000000006001600160a01b03163003610cad5760206040515f516020613ac75f395f51905f528152f35b63703e46dd60e11b8152600490fd5b5060403660031901126103d857610cd16114d4565b6024359067ffffffffffffffff821161036357366023830112156103635781600401359083610cff83611578565b93610d0d6040519586611542565b8385526020850193366024828401011161036357806024602093018637850101526001600160a01b037f000000000000000000000000000000000000000000000000000000000000000016308114908115610f21575b50610f12578380525f516020613ae75f395f51905f5260209081526040808620335f908152925290205460ff1615610efa576040516352d1902d60e01b81526001600160a01b0382169390602081600481885afa869181610ec2575b50610dd857634c9c8ce360e01b86526004859052602486fd5b93845f516020613ac75f395f51905f52879603610eb05750823b15610e9e575f516020613ac75f395f51905f5280546001600160a01b031916821790558491907fbc7cd75a20ee27fd9adebab32041f755214dbc6bffa90cc0225b39da2e5c2d3b8380a2805115610e83576104479382915190845af43d15610e7b573d91610e5f83611578565b92610e6d6040519485611542565b83523d85602085013e611f58565b606091611f58565b5050505034610e8f5780f35b63b398979f60e01b8152600490fd5b634c9c8ce360e01b8552600452602484fd5b632a87526960e21b8652600452602485fd5b9091506020813d602011610ef2575b81610ede60209383611542565b81010312610eee5751905f610dbf565b5f80fd5b3d9150610ed1565b63e2517d3f60e01b8452336004526024849052604484fd5b63703e46dd60e11b8452600484fd5b5f516020613ac75f395f51905f52546001600160a01b0316141590505f610d63565b50346103d85760203660031901126103d8576020610f6e6004355f52600460205260405f2054151590565b6040519015158152f35b50346103d857806003193601126103d857610f916115df565b5f516020613b075f395f51905f525460ff811615610fe95760ff19165f516020613b075f395f51905f52557f5db9ee0a495bf2e6ff9c91a7834c1ba4fdd244a5e8aa4e537bd38aeae4b073aa6020604051338152a180f35b638dfc202b60e01b8252600482fd5b50346103d857806003193601126103d8576002546040516001600160a01b039091168152602090f35b50346103d85760203660031901126103d85761103b6115b8565b60405161043d8082019082821067ffffffffffffffff8311176110d2576060918391611fb78339308152600435602082015233604082015203019082f080156110c5576020906001600160a01b031661109381611d54565b507f9d5f66d985a12f505753a5f6417ed3c4ec6e68963ee0119770dda415f0d14ad082604051838152a1604051908152f35b50604051903d90823e3d90fd5b634e487b7160e01b84526041600452602484fd5b50346103d85760403660031901126103d8576111006114ea565b336001600160a01b0382160361111c5761044790600435611c1e565b63334bd91960e11b8252600482fd5b50346103d85760403660031901126103d85760043560243567ffffffffffffffff811161036357366023820112156103635780600401359167ffffffffffffffff83116103aa57602482019160248436920101116103aa576002546001600160a01b03163303611263576111aa815f52600460205260405f2054151590565b156111d15750906111ba91611a8e565b156111c25780f35b637c6953f960e01b8152600490fd5b8354604051635aa6e67560e01b81529190602090839060049082906001600160a01b03165afa918215611258578592611224575b500361121557906111ba916118b6565b638154374b60e01b8352600483fd5b9091506020813d602011611250575b8161124060209383611542565b81010312610eee5751905f611205565b3d9150611233565b6040513d87823e3d90fd5b636edaef2f60e11b8452600484fd5b50346103d85760403660031901126103d8576104476004356112926114ea565b906112b861043d825f525f516020613ae75f395f51905f52602052600160405f20015490565b6117d1565b50346103d85760203660031901126103d85760206112f56004355f525f516020613ae75f395f51905f52602052600160405f20015490565b604051908152f35b506080366003190112610eee576113126114d4565b602435906064356001600160a01b03811690819003610eee576113336115b8565b611348815f52600960205260405f2054151590565b156113a157803b15610eee575f600491604051928380926314b0812960e11b825234905af1801561139657611381575b5061049a6115b8565b61138e9193505f90611542565b5f915f611378565b6040513d5f823e3d90fd5b631e37e19560e31b5f5260045ffd5b34610eee575f366003190112610eee5760405180602060085491828152019060085f527ff3f7a9fe364faab93b216da50a3214154f22a0a2b415b23a84c8169e8b636ee3905f5b81811061140e576106138561069281870382611542565b82548452602090930192600192830192016113f7565b34610eee576020366003190112610eee576020610f6e6001600160a01b0361144a6114d4565b165f52600960205260405f2054151590565b34610eee576020366003190112610eee5760043563ffffffff60e01b8116809103610eee57602090637965db0b60e01b81149081156114a1575b506040519015158152f35b6301ffc9a760e01b14905082611496565b34610eee575f366003190112610eee575f546001600160a01b03168152602090f35b600435906001600160a01b0382168203610eee57565b602435906001600160a01b0382168203610eee57565b60206040818301928281528451809452019201905f5b8181106115235750505090565b82516001600160a01b0316845260209384019390920191600101611516565b90601f8019910116810190811067ffffffffffffffff82111761156457604052565b634e487b7160e01b5f52604160045260245ffd5b67ffffffffffffffff811161156457601f01601f191660200190565b805180835260209291819084018484015e5f828201840152601f01601f1916010190565b60ff5f516020613b075f395f51905f5254166115d057565b63d93c066560e01b5f5260045ffd5b335f9081527f2222dce04fae1e25cd76e9391151ad9e0187ef92144ac6ce9e4e09f2c453b751602052604090205460ff161561161757565b63e2517d3f60e01b5f5233600452600160245260445ffd5b5f8181525f516020613ae75f395f51905f526020908152604080832033845290915290205460ff161561165f5750565b63e2517d3f60e01b5f523360045260245260445ffd5b6001600160a01b0381165f9081527fb7db2dd08fcb62d0c9e08c51941cae53c267786a0b75803fb7960902fc8ef97d602052604090205460ff1661171f576001600160a01b03165f8181527fb7db2dd08fcb62d0c9e08c51941cae53c267786a0b75803fb7960902fc8ef97d60205260408120805460ff191660011790553391907f2f8788117e7eff1d82e926ec794901d17c78024a50270940304540a733656f0d8180a4600190565b505f90565b6001600160a01b0381165f9081527f2222dce04fae1e25cd76e9391151ad9e0187ef92144ac6ce9e4e09f2c453b751602052604090205460ff1661171f576001600160a01b03165f8181527f2222dce04fae1e25cd76e9391151ad9e0187ef92144ac6ce9e4e09f2c453b75160205260408120805460ff191660019081179091553392917f2f8788117e7eff1d82e926ec794901d17c78024a50270940304540a733656f0d9080a4600190565b5f8181525f516020613ae75f395f51905f52602090815260408083206001600160a01b038616845290915290205460ff1661186f575f8181525f516020613ae75f395f51905f52602090815260408083206001600160a01b0395909516808452949091528120805460ff19166001179055339291907f2f8788117e7eff1d82e926ec794901d17c78024a50270940304540a733656f0d9080a4600190565b50505f90565b926118af906118a160609460ff9498979860018060a01b03168752608060208801526080870190611594565b908582036040870152611594565b9416910152565b90801561186f57813560f81c600281116119ee578015611a5557600114611a0d5760420361171f576001810135906041602182013591013560f81c91805f1a60018110159081611a01575b50156119ee57815f1a600181101590816119f5575b50156119ee57611942611962919060405191604083016040525f8352601f8301525f6020835184010152565b919060405191604083016040525f8352601f8301525f6020835184010152565b6040516116d380820182811067ffffffffffffffff821117611564578584866119939386956123f487393090611875565b03905ff08015611396577facef1c6c805d7395b4aeee279bc679beea84f01a1f1b08be7aef2af535bba81f936001600160a01b03909116916119e691906119d984611d0c565b5060405194859485611875565b0390a1600190565b5050505f90565b601f915011155f611916565b601f915011155f611901565b60150361171f57602060017fdf6d7b91d41cb55ced11681822028e1605f72d50168b3898feb40ee04259d18292013560601c611a4881611ce7565b50604051908152a1600190565b5060210361171f57602060017fc6b4ec1bc7a17331ef296e0810039347563e90c3fa496b4de270f6c5ff345abe920135611a4881611dd6565b60685f920361186f57602081013560601c603482013560601c91604881013590611ab784611d31565b90506003811015611c0a5780611ad65763a1e9dd9d60e01b8652600486fd5b909192939450600181145f14611b5b575060405163a9059cbb60e01b6020808301919091526001600160a01b0385166024830152604480830185905282527fabdd326df16eff74bb67e4a6b3d6372ceba76796f256a7b7f8577108cf5db287929091611b4d90611b47606482611542565b87611f00565b6040519384523592a4600190565b600214611b8c575b60207fabdd326df16eff74bb67e4a6b3d6372ceba76796f256a7b7f8577108cf5db28791611b4d565b833b15610eee576040516340c10f1960e01b81526001600160a01b038416600482015260248101839052905f8260448183895af1908115611396577fabdd326df16eff74bb67e4a6b3d6372ceba76796f256a7b7f8577108cf5db28792602092611bfa575b50915050611b63565b5f611c0491611542565b5f611bf1565b634e487b7160e01b5f52602160045260245ffd5b5f8181525f516020613ae75f395f51905f52602090815260408083206001600160a01b038616845290915290205460ff161561186f575f8181525f516020613ae75f395f51905f52602090815260408083206001600160a01b0395909516808452949091528120805460ff19169055339291907ff6391f5c32d9c69d2a47ea670b442974b53935d1edc7fd64eb21e047a839171b9080a4600190565b6001600160a01b03166003821015611c0a57611ce491815f52600760205260405f20556005611e44565b90565b6001600160a01b03165f81815260076020526040902060019055611ce4906005611e44565b6001600160a01b03165f81815260076020526040902060029055611ce4906005611e44565b611d45906001600160a01b03166005611ec0565b91906003831015611c0a579190565b805f52600960205260405f2054155f1461171f57600854600160401b811015611564576001810180600855811015611dc2577ff3f7a9fe364faab93b216da50a3214154f22a0a2b415b23a84c8169e8b636ee3018190556008545f9182526009602052604090912055600190565b634e487b7160e01b5f52603260045260245ffd5b805f52600460205260405f2054155f1461171f57600354600160401b811015611564576001810180600355811015611dc2577fc2575a0e9e593c00f959f8c92f12db2869c3395a3b0502d05e2516446f71f85b018190556003545f9182526004602052604090912055600190565b5f82815260018201602052604090205461186f57805490600160401b8210156115645760018201808255821015611dc25782600192825f5260205f2001558054925f520160205260405f2055600190565b60ff5f516020613b275f395f51905f525460401c1615611eb157565b631afcd79f60e31b5f5260045ffd5b9190805f526002830160205260405f20549283155f14611ef857611ef39293506001915f520160205260405f2054151590565b905f90565b505060019190565b905f602091828151910182855af115611396575f513d611f4f57506001600160a01b0381163b155b611f2f5750565b635274afe760e01b5f9081526001600160a01b0391909116600452602490fd5b60011415611f28565b90611f7c5750805115611f6d57805190602001fd5b63d6bda27560e01b5f5260045ffd5b81511580611fad575b611f8d575090565b639996b31560e01b5f9081526001600160a01b0391909116600452602490fd5b50803b15611f8556fe60a0346100e757601f61043d38819003918201601f19168301916001600160401b038311848410176100eb578084926060946040528339810103126100e757610047816100ff565b602082015190916001600160a01b0390610063906040016100ff565b169182156100d4575f80546001600160a01b031981168517825560405194916001600160a01b03909116907f8be0079c531659141344cd1fd0a4f28419497f9722a3daafe3b4186f6b6457e09080a36080526001556103299081610114823960805181818161014c01526102000152f35b631e4fbdf760e01b5f525f60045260245ffd5b5f80fd5b634e487b7160e01b5f52604160045260245ffd5b51906001600160a01b03821682036100e75756fe60806040526004361015610011575f80fd5b5f3560e01c806329610252146101f357806369fe0e2d146101d2578063715018a61461017b57806386ea825c146101375780638da5cb5b14610110578063ddca3f43146100f35763f2fde38b14610066575f80fd5b346100ef5760203660031901126100ef576004356001600160a01b038116908190036100ef57610094610303565b80156100dc575f80546001600160a01b03198116831782556001600160a01b0316907f8be0079c531659141344cd1fd0a4f28419497f9722a3daafe3b4186f6b6457e09080a3005b631e4fbdf760e01b5f525f60045260245ffd5b5f80fd5b346100ef575f3660031901126100ef576020600154604051908152f35b346100ef575f3660031901126100ef575f546040516001600160a01b039091168152602090f35b346100ef575f3660031901126100ef576040517f00000000000000000000000000000000000000000000000000000000000000006001600160a01b03168152602090f35b346100ef575f3660031901126100ef57610193610303565b5f80546001600160a01b0319811682556001600160a01b03167f8be0079c531659141344cd1fd0a4f28419497f9722a3daafe3b4186f6b6457e08280a3005b346100ef5760203660031901126100ef576101eb610303565b600435600155005b5f3660031901126100ef577f00000000000000000000000000000000000000000000000000000000000000006001600160a01b031633036102f45760015434036102e5575f8080803460018060a01b038254165af13d156102e0573d67ffffffffffffffff81116102cc5760405190601f8101601f19908116603f0116820167ffffffffffffffff8111838210176102cc5760405281525f60203d92013e5b156102bd577faaeea0b595e409578c26dd16fa1bdb3a29a4d874694ecef3ca96376940f5fbfb5f80a1005b6353048b4960e11b5f5260045ffd5b634e487b7160e01b5f52604160045260245ffd5b610292565b631fbbed9560e01b5f5260045ffd5b63064917ff60e11b5f5260045ffd5b5f546001600160a01b0316330361031657565b63118cdaa760e01b5f523360045260245ffd61018080604052346104a2576116d3803803809161001d82856104a6565b83398101906080818303126104a25780516001600160a01b038116908190036104a25760208201516001600160401b0381116104a2578361005f9184016104c9565b60408301519093906001600160401b0381116104a2576060916100839185016104c9565b9201519160ff831683036104a2576040938451926100a186856104a6565b60018452603160f81b6020850190815282519093906001600160401b0381116103b257600354600181811c91168015610498575b602082101461039457601f8111610435575b50806020601f82116001146103d1575f916103c6575b508160011b915f199060031b1c1916176003555b8051906001600160401b0382116103b25760045490600182811c921680156103a8575b60208310146103945781601f849311610326575b50602090601f83116001146102c0575f926102b5575b50508160011b915f199060031b1c1916176004555b80156102a257600580546001600160a01b0319811683179091556001600160a01b03167f8be0079c531659141344cd1fd0a4f28419497f9722a3daafe3b4186f6b6457e05f80a36101c38161051e565b610120526101d0836106a5565b6101405260208151910120918260e05251902080610100524660a05283519060208201927f8b73c3c69bb8fe3d512ecc4cf759cc79239f7b179b0ffacaa9a75d522b39400f84528583015260608201524660808201523060a082015260a0815261023b60c0826104a6565b5190206080523060c0526101605251610ef590816107de823960805181610b69015260a05181610c26015260c05181610b33015260e05181610bb801526101005181610bde0152610120518161045f015261014051816104880152610160518161073d0152f35b631e4fbdf760e01b5f525f60045260245ffd5b015190505f8061015e565b60045f9081528281209350601f198516905b81811061030e57509084600195949392106102f6575b505050811b01600455610173565b01515f1960f88460031b161c191690555f80806102e8565b929360206001819287860151815501950193016102d2565b60045f529091507f8a35acfbc15ff81a39ae7d344fd709f28e8600b4aa8c65c6b64bfe7fe36bd19b601f840160051c8101916020851061038a575b90601f859493920160051c01905b81811061037c5750610148565b5f815584935060010161036f565b9091508190610361565b634e487b7160e01b5f52602260045260245ffd5b91607f1691610134565b634e487b7160e01b5f52604160045260245ffd5b90508401515f6100fd565b60035f9081528181209250601f198416905b81811061041d57509083600194939210610405575b5050811b01600355610111565b8601515f1960f88460031b161c191690555f806103f8565b9192602060018192868b0151815501940192016103e3565b60035f527fc2575a0e9e593c00f959f8c92f12db2869c3395a3b0502d05e2516446f71f85b601f830160051c8101916020841061048e575b601f0160051c01905b81811061048357506100e7565b5f8155600101610476565b909150819061046d565b90607f16906100d5565b5f80fd5b601f909101601f19168101906001600160401b038211908210176103b257604052565b81601f820112156104a2578051906001600160401b0382116103b257604051926104fd601f8401601f1916602001856104a6565b828452602083830101116104a257815f9260208093018386015e8301015290565b908151602081105f14610598575090601f815111610558576020815191015160208210610549571790565b5f198260200360031b1b161790565b604460209160405192839163305a27a960e01b83528160048401528051918291826024860152018484015e5f828201840152601f01601f19168101030190fd5b6001600160401b0381116103b257600654600181811c9116801561069b575b602082101461039457601f8111610668575b50602092601f821160011461060757928192935f926105fc575b50508160011b915f199060031b1c19161760065560ff90565b015190505f806105e3565b601f1982169360065f52805f20915f5b8681106106505750836001959610610638575b505050811b0160065560ff90565b01515f1960f88460031b161c191690555f808061062a565b91926020600181928685015181550194019201610617565b60065f52601f60205f20910160051c810190601f830160051c015b81811061069057506105c9565b5f8155600101610683565b90607f16906105b7565b908151602081105f146106d0575090601f815111610558576020815191015160208210610549571790565b6001600160401b0381116103b257600754600181811c911680156107d3575b602082101461039457601f81116107a0575b50602092601f821160011461073f57928192935f92610734575b50508160011b915f199060031b1c19161760075560ff90565b015190505f8061071b565b601f1982169360075f52805f20915f5b8681106107885750836001959610610770575b505050811b0160075560ff90565b01515f1960f88460031b161c191690555f8080610762565b9192602060018192868501518155019401920161074f565b60075f52601f60205f20910160051c810190601f830160051c015b8181106107c85750610701565b5f81556001016107bb565b90607f16906106ef56fe6080806040526004361015610012575f80fd5b5f3560e01c90816306fdde03146107dc57508063095ea7b3146107b657806318160ddd1461079957806323b872dd14610761578063313ce567146107245780633644e5151461070257806340c10f191461065657806342966c681461063957806370a0823114610602578063715018a6146105a757806379cc6790146105775780637ecebe001461053f57806384b0196e146104475780638da5cb5b1461041f57806395d89b411461033d578063a9059cbb1461030c578063d505accf146101c7578063dd62ed3e146101775763f2fde38b146100ed575f80fd5b34610173576020366003190112610173576101066108a2565b61010e610c4c565b6001600160a01b0316801561016057600580546001600160a01b0319811683179091556001600160a01b03167f8be0079c531659141344cd1fd0a4f28419497f9722a3daafe3b4186f6b6457e05f80a3005b631e4fbdf760e01b5f525f60045260245ffd5b5f80fd5b34610173576040366003190112610173576101906108a2565b6101986108b8565b6001600160a01b039182165f908152600160209081526040808320949093168252928352819020549051908152f35b346101735760e0366003190112610173576101e06108a2565b6101e86108b8565b604435906064359260843560ff81168103610173578442116102f9576102bc6102c59160018060a01b03841696875f52600860205260405f20908154916001830190556040519060208201927f6e71edae12b1b97f4d1f60370fef10105fa2faae0126114a169c64845d6126c984528a604084015260018060a01b038916606084015289608084015260a083015260c082015260c0815261028a60e082610987565b519020610295610b30565b906040519161190160f01b83526002830152602282015260c43591604260a4359220610df4565b90929192610e81565b6001600160a01b03168481036102e257506102e09350610cf7565b005b84906325c0072360e11b5f5260045260245260445ffd5b8463313c898160e11b5f5260045260245ffd5b34610173576040366003190112610173576103326103286108a2565b6024359033610a86565b602060405160018152f35b34610173575f366003190112610173576040515f60045461035d816108ce565b80845290600181169081156103fb575060011461039d575b6103998361038581850382610987565b60405191829160208352602083019061087e565b0390f35b60045f9081527f8a35acfbc15ff81a39ae7d344fd709f28e8600b4aa8c65c6b64bfe7fe36bd19b939250905b8082106103e157509091508101602001610385610375565b9192600181602092548385880101520191019092916103c9565b60ff191660208086019190915291151560051b840190910191506103859050610375565b34610173575f366003190112610173576005546040516001600160a01b039091168152602090f35b34610173575f366003190112610173576104e36104837f0000000000000000000000000000000000000000000000000000000000000000610d5a565b6104ac7f0000000000000000000000000000000000000000000000000000000000000000610dbd565b60206104f1604051926104bf8385610987565b5f84525f368137604051958695600f60f81b875260e08588015260e087019061087e565b90858203604087015261087e565b4660608501523060808501525f60a085015283810360c08501528180845192838152019301915f5b82811061052857505050500390f35b835185528695509381019392810192600101610519565b34610173576020366003190112610173576001600160a01b036105606108a2565b165f526008602052602060405f2054604051908152f35b34610173576040366003190112610173576102e06105936108a2565b602435906105a28233836109bd565b610c73565b34610173575f366003190112610173576105bf610c4c565b600580546001600160a01b031981169091555f906001600160a01b03167f8be0079c531659141344cd1fd0a4f28419497f9722a3daafe3b4186f6b6457e08280a3005b34610173576020366003190112610173576001600160a01b036106236108a2565b165f525f602052602060405f2054604051908152f35b34610173576020366003190112610173576102e060043533610c73565b346101735760403660031901126101735761066f6108a2565b6024359061067b610c4c565b6001600160a01b03169081156106ef57600254908082018092116106db5760207fddf252ad1be2c89b69c2b068fc378daa952ba7f163c4a11628f55a4df523b3ef915f9360025584845283825260408420818154019055604051908152a3005b634e487b7160e01b5f52601160045260245ffd5b63ec442f0560e01b5f525f60045260245ffd5b34610173575f36600319011261017357602061071c610b30565b604051908152f35b34610173575f36600319011261017357602060405160ff7f0000000000000000000000000000000000000000000000000000000000000000168152f35b346101735760603660031901126101735761033261077d6108a2565b6107856108b8565b604435916107948333836109bd565b610a86565b34610173575f366003190112610173576020600254604051908152f35b34610173576040366003190112610173576103326107d26108a2565b6024359033610cf7565b34610173575f366003190112610173575f6003546107f9816108ce565b80845290600181169081156103fb5750600114610820576103998361038581850382610987565b60035f9081527fc2575a0e9e593c00f959f8c92f12db2869c3395a3b0502d05e2516446f71f85b939250905b80821061086457509091508101602001610385610375565b91926001816020925483858801015201910190929161084c565b805180835260209291819084018484015e5f828201840152601f01601f1916010190565b600435906001600160a01b038216820361017357565b602435906001600160a01b038216820361017357565b90600182811c921680156108fc575b60208310146108e857565b634e487b7160e01b5f52602260045260245ffd5b91607f16916108dd565b5f9291815491610915836108ce565b808352926001811690811561096a575060011461093157505050565b5f9081526020812093945091925b838310610950575060209250010190565b60018160209294939454838587010152019101919061093f565b915050602093945060ff929192191683830152151560051b010190565b90601f8019910116810190811067ffffffffffffffff8211176109a957604052565b634e487b7160e01b5f52604160045260245ffd5b6001600160a01b039081165f818152600160209081526040808320948616835293905291909120549291905f1984106109f7575b50505050565b828410610a63578015610a50576001600160a01b03821615610a3d575f52600160205260405f209060018060a01b03165f5260205260405f20910390555f8080806109f1565b634a1406b160e11b5f525f60045260245ffd5b63e602df0560e01b5f525f60045260245ffd5b508290637dc7a0d960e11b5f5260018060a01b031660045260245260445260645ffd5b6001600160a01b0316908115610b1d576001600160a01b03169182156106ef57815f525f60205260405f2054818110610b0457817fddf252ad1be2c89b69c2b068fc378daa952ba7f163c4a11628f55a4df523b3ef92602092855f525f84520360405f2055845f525f825260405f20818154019055604051908152a3565b8263391434e360e21b5f5260045260245260445260645ffd5b634b637e8f60e11b5f525f60045260245ffd5b307f00000000000000000000000000000000000000000000000000000000000000006001600160a01b03161480610c23575b15610b8b577f000000000000000000000000000000000000000000000000000000000000000090565b60405160208101907f8b73c3c69bb8fe3d512ecc4cf759cc79239f7b179b0ffacaa9a75d522b39400f82527f000000000000000000000000000000000000000000000000000000000000000060408201527f000000000000000000000000000000000000000000000000000000000000000060608201524660808201523060a082015260a08152610c1d60c082610987565b51902090565b507f00000000000000000000000000000000000000000000000000000000000000004614610b62565b6005546001600160a01b03163303610c6057565b63118cdaa760e01b5f523360045260245ffd5b9091906001600160a01b03168015610b1d57805f525f60205260405f2054838110610cdd576020845f94957fddf252ad1be2c89b69c2b068fc378daa952ba7f163c4a11628f55a4df523b3ef938587528684520360408620558060025403600255604051908152a3565b915063391434e360e21b5f5260045260245260445260645ffd5b6001600160a01b0316908115610a50576001600160a01b0316918215610a3d5760207f8c5be1e5ebec7d5bd14f71427d1e84f3dd0314c0f7b2291e5b200ac8c7c3b92591835f526001825260405f20855f5282528060405f2055604051908152a3565b60ff8114610da05760ff811690601f8211610d915760405191610d7e604084610987565b6020808452838101919036833783525290565b632cd44ac360e21b5f5260045ffd5b50604051610dba81610db3816006610906565b0382610987565b90565b60ff8114610de15760ff811690601f8211610d915760405191610d7e604084610987565b50604051610dba81610db3816007610906565b91907f7fffffffffffffffffffffffffffffff5d576e7357a4501ddfe92f46681b20a08411610e76579160209360809260ff5f9560405194855216868401526040830152606082015282805260015afa15610e6b575f516001600160a01b03811615610e6157905f905f90565b505f906001905f90565b6040513d5f823e3d90fd5b5050505f9160039190565b6004811015610ee15780610e93575050565b60018103610eaa5763f645eedf60e01b5f5260045ffd5b60028103610ec5575063fce698f760e01b5f5260045260245ffd5b600314610ecf5750565b6335e2f38360e21b5f5260045260245ffd5b634e487b7160e01b5f52602160045260245ffd360894a13ba1a3210667c828492db98dca3e2076cc3735a920a3ca505d382bbc02dd7bc7dec4dceedda775e58dd541e08a116c6c53815c0bd028192f7b626800cd5ed15c6e187e77e9aee88184c21f4f2182ab5827cb3b7e07fbedcd63f03300f0c57e16840df040f15088dc2f81fe391c3923bec73e23a9662efc9c229c6a00f0c57e16840df040f15088dc2f81fe391c3923bec73e23a9662efc9c229c6a00","linkReferences":{}},"methodIdentifiers":{"DEFAULT_ADMIN_ROLE()":"a217fddf","PAUSER_ROLE()":"e63ab1e9","UPGRADE_INTERFACE_VERSION()":"ad3cb1cc","bridgingPayments()":"109ec2e7","createBridgingPayment(uint256)":"38ff319f","getRoleAdmin(bytes32)":"248a9ca3","getTokenType(address)":"93272baf","governanceAdmin()":"0058f6b8","governancePauser()":"c81eb797","grantRole(bytes32,address)":"2f2ff15d","handleMessage(bytes32,bytes)":"302ac5d0","hasRole(bytes32,address)":"91d14854","initialize(address,address,address,bytes32,(address,uint8)[])":"763b754a","isBridgingPayment(address)":"0c9d9b97","isVftManager(bytes32)":"4e689539","messageQueue()":"3b70c18a","pause()":"8456cb59","paused()":"5c975abb","proxiableUUID()":"52d1902d","renounceRole(bytes32,address)":"36568abe","requestBridging(address,uint256,bytes32)":"c305870c","requestBridgingPayingFee(address,uint256,bytes32,address)":"1e324b52","requestBridgingPayingFeeWithPermit(address,uint256,bytes32,uint256,uint8,bytes32,bytes32,address)":"f6cdd9cc","revokeRole(bytes32,address)":"d547741f","supportsInterface(bytes4)":"01ffc9a7","tokens()":"9d63848a","totalBridgingPayments()":"8b841f6c","totalTokens()":"7e1c0c09","unpause()":"3f4ba83a","upgradeToAndCall(address,bytes)":"4f1ef286","vftManagers()":"87be40b1"},"storageLayout":{"storage":[{"astId":58385,"contract":"src/ERC20Manager.sol:ERC20Manager","label":"_governanceAdmin","offset":0,"slot":"0","type":"t_contract(IGovernance)61230"},{"astId":58388,"contract":"src/ERC20Manager.sol:ERC20Manager","label":"_governancePauser","offset":0,"slot":"1","type":"t_contract(IGovernance)61230"},{"astId":58390,"contract":"src/ERC20Manager.sol:ERC20Manager","label":"_messageQueue","offset":0,"slot":"2","type":"t_address"},{"astId":58393,"contract":"src/ERC20Manager.sol:ERC20Manager","label":"_vftManagers","offset":0,"slot":"3","type":"t_struct(Bytes32Set)53042_storage"},{"astId":58396,"contract":"src/ERC20Manager.sol:ERC20Manager","label":"_tokens","offset":0,"slot":"5","type":"t_struct(AddressToTokenTypeMap)61915_storage"},{"astId":58399,"contract":"src/ERC20Manager.sol:ERC20Manager","label":"_bridgingPayments","offset":0,"slot":"8","type":"t_struct(AddressSet)53176_storage"}],"types":{"t_address":{"encoding":"inplace","label":"address","numberOfBytes":"20"},"t_array(t_bytes32)dyn_storage":{"encoding":"dynamic_array","label":"bytes32[]","numberOfBytes":"32","base":"t_bytes32"},"t_bytes32":{"encoding":"inplace","label":"bytes32","numberOfBytes":"32"},"t_contract(IGovernance)61230":{"encoding":"inplace","label":"contract IGovernance","numberOfBytes":"20"},"t_mapping(t_bytes32,t_bytes32)":{"encoding":"mapping","key":"t_bytes32","label":"mapping(bytes32 => bytes32)","numberOfBytes":"32","value":"t_bytes32"},"t_mapping(t_bytes32,t_uint256)":{"encoding":"mapping","key":"t_bytes32","label":"mapping(bytes32 => uint256)","numberOfBytes":"32","value":"t_uint256"},"t_struct(AddressSet)53176_storage":{"encoding":"inplace","label":"struct EnumerableSet.AddressSet","numberOfBytes":"64","members":[{"astId":53175,"contract":"src/ERC20Manager.sol:ERC20Manager","label":"_inner","offset":0,"slot":"0","type":"t_struct(Set)52805_storage"}]},"t_struct(AddressToTokenTypeMap)61915_storage":{"encoding":"inplace","label":"struct CustomEnumerableMap.AddressToTokenTypeMap","numberOfBytes":"96","members":[{"astId":61914,"contract":"src/ERC20Manager.sol:ERC20Manager","label":"_inner","offset":0,"slot":"0","type":"t_struct(Bytes32ToBytes32Map)50634_storage"}]},"t_struct(Bytes32Set)53042_storage":{"encoding":"inplace","label":"struct EnumerableSet.Bytes32Set","numberOfBytes":"64","members":[{"astId":53041,"contract":"src/ERC20Manager.sol:ERC20Manager","label":"_inner","offset":0,"slot":"0","type":"t_struct(Set)52805_storage"}]},"t_struct(Bytes32ToBytes32Map)50634_storage":{"encoding":"inplace","label":"struct EnumerableMap.Bytes32ToBytes32Map","numberOfBytes":"96","members":[{"astId":50629,"contract":"src/ERC20Manager.sol:ERC20Manager","label":"_keys","offset":0,"slot":"0","type":"t_struct(Bytes32Set)53042_storage"},{"astId":50633,"contract":"src/ERC20Manager.sol:ERC20Manager","label":"_values","offset":0,"slot":"2","type":"t_mapping(t_bytes32,t_bytes32)"}]},"t_struct(Set)52805_storage":{"encoding":"inplace","label":"struct EnumerableSet.Set","numberOfBytes":"64","members":[{"astId":52800,"contract":"src/ERC20Manager.sol:ERC20Manager","label":"_values","offset":0,"slot":"0","type":"t_array(t_bytes32)dyn_storage"},{"astId":52804,"contract":"src/ERC20Manager.sol:ERC20Manager","label":"_positions","offset":0,"slot":"1","type":"t_mapping(t_bytes32,t_uint256)"}]},"t_uint256":{"encoding":"inplace","label":"uint256","numberOfBytes":"32"}}},"id":85}