{"abi":[{"type":"constructor","inputs":[{"name":"messageQueue","type":"address","internalType":"address"},{"name":"vftManager","type":"bytes32","internalType":"bytes32"}],"stateMutability":"nonpayable"},{"type":"function","name":"getTokenSupplyType","inputs":[{"name":"token","type":"address","internalType":"address"}],"outputs":[{"name":"","type":"uint8","internalType":"enum IERC20Manager.SupplyType"}],"stateMutability":"view"},{"type":"function","name":"processVaraMessage","inputs":[{"name":"sender","type":"bytes32","internalType":"bytes32"},{"name":"payload","type":"bytes","internalType":"bytes"}],"outputs":[],"stateMutability":"nonpayable"},{"type":"function","name":"requestBridging","inputs":[{"name":"token","type":"address","internalType":"address"},{"name":"amount","type":"uint256","internalType":"uint256"},{"name":"to","type":"bytes32","internalType":"bytes32"}],"outputs":[],"stateMutability":"nonpayable"},{"type":"function","name":"requestBridgingPayingFee","inputs":[{"name":"token","type":"address","internalType":"address"},{"name":"amount","type":"uint256","internalType":"uint256"},{"name":"to","type":"bytes32","internalType":"bytes32"},{"name":"bridgingPayment","type":"address","internalType":"address"}],"outputs":[],"stateMutability":"payable"},{"type":"function","name":"requestBridgingPayingFeeWithPermit","inputs":[{"name":"token","type":"address","internalType":"address"},{"name":"amount","type":"uint256","internalType":"uint256"},{"name":"to","type":"bytes32","internalType":"bytes32"},{"name":"deadline","type":"uint256","internalType":"uint256"},{"name":"v","type":"uint8","internalType":"uint8"},{"name":"r","type":"bytes32","internalType":"bytes32"},{"name":"s","type":"bytes32","internalType":"bytes32"},{"name":"bridgingPayment","type":"address","internalType":"address"}],"outputs":[],"stateMutability":"payable"},{"type":"event","name":"BridgingAccepted","inputs":[{"name":"to","type":"address","indexed":true,"internalType":"address"},{"name":"token","type":"address","indexed":true,"internalType":"address"},{"name":"amount","type":"uint256","indexed":false,"internalType":"uint256"},{"name":"tokens_sender","type":"bytes32","indexed":false,"internalType":"bytes32"}],"anonymous":false},{"type":"event","name":"BridgingRequested","inputs":[{"name":"from","type":"address","indexed":true,"internalType":"address"},{"name":"to","type":"bytes32","indexed":true,"internalType":"bytes32"},{"name":"token","type":"address","indexed":true,"internalType":"address"},{"name":"amount","type":"uint256","indexed":false,"internalType":"uint256"}],"anonymous":false},{"type":"error","name":"BadArguments","inputs":[]},{"type":"error","name":"BadVftManagerAddress","inputs":[]},{"type":"error","name":"NotAuthorized","inputs":[]},{"type":"error","name":"SafeERC20FailedOperation","inputs":[{"name":"token","type":"address","internalType":"address"}]},{"type":"error","name":"UnsupportedTokenSupply","inputs":[]}],"bytecode":{"object":"0x60c034607857601f61074438819003918201601f19168301916001600160401b03831184841017607c5780849260409485528339810103126078578051906001600160a01b0382168203607857602001519060805260a0526040516106b39081610091823960805181610249015260a051816102810152f35b5f80fd5b634e487b7160e01b5f52604160045260245ffdfe6080806040526004361015610012575f80fd5b5f905f3560e01c9081631e324b521461046c57508063bd3f5138146101f8578063c305870c146101ce578063ca67d39c146101745763f6cdd9cc14610055575f80fd5b6101003660031901126101715761006a6104f6565b602435908260843560ff81168091036101625760e4356001600160a01b0381169081900361014957803b156101495782600491604051928380926314b0812960e11b825234905af190811561016657839161014d575b50506001600160a01b03831690813b1561014957829160e48392604051948593849263d505accf60e01b84523360048501523060248501528a60448501526064356064850152608484015260a43560a484015260c43560c48401525af1610134575b50506101319160443591610542565b80f35b8161013e9161050c565b61014957825f610122565b8280fd5b816101579161050c565b61016257815f6100c0565b5080fd5b6040513d85823e3d90fd5b80fd5b5034610171576020366003190112610171576001600160a01b036101966104f6565b1681528060205260ff6040822054166040519060038110156101ba57602092508152f35b634e487b7160e01b83526021600452602483fd5b5034610171576060366003190112610171576101316101eb6104f6565b6044359060243590610542565b50346101715760403660031901126101715760243567ffffffffffffffff8111610162573660238201121561016257806004013567ffffffffffffffff8111610149573660248284010111610149577f00000000000000000000000000000000000000000000000000000000000000006001600160a01b0316330361045d576068811061044e577f00000000000000000000000000000000000000000000000000000000000000006004350361043f578060141161014957602482013560601c906028811061043b57603883013560601c92604882106103fd57604c810135916068116103fd57606c01358385528460205260ff6040862054166003811015610427576001810361037657506040805163a9059cbb60e01b60208201526001600160a01b0385166024820152604480820185905281527faa2cf5d3a3048848c3129fad75ea4c790a1b9e45b3be93f7fca12da6f625f377939192906103689061036260648261050c565b8761065b565b82519182526020820152a380f35b1561040c575b833b156103fd576040516340c10f1960e01b81526001600160a01b03841660048201526024810183905285908181604481838a5af18015610401576103e8575b50507faa2cf5d3a3048848c3129fad75ea4c790a1b9e45b3be93f7fca12da6f625f37791604091610368565b816103f29161050c565b6103fd57845f6103bc565b8480fd5b6040513d84823e3d90fd5b8385528460205260408520600260ff1982541617905561037c565b634e487b7160e01b86526021600452602486fd5b8380fd5b6305e363e160e41b8352600483fd5b630b9cddcd60e11b8352600483fd5b63ea8e4eb560e01b8352600483fd5b905060803660031901126104f2576104826104f6565b906064356001600160a01b038116908190036104f257803b156104f257816004815f936314b0812960e11b825234905af180156104e7576104d0575b50610131906044359060243590610542565b6104dd9192505f9061050c565b5f906101316104be565b6040513d5f823e3d90fd5b5f80fd5b600435906001600160a01b03821682036104f257565b90601f8019910116810190811067ffffffffffffffff82111761052e57604052565b634e487b7160e01b5f52604160045260245ffd5b6001600160a01b03165f818152602081905260409020549092919060ff16600381101561064757600281036105e75750823b156104f25760405163079cc67960e41b8152336004820152602481018290525f8160448183885af180156104e7576105d7575b505b6040519081527ff80de57fd7626baaff7d867494866703686569822c2326ae60b2515ede953c3a60203392a4565b5f6105e19161050c565b5f6105a7565b1561062c575b6106276040516323b872dd60e01b60208201523360248201523060448201528260648201526064815261062160848261050c565b8461065b565b6105a9565b825f525f60205260405f20600160ff198254161790556105ed565b634e487b7160e01b5f52602160045260245ffd5b905f602091828151910182855af1156104e7575f513d6106aa57506001600160a01b0381163b155b61068a5750565b635274afe760e01b5f9081526001600160a01b0391909116600452602490fd5b6001141561068356","linkReferences":{}},"methodIdentifiers":{"getTokenSupplyType(address)":"ca67d39c","processVaraMessage(bytes32,bytes)":"bd3f5138","requestBridging(address,uint256,bytes32)":"c305870c","requestBridgingPayingFee(address,uint256,bytes32,address)":"1e324b52","requestBridgingPayingFeeWithPermit(address,uint256,bytes32,uint256,uint8,bytes32,bytes32,address)":"f6cdd9cc"},"id":60}