{"abi":[{"type":"constructor","inputs":[{"name":"_name","type":"string","internalType":"string"},{"name":"_symbol","type":"string","internalType":"string"}],"stateMutability":"nonpayable"},{"type":"function","name":"allowance","inputs":[{"name":"owner","type":"address","internalType":"address"},{"name":"spender","type":"address","internalType":"address"}],"outputs":[{"name":"","type":"uint256","internalType":"uint256"}],"stateMutability":"view"},{"type":"function","name":"approve","inputs":[{"name":"spender","type":"address","internalType":"address"},{"name":"value","type":"uint256","internalType":"uint256"}],"outputs":[{"name":"","type":"bool","internalType":"bool"}],"stateMutability":"nonpayable"},{"type":"function","name":"balanceOf","inputs":[{"name":"account","type":"address","internalType":"address"}],"outputs":[{"name":"","type":"uint256","internalType":"uint256"}],"stateMutability":"view"},{"type":"function","name":"decimals","inputs":[],"outputs":[{"name":"","type":"uint8","internalType":"uint8"}],"stateMutability":"pure"},{"type":"function","name":"name","inputs":[],"outputs":[{"name":"","type":"string","internalType":"string"}],"stateMutability":"view"},{"type":"function","name":"release","inputs":[{"name":"amount","type":"uint256","internalType":"uint256"}],"outputs":[],"stateMutability":"nonpayable"},{"type":"function","name":"symbol","inputs":[],"outputs":[{"name":"","type":"string","internalType":"string"}],"stateMutability":"view"},{"type":"function","name":"tokenize","inputs":[],"outputs":[],"stateMutability":"payable"},{"type":"function","name":"totalSupply","inputs":[],"outputs":[{"name":"","type":"uint256","internalType":"uint256"}],"stateMutability":"view"},{"type":"function","name":"transfer","inputs":[{"name":"to","type":"address","internalType":"address"},{"name":"value","type":"uint256","internalType":"uint256"}],"outputs":[{"name":"","type":"bool","internalType":"bool"}],"stateMutability":"nonpayable"},{"type":"function","name":"transferFrom","inputs":[{"name":"from","type":"address","internalType":"address"},{"name":"to","type":"address","internalType":"address"},{"name":"value","type":"uint256","internalType":"uint256"}],"outputs":[{"name":"","type":"bool","internalType":"bool"}],"stateMutability":"nonpayable"},{"type":"event","name":"Approval","inputs":[{"name":"owner","type":"address","indexed":true,"internalType":"address"},{"name":"spender","type":"address","indexed":true,"internalType":"address"},{"name":"value","type":"uint256","indexed":false,"internalType":"uint256"}],"anonymous":false},{"type":"event","name":"Transfer","inputs":[{"name":"from","type":"address","indexed":true,"internalType":"address"},{"name":"to","type":"address","indexed":true,"internalType":"address"},{"name":"value","type":"uint256","indexed":false,"internalType":"uint256"}],"anonymous":false},{"type":"error","name":"ERC20InsufficientAllowance","inputs":[{"name":"spender","type":"address","internalType":"address"},{"name":"allowance","type":"uint256","internalType":"uint256"},{"name":"needed","type":"uint256","internalType":"uint256"}]},{"type":"error","name":"ERC20InsufficientBalance","inputs":[{"name":"sender","type":"address","internalType":"address"},{"name":"balance","type":"uint256","internalType":"uint256"},{"name":"needed","type":"uint256","internalType":"uint256"}]},{"type":"error","name":"ERC20InvalidApprover","inputs":[{"name":"approver","type":"address","internalType":"address"}]},{"type":"error","name":"ERC20InvalidReceiver","inputs":[{"name":"receiver","type":"address","internalType":"address"}]},{"type":"error","name":"ERC20InvalidSender","inputs":[{"name":"sender","type":"address","internalType":"address"}]},{"type":"error","name":"ERC20InvalidSpender","inputs":[{"name":"spender","type":"address","internalType":"address"}]}],"bytecode":{"object":"0x608060405234801561000f575f80fd5b50604051611517380380611517833981810160405281019061003191906101a9565b81818160039081610042919061042c565b508060049081610052919061042c565b50505050506104fb565b5f604051905090565b5f80fd5b5f80fd5b5f80fd5b5f80fd5b5f601f19601f8301169050919050565b7f4e487b71000000000000000000000000000000000000000000000000000000005f52604160045260245ffd5b6100bb82610075565b810181811067ffffffffffffffff821117156100da576100d9610085565b5b80604052505050565b5f6100ec61005c565b90506100f882826100b2565b919050565b5f67ffffffffffffffff82111561011757610116610085565b5b61012082610075565b9050602081019050919050565b8281835e5f83830152505050565b5f61014d610148846100fd565b6100e3565b90508281526020810184848401111561016957610168610071565b5b61017484828561012d565b509392505050565b5f82601f8301126101905761018f61006d565b5b81516101a084826020860161013b565b91505092915050565b5f80604083850312156101bf576101be610065565b5b5f83015167ffffffffffffffff8111156101dc576101db610069565b5b6101e88582860161017c565b925050602083015167ffffffffffffffff81111561020957610208610069565b5b6102158582860161017c565b9150509250929050565b5f81519050919050565b7f4e487b71000000000000000000000000000000000000000000000000000000005f52602260045260245ffd5b5f600282049050600182168061026d57607f821691505b6020821081036102805761027f610229565b5b50919050565b5f819050815f5260205f209050919050565b5f6020601f8301049050919050565b5f82821b905092915050565b5f600883026102e27fffffffffffffffffffffffffffffffffffffffffffffffffffffffffffffffff826102a7565b6102ec86836102a7565b95508019841693508086168417925050509392505050565b5f819050919050565b5f819050919050565b5f61033061032b61032684610304565b61030d565b610304565b9050919050565b5f819050919050565b61034983610316565b61035d61035582610337565b8484546102b3565b825550505050565b5f90565b610371610365565b61037c818484610340565b505050565b5b8181101561039f576103945f82610369565b600181019050610382565b5050565b601f8211156103e4576103b581610286565b6103be84610298565b810160208510156103cd578190505b6103e16103d985610298565b830182610381565b50505b505050565b5f82821c905092915050565b5f6104045f19846008026103e9565b1980831691505092915050565b5f61041c83836103f5565b9150826002028217905092915050565b6104358261021f565b67ffffffffffffffff81111561044e5761044d610085565b5b6104588254610256565b6104638282856103a3565b5f60209050601f831160018114610494575f8415610482578287015190505b61048c8582610411565b8655506104f3565b601f1984166104a286610286565b5f5b828110156104c9578489015182556001820191506020850194506020810190506104a4565b868310156104e657848901516104e2601f8916826103f5565b8355505b6001600288020188555050505b505050505050565b61100f806105085f395ff3fe60806040526004361061009b575f3560e01c806337bdc99b1161006357806337bdc99b1461019557806345cc13c3146101bd57806370a08231146101c757806395d89b4114610203578063a9059cbb1461022d578063dd62ed3e146102695761009b565b806306fdde031461009f578063095ea7b3146100c957806318160ddd1461010557806323b872dd1461012f578063313ce5671461016b575b5f80fd5b3480156100aa575f80fd5b506100b36102a5565b6040516100c09190610c5d565b60405180910390f35b3480156100d4575f80fd5b506100ef60048036038101906100ea9190610d0e565b610335565b6040516100fc9190610d66565b60405180910390f35b348015610110575f80fd5b50610119610357565b6040516101269190610d8e565b60405180910390f35b34801561013a575f80fd5b5061015560048036038101906101509190610da7565b610360565b6040516101629190610d66565b60405180910390f35b348015610176575f80fd5b5061017f61038e565b60405161018c9190610e12565b60405180910390f35b3480156101a0575f80fd5b506101bb60048036038101906101b69190610e2b565b610396565b005b6101c56103e7565b005b3480156101d2575f80fd5b506101ed60048036038101906101e89190610e56565b6103f3565b6040516101fa9190610d8e565b60405180910390f35b34801561020e575f80fd5b50610217610438565b6040516102249190610c5d565b60405180910390f35b348015610238575f80fd5b50610253600480360381019061024e9190610d0e565b6104c8565b6040516102609190610d66565b60405180910390f35b348015610274575f80fd5b5061028f600480360381019061028a9190610e81565b6104ea565b60405161029c9190610d8e565b60405180910390f35b6060600380546102b490610eec565b80601f01602080910402602001604051908101604052809291908181526020018280546102e090610eec565b801561032b5780601f106103025761010080835404028352916020019161032b565b820191905f5260205f20905b81548152906001019060200180831161030e57829003601f168201915b5050505050905090565b5f8061033f61056c565b905061034c818585610573565b600191505092915050565b5f600254905090565b5f8061036a61056c565b9050610377858285610585565b610382858585610617565b60019150509392505050565b5f6012905090565b6103a03382610707565b3373ffffffffffffffffffffffffffffffffffffffff166108fc8290811502906040515f60405180830381858888f193505050501580156103e3573d5f803e3d5ffd5b5050565b6103f13334610786565b565b5f805f8373ffffffffffffffffffffffffffffffffffffffff1673ffffffffffffffffffffffffffffffffffffffff1681526020019081526020015f20549050919050565b60606004805461044790610eec565b80601f016020809104026020016040519081016040528092919081815260200182805461047390610eec565b80156104be5780601f10610495576101008083540402835291602001916104be565b820191905f5260205f20905b8154815290600101906020018083116104a157829003601f168201915b5050505050905090565b5f806104d261056c565b90506104df818585610617565b600191505092915050565b5f60015f8473ffffffffffffffffffffffffffffffffffffffff1673ffffffffffffffffffffffffffffffffffffffff1681526020019081526020015f205f8373ffffffffffffffffffffffffffffffffffffffff1673ffffffffffffffffffffffffffffffffffffffff1681526020019081526020015f2054905092915050565b5f33905090565b6105808383836001610805565b505050565b5f61059084846104ea565b90507fffffffffffffffffffffffffffffffffffffffffffffffffffffffffffffffff81146106115781811015610602578281836040517ffb8f41b20000000000000000000000000000000000000000000000000000000081526004016105f993929190610f2b565b60405180910390fd5b61061084848484035f610805565b5b50505050565b5f73ffffffffffffffffffffffffffffffffffffffff168373ffffffffffffffffffffffffffffffffffffffff1603610687575f6040517f96c6fd1e00000000000000000000000000000000000000000000000000000000815260040161067e9190610f60565b60405180910390fd5b5f73ffffffffffffffffffffffffffffffffffffffff168273ffffffffffffffffffffffffffffffffffffffff16036106f7575f6040517fec442f050000000000000000000000000000000000000000000000000000000081526004016106ee9190610f60565b60405180910390fd5b6107028383836109d4565b505050565b5f73ffffffffffffffffffffffffffffffffffffffff168273ffffffffffffffffffffffffffffffffffffffff1603610777575f6040517f96c6fd1e00000000000000000000000000000000000000000000000000000000815260040161076e9190610f60565b60405180910390fd5b610782825f836109d4565b5050565b5f73ffffffffffffffffffffffffffffffffffffffff168273ffffffffffffffffffffffffffffffffffffffff16036107f6575f6040517fec442f050000000000000000000000000000000000000000000000000000000081526004016107ed9190610f60565b60405180910390fd5b6108015f83836109d4565b5050565b5f73ffffffffffffffffffffffffffffffffffffffff168473ffffffffffffffffffffffffffffffffffffffff1603610875575f6040517fe602df0500000000000000000000000000000000000000000000000000000000815260040161086c9190610f60565b60405180910390fd5b5f73ffffffffffffffffffffffffffffffffffffffff168373ffffffffffffffffffffffffffffffffffffffff16036108e5575f6040517f94280d620000000000000000000000000000000000000000000000000000000081526004016108dc9190610f60565b60405180910390fd5b8160015f8673ffffffffffffffffffffffffffffffffffffffff1673ffffffffffffffffffffffffffffffffffffffff1681526020019081526020015f205f8573ffffffffffffffffffffffffffffffffffffffff1673ffffffffffffffffffffffffffffffffffffffff1681526020019081526020015f208190555080156109ce578273ffffffffffffffffffffffffffffffffffffffff168473ffffffffffffffffffffffffffffffffffffffff167f8c5be1e5ebec7d5bd14f71427d1e84f3dd0314c0f7b2291e5b200ac8c7c3b925846040516109c59190610d8e565b60405180910390a35b50505050565b5f73ffffffffffffffffffffffffffffffffffffffff168373ffffffffffffffffffffffffffffffffffffffff1603610a24578060025f828254610a189190610fa6565b92505081905550610af2565b5f805f8573ffffffffffffffffffffffffffffffffffffffff1673ffffffffffffffffffffffffffffffffffffffff1681526020019081526020015f2054905081811015610aad578381836040517fe450d38c000000000000000000000000000000000000000000000000000000008152600401610aa493929190610f2b565b60405180910390fd5b8181035f808673ffffffffffffffffffffffffffffffffffffffff1673ffffffffffffffffffffffffffffffffffffffff1681526020019081526020015f2081905550505b5f73ffffffffffffffffffffffffffffffffffffffff168273ffffffffffffffffffffffffffffffffffffffff1603610b39578060025f8282540392505081905550610b83565b805f808473ffffffffffffffffffffffffffffffffffffffff1673ffffffffffffffffffffffffffffffffffffffff1681526020019081526020015f205f82825401925050819055505b8173ffffffffffffffffffffffffffffffffffffffff168373ffffffffffffffffffffffffffffffffffffffff167fddf252ad1be2c89b69c2b068fc378daa952ba7f163c4a11628f55a4df523b3ef83604051610be09190610d8e565b60405180910390a3505050565b5f81519050919050565b5f82825260208201905092915050565b8281835e5f83830152505050565b5f601f19601f8301169050919050565b5f610c2f82610bed565b610c398185610bf7565b9350610c49818560208601610c07565b610c5281610c15565b840191505092915050565b5f6020820190508181035f830152610c758184610c25565b905092915050565b5f80fd5b5f73ffffffffffffffffffffffffffffffffffffffff82169050919050565b5f610caa82610c81565b9050919050565b610cba81610ca0565b8114610cc4575f80fd5b50565b5f81359050610cd581610cb1565b92915050565b5f819050919050565b610ced81610cdb565b8114610cf7575f80fd5b50565b5f81359050610d0881610ce4565b92915050565b5f8060408385031215610d2457610d23610c7d565b5b5f610d3185828601610cc7565b9250506020610d4285828601610cfa565b9150509250929050565b5f8115159050919050565b610d6081610d4c565b82525050565b5f602082019050610d795f830184610d57565b92915050565b610d8881610cdb565b82525050565b5f602082019050610da15f830184610d7f565b92915050565b5f805f60608486031215610dbe57610dbd610c7d565b5b5f610dcb86828701610cc7565b9350506020610ddc86828701610cc7565b9250506040610ded86828701610cfa565b9150509250925092565b5f60ff82169050919050565b610e0c81610df7565b82525050565b5f602082019050610e255f830184610e03565b92915050565b5f60208284031215610e4057610e3f610c7d565b5b5f610e4d84828501610cfa565b91505092915050565b5f60208284031215610e6b57610e6a610c7d565b5b5f610e7884828501610cc7565b91505092915050565b5f8060408385031215610e9757610e96610c7d565b5b5f610ea485828601610cc7565b9250506020610eb585828601610cc7565b9150509250929050565b7f4e487b71000000000000000000000000000000000000000000000000000000005f52602260045260245ffd5b5f6002820490506001821680610f0357607f821691505b602082108103610f1657610f15610ebf565b5b50919050565b610f2581610ca0565b82525050565b5f606082019050610f3e5f830186610f1c565b610f4b6020830185610d7f565b610f586040830184610d7f565b949350505050565b5f602082019050610f735f830184610f1c565b92915050565b7f4e487b71000000000000000000000000000000000000000000000000000000005f52601160045260245ffd5b5f610fb082610cdb565b9150610fbb83610cdb565b9250828201905080821115610fd357610fd2610f79565b5b9291505056fea26469706673582212201e04e3b4c1ee5b4fbb5097d5ef8cdfb6593bcc1e1e4d2b2fce29fa7190e1bbc064736f6c634300081a0033","linkReferences":{}},"methodIdentifiers":{"allowance(address,address)":"dd62ed3e","approve(address,uint256)":"095ea7b3","balanceOf(address)":"70a08231","decimals()":"313ce567","name()":"06fdde03","release(uint256)":"37bdc99b","symbol()":"95d89b41","tokenize()":"45cc13c3","totalSupply()":"18160ddd","transfer(address,uint256)":"a9059cbb","transferFrom(address,address,uint256)":"23b872dd"},"id":30}