{"abi":[{"type":"constructor","inputs":[],"stateMutability":"nonpayable"},{"type":"function","name":"CHALLENGE_ROOT_DELAY","inputs":[],"outputs":[{"name":"","type":"uint256","internalType":"uint256"}],"stateMutability":"view"},{"type":"function","name":"DEFAULT_ADMIN_ROLE","inputs":[],"outputs":[{"name":"","type":"bytes32","internalType":"bytes32"}],"stateMutability":"view"},{"type":"function","name":"MAX_BLOCK_DISTANCE","inputs":[],"outputs":[{"name":"","type":"uint256","internalType":"uint256"}],"stateMutability":"view"},{"type":"function","name":"PAUSER_ROLE","inputs":[],"outputs":[{"name":"","type":"bytes32","internalType":"bytes32"}],"stateMutability":"view"},{"type":"function","name":"PROCESS_ADMIN_MESSAGE_DELAY","inputs":[],"outputs":[{"name":"","type":"uint256","internalType":"uint256"}],"stateMutability":"view"},{"type":"function","name":"PROCESS_PAUSER_MESSAGE_DELAY","inputs":[],"outputs":[{"name":"","type":"uint256","internalType":"uint256"}],"stateMutability":"view"},{"type":"function","name":"PROCESS_USER_MESSAGE_DELAY","inputs":[],"outputs":[{"name":"","type":"uint256","internalType":"uint256"}],"stateMutability":"view"},{"type":"function","name":"UPGRADE_INTERFACE_VERSION","inputs":[],"outputs":[{"name":"","type":"string","internalType":"string"}],"stateMutability":"view"},{"type":"function","name":"challengeRoot","inputs":[],"outputs":[],"stateMutability":"nonpayable"},{"type":"function","name":"disableChallengeRoot","inputs":[],"outputs":[],"stateMutability":"nonpayable"},{"type":"function","name":"emergencyStopAdmin","inputs":[],"outputs":[{"name":"","type":"address","internalType":"address"}],"stateMutability":"view"},{"type":"function","name":"emergencyStopObservers","inputs":[],"outputs":[{"name":"","type":"address[]","internalType":"address[]"}],"stateMutability":"view"},{"type":"function","name":"genesisBlock","inputs":[],"outputs":[{"name":"","type":"uint256","internalType":"uint256"}],"stateMutability":"view"},{"type":"function","name":"getMerkleRoot","inputs":[{"name":"blockNumber","type":"uint256","internalType":"uint256"}],"outputs":[{"name":"","type":"bytes32","internalType":"bytes32"}],"stateMutability":"view"},{"type":"function","name":"getMerkleRootTimestamp","inputs":[{"name":"merkleRoot","type":"bytes32","internalType":"bytes32"}],"outputs":[{"name":"","type":"uint256","internalType":"uint256"}],"stateMutability":"view"},{"type":"function","name":"getRoleAdmin","inputs":[{"name":"role","type":"bytes32","internalType":"bytes32"}],"outputs":[{"name":"","type":"bytes32","internalType":"bytes32"}],"stateMutability":"view"},{"type":"function","name":"governanceAdmin","inputs":[],"outputs":[{"name":"","type":"address","internalType":"address"}],"stateMutability":"view"},{"type":"function","name":"governancePauser","inputs":[],"outputs":[{"name":"","type":"address","internalType":"address"}],"stateMutability":"view"},{"type":"function","name":"grantRole","inputs":[{"name":"role","type":"bytes32","internalType":"bytes32"},{"name":"account","type":"address","internalType":"address"}],"outputs":[],"stateMutability":"nonpayable"},{"type":"function","name":"hasRole","inputs":[{"name":"role","type":"bytes32","internalType":"bytes32"},{"name":"account","type":"address","internalType":"address"}],"outputs":[{"name":"","type":"bool","internalType":"bool"}],"stateMutability":"view"},{"type":"function","name":"initialize","inputs":[{"name":"governanceAdmin_","type":"address","internalType":"contract IGovernance"},{"name":"governancePauser_","type":"address","internalType":"contract IGovernance"},{"name":"emergencyStopAdmin_","type":"address","internalType":"address"},{"name":"emergencyStopObservers_","type":"address[]","internalType":"address[]"},{"name":"verifier_","type":"address","internalType":"contract IVerifier"}],"outputs":[],"stateMutability":"nonpayable"},{"type":"function","name":"isChallengingRoot","inputs":[],"outputs":[{"name":"","type":"bool","internalType":"bool"}],"stateMutability":"view"},{"type":"function","name":"isEmergencyStopped","inputs":[],"outputs":[{"name":"","type":"bool","internalType":"bool"}],"stateMutability":"view"},{"type":"function","name":"isProcessed","inputs":[{"name":"messageNonce","type":"uint256","internalType":"uint256"}],"outputs":[{"name":"","type":"bool","internalType":"bool"}],"stateMutability":"view"},{"type":"function","name":"maxBlockNumber","inputs":[],"outputs":[{"name":"","type":"uint256","internalType":"uint256"}],"stateMutability":"view"},{"type":"function","name":"pause","inputs":[],"outputs":[],"stateMutability":"nonpayable"},{"type":"function","name":"paused","inputs":[],"outputs":[{"name":"","type":"bool","internalType":"bool"}],"stateMutability":"view"},{"type":"function","name":"processMessage","inputs":[{"name":"blockNumber","type":"uint256","internalType":"uint256"},{"name":"totalLeaves","type":"uint256","internalType":"uint256"},{"name":"leafIndex","type":"uint256","internalType":"uint256"},{"name":"message","type":"tuple","internalType":"struct VaraMessage","components":[{"name":"nonce","type":"uint256","internalType":"uint256"},{"name":"source","type":"bytes32","internalType":"bytes32"},{"name":"destination","type":"address","internalType":"address"},{"name":"payload","type":"bytes","internalType":"bytes"}]},{"name":"proof","type":"bytes32[]","internalType":"bytes32[]"}],"outputs":[],"stateMutability":"nonpayable"},{"type":"function","name":"proxiableUUID","inputs":[],"outputs":[{"name":"","type":"bytes32","internalType":"bytes32"}],"stateMutability":"view"},{"type":"function","name":"renounceRole","inputs":[{"name":"role","type":"bytes32","internalType":"bytes32"},{"name":"callerConfirmation","type":"address","internalType":"address"}],"outputs":[],"stateMutability":"nonpayable"},{"type":"function","name":"revokeRole","inputs":[{"name":"role","type":"bytes32","internalType":"bytes32"},{"name":"account","type":"address","internalType":"address"}],"outputs":[],"stateMutability":"nonpayable"},{"type":"function","name":"submitMerkleRoot","inputs":[{"name":"blockNumber","type":"uint256","internalType":"uint256"},{"name":"merkleRoot","type":"bytes32","internalType":"bytes32"},{"name":"proof","type":"bytes","internalType":"bytes"}],"outputs":[],"stateMutability":"nonpayable"},{"type":"function","name":"supportsInterface","inputs":[{"name":"interfaceId","type":"bytes4","internalType":"bytes4"}],"outputs":[{"name":"","type":"bool","internalType":"bool"}],"stateMutability":"view"},{"type":"function","name":"unpause","inputs":[],"outputs":[],"stateMutability":"nonpayable"},{"type":"function","name":"upgradeToAndCall","inputs":[{"name":"newImplementation","type":"address","internalType":"address"},{"name":"data","type":"bytes","internalType":"bytes"}],"outputs":[],"stateMutability":"payable"},{"type":"function","name":"verifier","inputs":[],"outputs":[{"name":"","type":"address","internalType":"address"}],"stateMutability":"view"},{"type":"event","name":"ChallengeRootDisabled","inputs":[],"anonymous":false},{"type":"event","name":"ChallengeRootEnabled","inputs":[{"name":"untilTimestamp","type":"uint256","indexed":false,"internalType":"uint256"}],"anonymous":false},{"type":"event","name":"EmergencyStopDisabled","inputs":[],"anonymous":false},{"type":"event","name":"EmergencyStopEnabled","inputs":[],"anonymous":false},{"type":"event","name":"Initialized","inputs":[{"name":"version","type":"uint64","indexed":false,"internalType":"uint64"}],"anonymous":false},{"type":"event","name":"MerkleRoot","inputs":[{"name":"blockNumber","type":"uint256","indexed":false,"internalType":"uint256"},{"name":"merkleRoot","type":"bytes32","indexed":false,"internalType":"bytes32"},{"name":"maxBlockNumber","type":"uint256","indexed":false,"internalType":"uint256"}],"anonymous":false},{"type":"event","name":"MessageProcessed","inputs":[{"name":"blockNumber","type":"uint256","indexed":false,"internalType":"uint256"},{"name":"messageHash","type":"bytes32","indexed":false,"internalType":"bytes32"},{"name":"messageNonce","type":"uint256","indexed":false,"internalType":"uint256"},{"name":"messageDestination","type":"address","indexed":false,"internalType":"address"}],"anonymous":false},{"type":"event","name":"Paused","inputs":[{"name":"account","type":"address","indexed":false,"internalType":"address"}],"anonymous":false},{"type":"event","name":"RoleAdminChanged","inputs":[{"name":"role","type":"bytes32","indexed":true,"internalType":"bytes32"},{"name":"previousAdminRole","type":"bytes32","indexed":true,"internalType":"bytes32"},{"name":"newAdminRole","type":"bytes32","indexed":true,"internalType":"bytes32"}],"anonymous":false},{"type":"event","name":"RoleGranted","inputs":[{"name":"role","type":"bytes32","indexed":true,"internalType":"bytes32"},{"name":"account","type":"address","indexed":true,"internalType":"address"},{"name":"sender","type":"address","indexed":true,"internalType":"address"}],"anonymous":false},{"type":"event","name":"RoleRevoked","inputs":[{"name":"role","type":"bytes32","indexed":true,"internalType":"bytes32"},{"name":"account","type":"address","indexed":true,"internalType":"address"},{"name":"sender","type":"address","indexed":true,"internalType":"address"}],"anonymous":false},{"type":"event","name":"Unpaused","inputs":[{"name":"account","type":"address","indexed":false,"internalType":"address"}],"anonymous":false},{"type":"event","name":"Upgraded","inputs":[{"name":"implementation","type":"address","indexed":true,"internalType":"address"}],"anonymous":false},{"type":"error","name":"AccessControlBadConfirmation","inputs":[]},{"type":"error","name":"AccessControlUnauthorizedAccount","inputs":[{"name":"account","type":"address","internalType":"address"},{"name":"neededRole","type":"bytes32","internalType":"bytes32"}]},{"type":"error","name":"AddressEmptyCode","inputs":[{"name":"target","type":"address","internalType":"address"}]},{"type":"error","name":"BlockNumberBeforeGenesis","inputs":[{"name":"blockNumber","type":"uint256","internalType":"uint256"},{"name":"genesisBlock","type":"uint256","internalType":"uint256"}]},{"type":"error","name":"BlockNumberTooFar","inputs":[{"name":"blockNumber","type":"uint256","internalType":"uint256"},{"name":"maxBlockNumber","type":"uint256","internalType":"uint256"}]},{"type":"error","name":"ChallengeRoot","inputs":[]},{"type":"error","name":"ChallengeRootNotEnabled","inputs":[]},{"type":"error","name":"ERC1967InvalidImplementation","inputs":[{"name":"implementation","type":"address","internalType":"address"}]},{"type":"error","name":"ERC1967NonPayable","inputs":[]},{"type":"error","name":"EmergencyStop","inputs":[]},{"type":"error","name":"EnforcedPause","inputs":[]},{"type":"error","name":"ExpectedPause","inputs":[]},{"type":"error","name":"FailedCall","inputs":[]},{"type":"error","name":"InvalidInitialization","inputs":[]},{"type":"error","name":"InvalidMerkleProof","inputs":[]},{"type":"error","name":"InvalidPlonkProof","inputs":[]},{"type":"error","name":"MerkleRootAlreadySet","inputs":[{"name":"blockNumber","type":"uint256","internalType":"uint256"}]},{"type":"error","name":"MerkleRootDelayNotPassed","inputs":[]},{"type":"error","name":"MerkleRootNotFound","inputs":[{"name":"blockNumber","type":"uint256","internalType":"uint256"}]},{"type":"error","name":"MessageAlreadyProcessed","inputs":[{"name":"messageNonce","type":"uint256","internalType":"uint256"}]},{"type":"error","name":"NotEmergencyStopAdmin","inputs":[]},{"type":"error","name":"NotEmergencyStopObserver","inputs":[]},{"type":"error","name":"NotInitializing","inputs":[]},{"type":"error","name":"UUPSUnauthorizedCallContext","inputs":[]},{"type":"error","name":"UUPSUnsupportedProxiableUUID","inputs":[{"name":"slot","type":"bytes32","internalType":"bytes32"}]}],"bytecode":{"object":"0x60a080604052346100c257306080525f516020611de85f395f51905f525460ff8160401c166100b3576002600160401b03196001600160401b03821601610060575b604051611d2190816100c782396080518181816110e601526111d10152f35b6001600160401b0319166001600160401b039081175f516020611de85f395f51905f525581527fc7f505b2f371ae2175ee4913f4499e1f2633a7b5936321eed1cdaeb6115181d290602090a15f80610041565b63f92ee8a960e01b5f5260045ffd5b5f80fdfe6080806040526004361015610012575f80fd5b5f905f3560e01c90816258f6b81461169a5750806301ffc9a7146116445780630aab8ba51461161a5780630f926c02146115a35780632019165414611587578063248a9ca3146115485780632b7ac3f3146115205780632f2ff15d146114d657806336568abe146114925780633f4ba83a146114145780634610d3aa146113ea5780634cdc9c63146113cd5780634f1ef2861461115657806350b0952b1461113a57806352d1902d146110d457806352d190f3146110b05780635c975abb1461108257806376afc14f14610fc35780638456cb5914610f51578063867b827814610a3057806387e97e8c14610ee257806391d1485414610e8d57806393eb47e914610a35578063a181333c14610a30578063a217fddf14610a14578063a912fd25146109f6578063ad3cb1cc1461099a578063b13f222c14610971578063bfe7edd714610942578063c81eb79714610919578063cca66a9d1461055e578063ced1098b14610540578063d547741f146104ec578063e3b1a2b3146101ea578063e63ab1e9146101ce5763fddd4837146101a9575f80fd5b346101cb57806003193601126101cb57602060ff600754166040519015158152f35b80fd5b50346101cb57806003193601126101cb57602060405160018152f35b50346101cb5760a03660031901126101cb576102046116d2565b9061020d6116bc565b906044359260018060a01b0384168094036104e857606435936001600160401b0385116104e457366023860112156104e4578460040135946001600160401b0386116104d0578560051b90602082019661026a60405198896116e8565b875260246020880192820101903682116104cc57602401915b8183106104a8575050506084356001600160a01b03811694908590036104a4575f516020611d015f395f51905f52549260ff8460401c1615936001600160401b0381168015908161049c575b6001149081610492575b159081610489575b5061047a5767ffffffffffffffff1981166001175f516020611d015f395f51905f52558461044e575b50610313611b90565b61031b611b90565b610323611b90565b6001600160a01b03169061033682611865565b5061034082611914565b506001600160a01b03169061035482611914565b506001600160601b0360a01b8554161784556001600160601b0360a01b60015416176001556001600160601b0360a01b6002541617600255815b84518110156103dc5784518110156103c857600581901b850160200151600191906103c1906001600160a01b0316611bbb565b500161038e565b634e487b7160e01b83526032600452602483fd5b50600580546001600160a01b031916841790556103f65780f35b68ff0000000000000000195f516020611d015f395f51905f5254165f516020611d015f395f51905f52557fc7f505b2f371ae2175ee4913f4499e1f2633a7b5936321eed1cdaeb6115181d2602060405160018152a180f35b68ffffffffffffffffff191668010000000000000001175f516020611d015f395f51905f52555f61030a565b63f92ee8a960e01b8652600486fd5b9050155f6102e1565b303b1591506102d9565b8691506102cf565b8380fd5b82356001600160a01b03811681036104c857815260209283019201610283565b8680fd5b8580fd5b634e487b7160e01b84526041600452602484fd5b8280fd5b5080fd5b50346101cb5760403660031901126101cb5761053c60043561050c6116bc565b90610537610532825f525f516020611cc15f395f51905f52602052600160405f20015490565b61181f565b611a65565b5080f35b50346101cb57806003193601126101cb5760206040516202a3008152f35b50346101cb5760603660031901126101cb576024356004356044356001600160401b0381116104a457366023820112156104a4578060040135906001600160401b038211610915573660248383010111610915576002546001600160a01b031633146105c8611754565b8061090d575b6108fe5760ff6007541690816108f5575b506108e65760085480610880575082600855826009555b6040516106046060826116e8565b600281526020810190604036833780511561086c578560401c825280516001101561086c579192906040830163ffffffff60601b8660601b166001600160401b0360801b8860801b1617905260018060a01b0360055416926020610685604051968795633054963960e01b87526040600488015260246044880192016117af565b848103600319016024860152915180835291019190885b8181106108535750505091818060209403915afa90811561084857849161080d575b50156107fe57808352600a6020526040832054918215610774578214610762578252600a6020528160408120558152600b60205280604081205560075460ff811615610708575080f35b600682905560ff19166001176007557fa6262a506984c4ee15f889b617462c54ac45d6d7739c9cdceea59098ee5edeb88180a17f015567d35557fdfcbb3bbfe9dbf4f5c651cb9e461e784ac02c8152fbdb7319718180a180f35b638d60c7ab60e01b8352600452602482fd5b908092508352600a602052806040842055808352600b60205242604084205560095490611c2082018083116107ea577f35d63235ff5344cbfbd6dfbb3318524a4f10041d79ceb0cab8fb18114064fe04916060916040519186835260208301526040820152a181116107e4575080f35b60095580f35b634e487b7160e01b85526011600452602485fd5b636859a69960e11b8352600483fd5b90506020813d602011610840575b81610828602093836116e8565b810103126104a4575180151581036104a4575f6106be565b3d915061081b565b6040513d86823e3d90fd5b825184528694506020938401939092019160010161069c565b634e487b7160e01b87526032600452602487fd5b8084106108cf5750600954611c2081018091116108bb578084116108a457506105f6565b631931db8560e11b86526004849052602452604485fd5b634e487b7160e01b86526011600452602486fd5b63e370b92d60e01b86526004849052602452604485fd5b6313a5ef3f60e21b8552600485fd5b9050155f6105df565b63137de62760e21b8652600486fd5b5080156105ce565b8480fd5b50346101cb57806003193601126101cb576001546040516001600160a01b039091168152602090f35b50346101cb5760203660031901126101cb5760ff60406020926004358152600c84522054166040519015158152f35b50346101cb57806003193601126101cb576002546040516001600160a01b039091168152602090f35b50346101cb57806003193601126101cb57604080516109b982826116e8565b6005815260208101640352e302e360dc1b81528251938492602084525180928160208601528585015e828201840152601f01601f19168101030190f35b50346101cb57806003193601126101cb576020600954604051908152f35b50346101cb57806003193601126101cb57602090604051908152f35b611738565b5034610d6a5760a0366003190112610d6a576004356064356001600160401b038111610d6a57806004019060806003198236030112610d6a57608435916001600160401b038311610d6a5736602384011215610d6a578260040135906001600160401b038211610d6a573660248360051b86010111610d6a57610ab6611754565b610e7e575f54604051635aa6e67560e01b81529390602090859060049082906001600160a01b03165afa908115610d5f575f91610e49575b600154604051635aa6e67560e01b81529550602090869060049082906001600160a01b03165afa948515610d5f575f95610e15575b50602481013591821493848015610e0c575b60ff5f516020611ce15f395f51905f5254169081610e03575b50610df45760025460075460ff16906001600160a01b0316331481610deb575b50610ddc57833595865f52600c60205260ff60405f205416610dc957885f52600a60205260405f2054958615610db65715610da05750610e105b855f52600b60205260405f2054908101809111610d8c574210610d7d57610c46906044830195876064610bda89611769565b950194610c306074610bec888b61177d565b80604095929551958693602085019889528d60408601526001600160601b03199060601b1660608501528484013781015f838201520301601f1981018352826116e8565b5190209889926044359260248035930190611b01565b15610d6e575f858152600c60205260409020805460ff19166001179055610c7f906001600160a01b03610c7886611769565b169361177d565b92803b15610d6a57610cb8935f809460405196879586948593630302ac5d60e41b855260048501526040602485015260448401916117af565b03925af18015610d5f57610d1c575b50917f994c669cfd9c0453d42c933a11c002a34d12d85563aebe99ca525fffc45454f89391610cf7608094611769565b604080519485526020850193909352918301526001600160a01b03166060820152a180f35b60809391955091610d4f5f7f994c669cfd9c0453d42c933a11c002a34d12d85563aebe99ca525fffc45454f896946116e8565b610cf75f96929450509193610cc7565b6040513d5f823e3d90fd5b5f80fd5b63582f497d60e11b5f5260045ffd5b63a4f7d3e960e01b5f5260045ffd5b634e487b7160e01b5f52601160045260245ffd5b8303610dae5761012c610ba8565b61012c610ba8565b896355d7a68b60e01b5f5260045260245ffd5b866338503e3360e21b5f5260045260245ffd5b6313a5ef3f60e21b5f5260045ffd5b9050155f610b6e565b63d93c066560e01b5f5260045ffd5b9050155f610b4e565b50858314610b35565b9094506020813d602011610e41575b81610e31602093836116e8565b81010312610d6a5751935f610b23565b3d9150610e24565b90506020843d602011610e76575b81610e64602093836116e8565b81010312610d6a576004935190610aee565b3d9150610e57565b63137de62760e21b5f5260045ffd5b34610d6a576040366003190112610d6a57610ea66116bc565b6004355f525f516020611cc15f395f51905f5260205260405f209060018060a01b03165f52602052602060ff60405f2054166040519015158152f35b34610d6a575f366003190112610d6a57335f52600460205260405f205415610f4257426006556202a3004201804211610d8c5760207f9a878a4ae6a3ebc7d241df3b1837491b2b9a9cdd0580170a7f2c555d7b15ad8b91604051908152a1005b63d3e7b38160e01b5f5260045ffd5b34610d6a575f366003190112610d6a57610f696117cf565b5f516020611ce15f395f51905f525460ff8116610df45760019060ff1916175f516020611ce15f395f51905f52557f62e78cea01bee320cd4e420270b5ea74000d11b0c9f74754ebdbfc544b05a2586020604051338152a1005b34610d6a575f366003190112610d6a576040518060206003549283815201809260035f527fc2575a0e9e593c00f959f8c92f12db2869c3395a3b0502d05e2516446f71f85b905f5b81811061106c57505050816110219103826116e8565b604051918291602083019060208452518091526040830191905f5b81811061104a575050500390f35b82516001600160a01b031684528594506020938401939092019160010161103c565b825484526020909301926001928301920161100b565b34610d6a575f366003190112610d6a57602060ff5f516020611ce15f395f51905f5254166040519015158152f35b34610d6a575f366003190112610d6a5760206110ca611754565b6040519015158152f35b34610d6a575f366003190112610d6a577f00000000000000000000000000000000000000000000000000000000000000006001600160a01b0316300361112b5760206040515f516020611ca15f395f51905f528152f35b63703e46dd60e11b5f5260045ffd5b34610d6a575f366003190112610d6a576020604051611c208152f35b6040366003190112610d6a5761116a6116d2565b602435906001600160401b038211610d6a5736602383011215610d6a578160040135906111968261171d565b916111a460405193846116e8565b80835260208301933660248383010111610d6a57815f926024602093018737840101526001600160a01b037f0000000000000000000000000000000000000000000000000000000000000000163081149081156113ab575b5061112b57335f9081527fb7db2dd08fcb62d0c9e08c51941cae53c267786a0b75803fb7960902fc8ef97d602052604090205460ff1615611394576040516352d1902d60e01b81526001600160a01b0382169390602081600481885afa5f9181611360575b506112795784634c9c8ce360e01b5f5260045260245ffd5b805f516020611ca15f395f51905f5286920361134e5750823b1561133c575f516020611ca15f395f51905f5280546001600160a01b031916821790557fbc7cd75a20ee27fd9adebab32041f755214dbc6bffa90cc0225b39da2e5c2d3b5f80a2825115611323575f8091611319945190845af43d1561131b573d916112fd8361171d565b9261130b60405194856116e8565b83523d5f602085013e611c42565b005b606091611c42565b5050503461132d57005b63b398979f60e01b5f5260045ffd5b634c9c8ce360e01b5f5260045260245ffd5b632a87526960e21b5f5260045260245ffd5b9091506020813d60201161138c575b8161137c602093836116e8565b81010312610d6a57519086611261565b3d915061136f565b63e2517d3f60e01b5f52336004525f60245260445ffd5b5f516020611ca15f395f51905f52546001600160a01b031614159050846111fc565b34610d6a575f366003190112610d6a576020600854604051908152f35b34610d6a576020366003190112610d6a576004355f52600b602052602060405f2054604051908152f35b34610d6a575f366003190112610d6a5761142c6117cf565b5f516020611ce15f395f51905f525460ff8116156114835760ff19165f516020611ce15f395f51905f52557f5db9ee0a495bf2e6ff9c91a7834c1ba4fdd244a5e8aa4e537bd38aeae4b073aa6020604051338152a1005b638dfc202b60e01b5f5260045ffd5b34610d6a576040366003190112610d6a576114ab6116bc565b336001600160a01b038216036114c75761131990600435611a65565b63334bd91960e11b5f5260045ffd5b34610d6a576040366003190112610d6a576113196004356114f56116bc565b9061151b610532825f525f516020611cc15f395f51905f52602052600160405f20015490565b6119c1565b34610d6a575f366003190112610d6a576005546040516001600160a01b039091168152602090f35b34610d6a576020366003190112610d6a57602061157f6004355f525f516020611cc15f395f51905f52602052600160405f20015490565b604051908152f35b34610d6a575f366003190112610d6a576020604051610e108152f35b34610d6a575f366003190112610d6a576002546001600160a01b0316330361160b576115cd611754565b156115fc575f6006557fa6262a506984c4ee15f889b617462c54ac45d6d7739c9cdceea59098ee5edeb85f80a1005b630cddaee960e01b5f5260045ffd5b63662cadb560e01b5f5260045ffd5b34610d6a576020366003190112610d6a576004355f52600a602052602060405f2054604051908152f35b34610d6a576020366003190112610d6a5760043563ffffffff60e01b8116809103610d6a57602090637965db0b60e01b8114908115611689575b506040519015158152f35b6301ffc9a760e01b1490508261167e565b34610d6a575f366003190112610d6a575f546001600160a01b03168152602090f35b602435906001600160a01b0382168203610d6a57565b600435906001600160a01b0382168203610d6a57565b90601f801991011681019081106001600160401b0382111761170957604052565b634e487b7160e01b5f52604160045260245ffd5b6001600160401b03811161170957601f01601f191660200190565b34610d6a575f366003190112610d6a57602060405161012c8152f35b6006546202a3008101809111610d8c57421090565b356001600160a01b0381168103610d6a5790565b903590601e1981360301821215610d6a57018035906001600160401b038211610d6a57602001918136038313610d6a57565b908060209392818452848401375f828201840152601f01601f1916010190565b335f9081527f2222dce04fae1e25cd76e9391151ad9e0187ef92144ac6ce9e4e09f2c453b751602052604090205460ff161561180757565b63e2517d3f60e01b5f5233600452600160245260445ffd5b5f8181525f516020611cc15f395f51905f526020908152604080832033845290915290205460ff161561184f5750565b63e2517d3f60e01b5f523360045260245260445ffd5b6001600160a01b0381165f9081527fb7db2dd08fcb62d0c9e08c51941cae53c267786a0b75803fb7960902fc8ef97d602052604090205460ff1661190f576001600160a01b03165f8181527fb7db2dd08fcb62d0c9e08c51941cae53c267786a0b75803fb7960902fc8ef97d60205260408120805460ff191660011790553391907f2f8788117e7eff1d82e926ec794901d17c78024a50270940304540a733656f0d8180a4600190565b505f90565b6001600160a01b0381165f9081527f2222dce04fae1e25cd76e9391151ad9e0187ef92144ac6ce9e4e09f2c453b751602052604090205460ff1661190f576001600160a01b03165f8181527f2222dce04fae1e25cd76e9391151ad9e0187ef92144ac6ce9e4e09f2c453b75160205260408120805460ff191660019081179091553392917f2f8788117e7eff1d82e926ec794901d17c78024a50270940304540a733656f0d9080a4600190565b5f8181525f516020611cc15f395f51905f52602090815260408083206001600160a01b038616845290915290205460ff16611a5f575f8181525f516020611cc15f395f51905f52602090815260408083206001600160a01b0395909516808452949091528120805460ff19166001179055339291907f2f8788117e7eff1d82e926ec794901d17c78024a50270940304540a733656f0d9080a4600190565b50505f90565b5f8181525f516020611cc15f395f51905f52602090815260408083206001600160a01b038616845290915290205460ff1615611a5f575f8181525f516020611cc15f395f51905f52602090815260408083206001600160a01b0395909516808452949091528120805460ff19169055339291907ff6391f5c32d9c69d2a47ea670b442974b53935d1edc7fd64eb21e047a839171b9080a4600190565b91949590929384811015611b85575f969092905b86881015611b7b57808860051b860135906001808716148015611b6f575b15611b5a57505f5260205260018060405f20945b811c965f1901811c019701969492611b15565b9091505f5260205260018060405f2094611b47565b50876001870114611b33565b1495509350505050565b509450505050505f90565b60ff5f516020611d015f395f51905f525460401c1615611bac57565b631afcd79f60e31b5f5260045ffd5b805f52600460205260405f2054155f1461190f5760035468010000000000000000811015611709576001810180600355811015611c2e577fc2575a0e9e593c00f959f8c92f12db2869c3395a3b0502d05e2516446f71f85b018190556003545f9182526004602052604090912055600190565b634e487b7160e01b5f52603260045260245ffd5b90611c665750805115611c5757602081519101fd5b63d6bda27560e01b5f5260045ffd5b81511580611c97575b611c77575090565b639996b31560e01b5f9081526001600160a01b0391909116600452602490fd5b50803b15611c6f56fe360894a13ba1a3210667c828492db98dca3e2076cc3735a920a3ca505d382bbc02dd7bc7dec4dceedda775e58dd541e08a116c6c53815c0bd028192f7b626800cd5ed15c6e187e77e9aee88184c21f4f2182ab5827cb3b7e07fbedcd63f03300f0c57e16840df040f15088dc2f81fe391c3923bec73e23a9662efc9c229c6a00f0c57e16840df040f15088dc2f81fe391c3923bec73e23a9662efc9c229c6a00","linkReferences":{}},"methodIdentifiers":{"CHALLENGE_ROOT_DELAY()":"ced1098b","DEFAULT_ADMIN_ROLE()":"a217fddf","MAX_BLOCK_DISTANCE()":"50b0952b","PAUSER_ROLE()":"e63ab1e9","PROCESS_ADMIN_MESSAGE_DELAY()":"20191654","PROCESS_PAUSER_MESSAGE_DELAY()":"867b8278","PROCESS_USER_MESSAGE_DELAY()":"a181333c","UPGRADE_INTERFACE_VERSION()":"ad3cb1cc","challengeRoot()":"87e97e8c","disableChallengeRoot()":"0f926c02","emergencyStopAdmin()":"b13f222c","emergencyStopObservers()":"76afc14f","genesisBlock()":"4cdc9c63","getMerkleRoot(uint256)":"0aab8ba5","getMerkleRootTimestamp(bytes32)":"4610d3aa","getRoleAdmin(bytes32)":"248a9ca3","governanceAdmin()":"0058f6b8","governancePauser()":"c81eb797","grantRole(bytes32,address)":"2f2ff15d","hasRole(bytes32,address)":"91d14854","initialize(address,address,address,address[],address)":"e3b1a2b3","isChallengingRoot()":"52d190f3","isEmergencyStopped()":"fddd4837","isProcessed(uint256)":"bfe7edd7","maxBlockNumber()":"a912fd25","pause()":"8456cb59","paused()":"5c975abb","processMessage(uint256,uint256,uint256,(uint256,bytes32,address,bytes),bytes32[])":"93eb47e9","proxiableUUID()":"52d1902d","renounceRole(bytes32,address)":"36568abe","revokeRole(bytes32,address)":"d547741f","submitMerkleRoot(uint256,bytes32,bytes)":"cca66a9d","supportsInterface(bytes4)":"01ffc9a7","unpause()":"3f4ba83a","upgradeToAndCall(address,bytes)":"4f1ef286","verifier()":"2b7ac3f3"},"storageLayout":{"storage":[{"astId":61964,"contract":"src/MessageQueue.sol:MessageQueue","label":"_governanceAdmin","offset":0,"slot":"0","type":"t_contract(IGovernance)63756"},{"astId":61967,"contract":"src/MessageQueue.sol:MessageQueue","label":"_governancePauser","offset":0,"slot":"1","type":"t_contract(IGovernance)63756"},{"astId":61969,"contract":"src/MessageQueue.sol:MessageQueue","label":"_emergencyStopAdmin","offset":0,"slot":"2","type":"t_address"},{"astId":61972,"contract":"src/MessageQueue.sol:MessageQueue","label":"_emergencyStopObservers","offset":0,"slot":"3","type":"t_struct(AddressSet)54318_storage"},{"astId":61975,"contract":"src/MessageQueue.sol:MessageQueue","label":"_verifier","offset":0,"slot":"5","type":"t_contract(IVerifier)64215"},{"astId":61977,"contract":"src/MessageQueue.sol:MessageQueue","label":"_challengingRootTimestamp","offset":0,"slot":"6","type":"t_uint256"},{"astId":61979,"contract":"src/MessageQueue.sol:MessageQueue","label":"_emergencyStop","offset":0,"slot":"7","type":"t_bool"},{"astId":61981,"contract":"src/MessageQueue.sol:MessageQueue","label":"_genesisBlock","offset":0,"slot":"8","type":"t_uint256"},{"astId":61983,"contract":"src/MessageQueue.sol:MessageQueue","label":"_maxBlockNumber","offset":0,"slot":"9","type":"t_uint256"},{"astId":61987,"contract":"src/MessageQueue.sol:MessageQueue","label":"_blockNumbers","offset":0,"slot":"10","type":"t_mapping(t_uint256,t_bytes32)"},{"astId":61991,"contract":"src/MessageQueue.sol:MessageQueue","label":"_merkleRootTimestamps","offset":0,"slot":"11","type":"t_mapping(t_bytes32,t_uint256)"},{"astId":61995,"contract":"src/MessageQueue.sol:MessageQueue","label":"_processedMessages","offset":0,"slot":"12","type":"t_mapping(t_uint256,t_bool)"}],"types":{"t_address":{"encoding":"inplace","label":"address","numberOfBytes":"20"},"t_array(t_bytes32)dyn_storage":{"encoding":"dynamic_array","label":"bytes32[]","numberOfBytes":"32","base":"t_bytes32"},"t_bool":{"encoding":"inplace","label":"bool","numberOfBytes":"1"},"t_bytes32":{"encoding":"inplace","label":"bytes32","numberOfBytes":"32"},"t_contract(IGovernance)63756":{"encoding":"inplace","label":"contract IGovernance","numberOfBytes":"20"},"t_contract(IVerifier)64215":{"encoding":"inplace","label":"contract IVerifier","numberOfBytes":"20"},"t_mapping(t_bytes32,t_uint256)":{"encoding":"mapping","key":"t_bytes32","label":"mapping(bytes32 => uint256)","numberOfBytes":"32","value":"t_uint256"},"t_mapping(t_uint256,t_bool)":{"encoding":"mapping","key":"t_uint256","label":"mapping(uint256 => bool)","numberOfBytes":"32","value":"t_bool"},"t_mapping(t_uint256,t_bytes32)":{"encoding":"mapping","key":"t_uint256","label":"mapping(uint256 => bytes32)","numberOfBytes":"32","value":"t_bytes32"},"t_struct(AddressSet)54318_storage":{"encoding":"inplace","label":"struct EnumerableSet.AddressSet","numberOfBytes":"64","members":[{"astId":54317,"contract":"src/MessageQueue.sol:MessageQueue","label":"_inner","offset":0,"slot":"0","type":"t_struct(Set)53832_storage"}]},"t_struct(Set)53832_storage":{"encoding":"inplace","label":"struct EnumerableSet.Set","numberOfBytes":"64","members":[{"astId":53827,"contract":"src/MessageQueue.sol:MessageQueue","label":"_values","offset":0,"slot":"0","type":"t_array(t_bytes32)dyn_storage"},{"astId":53831,"contract":"src/MessageQueue.sol:MessageQueue","label":"_positions","offset":0,"slot":"1","type":"t_mapping(t_bytes32,t_uint256)"}]},"t_uint256":{"encoding":"inplace","label":"uint256","numberOfBytes":"32"}}},"id":88}