{"abi":[{"type":"constructor","inputs":[],"stateMutability":"nonpayable"},{"type":"function","name":"DEFAULT_ADMIN_ROLE","inputs":[],"outputs":[{"name":"","type":"bytes32","internalType":"bytes32"}],"stateMutability":"view"},{"type":"function","name":"PAUSER_ROLE","inputs":[],"outputs":[{"name":"","type":"bytes32","internalType":"bytes32"}],"stateMutability":"view"},{"type":"function","name":"PROCESS_MESSAGE_DELAY","inputs":[],"outputs":[{"name":"","type":"uint256","internalType":"uint256"}],"stateMutability":"view"},{"type":"function","name":"UPGRADE_INTERFACE_VERSION","inputs":[],"outputs":[{"name":"","type":"string","internalType":"string"}],"stateMutability":"view"},{"type":"function","name":"disableEmergencyStop","inputs":[{"name":"newVerifier","type":"address","internalType":"address"}],"outputs":[],"stateMutability":"nonpayable"},{"type":"function","name":"emergencyStopAdmin","inputs":[],"outputs":[{"name":"","type":"address","internalType":"address"}],"stateMutability":"view"},{"type":"function","name":"getMerkleRoot","inputs":[{"name":"blockNumber","type":"uint256","internalType":"uint256"}],"outputs":[{"name":"","type":"bytes32","internalType":"bytes32"}],"stateMutability":"view"},{"type":"function","name":"getMerkleRootTimestamp","inputs":[{"name":"merkleRoot","type":"bytes32","internalType":"bytes32"}],"outputs":[{"name":"","type":"uint256","internalType":"uint256"}],"stateMutability":"view"},{"type":"function","name":"getRoleAdmin","inputs":[{"name":"role","type":"bytes32","internalType":"bytes32"}],"outputs":[{"name":"","type":"bytes32","internalType":"bytes32"}],"stateMutability":"view"},{"type":"function","name":"governanceAdmin","inputs":[],"outputs":[{"name":"","type":"address","internalType":"address"}],"stateMutability":"view"},{"type":"function","name":"governancePauser","inputs":[],"outputs":[{"name":"","type":"address","internalType":"address"}],"stateMutability":"view"},{"type":"function","name":"grantRole","inputs":[{"name":"role","type":"bytes32","internalType":"bytes32"},{"name":"account","type":"address","internalType":"address"}],"outputs":[],"stateMutability":"nonpayable"},{"type":"function","name":"hasRole","inputs":[{"name":"role","type":"bytes32","internalType":"bytes32"},{"name":"account","type":"address","internalType":"address"}],"outputs":[{"name":"","type":"bool","internalType":"bool"}],"stateMutability":"view"},{"type":"function","name":"initialize","inputs":[{"name":"governanceAdmin_","type":"address","internalType":"contract IGovernance"},{"name":"governancePauser_","type":"address","internalType":"contract IGovernance"},{"name":"emergencyStopAdmin_","type":"address","internalType":"address"},{"name":"verifier_","type":"address","internalType":"contract IVerifier"}],"outputs":[],"stateMutability":"nonpayable"},{"type":"function","name":"isEmergencyStopped","inputs":[],"outputs":[{"name":"","type":"bool","internalType":"bool"}],"stateMutability":"view"},{"type":"function","name":"isProcessed","inputs":[{"name":"messageNonce","type":"uint256","internalType":"uint256"}],"outputs":[{"name":"","type":"bool","internalType":"bool"}],"stateMutability":"view"},{"type":"function","name":"pause","inputs":[],"outputs":[],"stateMutability":"nonpayable"},{"type":"function","name":"paused","inputs":[],"outputs":[{"name":"","type":"bool","internalType":"bool"}],"stateMutability":"view"},{"type":"function","name":"processMessage","inputs":[{"name":"blockNumber","type":"uint256","internalType":"uint256"},{"name":"totalLeaves","type":"uint256","internalType":"uint256"},{"name":"leafIndex","type":"uint256","internalType":"uint256"},{"name":"message","type":"tuple","internalType":"struct VaraMessage","components":[{"name":"nonce","type":"uint256","internalType":"uint256"},{"name":"source","type":"bytes32","internalType":"bytes32"},{"name":"destination","type":"address","internalType":"address"},{"name":"payload","type":"bytes","internalType":"bytes"}]},{"name":"proof","type":"bytes32[]","internalType":"bytes32[]"}],"outputs":[],"stateMutability":"nonpayable"},{"type":"function","name":"proxiableUUID","inputs":[],"outputs":[{"name":"","type":"bytes32","internalType":"bytes32"}],"stateMutability":"view"},{"type":"function","name":"renounceRole","inputs":[{"name":"role","type":"bytes32","internalType":"bytes32"},{"name":"callerConfirmation","type":"address","internalType":"address"}],"outputs":[],"stateMutability":"nonpayable"},{"type":"function","name":"revokeRole","inputs":[{"name":"role","type":"bytes32","internalType":"bytes32"},{"name":"account","type":"address","internalType":"address"}],"outputs":[],"stateMutability":"nonpayable"},{"type":"function","name":"submitMerkleRoot","inputs":[{"name":"blockNumber","type":"uint256","internalType":"uint256"},{"name":"merkleRoot","type":"bytes32","internalType":"bytes32"},{"name":"proof","type":"bytes","internalType":"bytes"}],"outputs":[],"stateMutability":"nonpayable"},{"type":"function","name":"supportsInterface","inputs":[{"name":"interfaceId","type":"bytes4","internalType":"bytes4"}],"outputs":[{"name":"","type":"bool","internalType":"bool"}],"stateMutability":"view"},{"type":"function","name":"unpause","inputs":[],"outputs":[],"stateMutability":"nonpayable"},{"type":"function","name":"upgradeToAndCall","inputs":[{"name":"newImplementation","type":"address","internalType":"address"},{"name":"data","type":"bytes","internalType":"bytes"}],"outputs":[],"stateMutability":"payable"},{"type":"function","name":"verifier","inputs":[],"outputs":[{"name":"","type":"address","internalType":"address"}],"stateMutability":"view"},{"type":"event","name":"EmergencyStopDisabled","inputs":[],"anonymous":false},{"type":"event","name":"EmergencyStopEnabled","inputs":[],"anonymous":false},{"type":"event","name":"Initialized","inputs":[{"name":"version","type":"uint64","indexed":false,"internalType":"uint64"}],"anonymous":false},{"type":"event","name":"MerkleRoot","inputs":[{"name":"blockNumber","type":"uint256","indexed":false,"internalType":"uint256"},{"name":"merkleRoot","type":"bytes32","indexed":false,"internalType":"bytes32"}],"anonymous":false},{"type":"event","name":"MessageProcessed","inputs":[{"name":"blockNumber","type":"uint256","indexed":false,"internalType":"uint256"},{"name":"messageHash","type":"bytes32","indexed":false,"internalType":"bytes32"},{"name":"messageNonce","type":"uint256","indexed":false,"internalType":"uint256"},{"name":"messageDestination","type":"address","indexed":false,"internalType":"address"}],"anonymous":false},{"type":"event","name":"Paused","inputs":[{"name":"account","type":"address","indexed":false,"internalType":"address"}],"anonymous":false},{"type":"event","name":"RoleAdminChanged","inputs":[{"name":"role","type":"bytes32","indexed":true,"internalType":"bytes32"},{"name":"previousAdminRole","type":"bytes32","indexed":true,"internalType":"bytes32"},{"name":"newAdminRole","type":"bytes32","indexed":true,"internalType":"bytes32"}],"anonymous":false},{"type":"event","name":"RoleGranted","inputs":[{"name":"role","type":"bytes32","indexed":true,"internalType":"bytes32"},{"name":"account","type":"address","indexed":true,"internalType":"address"},{"name":"sender","type":"address","indexed":true,"internalType":"address"}],"anonymous":false},{"type":"event","name":"RoleRevoked","inputs":[{"name":"role","type":"bytes32","indexed":true,"internalType":"bytes32"},{"name":"account","type":"address","indexed":true,"internalType":"address"},{"name":"sender","type":"address","indexed":true,"internalType":"address"}],"anonymous":false},{"type":"event","name":"Unpaused","inputs":[{"name":"account","type":"address","indexed":false,"internalType":"address"}],"anonymous":false},{"type":"event","name":"Upgraded","inputs":[{"name":"implementation","type":"address","indexed":true,"internalType":"address"}],"anonymous":false},{"type":"error","name":"AccessControlBadConfirmation","inputs":[]},{"type":"error","name":"AccessControlUnauthorizedAccount","inputs":[{"name":"account","type":"address","internalType":"address"},{"name":"neededRole","type":"bytes32","internalType":"bytes32"}]},{"type":"error","name":"AddressEmptyCode","inputs":[{"name":"target","type":"address","internalType":"address"}]},{"type":"error","name":"ERC1967InvalidImplementation","inputs":[{"name":"implementation","type":"address","internalType":"address"}]},{"type":"error","name":"ERC1967NonPayable","inputs":[]},{"type":"error","name":"EmergencyStop","inputs":[]},{"type":"error","name":"EmergencyStopNotEnabled","inputs":[]},{"type":"error","name":"EnforcedPause","inputs":[]},{"type":"error","name":"ExpectedPause","inputs":[]},{"type":"error","name":"FailedCall","inputs":[]},{"type":"error","name":"InvalidInitialization","inputs":[]},{"type":"error","name":"InvalidMerkleProof","inputs":[]},{"type":"error","name":"InvalidPlonkProof","inputs":[]},{"type":"error","name":"MerkleRootAlreadySet","inputs":[{"name":"blockNumber","type":"uint256","internalType":"uint256"}]},{"type":"error","name":"MerkleRootDelayNotPassed","inputs":[]},{"type":"error","name":"MerkleRootNotFound","inputs":[{"name":"blockNumber","type":"uint256","internalType":"uint256"}]},{"type":"error","name":"MessageAlreadyProcessed","inputs":[{"name":"messageNonce","type":"uint256","internalType":"uint256"}]},{"type":"error","name":"NotEmergencyStopAdmin","inputs":[]},{"type":"error","name":"NotInitializing","inputs":[]},{"type":"error","name":"UUPSUnauthorizedCallContext","inputs":[]},{"type":"error","name":"UUPSUnsupportedProxiableUUID","inputs":[{"name":"slot","type":"bytes32","internalType":"bytes32"}]}],"bytecode":{"object":"0x60a080604052346100c257306080525f5160206118f45f395f51905f525460ff8160401c166100b3576002600160401b03196001600160401b03821601610060575b60405161182d90816100c78239608051818181610cd90152610da90152f35b6001600160401b0319166001600160401b039081175f5160206118f45f395f51905f525581527fc7f505b2f371ae2175ee4913f4499e1f2633a7b5936321eed1cdaeb6115181d290602090a15f80610041565b63f92ee8a960e01b5f5260045ffd5b5f80fdfe6080806040526004361015610012575f80fd5b5f905f3560e01c90816258f6b81461125b5750806301ffc9a7146112055780630aab8ba5146111db5780630eb1a54414611142578063248a9ca3146111035780632b7ac3f3146110db5780632f2ff15d1461109157806336568abe1461104d5780633f4ba83a14610fcf5780634610d3aa14610fa55780634f1ef28614610d2d57806352d1902d14610cc75780635c975abb14610c995780638456cb5914610c2757806391d1485414610bd257806393eb47e9146107ae578063a217fddf14610792578063a8d7a64514610775578063ad3cb1cc14610719578063b13f222c146106f0578063bfe7edd7146106c1578063c81eb79714610698578063cca66a9d146103e5578063d547741f14610391578063e63ab1e914610375578063f8c8765e1461016e5763fddd483714610146575f80fd5b3461016b578060031936011261016b57602060ff60035460a01c166040519015158152f35b80fd5b503461016b57608036600319011261016b5761018861127d565b610190611293565b6044356001600160a01b03811690819003610371576064356001600160a01b038116929083900361036d575f51602061180d5f395f51905f52549360ff8560401c16159467ffffffffffffffff811680159081610365575b600114908161035b575b159081610352575b506103435767ffffffffffffffff1981166001175f51602061180d5f395f51905f525585610317575b5061022c611723565b610234611723565b61023c611723565b6001600160a01b03169061024f826113f8565b50610259826114a7565b506001600160a01b03169061026d826114a7565b506001600160601b0360a01b8654161785556001600160601b0360a01b60015416176001556001600160601b0360a01b60025416176002556001600160601b0360a01b60035416176003556102bf5780f35b68ff0000000000000000195f51602061180d5f395f51905f5254165f51602061180d5f395f51905f52557fc7f505b2f371ae2175ee4913f4499e1f2633a7b5936321eed1cdaeb6115181d2602060405160018152a180f35b68ffffffffffffffffff191668010000000000000001175f51602061180d5f395f51905f52555f610223565b63f92ee8a960e01b8752600487fd5b9050155f6101fa565b303b1591506101f2565b8791506101e8565b8480fd5b8380fd5b503461016b578060031936011261016b57602060405160018152f35b503461016b57604036600319011261016b576103e16004356103b1611293565b906103dc6103d7825f525f5160206117cd5f395f51905f52602052600160405f20015490565b6113b2565b6115f8565b5080f35b503461016b57606036600319011261016b5760243560043560443567ffffffffffffffff811161037157366023820112156103715780600401359067ffffffffffffffff821161036d57366024838301011161036d5760018060a01b03600254163314906003549160ff8360a01c16908161068f575b506106805760405161046e6060826112a9565b600281526020810191604036843781511561066c578660401c835281516001101561066c579391906040810163ffffffff60601b8760601b1667ffffffffffffffff60801b8960801b1617905260206104e4604051968795633054963960e01b8752604060048801526024604488019201611342565b848103600319016024860152915180835291019190885b818110610653575060209492849003928492506001600160a01b031690505afa90811561064857849161060d575b50156105fe57808352600460205260408320549182156105af57821461059d57600160a01b60ff60a01b19600354161760035582526004602052816040812055815260056020528060408120557f015567d35557fdfcbb3bbfe9dbf4f5c651cb9e461e784ac02c8152fbdb7319718180a180f35b638d60c7ab60e01b8352600452602482fd5b7f48211a20c285b6b077b7917b8bb118eaa92efdfb8fa2e3b114ffa253e0b665ae925090604091818552600460205280838620558085526005602052428386205582519182526020820152a180f35b636859a69960e11b8352600483fd5b90506020813d602011610640575b81610628602093836112a9565b8101031261037157518015158103610371575f610529565b3d915061061b565b6040513d86823e3d90fd5b82518452869450602093840193909201916001016104fb565b634e487b7160e01b88526032600452602488fd5b6313a5ef3f60e21b8652600486fd5b9050155f61045b565b503461016b578060031936011261016b576001546040516001600160a01b039091168152602090f35b503461016b57602036600319011261016b5760ff60406020926004358152600684522054166040519015158152f35b503461016b578060031936011261016b576002546040516001600160a01b039091168152602090f35b503461016b578060031936011261016b576040805161073882826112a9565b6005815260208101640352e302e360dc1b81528251938492602084525180928160208601528585015e828201840152601f01601f19168101030190f35b503461016b578060031936011261016b57602060405161012c8152f35b503461016b578060031936011261016b57602090604051908152f35b5034610aa55760a0366003190112610aa55760043560643567ffffffffffffffff8111610aa557806004019060806003198236030112610aa5576084359167ffffffffffffffff8311610aa55736602384011215610aa55782600401359067ffffffffffffffff8211610aa5573660248360051b86010111610aa5575f54604051635aa6e67560e01b8152602485013591602090829060049082906001600160a01b03165afa908115610a9a575f91610ba0575b5081148015610b31575b60ff5f5160206117ed5f395f51905f5254169081610b28575b50610b195760025460035460a01c60ff1690336001600160a01b03919091161481610b10575b50610b0157813593845f52600660205260ff60405f205416610aee57865f52600460205260405f2054938415610adb57845f52600560205260405f205461012c8101809111610ac7574210610ab85761098190604483019587606461090f896112fb565b9501946109656074610921888b61130f565b80604095929551958693602085019889528d60408601526001600160601b03199060601b1660608501528484013781015f838201520301601f1981018352826112a9565b5190205f5260205f209889926044359260248035930190611694565b15610aa9575f858152600660205260409020805460ff191660011790556109ba906001600160a01b036109b3866112fb565b169361130f565b92803b15610aa5576109f3935f809460405196879586948593630302ac5d60e41b85526004850152604060248501526044840191611342565b03925af18015610a9a57610a57575b50917f994c669cfd9c0453d42c933a11c002a34d12d85563aebe99ca525fffc45454f89391610a326080946112fb565b604080519485526020850193909352918301526001600160a01b03166060820152a180f35b60809391955091610a8a5f7f994c669cfd9c0453d42c933a11c002a34d12d85563aebe99ca525fffc45454f896946112a9565b610a325f96929450509193610a02565b6040513d5f823e3d90fd5b5f80fd5b63582f497d60e11b5f5260045ffd5b63a4f7d3e960e01b5f5260045ffd5b634e487b7160e01b5f52601160045260245ffd5b876355d7a68b60e01b5f5260045260245ffd5b846338503e3360e21b5f5260045260245ffd5b6313a5ef3f60e21b5f5260045ffd5b9050155f6108ab565b63d93c066560e01b5f5260045ffd5b9050155f610885565b50600154604051635aa6e67560e01b815290602090829060049082906001600160a01b03165afa908115610a9a575f91610b6e575b50811461086c565b90506020813d602011610b98575b81610b89602093836112a9565b81010312610aa557515f610b66565b3d9150610b7c565b90506020813d602011610bca575b81610bbb602093836112a9565b81010312610aa557515f610862565b3d9150610bae565b34610aa5576040366003190112610aa557610beb611293565b6004355f525f5160206117cd5f395f51905f5260205260405f209060018060a01b03165f52602052602060ff60405f2054166040519015158152f35b34610aa5575f366003190112610aa557610c3f611362565b5f5160206117ed5f395f51905f525460ff8116610b195760019060ff1916175f5160206117ed5f395f51905f52557f62e78cea01bee320cd4e420270b5ea74000d11b0c9f74754ebdbfc544b05a2586020604051338152a1005b34610aa5575f366003190112610aa557602060ff5f5160206117ed5f395f51905f5254166040519015158152f35b34610aa5575f366003190112610aa5577f00000000000000000000000000000000000000000000000000000000000000006001600160a01b03163003610d1e5760206040515f5160206117ad5f395f51905f528152f35b63703e46dd60e11b5f5260045ffd5b6040366003190112610aa557610d4161127d565b6024359067ffffffffffffffff8211610aa55736602383011215610aa557816004013590610d6e826112df565b91610d7c60405193846112a9565b80835260208301933660248383010111610aa557815f926024602093018737840101526001600160a01b037f000000000000000000000000000000000000000000000000000000000000000016308114908115610f83575b50610d1e57335f9081527fb7db2dd08fcb62d0c9e08c51941cae53c267786a0b75803fb7960902fc8ef97d602052604090205460ff1615610f6c576040516352d1902d60e01b81526001600160a01b0382169390602081600481885afa5f9181610f38575b50610e515784634c9c8ce360e01b5f5260045260245ffd5b805f5160206117ad5f395f51905f52869203610f265750823b15610f14575f5160206117ad5f395f51905f5280546001600160a01b031916821790557fbc7cd75a20ee27fd9adebab32041f755214dbc6bffa90cc0225b39da2e5c2d3b5f80a2825115610efb575f8091610ef1945190845af43d15610ef3573d91610ed5836112df565b92610ee360405194856112a9565b83523d5f602085013e61174e565b005b60609161174e565b50505034610f0557005b63b398979f60e01b5f5260045ffd5b634c9c8ce360e01b5f5260045260245ffd5b632a87526960e21b5f5260045260245ffd5b9091506020813d602011610f64575b81610f54602093836112a9565b81010312610aa557519086610e39565b3d9150610f47565b63e2517d3f60e01b5f52336004525f60245260445ffd5b5f5160206117ad5f395f51905f52546001600160a01b03161415905084610dd4565b34610aa5576020366003190112610aa5576004355f526005602052602060405f2054604051908152f35b34610aa5575f366003190112610aa557610fe7611362565b5f5160206117ed5f395f51905f525460ff81161561103e5760ff19165f5160206117ed5f395f51905f52557f5db9ee0a495bf2e6ff9c91a7834c1ba4fdd244a5e8aa4e537bd38aeae4b073aa6020604051338152a1005b638dfc202b60e01b5f5260045ffd5b34610aa5576040366003190112610aa557611066611293565b336001600160a01b0382160361108257610ef1906004356115f8565b63334bd91960e11b5f5260045ffd5b34610aa5576040366003190112610aa557610ef16004356110b0611293565b906110d66103d7825f525f5160206117cd5f395f51905f52602052600160405f20015490565b611554565b34610aa5575f366003190112610aa5576003546040516001600160a01b039091168152602090f35b34610aa5576020366003190112610aa557602061113a6004355f525f5160206117cd5f395f51905f52602052600160405f20015490565b604051908152f35b34610aa5576020366003190112610aa55761115b61127d565b6003549060ff8260a01c16156111cc576002546001600160a01b031633036111bd576001600160a01b03166001600160a81b031991909116176003557f733865ee5918bf41dfad0ca1d8ddaa4c1d18103ae3d21e7436828b52762b87e05f80a1005b63662cadb560e01b5f5260045ffd5b63194ad54d60e31b5f5260045ffd5b34610aa5576020366003190112610aa5576004355f526004602052602060405f2054604051908152f35b34610aa5576020366003190112610aa55760043563ffffffff60e01b8116809103610aa557602090637965db0b60e01b811490811561124a575b506040519015158152f35b6301ffc9a760e01b1490508261123f565b34610aa5575f366003190112610aa5575f546001600160a01b03168152602090f35b600435906001600160a01b0382168203610aa557565b602435906001600160a01b0382168203610aa557565b90601f8019910116810190811067ffffffffffffffff8211176112cb57604052565b634e487b7160e01b5f52604160045260245ffd5b67ffffffffffffffff81116112cb57601f01601f191660200190565b356001600160a01b0381168103610aa55790565b903590601e1981360301821215610aa5570180359067ffffffffffffffff8211610aa557602001918136038313610aa557565b908060209392818452848401375f828201840152601f01601f1916010190565b335f9081527f2222dce04fae1e25cd76e9391151ad9e0187ef92144ac6ce9e4e09f2c453b751602052604090205460ff161561139a57565b63e2517d3f60e01b5f5233600452600160245260445ffd5b5f8181525f5160206117cd5f395f51905f526020908152604080832033845290915290205460ff16156113e25750565b63e2517d3f60e01b5f523360045260245260445ffd5b6001600160a01b0381165f9081527fb7db2dd08fcb62d0c9e08c51941cae53c267786a0b75803fb7960902fc8ef97d602052604090205460ff166114a2576001600160a01b03165f8181527fb7db2dd08fcb62d0c9e08c51941cae53c267786a0b75803fb7960902fc8ef97d60205260408120805460ff191660011790553391907f2f8788117e7eff1d82e926ec794901d17c78024a50270940304540a733656f0d8180a4600190565b505f90565b6001600160a01b0381165f9081527f2222dce04fae1e25cd76e9391151ad9e0187ef92144ac6ce9e4e09f2c453b751602052604090205460ff166114a2576001600160a01b03165f8181527f2222dce04fae1e25cd76e9391151ad9e0187ef92144ac6ce9e4e09f2c453b75160205260408120805460ff191660019081179091553392917f2f8788117e7eff1d82e926ec794901d17c78024a50270940304540a733656f0d9080a4600190565b5f8181525f5160206117cd5f395f51905f52602090815260408083206001600160a01b038616845290915290205460ff166115f2575f8181525f5160206117cd5f395f51905f52602090815260408083206001600160a01b0395909516808452949091528120805460ff19166001179055339291907f2f8788117e7eff1d82e926ec794901d17c78024a50270940304540a733656f0d9080a4600190565b50505f90565b5f8181525f5160206117cd5f395f51905f52602090815260408083206001600160a01b038616845290915290205460ff16156115f2575f8181525f5160206117cd5f395f51905f52602090815260408083206001600160a01b0395909516808452949091528120805460ff19169055339291907ff6391f5c32d9c69d2a47ea670b442974b53935d1edc7fd64eb21e047a839171b9080a4600190565b91949590929384811015611718575f969092905b8688101561170e57808860051b860135906001808716148015611702575b156116ed57505f5260205260018060405f20945b811c965f1901811c0197019694926116a8565b9091505f5260205260018060405f20946116da565b508760018701146116c6565b1495509350505050565b509450505050505f90565b60ff5f51602061180d5f395f51905f525460401c161561173f57565b631afcd79f60e31b5f5260045ffd5b90611772575080511561176357602081519101fd5b63d6bda27560e01b5f5260045ffd5b815115806117a3575b611783575090565b639996b31560e01b5f9081526001600160a01b0391909116600452602490fd5b50803b1561177b56fe360894a13ba1a3210667c828492db98dca3e2076cc3735a920a3ca505d382bbc02dd7bc7dec4dceedda775e58dd541e08a116c6c53815c0bd028192f7b626800cd5ed15c6e187e77e9aee88184c21f4f2182ab5827cb3b7e07fbedcd63f03300f0c57e16840df040f15088dc2f81fe391c3923bec73e23a9662efc9c229c6a00f0c57e16840df040f15088dc2f81fe391c3923bec73e23a9662efc9c229c6a00","linkReferences":{}},"methodIdentifiers":{"DEFAULT_ADMIN_ROLE()":"a217fddf","PAUSER_ROLE()":"e63ab1e9","PROCESS_MESSAGE_DELAY()":"a8d7a645","UPGRADE_INTERFACE_VERSION()":"ad3cb1cc","disableEmergencyStop(address)":"0eb1a544","emergencyStopAdmin()":"b13f222c","getMerkleRoot(uint256)":"0aab8ba5","getMerkleRootTimestamp(bytes32)":"4610d3aa","getRoleAdmin(bytes32)":"248a9ca3","governanceAdmin()":"0058f6b8","governancePauser()":"c81eb797","grantRole(bytes32,address)":"2f2ff15d","hasRole(bytes32,address)":"91d14854","initialize(address,address,address,address)":"f8c8765e","isEmergencyStopped()":"fddd4837","isProcessed(uint256)":"bfe7edd7","pause()":"8456cb59","paused()":"5c975abb","processMessage(uint256,uint256,uint256,(uint256,bytes32,address,bytes),bytes32[])":"93eb47e9","proxiableUUID()":"52d1902d","renounceRole(bytes32,address)":"36568abe","revokeRole(bytes32,address)":"d547741f","submitMerkleRoot(uint256,bytes32,bytes)":"cca66a9d","supportsInterface(bytes4)":"01ffc9a7","unpause()":"3f4ba83a","upgradeToAndCall(address,bytes)":"4f1ef286","verifier()":"2b7ac3f3"},"storageLayout":{"storage":[{"astId":61915,"contract":"src/MessageQueue.sol:MessageQueue","label":"_governanceAdmin","offset":0,"slot":"0","type":"t_contract(IGovernance)63462"},{"astId":61918,"contract":"src/MessageQueue.sol:MessageQueue","label":"_governancePauser","offset":0,"slot":"1","type":"t_contract(IGovernance)63462"},{"astId":61920,"contract":"src/MessageQueue.sol:MessageQueue","label":"_emergencyStopAdmin","offset":0,"slot":"2","type":"t_address"},{"astId":61923,"contract":"src/MessageQueue.sol:MessageQueue","label":"_verifier","offset":0,"slot":"3","type":"t_contract(IVerifier)63882"},{"astId":61925,"contract":"src/MessageQueue.sol:MessageQueue","label":"_emergencyStop","offset":20,"slot":"3","type":"t_bool"},{"astId":61929,"contract":"src/MessageQueue.sol:MessageQueue","label":"_blockNumbers","offset":0,"slot":"4","type":"t_mapping(t_uint256,t_bytes32)"},{"astId":61933,"contract":"src/MessageQueue.sol:MessageQueue","label":"_merkleRootTimestamps","offset":0,"slot":"5","type":"t_mapping(t_bytes32,t_uint256)"},{"astId":61937,"contract":"src/MessageQueue.sol:MessageQueue","label":"_processedMessages","offset":0,"slot":"6","type":"t_mapping(t_uint256,t_bool)"}],"types":{"t_address":{"encoding":"inplace","label":"address","numberOfBytes":"20"},"t_bool":{"encoding":"inplace","label":"bool","numberOfBytes":"1"},"t_bytes32":{"encoding":"inplace","label":"bytes32","numberOfBytes":"32"},"t_contract(IGovernance)63462":{"encoding":"inplace","label":"contract IGovernance","numberOfBytes":"20"},"t_contract(IVerifier)63882":{"encoding":"inplace","label":"contract IVerifier","numberOfBytes":"20"},"t_mapping(t_bytes32,t_uint256)":{"encoding":"mapping","key":"t_bytes32","label":"mapping(bytes32 => uint256)","numberOfBytes":"32","value":"t_uint256"},"t_mapping(t_uint256,t_bool)":{"encoding":"mapping","key":"t_uint256","label":"mapping(uint256 => bool)","numberOfBytes":"32","value":"t_bool"},"t_mapping(t_uint256,t_bytes32)":{"encoding":"mapping","key":"t_uint256","label":"mapping(uint256 => bytes32)","numberOfBytes":"32","value":"t_bytes32"},"t_uint256":{"encoding":"inplace","label":"uint256","numberOfBytes":"32"}}},"id":88}