{"abi":[{"type":"constructor","inputs":[{"name":"relayer","type":"address","internalType":"contract IRelayer"}],"stateMutability":"nonpayable"},{"type":"function","name":"isProcessed","inputs":[{"name":"messageNonce","type":"bytes32","internalType":"bytes32"}],"outputs":[{"name":"","type":"bool","internalType":"bool"}],"stateMutability":"view"},{"type":"function","name":"processMessage","inputs":[{"name":"blockNumber","type":"uint256","internalType":"uint256"},{"name":"totalLeaves","type":"uint256","internalType":"uint256"},{"name":"leafIndex","type":"uint256","internalType":"uint256"},{"name":"message","type":"tuple","internalType":"struct VaraMessage","components":[{"name":"nonce","type":"bytes32","internalType":"bytes32"},{"name":"sender","type":"bytes32","internalType":"bytes32"},{"name":"receiver","type":"address","internalType":"address"},{"name":"data","type":"bytes","internalType":"bytes"}]},{"name":"proof","type":"bytes32[]","internalType":"bytes32[]"}],"outputs":[],"stateMutability":"nonpayable"},{"type":"event","name":"MessageProcessed","inputs":[{"name":"blockNumber","type":"uint256","indexed":true,"internalType":"uint256"},{"name":"messageHash","type":"bytes32","indexed":true,"internalType":"bytes32"},{"name":"messageNonce","type":"bytes32","indexed":true,"internalType":"bytes32"}],"anonymous":false},{"type":"error","name":"BadProof","inputs":[]},{"type":"error","name":"MerkleRootNotSet","inputs":[{"name":"blockNumber","type":"uint256","internalType":"uint256"}]},{"type":"error","name":"MessageAlreadyProcessed","inputs":[{"name":"messageNonce","type":"bytes32","internalType":"bytes32"}]},{"type":"error","name":"MessageNotProcessed","inputs":[]},{"type":"error","name":"RelayerEmergencyStop","inputs":[]}],"bytecode":{"object":"0x60a034606557601f61054538819003918201601f19168301916001600160401b03831184841017606957808492602094604052833981010312606557516001600160a01b03811681036065576080526040516104c7908161007e82396080518160bc0152f35b5f80fd5b634e487b7160e01b5f52604160045260245ffdfe6080806040526004361015610012575f80fd5b5f3560e01c90816311c168961461037957506344855efc14610032575f80fd5b3461032c5760a036600319011261032c5760043560643567ffffffffffffffff811161032c5780600401916080600319833603011261032c576084359167ffffffffffffffff831161032c573660238401121561032c5782600401359067ffffffffffffffff821161032c573660248360051b8601011161032c576040516318e9666960e21b81527f00000000000000000000000000000000000000000000000000000000000000006001600160a01b03169190602081600481865afa9081156102d3575f9161035a575b5061034b57853595865f525f60205260ff60405f20541661033857602060249360405194858092630aab8ba560e01b82528960048301525afa9283156102d3575f93610300575b5082156102ed576101da6024830135946044840194896064610165886103f1565b9601956101be60748a6101788a8a610405565b809160405196879460208601998a5260408601526bffffffffffffffffffffffff199060601b1660608501528484013781015f838201520301601f1981018352826103a3565b5190205f5260205f209889926044359260248035930190610438565b156102de576064936102165f936020958a865285875260408620600160ff1982541617905561020f60018060a01b03916103f1565b1693610405565b9586949192604051978896879586936317a7ea2760e31b8552600485015260406024850152816044850152848401378181018301849052601f01601f191681010301925af19081156102d3575f916102a4575b5015610295577f86b784cc94bf75127f81b9f806d51b5a1cf5a970b3b349f1d3dc7086007bcec55f80a4005b63ef2a441760e01b5f5260045ffd5b6102c6915060203d6020116102cc575b6102be81836103a3565b8101906103d9565b5f610269565b503d6102b4565b6040513d5f823e3d90fd5b637ca55c7760e01b5f5260045ffd5b846354e2ed2d60e11b5f5260045260245ffd5b9092506020813d602011610330575b8161031c602093836103a3565b8101031261032c5751915f610144565b5f80fd5b3d915061030f565b8663398560f160e11b5f5260045260245ffd5b63dfe54af360e01b5f5260045ffd5b610373915060203d6020116102cc576102be81836103a3565b5f6100fd565b3461032c57602036600319011261032c576020906004355f525f825260ff60405f20541615158152f35b90601f8019910116810190811067ffffffffffffffff8211176103c557604052565b634e487b7160e01b5f52604160045260245ffd5b9081602091031261032c5751801515810361032c5790565b356001600160a01b038116810361032c5790565b903590601e198136030182121561032c570180359067ffffffffffffffff821161032c5760200191813603831361032c57565b919495909293848110156104bc575f969092905b868810156104b257808860051b8601359060018087161480156104a6575b1561049157505f5260205260018060405f20945b811c965f1901811c01970196949261044c565b9091505f5260205260018060405f209461047e565b5087600187011461046a565b1495509350505050565b509450505050505f9056","linkReferences":{}},"methodIdentifiers":{"isProcessed(bytes32)":"11c16896","processMessage(uint256,uint256,uint256,(bytes32,bytes32,address,bytes),bytes32[])":"44855efc"},"id":60}