{"abi":[{"type":"constructor","inputs":[],"stateMutability":"nonpayable"},{"type":"function","name":"CHALLENGE_ROOT_DELAY","inputs":[],"outputs":[{"name":"","type":"uint256","internalType":"uint256"}],"stateMutability":"view"},{"type":"function","name":"DEFAULT_ADMIN_ROLE","inputs":[],"outputs":[{"name":"","type":"bytes32","internalType":"bytes32"}],"stateMutability":"view"},{"type":"function","name":"MAX_BLOCK_DISTANCE","inputs":[],"outputs":[{"name":"","type":"uint256","internalType":"uint256"}],"stateMutability":"view"},{"type":"function","name":"PAUSER_ROLE","inputs":[],"outputs":[{"name":"","type":"bytes32","internalType":"bytes32"}],"stateMutability":"view"},{"type":"function","name":"PROCESS_ADMIN_MESSAGE_DELAY","inputs":[],"outputs":[{"name":"","type":"uint256","internalType":"uint256"}],"stateMutability":"view"},{"type":"function","name":"PROCESS_PAUSER_MESSAGE_DELAY","inputs":[],"outputs":[{"name":"","type":"uint256","internalType":"uint256"}],"stateMutability":"view"},{"type":"function","name":"PROCESS_USER_MESSAGE_DELAY","inputs":[],"outputs":[{"name":"","type":"uint256","internalType":"uint256"}],"stateMutability":"view"},{"type":"function","name":"UPGRADE_INTERFACE_VERSION","inputs":[],"outputs":[{"name":"","type":"string","internalType":"string"}],"stateMutability":"view"},{"type":"function","name":"allowMessageProcessing","inputs":[],"outputs":[],"stateMutability":"nonpayable"},{"type":"function","name":"challengeRoot","inputs":[],"outputs":[],"stateMutability":"nonpayable"},{"type":"function","name":"disableChallengeRoot","inputs":[],"outputs":[],"stateMutability":"nonpayable"},{"type":"function","name":"emergencyStopAdmin","inputs":[],"outputs":[{"name":"","type":"address","internalType":"address"}],"stateMutability":"view"},{"type":"function","name":"emergencyStopObservers","inputs":[],"outputs":[{"name":"","type":"address[]","internalType":"address[]"}],"stateMutability":"view"},{"type":"function","name":"genesisBlock","inputs":[],"outputs":[{"name":"","type":"uint256","internalType":"uint256"}],"stateMutability":"view"},{"type":"function","name":"getMerkleRoot","inputs":[{"name":"blockNumber","type":"uint256","internalType":"uint256"}],"outputs":[{"name":"","type":"bytes32","internalType":"bytes32"}],"stateMutability":"view"},{"type":"function","name":"getMerkleRootTimestamp","inputs":[{"name":"merkleRoot","type":"bytes32","internalType":"bytes32"}],"outputs":[{"name":"","type":"uint256","internalType":"uint256"}],"stateMutability":"view"},{"type":"function","name":"getRoleAdmin","inputs":[{"name":"role","type":"bytes32","internalType":"bytes32"}],"outputs":[{"name":"","type":"bytes32","internalType":"bytes32"}],"stateMutability":"view"},{"type":"function","name":"governanceAdmin","inputs":[],"outputs":[{"name":"","type":"address","internalType":"address"}],"stateMutability":"view"},{"type":"function","name":"governancePauser","inputs":[],"outputs":[{"name":"","type":"address","internalType":"address"}],"stateMutability":"view"},{"type":"function","name":"grantRole","inputs":[{"name":"role","type":"bytes32","internalType":"bytes32"},{"name":"account","type":"address","internalType":"address"}],"outputs":[],"stateMutability":"nonpayable"},{"type":"function","name":"hasRole","inputs":[{"name":"role","type":"bytes32","internalType":"bytes32"},{"name":"account","type":"address","internalType":"address"}],"outputs":[{"name":"","type":"bool","internalType":"bool"}],"stateMutability":"view"},{"type":"function","name":"initialize","inputs":[{"name":"governanceAdmin_","type":"address","internalType":"contract IGovernance"},{"name":"governancePauser_","type":"address","internalType":"contract IGovernance"},{"name":"emergencyStopAdmin_","type":"address","internalType":"address"},{"name":"emergencyStopObservers_","type":"address[]","internalType":"address[]"},{"name":"verifier_","type":"address","internalType":"contract IVerifier"}],"outputs":[],"stateMutability":"nonpayable"},{"type":"function","name":"isChallengingRoot","inputs":[],"outputs":[{"name":"","type":"bool","internalType":"bool"}],"stateMutability":"view"},{"type":"function","name":"isEmergencyStopped","inputs":[],"outputs":[{"name":"","type":"bool","internalType":"bool"}],"stateMutability":"view"},{"type":"function","name":"isProcessed","inputs":[{"name":"messageNonce","type":"uint256","internalType":"uint256"}],"outputs":[{"name":"","type":"bool","internalType":"bool"}],"stateMutability":"view"},{"type":"function","name":"maxBlockNumber","inputs":[],"outputs":[{"name":"","type":"uint256","internalType":"uint256"}],"stateMutability":"view"},{"type":"function","name":"pause","inputs":[],"outputs":[],"stateMutability":"nonpayable"},{"type":"function","name":"paused","inputs":[],"outputs":[{"name":"","type":"bool","internalType":"bool"}],"stateMutability":"view"},{"type":"function","name":"processMessage","inputs":[{"name":"blockNumber","type":"uint256","internalType":"uint256"},{"name":"totalLeaves","type":"uint256","internalType":"uint256"},{"name":"leafIndex","type":"uint256","internalType":"uint256"},{"name":"message","type":"tuple","internalType":"struct VaraMessage","components":[{"name":"nonce","type":"uint256","internalType":"uint256"},{"name":"source","type":"bytes32","internalType":"bytes32"},{"name":"destination","type":"address","internalType":"address"},{"name":"payload","type":"bytes","internalType":"bytes"}]},{"name":"proof","type":"bytes32[]","internalType":"bytes32[]"}],"outputs":[],"stateMutability":"nonpayable"},{"type":"function","name":"proxiableUUID","inputs":[],"outputs":[{"name":"","type":"bytes32","internalType":"bytes32"}],"stateMutability":"view"},{"type":"function","name":"renounceRole","inputs":[{"name":"role","type":"bytes32","internalType":"bytes32"},{"name":"callerConfirmation","type":"address","internalType":"address"}],"outputs":[],"stateMutability":"nonpayable"},{"type":"function","name":"revokeRole","inputs":[{"name":"role","type":"bytes32","internalType":"bytes32"},{"name":"account","type":"address","internalType":"address"}],"outputs":[],"stateMutability":"nonpayable"},{"type":"function","name":"submitMerkleRoot","inputs":[{"name":"blockNumber","type":"uint256","internalType":"uint256"},{"name":"merkleRoot","type":"bytes32","internalType":"bytes32"},{"name":"proof","type":"bytes","internalType":"bytes"}],"outputs":[],"stateMutability":"nonpayable"},{"type":"function","name":"supportsInterface","inputs":[{"name":"interfaceId","type":"bytes4","internalType":"bytes4"}],"outputs":[{"name":"","type":"bool","internalType":"bool"}],"stateMutability":"view"},{"type":"function","name":"unpause","inputs":[],"outputs":[],"stateMutability":"nonpayable"},{"type":"function","name":"upgradeToAndCall","inputs":[{"name":"newImplementation","type":"address","internalType":"address"},{"name":"data","type":"bytes","internalType":"bytes"}],"outputs":[],"stateMutability":"payable"},{"type":"function","name":"verifier","inputs":[],"outputs":[{"name":"","type":"address","internalType":"address"}],"stateMutability":"view"},{"type":"event","name":"ChallengeRootDisabled","inputs":[],"anonymous":false},{"type":"event","name":"ChallengeRootEnabled","inputs":[{"name":"untilTimestamp","type":"uint256","indexed":false,"internalType":"uint256"}],"anonymous":false},{"type":"event","name":"EmergencyStopDisabled","inputs":[],"anonymous":false},{"type":"event","name":"EmergencyStopEnabled","inputs":[],"anonymous":false},{"type":"event","name":"Initialized","inputs":[{"name":"version","type":"uint64","indexed":false,"internalType":"uint64"}],"anonymous":false},{"type":"event","name":"MerkleRoot","inputs":[{"name":"blockNumber","type":"uint256","indexed":false,"internalType":"uint256"},{"name":"merkleRoot","type":"bytes32","indexed":false,"internalType":"bytes32"}],"anonymous":false},{"type":"event","name":"MessageProcessed","inputs":[{"name":"blockNumber","type":"uint256","indexed":false,"internalType":"uint256"},{"name":"messageHash","type":"bytes32","indexed":false,"internalType":"bytes32"},{"name":"messageNonce","type":"uint256","indexed":false,"internalType":"uint256"},{"name":"messageDestination","type":"address","indexed":false,"internalType":"address"}],"anonymous":false},{"type":"event","name":"MessageProcessingAllowed","inputs":[],"anonymous":false},{"type":"event","name":"Paused","inputs":[{"name":"account","type":"address","indexed":false,"internalType":"address"}],"anonymous":false},{"type":"event","name":"RoleAdminChanged","inputs":[{"name":"role","type":"bytes32","indexed":true,"internalType":"bytes32"},{"name":"previousAdminRole","type":"bytes32","indexed":true,"internalType":"bytes32"},{"name":"newAdminRole","type":"bytes32","indexed":true,"internalType":"bytes32"}],"anonymous":false},{"type":"event","name":"RoleGranted","inputs":[{"name":"role","type":"bytes32","indexed":true,"internalType":"bytes32"},{"name":"account","type":"address","indexed":true,"internalType":"address"},{"name":"sender","type":"address","indexed":true,"internalType":"address"}],"anonymous":false},{"type":"event","name":"RoleRevoked","inputs":[{"name":"role","type":"bytes32","indexed":true,"internalType":"bytes32"},{"name":"account","type":"address","indexed":true,"internalType":"address"},{"name":"sender","type":"address","indexed":true,"internalType":"address"}],"anonymous":false},{"type":"event","name":"Unpaused","inputs":[{"name":"account","type":"address","indexed":false,"internalType":"address"}],"anonymous":false},{"type":"event","name":"Upgraded","inputs":[{"name":"implementation","type":"address","indexed":true,"internalType":"address"}],"anonymous":false},{"type":"error","name":"AccessControlBadConfirmation","inputs":[]},{"type":"error","name":"AccessControlUnauthorizedAccount","inputs":[{"name":"account","type":"address","internalType":"address"},{"name":"neededRole","type":"bytes32","internalType":"bytes32"}]},{"type":"error","name":"AddressEmptyCode","inputs":[{"name":"target","type":"address","internalType":"address"}]},{"type":"error","name":"BlockNumberBeforeGenesis","inputs":[{"name":"blockNumber","type":"uint256","internalType":"uint256"},{"name":"genesisBlock","type":"uint256","internalType":"uint256"}]},{"type":"error","name":"BlockNumberTooFar","inputs":[{"name":"blockNumber","type":"uint256","internalType":"uint256"},{"name":"maxBlockNumber","type":"uint256","internalType":"uint256"}]},{"type":"error","name":"ChallengeRoot","inputs":[]},{"type":"error","name":"ChallengeRootNotEnabled","inputs":[]},{"type":"error","name":"ERC1967InvalidImplementation","inputs":[{"name":"implementation","type":"address","internalType":"address"}]},{"type":"error","name":"ERC1967NonPayable","inputs":[]},{"type":"error","name":"EmergencyStop","inputs":[]},{"type":"error","name":"EmergencyStopNotEnabled","inputs":[]},{"type":"error","name":"EnforcedPause","inputs":[]},{"type":"error","name":"ExpectedPause","inputs":[]},{"type":"error","name":"FailedCall","inputs":[]},{"type":"error","name":"InvalidInitialization","inputs":[]},{"type":"error","name":"InvalidMerkleProof","inputs":[]},{"type":"error","name":"InvalidPlonkProof","inputs":[]},{"type":"error","name":"MerkleRootAlreadySet","inputs":[{"name":"blockNumber","type":"uint256","internalType":"uint256"}]},{"type":"error","name":"MerkleRootDelayNotPassed","inputs":[]},{"type":"error","name":"MerkleRootNotFound","inputs":[{"name":"blockNumber","type":"uint256","internalType":"uint256"}]},{"type":"error","name":"MessageAlreadyProcessed","inputs":[{"name":"messageNonce","type":"uint256","internalType":"uint256"}]},{"type":"error","name":"NotEmergencyStopAdmin","inputs":[]},{"type":"error","name":"NotEmergencyStopObserver","inputs":[]},{"type":"error","name":"NotInitializing","inputs":[]},{"type":"error","name":"UUPSUnauthorizedCallContext","inputs":[]},{"type":"error","name":"UUPSUnsupportedProxiableUUID","inputs":[{"name":"slot","type":"bytes32","internalType":"bytes32"}]}],"bytecode":{"object":"0x60a080604052346100c257306080525f516020611e4d5f395f51905f525460ff8160401c166100b3576002600160401b03196001600160401b03821601610060575b604051611d8690816100c782396080518181816110d701526111c20152f35b6001600160401b0319166001600160401b039081175f516020611e4d5f395f51905f525581527fc7f505b2f371ae2175ee4913f4499e1f2633a7b5936321eed1cdaeb6115181d290602090a15f80610041565b63f92ee8a960e01b5f5260045ffd5b5f80fdfe60806040526004361015610011575f80fd5b5f5f3560e01c8062490745146116b257806258f6b81461168b57806301ffc9a7146116355780630aab8ba51461160b5780630f926c02146115945780632019165414611578578063248a9ca3146115395780632b7ac3f3146115115780632f2ff15d146114c757806336568abe146114835780633f4ba83a146114055780634610d3aa146113db5780634cdc9c63146113be5780634f1ef2861461114757806350b0952b1461112b57806352d1902d146110c557806352d190f3146110a15780635c975abb1461107357806376afc14f14610fb45780638456cb5914610f42578063867b827814610a0e57806387e97e8c14610ed357806391d1485414610e7e57806393eb47e914610a13578063a181333c14610a0e578063a217fddf146109f2578063a912fd25146109d4578063ad3cb1cc14610978578063b13f222c1461094f578063bfe7edd714610920578063c81eb797146108f7578063cca66a9d14610564578063ced1098b14610546578063d547741f146104f2578063e3b1a2b3146101f0578063e63ab1e9146101d45763fddd4837146101af575f80fd5b346101d157806003193601126101d157602060ff600754166040519015158152f35b80fd5b50346101d157806003193601126101d157602060405160018152f35b50346101d15760a03660031901126101d15761020a611737565b90610213611721565b906044359260018060a01b0384168094036104ee57606435936001600160401b0385116104ea57366023860112156104ea578460040135946001600160401b0386116104d6578560051b906020820196610270604051988961174d565b875260246020880192820101903682116104d257602401915b8183106104ae575050506084356001600160a01b03811694908590036104aa575f516020611d665f395f51905f52549260ff8460401c1615936001600160401b038116801590816104a2575b6001149081610498575b15908161048f575b506104805767ffffffffffffffff1981166001175f516020611d665f395f51905f525584610454575b50610319611bf5565b610321611bf5565b610329611bf5565b6001600160a01b03169061033c826118ca565b5061034682611979565b506001600160a01b03169061035a82611979565b506001600160601b0360a01b8554161784556001600160601b0360a01b60015416176001556001600160601b0360a01b6002541617600255815b84518110156103e25784518110156103ce57600581901b850160200151600191906103c7906001600160a01b0316611c20565b5001610394565b634e487b7160e01b83526032600452602483fd5b50600580546001600160a01b031916841790556103fc5780f35b68ff0000000000000000195f516020611d665f395f51905f5254165f516020611d665f395f51905f52557fc7f505b2f371ae2175ee4913f4499e1f2633a7b5936321eed1cdaeb6115181d2602060405160018152a180f35b68ffffffffffffffffff191668010000000000000001175f516020611d665f395f51905f52555f610310565b63f92ee8a960e01b8652600486fd5b9050155f6102e7565b303b1591506102df565b8691506102d5565b8380fd5b82356001600160a01b03811681036104ce57815260209283019201610289565b8680fd5b8580fd5b634e487b7160e01b84526041600452602484fd5b8280fd5b5080fd5b50346101d15760403660031901126101d157610542600435610512611721565b9061053d610538825f525f516020611d265f395f51905f52602052600160405f20015490565b611884565b611aca565b5080f35b50346101d157806003193601126101d15760206040516202a3008152f35b50346101d15760603660031901126101d1576024356004356044356001600160401b0381116104aa57366023820112156104aa578060040135906001600160401b0382116108f35736602483830101116108f3576002546001600160a01b031633146105ce6117b9565b806108eb575b6108dc5760ff6007541690816108d3575b506108c4576008548061085e575082600855826009555b60405161060a60608261174d565b600281526020810190604036833780511561084a578560401c825280516001101561084a579192906040830163ffffffff60601b8660601b166001600160401b0360801b8860801b1617905260018060a01b036005541692602061068b604051968795633054963960e01b8752604060048801526024604488019201611814565b848103600319016024860152915180835291019190885b8181106108315750505091818060209403915afa9081156108265784916107eb575b50156107dc57808352600b602052604083205491821561077a578214610768578252600b6020528160408120558152600c60205280604081205560075460ff81161561070e575080f35b600682905560ff19166001176007557fa6262a506984c4ee15f889b617462c54ac45d6d7739c9cdceea59098ee5edeb88180a17f015567d35557fdfcbb3bbfe9dbf4f5c651cb9e461e784ac02c8152fbdb7319718180a180f35b638d60c7ab60e01b8352600452602482fd5b7f48211a20c285b6b077b7917b8bb118eaa92efdfb8fa2e3b114ffa253e0b665ae925090604091818552600b6020528083862055808552600c602052428386205560095482116107d3575b82519182526020820152a180f35b816009556107c5565b636859a69960e11b8352600483fd5b90506020813d60201161081e575b816108066020938361174d565b810103126104aa575180151581036104aa575f6106c4565b3d91506107f9565b6040513d86823e3d90fd5b82518452869450602093840193909201916001016106a2565b634e487b7160e01b87526032600452602487fd5b8084106108ad5750600954611c2081018091116108995780841161088257506105fc565b631931db8560e11b86526004849052602452604485fd5b634e487b7160e01b86526011600452602486fd5b63e370b92d60e01b86526004849052602452604485fd5b6313a5ef3f60e21b8552600485fd5b9050155f6105e5565b63137de62760e21b8652600486fd5b5080156105d4565b8480fd5b50346101d157806003193601126101d1576001546040516001600160a01b039091168152602090f35b50346101d15760203660031901126101d15760ff60406020926004358152600d84522054166040519015158152f35b50346101d157806003193601126101d1576002546040516001600160a01b039091168152602090f35b50346101d157806003193601126101d15760408051610997828261174d565b6005815260208101640352e302e360dc1b81528251938492602084525180928160208601528585015e828201840152601f01601f19168101030190f35b50346101d157806003193601126101d1576020600954604051908152f35b50346101d157806003193601126101d157602090604051908152f35b61179d565b5034610d4f5760a0366003190112610d4f576004356064356001600160401b038111610d4f57806004019060806003198236030112610d4f57608435916001600160401b038311610d4f5736602384011215610d4f578260040135906001600160401b038211610d4f573660248360051b86010111610d4f57610a946117b9565b610e6f575f54604051635aa6e67560e01b81529390602090859060049082906001600160a01b03165afa908115610d44575f91610e3a575b600154604051635aa6e67560e01b81529550602090869060049082906001600160a01b03165afa948515610d44575f95610e06575b50602481013591821493848015610dfd575b60ff5f516020611d465f395f51905f5254169081610df4575b50610de5576002546001600160a01b031633148015610dd9575b60ff600754169081610dd0575b50610dc157833595865f52600d60205260ff60405f205416610dae57885f52600b60205260405f2054958615610d9b5715610d855750610e105b855f52600c60205260405f2054908101809111610d71574210610d6257610c2b906044830195876064610bbf896117ce565b950194610c156074610bd1888b6117e2565b80604095929551958693602085019889528d60408601526001600160601b03199060601b1660608501528484013781015f838201520301601f19810183528261174d565b5190209889926044359260248035930190611b66565b15610d53575f858152600d60205260409020805460ff19166001179055610c64906001600160a01b03610c5d866117ce565b16936117e2565b92803b15610d4f57610c9d935f809460405196879586948593630302ac5d60e41b85526004850152604060248501526044840191611814565b03925af18015610d4457610d01575b50917f994c669cfd9c0453d42c933a11c002a34d12d85563aebe99ca525fffc45454f89391610cdc6080946117ce565b604080519485526020850193909352918301526001600160a01b03166060820152a180f35b60809391955091610d345f7f994c669cfd9c0453d42c933a11c002a34d12d85563aebe99ca525fffc45454f8969461174d565b610cdc5f96929450509193610cac565b6040513d5f823e3d90fd5b5f80fd5b63582f497d60e11b5f5260045ffd5b63a4f7d3e960e01b5f5260045ffd5b634e487b7160e01b5f52601160045260245ffd5b8303610d935761012c610b8d565b61012c610b8d565b896355d7a68b60e01b5f5260045260245ffd5b866338503e3360e21b5f5260045260245ffd5b6313a5ef3f60e21b5f5260045ffd5b9050155f610b53565b5060ff600a5416610b46565b63d93c066560e01b5f5260045ffd5b9050155f610b2c565b50858314610b13565b9094506020813d602011610e32575b81610e226020938361174d565b81010312610d4f5751935f610b01565b3d9150610e15565b90506020843d602011610e67575b81610e556020938361174d565b81010312610d4f576004935190610acc565b3d9150610e48565b63137de62760e21b5f5260045ffd5b34610d4f576040366003190112610d4f57610e97611721565b6004355f525f516020611d265f395f51905f5260205260405f209060018060a01b03165f52602052602060ff60405f2054166040519015158152f35b34610d4f575f366003190112610d4f57335f52600460205260405f205415610f3357426006556202a3004201804211610d715760207f9a878a4ae6a3ebc7d241df3b1837491b2b9a9cdd0580170a7f2c555d7b15ad8b91604051908152a1005b63d3e7b38160e01b5f5260045ffd5b34610d4f575f366003190112610d4f57610f5a611834565b5f516020611d465f395f51905f525460ff8116610de55760019060ff1916175f516020611d465f395f51905f52557f62e78cea01bee320cd4e420270b5ea74000d11b0c9f74754ebdbfc544b05a2586020604051338152a1005b34610d4f575f366003190112610d4f576040518060206003549283815201809260035f527fc2575a0e9e593c00f959f8c92f12db2869c3395a3b0502d05e2516446f71f85b905f5b81811061105d575050508161101291038261174d565b604051918291602083019060208452518091526040830191905f5b81811061103b575050500390f35b82516001600160a01b031684528594506020938401939092019160010161102d565b8254845260209093019260019283019201610ffc565b34610d4f575f366003190112610d4f57602060ff5f516020611d465f395f51905f5254166040519015158152f35b34610d4f575f366003190112610d4f5760206110bb6117b9565b6040519015158152f35b34610d4f575f366003190112610d4f577f00000000000000000000000000000000000000000000000000000000000000006001600160a01b0316300361111c5760206040515f516020611d065f395f51905f528152f35b63703e46dd60e11b5f5260045ffd5b34610d4f575f366003190112610d4f576020604051611c208152f35b6040366003190112610d4f5761115b611737565b602435906001600160401b038211610d4f5736602383011215610d4f5781600401359061118782611782565b91611195604051938461174d565b80835260208301933660248383010111610d4f57815f926024602093018737840101526001600160a01b037f00000000000000000000000000000000000000000000000000000000000000001630811490811561139c575b5061111c57335f9081527fb7db2dd08fcb62d0c9e08c51941cae53c267786a0b75803fb7960902fc8ef97d602052604090205460ff1615611385576040516352d1902d60e01b81526001600160a01b0382169390602081600481885afa5f9181611351575b5061126a5784634c9c8ce360e01b5f5260045260245ffd5b805f516020611d065f395f51905f5286920361133f5750823b1561132d575f516020611d065f395f51905f5280546001600160a01b031916821790557fbc7cd75a20ee27fd9adebab32041f755214dbc6bffa90cc0225b39da2e5c2d3b5f80a2825115611314575f809161130a945190845af43d1561130c573d916112ee83611782565b926112fc604051948561174d565b83523d5f602085013e611ca7565b005b606091611ca7565b5050503461131e57005b63b398979f60e01b5f5260045ffd5b634c9c8ce360e01b5f5260045260245ffd5b632a87526960e21b5f5260045260245ffd5b9091506020813d60201161137d575b8161136d6020938361174d565b81010312610d4f57519086611252565b3d9150611360565b63e2517d3f60e01b5f52336004525f60245260445ffd5b5f516020611d065f395f51905f52546001600160a01b031614159050846111ed565b34610d4f575f366003190112610d4f576020600854604051908152f35b34610d4f576020366003190112610d4f576004355f52600c602052602060405f2054604051908152f35b34610d4f575f366003190112610d4f5761141d611834565b5f516020611d465f395f51905f525460ff8116156114745760ff19165f516020611d465f395f51905f52557f5db9ee0a495bf2e6ff9c91a7834c1ba4fdd244a5e8aa4e537bd38aeae4b073aa6020604051338152a1005b638dfc202b60e01b5f5260045ffd5b34610d4f576040366003190112610d4f5761149c611721565b336001600160a01b038216036114b85761130a90600435611aca565b63334bd91960e11b5f5260045ffd5b34610d4f576040366003190112610d4f5761130a6004356114e6611721565b9061150c610538825f525f516020611d265f395f51905f52602052600160405f20015490565b611a26565b34610d4f575f366003190112610d4f576005546040516001600160a01b039091168152602090f35b34610d4f576020366003190112610d4f5760206115706004355f525f516020611d265f395f51905f52602052600160405f20015490565b604051908152f35b34610d4f575f366003190112610d4f576020604051610e108152f35b34610d4f575f366003190112610d4f576002546001600160a01b031633036115fc576115be6117b9565b156115ed575f6006557fa6262a506984c4ee15f889b617462c54ac45d6d7739c9cdceea59098ee5edeb85f80a1005b630cddaee960e01b5f5260045ffd5b63662cadb560e01b5f5260045ffd5b34610d4f576020366003190112610d4f576004355f52600b602052602060405f2054604051908152f35b34610d4f576020366003190112610d4f5760043563ffffffff60e01b8116809103610d4f57602090637965db0b60e01b811490811561167a575b506040519015158152f35b6301ffc9a760e01b1490508261166f565b34610d4f575f366003190112610d4f575f546040516001600160a01b039091168152602090f35b34610d4f575f366003190112610d4f576002546001600160a01b031633036115fc5760ff600754161561171257600160ff19600a541617600a557f9d3e19ea897a0042d94736364efa77853151ca0c20a04f5d4e930a1043122ef85f80a1005b63194ad54d60e31b5f5260045ffd5b602435906001600160a01b0382168203610d4f57565b600435906001600160a01b0382168203610d4f57565b90601f801991011681019081106001600160401b0382111761176e57604052565b634e487b7160e01b5f52604160045260245ffd5b6001600160401b03811161176e57601f01601f191660200190565b34610d4f575f366003190112610d4f57602060405161012c8152f35b6006546202a3008101809111610d7157421090565b356001600160a01b0381168103610d4f5790565b903590601e1981360301821215610d4f57018035906001600160401b038211610d4f57602001918136038313610d4f57565b908060209392818452848401375f828201840152601f01601f1916010190565b335f9081527f2222dce04fae1e25cd76e9391151ad9e0187ef92144ac6ce9e4e09f2c453b751602052604090205460ff161561186c57565b63e2517d3f60e01b5f5233600452600160245260445ffd5b5f8181525f516020611d265f395f51905f526020908152604080832033845290915290205460ff16156118b45750565b63e2517d3f60e01b5f523360045260245260445ffd5b6001600160a01b0381165f9081527fb7db2dd08fcb62d0c9e08c51941cae53c267786a0b75803fb7960902fc8ef97d602052604090205460ff16611974576001600160a01b03165f8181527fb7db2dd08fcb62d0c9e08c51941cae53c267786a0b75803fb7960902fc8ef97d60205260408120805460ff191660011790553391907f2f8788117e7eff1d82e926ec794901d17c78024a50270940304540a733656f0d8180a4600190565b505f90565b6001600160a01b0381165f9081527f2222dce04fae1e25cd76e9391151ad9e0187ef92144ac6ce9e4e09f2c453b751602052604090205460ff16611974576001600160a01b03165f8181527f2222dce04fae1e25cd76e9391151ad9e0187ef92144ac6ce9e4e09f2c453b75160205260408120805460ff191660019081179091553392917f2f8788117e7eff1d82e926ec794901d17c78024a50270940304540a733656f0d9080a4600190565b5f8181525f516020611d265f395f51905f52602090815260408083206001600160a01b038616845290915290205460ff16611ac4575f8181525f516020611d265f395f51905f52602090815260408083206001600160a01b0395909516808452949091528120805460ff19166001179055339291907f2f8788117e7eff1d82e926ec794901d17c78024a50270940304540a733656f0d9080a4600190565b50505f90565b5f8181525f516020611d265f395f51905f52602090815260408083206001600160a01b038616845290915290205460ff1615611ac4575f8181525f516020611d265f395f51905f52602090815260408083206001600160a01b0395909516808452949091528120805460ff19169055339291907ff6391f5c32d9c69d2a47ea670b442974b53935d1edc7fd64eb21e047a839171b9080a4600190565b91949590929384811015611bea575f969092905b86881015611be057808860051b860135906001808716148015611bd4575b15611bbf57505f5260205260018060405f20945b811c965f1901811c019701969492611b7a565b9091505f5260205260018060405f2094611bac565b50876001870114611b98565b1495509350505050565b509450505050505f90565b60ff5f516020611d665f395f51905f525460401c1615611c1157565b631afcd79f60e31b5f5260045ffd5b805f52600460205260405f2054155f14611974576003546801000000000000000081101561176e576001810180600355811015611c93577fc2575a0e9e593c00f959f8c92f12db2869c3395a3b0502d05e2516446f71f85b018190556003545f9182526004602052604090912055600190565b634e487b7160e01b5f52603260045260245ffd5b90611ccb5750805115611cbc57602081519101fd5b63d6bda27560e01b5f5260045ffd5b81511580611cfc575b611cdc575090565b639996b31560e01b5f9081526001600160a01b0391909116600452602490fd5b50803b15611cd456fe360894a13ba1a3210667c828492db98dca3e2076cc3735a920a3ca505d382bbc02dd7bc7dec4dceedda775e58dd541e08a116c6c53815c0bd028192f7b626800cd5ed15c6e187e77e9aee88184c21f4f2182ab5827cb3b7e07fbedcd63f03300f0c57e16840df040f15088dc2f81fe391c3923bec73e23a9662efc9c229c6a00f0c57e16840df040f15088dc2f81fe391c3923bec73e23a9662efc9c229c6a00","linkReferences":{}},"methodIdentifiers":{"CHALLENGE_ROOT_DELAY()":"ced1098b","DEFAULT_ADMIN_ROLE()":"a217fddf","MAX_BLOCK_DISTANCE()":"50b0952b","PAUSER_ROLE()":"e63ab1e9","PROCESS_ADMIN_MESSAGE_DELAY()":"20191654","PROCESS_PAUSER_MESSAGE_DELAY()":"867b8278","PROCESS_USER_MESSAGE_DELAY()":"a181333c","UPGRADE_INTERFACE_VERSION()":"ad3cb1cc","allowMessageProcessing()":"00490745","challengeRoot()":"87e97e8c","disableChallengeRoot()":"0f926c02","emergencyStopAdmin()":"b13f222c","emergencyStopObservers()":"76afc14f","genesisBlock()":"4cdc9c63","getMerkleRoot(uint256)":"0aab8ba5","getMerkleRootTimestamp(bytes32)":"4610d3aa","getRoleAdmin(bytes32)":"248a9ca3","governanceAdmin()":"0058f6b8","governancePauser()":"c81eb797","grantRole(bytes32,address)":"2f2ff15d","hasRole(bytes32,address)":"91d14854","initialize(address,address,address,address[],address)":"e3b1a2b3","isChallengingRoot()":"52d190f3","isEmergencyStopped()":"fddd4837","isProcessed(uint256)":"bfe7edd7","maxBlockNumber()":"a912fd25","pause()":"8456cb59","paused()":"5c975abb","processMessage(uint256,uint256,uint256,(uint256,bytes32,address,bytes),bytes32[])":"93eb47e9","proxiableUUID()":"52d1902d","renounceRole(bytes32,address)":"36568abe","revokeRole(bytes32,address)":"d547741f","submitMerkleRoot(uint256,bytes32,bytes)":"cca66a9d","supportsInterface(bytes4)":"01ffc9a7","unpause()":"3f4ba83a","upgradeToAndCall(address,bytes)":"4f1ef286","verifier()":"2b7ac3f3"},"storageLayout":{"storage":[{"astId":62142,"contract":"src/MessageQueue.sol:MessageQueue","label":"_governanceAdmin","offset":0,"slot":"0","type":"t_contract(IGovernance)63971"},{"astId":62145,"contract":"src/MessageQueue.sol:MessageQueue","label":"_governancePauser","offset":0,"slot":"1","type":"t_contract(IGovernance)63971"},{"astId":62147,"contract":"src/MessageQueue.sol:MessageQueue","label":"_emergencyStopAdmin","offset":0,"slot":"2","type":"t_address"},{"astId":62150,"contract":"src/MessageQueue.sol:MessageQueue","label":"_emergencyStopObservers","offset":0,"slot":"3","type":"t_struct(AddressSet)54318_storage"},{"astId":62153,"contract":"src/MessageQueue.sol:MessageQueue","label":"_verifier","offset":0,"slot":"5","type":"t_contract(IVerifier)64438"},{"astId":62155,"contract":"src/MessageQueue.sol:MessageQueue","label":"_challengingRootTimestamp","offset":0,"slot":"6","type":"t_uint256"},{"astId":62157,"contract":"src/MessageQueue.sol:MessageQueue","label":"_emergencyStop","offset":0,"slot":"7","type":"t_bool"},{"astId":62159,"contract":"src/MessageQueue.sol:MessageQueue","label":"_genesisBlock","offset":0,"slot":"8","type":"t_uint256"},{"astId":62161,"contract":"src/MessageQueue.sol:MessageQueue","label":"_maxBlockNumber","offset":0,"slot":"9","type":"t_uint256"},{"astId":62163,"contract":"src/MessageQueue.sol:MessageQueue","label":"_allowMessageProcessing","offset":0,"slot":"10","type":"t_bool"},{"astId":62167,"contract":"src/MessageQueue.sol:MessageQueue","label":"_blockNumbers","offset":0,"slot":"11","type":"t_mapping(t_uint256,t_bytes32)"},{"astId":62171,"contract":"src/MessageQueue.sol:MessageQueue","label":"_merkleRootTimestamps","offset":0,"slot":"12","type":"t_mapping(t_bytes32,t_uint256)"},{"astId":62175,"contract":"src/MessageQueue.sol:MessageQueue","label":"_processedMessages","offset":0,"slot":"13","type":"t_mapping(t_uint256,t_bool)"}],"types":{"t_address":{"encoding":"inplace","label":"address","numberOfBytes":"20"},"t_array(t_bytes32)dyn_storage":{"encoding":"dynamic_array","label":"bytes32[]","numberOfBytes":"32","base":"t_bytes32"},"t_bool":{"encoding":"inplace","label":"bool","numberOfBytes":"1"},"t_bytes32":{"encoding":"inplace","label":"bytes32","numberOfBytes":"32"},"t_contract(IGovernance)63971":{"encoding":"inplace","label":"contract IGovernance","numberOfBytes":"20"},"t_contract(IVerifier)64438":{"encoding":"inplace","label":"contract IVerifier","numberOfBytes":"20"},"t_mapping(t_bytes32,t_uint256)":{"encoding":"mapping","key":"t_bytes32","label":"mapping(bytes32 => uint256)","numberOfBytes":"32","value":"t_uint256"},"t_mapping(t_uint256,t_bool)":{"encoding":"mapping","key":"t_uint256","label":"mapping(uint256 => bool)","numberOfBytes":"32","value":"t_bool"},"t_mapping(t_uint256,t_bytes32)":{"encoding":"mapping","key":"t_uint256","label":"mapping(uint256 => bytes32)","numberOfBytes":"32","value":"t_bytes32"},"t_struct(AddressSet)54318_storage":{"encoding":"inplace","label":"struct EnumerableSet.AddressSet","numberOfBytes":"64","members":[{"astId":54317,"contract":"src/MessageQueue.sol:MessageQueue","label":"_inner","offset":0,"slot":"0","type":"t_struct(Set)53832_storage"}]},"t_struct(Set)53832_storage":{"encoding":"inplace","label":"struct EnumerableSet.Set","numberOfBytes":"64","members":[{"astId":53827,"contract":"src/MessageQueue.sol:MessageQueue","label":"_values","offset":0,"slot":"0","type":"t_array(t_bytes32)dyn_storage"},{"astId":53831,"contract":"src/MessageQueue.sol:MessageQueue","label":"_positions","offset":0,"slot":"1","type":"t_mapping(t_bytes32,t_uint256)"}]},"t_uint256":{"encoding":"inplace","label":"uint256","numberOfBytes":"32"}}},"id":91}