{"abi":[{"type":"constructor","inputs":[{"name":"relayer","type":"address","internalType":"contract IRelayer"}],"stateMutability":"nonpayable"},{"type":"function","name":"isProcessed","inputs":[{"name":"messageNonce","type":"uint256","internalType":"uint256"}],"outputs":[{"name":"","type":"bool","internalType":"bool"}],"stateMutability":"view"},{"type":"function","name":"processMessage","inputs":[{"name":"blockNumber","type":"uint256","internalType":"uint256"},{"name":"totalLeaves","type":"uint256","internalType":"uint256"},{"name":"leafIndex","type":"uint256","internalType":"uint256"},{"name":"message","type":"tuple","internalType":"struct VaraMessage","components":[{"name":"nonce","type":"uint256","internalType":"uint256"},{"name":"source","type":"bytes32","internalType":"bytes32"},{"name":"destination","type":"address","internalType":"address"},{"name":"payload","type":"bytes","internalType":"bytes"}]},{"name":"proof","type":"bytes32[]","internalType":"bytes32[]"}],"outputs":[],"stateMutability":"nonpayable"},{"type":"event","name":"MessageProcessed","inputs":[{"name":"blockNumber","type":"uint256","indexed":true,"internalType":"uint256"},{"name":"messageHash","type":"bytes32","indexed":true,"internalType":"bytes32"},{"name":"messageNonce","type":"uint256","indexed":true,"internalType":"uint256"},{"name":"messageReceiver","type":"address","indexed":false,"internalType":"address"}],"anonymous":false},{"type":"error","name":"InvalidMerkleProof","inputs":[]},{"type":"error","name":"MerkleRootNotSet","inputs":[{"name":"blockNumber","type":"uint256","internalType":"uint256"}]},{"type":"error","name":"MessageAlreadyProcessed","inputs":[{"name":"messageNonce","type":"uint256","internalType":"uint256"}]},{"type":"error","name":"MessageNotProcessed","inputs":[]},{"type":"error","name":"RelayerEmergencyStop","inputs":[]}],"bytecode":{"object":"0x60a034606557601f61054538819003918201601f19168301916001600160401b03831184841017606957808492602094604052833981010312606557516001600160a01b03811681036065576080526040516104c7908161007e82396080518160ed0152f35b5f80fd5b634e487b7160e01b5f52604160045260245ffdfe6080806040526004361015610012575f80fd5b5f905f3560e01c90816393eb47e914610064575063bfe7edd714610034575f80fd5b346100615760203660031901126100615760ff604060209260043581528084522054166040519015158152f35b80fd5b9050346103045760a03660031901126103045760643560043567ffffffffffffffff821161030457816004019160806003198236030112610304576084359267ffffffffffffffff841161030457366023850112156103045783600401359167ffffffffffffffff8311610304573660248460051b87010111610304576318e9666960e21b86527f00000000000000000000000000000000000000000000000000000000000000006001600160a01b0316956020816004818a5afa9081156102f9575f91610380575b5061037157813595865f525f60205260ff60405f20541661035e57906020602494939260405195868092630aab8ba560e01b82528960048301525afa9384156102f9575f9461032a575b5083156103175761020d6024820135936044830195896064610198896103f1565b9501946101f16074896101ab898b610405565b809160405196879460208601998a5260408601526bffffffffffffffffffffffff199060601b1660608501528484013781015f838201520301601f1981018352826103bb565b5190205f5260205f209889926044359260248035930190610438565b15610308575f878152602081905260409020805460ff19166001179055610246906001600160a01b0361023f866103f1565b1692610405565b929091803b15610304575f928360648694604051978896879586936317a7ea2760e31b8552600485015260406024850152816044850152848401378181018301849052601f01601f191681010301925af180156102f9576102e3575b5060206102cf7f994c669cfd9c0453d42c933a11c002a34d12d85563aebe99ca525fffc45454f8926103f1565b6040516001600160a01b039091168152a480f35b6102f09195505f906103bb565b5f9360206102a2565b6040513d5f823e3d90fd5b5f80fd5b63582f497d60e11b5f5260045ffd5b846354e2ed2d60e11b5f5260045260245ffd5b9093506020813d602011610356575b81610346602093836103bb565b810103126103045751925f610177565b3d9150610339565b866338503e3360e21b5f5260045260245ffd5b63dfe54af360e01b5f5260045ffd5b90506020813d6020116103b3575b8161039b602093836103bb565b8101031261030457518015158103610304575f61012d565b3d915061038e565b90601f8019910116810190811067ffffffffffffffff8211176103dd57604052565b634e487b7160e01b5f52604160045260245ffd5b356001600160a01b03811681036103045790565b903590601e1981360301821215610304570180359067ffffffffffffffff82116103045760200191813603831361030457565b919495909293848110156104bc575f969092905b868810156104b257808860051b8601359060018087161480156104a6575b1561049157505f5260205260018060405f20945b811c965f1901811c01970196949261044c565b9091505f5260205260018060405f209461047e565b5087600187011461046a565b1495509350505050565b509450505050505f9056","linkReferences":{}},"methodIdentifiers":{"isProcessed(uint256)":"bfe7edd7","processMessage(uint256,uint256,uint256,(uint256,bytes32,address,bytes),bytes32[])":"93eb47e9"},"id":61}