{"abi":[{"type":"constructor","inputs":[],"stateMutability":"nonpayable"},{"type":"function","name":"DEFAULT_ADMIN_ROLE","inputs":[],"outputs":[{"name":"","type":"bytes32","internalType":"bytes32"}],"stateMutability":"view"},{"type":"function","name":"PAUSER_ROLE","inputs":[],"outputs":[{"name":"","type":"bytes32","internalType":"bytes32"}],"stateMutability":"view"},{"type":"function","name":"UPGRADE_INTERFACE_VERSION","inputs":[],"outputs":[{"name":"","type":"string","internalType":"string"}],"stateMutability":"view"},{"type":"function","name":"emergencyStop","inputs":[],"outputs":[{"name":"","type":"bool","internalType":"bool"}],"stateMutability":"view"},{"type":"function","name":"getBlockNumber","inputs":[{"name":"merkleRoot","type":"bytes32","internalType":"bytes32"}],"outputs":[{"name":"","type":"uint256","internalType":"uint256"}],"stateMutability":"view"},{"type":"function","name":"getMerkleRoot","inputs":[{"name":"blockNumber","type":"uint256","internalType":"uint256"}],"outputs":[{"name":"","type":"bytes32","internalType":"bytes32"}],"stateMutability":"view"},{"type":"function","name":"getRoleAdmin","inputs":[{"name":"role","type":"bytes32","internalType":"bytes32"}],"outputs":[{"name":"","type":"bytes32","internalType":"bytes32"}],"stateMutability":"view"},{"type":"function","name":"grantRole","inputs":[{"name":"role","type":"bytes32","internalType":"bytes32"},{"name":"account","type":"address","internalType":"address"}],"outputs":[],"stateMutability":"nonpayable"},{"type":"function","name":"hasRole","inputs":[{"name":"role","type":"bytes32","internalType":"bytes32"},{"name":"account","type":"address","internalType":"address"}],"outputs":[{"name":"","type":"bool","internalType":"bool"}],"stateMutability":"view"},{"type":"function","name":"initialize","inputs":[{"name":"governanceAdmin","type":"address","internalType":"contract IGovernance"},{"name":"governancePauser","type":"address","internalType":"contract IGovernance"},{"name":"verifier","type":"address","internalType":"contract IVerifier"}],"outputs":[],"stateMutability":"nonpayable"},{"type":"function","name":"isProcessed","inputs":[{"name":"messageNonce","type":"uint256","internalType":"uint256"}],"outputs":[{"name":"","type":"bool","internalType":"bool"}],"stateMutability":"view"},{"type":"function","name":"pause","inputs":[],"outputs":[],"stateMutability":"nonpayable"},{"type":"function","name":"paused","inputs":[],"outputs":[{"name":"","type":"bool","internalType":"bool"}],"stateMutability":"view"},{"type":"function","name":"processMessage","inputs":[{"name":"blockNumber","type":"uint256","internalType":"uint256"},{"name":"totalLeaves","type":"uint256","internalType":"uint256"},{"name":"leafIndex","type":"uint256","internalType":"uint256"},{"name":"message","type":"tuple","internalType":"struct VaraMessage","components":[{"name":"nonce","type":"uint256","internalType":"uint256"},{"name":"source","type":"bytes32","internalType":"bytes32"},{"name":"destination","type":"address","internalType":"address"},{"name":"payload","type":"bytes","internalType":"bytes"}]},{"name":"proof","type":"bytes32[]","internalType":"bytes32[]"}],"outputs":[],"stateMutability":"nonpayable"},{"type":"function","name":"proxiableUUID","inputs":[],"outputs":[{"name":"","type":"bytes32","internalType":"bytes32"}],"stateMutability":"view"},{"type":"function","name":"renounceRole","inputs":[{"name":"role","type":"bytes32","internalType":"bytes32"},{"name":"callerConfirmation","type":"address","internalType":"address"}],"outputs":[],"stateMutability":"nonpayable"},{"type":"function","name":"revokeRole","inputs":[{"name":"role","type":"bytes32","internalType":"bytes32"},{"name":"account","type":"address","internalType":"address"}],"outputs":[],"stateMutability":"nonpayable"},{"type":"function","name":"submitMerkleRoot","inputs":[{"name":"blockNumber","type":"uint256","internalType":"uint256"},{"name":"merkleRoot","type":"bytes32","internalType":"bytes32"},{"name":"proof","type":"bytes","internalType":"bytes"}],"outputs":[],"stateMutability":"nonpayable"},{"type":"function","name":"supportsInterface","inputs":[{"name":"interfaceId","type":"bytes4","internalType":"bytes4"}],"outputs":[{"name":"","type":"bool","internalType":"bool"}],"stateMutability":"view"},{"type":"function","name":"unpause","inputs":[],"outputs":[],"stateMutability":"nonpayable"},{"type":"function","name":"upgradeToAndCall","inputs":[{"name":"newImplementation","type":"address","internalType":"address"},{"name":"data","type":"bytes","internalType":"bytes"}],"outputs":[],"stateMutability":"payable"},{"type":"event","name":"EmergencyStopSet","inputs":[],"anonymous":false},{"type":"event","name":"Initialized","inputs":[{"name":"version","type":"uint64","indexed":false,"internalType":"uint64"}],"anonymous":false},{"type":"event","name":"MerkleRoot","inputs":[{"name":"blockNumber","type":"uint256","indexed":true,"internalType":"uint256"},{"name":"merkleRoot","type":"bytes32","indexed":true,"internalType":"bytes32"}],"anonymous":false},{"type":"event","name":"MessageProcessed","inputs":[{"name":"blockNumber","type":"uint256","indexed":true,"internalType":"uint256"},{"name":"messageHash","type":"bytes32","indexed":true,"internalType":"bytes32"},{"name":"messageNonce","type":"uint256","indexed":true,"internalType":"uint256"},{"name":"messageDestination","type":"address","indexed":false,"internalType":"address"}],"anonymous":false},{"type":"event","name":"Paused","inputs":[{"name":"account","type":"address","indexed":false,"internalType":"address"}],"anonymous":false},{"type":"event","name":"RoleAdminChanged","inputs":[{"name":"role","type":"bytes32","indexed":true,"internalType":"bytes32"},{"name":"previousAdminRole","type":"bytes32","indexed":true,"internalType":"bytes32"},{"name":"newAdminRole","type":"bytes32","indexed":true,"internalType":"bytes32"}],"anonymous":false},{"type":"event","name":"RoleGranted","inputs":[{"name":"role","type":"bytes32","indexed":true,"internalType":"bytes32"},{"name":"account","type":"address","indexed":true,"internalType":"address"},{"name":"sender","type":"address","indexed":true,"internalType":"address"}],"anonymous":false},{"type":"event","name":"RoleRevoked","inputs":[{"name":"role","type":"bytes32","indexed":true,"internalType":"bytes32"},{"name":"account","type":"address","indexed":true,"internalType":"address"},{"name":"sender","type":"address","indexed":true,"internalType":"address"}],"anonymous":false},{"type":"event","name":"Unpaused","inputs":[{"name":"account","type":"address","indexed":false,"internalType":"address"}],"anonymous":false},{"type":"event","name":"Upgraded","inputs":[{"name":"implementation","type":"address","indexed":true,"internalType":"address"}],"anonymous":false},{"type":"error","name":"AccessControlBadConfirmation","inputs":[]},{"type":"error","name":"AccessControlUnauthorizedAccount","inputs":[{"name":"account","type":"address","internalType":"address"},{"name":"neededRole","type":"bytes32","internalType":"bytes32"}]},{"type":"error","name":"AddressEmptyCode","inputs":[{"name":"target","type":"address","internalType":"address"}]},{"type":"error","name":"ERC1967InvalidImplementation","inputs":[{"name":"implementation","type":"address","internalType":"address"}]},{"type":"error","name":"ERC1967NonPayable","inputs":[]},{"type":"error","name":"EmergencyStop","inputs":[]},{"type":"error","name":"EnforcedPause","inputs":[]},{"type":"error","name":"ExpectedPause","inputs":[]},{"type":"error","name":"FailedCall","inputs":[]},{"type":"error","name":"InvalidInitialization","inputs":[]},{"type":"error","name":"InvalidMerkleProof","inputs":[]},{"type":"error","name":"InvalidPlonkProof","inputs":[]},{"type":"error","name":"MerkleRootNotSet","inputs":[{"name":"blockNumber","type":"uint256","internalType":"uint256"}]},{"type":"error","name":"MessageAlreadyProcessed","inputs":[{"name":"messageNonce","type":"uint256","internalType":"uint256"}]},{"type":"error","name":"NotInitializing","inputs":[]},{"type":"error","name":"UUPSUnauthorizedCallContext","inputs":[]},{"type":"error","name":"UUPSUnsupportedProxiableUUID","inputs":[{"name":"slot","type":"bytes32","internalType":"bytes32"}]}],"bytecode":{"object":"0x60a080604052346100c257306080525f5160206116455f395f51905f525460ff8160401c166100b3576002600160401b03196001600160401b03821601610060575b60405161157e90816100c78239608051818181610b100152610be00152f35b6001600160401b0319166001600160401b039081175f5160206116455f395f51905f525581527fc7f505b2f371ae2175ee4913f4499e1f2633a7b5936321eed1cdaeb6115181d290602090a15f80610041565b63f92ee8a960e01b5f5260045ffd5b5f80fdfe6080806040526004361015610012575f80fd5b5f905f3560e01c90816301ffc9a714610f7b575080630aab8ba514610f51578063248a9ca314610f125780632f2ff15d14610ec857806336568abe14610e845780633f4ba83a14610e065780634737814514610ddc5780634f1ef28614610b6457806352d1902d14610afe5780635c975abb14610ad057806363a599a414610aab5780638456cb5914610a3957806391d14854146109e457806393eb47e91461066b578063a217fddf1461064f578063ad3cb1cc146105f3578063bfe7edd7146105c4578063c0c53b8b146103ed578063cca66a9d14610177578063d547741f146101235763e63ab1e914610105575f80fd5b34610120578060031936011261012057602060405160018152f35b80fd5b503461012057604036600319011261012057610173600435610143610fce565b9061016e610169825f525f51602061151e5f395f51905f52602052600160405f20015490565b611103565b611349565b5080f35b50346101205760603660031901126101205760243560043560443567ffffffffffffffff811161039657366023820112156103965780600401359067ffffffffffffffff82116103e95736602483830101116103e9576002549060ff8260a01c166103da576040516101ea606082610ffa565b60028152602081019160403684378151156103c6578660401c83528151600110156103c6579391906040810163ffffffff60601b8760601b1667ffffffffffffffff60801b8960801b161790526020610260604051968795633054963960e01b8752604060048801526024604488019201611093565b848103600319016024860152915180835291019190885b8181106103ad575060209492849003928492506001600160a01b031690505afa9081156103a2578491610363575b50156103545780835260036020526040832054828115159182610349575b5050156103065750506002805460ff60a01b1916600160a01b1790557fae1fc94fd692bf240be219cead4601265a701df263b7045071227f1ba37f47508180a180f35b808352600360205281604084205581835260046020528060408420557f48211a20c285b6b077b7917b8bb118eaa92efdfb8fa2e3b114ffa253e0b665ae8380a380f35b14159050825f6102c3565b636859a69960e11b8352600483fd5b90506020813d60201161039a575b8161037e60209383610ffa565b8101031261039657518015158103610396575f6102a5565b8380fd5b3d9150610371565b6040513d86823e3d90fd5b8251845286945060209384019390920191600101610277565b634e487b7160e01b88526032600452602488fd5b6313a5ef3f60e21b8652600486fd5b8480fd5b503461012057606036600319011261012057610407610fe4565b61040f610fce565b6044356001600160a01b0381169190829003610396575f51602061155e5f395f51905f52549260ff8460401c16159367ffffffffffffffff8116801590816105bc575b60011490816105b2575b1590816105a9575b5061059a5767ffffffffffffffff1981166001175f51602061155e5f395f51905f52558461056e575b50610496611474565b61049e611474565b6104a6611474565b6001600160a01b0316906104b982611149565b506104c3826111f8565b506001600160a01b0316906104d7826111f8565b506001600160601b0360a01b8554161784556001600160601b0360a01b60015416176001556001600160601b0360a01b60025416176002556105165780f35b68ff0000000000000000195f51602061155e5f395f51905f5254165f51602061155e5f395f51905f52557fc7f505b2f371ae2175ee4913f4499e1f2633a7b5936321eed1cdaeb6115181d2602060405160018152a180f35b68ffffffffffffffffff191668010000000000000001175f51602061155e5f395f51905f52555f61048d565b63f92ee8a960e01b8652600486fd5b9050155f610464565b303b15915061045c565b869150610452565b50346101205760203660031901126101205760ff60406020926004358152600584522054166040519015158152f35b5034610120578060031936011261012057604080516106128282610ffa565b6005815260208101640352e302e360dc1b81528251938492602084525180928160208601528585015e828201840152601f01601f19168101030190f35b5034610120578060031936011261012057602090604051908152f35b50346108e35760a03660031901126108e35760643560043567ffffffffffffffff82116108e3578160040190608060031984360301126108e3576084359167ffffffffffffffff83116108e357366023840112156108e35782600401359067ffffffffffffffff82116108e3573660248360051b860101116108e3575f54604051635aa6e67560e01b8152602487013591602090829060049082906001600160a01b03165afa9081156108d8575f916109b2575b5081148015610943575b60ff5f51602061153e5f395f51905f525416908161093a575b5061092b5760ff60025460a01c1661091c57813595865f52600560205260ff60405f20541661090957845f52600360205260405f20549384156108f6576108009060448301958960646107948961104c565b9501946107ea60746107a6888b611060565b80604095929551958693602085019889528d60408601526001600160601b03199060601b1660608501528484013781015f838201520301601f198101835282610ffa565b51902098899260443592602480359301906113e5565b156108e7575f878152600560205260409020805460ff19166001179055610839906001600160a01b036108328661104c565b1693611060565b92803b156108e357610872935f809460405196879586948593630302ac5d60e41b85526004850152604060248501526044840191611093565b03925af180156108d8576108c2575b5060206108ae7f994c669cfd9c0453d42c933a11c002a34d12d85563aebe99ca525fffc45454f89261104c565b6040516001600160a01b039091168152a480f35b6108cf9195505f90610ffa565b5f936020610881565b6040513d5f823e3d90fd5b5f80fd5b63582f497d60e11b5f5260045ffd5b856354e2ed2d60e11b5f5260045260245ffd5b866338503e3360e21b5f5260045260245ffd5b6313a5ef3f60e21b5f5260045ffd5b63d93c066560e01b5f5260045ffd5b9050155f610742565b50600154604051635aa6e67560e01b815290602090829060049082906001600160a01b03165afa9081156108d8575f91610980575b508114610729565b90506020813d6020116109aa575b8161099b60209383610ffa565b810103126108e357515f610978565b3d915061098e565b90506020813d6020116109dc575b816109cd60209383610ffa565b810103126108e357515f61071f565b3d91506109c0565b346108e35760403660031901126108e3576109fd610fce565b6004355f525f51602061151e5f395f51905f5260205260405f209060018060a01b03165f52602052602060ff60405f2054166040519015158152f35b346108e3575f3660031901126108e357610a516110b3565b5f51602061153e5f395f51905f525460ff811661092b5760019060ff1916175f51602061153e5f395f51905f52557f62e78cea01bee320cd4e420270b5ea74000d11b0c9f74754ebdbfc544b05a2586020604051338152a1005b346108e3575f3660031901126108e357602060ff60025460a01c166040519015158152f35b346108e3575f3660031901126108e357602060ff5f51602061153e5f395f51905f5254166040519015158152f35b346108e3575f3660031901126108e3577f00000000000000000000000000000000000000000000000000000000000000006001600160a01b03163003610b555760206040515f5160206114fe5f395f51905f528152f35b63703e46dd60e11b5f5260045ffd5b60403660031901126108e357610b78610fe4565b6024359067ffffffffffffffff82116108e357366023830112156108e357816004013590610ba582611030565b91610bb36040519384610ffa565b808352602083019336602483830101116108e357815f926024602093018737840101526001600160a01b037f000000000000000000000000000000000000000000000000000000000000000016308114908115610dba575b50610b5557335f9081527fb7db2dd08fcb62d0c9e08c51941cae53c267786a0b75803fb7960902fc8ef97d602052604090205460ff1615610da3576040516352d1902d60e01b81526001600160a01b0382169390602081600481885afa5f9181610d6f575b50610c885784634c9c8ce360e01b5f5260045260245ffd5b805f5160206114fe5f395f51905f52869203610d5d5750823b15610d4b575f5160206114fe5f395f51905f5280546001600160a01b031916821790557fbc7cd75a20ee27fd9adebab32041f755214dbc6bffa90cc0225b39da2e5c2d3b5f80a2825115610d32575f8091610d28945190845af43d15610d2a573d91610d0c83611030565b92610d1a6040519485610ffa565b83523d5f602085013e61149f565b005b60609161149f565b50505034610d3c57005b63b398979f60e01b5f5260045ffd5b634c9c8ce360e01b5f5260045260245ffd5b632a87526960e21b5f5260045260245ffd5b9091506020813d602011610d9b575b81610d8b60209383610ffa565b810103126108e357519086610c70565b3d9150610d7e565b63e2517d3f60e01b5f52336004525f60245260445ffd5b5f5160206114fe5f395f51905f52546001600160a01b03161415905084610c0b565b346108e35760203660031901126108e3576004355f526004602052602060405f2054604051908152f35b346108e3575f3660031901126108e357610e1e6110b3565b5f51602061153e5f395f51905f525460ff811615610e755760ff19165f51602061153e5f395f51905f52557f5db9ee0a495bf2e6ff9c91a7834c1ba4fdd244a5e8aa4e537bd38aeae4b073aa6020604051338152a1005b638dfc202b60e01b5f5260045ffd5b346108e35760403660031901126108e357610e9d610fce565b336001600160a01b03821603610eb957610d2890600435611349565b63334bd91960e11b5f5260045ffd5b346108e35760403660031901126108e357610d28600435610ee7610fce565b90610f0d610169825f525f51602061151e5f395f51905f52602052600160405f20015490565b6112a5565b346108e35760203660031901126108e3576020610f496004355f525f51602061151e5f395f51905f52602052600160405f20015490565b604051908152f35b346108e35760203660031901126108e3576004355f526003602052602060405f2054604051908152f35b346108e35760203660031901126108e3576004359063ffffffff60e01b82168092036108e357602091637965db0b60e01b8114908115610fbd575b5015158152f35b6301ffc9a760e01b14905083610fb6565b602435906001600160a01b03821682036108e357565b600435906001600160a01b03821682036108e357565b90601f8019910116810190811067ffffffffffffffff82111761101c57604052565b634e487b7160e01b5f52604160045260245ffd5b67ffffffffffffffff811161101c57601f01601f191660200190565b356001600160a01b03811681036108e35790565b903590601e19813603018212156108e3570180359067ffffffffffffffff82116108e3576020019181360383136108e357565b908060209392818452848401375f828201840152601f01601f1916010190565b335f9081527f2222dce04fae1e25cd76e9391151ad9e0187ef92144ac6ce9e4e09f2c453b751602052604090205460ff16156110eb57565b63e2517d3f60e01b5f5233600452600160245260445ffd5b5f8181525f51602061151e5f395f51905f526020908152604080832033845290915290205460ff16156111335750565b63e2517d3f60e01b5f523360045260245260445ffd5b6001600160a01b0381165f9081527fb7db2dd08fcb62d0c9e08c51941cae53c267786a0b75803fb7960902fc8ef97d602052604090205460ff166111f3576001600160a01b03165f8181527fb7db2dd08fcb62d0c9e08c51941cae53c267786a0b75803fb7960902fc8ef97d60205260408120805460ff191660011790553391907f2f8788117e7eff1d82e926ec794901d17c78024a50270940304540a733656f0d8180a4600190565b505f90565b6001600160a01b0381165f9081527f2222dce04fae1e25cd76e9391151ad9e0187ef92144ac6ce9e4e09f2c453b751602052604090205460ff166111f3576001600160a01b03165f8181527f2222dce04fae1e25cd76e9391151ad9e0187ef92144ac6ce9e4e09f2c453b75160205260408120805460ff191660019081179091553392917f2f8788117e7eff1d82e926ec794901d17c78024a50270940304540a733656f0d9080a4600190565b5f8181525f51602061151e5f395f51905f52602090815260408083206001600160a01b038616845290915290205460ff16611343575f8181525f51602061151e5f395f51905f52602090815260408083206001600160a01b0395909516808452949091528120805460ff19166001179055339291907f2f8788117e7eff1d82e926ec794901d17c78024a50270940304540a733656f0d9080a4600190565b50505f90565b5f8181525f51602061151e5f395f51905f52602090815260408083206001600160a01b038616845290915290205460ff1615611343575f8181525f51602061151e5f395f51905f52602090815260408083206001600160a01b0395909516808452949091528120805460ff19169055339291907ff6391f5c32d9c69d2a47ea670b442974b53935d1edc7fd64eb21e047a839171b9080a4600190565b91949590929384811015611469575f969092905b8688101561145f57808860051b860135906001808716148015611453575b1561143e57505f5260205260018060405f20945b811c965f1901811c0197019694926113f9565b9091505f5260205260018060405f209461142b565b50876001870114611417565b1495509350505050565b509450505050505f90565b60ff5f51602061155e5f395f51905f525460401c161561149057565b631afcd79f60e31b5f5260045ffd5b906114c357508051156114b457805190602001fd5b63d6bda27560e01b5f5260045ffd5b815115806114f4575b6114d4575090565b639996b31560e01b5f9081526001600160a01b0391909116600452602490fd5b50803b156114cc56fe360894a13ba1a3210667c828492db98dca3e2076cc3735a920a3ca505d382bbc02dd7bc7dec4dceedda775e58dd541e08a116c6c53815c0bd028192f7b626800cd5ed15c6e187e77e9aee88184c21f4f2182ab5827cb3b7e07fbedcd63f03300f0c57e16840df040f15088dc2f81fe391c3923bec73e23a9662efc9c229c6a00f0c57e16840df040f15088dc2f81fe391c3923bec73e23a9662efc9c229c6a00","linkReferences":{}},"methodIdentifiers":{"DEFAULT_ADMIN_ROLE()":"a217fddf","PAUSER_ROLE()":"e63ab1e9","UPGRADE_INTERFACE_VERSION()":"ad3cb1cc","emergencyStop()":"63a599a4","getBlockNumber(bytes32)":"47378145","getMerkleRoot(uint256)":"0aab8ba5","getRoleAdmin(bytes32)":"248a9ca3","grantRole(bytes32,address)":"2f2ff15d","hasRole(bytes32,address)":"91d14854","initialize(address,address,address)":"c0c53b8b","isProcessed(uint256)":"bfe7edd7","pause()":"8456cb59","paused()":"5c975abb","processMessage(uint256,uint256,uint256,(uint256,bytes32,address,bytes),bytes32[])":"93eb47e9","proxiableUUID()":"52d1902d","renounceRole(bytes32,address)":"36568abe","revokeRole(bytes32,address)":"d547741f","submitMerkleRoot(uint256,bytes32,bytes)":"cca66a9d","supportsInterface(bytes4)":"01ffc9a7","unpause()":"3f4ba83a","upgradeToAndCall(address,bytes)":"4f1ef286"},"storageLayout":{"storage":[{"astId":55596,"contract":"src/MessageQueue.sol:MessageQueue","label":"_governanceAdmin","offset":0,"slot":"0","type":"t_contract(IGovernance)56843"},{"astId":55599,"contract":"src/MessageQueue.sol:MessageQueue","label":"_governancePauser","offset":0,"slot":"1","type":"t_contract(IGovernance)56843"},{"astId":55602,"contract":"src/MessageQueue.sol:MessageQueue","label":"_verifier","offset":0,"slot":"2","type":"t_contract(IVerifier)57179"},{"astId":55604,"contract":"src/MessageQueue.sol:MessageQueue","label":"_emergencyStop","offset":20,"slot":"2","type":"t_bool"},{"astId":55608,"contract":"src/MessageQueue.sol:MessageQueue","label":"_blockNumbers","offset":0,"slot":"3","type":"t_mapping(t_uint256,t_bytes32)"},{"astId":55612,"contract":"src/MessageQueue.sol:MessageQueue","label":"_merkleRoots","offset":0,"slot":"4","type":"t_mapping(t_bytes32,t_uint256)"},{"astId":55616,"contract":"src/MessageQueue.sol:MessageQueue","label":"_processedMessages","offset":0,"slot":"5","type":"t_mapping(t_uint256,t_bool)"}],"types":{"t_bool":{"encoding":"inplace","label":"bool","numberOfBytes":"1"},"t_bytes32":{"encoding":"inplace","label":"bytes32","numberOfBytes":"32"},"t_contract(IGovernance)56843":{"encoding":"inplace","label":"contract IGovernance","numberOfBytes":"20"},"t_contract(IVerifier)57179":{"encoding":"inplace","label":"contract IVerifier","numberOfBytes":"20"},"t_mapping(t_bytes32,t_uint256)":{"encoding":"mapping","key":"t_bytes32","label":"mapping(bytes32 => uint256)","numberOfBytes":"32","value":"t_uint256"},"t_mapping(t_uint256,t_bool)":{"encoding":"mapping","key":"t_uint256","label":"mapping(uint256 => bool)","numberOfBytes":"32","value":"t_bool"},"t_mapping(t_uint256,t_bytes32)":{"encoding":"mapping","key":"t_uint256","label":"mapping(uint256 => bytes32)","numberOfBytes":"32","value":"t_bytes32"},"t_uint256":{"encoding":"inplace","label":"uint256","numberOfBytes":"32"}}},"id":82}