{"abi":[{"type":"constructor","inputs":[],"stateMutability":"nonpayable"},{"type":"function","name":"CHALLENGE_ROOT_DELAY","inputs":[],"outputs":[{"name":"","type":"uint256","internalType":"uint256"}],"stateMutability":"view"},{"type":"function","name":"DEFAULT_ADMIN_ROLE","inputs":[],"outputs":[{"name":"","type":"bytes32","internalType":"bytes32"}],"stateMutability":"view"},{"type":"function","name":"MAX_BLOCK_DISTANCE","inputs":[],"outputs":[{"name":"","type":"uint256","internalType":"uint256"}],"stateMutability":"view"},{"type":"function","name":"PAUSER_ROLE","inputs":[],"outputs":[{"name":"","type":"bytes32","internalType":"bytes32"}],"stateMutability":"view"},{"type":"function","name":"PROCESS_ADMIN_MESSAGE_DELAY","inputs":[],"outputs":[{"name":"","type":"uint256","internalType":"uint256"}],"stateMutability":"view"},{"type":"function","name":"PROCESS_PAUSER_MESSAGE_DELAY","inputs":[],"outputs":[{"name":"","type":"uint256","internalType":"uint256"}],"stateMutability":"view"},{"type":"function","name":"PROCESS_USER_MESSAGE_DELAY","inputs":[],"outputs":[{"name":"","type":"uint256","internalType":"uint256"}],"stateMutability":"view"},{"type":"function","name":"UPGRADE_INTERFACE_VERSION","inputs":[],"outputs":[{"name":"","type":"string","internalType":"string"}],"stateMutability":"view"},{"type":"function","name":"allowMessageProcessing","inputs":[],"outputs":[],"stateMutability":"nonpayable"},{"type":"function","name":"challengeRoot","inputs":[],"outputs":[],"stateMutability":"nonpayable"},{"type":"function","name":"disableChallengeRoot","inputs":[],"outputs":[],"stateMutability":"nonpayable"},{"type":"function","name":"emergencyStopAdmin","inputs":[],"outputs":[{"name":"","type":"address","internalType":"address"}],"stateMutability":"view"},{"type":"function","name":"emergencyStopObservers","inputs":[],"outputs":[{"name":"","type":"address[]","internalType":"address[]"}],"stateMutability":"view"},{"type":"function","name":"genesisBlock","inputs":[],"outputs":[{"name":"","type":"uint256","internalType":"uint256"}],"stateMutability":"view"},{"type":"function","name":"getMerkleRoot","inputs":[{"name":"blockNumber","type":"uint256","internalType":"uint256"}],"outputs":[{"name":"","type":"bytes32","internalType":"bytes32"}],"stateMutability":"view"},{"type":"function","name":"getMerkleRootTimestamp","inputs":[{"name":"merkleRoot","type":"bytes32","internalType":"bytes32"}],"outputs":[{"name":"","type":"uint256","internalType":"uint256"}],"stateMutability":"view"},{"type":"function","name":"getRoleAdmin","inputs":[{"name":"role","type":"bytes32","internalType":"bytes32"}],"outputs":[{"name":"","type":"bytes32","internalType":"bytes32"}],"stateMutability":"view"},{"type":"function","name":"governanceAdmin","inputs":[],"outputs":[{"name":"","type":"address","internalType":"address"}],"stateMutability":"view"},{"type":"function","name":"governancePauser","inputs":[],"outputs":[{"name":"","type":"address","internalType":"address"}],"stateMutability":"view"},{"type":"function","name":"grantRole","inputs":[{"name":"role","type":"bytes32","internalType":"bytes32"},{"name":"account","type":"address","internalType":"address"}],"outputs":[],"stateMutability":"nonpayable"},{"type":"function","name":"hasRole","inputs":[{"name":"role","type":"bytes32","internalType":"bytes32"},{"name":"account","type":"address","internalType":"address"}],"outputs":[{"name":"","type":"bool","internalType":"bool"}],"stateMutability":"view"},{"type":"function","name":"initialize","inputs":[{"name":"governanceAdmin_","type":"address","internalType":"contract IGovernance"},{"name":"governancePauser_","type":"address","internalType":"contract IGovernance"},{"name":"emergencyStopAdmin_","type":"address","internalType":"address"},{"name":"emergencyStopObservers_","type":"address[]","internalType":"address[]"},{"name":"verifier_","type":"address","internalType":"contract IVerifier"}],"outputs":[],"stateMutability":"nonpayable"},{"type":"function","name":"isChallengingRoot","inputs":[],"outputs":[{"name":"","type":"bool","internalType":"bool"}],"stateMutability":"view"},{"type":"function","name":"isEmergencyStopped","inputs":[],"outputs":[{"name":"","type":"bool","internalType":"bool"}],"stateMutability":"view"},{"type":"function","name":"isProcessed","inputs":[{"name":"messageNonce","type":"uint256","internalType":"uint256"}],"outputs":[{"name":"","type":"bool","internalType":"bool"}],"stateMutability":"view"},{"type":"function","name":"maxBlockNumber","inputs":[],"outputs":[{"name":"","type":"uint256","internalType":"uint256"}],"stateMutability":"view"},{"type":"function","name":"pause","inputs":[],"outputs":[],"stateMutability":"nonpayable"},{"type":"function","name":"paused","inputs":[],"outputs":[{"name":"","type":"bool","internalType":"bool"}],"stateMutability":"view"},{"type":"function","name":"processMessage","inputs":[{"name":"blockNumber","type":"uint256","internalType":"uint256"},{"name":"totalLeaves","type":"uint256","internalType":"uint256"},{"name":"leafIndex","type":"uint256","internalType":"uint256"},{"name":"message","type":"tuple","internalType":"struct VaraMessage","components":[{"name":"nonce","type":"uint256","internalType":"uint256"},{"name":"source","type":"bytes32","internalType":"bytes32"},{"name":"destination","type":"address","internalType":"address"},{"name":"payload","type":"bytes","internalType":"bytes"}]},{"name":"proof","type":"bytes32[]","internalType":"bytes32[]"}],"outputs":[],"stateMutability":"nonpayable"},{"type":"function","name":"proxiableUUID","inputs":[],"outputs":[{"name":"","type":"bytes32","internalType":"bytes32"}],"stateMutability":"view"},{"type":"function","name":"reinitialize","inputs":[],"outputs":[],"stateMutability":"nonpayable"},{"type":"function","name":"renounceRole","inputs":[{"name":"role","type":"bytes32","internalType":"bytes32"},{"name":"callerConfirmation","type":"address","internalType":"address"}],"outputs":[],"stateMutability":"nonpayable"},{"type":"function","name":"revokeRole","inputs":[{"name":"role","type":"bytes32","internalType":"bytes32"},{"name":"account","type":"address","internalType":"address"}],"outputs":[],"stateMutability":"nonpayable"},{"type":"function","name":"submitMerkleRoot","inputs":[{"name":"blockNumber","type":"uint256","internalType":"uint256"},{"name":"merkleRoot","type":"bytes32","internalType":"bytes32"},{"name":"proof","type":"bytes","internalType":"bytes"}],"outputs":[],"stateMutability":"nonpayable"},{"type":"function","name":"supportsInterface","inputs":[{"name":"interfaceId","type":"bytes4","internalType":"bytes4"}],"outputs":[{"name":"","type":"bool","internalType":"bool"}],"stateMutability":"view"},{"type":"function","name":"unpause","inputs":[],"outputs":[],"stateMutability":"nonpayable"},{"type":"function","name":"upgradeToAndCall","inputs":[{"name":"newImplementation","type":"address","internalType":"address"},{"name":"data","type":"bytes","internalType":"bytes"}],"outputs":[],"stateMutability":"payable"},{"type":"function","name":"verifier","inputs":[],"outputs":[{"name":"","type":"address","internalType":"address"}],"stateMutability":"view"},{"type":"event","name":"ChallengeRootDisabled","inputs":[],"anonymous":false},{"type":"event","name":"ChallengeRootEnabled","inputs":[{"name":"untilTimestamp","type":"uint256","indexed":false,"internalType":"uint256"}],"anonymous":false},{"type":"event","name":"EmergencyStopDisabled","inputs":[],"anonymous":false},{"type":"event","name":"EmergencyStopEnabled","inputs":[],"anonymous":false},{"type":"event","name":"Initialized","inputs":[{"name":"version","type":"uint64","indexed":false,"internalType":"uint64"}],"anonymous":false},{"type":"event","name":"MerkleRoot","inputs":[{"name":"blockNumber","type":"uint256","indexed":false,"internalType":"uint256"},{"name":"merkleRoot","type":"bytes32","indexed":false,"internalType":"bytes32"}],"anonymous":false},{"type":"event","name":"MessageProcessed","inputs":[{"name":"blockNumber","type":"uint256","indexed":false,"internalType":"uint256"},{"name":"messageHash","type":"bytes32","indexed":false,"internalType":"bytes32"},{"name":"messageNonce","type":"uint256","indexed":false,"internalType":"uint256"},{"name":"messageDestination","type":"address","indexed":false,"internalType":"address"}],"anonymous":false},{"type":"event","name":"MessageProcessingAllowed","inputs":[],"anonymous":false},{"type":"event","name":"Paused","inputs":[{"name":"account","type":"address","indexed":false,"internalType":"address"}],"anonymous":false},{"type":"event","name":"RoleAdminChanged","inputs":[{"name":"role","type":"bytes32","indexed":true,"internalType":"bytes32"},{"name":"previousAdminRole","type":"bytes32","indexed":true,"internalType":"bytes32"},{"name":"newAdminRole","type":"bytes32","indexed":true,"internalType":"bytes32"}],"anonymous":false},{"type":"event","name":"RoleGranted","inputs":[{"name":"role","type":"bytes32","indexed":true,"internalType":"bytes32"},{"name":"account","type":"address","indexed":true,"internalType":"address"},{"name":"sender","type":"address","indexed":true,"internalType":"address"}],"anonymous":false},{"type":"event","name":"RoleRevoked","inputs":[{"name":"role","type":"bytes32","indexed":true,"internalType":"bytes32"},{"name":"account","type":"address","indexed":true,"internalType":"address"},{"name":"sender","type":"address","indexed":true,"internalType":"address"}],"anonymous":false},{"type":"event","name":"Unpaused","inputs":[{"name":"account","type":"address","indexed":false,"internalType":"address"}],"anonymous":false},{"type":"event","name":"Upgraded","inputs":[{"name":"implementation","type":"address","indexed":true,"internalType":"address"}],"anonymous":false},{"type":"error","name":"AccessControlBadConfirmation","inputs":[]},{"type":"error","name":"AccessControlUnauthorizedAccount","inputs":[{"name":"account","type":"address","internalType":"address"},{"name":"neededRole","type":"bytes32","internalType":"bytes32"}]},{"type":"error","name":"AddressEmptyCode","inputs":[{"name":"target","type":"address","internalType":"address"}]},{"type":"error","name":"BlockNumberBeforeGenesis","inputs":[{"name":"blockNumber","type":"uint256","internalType":"uint256"},{"name":"genesisBlock","type":"uint256","internalType":"uint256"}]},{"type":"error","name":"BlockNumberTooFar","inputs":[{"name":"blockNumber","type":"uint256","internalType":"uint256"},{"name":"maxBlockNumber","type":"uint256","internalType":"uint256"}]},{"type":"error","name":"ChallengeRoot","inputs":[]},{"type":"error","name":"ChallengeRootNotEnabled","inputs":[]},{"type":"error","name":"ERC1967InvalidImplementation","inputs":[{"name":"implementation","type":"address","internalType":"address"}]},{"type":"error","name":"ERC1967NonPayable","inputs":[]},{"type":"error","name":"EmergencyStop","inputs":[]},{"type":"error","name":"EmergencyStopNotEnabled","inputs":[]},{"type":"error","name":"EnforcedPause","inputs":[]},{"type":"error","name":"ExpectedPause","inputs":[]},{"type":"error","name":"FailedCall","inputs":[]},{"type":"error","name":"InvalidInitialization","inputs":[]},{"type":"error","name":"InvalidMerkleProof","inputs":[]},{"type":"error","name":"InvalidPlonkProof","inputs":[]},{"type":"error","name":"MerkleRootAlreadySet","inputs":[{"name":"blockNumber","type":"uint256","internalType":"uint256"}]},{"type":"error","name":"MerkleRootDelayNotPassed","inputs":[]},{"type":"error","name":"MerkleRootNotFound","inputs":[{"name":"blockNumber","type":"uint256","internalType":"uint256"}]},{"type":"error","name":"MessageAlreadyProcessed","inputs":[{"name":"messageNonce","type":"uint256","internalType":"uint256"}]},{"type":"error","name":"NotEmergencyStopAdmin","inputs":[]},{"type":"error","name":"NotEmergencyStopObserver","inputs":[]},{"type":"error","name":"NotInitializing","inputs":[]},{"type":"error","name":"UUPSUnauthorizedCallContext","inputs":[]},{"type":"error","name":"UUPSUnsupportedProxiableUUID","inputs":[{"name":"slot","type":"bytes32","internalType":"bytes32"}]}],"bytecode":{"object":"0x60a080604052346100c257306080525f5160206120d75f395f51905f525460ff8160401c166100b3576002600160401b03196001600160401b03821601610060575b60405161201090816100c78239608051818181611377015261146d0152f35b6001600160401b0319166001600160401b039081175f5160206120d75f395f51905f525581527fc7f505b2f371ae2175ee4913f4499e1f2633a7b5936321eed1cdaeb6115181d290602090a15f80610041565b63f92ee8a960e01b5f5260045ffd5b5f80fdfe60806040526004361015610011575f80fd5b5f5f3560e01c8062490745146118f357806258f6b8146118cc57806301ffc9a7146118765780630aab8ba51461184c5780630f926c02146117d557806320191654146117b9578063248a9ca31461177a5780632b7ac3f3146117525780632f2ff15d1461170857806336568abe146116c45780633f4ba83a146116465780634610d3aa1461161c5780634cdc9c63146115ff5780634f1ef286146113e757806350b0952b146113cb57806352d1902d1461136557806352d190f3146113415780635c975abb146113135780636c2eb3501461108e57806376afc14f14610fcf5780638456cb5914610f5d578063867b827814610a2957806387e97e8c14610eee57806391d1485414610e9957806393eb47e914610a2e578063a181333c14610a29578063a217fddf14610a0d578063a912fd25146109ef578063ad3cb1cc14610993578063b13f222c1461096a578063bfe7edd71461093b578063c81eb79714610912578063cca66a9d14610571578063ced1098b14610553578063d547741f146104ff578063e3b1a2b3146101fb578063e63ab1e9146101df5763fddd4837146101ba575f80fd5b346101dc57806003193601126101dc57602060ff600754166040519015158152f35b80fd5b50346101dc57806003193601126101dc57602060405160018152f35b50346101dc5760a03660031901126101dc57610215611978565b9061021e611962565b906044359260018060a01b0384168094036104fb57606435936001600160401b0385116104f757366023860112156104f7578460040135946001600160401b0386116104e3578560051b90602082019661027b604051988961198e565b875260246020880192820101903682116104df57602401915b8183106104bb575050506084356001600160a01b03811694908590036104b7575f516020611ff05f395f51905f5254926001600160401b0360ff8560401c16159416801590816104af575b60011490816104a5575b15908161049c575b5061048d578360016001600160401b03195f516020611ff05f395f51905f525416175f516020611ff05f395f51905f525561045d575b61032f611e56565b610337611e56565b6001600160a01b03169061034a82611b2b565b5061035482611bda565b506001600160a01b03169061036882611bda565b506001600160601b0360a01b8554161784556001600160601b0360a01b60015416176001556001600160601b0360a01b6002541617600255815b84518110156103f05784518110156103dc57600581901b850160200151600191906103d5906001600160a01b0316611e81565b50016103a2565b634e487b7160e01b83526032600452602483fd5b50600580546001600160a01b0319168417905561040a5780f35b60ff60401b195f516020611ff05f395f51905f5254165f516020611ff05f395f51905f52557fc7f505b2f371ae2175ee4913f4499e1f2633a7b5936321eed1cdaeb6115181d2602060405160018152a180f35b600160401b60ff60401b195f516020611ff05f395f51905f525416175f516020611ff05f395f51905f5255610327565b63f92ee8a960e01b8552600485fd5b9050155f6102f1565b303b1591506102e9565b8591506102df565b8380fd5b82356001600160a01b03811681036104db57815260209283019201610294565b8680fd5b8580fd5b634e487b7160e01b84526041600452602484fd5b8280fd5b5080fd5b50346101dc5760403660031901126101dc5761054f60043561051f611962565b9061054a610545825f525f516020611fb05f395f51905f52602052600160405f20015490565b611ae5565b611d2b565b5080f35b50346101dc57806003193601126101dc5760206040516202a3008152f35b50346101dc5760603660031901126101dc576024356004356044356001600160401b0381116104b757366023820112156104b7578060040135906001600160401b03821161090e57366024838301011161090e576002546001600160a01b031633146105db6119cb565b80610906575b6108f75760ff6007541690816108ee575b506108df5760085480610879575082600855826009555b60405161061760608261198e565b6002815260208101906040368337805115610865578560401c8252805160011015610865579192906040830163ffffffff60601b8660601b166001600160401b0360801b8860801b1617905260018060a01b0360055416926020610698604051968795633054963960e01b8752604060048801526024604488019201611a26565b848103600319016024860152915180835291019190885b81811061084c5750505091818060209403915afa908115610841578491610806575b50156107f757808352600b6020526040832054918215610795578214610783578252600b6020528160408120558152600c60205280604081205560075460ff81161561071b575080f35b60ff19166001176007557f015567d35557fdfcbb3bbfe9dbf4f5c651cb9e461e784ac02c8152fbdb7319718180a16107516119cb565b6107585780f35b806006557fa6262a506984c4ee15f889b617462c54ac45d6d7739c9cdceea59098ee5edeb88180a180f35b638d60c7ab60e01b8352600452602482fd5b7f48211a20c285b6b077b7917b8bb118eaa92efdfb8fa2e3b114ffa253e0b665ae925090604091818552600b6020528083862055808552600c602052428386205560095482116107ee575b82519182526020820152a180f35b816009556107e0565b636859a69960e11b8352600483fd5b90506020813d602011610839575b816108216020938361198e565b810103126104b7575180151581036104b7575f6106d1565b3d9150610814565b6040513d86823e3d90fd5b82518452869450602093840193909201916001016106af565b634e487b7160e01b87526032600452602487fd5b8084106108c8575060095461e10081018091116108b45780841161089d5750610609565b631931db8560e11b86526004849052602452604485fd5b634e487b7160e01b86526011600452602486fd5b63e370b92d60e01b86526004849052602452604485fd5b6313a5ef3f60e21b8552600485fd5b9050155f6105f2565b63137de62760e21b8652600486fd5b5080156105e1565b8480fd5b50346101dc57806003193601126101dc576001546040516001600160a01b039091168152602090f35b50346101dc5760203660031901126101dc5760ff60406020926004358152600d84522054166040519015158152f35b50346101dc57806003193601126101dc576002546040516001600160a01b039091168152602090f35b50346101dc57806003193601126101dc57604080516109b2828261198e565b6005815260208101640352e302e360dc1b81528251938492602084525180928160208601528585015e828201840152601f01601f19168101030190f35b50346101dc57806003193601126101dc576020600954604051908152f35b50346101dc57806003193601126101dc57602090604051908152f35b6119af565b5034610d6a5760a0366003190112610d6a576004356064356001600160401b038111610d6a57806004019060806003198236030112610d6a57608435916001600160401b038311610d6a5736602384011215610d6a578260040135906001600160401b038211610d6a573660248360051b86010111610d6a57610aaf6119cb565b610e8a575f54604051635aa6e67560e01b81529390602090859060049082906001600160a01b03165afa908115610d5f575f91610e55575b600154604051635aa6e67560e01b81529550602090869060049082906001600160a01b03165afa948515610d5f575f95610e21575b50602481013591821493848015610e18575b60ff5f516020611fd05f395f51905f5254169081610e0f575b50610e00576002546001600160a01b031633148015610df4575b60ff600754169081610deb575b50610ddc57833595865f52600d60205260ff60405f205416610dc957885f52600b60205260405f2054958615610db65715610da05750610e105b855f52600c60205260405f2054908101809111610d8c574210610d7d57610c46906044830195876064610bda896119e0565b950194610c306074610bec888b6119f4565b80604095929551958693602085019889528d60408601526001600160601b03199060601b1660608501528484013781015f838201520301601f19810183528261198e565b5190209889926044359260248035930190611dc7565b15610d6e575f858152600d60205260409020805460ff19166001179055610c7f906001600160a01b03610c78866119e0565b16936119f4565b92803b15610d6a57610cb8935f809460405196879586948593630302ac5d60e41b85526004850152604060248501526044840191611a26565b03925af18015610d5f57610d1c575b50917f994c669cfd9c0453d42c933a11c002a34d12d85563aebe99ca525fffc45454f89391610cf76080946119e0565b604080519485526020850193909352918301526001600160a01b03166060820152a180f35b60809391955091610d4f5f7f994c669cfd9c0453d42c933a11c002a34d12d85563aebe99ca525fffc45454f8969461198e565b610cf75f96929450509193610cc7565b6040513d5f823e3d90fd5b5f80fd5b63582f497d60e11b5f5260045ffd5b63a4f7d3e960e01b5f5260045ffd5b634e487b7160e01b5f52601160045260245ffd5b8303610dae5761012c610ba8565b61012c610ba8565b896355d7a68b60e01b5f5260045260245ffd5b866338503e3360e21b5f5260045260245ffd5b6313a5ef3f60e21b5f5260045ffd5b9050155f610b6e565b5060ff600a5416610b61565b63d93c066560e01b5f5260045ffd5b9050155f610b47565b50858314610b2e565b9094506020813d602011610e4d575b81610e3d6020938361198e565b81010312610d6a5751935f610b1c565b3d9150610e30565b90506020843d602011610e82575b81610e706020938361198e565b81010312610d6a576004935190610ae7565b3d9150610e63565b63137de62760e21b5f5260045ffd5b34610d6a576040366003190112610d6a57610eb2611962565b6004355f525f516020611fb05f395f51905f5260205260405f209060018060a01b03165f52602052602060ff60405f2054166040519015158152f35b34610d6a575f366003190112610d6a57335f52600460205260405f205415610f4e57426006556202a3004201804211610d8c5760207f9a878a4ae6a3ebc7d241df3b1837491b2b9a9cdd0580170a7f2c555d7b15ad8b91604051908152a1005b63d3e7b38160e01b5f5260045ffd5b34610d6a575f366003190112610d6a57610f75611a46565b5f516020611fd05f395f51905f525460ff8116610e005760019060ff1916175f516020611fd05f395f51905f52557f62e78cea01bee320cd4e420270b5ea74000d11b0c9f74754ebdbfc544b05a2586020604051338152a1005b34610d6a575f366003190112610d6a576040518060206003549283815201809260035f527fc2575a0e9e593c00f959f8c92f12db2869c3395a3b0502d05e2516446f71f85b905f5b818110611078575050508161102d91038261198e565b604051918291602083019060208452518091526040830191905f5b818110611056575050500390f35b82516001600160a01b0316845285945060209384019390920191600101611048565b8254845260209093019260019283019201611017565b34610d6a575f366003190112610d6a576110a6611a96565b5f516020611ff05f395f51905f525460ff8160401c169081156112fe575b506112ef575f516020611ff05f395f51905f52805468ffffffffffffffffff1916680100000000000000031790557f387c83021fc125b9d5bcd0cd56591ab467b10165634f0ab9a699ca76cbff8c6980545f918290558152600c602090815260408083208390557fc84cd90342df8739b373f7be527807c208a84569afc12be2cb8f5c5052dfb349805460ff191690557f35a87dc240b786879dbe9705045c3140abea49cc0b1a14dbca768bcb26f08f887f3ee41770817f3d9f98ea8268d821d7bc21808baf03f33c8ab8cdd1f152b46f2781905592839052427f5ea4140ce66686e78419a67588d7fa138023cf5aa1b64a9d65d6e896c18722675580516301ad51e28152918201929092527f48211a20c285b6b077b7917b8bb118eaa92efdfb8fa2e3b114ffa253e0b665ae9190a17f969589f86884f4399a51b940a58d728b04e12fc30f21c1fddce8ca0eb82f97347f5c760e6d01e588f6e645bcbfb6ddeb04d473d1fb6f03c7672d3dd4395e37f5108190555f819052600c6020908152427f521f4b38fccdf692b849f150edd382010f2170bdfe9b6c3997e2338a941bcf2b55604080516301ad6cfe8152918201929092527f48211a20c285b6b077b7917b8bb118eaa92efdfb8fa2e3b114ffa253e0b665ae9190a160ff60401b195f516020611ff05f395f51905f5254165f516020611ff05f395f51905f52557fc7f505b2f371ae2175ee4913f4499e1f2633a7b5936321eed1cdaeb6115181d2602060405160038152a1005b63f92ee8a960e01b5f5260045ffd5b600391506001600160401b03161015816110c4565b34610d6a575f366003190112610d6a57602060ff5f516020611fd05f395f51905f5254166040519015158152f35b34610d6a575f366003190112610d6a57602061135b6119cb565b6040519015158152f35b34610d6a575f366003190112610d6a577f00000000000000000000000000000000000000000000000000000000000000006001600160a01b031630036113bc5760206040515f516020611f905f395f51905f528152f35b63703e46dd60e11b5f5260045ffd5b34610d6a575f366003190112610d6a57602060405161e1008152f35b6040366003190112610d6a576113fb611978565b602435906001600160401b038211610d6a5736602383011215610d6a5781600401356001600160401b0381116115eb5760405192611443601f8301601f19166020018561198e565b8184523660248383010111610d6a57815f9260246020930183870137840101526001600160a01b037f0000000000000000000000000000000000000000000000000000000000000000163081149081156115c9575b506113bc576114a5611a96565b6040516352d1902d60e01b81526001600160a01b0382169290602081600481875afa5f9181611595575b506114e75783634c9c8ce360e01b5f5260045260245ffd5b805f516020611f905f395f51905f528592036115835750823b15611571575f516020611f905f395f51905f5280546001600160a01b031916821790557fbc7cd75a20ee27fd9adebab32041f755214dbc6bffa90cc0225b39da2e5c2d3b5f80a28051156115595761155791611f03565b005b50503461156257005b63b398979f60e01b5f5260045ffd5b634c9c8ce360e01b5f5260045260245ffd5b632a87526960e21b5f5260045260245ffd5b9091506020813d6020116115c1575b816115b16020938361198e565b81010312610d6a575190856114cf565b3d91506115a4565b5f516020611f905f395f51905f52546001600160a01b03161415905083611498565b634e487b7160e01b5f52604160045260245ffd5b34610d6a575f366003190112610d6a576020600854604051908152f35b34610d6a576020366003190112610d6a576004355f52600c602052602060405f2054604051908152f35b34610d6a575f366003190112610d6a5761165e611a46565b5f516020611fd05f395f51905f525460ff8116156116b55760ff19165f516020611fd05f395f51905f52557f5db9ee0a495bf2e6ff9c91a7834c1ba4fdd244a5e8aa4e537bd38aeae4b073aa6020604051338152a1005b638dfc202b60e01b5f5260045ffd5b34610d6a576040366003190112610d6a576116dd611962565b336001600160a01b038216036116f95761155790600435611d2b565b63334bd91960e11b5f5260045ffd5b34610d6a576040366003190112610d6a57611557600435611727611962565b9061174d610545825f525f516020611fb05f395f51905f52602052600160405f20015490565b611c87565b34610d6a575f366003190112610d6a576005546040516001600160a01b039091168152602090f35b34610d6a576020366003190112610d6a5760206117b16004355f525f516020611fb05f395f51905f52602052600160405f20015490565b604051908152f35b34610d6a575f366003190112610d6a576020604051610e108152f35b34610d6a575f366003190112610d6a576002546001600160a01b0316330361183d576117ff6119cb565b1561182e575f6006557fa6262a506984c4ee15f889b617462c54ac45d6d7739c9cdceea59098ee5edeb85f80a1005b630cddaee960e01b5f5260045ffd5b63662cadb560e01b5f5260045ffd5b34610d6a576020366003190112610d6a576004355f52600b602052602060405f2054604051908152f35b34610d6a576020366003190112610d6a5760043563ffffffff60e01b8116809103610d6a57602090637965db0b60e01b81149081156118bb575b506040519015158152f35b6301ffc9a760e01b149050826118b0565b34610d6a575f366003190112610d6a575f546040516001600160a01b039091168152602090f35b34610d6a575f366003190112610d6a576002546001600160a01b0316330361183d5760ff600754161561195357600160ff19600a541617600a557f9d3e19ea897a0042d94736364efa77853151ca0c20a04f5d4e930a1043122ef85f80a1005b63194ad54d60e31b5f5260045ffd5b602435906001600160a01b0382168203610d6a57565b600435906001600160a01b0382168203610d6a57565b90601f801991011681019081106001600160401b038211176115eb57604052565b34610d6a575f366003190112610d6a57602060405161012c8152f35b6006546202a3008101809111610d8c57421090565b356001600160a01b0381168103610d6a5790565b903590601e1981360301821215610d6a57018035906001600160401b038211610d6a57602001918136038313610d6a57565b908060209392818452848401375f828201840152601f01601f1916010190565b335f9081527f2222dce04fae1e25cd76e9391151ad9e0187ef92144ac6ce9e4e09f2c453b751602052604090205460ff1615611a7e57565b63e2517d3f60e01b5f5233600452600160245260445ffd5b335f9081527fb7db2dd08fcb62d0c9e08c51941cae53c267786a0b75803fb7960902fc8ef97d602052604090205460ff1615611ace57565b63e2517d3f60e01b5f52336004525f60245260445ffd5b5f8181525f516020611fb05f395f51905f526020908152604080832033845290915290205460ff1615611b155750565b63e2517d3f60e01b5f523360045260245260445ffd5b6001600160a01b0381165f9081527fb7db2dd08fcb62d0c9e08c51941cae53c267786a0b75803fb7960902fc8ef97d602052604090205460ff16611bd5576001600160a01b03165f8181527fb7db2dd08fcb62d0c9e08c51941cae53c267786a0b75803fb7960902fc8ef97d60205260408120805460ff191660011790553391907f2f8788117e7eff1d82e926ec794901d17c78024a50270940304540a733656f0d8180a4600190565b505f90565b6001600160a01b0381165f9081527f2222dce04fae1e25cd76e9391151ad9e0187ef92144ac6ce9e4e09f2c453b751602052604090205460ff16611bd5576001600160a01b03165f8181527f2222dce04fae1e25cd76e9391151ad9e0187ef92144ac6ce9e4e09f2c453b75160205260408120805460ff191660019081179091553392917f2f8788117e7eff1d82e926ec794901d17c78024a50270940304540a733656f0d9080a4600190565b5f8181525f516020611fb05f395f51905f52602090815260408083206001600160a01b038616845290915290205460ff16611d25575f8181525f516020611fb05f395f51905f52602090815260408083206001600160a01b0395909516808452949091528120805460ff19166001179055339291907f2f8788117e7eff1d82e926ec794901d17c78024a50270940304540a733656f0d9080a4600190565b50505f90565b5f8181525f516020611fb05f395f51905f52602090815260408083206001600160a01b038616845290915290205460ff1615611d25575f8181525f516020611fb05f395f51905f52602090815260408083206001600160a01b0395909516808452949091528120805460ff19169055339291907ff6391f5c32d9c69d2a47ea670b442974b53935d1edc7fd64eb21e047a839171b9080a4600190565b91949590929384811015611e4b575f969092905b86881015611e4157808860051b860135906001808716148015611e35575b15611e2057505f5260205260018060405f20945b811c965f1901811c019701969492611ddb565b9091505f5260205260018060405f2094611e0d565b50876001870114611df9565b1495509350505050565b509450505050505f90565b60ff5f516020611ff05f395f51905f525460401c1615611e7257565b631afcd79f60e31b5f5260045ffd5b805f52600460205260405f2054155f14611bd557600354600160401b8110156115eb576001810180600355811015611eef577fc2575a0e9e593c00f959f8c92f12db2869c3395a3b0502d05e2516446f71f85b018190556003545f9182526004602052604090912055600190565b634e487b7160e01b5f52603260045260245ffd5b905f8091602081519101845af48080611f7c575b15611f375750506040513d81523d5f602083013e60203d82010160405290565b15611f5c57639996b31560e01b5f9081526001600160a01b0391909116600452602490fd5b3d15611f6d576040513d5f823e3d90fd5b63d6bda27560e01b5f5260045ffd5b503d151580611f175750813b1515611f1756fe360894a13ba1a3210667c828492db98dca3e2076cc3735a920a3ca505d382bbc02dd7bc7dec4dceedda775e58dd541e08a116c6c53815c0bd028192f7b626800cd5ed15c6e187e77e9aee88184c21f4f2182ab5827cb3b7e07fbedcd63f03300f0c57e16840df040f15088dc2f81fe391c3923bec73e23a9662efc9c229c6a00f0c57e16840df040f15088dc2f81fe391c3923bec73e23a9662efc9c229c6a00","linkReferences":{}},"methodIdentifiers":{"CHALLENGE_ROOT_DELAY()":"ced1098b","DEFAULT_ADMIN_ROLE()":"a217fddf","MAX_BLOCK_DISTANCE()":"50b0952b","PAUSER_ROLE()":"e63ab1e9","PROCESS_ADMIN_MESSAGE_DELAY()":"20191654","PROCESS_PAUSER_MESSAGE_DELAY()":"867b8278","PROCESS_USER_MESSAGE_DELAY()":"a181333c","UPGRADE_INTERFACE_VERSION()":"ad3cb1cc","allowMessageProcessing()":"00490745","challengeRoot()":"87e97e8c","disableChallengeRoot()":"0f926c02","emergencyStopAdmin()":"b13f222c","emergencyStopObservers()":"76afc14f","genesisBlock()":"4cdc9c63","getMerkleRoot(uint256)":"0aab8ba5","getMerkleRootTimestamp(bytes32)":"4610d3aa","getRoleAdmin(bytes32)":"248a9ca3","governanceAdmin()":"0058f6b8","governancePauser()":"c81eb797","grantRole(bytes32,address)":"2f2ff15d","hasRole(bytes32,address)":"91d14854","initialize(address,address,address,address[],address)":"e3b1a2b3","isChallengingRoot()":"52d190f3","isEmergencyStopped()":"fddd4837","isProcessed(uint256)":"bfe7edd7","maxBlockNumber()":"a912fd25","pause()":"8456cb59","paused()":"5c975abb","processMessage(uint256,uint256,uint256,(uint256,bytes32,address,bytes),bytes32[])":"93eb47e9","proxiableUUID()":"52d1902d","reinitialize()":"6c2eb350","renounceRole(bytes32,address)":"36568abe","revokeRole(bytes32,address)":"d547741f","submitMerkleRoot(uint256,bytes32,bytes)":"cca66a9d","supportsInterface(bytes4)":"01ffc9a7","unpause()":"3f4ba83a","upgradeToAndCall(address,bytes)":"4f1ef286","verifier()":"2b7ac3f3"},"storageLayout":{"storage":[{"astId":65404,"contract":"src/MessageQueue.sol:MessageQueue","label":"_governanceAdmin","offset":0,"slot":"0","type":"t_contract(IGovernance)68569"},{"astId":65407,"contract":"src/MessageQueue.sol:MessageQueue","label":"_governancePauser","offset":0,"slot":"1","type":"t_contract(IGovernance)68569"},{"astId":65409,"contract":"src/MessageQueue.sol:MessageQueue","label":"_emergencyStopAdmin","offset":0,"slot":"2","type":"t_address"},{"astId":65412,"contract":"src/MessageQueue.sol:MessageQueue","label":"_emergencyStopObservers","offset":0,"slot":"3","type":"t_struct(AddressSet)57386_storage"},{"astId":65415,"contract":"src/MessageQueue.sol:MessageQueue","label":"_verifier","offset":0,"slot":"5","type":"t_contract(IVerifier)69036"},{"astId":65417,"contract":"src/MessageQueue.sol:MessageQueue","label":"_challengingRootTimestamp","offset":0,"slot":"6","type":"t_uint256"},{"astId":65419,"contract":"src/MessageQueue.sol:MessageQueue","label":"_emergencyStop","offset":0,"slot":"7","type":"t_bool"},{"astId":65421,"contract":"src/MessageQueue.sol:MessageQueue","label":"_genesisBlock","offset":0,"slot":"8","type":"t_uint256"},{"astId":65423,"contract":"src/MessageQueue.sol:MessageQueue","label":"_maxBlockNumber","offset":0,"slot":"9","type":"t_uint256"},{"astId":65425,"contract":"src/MessageQueue.sol:MessageQueue","label":"_allowMessageProcessing","offset":0,"slot":"10","type":"t_bool"},{"astId":65429,"contract":"src/MessageQueue.sol:MessageQueue","label":"_blockNumbers","offset":0,"slot":"11","type":"t_mapping(t_uint256,t_bytes32)"},{"astId":65433,"contract":"src/MessageQueue.sol:MessageQueue","label":"_merkleRootTimestamps","offset":0,"slot":"12","type":"t_mapping(t_bytes32,t_uint256)"},{"astId":65437,"contract":"src/MessageQueue.sol:MessageQueue","label":"_processedMessages","offset":0,"slot":"13","type":"t_mapping(t_uint256,t_bool)"}],"types":{"t_address":{"encoding":"inplace","label":"address","numberOfBytes":"20"},"t_array(t_bytes32)dyn_storage":{"encoding":"dynamic_array","label":"bytes32[]","numberOfBytes":"32","base":"t_bytes32"},"t_bool":{"encoding":"inplace","label":"bool","numberOfBytes":"1"},"t_bytes32":{"encoding":"inplace","label":"bytes32","numberOfBytes":"32"},"t_contract(IGovernance)68569":{"encoding":"inplace","label":"contract IGovernance","numberOfBytes":"20"},"t_contract(IVerifier)69036":{"encoding":"inplace","label":"contract IVerifier","numberOfBytes":"20"},"t_mapping(t_bytes32,t_uint256)":{"encoding":"mapping","key":"t_bytes32","label":"mapping(bytes32 => uint256)","numberOfBytes":"32","value":"t_uint256"},"t_mapping(t_uint256,t_bool)":{"encoding":"mapping","key":"t_uint256","label":"mapping(uint256 => bool)","numberOfBytes":"32","value":"t_bool"},"t_mapping(t_uint256,t_bytes32)":{"encoding":"mapping","key":"t_uint256","label":"mapping(uint256 => bytes32)","numberOfBytes":"32","value":"t_bytes32"},"t_struct(AddressSet)57386_storage":{"encoding":"inplace","label":"struct EnumerableSet.AddressSet","numberOfBytes":"64","members":[{"astId":57385,"contract":"src/MessageQueue.sol:MessageQueue","label":"_inner","offset":0,"slot":"0","type":"t_struct(Set)56900_storage"}]},"t_struct(Set)56900_storage":{"encoding":"inplace","label":"struct EnumerableSet.Set","numberOfBytes":"64","members":[{"astId":56895,"contract":"src/MessageQueue.sol:MessageQueue","label":"_values","offset":0,"slot":"0","type":"t_array(t_bytes32)dyn_storage"},{"astId":56899,"contract":"src/MessageQueue.sol:MessageQueue","label":"_positions","offset":0,"slot":"1","type":"t_mapping(t_bytes32,t_uint256)"}]},"t_uint256":{"encoding":"inplace","label":"uint256","numberOfBytes":"32"}}},"id":103}