{"abi":[{"type":"constructor","inputs":[{"name":"relayer","type":"address","internalType":"contract IRelayer"}],"stateMutability":"nonpayable"},{"type":"function","name":"isProcessed","inputs":[{"name":"message","type":"tuple","internalType":"struct VaraMessage","components":[{"name":"nonce","type":"bytes32","internalType":"bytes32"},{"name":"sender","type":"bytes32","internalType":"bytes32"},{"name":"receiver","type":"address","internalType":"address"},{"name":"data","type":"bytes","internalType":"bytes"}]}],"outputs":[{"name":"","type":"bool","internalType":"bool"}],"stateMutability":"view"},{"type":"function","name":"processMessage","inputs":[{"name":"block_number","type":"uint256","internalType":"uint256"},{"name":"total_leaves","type":"uint256","internalType":"uint256"},{"name":"leaf_index","type":"uint256","internalType":"uint256"},{"name":"message","type":"tuple","internalType":"struct VaraMessage","components":[{"name":"nonce","type":"bytes32","internalType":"bytes32"},{"name":"sender","type":"bytes32","internalType":"bytes32"},{"name":"receiver","type":"address","internalType":"address"},{"name":"data","type":"bytes","internalType":"bytes"}]},{"name":"proof","type":"bytes32[]","internalType":"bytes32[]"}],"outputs":[],"stateMutability":"nonpayable"},{"type":"event","name":"MessageProcessed","inputs":[{"name":"blockNumber","type":"uint256","indexed":true,"internalType":"uint256"},{"name":"messageHash","type":"bytes32","indexed":true,"internalType":"bytes32"},{"name":"messageNonce","type":"bytes32","indexed":true,"internalType":"bytes32"}],"anonymous":false},{"type":"error","name":"BadProof","inputs":[]},{"type":"error","name":"MerkleRootNotSet","inputs":[{"name":"blockNumber","type":"uint256","internalType":"uint256"}]},{"type":"error","name":"MessageAlreadyProcessed","inputs":[{"name":"messageNonce","type":"bytes32","internalType":"bytes32"}]},{"type":"error","name":"MessageNotProcessed","inputs":[]},{"type":"error","name":"RelayerEmergencyStop","inputs":[]}],"bytecode":{"object":"0x60a034606657601f61056638819003918201601f19168301916001600160401b03831184841017606a57808492602094604052833981010312606657516001600160a01b03811681036066576080526040516104e7908161007f82396080518161010d0152f35b5f80fd5b634e487b7160e01b5f52604160045260245ffdfe6080806040526004361015610012575f80fd5b5f3560e01c90816344855efc14610085575063f250df3214610032575f80fd5b346100815760203660031901126100815760043567ffffffffffffffff8111610081576080600319823603011261008157600401355f525f602052602060ff60405f2054166040519015158152f35b5f80fd5b346100815760a0366003190112610081576064359060043567ffffffffffffffff831161008157826004019260806003198236030112610081576084359067ffffffffffffffff821161008157366023830112156100815781600401359067ffffffffffffffff8211610081573660248360051b85010111610081576318e9666960e21b85527f00000000000000000000000000000000000000000000000000000000000000006001600160a01b031694602081600481895afa908115610321575f916103a4575b5061039557853595865f525f60205260ff60405f2054166103825760248083013594604484019489606461018088610411565b9601956101d960748a6101938a8a610425565b809160405196879460208601998a5260408601526bffffffffffffffffffffffff199060601b1660608501528484013781015f838201520301601f1981018352826103c3565b5190205f526020805f209960405194858092630aab8ba560e01b82528c60048301525afa928315610321575f9361034e575b50821561033b57918891610229936044359260248035930190610458565b1561032c576064936102655f936020958a865285875260408620600160ff1982541617905561025e60018060a01b0391610411565b1693610425565b9586949192604051978896879586936317a7ea2760e31b8552600485015260406024850152816044850152848401378181018301849052601f01601f191681010301925af1908115610321575f916102f2575b506102cc5763ef2a441760e01b5f5260045ffd5b7f86b784cc94bf75127f81b9f806d51b5a1cf5a970b3b349f1d3dc7086007bcec55f80a4005b610314915060203d60201161031a575b61030c81836103c3565b8101906103f9565b846102b8565b503d610302565b6040513d5f823e3d90fd5b637ca55c7760e01b5f5260045ffd5b876354e2ed2d60e11b5f5260045260245ffd5b9092506020813d60201161037a575b8161036a602093836103c3565b810103126100815751918a61020b565b3d915061035d565b8663398560f160e11b5f5260045260245ffd5b63dfe54af360e01b5f5260045ffd5b6103bd915060203d60201161031a5761030c81836103c3565b8761014d565b90601f8019910116810190811067ffffffffffffffff8211176103e557604052565b634e487b7160e01b5f52604160045260245ffd5b90816020910312610081575180151581036100815790565b356001600160a01b03811681036100815790565b903590601e1981360301821215610081570180359067ffffffffffffffff82116100815760200191813603831361008157565b919495909293848110156104dc575f969092905b868810156104d257808860051b8601359060018087161480156104c6575b156104b157505f5260205260018060405f20945b811c965f1901811c01970196949261046c565b9091505f5260205260018060405f209461049e565b5087600187011461048a565b1495509350505050565b509450505050505f9056","linkReferences":{}},"methodIdentifiers":{"isProcessed((bytes32,bytes32,address,bytes))":"f250df32","processMessage(uint256,uint256,uint256,(bytes32,bytes32,address,bytes),bytes32[])":"44855efc"},"id":60}