{"abi":[{"type":"constructor","inputs":[],"stateMutability":"nonpayable"},{"type":"function","name":"CHALLENGE_ROOT_DELAY","inputs":[],"outputs":[{"name":"","type":"uint256","internalType":"uint256"}],"stateMutability":"view"},{"type":"function","name":"DEFAULT_ADMIN_ROLE","inputs":[],"outputs":[{"name":"","type":"bytes32","internalType":"bytes32"}],"stateMutability":"view"},{"type":"function","name":"MAX_BLOCK_DISTANCE","inputs":[],"outputs":[{"name":"","type":"uint256","internalType":"uint256"}],"stateMutability":"view"},{"type":"function","name":"PAUSER_ROLE","inputs":[],"outputs":[{"name":"","type":"bytes32","internalType":"bytes32"}],"stateMutability":"view"},{"type":"function","name":"PROCESS_ADMIN_MESSAGE_DELAY","inputs":[],"outputs":[{"name":"","type":"uint256","internalType":"uint256"}],"stateMutability":"view"},{"type":"function","name":"PROCESS_PAUSER_MESSAGE_DELAY","inputs":[],"outputs":[{"name":"","type":"uint256","internalType":"uint256"}],"stateMutability":"view"},{"type":"function","name":"PROCESS_USER_MESSAGE_DELAY","inputs":[],"outputs":[{"name":"","type":"uint256","internalType":"uint256"}],"stateMutability":"view"},{"type":"function","name":"UPGRADE_INTERFACE_VERSION","inputs":[],"outputs":[{"name":"","type":"string","internalType":"string"}],"stateMutability":"view"},{"type":"function","name":"challengeRoot","inputs":[],"outputs":[],"stateMutability":"nonpayable"},{"type":"function","name":"emergencyStopAdmin","inputs":[],"outputs":[{"name":"","type":"address","internalType":"address"}],"stateMutability":"view"},{"type":"function","name":"emergencyStopObservers","inputs":[],"outputs":[{"name":"","type":"address[]","internalType":"address[]"}],"stateMutability":"view"},{"type":"function","name":"genesisBlock","inputs":[],"outputs":[{"name":"","type":"uint256","internalType":"uint256"}],"stateMutability":"view"},{"type":"function","name":"getMerkleRoot","inputs":[{"name":"blockNumber","type":"uint256","internalType":"uint256"}],"outputs":[{"name":"","type":"bytes32","internalType":"bytes32"}],"stateMutability":"view"},{"type":"function","name":"getMerkleRootTimestamp","inputs":[{"name":"merkleRoot","type":"bytes32","internalType":"bytes32"}],"outputs":[{"name":"","type":"uint256","internalType":"uint256"}],"stateMutability":"view"},{"type":"function","name":"getRoleAdmin","inputs":[{"name":"role","type":"bytes32","internalType":"bytes32"}],"outputs":[{"name":"","type":"bytes32","internalType":"bytes32"}],"stateMutability":"view"},{"type":"function","name":"governanceAdmin","inputs":[],"outputs":[{"name":"","type":"address","internalType":"address"}],"stateMutability":"view"},{"type":"function","name":"governancePauser","inputs":[],"outputs":[{"name":"","type":"address","internalType":"address"}],"stateMutability":"view"},{"type":"function","name":"grantRole","inputs":[{"name":"role","type":"bytes32","internalType":"bytes32"},{"name":"account","type":"address","internalType":"address"}],"outputs":[],"stateMutability":"nonpayable"},{"type":"function","name":"hasRole","inputs":[{"name":"role","type":"bytes32","internalType":"bytes32"},{"name":"account","type":"address","internalType":"address"}],"outputs":[{"name":"","type":"bool","internalType":"bool"}],"stateMutability":"view"},{"type":"function","name":"initialize","inputs":[{"name":"governanceAdmin_","type":"address","internalType":"contract IGovernance"},{"name":"governancePauser_","type":"address","internalType":"contract IGovernance"},{"name":"emergencyStopAdmin_","type":"address","internalType":"address"},{"name":"emergencyStopObservers_","type":"address[]","internalType":"address[]"},{"name":"verifier_","type":"address","internalType":"contract IVerifier"}],"outputs":[],"stateMutability":"nonpayable"},{"type":"function","name":"isChallengingRoot","inputs":[],"outputs":[{"name":"","type":"bool","internalType":"bool"}],"stateMutability":"view"},{"type":"function","name":"isEmergencyStopped","inputs":[],"outputs":[{"name":"","type":"bool","internalType":"bool"}],"stateMutability":"view"},{"type":"function","name":"isProcessed","inputs":[{"name":"messageNonce","type":"uint256","internalType":"uint256"}],"outputs":[{"name":"","type":"bool","internalType":"bool"}],"stateMutability":"view"},{"type":"function","name":"maxBlockNumber","inputs":[],"outputs":[{"name":"","type":"uint256","internalType":"uint256"}],"stateMutability":"view"},{"type":"function","name":"pause","inputs":[],"outputs":[],"stateMutability":"nonpayable"},{"type":"function","name":"paused","inputs":[],"outputs":[{"name":"","type":"bool","internalType":"bool"}],"stateMutability":"view"},{"type":"function","name":"processMessage","inputs":[{"name":"blockNumber","type":"uint256","internalType":"uint256"},{"name":"totalLeaves","type":"uint256","internalType":"uint256"},{"name":"leafIndex","type":"uint256","internalType":"uint256"},{"name":"message","type":"tuple","internalType":"struct VaraMessage","components":[{"name":"nonce","type":"uint256","internalType":"uint256"},{"name":"source","type":"bytes32","internalType":"bytes32"},{"name":"destination","type":"address","internalType":"address"},{"name":"payload","type":"bytes","internalType":"bytes"}]},{"name":"proof","type":"bytes32[]","internalType":"bytes32[]"}],"outputs":[],"stateMutability":"nonpayable"},{"type":"function","name":"proxiableUUID","inputs":[],"outputs":[{"name":"","type":"bytes32","internalType":"bytes32"}],"stateMutability":"view"},{"type":"function","name":"renounceRole","inputs":[{"name":"role","type":"bytes32","internalType":"bytes32"},{"name":"callerConfirmation","type":"address","internalType":"address"}],"outputs":[],"stateMutability":"nonpayable"},{"type":"function","name":"revokeRole","inputs":[{"name":"role","type":"bytes32","internalType":"bytes32"},{"name":"account","type":"address","internalType":"address"}],"outputs":[],"stateMutability":"nonpayable"},{"type":"function","name":"submitMerkleRoot","inputs":[{"name":"blockNumber","type":"uint256","internalType":"uint256"},{"name":"merkleRoot","type":"bytes32","internalType":"bytes32"},{"name":"proof","type":"bytes","internalType":"bytes"}],"outputs":[],"stateMutability":"nonpayable"},{"type":"function","name":"supportsInterface","inputs":[{"name":"interfaceId","type":"bytes4","internalType":"bytes4"}],"outputs":[{"name":"","type":"bool","internalType":"bool"}],"stateMutability":"view"},{"type":"function","name":"unpause","inputs":[],"outputs":[],"stateMutability":"nonpayable"},{"type":"function","name":"upgradeToAndCall","inputs":[{"name":"newImplementation","type":"address","internalType":"address"},{"name":"data","type":"bytes","internalType":"bytes"}],"outputs":[],"stateMutability":"payable"},{"type":"function","name":"verifier","inputs":[],"outputs":[{"name":"","type":"address","internalType":"address"}],"stateMutability":"view"},{"type":"event","name":"ChallengeRootEnabled","inputs":[{"name":"untilTimestamp","type":"uint256","indexed":false,"internalType":"uint256"}],"anonymous":false},{"type":"event","name":"EmergencyStopDisabled","inputs":[],"anonymous":false},{"type":"event","name":"EmergencyStopEnabled","inputs":[],"anonymous":false},{"type":"event","name":"Initialized","inputs":[{"name":"version","type":"uint64","indexed":false,"internalType":"uint64"}],"anonymous":false},{"type":"event","name":"MerkleRoot","inputs":[{"name":"blockNumber","type":"uint256","indexed":false,"internalType":"uint256"},{"name":"merkleRoot","type":"bytes32","indexed":false,"internalType":"bytes32"}],"anonymous":false},{"type":"event","name":"MessageProcessed","inputs":[{"name":"blockNumber","type":"uint256","indexed":false,"internalType":"uint256"},{"name":"messageHash","type":"bytes32","indexed":false,"internalType":"bytes32"},{"name":"messageNonce","type":"uint256","indexed":false,"internalType":"uint256"},{"name":"messageDestination","type":"address","indexed":false,"internalType":"address"}],"anonymous":false},{"type":"event","name":"Paused","inputs":[{"name":"account","type":"address","indexed":false,"internalType":"address"}],"anonymous":false},{"type":"event","name":"RoleAdminChanged","inputs":[{"name":"role","type":"bytes32","indexed":true,"internalType":"bytes32"},{"name":"previousAdminRole","type":"bytes32","indexed":true,"internalType":"bytes32"},{"name":"newAdminRole","type":"bytes32","indexed":true,"internalType":"bytes32"}],"anonymous":false},{"type":"event","name":"RoleGranted","inputs":[{"name":"role","type":"bytes32","indexed":true,"internalType":"bytes32"},{"name":"account","type":"address","indexed":true,"internalType":"address"},{"name":"sender","type":"address","indexed":true,"internalType":"address"}],"anonymous":false},{"type":"event","name":"RoleRevoked","inputs":[{"name":"role","type":"bytes32","indexed":true,"internalType":"bytes32"},{"name":"account","type":"address","indexed":true,"internalType":"address"},{"name":"sender","type":"address","indexed":true,"internalType":"address"}],"anonymous":false},{"type":"event","name":"Unpaused","inputs":[{"name":"account","type":"address","indexed":false,"internalType":"address"}],"anonymous":false},{"type":"event","name":"Upgraded","inputs":[{"name":"implementation","type":"address","indexed":true,"internalType":"address"}],"anonymous":false},{"type":"error","name":"AccessControlBadConfirmation","inputs":[]},{"type":"error","name":"AccessControlUnauthorizedAccount","inputs":[{"name":"account","type":"address","internalType":"address"},{"name":"neededRole","type":"bytes32","internalType":"bytes32"}]},{"type":"error","name":"AddressEmptyCode","inputs":[{"name":"target","type":"address","internalType":"address"}]},{"type":"error","name":"BlockNumberBeforeGenesis","inputs":[{"name":"blockNumber","type":"uint256","internalType":"uint256"},{"name":"genesisBlock","type":"uint256","internalType":"uint256"}]},{"type":"error","name":"BlockNumberTooFar","inputs":[{"name":"blockNumber","type":"uint256","internalType":"uint256"},{"name":"maxBlockNumber","type":"uint256","internalType":"uint256"}]},{"type":"error","name":"ChallengeRoot","inputs":[]},{"type":"error","name":"ERC1967InvalidImplementation","inputs":[{"name":"implementation","type":"address","internalType":"address"}]},{"type":"error","name":"ERC1967NonPayable","inputs":[]},{"type":"error","name":"EmergencyStop","inputs":[]},{"type":"error","name":"EnforcedPause","inputs":[]},{"type":"error","name":"ExpectedPause","inputs":[]},{"type":"error","name":"FailedCall","inputs":[]},{"type":"error","name":"InvalidInitialization","inputs":[]},{"type":"error","name":"InvalidMerkleProof","inputs":[]},{"type":"error","name":"InvalidPlonkProof","inputs":[]},{"type":"error","name":"MerkleRootAlreadySet","inputs":[{"name":"blockNumber","type":"uint256","internalType":"uint256"}]},{"type":"error","name":"MerkleRootDelayNotPassed","inputs":[]},{"type":"error","name":"MerkleRootNotFound","inputs":[{"name":"blockNumber","type":"uint256","internalType":"uint256"}]},{"type":"error","name":"MessageAlreadyProcessed","inputs":[{"name":"messageNonce","type":"uint256","internalType":"uint256"}]},{"type":"error","name":"NotEmergencyStopObserver","inputs":[]},{"type":"error","name":"NotInitializing","inputs":[]},{"type":"error","name":"UUPSUnauthorizedCallContext","inputs":[]},{"type":"error","name":"UUPSUnsupportedProxiableUUID","inputs":[{"name":"slot","type":"bytes32","internalType":"bytes32"}]}],"bytecode":{"object":"0x60a080604052346100c257306080525f516020611d265f395f51905f525460ff8160401c166100b3576002600160401b03196001600160401b03821601610060575b604051611c5f90816100c7823960805181818161109b01526111860152f35b6001600160401b0319166001600160401b039081175f516020611d265f395f51905f525581527fc7f505b2f371ae2175ee4913f4499e1f2633a7b5936321eed1cdaeb6115181d290602090a15f80610041565b63f92ee8a960e01b5f5260045ffd5b5f80fdfe6080806040526004361015610012575f80fd5b5f905f3560e01c90816258f6b8146115d85750806301ffc9a7146115825780630aab8ba514611558578063201916541461153c578063248a9ca3146114fd5780632b7ac3f3146114d55780632f2ff15d1461148b57806336568abe146114475780633f4ba83a146113c95780634610d3aa1461139f5780634cdc9c63146113825780634f1ef2861461110b57806350b0952b146110ef57806352d1902d1461108957806352d190f3146110655780635c975abb1461103757806376afc14f14610f785780638456cb5914610f06578063867b8278146109d957806387e97e8c14610e8b57806391d1485414610e3657806393eb47e9146109de578063a181333c146109d9578063a217fddf146109bd578063a912fd251461099f578063ad3cb1cc14610943578063b13f222c1461091a578063bfe7edd7146108eb578063c81eb797146108c2578063cca66a9d14610553578063ced1098b14610535578063d547741f146104e1578063e3b1a2b3146101df578063e63ab1e9146101c35763fddd48371461019e575f80fd5b346101c057806003193601126101c057602060ff600754166040519015158152f35b80fd5b50346101c057806003193601126101c057602060405160018152f35b50346101c05760a03660031901126101c0576101f9611610565b906102026115fa565b906044359260018060a01b0384168094036104dd57606435936001600160401b0385116104d957366023860112156104d9578460040135946001600160401b0386116104c5578560051b90602082019661025f6040519889611626565b875260246020880192820101903682116104c157602401915b81831061049d575050506084356001600160a01b0381169490859003610499575f516020611c3f5f395f51905f52549260ff8460401c1615936001600160401b03811680159081610491575b6001149081610487575b15908161047e575b5061046f5767ffffffffffffffff1981166001175f516020611c3f5f395f51905f525584610443575b50610308611ace565b610310611ace565b610318611ace565b6001600160a01b03169061032b826117a3565b5061033582611852565b506001600160a01b03169061034982611852565b506001600160601b0360a01b8554161784556001600160601b0360a01b60015416176001556001600160601b0360a01b6002541617600255815b84518110156103d15784518110156103bd57600581901b850160200151600191906103b6906001600160a01b0316611af9565b5001610383565b634e487b7160e01b83526032600452602483fd5b50600580546001600160a01b031916841790556103eb5780f35b68ff0000000000000000195f516020611c3f5f395f51905f5254165f516020611c3f5f395f51905f52557fc7f505b2f371ae2175ee4913f4499e1f2633a7b5936321eed1cdaeb6115181d2602060405160018152a180f35b68ffffffffffffffffff191668010000000000000001175f516020611c3f5f395f51905f52555f6102ff565b63f92ee8a960e01b8652600486fd5b9050155f6102d6565b303b1591506102ce565b8691506102c4565b8380fd5b82356001600160a01b03811681036104bd57815260209283019201610278565b8680fd5b8580fd5b634e487b7160e01b84526041600452602484fd5b8280fd5b5080fd5b50346101c05760403660031901126101c0576105316004356105016115fa565b9061052c610527825f525f516020611bff5f395f51905f52602052600160405f20015490565b61175d565b6119a3565b5080f35b50346101c057806003193601126101c0576020604051620151808152f35b50346101c05760603660031901126101c0576024356004356044356001600160401b0381116104995736602382011215610499578060040135906001600160401b0382116108be5736602483830101116108be576002546001600160a01b031633146105bd611692565b806108b6575b6108a75760ff60075416908161089e575b5061088f5760085480610829575082600855826009555b6040516105f9606082611626565b6002815260208101906040368337805115610815578560401c8252805160011015610815579192906040830163ffffffff60601b8660601b166001600160401b0360801b8860801b1617905260018060a01b036005541692602061067a604051968795633054963960e01b87526040600488015260246044880192016116ed565b848103600319016024860152915180835291019190885b8181106107fc5750505091818060209403915afa9081156107f15784916107b6575b50156107a757808352600a6020526040832054918215610745578214610733578252600a6020528160408120558152600b60205280604081205560075460ff8116156106fd575080f35b600682905560ff19166001176007557f015567d35557fdfcbb3bbfe9dbf4f5c651cb9e461e784ac02c8152fbdb7319718180a180f35b638d60c7ab60e01b8352600452602482fd5b7f48211a20c285b6b077b7917b8bb118eaa92efdfb8fa2e3b114ffa253e0b665ae925090604091818552600a6020528083862055808552600b6020524283862055600954821161079e575b82519182526020820152a180f35b81600955610790565b636859a69960e11b8352600483fd5b90506020813d6020116107e9575b816107d160209383611626565b8101031261049957518015158103610499575f6106b3565b3d91506107c4565b6040513d86823e3d90fd5b8251845286945060209384019390920191600101610691565b634e487b7160e01b87526032600452602487fd5b8084106108785750600954611c2081018091116108645780841161084d57506105eb565b631931db8560e11b86526004849052602452604485fd5b634e487b7160e01b86526011600452602486fd5b63e370b92d60e01b86526004849052602452604485fd5b6313a5ef3f60e21b8552600485fd5b9050155f6105d4565b63137de62760e21b8652600486fd5b5080156105c3565b8480fd5b50346101c057806003193601126101c0576001546040516001600160a01b039091168152602090f35b50346101c05760203660031901126101c05760ff60406020926004358152600c84522054166040519015158152f35b50346101c057806003193601126101c0576002546040516001600160a01b039091168152602090f35b50346101c057806003193601126101c057604080516109628282611626565b6005815260208101640352e302e360dc1b81528251938492602084525180928160208601528585015e828201840152601f01601f19168101030190f35b50346101c057806003193601126101c0576020600954604051908152f35b50346101c057806003193601126101c057602090604051908152f35b611676565b5034610d135760a0366003190112610d13576004356064356001600160401b038111610d1357806004019060806003198236030112610d1357608435916001600160401b038311610d135736602384011215610d13578260040135906001600160401b038211610d13573660248360051b86010111610d1357610a5f611692565b610e27575f54604051635aa6e67560e01b81529390602090859060049082906001600160a01b03165afa908115610d08575f91610df2575b600154604051635aa6e67560e01b81529550602090869060049082906001600160a01b03165afa948515610d08575f95610dbe575b50602481013591821493848015610db5575b60ff5f516020611c1f5f395f51905f5254169081610dac575b50610d9d5760025460075460ff16906001600160a01b0316331481610d94575b50610d8557833595865f52600c60205260ff60405f205416610d7257885f52600a60205260405f2054958615610d5f5715610d495750610e105b855f52600b60205260405f2054908101809111610d35574210610d2657610bef906044830195876064610b83896116a7565b950194610bd96074610b95888b6116bb565b80604095929551958693602085019889528d60408601526001600160601b03199060601b1660608501528484013781015f838201520301601f198101835282611626565b5190209889926044359260248035930190611a3f565b15610d17575f858152600c60205260409020805460ff19166001179055610c28906001600160a01b03610c21866116a7565b16936116bb565b92803b15610d1357610c61935f809460405196879586948593630302ac5d60e41b855260048501526040602485015260448401916116ed565b03925af18015610d0857610cc5575b50917f994c669cfd9c0453d42c933a11c002a34d12d85563aebe99ca525fffc45454f89391610ca06080946116a7565b604080519485526020850193909352918301526001600160a01b03166060820152a180f35b60809391955091610cf85f7f994c669cfd9c0453d42c933a11c002a34d12d85563aebe99ca525fffc45454f89694611626565b610ca05f96929450509193610c70565b6040513d5f823e3d90fd5b5f80fd5b63582f497d60e11b5f5260045ffd5b63a4f7d3e960e01b5f5260045ffd5b634e487b7160e01b5f52601160045260245ffd5b8303610d575761012c610b51565b61012c610b51565b896355d7a68b60e01b5f5260045260245ffd5b866338503e3360e21b5f5260045260245ffd5b6313a5ef3f60e21b5f5260045ffd5b9050155f610b17565b63d93c066560e01b5f5260045ffd5b9050155f610af7565b50858314610ade565b9094506020813d602011610dea575b81610dda60209383611626565b81010312610d135751935f610acc565b3d9150610dcd565b90506020843d602011610e1f575b81610e0d60209383611626565b81010312610d13576004935190610a97565b3d9150610e00565b63137de62760e21b5f5260045ffd5b34610d13576040366003190112610d1357610e4f6115fa565b6004355f525f516020611bff5f395f51905f5260205260405f209060018060a01b03165f52602052602060ff60405f2054166040519015158152f35b34610d13575f366003190112610d1357335f52600460205260405f205415610ef757610eb5611692565b610e275742600655620151804201804211610d355760207f9a878a4ae6a3ebc7d241df3b1837491b2b9a9cdd0580170a7f2c555d7b15ad8b91604051908152a1005b63d3e7b38160e01b5f5260045ffd5b34610d13575f366003190112610d1357610f1e61170d565b5f516020611c1f5f395f51905f525460ff8116610d9d5760019060ff1916175f516020611c1f5f395f51905f52557f62e78cea01bee320cd4e420270b5ea74000d11b0c9f74754ebdbfc544b05a2586020604051338152a1005b34610d13575f366003190112610d13576040518060206003549283815201809260035f527fc2575a0e9e593c00f959f8c92f12db2869c3395a3b0502d05e2516446f71f85b905f5b8181106110215750505081610fd6910382611626565b604051918291602083019060208452518091526040830191905f5b818110610fff575050500390f35b82516001600160a01b0316845285945060209384019390920191600101610ff1565b8254845260209093019260019283019201610fc0565b34610d13575f366003190112610d1357602060ff5f516020611c1f5f395f51905f5254166040519015158152f35b34610d13575f366003190112610d1357602061107f611692565b6040519015158152f35b34610d13575f366003190112610d13577f00000000000000000000000000000000000000000000000000000000000000006001600160a01b031630036110e05760206040515f516020611bdf5f395f51905f528152f35b63703e46dd60e11b5f5260045ffd5b34610d13575f366003190112610d13576020604051611c208152f35b6040366003190112610d135761111f611610565b602435906001600160401b038211610d135736602383011215610d135781600401359061114b8261165b565b916111596040519384611626565b80835260208301933660248383010111610d1357815f926024602093018737840101526001600160a01b037f000000000000000000000000000000000000000000000000000000000000000016308114908115611360575b506110e057335f9081527fb7db2dd08fcb62d0c9e08c51941cae53c267786a0b75803fb7960902fc8ef97d602052604090205460ff1615611349576040516352d1902d60e01b81526001600160a01b0382169390602081600481885afa5f9181611315575b5061122e5784634c9c8ce360e01b5f5260045260245ffd5b805f516020611bdf5f395f51905f528692036113035750823b156112f1575f516020611bdf5f395f51905f5280546001600160a01b031916821790557fbc7cd75a20ee27fd9adebab32041f755214dbc6bffa90cc0225b39da2e5c2d3b5f80a28251156112d8575f80916112ce945190845af43d156112d0573d916112b28361165b565b926112c06040519485611626565b83523d5f602085013e611b80565b005b606091611b80565b505050346112e257005b63b398979f60e01b5f5260045ffd5b634c9c8ce360e01b5f5260045260245ffd5b632a87526960e21b5f5260045260245ffd5b9091506020813d602011611341575b8161133160209383611626565b81010312610d1357519086611216565b3d9150611324565b63e2517d3f60e01b5f52336004525f60245260445ffd5b5f516020611bdf5f395f51905f52546001600160a01b031614159050846111b1565b34610d13575f366003190112610d13576020600854604051908152f35b34610d13576020366003190112610d13576004355f52600b602052602060405f2054604051908152f35b34610d13575f366003190112610d13576113e161170d565b5f516020611c1f5f395f51905f525460ff8116156114385760ff19165f516020611c1f5f395f51905f52557f5db9ee0a495bf2e6ff9c91a7834c1ba4fdd244a5e8aa4e537bd38aeae4b073aa6020604051338152a1005b638dfc202b60e01b5f5260045ffd5b34610d13576040366003190112610d13576114606115fa565b336001600160a01b0382160361147c576112ce906004356119a3565b63334bd91960e11b5f5260045ffd5b34610d13576040366003190112610d13576112ce6004356114aa6115fa565b906114d0610527825f525f516020611bff5f395f51905f52602052600160405f20015490565b6118ff565b34610d13575f366003190112610d13576005546040516001600160a01b039091168152602090f35b34610d13576020366003190112610d135760206115346004355f525f516020611bff5f395f51905f52602052600160405f20015490565b604051908152f35b34610d13575f366003190112610d13576020604051610e108152f35b34610d13576020366003190112610d13576004355f52600a602052602060405f2054604051908152f35b34610d13576020366003190112610d135760043563ffffffff60e01b8116809103610d1357602090637965db0b60e01b81149081156115c7575b506040519015158152f35b6301ffc9a760e01b149050826115bc565b34610d13575f366003190112610d13575f546001600160a01b03168152602090f35b602435906001600160a01b0382168203610d1357565b600435906001600160a01b0382168203610d1357565b90601f801991011681019081106001600160401b0382111761164757604052565b634e487b7160e01b5f52604160045260245ffd5b6001600160401b03811161164757601f01601f191660200190565b34610d13575f366003190112610d1357602060405161012c8152f35b600654620151808101809111610d3557421090565b356001600160a01b0381168103610d135790565b903590601e1981360301821215610d1357018035906001600160401b038211610d1357602001918136038313610d1357565b908060209392818452848401375f828201840152601f01601f1916010190565b335f9081527f2222dce04fae1e25cd76e9391151ad9e0187ef92144ac6ce9e4e09f2c453b751602052604090205460ff161561174557565b63e2517d3f60e01b5f5233600452600160245260445ffd5b5f8181525f516020611bff5f395f51905f526020908152604080832033845290915290205460ff161561178d5750565b63e2517d3f60e01b5f523360045260245260445ffd5b6001600160a01b0381165f9081527fb7db2dd08fcb62d0c9e08c51941cae53c267786a0b75803fb7960902fc8ef97d602052604090205460ff1661184d576001600160a01b03165f8181527fb7db2dd08fcb62d0c9e08c51941cae53c267786a0b75803fb7960902fc8ef97d60205260408120805460ff191660011790553391907f2f8788117e7eff1d82e926ec794901d17c78024a50270940304540a733656f0d8180a4600190565b505f90565b6001600160a01b0381165f9081527f2222dce04fae1e25cd76e9391151ad9e0187ef92144ac6ce9e4e09f2c453b751602052604090205460ff1661184d576001600160a01b03165f8181527f2222dce04fae1e25cd76e9391151ad9e0187ef92144ac6ce9e4e09f2c453b75160205260408120805460ff191660019081179091553392917f2f8788117e7eff1d82e926ec794901d17c78024a50270940304540a733656f0d9080a4600190565b5f8181525f516020611bff5f395f51905f52602090815260408083206001600160a01b038616845290915290205460ff1661199d575f8181525f516020611bff5f395f51905f52602090815260408083206001600160a01b0395909516808452949091528120805460ff19166001179055339291907f2f8788117e7eff1d82e926ec794901d17c78024a50270940304540a733656f0d9080a4600190565b50505f90565b5f8181525f516020611bff5f395f51905f52602090815260408083206001600160a01b038616845290915290205460ff161561199d575f8181525f516020611bff5f395f51905f52602090815260408083206001600160a01b0395909516808452949091528120805460ff19169055339291907ff6391f5c32d9c69d2a47ea670b442974b53935d1edc7fd64eb21e047a839171b9080a4600190565b91949590929384811015611ac3575f969092905b86881015611ab957808860051b860135906001808716148015611aad575b15611a9857505f5260205260018060405f20945b811c965f1901811c019701969492611a53565b9091505f5260205260018060405f2094611a85565b50876001870114611a71565b1495509350505050565b509450505050505f90565b60ff5f516020611c3f5f395f51905f525460401c1615611aea57565b631afcd79f60e31b5f5260045ffd5b805f52600460205260405f2054155f1461184d5760035468010000000000000000811015611647576001810180600355811015611b6c577fc2575a0e9e593c00f959f8c92f12db2869c3395a3b0502d05e2516446f71f85b018190556003545f9182526004602052604090912055600190565b634e487b7160e01b5f52603260045260245ffd5b90611ba45750805115611b9557602081519101fd5b63d6bda27560e01b5f5260045ffd5b81511580611bd5575b611bb5575090565b639996b31560e01b5f9081526001600160a01b0391909116600452602490fd5b50803b15611bad56fe360894a13ba1a3210667c828492db98dca3e2076cc3735a920a3ca505d382bbc02dd7bc7dec4dceedda775e58dd541e08a116c6c53815c0bd028192f7b626800cd5ed15c6e187e77e9aee88184c21f4f2182ab5827cb3b7e07fbedcd63f03300f0c57e16840df040f15088dc2f81fe391c3923bec73e23a9662efc9c229c6a00f0c57e16840df040f15088dc2f81fe391c3923bec73e23a9662efc9c229c6a00","linkReferences":{}},"methodIdentifiers":{"CHALLENGE_ROOT_DELAY()":"ced1098b","DEFAULT_ADMIN_ROLE()":"a217fddf","MAX_BLOCK_DISTANCE()":"50b0952b","PAUSER_ROLE()":"e63ab1e9","PROCESS_ADMIN_MESSAGE_DELAY()":"20191654","PROCESS_PAUSER_MESSAGE_DELAY()":"867b8278","PROCESS_USER_MESSAGE_DELAY()":"a181333c","UPGRADE_INTERFACE_VERSION()":"ad3cb1cc","challengeRoot()":"87e97e8c","emergencyStopAdmin()":"b13f222c","emergencyStopObservers()":"76afc14f","genesisBlock()":"4cdc9c63","getMerkleRoot(uint256)":"0aab8ba5","getMerkleRootTimestamp(bytes32)":"4610d3aa","getRoleAdmin(bytes32)":"248a9ca3","governanceAdmin()":"0058f6b8","governancePauser()":"c81eb797","grantRole(bytes32,address)":"2f2ff15d","hasRole(bytes32,address)":"91d14854","initialize(address,address,address,address[],address)":"e3b1a2b3","isChallengingRoot()":"52d190f3","isEmergencyStopped()":"fddd4837","isProcessed(uint256)":"bfe7edd7","maxBlockNumber()":"a912fd25","pause()":"8456cb59","paused()":"5c975abb","processMessage(uint256,uint256,uint256,(uint256,bytes32,address,bytes),bytes32[])":"93eb47e9","proxiableUUID()":"52d1902d","renounceRole(bytes32,address)":"36568abe","revokeRole(bytes32,address)":"d547741f","submitMerkleRoot(uint256,bytes32,bytes)":"cca66a9d","supportsInterface(bytes4)":"01ffc9a7","unpause()":"3f4ba83a","upgradeToAndCall(address,bytes)":"4f1ef286","verifier()":"2b7ac3f3"},"storageLayout":{"storage":[{"astId":61972,"contract":"src/MessageQueue.sol:MessageQueue","label":"_governanceAdmin","offset":0,"slot":"0","type":"t_contract(IGovernance)63721"},{"astId":61975,"contract":"src/MessageQueue.sol:MessageQueue","label":"_governancePauser","offset":0,"slot":"1","type":"t_contract(IGovernance)63721"},{"astId":61977,"contract":"src/MessageQueue.sol:MessageQueue","label":"_emergencyStopAdmin","offset":0,"slot":"2","type":"t_address"},{"astId":61980,"contract":"src/MessageQueue.sol:MessageQueue","label":"_emergencyStopObservers","offset":0,"slot":"3","type":"t_struct(AddressSet)54318_storage"},{"astId":61983,"contract":"src/MessageQueue.sol:MessageQueue","label":"_verifier","offset":0,"slot":"5","type":"t_contract(IVerifier)64165"},{"astId":61985,"contract":"src/MessageQueue.sol:MessageQueue","label":"_challengingRootTimestamp","offset":0,"slot":"6","type":"t_uint256"},{"astId":61987,"contract":"src/MessageQueue.sol:MessageQueue","label":"_emergencyStop","offset":0,"slot":"7","type":"t_bool"},{"astId":61989,"contract":"src/MessageQueue.sol:MessageQueue","label":"_genesisBlock","offset":0,"slot":"8","type":"t_uint256"},{"astId":61991,"contract":"src/MessageQueue.sol:MessageQueue","label":"_maxBlockNumber","offset":0,"slot":"9","type":"t_uint256"},{"astId":61995,"contract":"src/MessageQueue.sol:MessageQueue","label":"_blockNumbers","offset":0,"slot":"10","type":"t_mapping(t_uint256,t_bytes32)"},{"astId":61999,"contract":"src/MessageQueue.sol:MessageQueue","label":"_merkleRootTimestamps","offset":0,"slot":"11","type":"t_mapping(t_bytes32,t_uint256)"},{"astId":62003,"contract":"src/MessageQueue.sol:MessageQueue","label":"_processedMessages","offset":0,"slot":"12","type":"t_mapping(t_uint256,t_bool)"}],"types":{"t_address":{"encoding":"inplace","label":"address","numberOfBytes":"20"},"t_array(t_bytes32)dyn_storage":{"encoding":"dynamic_array","label":"bytes32[]","numberOfBytes":"32","base":"t_bytes32"},"t_bool":{"encoding":"inplace","label":"bool","numberOfBytes":"1"},"t_bytes32":{"encoding":"inplace","label":"bytes32","numberOfBytes":"32"},"t_contract(IGovernance)63721":{"encoding":"inplace","label":"contract IGovernance","numberOfBytes":"20"},"t_contract(IVerifier)64165":{"encoding":"inplace","label":"contract IVerifier","numberOfBytes":"20"},"t_mapping(t_bytes32,t_uint256)":{"encoding":"mapping","key":"t_bytes32","label":"mapping(bytes32 => uint256)","numberOfBytes":"32","value":"t_uint256"},"t_mapping(t_uint256,t_bool)":{"encoding":"mapping","key":"t_uint256","label":"mapping(uint256 => bool)","numberOfBytes":"32","value":"t_bool"},"t_mapping(t_uint256,t_bytes32)":{"encoding":"mapping","key":"t_uint256","label":"mapping(uint256 => bytes32)","numberOfBytes":"32","value":"t_bytes32"},"t_struct(AddressSet)54318_storage":{"encoding":"inplace","label":"struct EnumerableSet.AddressSet","numberOfBytes":"64","members":[{"astId":54317,"contract":"src/MessageQueue.sol:MessageQueue","label":"_inner","offset":0,"slot":"0","type":"t_struct(Set)53832_storage"}]},"t_struct(Set)53832_storage":{"encoding":"inplace","label":"struct EnumerableSet.Set","numberOfBytes":"64","members":[{"astId":53827,"contract":"src/MessageQueue.sol:MessageQueue","label":"_values","offset":0,"slot":"0","type":"t_array(t_bytes32)dyn_storage"},{"astId":53831,"contract":"src/MessageQueue.sol:MessageQueue","label":"_positions","offset":0,"slot":"1","type":"t_mapping(t_bytes32,t_uint256)"}]},"t_uint256":{"encoding":"inplace","label":"uint256","numberOfBytes":"32"}}},"id":88}