{"abi":[{"type":"constructor","inputs":[],"stateMutability":"nonpayable"},{"type":"function","name":"CHALLENGE_ROOT_DELAY","inputs":[],"outputs":[{"name":"","type":"uint256","internalType":"uint256"}],"stateMutability":"view"},{"type":"function","name":"DEFAULT_ADMIN_ROLE","inputs":[],"outputs":[{"name":"","type":"bytes32","internalType":"bytes32"}],"stateMutability":"view"},{"type":"function","name":"MAX_BLOCK_DISTANCE","inputs":[],"outputs":[{"name":"","type":"uint256","internalType":"uint256"}],"stateMutability":"view"},{"type":"function","name":"PAUSER_ROLE","inputs":[],"outputs":[{"name":"","type":"bytes32","internalType":"bytes32"}],"stateMutability":"view"},{"type":"function","name":"PROCESS_ADMIN_MESSAGE_DELAY","inputs":[],"outputs":[{"name":"","type":"uint256","internalType":"uint256"}],"stateMutability":"view"},{"type":"function","name":"PROCESS_PAUSER_MESSAGE_DELAY","inputs":[],"outputs":[{"name":"","type":"uint256","internalType":"uint256"}],"stateMutability":"view"},{"type":"function","name":"PROCESS_USER_MESSAGE_DELAY","inputs":[],"outputs":[{"name":"","type":"uint256","internalType":"uint256"}],"stateMutability":"view"},{"type":"function","name":"UPGRADE_INTERFACE_VERSION","inputs":[],"outputs":[{"name":"","type":"string","internalType":"string"}],"stateMutability":"view"},{"type":"function","name":"allowMessageProcessing","inputs":[],"outputs":[],"stateMutability":"nonpayable"},{"type":"function","name":"challengeRoot","inputs":[],"outputs":[],"stateMutability":"nonpayable"},{"type":"function","name":"disableChallengeRoot","inputs":[],"outputs":[],"stateMutability":"nonpayable"},{"type":"function","name":"emergencyStopAdmin","inputs":[],"outputs":[{"name":"","type":"address","internalType":"address"}],"stateMutability":"view"},{"type":"function","name":"emergencyStopObservers","inputs":[],"outputs":[{"name":"","type":"address[]","internalType":"address[]"}],"stateMutability":"view"},{"type":"function","name":"genesisBlock","inputs":[],"outputs":[{"name":"","type":"uint256","internalType":"uint256"}],"stateMutability":"view"},{"type":"function","name":"getMerkleRoot","inputs":[{"name":"blockNumber","type":"uint256","internalType":"uint256"}],"outputs":[{"name":"","type":"bytes32","internalType":"bytes32"}],"stateMutability":"view"},{"type":"function","name":"getMerkleRootTimestamp","inputs":[{"name":"merkleRoot","type":"bytes32","internalType":"bytes32"}],"outputs":[{"name":"","type":"uint256","internalType":"uint256"}],"stateMutability":"view"},{"type":"function","name":"getRoleAdmin","inputs":[{"name":"role","type":"bytes32","internalType":"bytes32"}],"outputs":[{"name":"","type":"bytes32","internalType":"bytes32"}],"stateMutability":"view"},{"type":"function","name":"governanceAdmin","inputs":[],"outputs":[{"name":"","type":"address","internalType":"address"}],"stateMutability":"view"},{"type":"function","name":"governancePauser","inputs":[],"outputs":[{"name":"","type":"address","internalType":"address"}],"stateMutability":"view"},{"type":"function","name":"grantRole","inputs":[{"name":"role","type":"bytes32","internalType":"bytes32"},{"name":"account","type":"address","internalType":"address"}],"outputs":[],"stateMutability":"nonpayable"},{"type":"function","name":"hasRole","inputs":[{"name":"role","type":"bytes32","internalType":"bytes32"},{"name":"account","type":"address","internalType":"address"}],"outputs":[{"name":"","type":"bool","internalType":"bool"}],"stateMutability":"view"},{"type":"function","name":"initialize","inputs":[{"name":"governanceAdmin_","type":"address","internalType":"contract IGovernance"},{"name":"governancePauser_","type":"address","internalType":"contract IGovernance"},{"name":"emergencyStopAdmin_","type":"address","internalType":"address"},{"name":"emergencyStopObservers_","type":"address[]","internalType":"address[]"},{"name":"verifier_","type":"address","internalType":"contract IVerifier"}],"outputs":[],"stateMutability":"nonpayable"},{"type":"function","name":"isChallengingRoot","inputs":[],"outputs":[{"name":"","type":"bool","internalType":"bool"}],"stateMutability":"view"},{"type":"function","name":"isEmergencyStopped","inputs":[],"outputs":[{"name":"","type":"bool","internalType":"bool"}],"stateMutability":"view"},{"type":"function","name":"isProcessed","inputs":[{"name":"messageNonce","type":"uint256","internalType":"uint256"}],"outputs":[{"name":"","type":"bool","internalType":"bool"}],"stateMutability":"view"},{"type":"function","name":"maxBlockNumber","inputs":[],"outputs":[{"name":"","type":"uint256","internalType":"uint256"}],"stateMutability":"view"},{"type":"function","name":"pause","inputs":[],"outputs":[],"stateMutability":"nonpayable"},{"type":"function","name":"paused","inputs":[],"outputs":[{"name":"","type":"bool","internalType":"bool"}],"stateMutability":"view"},{"type":"function","name":"processMessage","inputs":[{"name":"blockNumber","type":"uint256","internalType":"uint256"},{"name":"totalLeaves","type":"uint256","internalType":"uint256"},{"name":"leafIndex","type":"uint256","internalType":"uint256"},{"name":"message","type":"tuple","internalType":"struct VaraMessage","components":[{"name":"nonce","type":"uint256","internalType":"uint256"},{"name":"source","type":"bytes32","internalType":"bytes32"},{"name":"destination","type":"address","internalType":"address"},{"name":"payload","type":"bytes","internalType":"bytes"}]},{"name":"proof","type":"bytes32[]","internalType":"bytes32[]"}],"outputs":[],"stateMutability":"nonpayable"},{"type":"function","name":"proxiableUUID","inputs":[],"outputs":[{"name":"","type":"bytes32","internalType":"bytes32"}],"stateMutability":"view"},{"type":"function","name":"renounceRole","inputs":[{"name":"role","type":"bytes32","internalType":"bytes32"},{"name":"callerConfirmation","type":"address","internalType":"address"}],"outputs":[],"stateMutability":"nonpayable"},{"type":"function","name":"revokeRole","inputs":[{"name":"role","type":"bytes32","internalType":"bytes32"},{"name":"account","type":"address","internalType":"address"}],"outputs":[],"stateMutability":"nonpayable"},{"type":"function","name":"submitMerkleRoot","inputs":[{"name":"blockNumber","type":"uint256","internalType":"uint256"},{"name":"merkleRoot","type":"bytes32","internalType":"bytes32"},{"name":"proof","type":"bytes","internalType":"bytes"}],"outputs":[],"stateMutability":"nonpayable"},{"type":"function","name":"supportsInterface","inputs":[{"name":"interfaceId","type":"bytes4","internalType":"bytes4"}],"outputs":[{"name":"","type":"bool","internalType":"bool"}],"stateMutability":"view"},{"type":"function","name":"unpause","inputs":[],"outputs":[],"stateMutability":"nonpayable"},{"type":"function","name":"upgradeToAndCall","inputs":[{"name":"newImplementation","type":"address","internalType":"address"},{"name":"data","type":"bytes","internalType":"bytes"}],"outputs":[],"stateMutability":"payable"},{"type":"function","name":"verifier","inputs":[],"outputs":[{"name":"","type":"address","internalType":"address"}],"stateMutability":"view"},{"type":"event","name":"ChallengeRootDisabled","inputs":[],"anonymous":false},{"type":"event","name":"ChallengeRootEnabled","inputs":[{"name":"untilTimestamp","type":"uint256","indexed":false,"internalType":"uint256"}],"anonymous":false},{"type":"event","name":"EmergencyStopDisabled","inputs":[],"anonymous":false},{"type":"event","name":"EmergencyStopEnabled","inputs":[],"anonymous":false},{"type":"event","name":"Initialized","inputs":[{"name":"version","type":"uint64","indexed":false,"internalType":"uint64"}],"anonymous":false},{"type":"event","name":"MerkleRoot","inputs":[{"name":"blockNumber","type":"uint256","indexed":false,"internalType":"uint256"},{"name":"merkleRoot","type":"bytes32","indexed":false,"internalType":"bytes32"}],"anonymous":false},{"type":"event","name":"MessageProcessed","inputs":[{"name":"blockNumber","type":"uint256","indexed":false,"internalType":"uint256"},{"name":"messageHash","type":"bytes32","indexed":false,"internalType":"bytes32"},{"name":"messageNonce","type":"uint256","indexed":false,"internalType":"uint256"},{"name":"messageDestination","type":"address","indexed":false,"internalType":"address"}],"anonymous":false},{"type":"event","name":"MessageProcessingAllowed","inputs":[],"anonymous":false},{"type":"event","name":"Paused","inputs":[{"name":"account","type":"address","indexed":false,"internalType":"address"}],"anonymous":false},{"type":"event","name":"RoleAdminChanged","inputs":[{"name":"role","type":"bytes32","indexed":true,"internalType":"bytes32"},{"name":"previousAdminRole","type":"bytes32","indexed":true,"internalType":"bytes32"},{"name":"newAdminRole","type":"bytes32","indexed":true,"internalType":"bytes32"}],"anonymous":false},{"type":"event","name":"RoleGranted","inputs":[{"name":"role","type":"bytes32","indexed":true,"internalType":"bytes32"},{"name":"account","type":"address","indexed":true,"internalType":"address"},{"name":"sender","type":"address","indexed":true,"internalType":"address"}],"anonymous":false},{"type":"event","name":"RoleRevoked","inputs":[{"name":"role","type":"bytes32","indexed":true,"internalType":"bytes32"},{"name":"account","type":"address","indexed":true,"internalType":"address"},{"name":"sender","type":"address","indexed":true,"internalType":"address"}],"anonymous":false},{"type":"event","name":"Unpaused","inputs":[{"name":"account","type":"address","indexed":false,"internalType":"address"}],"anonymous":false},{"type":"event","name":"Upgraded","inputs":[{"name":"implementation","type":"address","indexed":true,"internalType":"address"}],"anonymous":false},{"type":"error","name":"AccessControlBadConfirmation","inputs":[]},{"type":"error","name":"AccessControlUnauthorizedAccount","inputs":[{"name":"account","type":"address","internalType":"address"},{"name":"neededRole","type":"bytes32","internalType":"bytes32"}]},{"type":"error","name":"AddressEmptyCode","inputs":[{"name":"target","type":"address","internalType":"address"}]},{"type":"error","name":"BlockNumberBeforeGenesis","inputs":[{"name":"blockNumber","type":"uint256","internalType":"uint256"},{"name":"genesisBlock","type":"uint256","internalType":"uint256"}]},{"type":"error","name":"BlockNumberTooFar","inputs":[{"name":"blockNumber","type":"uint256","internalType":"uint256"},{"name":"maxBlockNumber","type":"uint256","internalType":"uint256"}]},{"type":"error","name":"ChallengeRoot","inputs":[]},{"type":"error","name":"ChallengeRootNotEnabled","inputs":[]},{"type":"error","name":"ERC1967InvalidImplementation","inputs":[{"name":"implementation","type":"address","internalType":"address"}]},{"type":"error","name":"ERC1967NonPayable","inputs":[]},{"type":"error","name":"EmergencyStop","inputs":[]},{"type":"error","name":"EmergencyStopNotEnabled","inputs":[]},{"type":"error","name":"EnforcedPause","inputs":[]},{"type":"error","name":"ExpectedPause","inputs":[]},{"type":"error","name":"FailedCall","inputs":[]},{"type":"error","name":"InvalidInitialization","inputs":[]},{"type":"error","name":"InvalidMerkleProof","inputs":[]},{"type":"error","name":"InvalidPlonkProof","inputs":[]},{"type":"error","name":"MerkleRootAlreadySet","inputs":[{"name":"blockNumber","type":"uint256","internalType":"uint256"}]},{"type":"error","name":"MerkleRootDelayNotPassed","inputs":[]},{"type":"error","name":"MerkleRootNotFound","inputs":[{"name":"blockNumber","type":"uint256","internalType":"uint256"}]},{"type":"error","name":"MessageAlreadyProcessed","inputs":[{"name":"messageNonce","type":"uint256","internalType":"uint256"}]},{"type":"error","name":"NotEmergencyStopAdmin","inputs":[]},{"type":"error","name":"NotEmergencyStopObserver","inputs":[]},{"type":"error","name":"NotInitializing","inputs":[]},{"type":"error","name":"UUPSUnauthorizedCallContext","inputs":[]},{"type":"error","name":"UUPSUnsupportedProxiableUUID","inputs":[{"name":"slot","type":"bytes32","internalType":"bytes32"}]}],"bytecode":{"object":"0x60a080604052346100c257306080525f516020611e385f395f51905f525460ff8160401c166100b3576002600160401b03196001600160401b03821601610060575b604051611d7190816100c782396080518181816110dd01526111d30152f35b6001600160401b0319166001600160401b039081175f516020611e385f395f51905f525581527fc7f505b2f371ae2175ee4913f4499e1f2633a7b5936321eed1cdaeb6115181d290602090a15f80610041565b63f92ee8a960e01b5f5260045ffd5b5f80fdfe60806040526004361015610011575f80fd5b5f5f3560e01c80624907451461169e57806258f6b81461167757806301ffc9a7146116215780630aab8ba5146115f75780630f926c02146115805780632019165414611564578063248a9ca3146115255780632b7ac3f3146114fd5780632f2ff15d146114b357806336568abe1461146f5780633f4ba83a146113f15780634610d3aa146113c75780634cdc9c63146113aa5780634f1ef2861461114d57806350b0952b1461113157806352d1902d146110cb57806352d190f3146110a75780635c975abb1461107957806376afc14f14610fba5780638456cb5914610f48578063867b827814610a1457806387e97e8c14610ed957806391d1485414610e8457806393eb47e914610a19578063a181333c14610a14578063a217fddf146109f8578063a912fd25146109da578063ad3cb1cc1461097e578063b13f222c14610955578063bfe7edd714610926578063c81eb797146108fd578063cca66a9d1461055c578063ced1098b1461053e578063d547741f146104ea578063e3b1a2b3146101f0578063e63ab1e9146101d45763fddd4837146101af575f80fd5b346101d157806003193601126101d157602060ff600754166040519015158152f35b80fd5b50346101d157806003193601126101d157602060405160018152f35b50346101d15760a03660031901126101d15761020a611723565b9061021361170d565b906044359260018060a01b0384168094036104e657606435936001600160401b0385116104e257366023860112156104e2578460040135946001600160401b0386116104ce578560051b9060208201966102706040519889611739565b875260246020880192820101903682116104ca57602401915b8183106104a6575050506084356001600160a01b03811694908590036104a2575f516020611d515f395f51905f52549260ff8460401c1615936001600160401b0381168015908161049a575b6001149081610490575b159081610487575b506104785767ffffffffffffffff1981166001175f516020611d515f395f51905f52558461044c575b50610319611bb2565b610321611bb2565b6001600160a01b03169061033482611887565b5061033e82611936565b506001600160a01b03169061035282611936565b506001600160601b0360a01b8554161784556001600160601b0360a01b60015416176001556001600160601b0360a01b6002541617600255815b84518110156103da5784518110156103c657600581901b850160200151600191906103bf906001600160a01b0316611bdd565b500161038c565b634e487b7160e01b83526032600452602483fd5b50600580546001600160a01b031916841790556103f45780f35b68ff0000000000000000195f516020611d515f395f51905f5254165f516020611d515f395f51905f52557fc7f505b2f371ae2175ee4913f4499e1f2633a7b5936321eed1cdaeb6115181d2602060405160018152a180f35b68ffffffffffffffffff191668010000000000000001175f516020611d515f395f51905f52555f610310565b63f92ee8a960e01b8652600486fd5b9050155f6102e7565b303b1591506102df565b8691506102d5565b8380fd5b82356001600160a01b03811681036104c657815260209283019201610289565b8680fd5b8580fd5b634e487b7160e01b84526041600452602484fd5b8280fd5b5080fd5b50346101d15760403660031901126101d15761053a60043561050a61170d565b90610535610530825f525f516020611d115f395f51905f52602052600160405f20015490565b611841565b611a87565b5080f35b50346101d157806003193601126101d15760206040516202a3008152f35b50346101d15760603660031901126101d1576024356004356044356001600160401b0381116104a257366023820112156104a2578060040135906001600160401b0382116108f95736602483830101116108f9576002546001600160a01b031633146105c6611776565b806108f1575b6108e25760ff6007541690816108d9575b506108ca5760085480610864575082600855826009555b604051610602606082611739565b6002815260208101906040368337805115610850578560401c8252805160011015610850579192906040830163ffffffff60601b8660601b166001600160401b0360801b8860801b1617905260018060a01b0360055416926020610683604051968795633054963960e01b87526040600488015260246044880192016117d1565b848103600319016024860152915180835291019190885b8181106108375750505091818060209403915afa90811561082c5784916107f1575b50156107e257808352600b602052604083205491821561078057821461076e578252600b6020528160408120558152600c60205280604081205560075460ff811615610706575080f35b60ff19166001176007557f015567d35557fdfcbb3bbfe9dbf4f5c651cb9e461e784ac02c8152fbdb7319718180a161073c611776565b6107435780f35b806006557fa6262a506984c4ee15f889b617462c54ac45d6d7739c9cdceea59098ee5edeb88180a180f35b638d60c7ab60e01b8352600452602482fd5b7f48211a20c285b6b077b7917b8bb118eaa92efdfb8fa2e3b114ffa253e0b665ae925090604091818552600b6020528083862055808552600c602052428386205560095482116107d9575b82519182526020820152a180f35b816009556107cb565b636859a69960e11b8352600483fd5b90506020813d602011610824575b8161080c60209383611739565b810103126104a2575180151581036104a2575f6106bc565b3d91506107ff565b6040513d86823e3d90fd5b825184528694506020938401939092019160010161069a565b634e487b7160e01b87526032600452602487fd5b8084106108b35750600954611c20810180911161089f5780841161088857506105f4565b631931db8560e11b86526004849052602452604485fd5b634e487b7160e01b86526011600452602486fd5b63e370b92d60e01b86526004849052602452604485fd5b6313a5ef3f60e21b8552600485fd5b9050155f6105dd565b63137de62760e21b8652600486fd5b5080156105cc565b8480fd5b50346101d157806003193601126101d1576001546040516001600160a01b039091168152602090f35b50346101d15760203660031901126101d15760ff60406020926004358152600d84522054166040519015158152f35b50346101d157806003193601126101d1576002546040516001600160a01b039091168152602090f35b50346101d157806003193601126101d1576040805161099d8282611739565b6005815260208101640352e302e360dc1b81528251938492602084525180928160208601528585015e828201840152601f01601f19168101030190f35b50346101d157806003193601126101d1576020600954604051908152f35b50346101d157806003193601126101d157602090604051908152f35b61175a565b5034610d555760a0366003190112610d55576004356064356001600160401b038111610d5557806004019060806003198236030112610d5557608435916001600160401b038311610d555736602384011215610d55578260040135906001600160401b038211610d55573660248360051b86010111610d5557610a9a611776565b610e75575f54604051635aa6e67560e01b81529390602090859060049082906001600160a01b03165afa908115610d4a575f91610e40575b600154604051635aa6e67560e01b81529550602090869060049082906001600160a01b03165afa948515610d4a575f95610e0c575b50602481013591821493848015610e03575b60ff5f516020611d315f395f51905f5254169081610dfa575b50610deb576002546001600160a01b031633148015610ddf575b60ff600754169081610dd6575b50610dc757833595865f52600d60205260ff60405f205416610db457885f52600b60205260405f2054958615610da15715610d8b5750610e105b855f52600c60205260405f2054908101809111610d77574210610d6857610c31906044830195876064610bc58961178b565b950194610c1b6074610bd7888b61179f565b80604095929551958693602085019889528d60408601526001600160601b03199060601b1660608501528484013781015f838201520301601f198101835282611739565b5190209889926044359260248035930190611b23565b15610d59575f858152600d60205260409020805460ff19166001179055610c6a906001600160a01b03610c638661178b565b169361179f565b92803b15610d5557610ca3935f809460405196879586948593630302ac5d60e41b855260048501526040602485015260448401916117d1565b03925af18015610d4a57610d07575b50917f994c669cfd9c0453d42c933a11c002a34d12d85563aebe99ca525fffc45454f89391610ce260809461178b565b604080519485526020850193909352918301526001600160a01b03166060820152a180f35b60809391955091610d3a5f7f994c669cfd9c0453d42c933a11c002a34d12d85563aebe99ca525fffc45454f89694611739565b610ce25f96929450509193610cb2565b6040513d5f823e3d90fd5b5f80fd5b63582f497d60e11b5f5260045ffd5b63a4f7d3e960e01b5f5260045ffd5b634e487b7160e01b5f52601160045260245ffd5b8303610d995761012c610b93565b61012c610b93565b896355d7a68b60e01b5f5260045260245ffd5b866338503e3360e21b5f5260045260245ffd5b6313a5ef3f60e21b5f5260045ffd5b9050155f610b59565b5060ff600a5416610b4c565b63d93c066560e01b5f5260045ffd5b9050155f610b32565b50858314610b19565b9094506020813d602011610e38575b81610e2860209383611739565b81010312610d555751935f610b07565b3d9150610e1b565b90506020843d602011610e6d575b81610e5b60209383611739565b81010312610d55576004935190610ad2565b3d9150610e4e565b63137de62760e21b5f5260045ffd5b34610d55576040366003190112610d5557610e9d61170d565b6004355f525f516020611d115f395f51905f5260205260405f209060018060a01b03165f52602052602060ff60405f2054166040519015158152f35b34610d55575f366003190112610d5557335f52600460205260405f205415610f3957426006556202a3004201804211610d775760207f9a878a4ae6a3ebc7d241df3b1837491b2b9a9cdd0580170a7f2c555d7b15ad8b91604051908152a1005b63d3e7b38160e01b5f5260045ffd5b34610d55575f366003190112610d5557610f606117f1565b5f516020611d315f395f51905f525460ff8116610deb5760019060ff1916175f516020611d315f395f51905f52557f62e78cea01bee320cd4e420270b5ea74000d11b0c9f74754ebdbfc544b05a2586020604051338152a1005b34610d55575f366003190112610d55576040518060206003549283815201809260035f527fc2575a0e9e593c00f959f8c92f12db2869c3395a3b0502d05e2516446f71f85b905f5b8181106110635750505081611018910382611739565b604051918291602083019060208452518091526040830191905f5b818110611041575050500390f35b82516001600160a01b0316845285945060209384019390920191600101611033565b8254845260209093019260019283019201611002565b34610d55575f366003190112610d5557602060ff5f516020611d315f395f51905f5254166040519015158152f35b34610d55575f366003190112610d555760206110c1611776565b6040519015158152f35b34610d55575f366003190112610d55577f00000000000000000000000000000000000000000000000000000000000000006001600160a01b031630036111225760206040515f516020611cf15f395f51905f528152f35b63703e46dd60e11b5f5260045ffd5b34610d55575f366003190112610d55576020604051611c208152f35b6040366003190112610d5557611161611723565b602435906001600160401b038211610d555736602383011215610d555781600401356001600160401b03811161139657604051926111a9601f8301601f191660200185611739565b8184523660248383010111610d5557815f9260246020930183870137840101526001600160a01b037f000000000000000000000000000000000000000000000000000000000000000016308114908115611374575b5061112257335f9081527fb7db2dd08fcb62d0c9e08c51941cae53c267786a0b75803fb7960902fc8ef97d602052604090205460ff161561135d576040516352d1902d60e01b81526001600160a01b0382169290602081600481875afa5f9181611329575b5061127b5783634c9c8ce360e01b5f5260045260245ffd5b805f516020611cf15f395f51905f528592036113175750823b15611305575f516020611cf15f395f51905f5280546001600160a01b031916821790557fbc7cd75a20ee27fd9adebab32041f755214dbc6bffa90cc0225b39da2e5c2d3b5f80a28051156112ed576112eb91611c64565b005b5050346112f657005b63b398979f60e01b5f5260045ffd5b634c9c8ce360e01b5f5260045260245ffd5b632a87526960e21b5f5260045260245ffd5b9091506020813d602011611355575b8161134560209383611739565b81010312610d5557519085611263565b3d9150611338565b63e2517d3f60e01b5f52336004525f60245260445ffd5b5f516020611cf15f395f51905f52546001600160a01b031614159050836111fe565b634e487b7160e01b5f52604160045260245ffd5b34610d55575f366003190112610d55576020600854604051908152f35b34610d55576020366003190112610d55576004355f52600c602052602060405f2054604051908152f35b34610d55575f366003190112610d55576114096117f1565b5f516020611d315f395f51905f525460ff8116156114605760ff19165f516020611d315f395f51905f52557f5db9ee0a495bf2e6ff9c91a7834c1ba4fdd244a5e8aa4e537bd38aeae4b073aa6020604051338152a1005b638dfc202b60e01b5f5260045ffd5b34610d55576040366003190112610d555761148861170d565b336001600160a01b038216036114a4576112eb90600435611a87565b63334bd91960e11b5f5260045ffd5b34610d55576040366003190112610d55576112eb6004356114d261170d565b906114f8610530825f525f516020611d115f395f51905f52602052600160405f20015490565b6119e3565b34610d55575f366003190112610d55576005546040516001600160a01b039091168152602090f35b34610d55576020366003190112610d5557602061155c6004355f525f516020611d115f395f51905f52602052600160405f20015490565b604051908152f35b34610d55575f366003190112610d55576020604051610e108152f35b34610d55575f366003190112610d55576002546001600160a01b031633036115e8576115aa611776565b156115d9575f6006557fa6262a506984c4ee15f889b617462c54ac45d6d7739c9cdceea59098ee5edeb85f80a1005b630cddaee960e01b5f5260045ffd5b63662cadb560e01b5f5260045ffd5b34610d55576020366003190112610d55576004355f52600b602052602060405f2054604051908152f35b34610d55576020366003190112610d555760043563ffffffff60e01b8116809103610d5557602090637965db0b60e01b8114908115611666575b506040519015158152f35b6301ffc9a760e01b1490508261165b565b34610d55575f366003190112610d55575f546040516001600160a01b039091168152602090f35b34610d55575f366003190112610d55576002546001600160a01b031633036115e85760ff60075416156116fe57600160ff19600a541617600a557f9d3e19ea897a0042d94736364efa77853151ca0c20a04f5d4e930a1043122ef85f80a1005b63194ad54d60e31b5f5260045ffd5b602435906001600160a01b0382168203610d5557565b600435906001600160a01b0382168203610d5557565b90601f801991011681019081106001600160401b0382111761139657604052565b34610d55575f366003190112610d5557602060405161012c8152f35b6006546202a3008101809111610d7757421090565b356001600160a01b0381168103610d555790565b903590601e1981360301821215610d5557018035906001600160401b038211610d5557602001918136038313610d5557565b908060209392818452848401375f828201840152601f01601f1916010190565b335f9081527f2222dce04fae1e25cd76e9391151ad9e0187ef92144ac6ce9e4e09f2c453b751602052604090205460ff161561182957565b63e2517d3f60e01b5f5233600452600160245260445ffd5b5f8181525f516020611d115f395f51905f526020908152604080832033845290915290205460ff16156118715750565b63e2517d3f60e01b5f523360045260245260445ffd5b6001600160a01b0381165f9081527fb7db2dd08fcb62d0c9e08c51941cae53c267786a0b75803fb7960902fc8ef97d602052604090205460ff16611931576001600160a01b03165f8181527fb7db2dd08fcb62d0c9e08c51941cae53c267786a0b75803fb7960902fc8ef97d60205260408120805460ff191660011790553391907f2f8788117e7eff1d82e926ec794901d17c78024a50270940304540a733656f0d8180a4600190565b505f90565b6001600160a01b0381165f9081527f2222dce04fae1e25cd76e9391151ad9e0187ef92144ac6ce9e4e09f2c453b751602052604090205460ff16611931576001600160a01b03165f8181527f2222dce04fae1e25cd76e9391151ad9e0187ef92144ac6ce9e4e09f2c453b75160205260408120805460ff191660019081179091553392917f2f8788117e7eff1d82e926ec794901d17c78024a50270940304540a733656f0d9080a4600190565b5f8181525f516020611d115f395f51905f52602090815260408083206001600160a01b038616845290915290205460ff16611a81575f8181525f516020611d115f395f51905f52602090815260408083206001600160a01b0395909516808452949091528120805460ff19166001179055339291907f2f8788117e7eff1d82e926ec794901d17c78024a50270940304540a733656f0d9080a4600190565b50505f90565b5f8181525f516020611d115f395f51905f52602090815260408083206001600160a01b038616845290915290205460ff1615611a81575f8181525f516020611d115f395f51905f52602090815260408083206001600160a01b0395909516808452949091528120805460ff19169055339291907ff6391f5c32d9c69d2a47ea670b442974b53935d1edc7fd64eb21e047a839171b9080a4600190565b91949590929384811015611ba7575f969092905b86881015611b9d57808860051b860135906001808716148015611b91575b15611b7c57505f5260205260018060405f20945b811c965f1901811c019701969492611b37565b9091505f5260205260018060405f2094611b69565b50876001870114611b55565b1495509350505050565b509450505050505f90565b60ff5f516020611d515f395f51905f525460401c1615611bce57565b631afcd79f60e31b5f5260045ffd5b805f52600460205260405f2054155f146119315760035468010000000000000000811015611396576001810180600355811015611c50577fc2575a0e9e593c00f959f8c92f12db2869c3395a3b0502d05e2516446f71f85b018190556003545f9182526004602052604090912055600190565b634e487b7160e01b5f52603260045260245ffd5b905f8091602081519101845af48080611cdd575b15611c985750506040513d81523d5f602083013e60203d82010160405290565b15611cbd57639996b31560e01b5f9081526001600160a01b0391909116600452602490fd5b3d15611cce576040513d5f823e3d90fd5b63d6bda27560e01b5f5260045ffd5b503d151580611c785750813b1515611c7856fe360894a13ba1a3210667c828492db98dca3e2076cc3735a920a3ca505d382bbc02dd7bc7dec4dceedda775e58dd541e08a116c6c53815c0bd028192f7b626800cd5ed15c6e187e77e9aee88184c21f4f2182ab5827cb3b7e07fbedcd63f03300f0c57e16840df040f15088dc2f81fe391c3923bec73e23a9662efc9c229c6a00f0c57e16840df040f15088dc2f81fe391c3923bec73e23a9662efc9c229c6a00","linkReferences":{}},"methodIdentifiers":{"CHALLENGE_ROOT_DELAY()":"ced1098b","DEFAULT_ADMIN_ROLE()":"a217fddf","MAX_BLOCK_DISTANCE()":"50b0952b","PAUSER_ROLE()":"e63ab1e9","PROCESS_ADMIN_MESSAGE_DELAY()":"20191654","PROCESS_PAUSER_MESSAGE_DELAY()":"867b8278","PROCESS_USER_MESSAGE_DELAY()":"a181333c","UPGRADE_INTERFACE_VERSION()":"ad3cb1cc","allowMessageProcessing()":"00490745","challengeRoot()":"87e97e8c","disableChallengeRoot()":"0f926c02","emergencyStopAdmin()":"b13f222c","emergencyStopObservers()":"76afc14f","genesisBlock()":"4cdc9c63","getMerkleRoot(uint256)":"0aab8ba5","getMerkleRootTimestamp(bytes32)":"4610d3aa","getRoleAdmin(bytes32)":"248a9ca3","governanceAdmin()":"0058f6b8","governancePauser()":"c81eb797","grantRole(bytes32,address)":"2f2ff15d","hasRole(bytes32,address)":"91d14854","initialize(address,address,address,address[],address)":"e3b1a2b3","isChallengingRoot()":"52d190f3","isEmergencyStopped()":"fddd4837","isProcessed(uint256)":"bfe7edd7","maxBlockNumber()":"a912fd25","pause()":"8456cb59","paused()":"5c975abb","processMessage(uint256,uint256,uint256,(uint256,bytes32,address,bytes),bytes32[])":"93eb47e9","proxiableUUID()":"52d1902d","renounceRole(bytes32,address)":"36568abe","revokeRole(bytes32,address)":"d547741f","submitMerkleRoot(uint256,bytes32,bytes)":"cca66a9d","supportsInterface(bytes4)":"01ffc9a7","unpause()":"3f4ba83a","upgradeToAndCall(address,bytes)":"4f1ef286","verifier()":"2b7ac3f3"},"storageLayout":{"storage":[{"astId":65300,"contract":"src/MessageQueue.sol:MessageQueue","label":"_governanceAdmin","offset":0,"slot":"0","type":"t_contract(IGovernance)67421"},{"astId":65303,"contract":"src/MessageQueue.sol:MessageQueue","label":"_governancePauser","offset":0,"slot":"1","type":"t_contract(IGovernance)67421"},{"astId":65305,"contract":"src/MessageQueue.sol:MessageQueue","label":"_emergencyStopAdmin","offset":0,"slot":"2","type":"t_address"},{"astId":65308,"contract":"src/MessageQueue.sol:MessageQueue","label":"_emergencyStopObservers","offset":0,"slot":"3","type":"t_struct(AddressSet)57282_storage"},{"astId":65311,"contract":"src/MessageQueue.sol:MessageQueue","label":"_verifier","offset":0,"slot":"5","type":"t_contract(IVerifier)67888"},{"astId":65313,"contract":"src/MessageQueue.sol:MessageQueue","label":"_challengingRootTimestamp","offset":0,"slot":"6","type":"t_uint256"},{"astId":65315,"contract":"src/MessageQueue.sol:MessageQueue","label":"_emergencyStop","offset":0,"slot":"7","type":"t_bool"},{"astId":65317,"contract":"src/MessageQueue.sol:MessageQueue","label":"_genesisBlock","offset":0,"slot":"8","type":"t_uint256"},{"astId":65319,"contract":"src/MessageQueue.sol:MessageQueue","label":"_maxBlockNumber","offset":0,"slot":"9","type":"t_uint256"},{"astId":65321,"contract":"src/MessageQueue.sol:MessageQueue","label":"_allowMessageProcessing","offset":0,"slot":"10","type":"t_bool"},{"astId":65325,"contract":"src/MessageQueue.sol:MessageQueue","label":"_blockNumbers","offset":0,"slot":"11","type":"t_mapping(t_uint256,t_bytes32)"},{"astId":65329,"contract":"src/MessageQueue.sol:MessageQueue","label":"_merkleRootTimestamps","offset":0,"slot":"12","type":"t_mapping(t_bytes32,t_uint256)"},{"astId":65333,"contract":"src/MessageQueue.sol:MessageQueue","label":"_processedMessages","offset":0,"slot":"13","type":"t_mapping(t_uint256,t_bool)"}],"types":{"t_address":{"encoding":"inplace","label":"address","numberOfBytes":"20"},"t_array(t_bytes32)dyn_storage":{"encoding":"dynamic_array","label":"bytes32[]","numberOfBytes":"32","base":"t_bytes32"},"t_bool":{"encoding":"inplace","label":"bool","numberOfBytes":"1"},"t_bytes32":{"encoding":"inplace","label":"bytes32","numberOfBytes":"32"},"t_contract(IGovernance)67421":{"encoding":"inplace","label":"contract IGovernance","numberOfBytes":"20"},"t_contract(IVerifier)67888":{"encoding":"inplace","label":"contract IVerifier","numberOfBytes":"20"},"t_mapping(t_bytes32,t_uint256)":{"encoding":"mapping","key":"t_bytes32","label":"mapping(bytes32 => uint256)","numberOfBytes":"32","value":"t_uint256"},"t_mapping(t_uint256,t_bool)":{"encoding":"mapping","key":"t_uint256","label":"mapping(uint256 => bool)","numberOfBytes":"32","value":"t_bool"},"t_mapping(t_uint256,t_bytes32)":{"encoding":"mapping","key":"t_uint256","label":"mapping(uint256 => bytes32)","numberOfBytes":"32","value":"t_bytes32"},"t_struct(AddressSet)57282_storage":{"encoding":"inplace","label":"struct EnumerableSet.AddressSet","numberOfBytes":"64","members":[{"astId":57281,"contract":"src/MessageQueue.sol:MessageQueue","label":"_inner","offset":0,"slot":"0","type":"t_struct(Set)56796_storage"}]},"t_struct(Set)56796_storage":{"encoding":"inplace","label":"struct EnumerableSet.Set","numberOfBytes":"64","members":[{"astId":56791,"contract":"src/MessageQueue.sol:MessageQueue","label":"_values","offset":0,"slot":"0","type":"t_array(t_bytes32)dyn_storage"},{"astId":56795,"contract":"src/MessageQueue.sol:MessageQueue","label":"_positions","offset":0,"slot":"1","type":"t_mapping(t_bytes32,t_uint256)"}]},"t_uint256":{"encoding":"inplace","label":"uint256","numberOfBytes":"32"}}},"id":103}