{"abi":[{"type":"constructor","inputs":[],"stateMutability":"nonpayable"},{"type":"function","name":"DEFAULT_ADMIN_ROLE","inputs":[],"outputs":[{"name":"","type":"bytes32","internalType":"bytes32"}],"stateMutability":"view"},{"type":"function","name":"PAUSER_ROLE","inputs":[],"outputs":[{"name":"","type":"bytes32","internalType":"bytes32"}],"stateMutability":"view"},{"type":"function","name":"UPGRADE_INTERFACE_VERSION","inputs":[],"outputs":[{"name":"","type":"string","internalType":"string"}],"stateMutability":"view"},{"type":"function","name":"emergencyStop","inputs":[],"outputs":[{"name":"","type":"bool","internalType":"bool"}],"stateMutability":"view"},{"type":"function","name":"getBlockNumber","inputs":[{"name":"merkleRoot","type":"bytes32","internalType":"bytes32"}],"outputs":[{"name":"","type":"uint256","internalType":"uint256"}],"stateMutability":"view"},{"type":"function","name":"getMerkleRoot","inputs":[{"name":"blockNumber","type":"uint256","internalType":"uint256"}],"outputs":[{"name":"","type":"bytes32","internalType":"bytes32"}],"stateMutability":"view"},{"type":"function","name":"getRoleAdmin","inputs":[{"name":"role","type":"bytes32","internalType":"bytes32"}],"outputs":[{"name":"","type":"bytes32","internalType":"bytes32"}],"stateMutability":"view"},{"type":"function","name":"governanceAdmin","inputs":[],"outputs":[{"name":"","type":"address","internalType":"address"}],"stateMutability":"view"},{"type":"function","name":"governancePauser","inputs":[],"outputs":[{"name":"","type":"address","internalType":"address"}],"stateMutability":"view"},{"type":"function","name":"grantRole","inputs":[{"name":"role","type":"bytes32","internalType":"bytes32"},{"name":"account","type":"address","internalType":"address"}],"outputs":[],"stateMutability":"nonpayable"},{"type":"function","name":"hasRole","inputs":[{"name":"role","type":"bytes32","internalType":"bytes32"},{"name":"account","type":"address","internalType":"address"}],"outputs":[{"name":"","type":"bool","internalType":"bool"}],"stateMutability":"view"},{"type":"function","name":"initialize","inputs":[{"name":"governanceAdmin_","type":"address","internalType":"contract IGovernance"},{"name":"governancePauser_","type":"address","internalType":"contract IGovernance"},{"name":"verifier_","type":"address","internalType":"contract IVerifier"}],"outputs":[],"stateMutability":"nonpayable"},{"type":"function","name":"isProcessed","inputs":[{"name":"messageNonce","type":"uint256","internalType":"uint256"}],"outputs":[{"name":"","type":"bool","internalType":"bool"}],"stateMutability":"view"},{"type":"function","name":"pause","inputs":[],"outputs":[],"stateMutability":"nonpayable"},{"type":"function","name":"paused","inputs":[],"outputs":[{"name":"","type":"bool","internalType":"bool"}],"stateMutability":"view"},{"type":"function","name":"processMessage","inputs":[{"name":"blockNumber","type":"uint256","internalType":"uint256"},{"name":"totalLeaves","type":"uint256","internalType":"uint256"},{"name":"leafIndex","type":"uint256","internalType":"uint256"},{"name":"message","type":"tuple","internalType":"struct VaraMessage","components":[{"name":"nonce","type":"uint256","internalType":"uint256"},{"name":"source","type":"bytes32","internalType":"bytes32"},{"name":"destination","type":"address","internalType":"address"},{"name":"payload","type":"bytes","internalType":"bytes"}]},{"name":"proof","type":"bytes32[]","internalType":"bytes32[]"}],"outputs":[],"stateMutability":"nonpayable"},{"type":"function","name":"proxiableUUID","inputs":[],"outputs":[{"name":"","type":"bytes32","internalType":"bytes32"}],"stateMutability":"view"},{"type":"function","name":"renounceRole","inputs":[{"name":"role","type":"bytes32","internalType":"bytes32"},{"name":"callerConfirmation","type":"address","internalType":"address"}],"outputs":[],"stateMutability":"nonpayable"},{"type":"function","name":"revokeRole","inputs":[{"name":"role","type":"bytes32","internalType":"bytes32"},{"name":"account","type":"address","internalType":"address"}],"outputs":[],"stateMutability":"nonpayable"},{"type":"function","name":"submitMerkleRoot","inputs":[{"name":"blockNumber","type":"uint256","internalType":"uint256"},{"name":"merkleRoot","type":"bytes32","internalType":"bytes32"},{"name":"proof","type":"bytes","internalType":"bytes"}],"outputs":[],"stateMutability":"nonpayable"},{"type":"function","name":"supportsInterface","inputs":[{"name":"interfaceId","type":"bytes4","internalType":"bytes4"}],"outputs":[{"name":"","type":"bool","internalType":"bool"}],"stateMutability":"view"},{"type":"function","name":"unpause","inputs":[],"outputs":[],"stateMutability":"nonpayable"},{"type":"function","name":"upgradeToAndCall","inputs":[{"name":"newImplementation","type":"address","internalType":"address"},{"name":"data","type":"bytes","internalType":"bytes"}],"outputs":[],"stateMutability":"payable"},{"type":"function","name":"verifier","inputs":[],"outputs":[{"name":"","type":"address","internalType":"address"}],"stateMutability":"view"},{"type":"event","name":"EmergencyStopSet","inputs":[],"anonymous":false},{"type":"event","name":"Initialized","inputs":[{"name":"version","type":"uint64","indexed":false,"internalType":"uint64"}],"anonymous":false},{"type":"event","name":"MerkleRoot","inputs":[{"name":"blockNumber","type":"uint256","indexed":true,"internalType":"uint256"},{"name":"merkleRoot","type":"bytes32","indexed":true,"internalType":"bytes32"}],"anonymous":false},{"type":"event","name":"MessageProcessed","inputs":[{"name":"blockNumber","type":"uint256","indexed":true,"internalType":"uint256"},{"name":"messageHash","type":"bytes32","indexed":true,"internalType":"bytes32"},{"name":"messageNonce","type":"uint256","indexed":true,"internalType":"uint256"},{"name":"messageDestination","type":"address","indexed":false,"internalType":"address"}],"anonymous":false},{"type":"event","name":"Paused","inputs":[{"name":"account","type":"address","indexed":false,"internalType":"address"}],"anonymous":false},{"type":"event","name":"RoleAdminChanged","inputs":[{"name":"role","type":"bytes32","indexed":true,"internalType":"bytes32"},{"name":"previousAdminRole","type":"bytes32","indexed":true,"internalType":"bytes32"},{"name":"newAdminRole","type":"bytes32","indexed":true,"internalType":"bytes32"}],"anonymous":false},{"type":"event","name":"RoleGranted","inputs":[{"name":"role","type":"bytes32","indexed":true,"internalType":"bytes32"},{"name":"account","type":"address","indexed":true,"internalType":"address"},{"name":"sender","type":"address","indexed":true,"internalType":"address"}],"anonymous":false},{"type":"event","name":"RoleRevoked","inputs":[{"name":"role","type":"bytes32","indexed":true,"internalType":"bytes32"},{"name":"account","type":"address","indexed":true,"internalType":"address"},{"name":"sender","type":"address","indexed":true,"internalType":"address"}],"anonymous":false},{"type":"event","name":"Unpaused","inputs":[{"name":"account","type":"address","indexed":false,"internalType":"address"}],"anonymous":false},{"type":"event","name":"Upgraded","inputs":[{"name":"implementation","type":"address","indexed":true,"internalType":"address"}],"anonymous":false},{"type":"error","name":"AccessControlBadConfirmation","inputs":[]},{"type":"error","name":"AccessControlUnauthorizedAccount","inputs":[{"name":"account","type":"address","internalType":"address"},{"name":"neededRole","type":"bytes32","internalType":"bytes32"}]},{"type":"error","name":"AddressEmptyCode","inputs":[{"name":"target","type":"address","internalType":"address"}]},{"type":"error","name":"ERC1967InvalidImplementation","inputs":[{"name":"implementation","type":"address","internalType":"address"}]},{"type":"error","name":"ERC1967NonPayable","inputs":[]},{"type":"error","name":"EmergencyStop","inputs":[]},{"type":"error","name":"EnforcedPause","inputs":[]},{"type":"error","name":"ExpectedPause","inputs":[]},{"type":"error","name":"FailedCall","inputs":[]},{"type":"error","name":"InvalidInitialization","inputs":[]},{"type":"error","name":"InvalidMerkleProof","inputs":[]},{"type":"error","name":"InvalidPlonkProof","inputs":[]},{"type":"error","name":"MerkleRootNotSet","inputs":[{"name":"blockNumber","type":"uint256","internalType":"uint256"}]},{"type":"error","name":"MessageAlreadyProcessed","inputs":[{"name":"messageNonce","type":"uint256","internalType":"uint256"}]},{"type":"error","name":"NotInitializing","inputs":[]},{"type":"error","name":"UUPSUnauthorizedCallContext","inputs":[]},{"type":"error","name":"UUPSUnsupportedProxiableUUID","inputs":[{"name":"slot","type":"bytes32","internalType":"bytes32"}]}],"bytecode":{"object":"0x60a080604052346100c257306080525f5160206116db5f395f51905f525460ff8160401c166100b3576002600160401b03196001600160401b03821601610060575b60405161161490816100c78239608051818181610b590152610c290152f35b6001600160401b0319166001600160401b039081175f5160206116db5f395f51905f525581527fc7f505b2f371ae2175ee4913f4499e1f2633a7b5936321eed1cdaeb6115181d290602090a15f80610041565b63f92ee8a960e01b5f5260045ffd5b5f80fdfe6080806040526004361015610012575f80fd5b5f905f3560e01c90816258f6b8146110425750806301ffc9a714610fec5780630aab8ba514610fc2578063248a9ca314610f835780632b7ac3f314610f5b5780632f2ff15d14610f1157806336568abe14610ecd5780633f4ba83a14610e4f5780634737814514610e255780634f1ef28614610bad57806352d1902d14610b475780635c975abb14610b1957806363a599a414610af45780638456cb5914610a8257806391d1485414610a2d57806393eb47e9146106b4578063a217fddf14610698578063ad3cb1cc1461063c578063bfe7edd71461060d578063c0c53b8b14610436578063c81eb7971461040d578063cca66a9d14610197578063d547741f146101435763e63ab1e914610125575f80fd5b34610140578060031936011261014057602060405160018152f35b80fd5b503461014057604036600319011261014057610193600435610163611064565b9061018e610189825f525f5160206115b45f395f51905f52602052600160405f20015490565b611199565b6113df565b5080f35b50346101405760603660031901126101405760243560043560443567ffffffffffffffff81116103b657366023820112156103b65780600401359067ffffffffffffffff8211610409573660248383010111610409576002549060ff8260a01c166103fa5760405161020a606082611090565b60028152602081019160403684378151156103e6578660401c83528151600110156103e6579391906040810163ffffffff60601b8760601b1667ffffffffffffffff60801b8960801b161790526020610280604051968795633054963960e01b8752604060048801526024604488019201611129565b848103600319016024860152915180835291019190885b8181106103cd575060209492849003928492506001600160a01b031690505afa9081156103c2578491610383575b50156103745780835260036020526040832054828115159182610369575b5050156103265750506002805460ff60a01b1916600160a01b1790557fae1fc94fd692bf240be219cead4601265a701df263b7045071227f1ba37f47508180a180f35b808352600360205281604084205581835260046020528060408420557f48211a20c285b6b077b7917b8bb118eaa92efdfb8fa2e3b114ffa253e0b665ae8380a380f35b14159050825f6102e3565b636859a69960e11b8352600483fd5b90506020813d6020116103ba575b8161039e60209383611090565b810103126103b6575180151581036103b6575f6102c5565b8380fd5b3d9150610391565b6040513d86823e3d90fd5b8251845286945060209384019390920191600101610297565b634e487b7160e01b88526032600452602488fd5b6313a5ef3f60e21b8652600486fd5b8480fd5b50346101405780600319360112610140576001546040516001600160a01b039091168152602090f35b50346101405760603660031901126101405761045061107a565b610458611064565b6044356001600160a01b03811691908290036103b6575f5160206115f45f395f51905f52549260ff8460401c16159367ffffffffffffffff811680159081610605575b60011490816105fb575b1590816105f2575b506105e35767ffffffffffffffff1981166001175f5160206115f45f395f51905f5255846105b7575b506104df61150a565b6104e761150a565b6104ef61150a565b6001600160a01b031690610502826111df565b5061050c8261128e565b506001600160a01b0316906105208261128e565b506001600160601b0360a01b8554161784556001600160601b0360a01b60015416176001556001600160601b0360a01b600254161760025561055f5780f35b68ff0000000000000000195f5160206115f45f395f51905f5254165f5160206115f45f395f51905f52557fc7f505b2f371ae2175ee4913f4499e1f2633a7b5936321eed1cdaeb6115181d2602060405160018152a180f35b68ffffffffffffffffff191668010000000000000001175f5160206115f45f395f51905f52555f6104d6565b63f92ee8a960e01b8652600486fd5b9050155f6104ad565b303b1591506104a5565b86915061049b565b50346101405760203660031901126101405760ff60406020926004358152600584522054166040519015158152f35b50346101405780600319360112610140576040805161065b8282611090565b6005815260208101640352e302e360dc1b81528251938492602084525180928160208601528585015e828201840152601f01601f19168101030190f35b5034610140578060031936011261014057602090604051908152f35b503461092c5760a036600319011261092c5760643560043567ffffffffffffffff821161092c5781600401906080600319843603011261092c576084359167ffffffffffffffff831161092c573660238401121561092c5782600401359067ffffffffffffffff821161092c573660248360051b8601011161092c575f54604051635aa6e67560e01b8152602487013591602090829060049082906001600160a01b03165afa908115610921575f916109fb575b508114801561098c575b60ff5f5160206115d45f395f51905f5254169081610983575b506109745760ff60025460a01c1661096557813595865f52600560205260ff60405f20541661095257845f52600360205260405f205493841561093f576108499060448301958960646107dd896110e2565b95019461083360746107ef888b6110f6565b80604095929551958693602085019889528d60408601526001600160601b03199060601b1660608501528484013781015f838201520301601f198101835282611090565b519020988992604435926024803593019061147b565b15610930575f878152600560205260409020805460ff19166001179055610882906001600160a01b0361087b866110e2565b16936110f6565b92803b1561092c576108bb935f809460405196879586948593630302ac5d60e41b85526004850152604060248501526044840191611129565b03925af180156109215761090b575b5060206108f77f994c669cfd9c0453d42c933a11c002a34d12d85563aebe99ca525fffc45454f8926110e2565b6040516001600160a01b039091168152a480f35b6109189195505f90611090565b5f9360206108ca565b6040513d5f823e3d90fd5b5f80fd5b63582f497d60e11b5f5260045ffd5b856354e2ed2d60e11b5f5260045260245ffd5b866338503e3360e21b5f5260045260245ffd5b6313a5ef3f60e21b5f5260045ffd5b63d93c066560e01b5f5260045ffd5b9050155f61078b565b50600154604051635aa6e67560e01b815290602090829060049082906001600160a01b03165afa908115610921575f916109c9575b508114610772565b90506020813d6020116109f3575b816109e460209383611090565b8101031261092c57515f6109c1565b3d91506109d7565b90506020813d602011610a25575b81610a1660209383611090565b8101031261092c57515f610768565b3d9150610a09565b3461092c57604036600319011261092c57610a46611064565b6004355f525f5160206115b45f395f51905f5260205260405f209060018060a01b03165f52602052602060ff60405f2054166040519015158152f35b3461092c575f36600319011261092c57610a9a611149565b5f5160206115d45f395f51905f525460ff81166109745760019060ff1916175f5160206115d45f395f51905f52557f62e78cea01bee320cd4e420270b5ea74000d11b0c9f74754ebdbfc544b05a2586020604051338152a1005b3461092c575f36600319011261092c57602060ff60025460a01c166040519015158152f35b3461092c575f36600319011261092c57602060ff5f5160206115d45f395f51905f5254166040519015158152f35b3461092c575f36600319011261092c577f00000000000000000000000000000000000000000000000000000000000000006001600160a01b03163003610b9e5760206040515f5160206115945f395f51905f528152f35b63703e46dd60e11b5f5260045ffd5b604036600319011261092c57610bc161107a565b6024359067ffffffffffffffff821161092c573660238301121561092c57816004013590610bee826110c6565b91610bfc6040519384611090565b8083526020830193366024838301011161092c57815f926024602093018737840101526001600160a01b037f000000000000000000000000000000000000000000000000000000000000000016308114908115610e03575b50610b9e57335f9081527fb7db2dd08fcb62d0c9e08c51941cae53c267786a0b75803fb7960902fc8ef97d602052604090205460ff1615610dec576040516352d1902d60e01b81526001600160a01b0382169390602081600481885afa5f9181610db8575b50610cd15784634c9c8ce360e01b5f5260045260245ffd5b805f5160206115945f395f51905f52869203610da65750823b15610d94575f5160206115945f395f51905f5280546001600160a01b031916821790557fbc7cd75a20ee27fd9adebab32041f755214dbc6bffa90cc0225b39da2e5c2d3b5f80a2825115610d7b575f8091610d71945190845af43d15610d73573d91610d55836110c6565b92610d636040519485611090565b83523d5f602085013e611535565b005b606091611535565b50505034610d8557005b63b398979f60e01b5f5260045ffd5b634c9c8ce360e01b5f5260045260245ffd5b632a87526960e21b5f5260045260245ffd5b9091506020813d602011610de4575b81610dd460209383611090565b8101031261092c57519086610cb9565b3d9150610dc7565b63e2517d3f60e01b5f52336004525f60245260445ffd5b5f5160206115945f395f51905f52546001600160a01b03161415905084610c54565b3461092c57602036600319011261092c576004355f526004602052602060405f2054604051908152f35b3461092c575f36600319011261092c57610e67611149565b5f5160206115d45f395f51905f525460ff811615610ebe5760ff19165f5160206115d45f395f51905f52557f5db9ee0a495bf2e6ff9c91a7834c1ba4fdd244a5e8aa4e537bd38aeae4b073aa6020604051338152a1005b638dfc202b60e01b5f5260045ffd5b3461092c57604036600319011261092c57610ee6611064565b336001600160a01b03821603610f0257610d71906004356113df565b63334bd91960e11b5f5260045ffd5b3461092c57604036600319011261092c57610d71600435610f30611064565b90610f56610189825f525f5160206115b45f395f51905f52602052600160405f20015490565b61133b565b3461092c575f36600319011261092c576002546040516001600160a01b039091168152602090f35b3461092c57602036600319011261092c576020610fba6004355f525f5160206115b45f395f51905f52602052600160405f20015490565b604051908152f35b3461092c57602036600319011261092c576004355f526003602052602060405f2054604051908152f35b3461092c57602036600319011261092c5760043563ffffffff60e01b811680910361092c57602090637965db0b60e01b8114908115611031575b506040519015158152f35b6301ffc9a760e01b14905082611026565b3461092c575f36600319011261092c575f546001600160a01b03168152602090f35b602435906001600160a01b038216820361092c57565b600435906001600160a01b038216820361092c57565b90601f8019910116810190811067ffffffffffffffff8211176110b257604052565b634e487b7160e01b5f52604160045260245ffd5b67ffffffffffffffff81116110b257601f01601f191660200190565b356001600160a01b038116810361092c5790565b903590601e198136030182121561092c570180359067ffffffffffffffff821161092c5760200191813603831361092c57565b908060209392818452848401375f828201840152601f01601f1916010190565b335f9081527f2222dce04fae1e25cd76e9391151ad9e0187ef92144ac6ce9e4e09f2c453b751602052604090205460ff161561118157565b63e2517d3f60e01b5f5233600452600160245260445ffd5b5f8181525f5160206115b45f395f51905f526020908152604080832033845290915290205460ff16156111c95750565b63e2517d3f60e01b5f523360045260245260445ffd5b6001600160a01b0381165f9081527fb7db2dd08fcb62d0c9e08c51941cae53c267786a0b75803fb7960902fc8ef97d602052604090205460ff16611289576001600160a01b03165f8181527fb7db2dd08fcb62d0c9e08c51941cae53c267786a0b75803fb7960902fc8ef97d60205260408120805460ff191660011790553391907f2f8788117e7eff1d82e926ec794901d17c78024a50270940304540a733656f0d8180a4600190565b505f90565b6001600160a01b0381165f9081527f2222dce04fae1e25cd76e9391151ad9e0187ef92144ac6ce9e4e09f2c453b751602052604090205460ff16611289576001600160a01b03165f8181527f2222dce04fae1e25cd76e9391151ad9e0187ef92144ac6ce9e4e09f2c453b75160205260408120805460ff191660019081179091553392917f2f8788117e7eff1d82e926ec794901d17c78024a50270940304540a733656f0d9080a4600190565b5f8181525f5160206115b45f395f51905f52602090815260408083206001600160a01b038616845290915290205460ff166113d9575f8181525f5160206115b45f395f51905f52602090815260408083206001600160a01b0395909516808452949091528120805460ff19166001179055339291907f2f8788117e7eff1d82e926ec794901d17c78024a50270940304540a733656f0d9080a4600190565b50505f90565b5f8181525f5160206115b45f395f51905f52602090815260408083206001600160a01b038616845290915290205460ff16156113d9575f8181525f5160206115b45f395f51905f52602090815260408083206001600160a01b0395909516808452949091528120805460ff19169055339291907ff6391f5c32d9c69d2a47ea670b442974b53935d1edc7fd64eb21e047a839171b9080a4600190565b919495909293848110156114ff575f969092905b868810156114f557808860051b8601359060018087161480156114e9575b156114d457505f5260205260018060405f20945b811c965f1901811c01970196949261148f565b9091505f5260205260018060405f20946114c1565b508760018701146114ad565b1495509350505050565b509450505050505f90565b60ff5f5160206115f45f395f51905f525460401c161561152657565b631afcd79f60e31b5f5260045ffd5b90611559575080511561154a57805190602001fd5b63d6bda27560e01b5f5260045ffd5b8151158061158a575b61156a575090565b639996b31560e01b5f9081526001600160a01b0391909116600452602490fd5b50803b1561156256fe360894a13ba1a3210667c828492db98dca3e2076cc3735a920a3ca505d382bbc02dd7bc7dec4dceedda775e58dd541e08a116c6c53815c0bd028192f7b626800cd5ed15c6e187e77e9aee88184c21f4f2182ab5827cb3b7e07fbedcd63f03300f0c57e16840df040f15088dc2f81fe391c3923bec73e23a9662efc9c229c6a00f0c57e16840df040f15088dc2f81fe391c3923bec73e23a9662efc9c229c6a00","linkReferences":{}},"methodIdentifiers":{"DEFAULT_ADMIN_ROLE()":"a217fddf","PAUSER_ROLE()":"e63ab1e9","UPGRADE_INTERFACE_VERSION()":"ad3cb1cc","emergencyStop()":"63a599a4","getBlockNumber(bytes32)":"47378145","getMerkleRoot(uint256)":"0aab8ba5","getRoleAdmin(bytes32)":"248a9ca3","governanceAdmin()":"0058f6b8","governancePauser()":"c81eb797","grantRole(bytes32,address)":"2f2ff15d","hasRole(bytes32,address)":"91d14854","initialize(address,address,address)":"c0c53b8b","isProcessed(uint256)":"bfe7edd7","pause()":"8456cb59","paused()":"5c975abb","processMessage(uint256,uint256,uint256,(uint256,bytes32,address,bytes),bytes32[])":"93eb47e9","proxiableUUID()":"52d1902d","renounceRole(bytes32,address)":"36568abe","revokeRole(bytes32,address)":"d547741f","submitMerkleRoot(uint256,bytes32,bytes)":"cca66a9d","supportsInterface(bytes4)":"01ffc9a7","unpause()":"3f4ba83a","upgradeToAndCall(address,bytes)":"4f1ef286","verifier()":"2b7ac3f3"},"storageLayout":{"storage":[{"astId":55600,"contract":"src/MessageQueue.sol:MessageQueue","label":"_governanceAdmin","offset":0,"slot":"0","type":"t_contract(IGovernance)56905"},{"astId":55603,"contract":"src/MessageQueue.sol:MessageQueue","label":"_governancePauser","offset":0,"slot":"1","type":"t_contract(IGovernance)56905"},{"astId":55606,"contract":"src/MessageQueue.sol:MessageQueue","label":"_verifier","offset":0,"slot":"2","type":"t_contract(IVerifier)57263"},{"astId":55608,"contract":"src/MessageQueue.sol:MessageQueue","label":"_emergencyStop","offset":20,"slot":"2","type":"t_bool"},{"astId":55612,"contract":"src/MessageQueue.sol:MessageQueue","label":"_blockNumbers","offset":0,"slot":"3","type":"t_mapping(t_uint256,t_bytes32)"},{"astId":55616,"contract":"src/MessageQueue.sol:MessageQueue","label":"_merkleRoots","offset":0,"slot":"4","type":"t_mapping(t_bytes32,t_uint256)"},{"astId":55620,"contract":"src/MessageQueue.sol:MessageQueue","label":"_processedMessages","offset":0,"slot":"5","type":"t_mapping(t_uint256,t_bool)"}],"types":{"t_bool":{"encoding":"inplace","label":"bool","numberOfBytes":"1"},"t_bytes32":{"encoding":"inplace","label":"bytes32","numberOfBytes":"32"},"t_contract(IGovernance)56905":{"encoding":"inplace","label":"contract IGovernance","numberOfBytes":"20"},"t_contract(IVerifier)57263":{"encoding":"inplace","label":"contract IVerifier","numberOfBytes":"20"},"t_mapping(t_bytes32,t_uint256)":{"encoding":"mapping","key":"t_bytes32","label":"mapping(bytes32 => uint256)","numberOfBytes":"32","value":"t_uint256"},"t_mapping(t_uint256,t_bool)":{"encoding":"mapping","key":"t_uint256","label":"mapping(uint256 => bool)","numberOfBytes":"32","value":"t_bool"},"t_mapping(t_uint256,t_bytes32)":{"encoding":"mapping","key":"t_uint256","label":"mapping(uint256 => bytes32)","numberOfBytes":"32","value":"t_bytes32"},"t_uint256":{"encoding":"inplace","label":"uint256","numberOfBytes":"32"}}},"id":82}