{"abi":[{"type":"constructor","inputs":[],"stateMutability":"nonpayable"},{"type":"function","name":"DEFAULT_ADMIN_ROLE","inputs":[],"outputs":[{"name":"","type":"bytes32","internalType":"bytes32"}],"stateMutability":"view"},{"type":"function","name":"PAUSER_ROLE","inputs":[],"outputs":[{"name":"","type":"bytes32","internalType":"bytes32"}],"stateMutability":"view"},{"type":"function","name":"UPGRADE_INTERFACE_VERSION","inputs":[],"outputs":[{"name":"","type":"string","internalType":"string"}],"stateMutability":"view"},{"type":"function","name":"getRoleAdmin","inputs":[{"name":"role","type":"bytes32","internalType":"bytes32"}],"outputs":[{"name":"","type":"bytes32","internalType":"bytes32"}],"stateMutability":"view"},{"type":"function","name":"grantRole","inputs":[{"name":"role","type":"bytes32","internalType":"bytes32"},{"name":"account","type":"address","internalType":"address"}],"outputs":[],"stateMutability":"nonpayable"},{"type":"function","name":"hasRole","inputs":[{"name":"role","type":"bytes32","internalType":"bytes32"},{"name":"account","type":"address","internalType":"address"}],"outputs":[{"name":"","type":"bool","internalType":"bool"}],"stateMutability":"view"},{"type":"function","name":"initialize","inputs":[{"name":"governanceAdmin","type":"address","internalType":"contract IGovernance"},{"name":"governancePauser","type":"address","internalType":"contract IGovernance"},{"name":"relayer","type":"address","internalType":"contract IRelayer"}],"outputs":[],"stateMutability":"nonpayable"},{"type":"function","name":"isProcessed","inputs":[{"name":"messageNonce","type":"uint256","internalType":"uint256"}],"outputs":[{"name":"","type":"bool","internalType":"bool"}],"stateMutability":"view"},{"type":"function","name":"pause","inputs":[],"outputs":[],"stateMutability":"nonpayable"},{"type":"function","name":"paused","inputs":[],"outputs":[{"name":"","type":"bool","internalType":"bool"}],"stateMutability":"view"},{"type":"function","name":"processMessage","inputs":[{"name":"blockNumber","type":"uint256","internalType":"uint256"},{"name":"totalLeaves","type":"uint256","internalType":"uint256"},{"name":"leafIndex","type":"uint256","internalType":"uint256"},{"name":"message","type":"tuple","internalType":"struct VaraMessage","components":[{"name":"nonce","type":"uint256","internalType":"uint256"},{"name":"source","type":"bytes32","internalType":"bytes32"},{"name":"destination","type":"address","internalType":"address"},{"name":"payload","type":"bytes","internalType":"bytes"}]},{"name":"proof","type":"bytes32[]","internalType":"bytes32[]"}],"outputs":[],"stateMutability":"nonpayable"},{"type":"function","name":"proxiableUUID","inputs":[],"outputs":[{"name":"","type":"bytes32","internalType":"bytes32"}],"stateMutability":"view"},{"type":"function","name":"renounceRole","inputs":[{"name":"role","type":"bytes32","internalType":"bytes32"},{"name":"callerConfirmation","type":"address","internalType":"address"}],"outputs":[],"stateMutability":"nonpayable"},{"type":"function","name":"revokeRole","inputs":[{"name":"role","type":"bytes32","internalType":"bytes32"},{"name":"account","type":"address","internalType":"address"}],"outputs":[],"stateMutability":"nonpayable"},{"type":"function","name":"supportsInterface","inputs":[{"name":"interfaceId","type":"bytes4","internalType":"bytes4"}],"outputs":[{"name":"","type":"bool","internalType":"bool"}],"stateMutability":"view"},{"type":"function","name":"unpause","inputs":[],"outputs":[],"stateMutability":"nonpayable"},{"type":"function","name":"upgradeToAndCall","inputs":[{"name":"newImplementation","type":"address","internalType":"address"},{"name":"data","type":"bytes","internalType":"bytes"}],"outputs":[],"stateMutability":"payable"},{"type":"event","name":"Initialized","inputs":[{"name":"version","type":"uint64","indexed":false,"internalType":"uint64"}],"anonymous":false},{"type":"event","name":"MessageProcessed","inputs":[{"name":"blockNumber","type":"uint256","indexed":true,"internalType":"uint256"},{"name":"messageHash","type":"bytes32","indexed":true,"internalType":"bytes32"},{"name":"messageNonce","type":"uint256","indexed":true,"internalType":"uint256"},{"name":"messageDestination","type":"address","indexed":false,"internalType":"address"}],"anonymous":false},{"type":"event","name":"Paused","inputs":[{"name":"account","type":"address","indexed":false,"internalType":"address"}],"anonymous":false},{"type":"event","name":"RoleAdminChanged","inputs":[{"name":"role","type":"bytes32","indexed":true,"internalType":"bytes32"},{"name":"previousAdminRole","type":"bytes32","indexed":true,"internalType":"bytes32"},{"name":"newAdminRole","type":"bytes32","indexed":true,"internalType":"bytes32"}],"anonymous":false},{"type":"event","name":"RoleGranted","inputs":[{"name":"role","type":"bytes32","indexed":true,"internalType":"bytes32"},{"name":"account","type":"address","indexed":true,"internalType":"address"},{"name":"sender","type":"address","indexed":true,"internalType":"address"}],"anonymous":false},{"type":"event","name":"RoleRevoked","inputs":[{"name":"role","type":"bytes32","indexed":true,"internalType":"bytes32"},{"name":"account","type":"address","indexed":true,"internalType":"address"},{"name":"sender","type":"address","indexed":true,"internalType":"address"}],"anonymous":false},{"type":"event","name":"Unpaused","inputs":[{"name":"account","type":"address","indexed":false,"internalType":"address"}],"anonymous":false},{"type":"event","name":"Upgraded","inputs":[{"name":"implementation","type":"address","indexed":true,"internalType":"address"}],"anonymous":false},{"type":"error","name":"AccessControlBadConfirmation","inputs":[]},{"type":"error","name":"AccessControlUnauthorizedAccount","inputs":[{"name":"account","type":"address","internalType":"address"},{"name":"neededRole","type":"bytes32","internalType":"bytes32"}]},{"type":"error","name":"AddressEmptyCode","inputs":[{"name":"target","type":"address","internalType":"address"}]},{"type":"error","name":"ERC1967InvalidImplementation","inputs":[{"name":"implementation","type":"address","internalType":"address"}]},{"type":"error","name":"ERC1967NonPayable","inputs":[]},{"type":"error","name":"EnforcedPause","inputs":[]},{"type":"error","name":"ExpectedPause","inputs":[]},{"type":"error","name":"FailedCall","inputs":[]},{"type":"error","name":"InvalidInitialization","inputs":[]},{"type":"error","name":"InvalidMerkleProof","inputs":[]},{"type":"error","name":"MerkleRootNotSet","inputs":[{"name":"blockNumber","type":"uint256","internalType":"uint256"}]},{"type":"error","name":"MessageAlreadyProcessed","inputs":[{"name":"messageNonce","type":"uint256","internalType":"uint256"}]},{"type":"error","name":"NotInitializing","inputs":[]},{"type":"error","name":"RelayerEmergencyStop","inputs":[]},{"type":"error","name":"UUPSUnauthorizedCallContext","inputs":[]},{"type":"error","name":"UUPSUnsupportedProxiableUUID","inputs":[{"name":"slot","type":"bytes32","internalType":"bytes32"}]}],"bytecode":{"object":"0x60a080604052346100c257306080525f5160206113e55f395f51905f525460ff8160401c166100b3576002600160401b03196001600160401b03821601610060575b60405161131e90816100c7823960805181818161092401526109f40152f35b6001600160401b0319166001600160401b039081175f5160206113e55f395f51905f525581527fc7f505b2f371ae2175ee4913f4499e1f2633a7b5936321eed1cdaeb6115181d290602090a15f80610041565b63f92ee8a960e01b5f5260045ffd5b5f80fdfe6080806040526004361015610012575f80fd5b5f905f3560e01c90816301ffc9a714610d3b57508063248a9ca314610cfc5780632f2ff15d14610cb257806336568abe14610c6e5780633f4ba83a14610bf05780634f1ef2861461097857806352d1902d146109125780635c975abb146108e45780638456cb591461087257806391d148541461081d57806393eb47e9146103cd578063a217fddf146103b1578063ad3cb1cc14610355578063bfe7edd714610326578063c0c53b8b1461014b578063d547741f146100f75763e63ab1e9146100d9575f80fd5b346100f457806003193601126100f457602060405160018152f35b80fd5b50346100f45760403660031901126100f457610147600435610117610d8e565b9061014261013d825f525f5160206112be5f395f51905f52602052600160405f20015490565b610ea3565b6110e9565b5080f35b50346100f45760603660031901126100f457610165610da4565b61016d610d8e565b6044356001600160a01b0381169190829003610322575f5160206112fe5f395f51905f52549260ff8460401c16159367ffffffffffffffff81168015908161031a575b6001149081610310575b159081610307575b506102f85767ffffffffffffffff1981166001175f5160206112fe5f395f51905f5255846102cc575b506101f4611214565b6101fc611214565b610204611214565b6001600160a01b03169061021782610ee9565b5061022182610f98565b506001600160a01b03169061023582610f98565b506001600160601b0360a01b8554161784556001600160601b0360a01b60015416176001556001600160601b0360a01b60025416176002556102745780f35b68ff0000000000000000195f5160206112fe5f395f51905f5254165f5160206112fe5f395f51905f52557fc7f505b2f371ae2175ee4913f4499e1f2633a7b5936321eed1cdaeb6115181d2602060405160018152a180f35b68ffffffffffffffffff191668010000000000000001175f5160206112fe5f395f51905f52555f6101eb565b63f92ee8a960e01b8652600486fd5b9050155f6101c2565b303b1591506101ba565b8691506101b0565b8380fd5b50346100f45760203660031901126100f45760ff60406020926004358152600384522054166040519015158152f35b50346100f457806003193601126100f457604080516103748282610dba565b6005815260208101640352e302e360dc1b81528251938492602084525180928160208601528585015e828201840152601f01601f19168101030190f35b50346100f457806003193601126100f457602090604051908152f35b50346106ad5760a03660031901126106ad5760043560643567ffffffffffffffff81116106ad578060040191608060031983360301126106ad576084359167ffffffffffffffff83116106ad57366023840112156106ad5782600401359367ffffffffffffffff85116106ad573660248660051b860101116106ad575f54604051635aa6e67560e01b815260248401359391602090829060049082906001600160a01b03165afa9081156106a2575f916107eb575b508314801561077c575b60ff5f5160206112de5f395f51905f5254169081610773575b50610764576002546040516318e9666960e21b81526001600160a01b0390911696906020816004818b5afa9081156106a2575f91610729575b5061071a57823596875f52600360205260ff60405f2054166107075790602060249594939260405196878092630aab8ba560e01b82528a60048301525afa9485156106a2575f956106d3575b5084156106c0576105b690604483019589606461054689610e0c565b95019461059a607489610559898b610e20565b809160405196879460208601998a5260408601526001600160601b03199060601b1660608501528484013781015f838201520301601f198101835282610dba565b5190205f5260205f209889926044359260248035930190611185565b156106b1575f878152600360205260409020805460ff191660011790556105ef906001600160a01b036105e886610e0c565b1692610e20565b929091803b156106ad575f92836064869460405197889687958693632646279160e21b8552600485015260406024850152816044850152848401378181018301849052601f01601f191681010301925af180156106a25761068c575b5060206106787f994c669cfd9c0453d42c933a11c002a34d12d85563aebe99ca525fffc45454f892610e0c565b6040516001600160a01b039091168152a480f35b6106999195505f90610dba565b5f93602061064b565b6040513d5f823e3d90fd5b5f80fd5b63582f497d60e11b5f5260045ffd5b856354e2ed2d60e11b5f5260045260245ffd5b9094506020813d6020116106ff575b816106ef60209383610dba565b810103126106ad5751935f61052a565b3d91506106e2565b876338503e3360e21b5f5260045260245ffd5b63dfe54af360e01b5f5260045ffd5b90506020813d60201161075c575b8161074460209383610dba565b810103126106ad575180151581036106ad575f6104de565b3d9150610737565b63d93c066560e01b5f5260045ffd5b9050155f6104a5565b50600154604051635aa6e67560e01b815290602090829060049082906001600160a01b03165afa9081156106a2575f916107b9575b50831461048c565b90506020813d6020116107e3575b816107d460209383610dba565b810103126106ad57515f6107b1565b3d91506107c7565b90506020813d602011610815575b8161080660209383610dba565b810103126106ad57515f610482565b3d91506107f9565b346106ad5760403660031901126106ad57610836610d8e565b6004355f525f5160206112be5f395f51905f5260205260405f209060018060a01b03165f52602052602060ff60405f2054166040519015158152f35b346106ad575f3660031901126106ad5761088a610e53565b5f5160206112de5f395f51905f525460ff81166107645760019060ff1916175f5160206112de5f395f51905f52557f62e78cea01bee320cd4e420270b5ea74000d11b0c9f74754ebdbfc544b05a2586020604051338152a1005b346106ad575f3660031901126106ad57602060ff5f5160206112de5f395f51905f5254166040519015158152f35b346106ad575f3660031901126106ad577f00000000000000000000000000000000000000000000000000000000000000006001600160a01b031630036109695760206040515f51602061129e5f395f51905f528152f35b63703e46dd60e11b5f5260045ffd5b60403660031901126106ad5761098c610da4565b6024359067ffffffffffffffff82116106ad57366023830112156106ad578160040135906109b982610df0565b916109c76040519384610dba565b808352602083019336602483830101116106ad57815f926024602093018737840101526001600160a01b037f000000000000000000000000000000000000000000000000000000000000000016308114908115610bce575b5061096957335f9081527fb7db2dd08fcb62d0c9e08c51941cae53c267786a0b75803fb7960902fc8ef97d602052604090205460ff1615610bb7576040516352d1902d60e01b81526001600160a01b0382169390602081600481885afa5f9181610b83575b50610a9c5784634c9c8ce360e01b5f5260045260245ffd5b805f51602061129e5f395f51905f52869203610b715750823b15610b5f575f51602061129e5f395f51905f5280546001600160a01b031916821790557fbc7cd75a20ee27fd9adebab32041f755214dbc6bffa90cc0225b39da2e5c2d3b5f80a2825115610b46575f8091610b3c945190845af43d15610b3e573d91610b2083610df0565b92610b2e6040519485610dba565b83523d5f602085013e61123f565b005b60609161123f565b50505034610b5057005b63b398979f60e01b5f5260045ffd5b634c9c8ce360e01b5f5260045260245ffd5b632a87526960e21b5f5260045260245ffd5b9091506020813d602011610baf575b81610b9f60209383610dba565b810103126106ad57519086610a84565b3d9150610b92565b63e2517d3f60e01b5f52336004525f60245260445ffd5b5f51602061129e5f395f51905f52546001600160a01b03161415905084610a1f565b346106ad575f3660031901126106ad57610c08610e53565b5f5160206112de5f395f51905f525460ff811615610c5f5760ff19165f5160206112de5f395f51905f52557f5db9ee0a495bf2e6ff9c91a7834c1ba4fdd244a5e8aa4e537bd38aeae4b073aa6020604051338152a1005b638dfc202b60e01b5f5260045ffd5b346106ad5760403660031901126106ad57610c87610d8e565b336001600160a01b03821603610ca357610b3c906004356110e9565b63334bd91960e11b5f5260045ffd5b346106ad5760403660031901126106ad57610b3c600435610cd1610d8e565b90610cf761013d825f525f5160206112be5f395f51905f52602052600160405f20015490565b611045565b346106ad5760203660031901126106ad576020610d336004355f525f5160206112be5f395f51905f52602052600160405f20015490565b604051908152f35b346106ad5760203660031901126106ad576004359063ffffffff60e01b82168092036106ad57602091637965db0b60e01b8114908115610d7d575b5015158152f35b6301ffc9a760e01b14905083610d76565b602435906001600160a01b03821682036106ad57565b600435906001600160a01b03821682036106ad57565b90601f8019910116810190811067ffffffffffffffff821117610ddc57604052565b634e487b7160e01b5f52604160045260245ffd5b67ffffffffffffffff8111610ddc57601f01601f191660200190565b356001600160a01b03811681036106ad5790565b903590601e19813603018212156106ad570180359067ffffffffffffffff82116106ad576020019181360383136106ad57565b335f9081527f2222dce04fae1e25cd76e9391151ad9e0187ef92144ac6ce9e4e09f2c453b751602052604090205460ff1615610e8b57565b63e2517d3f60e01b5f5233600452600160245260445ffd5b5f8181525f5160206112be5f395f51905f526020908152604080832033845290915290205460ff1615610ed35750565b63e2517d3f60e01b5f523360045260245260445ffd5b6001600160a01b0381165f9081527fb7db2dd08fcb62d0c9e08c51941cae53c267786a0b75803fb7960902fc8ef97d602052604090205460ff16610f93576001600160a01b03165f8181527fb7db2dd08fcb62d0c9e08c51941cae53c267786a0b75803fb7960902fc8ef97d60205260408120805460ff191660011790553391907f2f8788117e7eff1d82e926ec794901d17c78024a50270940304540a733656f0d8180a4600190565b505f90565b6001600160a01b0381165f9081527f2222dce04fae1e25cd76e9391151ad9e0187ef92144ac6ce9e4e09f2c453b751602052604090205460ff16610f93576001600160a01b03165f8181527f2222dce04fae1e25cd76e9391151ad9e0187ef92144ac6ce9e4e09f2c453b75160205260408120805460ff191660019081179091553392917f2f8788117e7eff1d82e926ec794901d17c78024a50270940304540a733656f0d9080a4600190565b5f8181525f5160206112be5f395f51905f52602090815260408083206001600160a01b038616845290915290205460ff166110e3575f8181525f5160206112be5f395f51905f52602090815260408083206001600160a01b0395909516808452949091528120805460ff19166001179055339291907f2f8788117e7eff1d82e926ec794901d17c78024a50270940304540a733656f0d9080a4600190565b50505f90565b5f8181525f5160206112be5f395f51905f52602090815260408083206001600160a01b038616845290915290205460ff16156110e3575f8181525f5160206112be5f395f51905f52602090815260408083206001600160a01b0395909516808452949091528120805460ff19169055339291907ff6391f5c32d9c69d2a47ea670b442974b53935d1edc7fd64eb21e047a839171b9080a4600190565b91949590929384811015611209575f969092905b868810156111ff57808860051b8601359060018087161480156111f3575b156111de57505f5260205260018060405f20945b811c965f1901811c019701969492611199565b9091505f5260205260018060405f20946111cb565b508760018701146111b7565b1495509350505050565b509450505050505f90565b60ff5f5160206112fe5f395f51905f525460401c161561123057565b631afcd79f60e31b5f5260045ffd5b90611263575080511561125457805190602001fd5b63d6bda27560e01b5f5260045ffd5b81511580611294575b611274575090565b639996b31560e01b5f9081526001600160a01b0391909116600452602490fd5b50803b1561126c56fe360894a13ba1a3210667c828492db98dca3e2076cc3735a920a3ca505d382bbc02dd7bc7dec4dceedda775e58dd541e08a116c6c53815c0bd028192f7b626800cd5ed15c6e187e77e9aee88184c21f4f2182ab5827cb3b7e07fbedcd63f03300f0c57e16840df040f15088dc2f81fe391c3923bec73e23a9662efc9c229c6a00f0c57e16840df040f15088dc2f81fe391c3923bec73e23a9662efc9c229c6a00","linkReferences":{}},"methodIdentifiers":{"DEFAULT_ADMIN_ROLE()":"a217fddf","PAUSER_ROLE()":"e63ab1e9","UPGRADE_INTERFACE_VERSION()":"ad3cb1cc","getRoleAdmin(bytes32)":"248a9ca3","grantRole(bytes32,address)":"2f2ff15d","hasRole(bytes32,address)":"91d14854","initialize(address,address,address)":"c0c53b8b","isProcessed(uint256)":"bfe7edd7","pause()":"8456cb59","paused()":"5c975abb","processMessage(uint256,uint256,uint256,(uint256,bytes32,address,bytes),bytes32[])":"93eb47e9","proxiableUUID()":"52d1902d","renounceRole(bytes32,address)":"36568abe","revokeRole(bytes32,address)":"d547741f","supportsInterface(bytes4)":"01ffc9a7","unpause()":"3f4ba83a","upgradeToAndCall(address,bytes)":"4f1ef286"},"storageLayout":{"storage":[{"astId":55372,"contract":"src/MessageQueue.sol:MessageQueue","label":"_governanceAdmin","offset":0,"slot":"0","type":"t_contract(IGovernance)56490"},{"astId":55375,"contract":"src/MessageQueue.sol:MessageQueue","label":"_governancePauser","offset":0,"slot":"1","type":"t_contract(IGovernance)56490"},{"astId":55378,"contract":"src/MessageQueue.sol:MessageQueue","label":"_relayer","offset":0,"slot":"2","type":"t_contract(IRelayer)56712"},{"astId":55382,"contract":"src/MessageQueue.sol:MessageQueue","label":"_processedMessages","offset":0,"slot":"3","type":"t_mapping(t_uint256,t_bool)"}],"types":{"t_bool":{"encoding":"inplace","label":"bool","numberOfBytes":"1"},"t_contract(IGovernance)56490":{"encoding":"inplace","label":"contract IGovernance","numberOfBytes":"20"},"t_contract(IRelayer)56712":{"encoding":"inplace","label":"contract IRelayer","numberOfBytes":"20"},"t_mapping(t_uint256,t_bool)":{"encoding":"mapping","key":"t_uint256","label":"mapping(uint256 => bool)","numberOfBytes":"32","value":"t_bool"},"t_uint256":{"encoding":"inplace","label":"uint256","numberOfBytes":"32"}}},"id":83}