{"abi":[{"type":"constructor","inputs":[],"stateMutability":"nonpayable"},{"type":"function","name":"DEFAULT_ADMIN_ROLE","inputs":[],"outputs":[{"name":"","type":"bytes32","internalType":"bytes32"}],"stateMutability":"view"},{"type":"function","name":"PAUSER_ROLE","inputs":[],"outputs":[{"name":"","type":"bytes32","internalType":"bytes32"}],"stateMutability":"view"},{"type":"function","name":"UPGRADE_INTERFACE_VERSION","inputs":[],"outputs":[{"name":"","type":"string","internalType":"string"}],"stateMutability":"view"},{"type":"function","name":"getMerkleRoot","inputs":[{"name":"blockNumber","type":"uint256","internalType":"uint256"}],"outputs":[{"name":"","type":"bytes32","internalType":"bytes32"}],"stateMutability":"view"},{"type":"function","name":"getRoleAdmin","inputs":[{"name":"role","type":"bytes32","internalType":"bytes32"}],"outputs":[{"name":"","type":"bytes32","internalType":"bytes32"}],"stateMutability":"view"},{"type":"function","name":"governanceAdmin","inputs":[],"outputs":[{"name":"","type":"address","internalType":"address"}],"stateMutability":"view"},{"type":"function","name":"governancePauser","inputs":[],"outputs":[{"name":"","type":"address","internalType":"address"}],"stateMutability":"view"},{"type":"function","name":"grantRole","inputs":[{"name":"role","type":"bytes32","internalType":"bytes32"},{"name":"account","type":"address","internalType":"address"}],"outputs":[],"stateMutability":"nonpayable"},{"type":"function","name":"hasRole","inputs":[{"name":"role","type":"bytes32","internalType":"bytes32"},{"name":"account","type":"address","internalType":"address"}],"outputs":[{"name":"","type":"bool","internalType":"bool"}],"stateMutability":"view"},{"type":"function","name":"initialize","inputs":[{"name":"governanceAdmin_","type":"address","internalType":"contract IGovernance"},{"name":"governancePauser_","type":"address","internalType":"contract IGovernance"},{"name":"verifier_","type":"address","internalType":"contract IVerifier"}],"outputs":[],"stateMutability":"nonpayable"},{"type":"function","name":"isEmergencyStopped","inputs":[],"outputs":[{"name":"","type":"bool","internalType":"bool"}],"stateMutability":"view"},{"type":"function","name":"isProcessed","inputs":[{"name":"messageNonce","type":"uint256","internalType":"uint256"}],"outputs":[{"name":"","type":"bool","internalType":"bool"}],"stateMutability":"view"},{"type":"function","name":"pause","inputs":[],"outputs":[],"stateMutability":"nonpayable"},{"type":"function","name":"paused","inputs":[],"outputs":[{"name":"","type":"bool","internalType":"bool"}],"stateMutability":"view"},{"type":"function","name":"processMessage","inputs":[{"name":"blockNumber","type":"uint256","internalType":"uint256"},{"name":"totalLeaves","type":"uint256","internalType":"uint256"},{"name":"leafIndex","type":"uint256","internalType":"uint256"},{"name":"message","type":"tuple","internalType":"struct VaraMessage","components":[{"name":"nonce","type":"uint256","internalType":"uint256"},{"name":"source","type":"bytes32","internalType":"bytes32"},{"name":"destination","type":"address","internalType":"address"},{"name":"payload","type":"bytes","internalType":"bytes"}]},{"name":"proof","type":"bytes32[]","internalType":"bytes32[]"}],"outputs":[],"stateMutability":"nonpayable"},{"type":"function","name":"proxiableUUID","inputs":[],"outputs":[{"name":"","type":"bytes32","internalType":"bytes32"}],"stateMutability":"view"},{"type":"function","name":"renounceRole","inputs":[{"name":"role","type":"bytes32","internalType":"bytes32"},{"name":"callerConfirmation","type":"address","internalType":"address"}],"outputs":[],"stateMutability":"nonpayable"},{"type":"function","name":"revokeRole","inputs":[{"name":"role","type":"bytes32","internalType":"bytes32"},{"name":"account","type":"address","internalType":"address"}],"outputs":[],"stateMutability":"nonpayable"},{"type":"function","name":"submitMerkleRoot","inputs":[{"name":"blockNumber","type":"uint256","internalType":"uint256"},{"name":"merkleRoot","type":"bytes32","internalType":"bytes32"},{"name":"proof","type":"bytes","internalType":"bytes"}],"outputs":[],"stateMutability":"nonpayable"},{"type":"function","name":"supportsInterface","inputs":[{"name":"interfaceId","type":"bytes4","internalType":"bytes4"}],"outputs":[{"name":"","type":"bool","internalType":"bool"}],"stateMutability":"view"},{"type":"function","name":"unpause","inputs":[],"outputs":[],"stateMutability":"nonpayable"},{"type":"function","name":"upgradeToAndCall","inputs":[{"name":"newImplementation","type":"address","internalType":"address"},{"name":"data","type":"bytes","internalType":"bytes"}],"outputs":[],"stateMutability":"payable"},{"type":"function","name":"verifier","inputs":[],"outputs":[{"name":"","type":"address","internalType":"address"}],"stateMutability":"view"},{"type":"event","name":"EmergencyStopSet","inputs":[],"anonymous":false},{"type":"event","name":"Initialized","inputs":[{"name":"version","type":"uint64","indexed":false,"internalType":"uint64"}],"anonymous":false},{"type":"event","name":"MerkleRoot","inputs":[{"name":"blockNumber","type":"uint256","indexed":false,"internalType":"uint256"},{"name":"merkleRoot","type":"bytes32","indexed":false,"internalType":"bytes32"}],"anonymous":false},{"type":"event","name":"MessageProcessed","inputs":[{"name":"blockNumber","type":"uint256","indexed":false,"internalType":"uint256"},{"name":"messageHash","type":"bytes32","indexed":false,"internalType":"bytes32"},{"name":"messageNonce","type":"uint256","indexed":false,"internalType":"uint256"},{"name":"messageDestination","type":"address","indexed":false,"internalType":"address"}],"anonymous":false},{"type":"event","name":"Paused","inputs":[{"name":"account","type":"address","indexed":false,"internalType":"address"}],"anonymous":false},{"type":"event","name":"RoleAdminChanged","inputs":[{"name":"role","type":"bytes32","indexed":true,"internalType":"bytes32"},{"name":"previousAdminRole","type":"bytes32","indexed":true,"internalType":"bytes32"},{"name":"newAdminRole","type":"bytes32","indexed":true,"internalType":"bytes32"}],"anonymous":false},{"type":"event","name":"RoleGranted","inputs":[{"name":"role","type":"bytes32","indexed":true,"internalType":"bytes32"},{"name":"account","type":"address","indexed":true,"internalType":"address"},{"name":"sender","type":"address","indexed":true,"internalType":"address"}],"anonymous":false},{"type":"event","name":"RoleRevoked","inputs":[{"name":"role","type":"bytes32","indexed":true,"internalType":"bytes32"},{"name":"account","type":"address","indexed":true,"internalType":"address"},{"name":"sender","type":"address","indexed":true,"internalType":"address"}],"anonymous":false},{"type":"event","name":"Unpaused","inputs":[{"name":"account","type":"address","indexed":false,"internalType":"address"}],"anonymous":false},{"type":"event","name":"Upgraded","inputs":[{"name":"implementation","type":"address","indexed":true,"internalType":"address"}],"anonymous":false},{"type":"error","name":"AccessControlBadConfirmation","inputs":[]},{"type":"error","name":"AccessControlUnauthorizedAccount","inputs":[{"name":"account","type":"address","internalType":"address"},{"name":"neededRole","type":"bytes32","internalType":"bytes32"}]},{"type":"error","name":"AddressEmptyCode","inputs":[{"name":"target","type":"address","internalType":"address"}]},{"type":"error","name":"ERC1967InvalidImplementation","inputs":[{"name":"implementation","type":"address","internalType":"address"}]},{"type":"error","name":"ERC1967NonPayable","inputs":[]},{"type":"error","name":"EmergencyStop","inputs":[]},{"type":"error","name":"EnforcedPause","inputs":[]},{"type":"error","name":"ExpectedPause","inputs":[]},{"type":"error","name":"FailedCall","inputs":[]},{"type":"error","name":"InvalidInitialization","inputs":[]},{"type":"error","name":"InvalidMerkleProof","inputs":[]},{"type":"error","name":"InvalidPlonkProof","inputs":[]},{"type":"error","name":"MerkleRootAlreadySet","inputs":[{"name":"blockNumber","type":"uint256","internalType":"uint256"}]},{"type":"error","name":"MerkleRootNotFound","inputs":[{"name":"blockNumber","type":"uint256","internalType":"uint256"}]},{"type":"error","name":"MessageAlreadyProcessed","inputs":[{"name":"messageNonce","type":"uint256","internalType":"uint256"}]},{"type":"error","name":"NotInitializing","inputs":[]},{"type":"error","name":"UUPSUnauthorizedCallContext","inputs":[]},{"type":"error","name":"UUPSUnsupportedProxiableUUID","inputs":[{"name":"slot","type":"bytes32","internalType":"bytes32"}]}],"bytecode":{"object":"0x60a080604052346100c257306080525f5160206116eb5f395f51905f525460ff8160401c166100b3576002600160401b03196001600160401b03821601610060575b60405161162490816100c78239608051818181610b930152610c630152f35b6001600160401b0319166001600160401b039081175f5160206116eb5f395f51905f525581527fc7f505b2f371ae2175ee4913f4499e1f2633a7b5936321eed1cdaeb6115181d290602090a15f80610041565b63f92ee8a960e01b5f5260045ffd5b5f80fdfe6080806040526004361015610012575f80fd5b5f905f3560e01c90816258f6b8146110525750806301ffc9a714610ffc5780630aab8ba514610fd2578063248a9ca314610f935780632b7ac3f314610f6b5780632f2ff15d14610f2157806336568abe14610edd5780633f4ba83a14610e5f5780634f1ef28614610be757806352d1902d14610b815780635c975abb14610b535780638456cb5914610ae157806391d1485414610a8c57806393eb47e9146106cc578063a217fddf146106b0578063ad3cb1cc14610654578063bfe7edd714610625578063c0c53b8b1461044e578063c81eb79714610425578063cca66a9d146101b2578063d547741f1461015e578063e63ab1e9146101425763fddd48371461011a575f80fd5b3461013f578060031936011261013f57602060ff60025460a01c166040519015158152f35b80fd5b503461013f578060031936011261013f57602060405160018152f35b503461013f57604036600319011261013f576101ae60043561017e611074565b906101a96101a4825f525f5160206115c45f395f51905f52602052600160405f20015490565b6111a9565b6113ef565b5080f35b503461013f57606036600319011261013f5760043560243560443567ffffffffffffffff81116103ce57366023820112156103ce5780600401359067ffffffffffffffff8211610421573660248383010111610421576002549060ff8260a01c16610412576040516102256060826110a0565b60028152602081019160403684378151156103fe578560401c83528151600110156103fe579391906040810163ffffffff60601b8860601b1667ffffffffffffffff60801b8860801b16179052602061029b604051968795633054963960e01b8752604060048801526024604488019201611139565b848103600319016024860152915180835291019190885b8181106103e5575060209492849003928492506001600160a01b031690505afa9081156103da57849161039b575b501561038c5781835260036020526040832054801561034b571461033957506002805460ff60a01b1916600160a01b1790557fae1fc94fd692bf240be219cead4601265a701df263b7045071227f1ba37f47508180a180f35b638d60c7ab60e01b8252600452602490fd5b50816040917f48211a20c285b6b077b7917b8bb118eaa92efdfb8fa2e3b114ffa253e0b665ae9385526003602052808386205582519182526020820152a180f35b636859a69960e11b8352600483fd5b90506020813d6020116103d2575b816103b6602093836110a0565b810103126103ce575180151581036103ce575f6102e0565b8380fd5b3d91506103a9565b6040513d86823e3d90fd5b82518452869450602093840193909201916001016102b2565b634e487b7160e01b88526032600452602488fd5b6313a5ef3f60e21b8652600486fd5b8480fd5b503461013f578060031936011261013f576001546040516001600160a01b039091168152602090f35b503461013f57606036600319011261013f5761046861108a565b610470611074565b6044356001600160a01b03811691908290036103ce575f5160206116045f395f51905f52549260ff8460401c16159367ffffffffffffffff81168015908161061d575b6001149081610613575b15908161060a575b506105fb5767ffffffffffffffff1981166001175f5160206116045f395f51905f5255846105cf575b506104f761151a565b6104ff61151a565b61050761151a565b6001600160a01b03169061051a826111ef565b506105248261129e565b506001600160a01b0316906105388261129e565b506001600160601b0360a01b8554161784556001600160601b0360a01b60015416176001556001600160601b0360a01b60025416176002556105775780f35b68ff0000000000000000195f5160206116045f395f51905f5254165f5160206116045f395f51905f52557fc7f505b2f371ae2175ee4913f4499e1f2633a7b5936321eed1cdaeb6115181d2602060405160018152a180f35b68ffffffffffffffffff191668010000000000000001175f5160206116045f395f51905f52555f6104ee565b63f92ee8a960e01b8652600486fd5b9050155f6104c5565b303b1591506104bd565b8691506104b3565b503461013f57602036600319011261013f5760ff60406020926004358152600484522054166040519015158152f35b503461013f578060031936011261013f576040805161067382826110a0565b6005815260208101640352e302e360dc1b81528251938492602084525180928160208601528585015e828201840152601f01601f19168101030190f35b503461013f578060031936011261013f57602090604051908152f35b503461098b5760a036600319011261098b5760043560643567ffffffffffffffff811161098b5780600401906080600319823603011261098b576084359167ffffffffffffffff831161098b573660238401121561098b5782600401359067ffffffffffffffff821161098b573660248360051b8601011161098b575f54604051635aa6e67560e01b8152602485013591602090829060049082906001600160a01b03165afa908115610980575f91610a5a575b50811480156109eb575b60ff5f5160206115e45f395f51905f52541690816109e2575b506109d35760ff60025460a01c166109c457813593845f52600460205260ff60405f2054166109b157865f52600360205260405f205493841561099e576108679060448301958760646107f5896110f2565b95019461084b6074610807888b611106565b80604095929551958693602085019889528d60408601526001600160601b03199060601b1660608501528484013781015f838201520301601f1981018352826110a0565b5190205f5260205f20988992604435926024803593019061148b565b1561098f575f858152600460205260409020805460ff191660011790556108a0906001600160a01b03610899866110f2565b1693611106565b92803b1561098b576108d9935f809460405196879586948593630302ac5d60e41b85526004850152604060248501526044840191611139565b03925af180156109805761093d575b50917f994c669cfd9c0453d42c933a11c002a34d12d85563aebe99ca525fffc45454f893916109186080946110f2565b604080519485526020850193909352918301526001600160a01b03166060820152a180f35b608093919550916109705f7f994c669cfd9c0453d42c933a11c002a34d12d85563aebe99ca525fffc45454f896946110a0565b6109185f969294505091936108e8565b6040513d5f823e3d90fd5b5f80fd5b63582f497d60e11b5f5260045ffd5b876355d7a68b60e01b5f5260045260245ffd5b846338503e3360e21b5f5260045260245ffd5b6313a5ef3f60e21b5f5260045ffd5b63d93c066560e01b5f5260045ffd5b9050155f6107a3565b50600154604051635aa6e67560e01b815290602090829060049082906001600160a01b03165afa908115610980575f91610a28575b50811461078a565b90506020813d602011610a52575b81610a43602093836110a0565b8101031261098b57515f610a20565b3d9150610a36565b90506020813d602011610a84575b81610a75602093836110a0565b8101031261098b57515f610780565b3d9150610a68565b3461098b57604036600319011261098b57610aa5611074565b6004355f525f5160206115c45f395f51905f5260205260405f209060018060a01b03165f52602052602060ff60405f2054166040519015158152f35b3461098b575f36600319011261098b57610af9611159565b5f5160206115e45f395f51905f525460ff81166109d35760019060ff1916175f5160206115e45f395f51905f52557f62e78cea01bee320cd4e420270b5ea74000d11b0c9f74754ebdbfc544b05a2586020604051338152a1005b3461098b575f36600319011261098b57602060ff5f5160206115e45f395f51905f5254166040519015158152f35b3461098b575f36600319011261098b577f00000000000000000000000000000000000000000000000000000000000000006001600160a01b03163003610bd85760206040515f5160206115a45f395f51905f528152f35b63703e46dd60e11b5f5260045ffd5b604036600319011261098b57610bfb61108a565b6024359067ffffffffffffffff821161098b573660238301121561098b57816004013590610c28826110d6565b91610c3660405193846110a0565b8083526020830193366024838301011161098b57815f926024602093018737840101526001600160a01b037f000000000000000000000000000000000000000000000000000000000000000016308114908115610e3d575b50610bd857335f9081527fb7db2dd08fcb62d0c9e08c51941cae53c267786a0b75803fb7960902fc8ef97d602052604090205460ff1615610e26576040516352d1902d60e01b81526001600160a01b0382169390602081600481885afa5f9181610df2575b50610d0b5784634c9c8ce360e01b5f5260045260245ffd5b805f5160206115a45f395f51905f52869203610de05750823b15610dce575f5160206115a45f395f51905f5280546001600160a01b031916821790557fbc7cd75a20ee27fd9adebab32041f755214dbc6bffa90cc0225b39da2e5c2d3b5f80a2825115610db5575f8091610dab945190845af43d15610dad573d91610d8f836110d6565b92610d9d60405194856110a0565b83523d5f602085013e611545565b005b606091611545565b50505034610dbf57005b63b398979f60e01b5f5260045ffd5b634c9c8ce360e01b5f5260045260245ffd5b632a87526960e21b5f5260045260245ffd5b9091506020813d602011610e1e575b81610e0e602093836110a0565b8101031261098b57519086610cf3565b3d9150610e01565b63e2517d3f60e01b5f52336004525f60245260445ffd5b5f5160206115a45f395f51905f52546001600160a01b03161415905084610c8e565b3461098b575f36600319011261098b57610e77611159565b5f5160206115e45f395f51905f525460ff811615610ece5760ff19165f5160206115e45f395f51905f52557f5db9ee0a495bf2e6ff9c91a7834c1ba4fdd244a5e8aa4e537bd38aeae4b073aa6020604051338152a1005b638dfc202b60e01b5f5260045ffd5b3461098b57604036600319011261098b57610ef6611074565b336001600160a01b03821603610f1257610dab906004356113ef565b63334bd91960e11b5f5260045ffd5b3461098b57604036600319011261098b57610dab600435610f40611074565b90610f666101a4825f525f5160206115c45f395f51905f52602052600160405f20015490565b61134b565b3461098b575f36600319011261098b576002546040516001600160a01b039091168152602090f35b3461098b57602036600319011261098b576020610fca6004355f525f5160206115c45f395f51905f52602052600160405f20015490565b604051908152f35b3461098b57602036600319011261098b576004355f526003602052602060405f2054604051908152f35b3461098b57602036600319011261098b5760043563ffffffff60e01b811680910361098b57602090637965db0b60e01b8114908115611041575b506040519015158152f35b6301ffc9a760e01b14905082611036565b3461098b575f36600319011261098b575f546001600160a01b03168152602090f35b602435906001600160a01b038216820361098b57565b600435906001600160a01b038216820361098b57565b90601f8019910116810190811067ffffffffffffffff8211176110c257604052565b634e487b7160e01b5f52604160045260245ffd5b67ffffffffffffffff81116110c257601f01601f191660200190565b356001600160a01b038116810361098b5790565b903590601e198136030182121561098b570180359067ffffffffffffffff821161098b5760200191813603831361098b57565b908060209392818452848401375f828201840152601f01601f1916010190565b335f9081527f2222dce04fae1e25cd76e9391151ad9e0187ef92144ac6ce9e4e09f2c453b751602052604090205460ff161561119157565b63e2517d3f60e01b5f5233600452600160245260445ffd5b5f8181525f5160206115c45f395f51905f526020908152604080832033845290915290205460ff16156111d95750565b63e2517d3f60e01b5f523360045260245260445ffd5b6001600160a01b0381165f9081527fb7db2dd08fcb62d0c9e08c51941cae53c267786a0b75803fb7960902fc8ef97d602052604090205460ff16611299576001600160a01b03165f8181527fb7db2dd08fcb62d0c9e08c51941cae53c267786a0b75803fb7960902fc8ef97d60205260408120805460ff191660011790553391907f2f8788117e7eff1d82e926ec794901d17c78024a50270940304540a733656f0d8180a4600190565b505f90565b6001600160a01b0381165f9081527f2222dce04fae1e25cd76e9391151ad9e0187ef92144ac6ce9e4e09f2c453b751602052604090205460ff16611299576001600160a01b03165f8181527f2222dce04fae1e25cd76e9391151ad9e0187ef92144ac6ce9e4e09f2c453b75160205260408120805460ff191660019081179091553392917f2f8788117e7eff1d82e926ec794901d17c78024a50270940304540a733656f0d9080a4600190565b5f8181525f5160206115c45f395f51905f52602090815260408083206001600160a01b038616845290915290205460ff166113e9575f8181525f5160206115c45f395f51905f52602090815260408083206001600160a01b0395909516808452949091528120805460ff19166001179055339291907f2f8788117e7eff1d82e926ec794901d17c78024a50270940304540a733656f0d9080a4600190565b50505f90565b5f8181525f5160206115c45f395f51905f52602090815260408083206001600160a01b038616845290915290205460ff16156113e9575f8181525f5160206115c45f395f51905f52602090815260408083206001600160a01b0395909516808452949091528120805460ff19169055339291907ff6391f5c32d9c69d2a47ea670b442974b53935d1edc7fd64eb21e047a839171b9080a4600190565b9194959092938481101561150f575f969092905b8688101561150557808860051b8601359060018087161480156114f9575b156114e457505f5260205260018060405f20945b811c965f1901811c01970196949261149f565b9091505f5260205260018060405f20946114d1565b508760018701146114bd565b1495509350505050565b509450505050505f90565b60ff5f5160206116045f395f51905f525460401c161561153657565b631afcd79f60e31b5f5260045ffd5b90611569575080511561155a57602081519101fd5b63d6bda27560e01b5f5260045ffd5b8151158061159a575b61157a575090565b639996b31560e01b5f9081526001600160a01b0391909116600452602490fd5b50803b1561157256fe360894a13ba1a3210667c828492db98dca3e2076cc3735a920a3ca505d382bbc02dd7bc7dec4dceedda775e58dd541e08a116c6c53815c0bd028192f7b626800cd5ed15c6e187e77e9aee88184c21f4f2182ab5827cb3b7e07fbedcd63f03300f0c57e16840df040f15088dc2f81fe391c3923bec73e23a9662efc9c229c6a00f0c57e16840df040f15088dc2f81fe391c3923bec73e23a9662efc9c229c6a00","linkReferences":{}},"methodIdentifiers":{"DEFAULT_ADMIN_ROLE()":"a217fddf","PAUSER_ROLE()":"e63ab1e9","UPGRADE_INTERFACE_VERSION()":"ad3cb1cc","getMerkleRoot(uint256)":"0aab8ba5","getRoleAdmin(bytes32)":"248a9ca3","governanceAdmin()":"0058f6b8","governancePauser()":"c81eb797","grantRole(bytes32,address)":"2f2ff15d","hasRole(bytes32,address)":"91d14854","initialize(address,address,address)":"c0c53b8b","isEmergencyStopped()":"fddd4837","isProcessed(uint256)":"bfe7edd7","pause()":"8456cb59","paused()":"5c975abb","processMessage(uint256,uint256,uint256,(uint256,bytes32,address,bytes),bytes32[])":"93eb47e9","proxiableUUID()":"52d1902d","renounceRole(bytes32,address)":"36568abe","revokeRole(bytes32,address)":"d547741f","submitMerkleRoot(uint256,bytes32,bytes)":"cca66a9d","supportsInterface(bytes4)":"01ffc9a7","unpause()":"3f4ba83a","upgradeToAndCall(address,bytes)":"4f1ef286","verifier()":"2b7ac3f3"},"storageLayout":{"storage":[{"astId":61565,"contract":"src/MessageQueue.sol:MessageQueue","label":"_governanceAdmin","offset":0,"slot":"0","type":"t_contract(IGovernance)62981"},{"astId":61568,"contract":"src/MessageQueue.sol:MessageQueue","label":"_governancePauser","offset":0,"slot":"1","type":"t_contract(IGovernance)62981"},{"astId":61571,"contract":"src/MessageQueue.sol:MessageQueue","label":"_verifier","offset":0,"slot":"2","type":"t_contract(IVerifier)63367"},{"astId":61573,"contract":"src/MessageQueue.sol:MessageQueue","label":"_emergencyStop","offset":20,"slot":"2","type":"t_bool"},{"astId":61577,"contract":"src/MessageQueue.sol:MessageQueue","label":"_blockNumbers","offset":0,"slot":"3","type":"t_mapping(t_uint256,t_bytes32)"},{"astId":61581,"contract":"src/MessageQueue.sol:MessageQueue","label":"_processedMessages","offset":0,"slot":"4","type":"t_mapping(t_uint256,t_bool)"}],"types":{"t_bool":{"encoding":"inplace","label":"bool","numberOfBytes":"1"},"t_bytes32":{"encoding":"inplace","label":"bytes32","numberOfBytes":"32"},"t_contract(IGovernance)62981":{"encoding":"inplace","label":"contract IGovernance","numberOfBytes":"20"},"t_contract(IVerifier)63367":{"encoding":"inplace","label":"contract IVerifier","numberOfBytes":"20"},"t_mapping(t_uint256,t_bool)":{"encoding":"mapping","key":"t_uint256","label":"mapping(uint256 => bool)","numberOfBytes":"32","value":"t_bool"},"t_mapping(t_uint256,t_bytes32)":{"encoding":"mapping","key":"t_uint256","label":"mapping(uint256 => bytes32)","numberOfBytes":"32","value":"t_bytes32"},"t_uint256":{"encoding":"inplace","label":"uint256","numberOfBytes":"32"}}},"id":88}