{"abi":[{"type":"constructor","inputs":[],"stateMutability":"nonpayable"},{"type":"function","name":"CHALLENGE_ROOT_DELAY","inputs":[],"outputs":[{"name":"","type":"uint256","internalType":"uint256"}],"stateMutability":"view"},{"type":"function","name":"DEFAULT_ADMIN_ROLE","inputs":[],"outputs":[{"name":"","type":"bytes32","internalType":"bytes32"}],"stateMutability":"view"},{"type":"function","name":"MAX_BLOCK_DISTANCE","inputs":[],"outputs":[{"name":"","type":"uint256","internalType":"uint256"}],"stateMutability":"view"},{"type":"function","name":"PAUSER_ROLE","inputs":[],"outputs":[{"name":"","type":"bytes32","internalType":"bytes32"}],"stateMutability":"view"},{"type":"function","name":"PROCESS_ADMIN_MESSAGE_DELAY","inputs":[],"outputs":[{"name":"","type":"uint256","internalType":"uint256"}],"stateMutability":"view"},{"type":"function","name":"PROCESS_PAUSER_MESSAGE_DELAY","inputs":[],"outputs":[{"name":"","type":"uint256","internalType":"uint256"}],"stateMutability":"view"},{"type":"function","name":"PROCESS_USER_MESSAGE_DELAY","inputs":[],"outputs":[{"name":"","type":"uint256","internalType":"uint256"}],"stateMutability":"view"},{"type":"function","name":"UPGRADE_INTERFACE_VERSION","inputs":[],"outputs":[{"name":"","type":"string","internalType":"string"}],"stateMutability":"view"},{"type":"function","name":"allowMessageProcessing","inputs":[],"outputs":[],"stateMutability":"nonpayable"},{"type":"function","name":"challengeRoot","inputs":[],"outputs":[],"stateMutability":"nonpayable"},{"type":"function","name":"disableChallengeRoot","inputs":[],"outputs":[],"stateMutability":"nonpayable"},{"type":"function","name":"emergencyStopAdmin","inputs":[],"outputs":[{"name":"","type":"address","internalType":"address"}],"stateMutability":"view"},{"type":"function","name":"emergencyStopObservers","inputs":[],"outputs":[{"name":"","type":"address[]","internalType":"address[]"}],"stateMutability":"view"},{"type":"function","name":"genesisBlock","inputs":[],"outputs":[{"name":"","type":"uint256","internalType":"uint256"}],"stateMutability":"view"},{"type":"function","name":"getMerkleRoot","inputs":[{"name":"blockNumber","type":"uint256","internalType":"uint256"}],"outputs":[{"name":"","type":"bytes32","internalType":"bytes32"}],"stateMutability":"view"},{"type":"function","name":"getMerkleRootTimestamp","inputs":[{"name":"merkleRoot","type":"bytes32","internalType":"bytes32"}],"outputs":[{"name":"","type":"uint256","internalType":"uint256"}],"stateMutability":"view"},{"type":"function","name":"getRoleAdmin","inputs":[{"name":"role","type":"bytes32","internalType":"bytes32"}],"outputs":[{"name":"","type":"bytes32","internalType":"bytes32"}],"stateMutability":"view"},{"type":"function","name":"governanceAdmin","inputs":[],"outputs":[{"name":"","type":"address","internalType":"address"}],"stateMutability":"view"},{"type":"function","name":"governancePauser","inputs":[],"outputs":[{"name":"","type":"address","internalType":"address"}],"stateMutability":"view"},{"type":"function","name":"grantRole","inputs":[{"name":"role","type":"bytes32","internalType":"bytes32"},{"name":"account","type":"address","internalType":"address"}],"outputs":[],"stateMutability":"nonpayable"},{"type":"function","name":"hasRole","inputs":[{"name":"role","type":"bytes32","internalType":"bytes32"},{"name":"account","type":"address","internalType":"address"}],"outputs":[{"name":"","type":"bool","internalType":"bool"}],"stateMutability":"view"},{"type":"function","name":"initialize","inputs":[{"name":"governanceAdmin_","type":"address","internalType":"contract IGovernance"},{"name":"governancePauser_","type":"address","internalType":"contract IGovernance"},{"name":"emergencyStopAdmin_","type":"address","internalType":"address"},{"name":"emergencyStopObservers_","type":"address[]","internalType":"address[]"},{"name":"verifier_","type":"address","internalType":"contract IVerifier"}],"outputs":[],"stateMutability":"nonpayable"},{"type":"function","name":"isChallengingRoot","inputs":[],"outputs":[{"name":"","type":"bool","internalType":"bool"}],"stateMutability":"view"},{"type":"function","name":"isEmergencyStopped","inputs":[],"outputs":[{"name":"","type":"bool","internalType":"bool"}],"stateMutability":"view"},{"type":"function","name":"isProcessed","inputs":[{"name":"messageNonce","type":"uint256","internalType":"uint256"}],"outputs":[{"name":"","type":"bool","internalType":"bool"}],"stateMutability":"view"},{"type":"function","name":"maxBlockNumber","inputs":[],"outputs":[{"name":"","type":"uint256","internalType":"uint256"}],"stateMutability":"view"},{"type":"function","name":"pause","inputs":[],"outputs":[],"stateMutability":"nonpayable"},{"type":"function","name":"paused","inputs":[],"outputs":[{"name":"","type":"bool","internalType":"bool"}],"stateMutability":"view"},{"type":"function","name":"processMessage","inputs":[{"name":"blockNumber","type":"uint256","internalType":"uint256"},{"name":"totalLeaves","type":"uint256","internalType":"uint256"},{"name":"leafIndex","type":"uint256","internalType":"uint256"},{"name":"message","type":"tuple","internalType":"struct VaraMessage","components":[{"name":"nonce","type":"uint256","internalType":"uint256"},{"name":"source","type":"bytes32","internalType":"bytes32"},{"name":"destination","type":"address","internalType":"address"},{"name":"payload","type":"bytes","internalType":"bytes"}]},{"name":"proof","type":"bytes32[]","internalType":"bytes32[]"}],"outputs":[],"stateMutability":"nonpayable"},{"type":"function","name":"proxiableUUID","inputs":[],"outputs":[{"name":"","type":"bytes32","internalType":"bytes32"}],"stateMutability":"view"},{"type":"function","name":"reinitialize","inputs":[],"outputs":[],"stateMutability":"nonpayable"},{"type":"function","name":"renounceRole","inputs":[{"name":"role","type":"bytes32","internalType":"bytes32"},{"name":"callerConfirmation","type":"address","internalType":"address"}],"outputs":[],"stateMutability":"nonpayable"},{"type":"function","name":"revokeRole","inputs":[{"name":"role","type":"bytes32","internalType":"bytes32"},{"name":"account","type":"address","internalType":"address"}],"outputs":[],"stateMutability":"nonpayable"},{"type":"function","name":"submitMerkleRoot","inputs":[{"name":"blockNumber","type":"uint256","internalType":"uint256"},{"name":"merkleRoot","type":"bytes32","internalType":"bytes32"},{"name":"proof","type":"bytes","internalType":"bytes"}],"outputs":[],"stateMutability":"nonpayable"},{"type":"function","name":"supportsInterface","inputs":[{"name":"interfaceId","type":"bytes4","internalType":"bytes4"}],"outputs":[{"name":"","type":"bool","internalType":"bool"}],"stateMutability":"view"},{"type":"function","name":"unpause","inputs":[],"outputs":[],"stateMutability":"nonpayable"},{"type":"function","name":"upgradeToAndCall","inputs":[{"name":"newImplementation","type":"address","internalType":"address"},{"name":"data","type":"bytes","internalType":"bytes"}],"outputs":[],"stateMutability":"payable"},{"type":"function","name":"verifier","inputs":[],"outputs":[{"name":"","type":"address","internalType":"address"}],"stateMutability":"view"},{"type":"event","name":"ChallengeRootDisabled","inputs":[],"anonymous":false},{"type":"event","name":"ChallengeRootEnabled","inputs":[{"name":"untilTimestamp","type":"uint256","indexed":false,"internalType":"uint256"}],"anonymous":false},{"type":"event","name":"EmergencyStopDisabled","inputs":[],"anonymous":false},{"type":"event","name":"EmergencyStopEnabled","inputs":[],"anonymous":false},{"type":"event","name":"Initialized","inputs":[{"name":"version","type":"uint64","indexed":false,"internalType":"uint64"}],"anonymous":false},{"type":"event","name":"MerkleRoot","inputs":[{"name":"blockNumber","type":"uint256","indexed":false,"internalType":"uint256"},{"name":"merkleRoot","type":"bytes32","indexed":false,"internalType":"bytes32"}],"anonymous":false},{"type":"event","name":"MessageProcessed","inputs":[{"name":"blockNumber","type":"uint256","indexed":false,"internalType":"uint256"},{"name":"messageHash","type":"bytes32","indexed":false,"internalType":"bytes32"},{"name":"messageNonce","type":"uint256","indexed":false,"internalType":"uint256"},{"name":"messageDestination","type":"address","indexed":false,"internalType":"address"}],"anonymous":false},{"type":"event","name":"MessageProcessingAllowed","inputs":[],"anonymous":false},{"type":"event","name":"Paused","inputs":[{"name":"account","type":"address","indexed":false,"internalType":"address"}],"anonymous":false},{"type":"event","name":"RoleAdminChanged","inputs":[{"name":"role","type":"bytes32","indexed":true,"internalType":"bytes32"},{"name":"previousAdminRole","type":"bytes32","indexed":true,"internalType":"bytes32"},{"name":"newAdminRole","type":"bytes32","indexed":true,"internalType":"bytes32"}],"anonymous":false},{"type":"event","name":"RoleGranted","inputs":[{"name":"role","type":"bytes32","indexed":true,"internalType":"bytes32"},{"name":"account","type":"address","indexed":true,"internalType":"address"},{"name":"sender","type":"address","indexed":true,"internalType":"address"}],"anonymous":false},{"type":"event","name":"RoleRevoked","inputs":[{"name":"role","type":"bytes32","indexed":true,"internalType":"bytes32"},{"name":"account","type":"address","indexed":true,"internalType":"address"},{"name":"sender","type":"address","indexed":true,"internalType":"address"}],"anonymous":false},{"type":"event","name":"Unpaused","inputs":[{"name":"account","type":"address","indexed":false,"internalType":"address"}],"anonymous":false},{"type":"event","name":"Upgraded","inputs":[{"name":"implementation","type":"address","indexed":true,"internalType":"address"}],"anonymous":false},{"type":"error","name":"AccessControlBadConfirmation","inputs":[]},{"type":"error","name":"AccessControlUnauthorizedAccount","inputs":[{"name":"account","type":"address","internalType":"address"},{"name":"neededRole","type":"bytes32","internalType":"bytes32"}]},{"type":"error","name":"AddressEmptyCode","inputs":[{"name":"target","type":"address","internalType":"address"}]},{"type":"error","name":"BlockNumberBeforeGenesis","inputs":[{"name":"blockNumber","type":"uint256","internalType":"uint256"},{"name":"genesisBlock","type":"uint256","internalType":"uint256"}]},{"type":"error","name":"BlockNumberOverflow","inputs":[{"name":"blockNumber","type":"uint256","internalType":"uint256"}]},{"type":"error","name":"BlockNumberTooFar","inputs":[{"name":"blockNumber","type":"uint256","internalType":"uint256"},{"name":"maxBlockNumber","type":"uint256","internalType":"uint256"}]},{"type":"error","name":"ChallengeRoot","inputs":[]},{"type":"error","name":"ChallengeRootNotEnabled","inputs":[]},{"type":"error","name":"ERC1967InvalidImplementation","inputs":[{"name":"implementation","type":"address","internalType":"address"}]},{"type":"error","name":"ERC1967NonPayable","inputs":[]},{"type":"error","name":"EmergencyStop","inputs":[]},{"type":"error","name":"EmergencyStopNotEnabled","inputs":[]},{"type":"error","name":"EnforcedPause","inputs":[]},{"type":"error","name":"ExpectedPause","inputs":[]},{"type":"error","name":"FailedCall","inputs":[]},{"type":"error","name":"InvalidInitialization","inputs":[]},{"type":"error","name":"InvalidMerkleProof","inputs":[]},{"type":"error","name":"InvalidPlonkProof","inputs":[]},{"type":"error","name":"MerkleRootAlreadySet","inputs":[{"name":"blockNumber","type":"uint256","internalType":"uint256"}]},{"type":"error","name":"MerkleRootDelayNotPassed","inputs":[]},{"type":"error","name":"MerkleRootNotFound","inputs":[{"name":"blockNumber","type":"uint256","internalType":"uint256"}]},{"type":"error","name":"MessageAlreadyProcessed","inputs":[{"name":"messageNonce","type":"uint256","internalType":"uint256"}]},{"type":"error","name":"NotEmergencyStopAdmin","inputs":[]},{"type":"error","name":"NotEmergencyStopObserver","inputs":[]},{"type":"error","name":"NotInitializing","inputs":[]},{"type":"error","name":"UUPSUnauthorizedCallContext","inputs":[]},{"type":"error","name":"UUPSUnsupportedProxiableUUID","inputs":[{"name":"slot","type":"bytes32","internalType":"bytes32"}]}],"bytecode":{"object":"0x60a080604052346100c257306080525f516020611f475f395f51905f525460ff8160401c166100b3576002600160401b03196001600160401b03821601610060575b604051611e8090816100c782396080518181816111e701526112dd0152f35b6001600160401b0319166001600160401b039081175f516020611f475f395f51905f525581527fc7f505b2f371ae2175ee4913f4499e1f2633a7b5936321eed1cdaeb6115181d290602090a15f80610041565b63f92ee8a960e01b5f5260045ffd5b5f80fdfe60806040526004361015610011575f80fd5b5f5f3560e01c80624907451461176357806258f6b81461173c57806301ffc9a7146116e65780630aab8ba5146116bc5780630f926c02146116455780632019165414611629578063248a9ca3146115ea5780632b7ac3f3146115c25780632f2ff15d1461157857806336568abe146115345780633f4ba83a146114b65780634610d3aa1461148c5780634cdc9c631461146f5780634f1ef2861461125757806350b0952b1461123b57806352d1902d146111d557806352d190f3146111b15780635c975abb146111835780636c2eb350146110ad57806376afc14f14610fee5780638456cb5914610f7c578063867b827814610a4857806387e97e8c14610f0d57806391d1485414610eb857806393eb47e914610a4d578063a181333c14610a48578063a217fddf14610a2c578063a912fd2514610a0e578063ad3cb1cc146109b2578063b13f222c14610989578063bfe7edd71461095a578063c81eb79714610931578063cca66a9d14610571578063ced1098b14610553578063d547741f146104ff578063e3b1a2b3146101fb578063e63ab1e9146101df5763fddd4837146101ba575f80fd5b346101dc57806003193601126101dc57602060ff600754166040519015158152f35b80fd5b50346101dc57806003193601126101dc57602060405160018152f35b50346101dc5760a03660031901126101dc576102156117e8565b9061021e6117d2565b906044359260018060a01b0384168094036104fb57606435936001600160401b0385116104f757366023860112156104f7578460040135946001600160401b0386116104e3578560051b90602082019661027b60405198896117fe565b875260246020880192820101903682116104df57602401915b8183106104bb575050506084356001600160a01b03811694908590036104b7575f516020611e605f395f51905f5254926001600160401b0360ff8560401c16159416801590816104af575b60011490816104a5575b15908161049c575b5061048d578360016001600160401b03195f516020611e605f395f51905f525416175f516020611e605f395f51905f525561045d575b61032f611cc6565b610337611cc6565b6001600160a01b03169061034a8261199b565b5061035482611a4a565b506001600160a01b03169061036882611a4a565b506001600160601b0360a01b8554161784556001600160601b0360a01b60015416176001556001600160601b0360a01b6002541617600255815b84518110156103f05784518110156103dc57600581901b850160200151600191906103d5906001600160a01b0316611cf1565b50016103a2565b634e487b7160e01b83526032600452602483fd5b50600580546001600160a01b0319168417905561040a5780f35b60ff60401b195f516020611e605f395f51905f5254165f516020611e605f395f51905f52557fc7f505b2f371ae2175ee4913f4499e1f2633a7b5936321eed1cdaeb6115181d2602060405160018152a180f35b600160401b60ff60401b195f516020611e605f395f51905f525416175f516020611e605f395f51905f5255610327565b63f92ee8a960e01b8552600485fd5b9050155f6102f1565b303b1591506102e9565b8591506102df565b8380fd5b82356001600160a01b03811681036104db57815260209283019201610294565b8680fd5b8580fd5b634e487b7160e01b84526041600452602484fd5b8280fd5b5080fd5b50346101dc5760403660031901126101dc5761054f60043561051f6117d2565b9061054a610545825f525f516020611e205f395f51905f52602052600160405f20015490565b611955565b611b9b565b5080f35b50346101dc57806003193601126101dc5760206040516202a3008152f35b50346101dc5760603660031901126101dc576024356004356044356001600160401b0381116104b757366023820112156104b7578060040135906001600160401b03821161092d57366024838301011161092d576002546001600160a01b031633146105db61183b565b80610925575b6109165760ff60075416908161090d575b506108fe5760085480610898575082600855826009555b63ffffffff8311610884576040516106226060826117fe565b6002815260208101906040368337805115610870578560401c8252805160011015610870579192906040830163ffffffff60601b8660601b166001600160401b0360801b8860801b1617905260018060a01b03600554169260206106a3604051968795633054963960e01b8752604060048801526024604488019201611896565b848103600319016024860152915180835291019190885b8181106108575750505091818060209403915afa90811561084c578491610811575b501561080257808352600b60205260408320549182156107a057821461078e578252600b6020528160408120558152600c60205280604081205560075460ff811615610726575080f35b60ff19166001176007557f015567d35557fdfcbb3bbfe9dbf4f5c651cb9e461e784ac02c8152fbdb7319718180a161075c61183b565b6107635780f35b806006557fa6262a506984c4ee15f889b617462c54ac45d6d7739c9cdceea59098ee5edeb88180a180f35b638d60c7ab60e01b8352600452602482fd5b7f48211a20c285b6b077b7917b8bb118eaa92efdfb8fa2e3b114ffa253e0b665ae925090604091818552600b6020528083862055808552600c602052428386205560095482116107f9575b82519182526020820152a180f35b816009556107eb565b636859a69960e11b8352600483fd5b90506020813d602011610844575b8161082c602093836117fe565b810103126104b7575180151581036104b7575f6106dc565b3d915061081f565b6040513d86823e3d90fd5b82518452869450602093840193909201916001016106ba565b634e487b7160e01b87526032600452602487fd5b631245137d60e21b85526004839052602485fd5b8084106108e7575060095461e10081018091116108d3578084116108bc5750610609565b631931db8560e11b86526004849052602452604485fd5b634e487b7160e01b86526011600452602486fd5b63e370b92d60e01b86526004849052602452604485fd5b6313a5ef3f60e21b8552600485fd5b9050155f6105f2565b63137de62760e21b8652600486fd5b5080156105e1565b8480fd5b50346101dc57806003193601126101dc576001546040516001600160a01b039091168152602090f35b50346101dc5760203660031901126101dc5760ff60406020926004358152600d84522054166040519015158152f35b50346101dc57806003193601126101dc576002546040516001600160a01b039091168152602090f35b50346101dc57806003193601126101dc57604080516109d182826117fe565b6005815260208101640352e302e360dc1b81528251938492602084525180928160208601528585015e828201840152601f01601f19168101030190f35b50346101dc57806003193601126101dc576020600954604051908152f35b50346101dc57806003193601126101dc57602090604051908152f35b61181f565b5034610d895760a0366003190112610d89576004356064356001600160401b038111610d8957806004019060806003198236030112610d8957608435916001600160401b038311610d895736602384011215610d89578260040135906001600160401b038211610d89573660248360051b86010111610d8957610ace61183b565b610ea9575f54604051635aa6e67560e01b81529390602090859060049082906001600160a01b03165afa908115610d7e575f91610e74575b600154604051635aa6e67560e01b81529550602090869060049082906001600160a01b03165afa948515610d7e575f95610e40575b50602481013591821493848015610e37575b60ff5f516020611e405f395f51905f5254169081610e2e575b50610e1f576002546001600160a01b031633148015610e13575b60ff600754169081610e0a575b50610dfb57833595865f52600d60205260ff60405f205416610de857885f52600b60205260405f2054958615610dd55715610dbf5750610e105b855f52600c60205260405f2054908101809111610dab574210610d9c57610c65906044830195876064610bf989611850565b950194610c4f6074610c0b888b611864565b80604095929551958693602085019889528d60408601526001600160601b03199060601b1660608501528484013781015f838201520301601f1981018352826117fe565b5190209889926044359260248035930190611c37565b15610d8d575f858152600d60205260409020805460ff19166001179055610c9e906001600160a01b03610c9786611850565b1693611864565b92803b15610d8957610cd7935f809460405196879586948593630302ac5d60e41b85526004850152604060248501526044840191611896565b03925af18015610d7e57610d3b575b50917f994c669cfd9c0453d42c933a11c002a34d12d85563aebe99ca525fffc45454f89391610d16608094611850565b604080519485526020850193909352918301526001600160a01b03166060820152a180f35b60809391955091610d6e5f7f994c669cfd9c0453d42c933a11c002a34d12d85563aebe99ca525fffc45454f896946117fe565b610d165f96929450509193610ce6565b6040513d5f823e3d90fd5b5f80fd5b63582f497d60e11b5f5260045ffd5b63a4f7d3e960e01b5f5260045ffd5b634e487b7160e01b5f52601160045260245ffd5b8303610dcd5761012c610bc7565b61012c610bc7565b896355d7a68b60e01b5f5260045260245ffd5b866338503e3360e21b5f5260045260245ffd5b6313a5ef3f60e21b5f5260045ffd5b9050155f610b8d565b5060ff600a5416610b80565b63d93c066560e01b5f5260045ffd5b9050155f610b66565b50858314610b4d565b9094506020813d602011610e6c575b81610e5c602093836117fe565b81010312610d895751935f610b3b565b3d9150610e4f565b90506020843d602011610ea1575b81610e8f602093836117fe565b81010312610d89576004935190610b06565b3d9150610e82565b63137de62760e21b5f5260045ffd5b34610d89576040366003190112610d8957610ed16117d2565b6004355f525f516020611e205f395f51905f5260205260405f209060018060a01b03165f52602052602060ff60405f2054166040519015158152f35b34610d89575f366003190112610d8957335f52600460205260405f205415610f6d57426006556202a3004201804211610dab5760207f9a878a4ae6a3ebc7d241df3b1837491b2b9a9cdd0580170a7f2c555d7b15ad8b91604051908152a1005b63d3e7b38160e01b5f5260045ffd5b34610d89575f366003190112610d8957610f946118b6565b5f516020611e405f395f51905f525460ff8116610e1f5760019060ff1916175f516020611e405f395f51905f52557f62e78cea01bee320cd4e420270b5ea74000d11b0c9f74754ebdbfc544b05a2586020604051338152a1005b34610d89575f366003190112610d89576040518060206003549283815201809260035f527fc2575a0e9e593c00f959f8c92f12db2869c3395a3b0502d05e2516446f71f85b905f5b818110611097575050508161104c9103826117fe565b604051918291602083019060208452518091526040830191905f5b818110611075575050500390f35b82516001600160a01b0316845285945060209384019390920191600101611067565b8254845260209093019260019283019201611036565b34610d89575f366003190112610d89576110c5611906565b5f516020611e605f395f51905f525460ff8160401c1690811561116e575b5061115f575f516020611e605f395f51905f528054600580546001600160a01b03191673b7142e82ceead0df5d0b3507240a503e99e1881e17815568ffffffffffffffffff1990911681179091556040519081527fc7f505b2f371ae2175ee4913f4499e1f2633a7b5936321eed1cdaeb6115181d290602090a1005b63f92ee8a960e01b5f5260045ffd5b600591506001600160401b03161015816110e3565b34610d89575f366003190112610d8957602060ff5f516020611e405f395f51905f5254166040519015158152f35b34610d89575f366003190112610d895760206111cb61183b565b6040519015158152f35b34610d89575f366003190112610d89577f00000000000000000000000000000000000000000000000000000000000000006001600160a01b0316300361122c5760206040515f516020611e005f395f51905f528152f35b63703e46dd60e11b5f5260045ffd5b34610d89575f366003190112610d8957602060405161e1008152f35b6040366003190112610d895761126b6117e8565b602435906001600160401b038211610d895736602383011215610d895781600401356001600160401b03811161145b57604051926112b3601f8301601f1916602001856117fe565b8184523660248383010111610d8957815f9260246020930183870137840101526001600160a01b037f000000000000000000000000000000000000000000000000000000000000000016308114908115611439575b5061122c57611315611906565b6040516352d1902d60e01b81526001600160a01b0382169290602081600481875afa5f9181611405575b506113575783634c9c8ce360e01b5f5260045260245ffd5b805f516020611e005f395f51905f528592036113f35750823b156113e1575f516020611e005f395f51905f5280546001600160a01b031916821790557fbc7cd75a20ee27fd9adebab32041f755214dbc6bffa90cc0225b39da2e5c2d3b5f80a28051156113c9576113c791611d73565b005b5050346113d257005b63b398979f60e01b5f5260045ffd5b634c9c8ce360e01b5f5260045260245ffd5b632a87526960e21b5f5260045260245ffd5b9091506020813d602011611431575b81611421602093836117fe565b81010312610d895751908561133f565b3d9150611414565b5f516020611e005f395f51905f52546001600160a01b03161415905083611308565b634e487b7160e01b5f52604160045260245ffd5b34610d89575f366003190112610d89576020600854604051908152f35b34610d89576020366003190112610d89576004355f52600c602052602060405f2054604051908152f35b34610d89575f366003190112610d89576114ce6118b6565b5f516020611e405f395f51905f525460ff8116156115255760ff19165f516020611e405f395f51905f52557f5db9ee0a495bf2e6ff9c91a7834c1ba4fdd244a5e8aa4e537bd38aeae4b073aa6020604051338152a1005b638dfc202b60e01b5f5260045ffd5b34610d89576040366003190112610d895761154d6117d2565b336001600160a01b03821603611569576113c790600435611b9b565b63334bd91960e11b5f5260045ffd5b34610d89576040366003190112610d89576113c76004356115976117d2565b906115bd610545825f525f516020611e205f395f51905f52602052600160405f20015490565b611af7565b34610d89575f366003190112610d89576005546040516001600160a01b039091168152602090f35b34610d89576020366003190112610d895760206116216004355f525f516020611e205f395f51905f52602052600160405f20015490565b604051908152f35b34610d89575f366003190112610d89576020604051610e108152f35b34610d89575f366003190112610d89576002546001600160a01b031633036116ad5761166f61183b565b1561169e575f6006557fa6262a506984c4ee15f889b617462c54ac45d6d7739c9cdceea59098ee5edeb85f80a1005b630cddaee960e01b5f5260045ffd5b63662cadb560e01b5f5260045ffd5b34610d89576020366003190112610d89576004355f52600b602052602060405f2054604051908152f35b34610d89576020366003190112610d895760043563ffffffff60e01b8116809103610d8957602090637965db0b60e01b811490811561172b575b506040519015158152f35b6301ffc9a760e01b14905082611720565b34610d89575f366003190112610d89575f546040516001600160a01b039091168152602090f35b34610d89575f366003190112610d89576002546001600160a01b031633036116ad5760ff60075416156117c357600160ff19600a541617600a557f9d3e19ea897a0042d94736364efa77853151ca0c20a04f5d4e930a1043122ef85f80a1005b63194ad54d60e31b5f5260045ffd5b602435906001600160a01b0382168203610d8957565b600435906001600160a01b0382168203610d8957565b90601f801991011681019081106001600160401b0382111761145b57604052565b34610d89575f366003190112610d8957602060405161012c8152f35b6006546202a3008101809111610dab57421090565b356001600160a01b0381168103610d895790565b903590601e1981360301821215610d8957018035906001600160401b038211610d8957602001918136038313610d8957565b908060209392818452848401375f828201840152601f01601f1916010190565b335f9081527f2222dce04fae1e25cd76e9391151ad9e0187ef92144ac6ce9e4e09f2c453b751602052604090205460ff16156118ee57565b63e2517d3f60e01b5f5233600452600160245260445ffd5b335f9081527fb7db2dd08fcb62d0c9e08c51941cae53c267786a0b75803fb7960902fc8ef97d602052604090205460ff161561193e57565b63e2517d3f60e01b5f52336004525f60245260445ffd5b5f8181525f516020611e205f395f51905f526020908152604080832033845290915290205460ff16156119855750565b63e2517d3f60e01b5f523360045260245260445ffd5b6001600160a01b0381165f9081527fb7db2dd08fcb62d0c9e08c51941cae53c267786a0b75803fb7960902fc8ef97d602052604090205460ff16611a45576001600160a01b03165f8181527fb7db2dd08fcb62d0c9e08c51941cae53c267786a0b75803fb7960902fc8ef97d60205260408120805460ff191660011790553391907f2f8788117e7eff1d82e926ec794901d17c78024a50270940304540a733656f0d8180a4600190565b505f90565b6001600160a01b0381165f9081527f2222dce04fae1e25cd76e9391151ad9e0187ef92144ac6ce9e4e09f2c453b751602052604090205460ff16611a45576001600160a01b03165f8181527f2222dce04fae1e25cd76e9391151ad9e0187ef92144ac6ce9e4e09f2c453b75160205260408120805460ff191660019081179091553392917f2f8788117e7eff1d82e926ec794901d17c78024a50270940304540a733656f0d9080a4600190565b5f8181525f516020611e205f395f51905f52602090815260408083206001600160a01b038616845290915290205460ff16611b95575f8181525f516020611e205f395f51905f52602090815260408083206001600160a01b0395909516808452949091528120805460ff19166001179055339291907f2f8788117e7eff1d82e926ec794901d17c78024a50270940304540a733656f0d9080a4600190565b50505f90565b5f8181525f516020611e205f395f51905f52602090815260408083206001600160a01b038616845290915290205460ff1615611b95575f8181525f516020611e205f395f51905f52602090815260408083206001600160a01b0395909516808452949091528120805460ff19169055339291907ff6391f5c32d9c69d2a47ea670b442974b53935d1edc7fd64eb21e047a839171b9080a4600190565b91949590929384811015611cbb575f969092905b86881015611cb157808860051b860135906001808716148015611ca5575b15611c9057505f5260205260018060405f20945b811c965f1901811c019701969492611c4b565b9091505f5260205260018060405f2094611c7d565b50876001870114611c69565b1495509350505050565b509450505050505f90565b60ff5f516020611e605f395f51905f525460401c1615611ce257565b631afcd79f60e31b5f5260045ffd5b805f52600460205260405f2054155f14611a4557600354600160401b81101561145b576001810180600355811015611d5f577fc2575a0e9e593c00f959f8c92f12db2869c3395a3b0502d05e2516446f71f85b018190556003545f9182526004602052604090912055600190565b634e487b7160e01b5f52603260045260245ffd5b905f8091602081519101845af48080611dec575b15611da75750506040513d81523d5f602083013e60203d82010160405290565b15611dcc57639996b31560e01b5f9081526001600160a01b0391909116600452602490fd5b3d15611ddd576040513d5f823e3d90fd5b63d6bda27560e01b5f5260045ffd5b503d151580611d875750813b1515611d8756fe360894a13ba1a3210667c828492db98dca3e2076cc3735a920a3ca505d382bbc02dd7bc7dec4dceedda775e58dd541e08a116c6c53815c0bd028192f7b626800cd5ed15c6e187e77e9aee88184c21f4f2182ab5827cb3b7e07fbedcd63f03300f0c57e16840df040f15088dc2f81fe391c3923bec73e23a9662efc9c229c6a00f0c57e16840df040f15088dc2f81fe391c3923bec73e23a9662efc9c229c6a00","linkReferences":{}},"methodIdentifiers":{"CHALLENGE_ROOT_DELAY()":"ced1098b","DEFAULT_ADMIN_ROLE()":"a217fddf","MAX_BLOCK_DISTANCE()":"50b0952b","PAUSER_ROLE()":"e63ab1e9","PROCESS_ADMIN_MESSAGE_DELAY()":"20191654","PROCESS_PAUSER_MESSAGE_DELAY()":"867b8278","PROCESS_USER_MESSAGE_DELAY()":"a181333c","UPGRADE_INTERFACE_VERSION()":"ad3cb1cc","allowMessageProcessing()":"00490745","challengeRoot()":"87e97e8c","disableChallengeRoot()":"0f926c02","emergencyStopAdmin()":"b13f222c","emergencyStopObservers()":"76afc14f","genesisBlock()":"4cdc9c63","getMerkleRoot(uint256)":"0aab8ba5","getMerkleRootTimestamp(bytes32)":"4610d3aa","getRoleAdmin(bytes32)":"248a9ca3","governanceAdmin()":"0058f6b8","governancePauser()":"c81eb797","grantRole(bytes32,address)":"2f2ff15d","hasRole(bytes32,address)":"91d14854","initialize(address,address,address,address[],address)":"e3b1a2b3","isChallengingRoot()":"52d190f3","isEmergencyStopped()":"fddd4837","isProcessed(uint256)":"bfe7edd7","maxBlockNumber()":"a912fd25","pause()":"8456cb59","paused()":"5c975abb","processMessage(uint256,uint256,uint256,(uint256,bytes32,address,bytes),bytes32[])":"93eb47e9","proxiableUUID()":"52d1902d","reinitialize()":"6c2eb350","renounceRole(bytes32,address)":"36568abe","revokeRole(bytes32,address)":"d547741f","submitMerkleRoot(uint256,bytes32,bytes)":"cca66a9d","supportsInterface(bytes4)":"01ffc9a7","unpause()":"3f4ba83a","upgradeToAndCall(address,bytes)":"4f1ef286","verifier()":"2b7ac3f3"},"storageLayout":{"storage":[{"astId":66931,"contract":"src/MessageQueue.sol:MessageQueue","label":"_governanceAdmin","offset":0,"slot":"0","type":"t_contract(IGovernance)70034"},{"astId":66934,"contract":"src/MessageQueue.sol:MessageQueue","label":"_governancePauser","offset":0,"slot":"1","type":"t_contract(IGovernance)70034"},{"astId":66936,"contract":"src/MessageQueue.sol:MessageQueue","label":"_emergencyStopAdmin","offset":0,"slot":"2","type":"t_address"},{"astId":66939,"contract":"src/MessageQueue.sol:MessageQueue","label":"_emergencyStopObservers","offset":0,"slot":"3","type":"t_struct(AddressSet)16329_storage"},{"astId":66942,"contract":"src/MessageQueue.sol:MessageQueue","label":"_verifier","offset":0,"slot":"5","type":"t_contract(IVerifier)70506"},{"astId":66944,"contract":"src/MessageQueue.sol:MessageQueue","label":"_challengingRootTimestamp","offset":0,"slot":"6","type":"t_uint256"},{"astId":66946,"contract":"src/MessageQueue.sol:MessageQueue","label":"_emergencyStop","offset":0,"slot":"7","type":"t_bool"},{"astId":66948,"contract":"src/MessageQueue.sol:MessageQueue","label":"_genesisBlock","offset":0,"slot":"8","type":"t_uint256"},{"astId":66950,"contract":"src/MessageQueue.sol:MessageQueue","label":"_maxBlockNumber","offset":0,"slot":"9","type":"t_uint256"},{"astId":66952,"contract":"src/MessageQueue.sol:MessageQueue","label":"_allowMessageProcessing","offset":0,"slot":"10","type":"t_bool"},{"astId":66956,"contract":"src/MessageQueue.sol:MessageQueue","label":"_blockNumbers","offset":0,"slot":"11","type":"t_mapping(t_uint256,t_bytes32)"},{"astId":66960,"contract":"src/MessageQueue.sol:MessageQueue","label":"_merkleRootTimestamps","offset":0,"slot":"12","type":"t_mapping(t_bytes32,t_uint256)"},{"astId":66964,"contract":"src/MessageQueue.sol:MessageQueue","label":"_processedMessages","offset":0,"slot":"13","type":"t_mapping(t_uint256,t_bool)"}],"types":{"t_address":{"encoding":"inplace","label":"address","numberOfBytes":"20"},"t_array(t_bytes32)dyn_storage":{"encoding":"dynamic_array","label":"bytes32[]","numberOfBytes":"32","base":"t_bytes32"},"t_bool":{"encoding":"inplace","label":"bool","numberOfBytes":"1"},"t_bytes32":{"encoding":"inplace","label":"bytes32","numberOfBytes":"32"},"t_contract(IGovernance)70034":{"encoding":"inplace","label":"contract IGovernance","numberOfBytes":"20"},"t_contract(IVerifier)70506":{"encoding":"inplace","label":"contract IVerifier","numberOfBytes":"20"},"t_mapping(t_bytes32,t_uint256)":{"encoding":"mapping","key":"t_bytes32","label":"mapping(bytes32 => uint256)","numberOfBytes":"32","value":"t_uint256"},"t_mapping(t_uint256,t_bool)":{"encoding":"mapping","key":"t_uint256","label":"mapping(uint256 => bool)","numberOfBytes":"32","value":"t_bool"},"t_mapping(t_uint256,t_bytes32)":{"encoding":"mapping","key":"t_uint256","label":"mapping(uint256 => bytes32)","numberOfBytes":"32","value":"t_bytes32"},"t_struct(AddressSet)16329_storage":{"encoding":"inplace","label":"struct EnumerableSet.AddressSet","numberOfBytes":"64","members":[{"astId":16328,"contract":"src/MessageQueue.sol:MessageQueue","label":"_inner","offset":0,"slot":"0","type":"t_struct(Set)15661_storage"}]},"t_struct(Set)15661_storage":{"encoding":"inplace","label":"struct EnumerableSet.Set","numberOfBytes":"64","members":[{"astId":15656,"contract":"src/MessageQueue.sol:MessageQueue","label":"_values","offset":0,"slot":"0","type":"t_array(t_bytes32)dyn_storage"},{"astId":15660,"contract":"src/MessageQueue.sol:MessageQueue","label":"_positions","offset":0,"slot":"1","type":"t_mapping(t_bytes32,t_uint256)"}]},"t_uint256":{"encoding":"inplace","label":"uint256","numberOfBytes":"32"}}},"id":103}