{"abi":[{"type":"constructor","inputs":[{"name":"relayer","type":"address","internalType":"contract IRelayer"}],"stateMutability":"nonpayable"},{"type":"function","name":"isProcessed","inputs":[{"name":"messageNonce","type":"bytes32","internalType":"bytes32"}],"outputs":[{"name":"","type":"bool","internalType":"bool"}],"stateMutability":"view"},{"type":"function","name":"processMessage","inputs":[{"name":"blockNumber","type":"uint256","internalType":"uint256"},{"name":"totalLeaves","type":"uint256","internalType":"uint256"},{"name":"leafIndex","type":"uint256","internalType":"uint256"},{"name":"message","type":"tuple","internalType":"struct VaraMessage","components":[{"name":"nonce","type":"bytes32","internalType":"bytes32"},{"name":"sender","type":"bytes32","internalType":"bytes32"},{"name":"receiver","type":"address","internalType":"address"},{"name":"data","type":"bytes","internalType":"bytes"}]},{"name":"proof","type":"bytes32[]","internalType":"bytes32[]"}],"outputs":[],"stateMutability":"nonpayable"},{"type":"event","name":"MessageProcessed","inputs":[{"name":"blockNumber","type":"uint256","indexed":true,"internalType":"uint256"},{"name":"messageHash","type":"bytes32","indexed":true,"internalType":"bytes32"},{"name":"messageNonce","type":"bytes32","indexed":true,"internalType":"bytes32"},{"name":"messageReceiver","type":"address","indexed":false,"internalType":"address"}],"anonymous":false},{"type":"error","name":"BadProof","inputs":[]},{"type":"error","name":"MerkleRootNotSet","inputs":[{"name":"blockNumber","type":"uint256","internalType":"uint256"}]},{"type":"error","name":"MessageAlreadyProcessed","inputs":[{"name":"messageNonce","type":"bytes32","internalType":"bytes32"}]},{"type":"error","name":"MessageNotProcessed","inputs":[]},{"type":"error","name":"RelayerEmergencyStop","inputs":[]}],"bytecode":{"object":"0x60a034606557601f61056038819003918201601f19168301916001600160401b03831184841017606957808492602094604052833981010312606557516001600160a01b03811681036065576080526040516104e2908161007e82396080518160bc0152f35b5f80fd5b634e487b7160e01b5f52604160045260245ffdfe6080806040526004361015610012575f80fd5b5f3560e01c90816311c168961461039457506344855efc14610032575f80fd5b346103475760a03660031901126103475760643560043567ffffffffffffffff821161034757816004019060806003198436030112610347576084359167ffffffffffffffff831161034757366023840112156103475782600401359067ffffffffffffffff8211610347573660248360051b86010111610347576040516318e9666960e21b81527f00000000000000000000000000000000000000000000000000000000000000006001600160a01b03169290602081600481875afa9081156102ee575f91610375575b5061036657813595865f525f60205260ff60405f20541661035357602060249460405195868092630aab8ba560e01b82528960048301525afa9384156102ee575f9461031b575b508315610308576101dc60248201359260448301958960646101658961040c565b9501946101c06074610177888b610420565b80604095929551958693602085019889528d60408601526bffffffffffffffffffffffff199060601b1660608501528484013781015f838201520301601f1981018352826103be565b5190205f5260205f209889926044359260248035930190610453565b156102f9576064926020926102185f938a855284865260408520600160ff1982541617905560018060a01b036102118961040c565b1693610420565b9586949192604051978896879586936317a7ea2760e31b8552600485015260406024850152816044850152848401378181018301849052601f01601f191681010301925af19081156102ee575f916102bf575b50156102b057602061029d7fd4e9a97366667c7b0c4694f53604d4530b3667edf9020823251afe823668b9cb9261040c565b6040516001600160a01b039091168152a4005b63ef2a441760e01b5f5260045ffd5b6102e1915060203d6020116102e7575b6102d981836103be565b8101906103f4565b5f61026b565b503d6102cf565b6040513d5f823e3d90fd5b637ca55c7760e01b5f5260045ffd5b846354e2ed2d60e11b5f5260045260245ffd5b9093506020813d60201161034b575b81610337602093836103be565b810103126103475751925f610144565b5f80fd5b3d915061032a565b8663398560f160e11b5f5260045260245ffd5b63dfe54af360e01b5f5260045ffd5b61038e915060203d6020116102e7576102d981836103be565b5f6100fd565b34610347576020366003190112610347576020906004355f525f825260ff60405f20541615158152f35b90601f8019910116810190811067ffffffffffffffff8211176103e057604052565b634e487b7160e01b5f52604160045260245ffd5b90816020910312610347575180151581036103475790565b356001600160a01b03811681036103475790565b903590601e1981360301821215610347570180359067ffffffffffffffff82116103475760200191813603831361034757565b919495909293848110156104d7575f969092905b868810156104cd57808860051b8601359060018087161480156104c1575b156104ac57505f5260205260018060405f20945b811c965f1901811c019701969492610467565b9091505f5260205260018060405f2094610499565b50876001870114610485565b1495509350505050565b509450505050505f9056","linkReferences":{}},"methodIdentifiers":{"isProcessed(bytes32)":"11c16896","processMessage(uint256,uint256,uint256,(bytes32,bytes32,address,bytes),bytes32[])":"44855efc"},"id":60}