{"abi":[{"type":"constructor","inputs":[],"stateMutability":"nonpayable"},{"type":"function","name":"DEFAULT_ADMIN_ROLE","inputs":[],"outputs":[{"name":"","type":"bytes32","internalType":"bytes32"}],"stateMutability":"view"},{"type":"function","name":"PAUSER_ROLE","inputs":[],"outputs":[{"name":"","type":"bytes32","internalType":"bytes32"}],"stateMutability":"view"},{"type":"function","name":"PROCESS_ADMIN_MESSAGE_DELAY","inputs":[],"outputs":[{"name":"","type":"uint256","internalType":"uint256"}],"stateMutability":"view"},{"type":"function","name":"PROCESS_PAUSER_MESSAGE_DELAY","inputs":[],"outputs":[{"name":"","type":"uint256","internalType":"uint256"}],"stateMutability":"view"},{"type":"function","name":"PROCESS_USER_MESSAGE_DELAY","inputs":[],"outputs":[{"name":"","type":"uint256","internalType":"uint256"}],"stateMutability":"view"},{"type":"function","name":"UPGRADE_INTERFACE_VERSION","inputs":[],"outputs":[{"name":"","type":"string","internalType":"string"}],"stateMutability":"view"},{"type":"function","name":"emergencyStopAdmin","inputs":[],"outputs":[{"name":"","type":"address","internalType":"address"}],"stateMutability":"view"},{"type":"function","name":"getMerkleRoot","inputs":[{"name":"blockNumber","type":"uint256","internalType":"uint256"}],"outputs":[{"name":"","type":"bytes32","internalType":"bytes32"}],"stateMutability":"view"},{"type":"function","name":"getMerkleRootTimestamp","inputs":[{"name":"merkleRoot","type":"bytes32","internalType":"bytes32"}],"outputs":[{"name":"","type":"uint256","internalType":"uint256"}],"stateMutability":"view"},{"type":"function","name":"getRoleAdmin","inputs":[{"name":"role","type":"bytes32","internalType":"bytes32"}],"outputs":[{"name":"","type":"bytes32","internalType":"bytes32"}],"stateMutability":"view"},{"type":"function","name":"governanceAdmin","inputs":[],"outputs":[{"name":"","type":"address","internalType":"address"}],"stateMutability":"view"},{"type":"function","name":"governancePauser","inputs":[],"outputs":[{"name":"","type":"address","internalType":"address"}],"stateMutability":"view"},{"type":"function","name":"grantRole","inputs":[{"name":"role","type":"bytes32","internalType":"bytes32"},{"name":"account","type":"address","internalType":"address"}],"outputs":[],"stateMutability":"nonpayable"},{"type":"function","name":"hasRole","inputs":[{"name":"role","type":"bytes32","internalType":"bytes32"},{"name":"account","type":"address","internalType":"address"}],"outputs":[{"name":"","type":"bool","internalType":"bool"}],"stateMutability":"view"},{"type":"function","name":"initialize","inputs":[{"name":"governanceAdmin_","type":"address","internalType":"contract IGovernance"},{"name":"governancePauser_","type":"address","internalType":"contract IGovernance"},{"name":"emergencyStopAdmin_","type":"address","internalType":"address"},{"name":"verifier_","type":"address","internalType":"contract IVerifier"}],"outputs":[],"stateMutability":"nonpayable"},{"type":"function","name":"isEmergencyStopped","inputs":[],"outputs":[{"name":"","type":"bool","internalType":"bool"}],"stateMutability":"view"},{"type":"function","name":"isProcessed","inputs":[{"name":"messageNonce","type":"uint256","internalType":"uint256"}],"outputs":[{"name":"","type":"bool","internalType":"bool"}],"stateMutability":"view"},{"type":"function","name":"pause","inputs":[],"outputs":[],"stateMutability":"nonpayable"},{"type":"function","name":"paused","inputs":[],"outputs":[{"name":"","type":"bool","internalType":"bool"}],"stateMutability":"view"},{"type":"function","name":"processMessage","inputs":[{"name":"blockNumber","type":"uint256","internalType":"uint256"},{"name":"totalLeaves","type":"uint256","internalType":"uint256"},{"name":"leafIndex","type":"uint256","internalType":"uint256"},{"name":"message","type":"tuple","internalType":"struct VaraMessage","components":[{"name":"nonce","type":"uint256","internalType":"uint256"},{"name":"source","type":"bytes32","internalType":"bytes32"},{"name":"destination","type":"address","internalType":"address"},{"name":"payload","type":"bytes","internalType":"bytes"}]},{"name":"proof","type":"bytes32[]","internalType":"bytes32[]"}],"outputs":[],"stateMutability":"nonpayable"},{"type":"function","name":"proxiableUUID","inputs":[],"outputs":[{"name":"","type":"bytes32","internalType":"bytes32"}],"stateMutability":"view"},{"type":"function","name":"renounceRole","inputs":[{"name":"role","type":"bytes32","internalType":"bytes32"},{"name":"callerConfirmation","type":"address","internalType":"address"}],"outputs":[],"stateMutability":"nonpayable"},{"type":"function","name":"revokeRole","inputs":[{"name":"role","type":"bytes32","internalType":"bytes32"},{"name":"account","type":"address","internalType":"address"}],"outputs":[],"stateMutability":"nonpayable"},{"type":"function","name":"submitMerkleRoot","inputs":[{"name":"blockNumber","type":"uint256","internalType":"uint256"},{"name":"merkleRoot","type":"bytes32","internalType":"bytes32"},{"name":"proof","type":"bytes","internalType":"bytes"}],"outputs":[],"stateMutability":"nonpayable"},{"type":"function","name":"supportsInterface","inputs":[{"name":"interfaceId","type":"bytes4","internalType":"bytes4"}],"outputs":[{"name":"","type":"bool","internalType":"bool"}],"stateMutability":"view"},{"type":"function","name":"unpause","inputs":[],"outputs":[],"stateMutability":"nonpayable"},{"type":"function","name":"upgradeToAndCall","inputs":[{"name":"newImplementation","type":"address","internalType":"address"},{"name":"data","type":"bytes","internalType":"bytes"}],"outputs":[],"stateMutability":"payable"},{"type":"function","name":"verifier","inputs":[],"outputs":[{"name":"","type":"address","internalType":"address"}],"stateMutability":"view"},{"type":"event","name":"EmergencyStopDisabled","inputs":[],"anonymous":false},{"type":"event","name":"EmergencyStopEnabled","inputs":[],"anonymous":false},{"type":"event","name":"Initialized","inputs":[{"name":"version","type":"uint64","indexed":false,"internalType":"uint64"}],"anonymous":false},{"type":"event","name":"MerkleRoot","inputs":[{"name":"blockNumber","type":"uint256","indexed":false,"internalType":"uint256"},{"name":"merkleRoot","type":"bytes32","indexed":false,"internalType":"bytes32"}],"anonymous":false},{"type":"event","name":"MessageProcessed","inputs":[{"name":"blockNumber","type":"uint256","indexed":false,"internalType":"uint256"},{"name":"messageHash","type":"bytes32","indexed":false,"internalType":"bytes32"},{"name":"messageNonce","type":"uint256","indexed":false,"internalType":"uint256"},{"name":"messageDestination","type":"address","indexed":false,"internalType":"address"}],"anonymous":false},{"type":"event","name":"Paused","inputs":[{"name":"account","type":"address","indexed":false,"internalType":"address"}],"anonymous":false},{"type":"event","name":"RoleAdminChanged","inputs":[{"name":"role","type":"bytes32","indexed":true,"internalType":"bytes32"},{"name":"previousAdminRole","type":"bytes32","indexed":true,"internalType":"bytes32"},{"name":"newAdminRole","type":"bytes32","indexed":true,"internalType":"bytes32"}],"anonymous":false},{"type":"event","name":"RoleGranted","inputs":[{"name":"role","type":"bytes32","indexed":true,"internalType":"bytes32"},{"name":"account","type":"address","indexed":true,"internalType":"address"},{"name":"sender","type":"address","indexed":true,"internalType":"address"}],"anonymous":false},{"type":"event","name":"RoleRevoked","inputs":[{"name":"role","type":"bytes32","indexed":true,"internalType":"bytes32"},{"name":"account","type":"address","indexed":true,"internalType":"address"},{"name":"sender","type":"address","indexed":true,"internalType":"address"}],"anonymous":false},{"type":"event","name":"Unpaused","inputs":[{"name":"account","type":"address","indexed":false,"internalType":"address"}],"anonymous":false},{"type":"event","name":"Upgraded","inputs":[{"name":"implementation","type":"address","indexed":true,"internalType":"address"}],"anonymous":false},{"type":"error","name":"AccessControlBadConfirmation","inputs":[]},{"type":"error","name":"AccessControlUnauthorizedAccount","inputs":[{"name":"account","type":"address","internalType":"address"},{"name":"neededRole","type":"bytes32","internalType":"bytes32"}]},{"type":"error","name":"AddressEmptyCode","inputs":[{"name":"target","type":"address","internalType":"address"}]},{"type":"error","name":"ERC1967InvalidImplementation","inputs":[{"name":"implementation","type":"address","internalType":"address"}]},{"type":"error","name":"ERC1967NonPayable","inputs":[]},{"type":"error","name":"EmergencyStop","inputs":[]},{"type":"error","name":"EnforcedPause","inputs":[]},{"type":"error","name":"ExpectedPause","inputs":[]},{"type":"error","name":"FailedCall","inputs":[]},{"type":"error","name":"InvalidInitialization","inputs":[]},{"type":"error","name":"InvalidMerkleProof","inputs":[]},{"type":"error","name":"InvalidPlonkProof","inputs":[]},{"type":"error","name":"MerkleRootAlreadySet","inputs":[{"name":"blockNumber","type":"uint256","internalType":"uint256"}]},{"type":"error","name":"MerkleRootDelayNotPassed","inputs":[]},{"type":"error","name":"MerkleRootNotFound","inputs":[{"name":"blockNumber","type":"uint256","internalType":"uint256"}]},{"type":"error","name":"MessageAlreadyProcessed","inputs":[{"name":"messageNonce","type":"uint256","internalType":"uint256"}]},{"type":"error","name":"NotInitializing","inputs":[]},{"type":"error","name":"UUPSUnauthorizedCallContext","inputs":[]},{"type":"error","name":"UUPSUnsupportedProxiableUUID","inputs":[{"name":"slot","type":"bytes32","internalType":"bytes32"}]}],"bytecode":{"object":"0x60a080604052346100c257306080525f5160206118c45f395f51905f525460ff8160401c166100b3576002600160401b03196001600160401b03821601610060575b6040516117fd90816100c78239608051818181610d260152610df60152f35b6001600160401b0319166001600160401b039081175f5160206118c45f395f51905f525581527fc7f505b2f371ae2175ee4913f4499e1f2633a7b5936321eed1cdaeb6115181d290602090a15f80610041565b63f92ee8a960e01b5f5260045ffd5b5f80fdfe6080806040526004361015610012575f80fd5b5f905f3560e01c90816258f6b81461122b5750806301ffc9a7146111d55780630aab8ba5146111ab578063201916541461118f578063248a9ca3146111505780632b7ac3f3146111285780632f2ff15d146110de57806336568abe1461109a5780633f4ba83a1461101c5780634610d3aa14610ff25780634f1ef28614610d7a57806352d1902d14610d145780635c975abb14610ce65780638456cb5914610c74578063867b827814610c5957806391d1485414610c0457806393eb47e9146107b9578063a181333c1461079c578063a217fddf14610780578063ad3cb1cc14610724578063b13f222c146106fb578063bfe7edd7146106cc578063c81eb797146106a3578063cca66a9d146103f0578063d547741f1461039c578063e63ab1e914610380578063f8c8765e146101795763fddd483714610151575f80fd5b34610176578060031936011261017657602060ff60035460a01c166040519015158152f35b80fd5b503461017657608036600319011261017657610193611263565b61019b61124d565b6044356001600160a01b0381169081900361037c576064356001600160a01b0381169290839003610378575f5160206117dd5f395f51905f52549360ff8560401c16159467ffffffffffffffff811680159081610370575b6001149081610366575b15908161035d575b5061034e5767ffffffffffffffff1981166001175f5160206117dd5f395f51905f525585610322575b506102376116f3565b61023f6116f3565b6102476116f3565b6001600160a01b03169061025a826113c8565b5061026482611477565b506001600160a01b03169061027882611477565b506001600160601b0360a01b8654161785556001600160601b0360a01b60015416176001556001600160601b0360a01b60025416176002556001600160601b0360a01b60035416176003556102ca5780f35b68ff0000000000000000195f5160206117dd5f395f51905f5254165f5160206117dd5f395f51905f52557fc7f505b2f371ae2175ee4913f4499e1f2633a7b5936321eed1cdaeb6115181d2602060405160018152a180f35b68ffffffffffffffffff191668010000000000000001175f5160206117dd5f395f51905f52555f61022e565b63f92ee8a960e01b8752600487fd5b9050155f610205565b303b1591506101fd565b8791506101f3565b8480fd5b8380fd5b5034610176578060031936011261017657602060405160018152f35b5034610176576040366003190112610176576103ec6004356103bc61124d565b906103e76103e2825f525f51602061179d5f395f51905f52602052600160405f20015490565b611382565b6115c8565b5080f35b50346101765760603660031901126101765760243560043560443567ffffffffffffffff811161037c573660238201121561037c5780600401359067ffffffffffffffff82116103785736602483830101116103785760018060a01b03600254163314906003549160ff8360a01c16908161069a575b5061068b57604051610479606082611279565b6002815260208101916040368437815115610677578660401c8352815160011015610677579391906040810163ffffffff60601b8760601b1667ffffffffffffffff60801b8960801b1617905260206104ef604051968795633054963960e01b8752604060048801526024604488019201611312565b848103600319016024860152915180835291019190885b81811061065e575060209492849003928492506001600160a01b031690505afa908115610653578491610618575b501561060957808352600460205260408320549182156105ba5782146105a857600160a01b60ff60a01b19600354161760035582526004602052816040812055815260056020528060408120557f015567d35557fdfcbb3bbfe9dbf4f5c651cb9e461e784ac02c8152fbdb7319718180a180f35b638d60c7ab60e01b8352600452602482fd5b7f48211a20c285b6b077b7917b8bb118eaa92efdfb8fa2e3b114ffa253e0b665ae925090604091818552600460205280838620558085526005602052428386205582519182526020820152a180f35b636859a69960e11b8352600483fd5b90506020813d60201161064b575b8161063360209383611279565b8101031261037c5751801515810361037c575f610534565b3d9150610626565b6040513d86823e3d90fd5b8251845286945060209384019390920191600101610506565b634e487b7160e01b88526032600452602488fd5b6313a5ef3f60e21b8652600486fd5b9050155f610466565b50346101765780600319360112610176576001546040516001600160a01b039091168152602090f35b50346101765760203660031901126101765760ff60406020926004358152600684522054166040519015158152f35b50346101765780600319360112610176576002546040516001600160a01b039091168152602090f35b5034610176578060031936011261017657604080516107438282611279565b6005815260208101640352e302e360dc1b81528251938492602084525180928160208601528585015e828201840152601f01601f19168101030190f35b5034610176578060031936011261017657602090604051908152f35b5034610176578060031936011261017657602060405161012c8152f35b5034610af15760a0366003190112610af15760043560643567ffffffffffffffff8111610af157806004019060806003198236030112610af1576084359167ffffffffffffffff8311610af15736602384011215610af15782600401359067ffffffffffffffff8211610af1573660248360051b86010111610af1575f54604051635aa6e67560e01b81529390602090859060049082906001600160a01b03165afa908115610ae6575f91610bcf575b600154604051635aa6e67560e01b81529550602090869060049082906001600160a01b03165afa948515610ae6575f95610b9b575b50602481013591821493848015610b92575b60ff5f5160206117bd5f395f51905f5254169081610b89575b50610b7a5760025460035460a01c60ff1690336001600160a01b03919091161481610b71575b50610b6257833595865f52600660205260ff60405f205416610b4f57885f52600460205260405f2054958615610b3c5715610b275750610e105b855f52600560205260405f2054908101809111610b13574210610b04576109cd90604483019587606461095b896112cb565b9501946109b1607461096d888b6112df565b80604095929551958693602085019889528d60408601526001600160601b03199060601b1660608501528484013781015f838201520301601f198101835282611279565b5190205f5260205f209889926044359260248035930190611664565b15610af5575f858152600660205260409020805460ff19166001179055610a06906001600160a01b036109ff866112cb565b16936112df565b92803b15610af157610a3f935f809460405196879586948593630302ac5d60e41b85526004850152604060248501526044840191611312565b03925af18015610ae657610aa3575b50917f994c669cfd9c0453d42c933a11c002a34d12d85563aebe99ca525fffc45454f89391610a7e6080946112cb565b604080519485526020850193909352918301526001600160a01b03166060820152a180f35b60809391955091610ad65f7f994c669cfd9c0453d42c933a11c002a34d12d85563aebe99ca525fffc45454f89694611279565b610a7e5f96929450509193610a4e565b6040513d5f823e3d90fd5b5f80fd5b63582f497d60e11b5f5260045ffd5b63a4f7d3e960e01b5f5260045ffd5b634e487b7160e01b5f52601160045260245ffd5b8303610b345760b4610929565b61012c610929565b896355d7a68b60e01b5f5260045260245ffd5b866338503e3360e21b5f5260045260245ffd5b6313a5ef3f60e21b5f5260045ffd5b9050155f6108ef565b63d93c066560e01b5f5260045ffd5b9050155f6108c9565b508583146108b0565b9094506020813d602011610bc7575b81610bb760209383611279565b81010312610af15751935f61089e565b3d9150610baa565b90506020843d602011610bfc575b81610bea60209383611279565b81010312610af1576004935190610869565b3d9150610bdd565b34610af1576040366003190112610af157610c1d61124d565b6004355f525f51602061179d5f395f51905f5260205260405f209060018060a01b03165f52602052602060ff60405f2054166040519015158152f35b34610af1575f366003190112610af157602060405160b48152f35b34610af1575f366003190112610af157610c8c611332565b5f5160206117bd5f395f51905f525460ff8116610b7a5760019060ff1916175f5160206117bd5f395f51905f52557f62e78cea01bee320cd4e420270b5ea74000d11b0c9f74754ebdbfc544b05a2586020604051338152a1005b34610af1575f366003190112610af157602060ff5f5160206117bd5f395f51905f5254166040519015158152f35b34610af1575f366003190112610af1577f00000000000000000000000000000000000000000000000000000000000000006001600160a01b03163003610d6b5760206040515f51602061177d5f395f51905f528152f35b63703e46dd60e11b5f5260045ffd5b6040366003190112610af157610d8e611263565b6024359067ffffffffffffffff8211610af15736602383011215610af157816004013590610dbb826112af565b91610dc96040519384611279565b80835260208301933660248383010111610af157815f926024602093018737840101526001600160a01b037f000000000000000000000000000000000000000000000000000000000000000016308114908115610fd0575b50610d6b57335f9081527fb7db2dd08fcb62d0c9e08c51941cae53c267786a0b75803fb7960902fc8ef97d602052604090205460ff1615610fb9576040516352d1902d60e01b81526001600160a01b0382169390602081600481885afa5f9181610f85575b50610e9e5784634c9c8ce360e01b5f5260045260245ffd5b805f51602061177d5f395f51905f52869203610f735750823b15610f61575f51602061177d5f395f51905f5280546001600160a01b031916821790557fbc7cd75a20ee27fd9adebab32041f755214dbc6bffa90cc0225b39da2e5c2d3b5f80a2825115610f48575f8091610f3e945190845af43d15610f40573d91610f22836112af565b92610f306040519485611279565b83523d5f602085013e61171e565b005b60609161171e565b50505034610f5257005b63b398979f60e01b5f5260045ffd5b634c9c8ce360e01b5f5260045260245ffd5b632a87526960e21b5f5260045260245ffd5b9091506020813d602011610fb1575b81610fa160209383611279565b81010312610af157519086610e86565b3d9150610f94565b63e2517d3f60e01b5f52336004525f60245260445ffd5b5f51602061177d5f395f51905f52546001600160a01b03161415905084610e21565b34610af1576020366003190112610af1576004355f526005602052602060405f2054604051908152f35b34610af1575f366003190112610af157611034611332565b5f5160206117bd5f395f51905f525460ff81161561108b5760ff19165f5160206117bd5f395f51905f52557f5db9ee0a495bf2e6ff9c91a7834c1ba4fdd244a5e8aa4e537bd38aeae4b073aa6020604051338152a1005b638dfc202b60e01b5f5260045ffd5b34610af1576040366003190112610af1576110b361124d565b336001600160a01b038216036110cf57610f3e906004356115c8565b63334bd91960e11b5f5260045ffd5b34610af1576040366003190112610af157610f3e6004356110fd61124d565b906111236103e2825f525f51602061179d5f395f51905f52602052600160405f20015490565b611524565b34610af1575f366003190112610af1576003546040516001600160a01b039091168152602090f35b34610af1576020366003190112610af15760206111876004355f525f51602061179d5f395f51905f52602052600160405f20015490565b604051908152f35b34610af1575f366003190112610af1576020604051610e108152f35b34610af1576020366003190112610af1576004355f526004602052602060405f2054604051908152f35b34610af1576020366003190112610af15760043563ffffffff60e01b8116809103610af157602090637965db0b60e01b811490811561121a575b506040519015158152f35b6301ffc9a760e01b1490508261120f565b34610af1575f366003190112610af1575f546001600160a01b03168152602090f35b602435906001600160a01b0382168203610af157565b600435906001600160a01b0382168203610af157565b90601f8019910116810190811067ffffffffffffffff82111761129b57604052565b634e487b7160e01b5f52604160045260245ffd5b67ffffffffffffffff811161129b57601f01601f191660200190565b356001600160a01b0381168103610af15790565b903590601e1981360301821215610af1570180359067ffffffffffffffff8211610af157602001918136038313610af157565b908060209392818452848401375f828201840152601f01601f1916010190565b335f9081527f2222dce04fae1e25cd76e9391151ad9e0187ef92144ac6ce9e4e09f2c453b751602052604090205460ff161561136a57565b63e2517d3f60e01b5f5233600452600160245260445ffd5b5f8181525f51602061179d5f395f51905f526020908152604080832033845290915290205460ff16156113b25750565b63e2517d3f60e01b5f523360045260245260445ffd5b6001600160a01b0381165f9081527fb7db2dd08fcb62d0c9e08c51941cae53c267786a0b75803fb7960902fc8ef97d602052604090205460ff16611472576001600160a01b03165f8181527fb7db2dd08fcb62d0c9e08c51941cae53c267786a0b75803fb7960902fc8ef97d60205260408120805460ff191660011790553391907f2f8788117e7eff1d82e926ec794901d17c78024a50270940304540a733656f0d8180a4600190565b505f90565b6001600160a01b0381165f9081527f2222dce04fae1e25cd76e9391151ad9e0187ef92144ac6ce9e4e09f2c453b751602052604090205460ff16611472576001600160a01b03165f8181527f2222dce04fae1e25cd76e9391151ad9e0187ef92144ac6ce9e4e09f2c453b75160205260408120805460ff191660019081179091553392917f2f8788117e7eff1d82e926ec794901d17c78024a50270940304540a733656f0d9080a4600190565b5f8181525f51602061179d5f395f51905f52602090815260408083206001600160a01b038616845290915290205460ff166115c2575f8181525f51602061179d5f395f51905f52602090815260408083206001600160a01b0395909516808452949091528120805460ff19166001179055339291907f2f8788117e7eff1d82e926ec794901d17c78024a50270940304540a733656f0d9080a4600190565b50505f90565b5f8181525f51602061179d5f395f51905f52602090815260408083206001600160a01b038616845290915290205460ff16156115c2575f8181525f51602061179d5f395f51905f52602090815260408083206001600160a01b0395909516808452949091528120805460ff19169055339291907ff6391f5c32d9c69d2a47ea670b442974b53935d1edc7fd64eb21e047a839171b9080a4600190565b919495909293848110156116e8575f969092905b868810156116de57808860051b8601359060018087161480156116d2575b156116bd57505f5260205260018060405f20945b811c965f1901811c019701969492611678565b9091505f5260205260018060405f20946116aa565b50876001870114611696565b1495509350505050565b509450505050505f90565b60ff5f5160206117dd5f395f51905f525460401c161561170f57565b631afcd79f60e31b5f5260045ffd5b90611742575080511561173357602081519101fd5b63d6bda27560e01b5f5260045ffd5b81511580611773575b611753575090565b639996b31560e01b5f9081526001600160a01b0391909116600452602490fd5b50803b1561174b56fe360894a13ba1a3210667c828492db98dca3e2076cc3735a920a3ca505d382bbc02dd7bc7dec4dceedda775e58dd541e08a116c6c53815c0bd028192f7b626800cd5ed15c6e187e77e9aee88184c21f4f2182ab5827cb3b7e07fbedcd63f03300f0c57e16840df040f15088dc2f81fe391c3923bec73e23a9662efc9c229c6a00f0c57e16840df040f15088dc2f81fe391c3923bec73e23a9662efc9c229c6a00","linkReferences":{}},"methodIdentifiers":{"DEFAULT_ADMIN_ROLE()":"a217fddf","PAUSER_ROLE()":"e63ab1e9","PROCESS_ADMIN_MESSAGE_DELAY()":"20191654","PROCESS_PAUSER_MESSAGE_DELAY()":"867b8278","PROCESS_USER_MESSAGE_DELAY()":"a181333c","UPGRADE_INTERFACE_VERSION()":"ad3cb1cc","emergencyStopAdmin()":"b13f222c","getMerkleRoot(uint256)":"0aab8ba5","getMerkleRootTimestamp(bytes32)":"4610d3aa","getRoleAdmin(bytes32)":"248a9ca3","governanceAdmin()":"0058f6b8","governancePauser()":"c81eb797","grantRole(bytes32,address)":"2f2ff15d","hasRole(bytes32,address)":"91d14854","initialize(address,address,address,address)":"f8c8765e","isEmergencyStopped()":"fddd4837","isProcessed(uint256)":"bfe7edd7","pause()":"8456cb59","paused()":"5c975abb","processMessage(uint256,uint256,uint256,(uint256,bytes32,address,bytes),bytes32[])":"93eb47e9","proxiableUUID()":"52d1902d","renounceRole(bytes32,address)":"36568abe","revokeRole(bytes32,address)":"d547741f","submitMerkleRoot(uint256,bytes32,bytes)":"cca66a9d","supportsInterface(bytes4)":"01ffc9a7","unpause()":"3f4ba83a","upgradeToAndCall(address,bytes)":"4f1ef286","verifier()":"2b7ac3f3"},"storageLayout":{"storage":[{"astId":61952,"contract":"src/MessageQueue.sol:MessageQueue","label":"_governanceAdmin","offset":0,"slot":"0","type":"t_contract(IGovernance)63517"},{"astId":61955,"contract":"src/MessageQueue.sol:MessageQueue","label":"_governancePauser","offset":0,"slot":"1","type":"t_contract(IGovernance)63517"},{"astId":61957,"contract":"src/MessageQueue.sol:MessageQueue","label":"_emergencyStopAdmin","offset":0,"slot":"2","type":"t_address"},{"astId":61960,"contract":"src/MessageQueue.sol:MessageQueue","label":"_verifier","offset":0,"slot":"3","type":"t_contract(IVerifier)63925"},{"astId":61962,"contract":"src/MessageQueue.sol:MessageQueue","label":"_emergencyStop","offset":20,"slot":"3","type":"t_bool"},{"astId":61966,"contract":"src/MessageQueue.sol:MessageQueue","label":"_blockNumbers","offset":0,"slot":"4","type":"t_mapping(t_uint256,t_bytes32)"},{"astId":61970,"contract":"src/MessageQueue.sol:MessageQueue","label":"_merkleRootTimestamps","offset":0,"slot":"5","type":"t_mapping(t_bytes32,t_uint256)"},{"astId":61974,"contract":"src/MessageQueue.sol:MessageQueue","label":"_processedMessages","offset":0,"slot":"6","type":"t_mapping(t_uint256,t_bool)"}],"types":{"t_address":{"encoding":"inplace","label":"address","numberOfBytes":"20"},"t_bool":{"encoding":"inplace","label":"bool","numberOfBytes":"1"},"t_bytes32":{"encoding":"inplace","label":"bytes32","numberOfBytes":"32"},"t_contract(IGovernance)63517":{"encoding":"inplace","label":"contract IGovernance","numberOfBytes":"20"},"t_contract(IVerifier)63925":{"encoding":"inplace","label":"contract IVerifier","numberOfBytes":"20"},"t_mapping(t_bytes32,t_uint256)":{"encoding":"mapping","key":"t_bytes32","label":"mapping(bytes32 => uint256)","numberOfBytes":"32","value":"t_uint256"},"t_mapping(t_uint256,t_bool)":{"encoding":"mapping","key":"t_uint256","label":"mapping(uint256 => bool)","numberOfBytes":"32","value":"t_bool"},"t_mapping(t_uint256,t_bytes32)":{"encoding":"mapping","key":"t_uint256","label":"mapping(uint256 => bytes32)","numberOfBytes":"32","value":"t_bytes32"},"t_uint256":{"encoding":"inplace","label":"uint256","numberOfBytes":"32"}}},"id":88}