{"abi":[{"type":"constructor","inputs":[{"name":"relayer_address","type":"address","internalType":"address"}],"stateMutability":"nonpayable"},{"type":"function","name":"calculateMerkleRoot","inputs":[{"name":"proof","type":"bytes32[]","internalType":"bytes32[]"},{"name":"leaf_hash","type":"bytes32","internalType":"bytes32"},{"name":"total_leaves","type":"uint256","internalType":"uint256"},{"name":"leaf_index","type":"uint256","internalType":"uint256"}],"outputs":[{"name":"","type":"bytes32","internalType":"bytes32"}],"stateMutability":"pure"},{"type":"function","name":"isProcessed","inputs":[{"name":"message","type":"tuple","internalType":"struct VaraMessage","components":[{"name":"nonce","type":"bytes32","internalType":"bytes32"},{"name":"sender","type":"bytes32","internalType":"bytes32"},{"name":"receiver","type":"address","internalType":"address"},{"name":"data","type":"bytes","internalType":"bytes"}]}],"outputs":[{"name":"","type":"bool","internalType":"bool"}],"stateMutability":"view"},{"type":"function","name":"processMessage","inputs":[{"name":"block_number","type":"uint256","internalType":"uint256"},{"name":"total_leaves","type":"uint256","internalType":"uint256"},{"name":"leaf_index","type":"uint256","internalType":"uint256"},{"name":"message","type":"tuple","internalType":"struct VaraMessage","components":[{"name":"nonce","type":"bytes32","internalType":"bytes32"},{"name":"sender","type":"bytes32","internalType":"bytes32"},{"name":"receiver","type":"address","internalType":"address"},{"name":"data","type":"bytes","internalType":"bytes"}]},{"name":"proof","type":"bytes32[]","internalType":"bytes32[]"}],"outputs":[],"stateMutability":"nonpayable"},{"type":"event","name":"MessageProcessed","inputs":[{"name":"blockNumber","type":"uint256","indexed":true,"internalType":"uint256"},{"name":"messageHash","type":"bytes32","indexed":true,"internalType":"bytes32"},{"name":"messageNonce","type":"bytes32","indexed":true,"internalType":"bytes32"}],"anonymous":false},{"type":"event","name":"ProoverAddressUpdated","inputs":[{"name":"proover","type":"address","indexed":false,"internalType":"address"}],"anonymous":false},{"type":"event","name":"RelayerAddressUpdated","inputs":[{"name":"relayer","type":"address","indexed":false,"internalType":"address"}],"anonymous":false},{"type":"error","name":"AlreadyInitialized","inputs":[]},{"type":"error","name":"BadProof","inputs":[]},{"type":"error","name":"MerkleRootNotSet","inputs":[{"name":"blockNumber","type":"uint256","internalType":"uint256"}]},{"type":"error","name":"MessageAlreadyProcessed","inputs":[{"name":"messageNonce","type":"bytes32","internalType":"bytes32"}]},{"type":"error","name":"MessageNotProcessed","inputs":[]}],"bytecode":{"object":"0x60a0604052348015600e575f5ffd5b506040516107fa3803806107fa833981016040819052602b91603b565b6001600160a01b03166080526066565b5f60208284031215604a575f5ffd5b81516001600160a01b0381168114605f575f5ffd5b9392505050565b60805161077c61007e5f395f610117015261077c5ff3fe608060405234801561000f575f5ffd5b506004361061003f575f3560e01c806344855efc14610043578063e1a551cf14610058578063f250df321461007e575b5f5ffd5b61005661005136600461047b565b6100b1565b005b61006b610066366004610501565b6102cf565b6040519081526020015b60405180910390f35b6100a161008c366004610556565b355f9081526020819052604090205460ff1690565b6040519015158152602001610075565b82355f9081526020819052604090205460ff16156100ea5760405163398560f160e11b8152833560048201526024015b60405180910390fd5b5f6100f4846102e7565b604051630aab8ba560e01b8152600481018990529091505f906001600160a01b037f00000000000000000000000000000000000000000000000000000000000000001690630aab8ba590602401602060405180830381865afa15801561015c573d5f5f3e3d5ffd5b505050506040513d601f19601f820116820180604052508101906101809190610590565b9050806101a3576040516354e2ed2d60e11b8152600481018990526024016100e1565b806101b18585858b8b610358565b146101cf57604051637ca55c7760e01b815260040160405180910390fd5b84355f9081526020819052604090819020805460ff191660011790556101fb90606087019087016105a7565b6001600160a01b031663bd3f5138602087013561021b60608901896105d4565b6040518463ffffffff1660e01b815260040161023993929190610617565b6020604051808303815f875af1158015610255573d5f5f3e3d5ffd5b505050506040513d601f19601f82011682018060405250810190610279919061064c565b6102965760405163ef2a441760e01b815260040160405180910390fd5b60405185359083908a907f86b784cc94bf75127f81b9f806d51b5a1cf5a970b3b349f1d3dc7086007bcec5905f90a45050505050505050565b5f6102dd8686868686610358565b9695505050505050565b5f808235602084013561030060608601604087016105a7565b61030d60608701876105d4565b60405160200161032195949392919061066b565b60408051808303601f1901815282825280516020918201208184015281518084038201815292820190915281519101209392505050565b5f83838310610369576103696106a4565b5f5b86811015610412575f888883818110610386576103866106b8565b90506020020135905060028561039c91906106e0565b600114806103b35750856103b1866001610707565b145b156103ca57805f528260205260405f2092506103d8565b825f528060205260405f2092505b6103e3600286610720565b945060026103f2600188610733565b6103fc9190610720565b610407906001610707565b95505060010161036b565b509695505050505050565b5f6080828403121561042d575f5ffd5b50919050565b5f5f83601f840112610443575f5ffd5b50813567ffffffffffffffff81111561045a575f5ffd5b6020830191508360208260051b8501011115610474575f5ffd5b9250929050565b5f5f5f5f5f5f60a08789031215610490575f5ffd5b863595506020870135945060408701359350606087013567ffffffffffffffff8111156104bb575f5ffd5b6104c789828a0161041d565b935050608087013567ffffffffffffffff8111156104e3575f5ffd5b6104ef89828a01610433565b979a9699509497509295939492505050565b5f5f5f5f5f60808688031215610515575f5ffd5b853567ffffffffffffffff81111561052b575f5ffd5b61053788828901610433565b9099909850602088013597604081013597506060013595509350505050565b5f60208284031215610566575f5ffd5b813567ffffffffffffffff81111561057c575f5ffd5b6105888482850161041d565b949350505050565b5f602082840312156105a0575f5ffd5b5051919050565b5f602082840312156105b7575f5ffd5b81356001600160a01b03811681146105cd575f5ffd5b9392505050565b5f5f8335601e198436030181126105e9575f5ffd5b83018035915067ffffffffffffffff821115610603575f5ffd5b602001915036819003821315610474575f5ffd5b83815260406020820152816040820152818360608301375f818301606090810191909152601f909201601f1916010192915050565b5f6020828403121561065c575f5ffd5b815180151581146105cd575f5ffd5b8581528460208201526bffffffffffffffffffffffff198460601b166040820152818360548301375f9101605401908152949350505050565b634e487b7160e01b5f52600160045260245ffd5b634e487b7160e01b5f52603260045260245ffd5b634e487b7160e01b5f52601260045260245ffd5b5f826106ee576106ee6106cc565b500690565b634e487b7160e01b5f52601160045260245ffd5b8082018082111561071a5761071a6106f3565b92915050565b5f8261072e5761072e6106cc565b500490565b8181038181111561071a5761071a6106f356fea2646970667358221220db736c4e7ed8f88b60d3d8f6cb489c12ab3a8079c8f50e22608d1dae16eea97164736f6c634300081c0033","linkReferences":{}},"methodIdentifiers":{"calculateMerkleRoot(bytes32[],bytes32,uint256,uint256)":"e1a551cf","isProcessed((bytes32,bytes32,address,bytes))":"f250df32","processMessage(uint256,uint256,uint256,(bytes32,bytes32,address,bytes),bytes32[])":"44855efc"},"id":55}