{"abi":[{"type":"constructor","inputs":[{"name":"message_queue","type":"address","internalType":"address"}],"stateMutability":"nonpayable"},{"type":"function","name":"deposit","inputs":[{"name":"token","type":"address","internalType":"address"},{"name":"amount","type":"uint256","internalType":"uint256"},{"name":"to","type":"bytes32","internalType":"bytes32"}],"outputs":[],"stateMutability":"nonpayable"},{"type":"function","name":"processVaraMessage","inputs":[{"name":"vara_msg","type":"tuple","internalType":"struct VaraMessage","components":[{"name":"nonce","type":"bytes32","internalType":"bytes32"},{"name":"sender","type":"bytes32","internalType":"bytes32"},{"name":"receiver","type":"address","internalType":"address"},{"name":"data","type":"bytes","internalType":"bytes"}]}],"outputs":[{"name":"","type":"bool","internalType":"bool"}],"stateMutability":"nonpayable"},{"type":"event","name":"Deposit","inputs":[{"name":"from","type":"address","indexed":true,"internalType":"address"},{"name":"to","type":"bytes32","indexed":true,"internalType":"bytes32"},{"name":"token","type":"address","indexed":true,"internalType":"address"},{"name":"amount","type":"uint256","indexed":false,"internalType":"uint256"}],"anonymous":false},{"type":"event","name":"Withdraw","inputs":[{"name":"to","type":"address","indexed":true,"internalType":"address"},{"name":"token","type":"address","indexed":true,"internalType":"address"},{"name":"amount","type":"uint256","indexed":false,"internalType":"uint256"}],"anonymous":false},{"type":"error","name":"AddressEmptyCode","inputs":[{"name":"target","type":"address","internalType":"address"}]},{"type":"error","name":"BadArguments","inputs":[]},{"type":"error","name":"BadEthAddress","inputs":[]},{"type":"error","name":"BadVaraAddress","inputs":[]},{"type":"error","name":"FailedCall","inputs":[]},{"type":"error","name":"InsufficientBalance","inputs":[{"name":"balance","type":"uint256","internalType":"uint256"},{"name":"needed","type":"uint256","internalType":"uint256"}]},{"type":"error","name":"NotAuthorized","inputs":[]},{"type":"error","name":"SafeERC20FailedOperation","inputs":[{"name":"token","type":"address","internalType":"address"}]}],"bytecode":{"object":"0x60a0604052348015600e575f80fd5b5060405161065d38038061065d833981016040819052602b91603b565b6001600160a01b03166080526066565b5f60208284031215604a575f80fd5b81516001600160a01b0381168114605f575f80fd5b9392505050565b6080516105e061007d5f395f608301526105e05ff3fe608060405234801561000f575f80fd5b5060043610610034575f3560e01c806313cfea221461003857806326b3293f1461005f575b5f80fd5b61004b610046366004610490565b610074565b604051901515815260200160405180910390f35b61007261006d3660046104e2565b6101e6565b005b5f808080336001600160a01b037f000000000000000000000000000000000000000000000000000000000000000016146100c15760405163ea8e4eb560e01b815260040160405180910390fd5b6100ce6060860186610512565b90506038146100f057604051630b9cddcd60e11b815260040160405180910390fd5b30610101606087016040880161055c565b6001600160a01b031614610128576040516399f36bdf60e01b815260040160405180910390fd5b60208501357f9e662fa61013715253844d3ef0344685ad4cc2664853e782e94545de1eb2af3b1461016c5760405163670e8a3760e01b815260040160405180910390fd5b50505060c435606090811c9060d835901c60ec3560801c61018e82848361024e565b816001600160a01b0316836001600160a01b03167f9b1bfa7fa9ee420a16e124f794c35ac9f90472acc99140eb2f6447c714cad8eb836040516101d391815260200190565b60405180910390a3506001949350505050565b6101fb6001600160a01b0384163330856102b2565b6001600160a01b03831681336001600160a01b03167fbe120278019af83a2d6506be58cc7d863f4f76830d552cb338ea426d1e3e01c18560405161024191815260200190565b60405180910390a4505050565b6040516001600160a01b038381166024830152604482018390526102ad91859182169063a9059cbb906064015b604051602081830303815290604052915060e01b6020820180516001600160e01b0383818316178352505050506102f1565b505050565b6040516001600160a01b0384811660248301528381166044830152606482018390526102eb9186918216906323b872dd9060840161027b565b50505050565b5f6103056001600160a01b03841683610357565b905080515f141580156103295750808060200190518101906103279190610575565b155b156102ad57604051635274afe760e01b81526001600160a01b03841660048201526024015b60405180910390fd5b606061036483835f61036b565b9392505050565b6060814710156103975760405163cf47918160e01b81524760048201526024810183905260440161034e565b5f80856001600160a01b031684866040516103b29190610594565b5f6040518083038185875af1925050503d805f81146103ec576040519150601f19603f3d011682016040523d82523d5f602084013e6103f1565b606091505b509150915061040186838361040b565b9695505050505050565b6060826104205761041b82610467565b610364565b815115801561043757506001600160a01b0384163b155b1561046057604051639996b31560e01b81526001600160a01b038516600482015260240161034e565b5080610364565b8051156104775780518082602001fd5b60405163d6bda27560e01b815260040160405180910390fd5b5f602082840312156104a0575f80fd5b813567ffffffffffffffff8111156104b6575f80fd5b820160808185031215610364575f80fd5b80356001600160a01b03811681146104dd575f80fd5b919050565b5f805f606084860312156104f4575f80fd5b6104fd846104c7565b95602085013595506040909401359392505050565b5f808335601e19843603018112610527575f80fd5b83018035915067ffffffffffffffff821115610541575f80fd5b602001915036819003821315610555575f80fd5b9250929050565b5f6020828403121561056c575f80fd5b610364826104c7565b5f60208284031215610585575f80fd5b81518015158114610364575f80fd5b5f82518060208501845e5f92019182525091905056fea2646970667358221220824c04dbacc3efb722b07e2ecc0f3f22675dd8a1c284b82367323600e719e75164736f6c634300081a0033","linkReferences":{}},"methodIdentifiers":{"deposit(address,uint256,bytes32)":"26b3293f","processVaraMessage((bytes32,bytes32,address,bytes))":"13cfea22"},"id":47}